:020000040800F2
:10400000C04F0020055E000855AE000861AE0008F4
:104010006DAE000879AE000885AE00080000000013
:10402000000000000000000000000000419E0008A9
:1040300091AE000800000000D19E0008159F000806
:104040004D5E000893AE00084D5E00084D5E00080E
:10405000A5AE0008A9AE00084D5E00084D5E000840
:104060004D5E00084D5E00084D5E0008ADAE0008D4
:104070004D5E00084D5E00084D5E00084D5E000874
:104080004D5E00084D5E0008B9AE0008C5AE0008E0
:10409000D1AE0008D5AE0008D9AE00084D5E0008CC
:1040A000DDAE0008E9AE0008EDAE0008F1AE000894
:1040B000F5AE00084D5E000809AF00084D5E00082F
:1040C0004D5E00084D5E00084D5E00084D5E000824
:1040D0004D5E00084D5E00084D5E00084D5E000814
:1040E0004D5E00084D5E00084D5E000800000000B7
:1040F00000000000000000000000000000000000C0
:0C41000000000000000000005FF808F163
:1041100010B5054C237833B9044B13B10448AFF301
:1041200000800123237010BDB80A002000000000A9
:1041300048B5000808B5034B1BB103490348AFF36A
:10414000008008BD00000000BC0A002048B500083F
:1041500080F0004002E000BF81F0004142001FBF3C
:104160005FEA410392EA030F7FEA226C7FEA236C45
:104170006AD04FEA1262D2EB1363C1BFD21841403A
:1041800048404140B8BF5B42192B88BF704710F0D0
:10419000004F40F4000020F07F4018BF404211F073
:1041A000004F41F4000121F07F4118BF494292EADB
:1041B000030F3FD0A2F1010241FA03FC10EB0C0007
:1041C000C3F1200301FA03F100F0004302D5494294
:1041D00060EB4000B0F5000F13D3B0F1807F06D341
:1041E00040084FEA310102F10102FE2A51D2B1F139
:1041F000004F40EBC25008BF20F0010040EA03002E
:104200007047490040EB0000013A28BFB0F5000FAD
:10421000EDD2B0FA80FCACF1080CB2EB0C0200FA63
:104220000CF0AABF00EBC25052421843BCBFD040B2
:104230001843704792F0000F81F4000106BF80F42C
:1042400000000132013BB5E74FEA41037FEA226CEF
:1042500018BF7FEA236C21D092EA030F04D092F0BA
:10426000000F08BF0846704790EA010F1CBF0020EE
:10427000704712F07F4F04D1400028BF40F000404B
:10428000704712F100723CBF00F50000704700F06B
:10429000004343F0FE4040F4000070477FEA226292
:1042A00016BF08467FEA23630146420206BF5FEA63
:1042B000412390EA010F40F4800070474FF0000363
:1042C00004E000BF10F0004348BF40425FEA000C2A
:1042D00008BF704743F0964301464FF000001CE0D2
:1042E00050EA010208BF70474FF000030AE000BF28
:1042F00050EA010208BF704711F0004302D5404266
:1043000061EB41015FEA010C02BF844601460020D7
:1043100043F0B64308BFA3F18053A3F50003BCFAF2
:104320008CF2083AA3EBC25310DB01FA02FC63449F
:1043300000FA02FCC2F12002BCF1004F20FA02F2A6
:1043400043EB020008BF20F00100704702F1200299
:1043500001FA02FCC2F1200250EA4C0021FA02F2FA
:1043600043EB020008BF20EADC7070474FF0FF0CFF
:104370001CEAD0521EBF1CEAD15392EA0C0F93EAFA
:104380000C0F6FD01A4480EA010C400218BF5FEA9C
:1043900041211ED04FF0006343EA501043EA51110F
:1043A000A0FB01310CF00040B1F5000F3EBF490009
:1043B00041EAD3715B0040EA010062F17F02FD2A0D
:1043C0001DD8B3F1004F40EBC25008BF20F00100F0
:1043D000704790F0000F0CF0004C08BF49024CEA07
:1043E000502040EA51207F3AC2BFD2F1FF0340EA99
:1043F000C250704740F400004FF00003013A5DDC0A
:1044000012F1190FDCBF00F000407047C2F100024A
:10441000410021FA02F1C2F1200200FA02FC5FEA37
:10442000310040F1000053EA4C0308BF20EADC7081
:10443000704792F0000F00F0004C02BF400010F4F3
:10444000000F013AF9D040EA0C0093F0000F01F0A0
:10445000004C02BF490011F4000F013BF9D041EAC2
:104460000C018FE70CEAD15392EA0C0F18BF93EAC4
:104470000C0F0AD030F0004C18BF31F0004CD8D1EE
:1044800080EA010000F00040704790F0000F17BF75
:1044900090F0004F084691F0000F91F0004F14D0BB
:1044A00092EA0C0F01D142020FD193EA0C0F03D113
:1044B0004B0218BF084608D180EA010000F0004016
:1044C00040F0FE4040F40000704740F0FE4040F4F1
:1044D000400070474FF0FF0C1CEAD0521EBF1CEA90
:1044E000D15392EA0C0F93EA0C0F69D0A2EB0302AE
:1044F00080EA010C49024FEA402037D04FF0805348
:1045000043EA111143EA10130CF000408B4238BF0C
:104510005B0042F17D024FF4000C8B4224BF5B1A1A
:1045200040EA0C00B3EB510F24BFA3EB510340EA68
:104530005C00B3EB910F24BFA3EB910340EA9C0016
:10454000B3EBD10F24BFA3EBD10340EADC001B0186
:1045500018BF5FEA1C1CE0D1FD2A3FF650AF8B422A
:1045600040EBC25008BF20F0010070470CF0004C37
:104570004CEA50207F32C2BFD2F1FF0340EAC25062
:10458000704740F400004FF00003013A37E792F023
:10459000000F00F0004C02BF400010F4000F013A81
:1045A000F9D040EA0C0093F0000F01F0004C02BF7C
:1045B000490011F4000F013BF9D041EA0C0195E7E5
:1045C0000CEAD15392EA0C0F08D142027FF47DAF7E
:1045D00093EA0C0F7FF470AF084676E793EA0C0F6E
:1045E00004D14B023FF44CAF08466EE730F0004C6C
:1045F00018BF31F0004CCAD130F000427FF45CAFFC
:1046000031F000437FF43CAF5FE700BF4FF0FF3C69
:1046100006E000BF4FF0010C02E000BF4FF0010CBC
:104620004DF804CD4FEA40024FEA41037FEA226C85
:1046300018BF7FEA236C11D001B052EA530C18BFA7
:1046400090EA010F58BFB2EB030088BFC81738BF0C
:104650006FEAE17018BF40F0010070477FEA226CFA
:1046600002D15FEA402C05D17FEA236CE4D15FEAF6
:10467000412CE1D05DF8040B704700BF844608462A
:104680006146FFE70FB5FFF7C9FF002848BF10F1EB
:10469000000F0FBD4DF808EDFFF7F4FF0CBF012030
:1046A00000205DF808FB00BF4DF808EDFFF7EAFFBA
:1046B00034BF012000205DF808FB00BF4DF808ED75
:1046C000FFF7E0FF94BF012000205DF808FB00BF6A
:1046D0004DF808EDFFF7D2FF94BF012000205DF8F0
:1046E00008FB00BF4DF808EDFFF7C8FF34BF0120FD
:1046F00000205DF808FB00BF4FEA40024FEA41038B
:104700007FEA226C02D15FEA402C08D17FEA236C59
:1047100002D15FEA412C02D14FF0000070474FF008
:104720000100704742000ED2B2F1FE4F0BD34FF0A2
:104730009E03B3EB126209D44FEA002343F0004317
:1047400023FA02F070474FF00000704712F1610F3A
:1047500001D1420202D14FF0FF3070474FF000000C
:10476000704700BF53B94AB9002908BF00281CBFD1
:104770004FF0FF314FF0FF3000F068B9ADF1080C99
:104780006DE904CE00F006F8DDF804E0DDE902236F
:1047900004B070472DE9F047089D0C46002B4ED120
:1047A00094468C458646B2FA82F262D94AB1C2F189
:1047B0002003914020FA03F30CFA02FC194300FA9B
:1047C00002FE4FEA1C47B1FBF7F407FB14111FFA76
:1047D0008CF64FEA1E4343EA014304FB06F199427B
:1047E0000AD91CEB030304F1FF3080F010819942D9
:1047F00040F20D81023C6344591AB1FBF7F007FB0C
:10480000101100FB06F61FFA8EF343EA01439E42A5
:104810000AD91CEB030300F1FF3180F0FA809E42BD
:1048200040F2F7806344023800219B1B40EA0440B9
:104830001DB1D3400022C5E90032BDE8F0878B42AC
:1048400005D90DB1C5E9000100210846F5E7B3FA25
:1048500083F1002946D1A34202D39042C0F0EE80FA
:10486000861A64EB03030120002DE6D0C5E900633E
:10487000E3E7002A40F08F80A1EB0C0401214FEA0E
:104880001C481FFA8CF7B4FBF8F608FB164407FB2C
:1048900006F04FEA1E4343EA0443984208D91CEB52
:1048A000030306F1FF3402D2984200F2CB80264681
:1048B0001C1AB4FBF8F008FB104400FB07F71FFAC2
:1048C0008EF343EA04439F4208D91CEB030300F133
:1048D000FF3402D29F4200F2AE802046DB1B40EA4A
:1048E0000640A5E7C1F120078B4022FA07FC4CEAFD
:1048F000030C24FA07F64FEA1C49B6FBF9F81FFA35
:104900008CFE09FB186620FA07F38C4000FA01FAC6
:1049100008FB0EF01C43230C43EA0643984202FABC
:1049200001F20AD91CEB030308F1FF3680F0818005
:1049300098427ED9A8F1020863441E1AB6FBF9F327
:1049400009FB136603FB0EFEA4B244EA0644A64527
:1049500008D91CEB040403F1FF3066D2A64564D9E4
:10496000023B644443EA0840A0FB0283A4EB0E042C
:104970009C42C6461E4650D34DD055B1BAEB0E03ED
:1049800064EB060404FA07F7CB401F43CC40C5E9AB
:104990000074002151E70CFA02FCC2F12003D94057
:1049A0004FEA1C4820FA03F300FA02FEB1FBF8F0CC
:1049B00008FB101194401C431FFA8CF7230C43EAA8
:1049C000014300FB07F1994208D91CEB030300F1F6
:1049D000FF362CD299422AD9023863445B1AB3FBC2
:1049E000F8F108FB1133A4B244EA034401FB07F3D6
:1049F000A34208D91CEB040401F1FF3613D2A342F1
:104A000011D902396444E41A41EA00413BE7044603
:104A1000F2E6084608E7C245AFD2B8EB020E63EBF8
:104A20000C060138A9E73146EDE703469AE7304620
:104A3000D4E7B04681E7634402384FE70646234691
:104A4000084611E7023E634432E700BF704700BFEB
:104A5000034670B5B0F87A00B3F88850B3F8782000
:104A6000A842D3E9204625D153F822004043241A16
:104A700066F10006C3E9204601FB01F043F822106D
:104A80000132D3E920410019B2FBF5F405FB1422F1
:104A900041F10001A3F87820C3E92001B3F87A209E
:104AA0000023FFF75FFEFFF71BFC06F08BFBFFF711
:104AB00039FE70BD0130A3F87A00DDE7F8B51E4677
:104AC000174604460D46FFF7C3FF2946386004F138
:104AD0009000FFF7BDFF2946306004F59070FFF7A6
:104AE000B7FF069B1860F8BD2DE9F04F9A4B87B0D1
:104AF000B3F800900A2309EB8904B4FBF3F4974F51
:104B0000A3B20393039AB7F80080954B42451A80ED
:104B10008CBF00220122934B93491A70934B1C784F
:104B2000012C04D0924A1278012A40F0F980914871
:104B30000A78007802430CBF012200228E480270DE
:104B40000A78012A07D18D4D8D4A2E681268002EF1
:104B500040F0E8802A608B4A1278012A03D08A4A02
:104B60001278012A01D100220270884B1A780AB10A
:104B700000250570864DDFF81CC22E780978012EBD
:104B800004BF002505709CF80000834D012807D163
:104B900052EA010A01BF28788CF800A00130287081
:104BA0007E4890F800C0BCF1010F0AD1324308D111
:104BB000DFF8E4A102709AF800C00CF1010C8AF849
:104BC00000C02A780A2A04BF01221A70694B744A6D
:104BD00093F800E01578BEF1010F40F0AB80002C97
:104BE00040F0A880012D40F0A5801470624A1C702E
:104BF00014706C4A14600278B242664A18BF06709C
:104C00001078884218BF1170012C12D1DFF898A1DA
:104C1000664D9AF80000D5F800B0132800F28E8097
:104C2000634A01308AF8000059461068FFF796FA87
:104C3000286060490A78012A5F4A04D10020087080
:104C40005E490968116012685D4910460492FFF7D9
:104C500049FDDFF870A14A4DDAF800B0002800F0F5
:104C6000C580002E40F0C280012C049A40F0BE8026
:104C700011461046FFF77AFB5349FFF76DFA534987
:104C8000FFF728FC5946FFF769FACAF80000FFF75A
:104C900049FD4F4B18604B4B4E49D3F800B0584676
:104CA000FFF720FD8246002800F0CA800122384B21
:104CB0001A7042F21072A9F5DA53183B9BB2934274
:104CC0004548464A00F2C980002313602E4A03601B
:104CD00013702C4A1370424E274932784148012AFA
:104CE00040F06481404B2C681B68E31A012B40F2B2
:104CF000F480B8F5CC6F4FF0000CDFF86CE040F2B8
:104D0000CD80072B8EF800C040F2E780039B43451F
:104D100040F2E08001238EF8003000230B70C4E0E5
:104D200000220BE7921BB2F5967F7FF614AF0022AC
:104D30000A700FE7AC4218BF14705CE7FFF7C2FAC5
:104D400001465846FFF7C6FB1B4A106000228AF84E
:104D5000002000222A606CE70000002002000020F2
:104D6000700B0020780B00207E0B00200400002038
:104D7000D80B00207F0B002005000020040B002032
:104D80006C0B00207C0B00207D0B0020760B00209C
:104D9000800B0020030B0020770B0020020B00206B
:104DA000010B0020680B0020000B0020FC0A0020F3
:104DB0000C0B0020830B0020F80A0020080B0020B9
:104DC00000002841F40A00200080DC42000020415D
:104DD000600B00200000CD44F00A0020EC0A002007
:104DE000820B0020E80A0020640B002014222B68AC
:104DF000B3FBF2F102FB11330593002B7FF44BAFB1
:104E000058469449FFF7B2FA9349FFF763FBCAF893
:104E100000000490FFF786FCDFF840B2049ACBF85C
:104E200000004FF07E511046FFF73EFC00283FF493
:104E300032AF0022059BCAF80020CBF800302AE7E9
:104E400000215846FFF726FC00283FF432AF012E20
:104E500004BF834B83F800A02BE741F65731894507
:104E60002B680CD8016811B9036000230BE0591AB4
:104E70003C298CBF012100217A4B1970F5E70021F4
:104E80000160106808B9136025E71B1A3C2B88BF26
:104E90000122754B8CBF1A7019701CE7072B8EF816
:104EA000002081F800C03FF631AF00246F4B22464E
:104EB0001C606F4B04701C606E4B02211C606E4BBB
:104EC0006E481C606E4B34701B685C6302F058FBCC
:104ED0002246B3E000238EF800300C78012CE4D198
:104EE00001782B6800297DD1624A0470136040F27A
:104EF0000112634B1B685A63624B1B78012B624B98
:104F000000F09F801A780AB901221A701A782C686A
:104F10004AB15E480168002940F0FA805C4B0460A9
:104F20001C605C4B1C60002C3BD0C822B4FBF2F32D
:104F300002FB1343002B34D1574B58490093584A76
:104F4000584B09685848FFF7B9FD584B584900932A
:104F5000584A594B09885948FFF7B0FD584B594AF0
:104F600000933988584B5948FFF7A8FD584B5949C9
:104F70000093594A594B09685948FFF79FFD594B0F
:104F800059490093594A5A4B09885A48FFF796FDE8
:104F9000594B5A4900935A4A5A4B09885A48FFF7C5
:104FA0008DFD01342C6007B0BDE8F08F022A94D14A
:104FB000039B2E4C434506D80023DFF850C18CF8E4
:104FC0000030236089E7D4F800C02B68BCF1000FE3
:104FD000F7D0A3EB0C033C2B7FF67FAF01224B4BAA
:104FE0001A709AE6012909D122490A689A1A092AEF
:104FF00082D90223037000230B607DE702297FF42E
:105000007BAF6AB91A4A106800287FF475AF136045
:10501000194A347013602246184802F0B1FA6BE75F
:10502000012A7FF469AF124C20681B1A152B03D993
:10503000002231702260EFE77FF45EAF4FF48061B1
:10504000EAE7002211491A700A6011490A60114901
:105050000A605BE70000AA420000C842600B002023
:10506000800B00207D0B00207C0B0020680B0020B3
:10507000E00A0020E40A0020640B0020000C01403C
:105080009446002004000020790B0020DC0A002058
:10509000D80A0020D40A0020500B00205C0B00200E
:1050A000580B0020540B002078080020440B0020EF
:1050B000000000204C0B0020480B0020C8060020F8
:1050C000380B0020400B00203C0B0020180500206E
:1050D0002C0B0020100B0020340B0020300B002084
:1050E00068030020200B0020740B0020280B0020F8
:1050F000240B0020B8010020140B0020720B0020AC
:105100001C0B0020180B0020080000207F0B002043
:10511000022A1CD0032A33D0012A7FF404AF4CF2B8
:10512000A75C2248611A61450688388807D98642FB
:105130003FF6F9AE022119701D4B1A70F3E6864254
:105140007FF6F1AE02221A700022194BF5E70A2011
:105150001849DFF864C009883E8801EB4101B1FBC2
:10516000F0F116480068201A604504D98E42FFF617
:10517000DAAE0321DFE78E42BFF6D5AE0322E2E7C7
:105180000F49104E09683888611AB14207D9B0F545
:10519000487FFFF4C8AE06490A700422CDE7B0F597
:1051A000487FBFF4C0AE0422CDE700BF700B0020E3
:1051B000810B0020000000209F680600D80A002014
:1051C000D40A00201FEE0F002DE9F041914E924CC1
:1051D0003768002F6FD1914B914D1B782246237079
:1051E00001232B61512329462B608E488E4B01F001
:1051F000ABFB8E4B4FF008081B6829461A0A237038
:1052000062701A0C1B0EE370894BA2701B88224639
:1052100023711B0A6371874B82481B88C5F8108075
:10522000A3711B0AE37140F2EF632B607E4B01F028
:105230008BFB814B29461B787A4823707F4BC5F83E
:1052400010801B7863707E4B1B6823FA08F2A370F2
:10525000E2701A0C1B0E63717A4B22711B78224686
:10526000A371794B1B78E3714FF4DE632B606E4BB7
:1052700001F06AFB754B22461B7829462370744B5C
:1052800068481B78A4F805706370724BE7711B784F
:10529000A370714B1B78E370704B1B78237105234F
:1052A0002B6140F2F1632B605F4B01F04DFB2760F7
:1052B00067602F612F605B4801F03FFD042800F01C
:1052C0009280674B35681B78022B40F08C80C82396
:1052D000B5FBF3F203FB125585B9504B504F1B78C9
:1052E0003946237001233B6151234B4A3B604D48B3
:1052F0004D4B01F029FB65603D613D60356815F05F
:10530000010521D1494B464F1B6839461A0A2370C3
:1053100062701A0C1B0EE370454BA2701B883E4A4C
:1053200023711B0A6371434B3E481B88A3711B0A00
:10533000E37108233B6140F2EF633B603A4B01F0BD
:1053400003FB65603D613D6014233568B5FBF3F2F6
:1053500003FB12551DBB384B314F1B783946237068
:10536000364B30481B786370354B1B681A0AA370A4
:10537000E2701A0C1B0E6371324B22711B78264AA5
:10538000A371314B1B78E37108233B614FF4DE635B
:105390003B60254B01F0D8FA65603D613D600A2312
:1053A0003768B7FBF3F103FB1177E7B9274B1C4DC7
:1053B0001B7829462370264B174A1B7819486370BF
:1053C000244B1B78A370244B1B78E370234B1B7872
:1053D000237105232B6140F2F1632B60124B01F026
:1053E000B3FA2F612F601F4A1368392B03F10103B1
:1053F0001360336888BF012003F1010333604FF06D
:10540000000388BF1649236088BF08706360BDE849
:10541000F08100BFD40B0020900B0020780B0020FF
:10542000980B0020C04400208C0B00205C0B002057
:1054300000000020020000207D0B00207C0B0020DB
:10544000600B00207E0B00207F0B0020800B0020D3
:10545000760B0020770B00207B0B0020810B0020B7
:10546000280A0020880B002070B5294B06461B78BF
:10547000284D012B284C12D12B462246002101F049
:10548000B5FA40F2FF3322689A4206D12B78122BEC
:1054900003D10021084600F0B1FC02F087F81D4B53
:1054A0001D4A0021304601F0A1FA40F2FF32236884
:1054B000934215D12B78122B07D100230221174AD2
:1054C0001370174A1170174A13600023C4E902339E
:1054D00023616360A361236063612B606B6070BDB7
:1054E000502B03D12A78104B1A70EEE740F202726B
:1054F0009342EAD10D48074903602369036100F034
:10550000B3F80B4A2B6813606B685360DDE700BF8C
:105510002C0C0020B00B0020B80B0020840B0020C6
:10552000280A0020880B002004000020EC0B00203B
:10553000E10B00200B0A017043700B0C090E837005
:10554000C17070472DE9F0411546142207468AB014
:105550009DF840800C460DEB020000211E4605F030
:10556000CFFD0497B8F1000F15D0082231460DEB9E
:10557000020005F0C5FD2A46214602A805F0ECFD13
:10558000082302AA089301AB04A9054801F0DCF93D
:105590000AB0BDE8F0812246089501ABF4E700BFF0
:1055A000C0440020F8B507460E4600F06FFC0546E3
:1055B000154C00F06BFC6369401B984201D300203E
:1055C00016E0237A002BF4D000232372637A13F0C1
:1055D0000F0310D194F90B20A37A002A3B70E37AD1
:1055E00004DA0F33DBB2082B03D801230120337018
:1055F000F8BD637CFAE7012B03D100F047FC0546B8
:10560000D7E74FF0FF30F3E7300A00200F4B104A86
:105610001978987911705978907140315170997852
:105620009170D978D170197911715979DB795171EB
:10563000D371084B1970084B084918691B68086139
:1056400001330B600648074B01F07EB9E10B0020E7
:10565000D90B0020D80B0020EC0B0020080C0020F8
:10566000C0440020200C002010B50F4B02461C78CF
:1056700004F0FF00ACB19068A0B914685A68944275
:105680000FD10A7802F0F002302A0AD11A7A3AB918
:105690000A68C3F809204A68C3F80D2001221A726B
:1056A000012010BD0020FCE7300A00202DE9F04F5A
:1056B000072A89B0884615469DF848B0039300F143
:1056C000010AD4B214D80DF119008DF8184005F074
:1056D00043FD621C5046039BCDF800B0D2B206A930
:1056E000FFF730FFB0FA80F0400909B0BDE8F08F55
:1056F0004FF001090027C2F3032242F010028DF897
:1057000018200A688DF81940CDF81A20384C8A887C
:1057100084F800906060ADF81E2027720822504681
:10572000CDF800B006A9FFF70DFF064610B12770AF
:105730000020DAE7627C8DF816000DF117010DF1FB
:1057400016008DF81720FFF72DFF002801DC2670CA
:10575000EEE706279DF816409DF816306BB164B948
:105760000DF117010DF11600FFF71CFF002802DCF8
:105770001F4B1C70DCE79DF81640EE1B072E28BF60
:10578000072649F02003072203990DF119008DF82F
:10579000183005F0B5FC324608EB07010DF1190091
:1057A00005F0DAFC721C5046039BCDF800B0D2B273
:1057B00006A9FFF7C7FE18B100220D4B1A70B7E714
:1057C00009F1010303F00F099DF816303E44B7B20A
:1057D00013B10CB1013CE4B29DF8170008B100F020
:1057E0005BFBBD42B8D80022014B01201A707CE758
:1057F000300A0020712300B597B08DF80C30384B7B
:1058000004A89A788DF80D20DA781B798DF80E208F
:105810008DF80F30334B4C221968FFF78BFE324B5B
:1058200005A81968FFF786FE304B06A81968FFF730
:1058300081FE2F4B07A81968FFF77CFE2D4B08A8A7
:105840001968FFF777FE2C4B09A81968FFF772FE5D
:105850002A4B0AA81968FFF76DFE294B0BA8196897
:10586000FFF768FE274B0CA81968FFF763FE264B6D
:105870000DA81968FFF75EFE244B0EA81968FFF704
:1058800059FE234B0FA81968FFF754FE214B10A8AF
:105890001968FFF74FFE204B11A81968FFF74AFE61
:1058A0001E4B12A81968FFF745FE1D4B13A8196877
:1058B000FFF740FE1B4B14A81968FFF73BFE1A4B7D
:1058C00015A81968FFF736FE01231848009303A9AD
:1058D00055230068FFF7EAFE17B05DF804FB00BF30
:1058E000E10B0020580B0020540B0020500B00202F
:1058F0004C0B0020480B0020440B0020400B0020E4
:105900003C0B0020380B0020340B0020300B002013
:105910002C0B0020280B0020240B0020200B002043
:105920001C0B0020180B0020140B0020EC0B002097
:1059300008B5144B144AD8781978D07018791170BA
:10594000597810715879403151705071997898791F
:10595000DB799071D3710D4B917019600C4B0D492F
:1059600018691B68086101330B600B480B4B00F092
:10597000EBFF012000F090FABDE808400021084646
:1059800000F03CBAE10B0020D90B0020C04F0020F2
:10599000EC0B0020080C0020C0440020200C00204C
:1059A00003230E4A13707F2353701923937022230D
:1059B000D3700B4B19791171597951719979DB7940
:1059C0009171D371074B084918691B68086101334D
:1059D0000B600648064B00F0B7BF00BFD90B002094
:1059E000E10B0020EC0B0020080C0020C04400203C
:1059F000200C002008B5134B134A19781170597800
:105A00004031517099789170D978D17019791171AC
:105A1000597951719979DB799171D3710B4B0C499B
:105A200018691B68086101330B600A480A4B00F0D3
:105A30008BFF012000F030FABDE808400021084645
:105A400000F0DCB9E10B0020D90B0020EC0B0020AA
:105A5000080C0020C0440020200C002070B5154B1D
:105A6000154C1A78154D043222705A78144E403273
:105A700062709A78DB78A270E370124B1A78227108
:105A80005A7862719A78DB78A271E3710E4B1A69C9
:105A90001B682A6101332B603346224629460B4896
:105AA00000F052FF0028F7D00023236063602B61D1
:105AB0002B6070BDE10B0020D90B0020080C0020EA
:105AC000200C0020290A0020EC0B0020C0440020FC
:105AD00070B50025144B154C1D70154B154E1D70DF
:105AE000154B31461A78154822705A784032627048
:105AF0009A78A270DA78E2701A7922715A79627112
:105B00009A79DB79A271E3710D4B1A691B683261D6
:105B10000133336022460B4B00F016FF25606560B1
:105B20003561356070BD00BF770B0020D90B0020B8
:105B3000760B0020080C0020E10B0020C044002060
:105B4000EC0B0020200C002038B52F4D2B6833B90A
:105B50002E4A136032222E4B5A7464225A612D4C05
:105B6000A378022B08D12C4B1A782C4B1B7852EAC5
:105B700003013AD1FFF7DCFE6278A378112A0AD13B
:105B8000012B08D1244B1A78244B1B7852EA0301CD
:105B900032D1FFF72FFFA378F12B04D1E378802BCC
:105BA00001D1FFF75BFF2379402B04D16378312BC0
:105BB00011D1FFF78DFF2379422B04D16378312B6C
:105BC00009D1FFF723FD2379412B04D16378312BD1
:105BD00001D1FFF70FFE0023114A236063601360B9
:105BE00053602B6801332B6038BD012A01D0012B93
:105BF000C2D1FFF7D5FEBFE7012A01D0012BD2D1D8
:105C0000FFF7CEFEC7E700BF240C0020C04F0020E6
:105C1000300A0020E10B002004000020D80B0020F7
:105C2000D90B0020BFF34F8F0549064BCA6802F419
:105C3000E0621343CB60BFF34F8F00BFFDE700BFAF
:105C400000ED00E00400FA051FB572B603224FF420
:105C5000C243002469462E48CDE90032CDE9024412
:105C600001F014FB40F22A4369462A48009301F0F0
:105C70000DFB4FF4005369462748009301F006FBE3
:105C800062B6264800F08CFC244800F0F9FB72B69E
:105C9000234B21469A69234822F008029A619A69A7
:105CA00022F010029A615A6922F001025A619A693F
:105CB00022F400729A619A6922F001029A619A694B
:105CC00022F400629A6102F0C3FB164802F0A0F8C9
:105CD00005F0B6F860B2013401F094F8522CF9D115
:105CE0004FF0E022012413690F4823F005031361EC
:105CF00002F064F80D4B0E481C7000F013FE62B603
:105D000000F0DCF82146204601F040FCFFF78AFF56
:105D100000080140000C01400010014074440020C4
:105D20000010024094460020E04500202C0C00208A
:105D3000C044002008B501211F4801F01BFC1F4B87
:105D40001F4A18701F4B1B78012B05D0012803D068
:105D50001D4B1B78022B17D101211C4B19703A23C4
:105D60001B4913600B6013681A4A1278042A16D074
:105D70002BB90222154B1A703A22154B1A60164A9B
:105D800013680133136008BD1368002BEBD0013B8F
:105D90001360002BE7D102210C4B1970E3E7002BB5
:105DA000EDD10B4A1368002BE9D0013B1360002BA7
:105DB000E5D1FFF749FF00BF000801402D0C00208E
:105DC0004C0A002004000020280A0020500A00206D
:105DD000480A0020790B0020280C0020012108B57A
:105DE000054801F0C7FB012801D1FFF71BFFBDE803
:105DF000084001F0DBBB00BF0008014008B5FFF719
:105E000011FF000005F086F80B480C490C4A0023EE
:105E100002E0D458C4500433C4188C42F9D3094A60
:105E2000094C002301E013600432A242FBD305F0C9
:105E30006FF904F0B7FE704700000020B80A002098
:105E400098B60008B80A002080480020FEE700004D
:105E500008B5074A0320136843F01003136000F0ED
:105E60006FFF012004F09EFF04F074FF002008BDC6
:105E700000200240034A044B11681B780B44136056
:105E8000704700BF300C0020510A0020014B1868F9
:105E9000704700BF300C002038B50446FFF7F6FF0E
:105EA0000546631C1EBF044B1B78E418FFF7EEFF8A
:105EB000431BA342FAD338BD510A0020024A53685B
:105EC00023F0010353607047002004E0436A9A6A9C
:105ED00012F0500F1AD19A6A42F400729A621A684C
:105EE000926802F46022B2F5602F0CD11A7B52B98D
:105EF0009A6A22F480729A629A6AD2045EBF9A6A9F
:105F000042F001029A6218461A6B10471B6A1B6B1B
:105F10001847406A436B1847406A836A43F040035E
:105F20008362C36A43F00403C362C36B18477047BC
:105F300070B5036804461D685E68B00626D5A907DB
:105F400024D5A26AD2065EBFA26A42F40072A2629F
:105F50009A6802F46022B2F5602F10D1227B72B9E8
:105F60005A6822F020025A60A36A23F48073A36265
:105F7000A36AD8045EBFA36A43F00103A362236B44
:105F8000204698476FF0120223681A60310630D518
:105F90006A072ED5A36ADB065EBFA36A43F40053EB
:105FA000A36223689A6802F4E042B2F5E04F0AD097
:105FB0005A68500516D49A6802F46022B2F5602F30
:105FC00010D1227B72B95A6822F080025A60A36A0B
:105FD00023F48053A362A36AD9055EBFA36A43F08A
:105FE0000103A362236C204698476FF00C022368DC
:105FF0001A6072060CD5EB070AD5A36A204643F453
:106000008033A362A36B98476FF0010223681A6084
:1060100070BD0000002373B5019390F82430024650
:10602000012B71D0012380F824304C680068062CC5
:106030000D684FEA840325D823441F24466B053B93
:106040009C4026EA040405FA03F3234343630C68E7
:106050001668092C04EB44008B684FF0070429D91B
:10606000F5681E38844025EA040483402343F36026
:106070000B68103B012B25D90020002382F8243027
:1060800002B070BD0C2C23444FF01F0409D8066BDE
:10609000233B9C4026EA040405FA03F323430363ED
:1060A000D5E7C66A413B9C4026EA04049D402C4348
:1060B000C462CCE73569844025EA04048340234365
:1060C0003361D5E713681148834217D198680002FD
:1060D000D2D4986840F4000098600B68102BCBD1A4
:1060E0000B4B0C491B68B3FBF1F30A214B430193A3
:1060F000019B002BC0D0019B013BF8E7936A012074
:1061000043F020039362B8E70220B9E7002401407E
:106110005C0A002040420F0030B590F8242003466E
:10612000012A1FD0012280F824200268087A012861
:1061300050680CBF40F0400020F0400050601C68E8
:10614000D1E90020656802430748284002436260A5
:10615000C8681A685062002009691A68916283F859
:10616000240030BD0220FCE7E0FD3FFF002337B5EF
:106170000193036804469A68D20702D5002003B051
:1061800030BD9A6842F001029A60144B144A1B68B1
:10619000B3FBF2F30193019BE3B9FFF777FE0546EA
:1061A00023689B68DB07E9D4FFF770FE401B0228D9
:1061B000F6D923689B6813F00103F1D1A26A01208C
:1061C00042F01002A262E26A84F8243042F0010236
:1061D000E262D4E7019B013BDCE700BF5C0A0020E0
:1061E00040420F002DE9F041414B904602680446C1
:1061F0009A420F4602D03F498A4203D15B6813F4AA
:10620000702F70D194F82430012B6ED001232046DA
:1062100084F82430FFF7AAFF064600285FD1A56A5C
:106220002168344B25F4706525F0010545F480752F
:106230009942A56204D12E4A536813F4702F40D1BD
:10624000A36A23F48013A3624B685A0505D5A36A99
:1062500023F4405343F48053A362A36A264A13F401
:1062600080531CBFE36A23F00603E362002384F833
:106270002430236A9A62236A204ADA62236A204A17
:106280001A636FF0020223681A602268936843F46D
:1062900080739360216843463A46206A4C3100F08F
:1062A00031FE23689A6802F46022B2F5602F9A6882
:1062B0000CBF42F4A00242F480129A603046BDE85E
:1062C000F081A36A43F48013A36253685B0541BF66
:1062D000A06A20F4405040F48050A062BDE7002343
:1062E00084F82430EAE70126E8E70226E6E700BF63
:1062F0000024014000280140CD5E0008135F000823
:10630000195F000838B5036804469A68D10701D4BC
:10631000002038BD9A6822F001029A60FFF7B6FDAE
:10632000054623689B68DB07F2D5FFF7AFFD401BEE
:106330000228F6D923689B68DA07F2D5A36A012000
:1063400043F01003A362E36A43F00103E362E0E772
:1063500070B5044600287CD0836A9BB9C36280F87C
:1063600024303F4B03633F4B43633F4B83633F4BBF
:10637000C3633F4B0364436C0BB93E4B43642046FD
:10638000636C98472046FFF7BDFFA36A13F0100324
:1063900061D100285FD1A26A616822F4885222F09C
:1063A000020242F00202A262E269257B1143A26866
:1063B00041EA4501B2F5807F03D0561E7242724118
:1063C0001202267D012E07D1002D2FD1A569013D96
:1063D00042EA453545F400622668756825F469454A
:1063E0002A4372602568244AAE6832400A43AA6094
:1063F000A268B2F5807F01D0012A02D12369013B56
:106400001B052568EA6A22F470021343EB622368D5
:106410009A681A4B1340994211D10023E362A36A90
:1064200023F0030343F00103A36270BDA56A45F0A6
:106430002005A562E56A45F00105E562CCE7A36A9F
:1064400023F0120343F01003A362E36A43F0010355
:10645000E3620120E9E7A36A43F01003A362F8E7CF
:1064600059A800082F5F000825AB0008E1AA000822
:10647000DD6600085DA30008FDF7E1FFFE0E1FFFCB
:1064800038B50446002865D0836A43F0020383626E
:10649000FFF738FF0546002857D16FF01F02236829
:1064A0001A6022682C4B51680B40536022682B4BBA
:1064B00091680B4093602268D36803F07F43D360F8
:1064C0002268136903F0404313612168244B4A6931
:1064D0001A404A6121688A691A408A612168CA693A
:1064E0001A40CA6121680A6A1A400A6221684A6A27
:1064F0001A404A6221688A6A13408B6222681949ED
:10650000D36A03F07F43D3622268D36A03F07F43E8
:10651000D3622268136B03F0404313632268536B0A
:1065200003F0404353632268936B0B4093632268EC
:10653000936B0B409363A36C0BB90B4BA364A36CDD
:10654000204698470023E362A362002384F82430A6
:10655000284638BD0125FBE700003FFFF00601FF9C
:1065600000F0FFFF0000C0FFF1A3000810B590F895
:1065700024300446012B11D0012380F82430FFF78A
:10658000C1FE38B9A36A23F4885323F0010343F012
:106590000103A362002384F8243010BD0220FCE72D
:1065A00038B590F824300446012B25D0012380F81B
:1065B0002430FFF7A7FE0546A0B92268936823F4AC
:1065C00080739360206A90F82130022B0AD100F08A
:1065D000DEFCA36A58B923F4885323F0010343F087
:1065E0000103A362002384F82430284638BD43F019
:1065F00040030546A362F5E70225F6E7002373B5DD
:10660000019390F824300446012B62D0012380F8D6
:106610002430FFF777FE2046FFF7A8FD0546002847
:106620002FD1A36A022023F4885323F0020343F0FE
:106630000203A362284B1E6801F0E4FAB6FBF0F6F1
:1066400076000196019B03BB2268936843F0080320
:106650009360FFF71BFC064623689A68110718D45D
:106660009A6842F004029A60FFF710FC064623681D
:106670009B685B0723D4A36A23F0030343F0010361
:10668000A362002384F8243016E0019B013B0193B0
:10669000D8E7FFF7FBFB801B0A28DDD923689B683E
:1066A0001807D9D5A36A012523F0120343F010037C
:1066B000A362002384F82430284602B070BDFFF79F
:1066C000E5FB801B0A28D2D923689B685A07CED5E0
:1066D000E8E70225F0E700BF5C0A0020704738B504
:1066E0000446002874D090F820300BB903F0F8FE6F
:1066F0002268136843F001031360FFF7C7FB0546E8
:1067000023685A68D10757D51A6822F002021A6026
:10671000FFF7BCFB054623685A6892075AD4227ECD
:106720000020012A1A680CBF42F0800222F0800289
:106730001A602368627E012A1A680CBF42F0400288
:1067400022F040021A602368A27E012A1A680CBF58
:1067500042F0200222F020021A602368E27E012A21
:106760001A680CBF22F0100242F010021A6023686F
:10677000227F012A1A680CBF42F0080222F00802A8
:106780001A602368627F012A1A680CBF42F0040273
:1067900022F004021A60D4E902321343226921680C
:1067A0001343626913436268013A1343CB610123C7
:1067B000606284F820300CE0FFF768FB401B0A2879
:1067C0009ED9636A43F400336362052384F8203062
:1067D000012038BDFFF75AFB401B0A289BD9F0E780
:1067E00070B590F820200368013A012A69D8012089
:1067F000D3F8002242F00102C3F800224A69D3F81C
:106800001C4202F01F0200FA02F224EA0204C3F85A
:106810001C42CC69D043ACB9D3F80C420440C3F855
:106820000C42CE684C698D88483445EA064543F8E9
:1068300034504C698E680D88483445EA064503EBB0
:10684000C4046560CC69012C15D1D3F80C42144303
:10685000C3F80C420E684C698D88483445EA0645F9
:1068600043F834504C698E688D89483445EA0645B2
:1068700003EBC40465608C69DCB9D3F804420440BE
:10688000C3F804420C69C4B9D3F814422040C3F8D9
:1068900014020020096A012902BFD3F81C120A431E
:1068A000C3F81C22D3F8002222F00102C3F8002210
:1068B00070BDD3F804421443E2E7D3F81402104346
:1068C000E5E7436A43F4802343620120F0E738B5EB
:1068D00090F820300446012B1FD10223026880F873
:1068E0002030136823F001031360FFF7CFFA054649
:1068F0002368586810F0010001D1606238BDFFF7CD
:10690000C5FA401B0A28F3D9636A43F40033636273
:10691000052384F820300120F0E7436A43F4002384
:106920004362F8E790F82030013B012B06D802685B
:106930000020136843F0020313607047436A43F476
:106940008023436201207047F0B590F8205004681E
:10695000013D012DA46845D814F0E05F3CD001252D
:10696000C4F30164A5401D608B680668CD6804F11E
:10697000180753BB0B6845EA43553B01F5500368C4
:106980000D6903EB07135D600B7D012B4FEA0413C8
:1069900007D101681944D1F8844144F48074C1F8E6
:1069A0008441016854681944C1F88C411168026837
:1069B0001A44C2F88811026800201344D3F88021D9
:1069C00042F00102C3F88021F0BD2B434D6843EA39
:1069D000C5033D017351D2E7436A43F40013436298
:1069E0000120F1E7436A43F48023F8E7F0B590F81B
:1069F0002040013C012C79D8046841B9E568AD0715
:106A000007D1436A43F4001343620120F0BD2569B6
:106A1000F5E701F11B052E01A45904F0040494606C
:106A20000768002C59D1BC59640D146006682C010C
:106A3000345904F00204D46006680C0106EB011618
:106A4000D6F8B4713F074EBF0826D6F8B46106F0F9
:106A50000F061661066806EB05167668C6F307266C
:106A60009661066806EB051675682D0C556102687F
:106A70002244D2F8B8211A7002682244D2F8B82110
:106A8000120A5A7002682244D2F8B821120C9A7085
:106A900002682244D2F8B821120EDA700268224449
:106AA000D2F8BC211A7102682244D2F8BC21120A21
:106AB0005A7102682244D2F8BC21120C9A71026801
:106AC0002244D2F8BC21120EDA71036849B9DA689F
:106AD00042F02002DA60002098E7BC59E4085460D4
:106AE000A4E71A6942F020021A61F4E7436A43F40A
:106AF000802389E790F82030013B012B05D80268FC
:106B000000205369194351617047436A43F480235D
:106B10004362012070477047704770477047704765
:106B200070477047704770477047704770472DE94E
:106B3000F84F036805465E69D3F8049016F0010427
:106B4000D3F80880D3F80CB0D3F810A09F6927D0F1
:106B500018F0010F07D0012218F0020F9A6000F020
:106B6000A780FFF7D8FF002418F4807F0AD04FF4E5
:106B700080722B6818F4007F9A6000F0A880284685
:106B8000FFF7CAFF18F4803F0AD04FF480322B6819
:106B900018F4003F9A6000F0AA802846FFF7BDFF76
:106BA000320707D51BF0100F1FBF10222B6844F4CB
:106BB0000074DA60730708D51BF0080F05D00822AF
:106BC0002B682846DA60FFF7ACFFB00706D52B68C4
:106BD000DB68990702D02846FEF746FC720607D507
:106BE0001AF0100F1FBF10222B6844F480641A6142
:106BF000B30608D51AF0080F05D008222B682846DE
:106C00001A61FFF790FFF00606D52B681B699907FC
:106C100002D02846FFF786FFB20308D519F0100FFF
:106C200005D010222B6828465A60FFF77DFFF3033A
:106C300008D519F0080F05D008222B6828465A609D
:106C4000FFF773FF30042AD519F0040F24D0F105A3
:106C500003D5FA0748BF44F00104B30503D5B807CC
:106C600048BF44F00204710503D57A0748BF44F0D9
:106C70000404330510D517F070030DD0402B56D007
:106C800045D8202B4DD0302B4ED0102B46D02A6823
:106C9000936923F07003936104222B685A602CB12E
:106CA0006B6A284623436B62FFF740FFBDE8F88F0D
:106CB00018F0040F05D118F0080F05D1FFF72EFFCB
:106CC00051E74FF400644FE74FF480544CE718F459
:106CD000806F02D044F4005454E718F4006F02D0DF
:106CE00044F480444EE72846FFF719FF4AE718F4BA
:106CF000802F02D044F4004452E718F4002F02D051
:106D000044F480344CE72846FFF70AFF48E7502B4D
:106D100010D0602BBBD144F48074B8E744F0080471
:106D2000B5E744F01004B2E744F02004AFE744F0C4
:106D30004004ACE744F08004A9E7406A70470000D3
:106D400007490302CA6803F4E06322F4E062120414
:106D5000120C134343F0BF6343F40033CB6070471E
:106D600000ED00E030B5154BDC68C4F30224C4F13B
:106D70000703251D042B28BF0423062D4FF0FF35E4
:106D800094BF0024033C05FA03F321EA0303A54062
:106D900022EA0502A340002843EA0203ACBF00F147
:106DA0006040074A4FEA0313DBB2ABBF00F5614016
:106DB00000F00F0080F80033135430BD00ED00E008
:106DC00014ED00E0002807DB01234109034A00F02D
:106DD0001F00834042F82130704700BF00E100E00F
:106DE00000280CDB01220649430900F01F00824005
:106DF000203341F82320BFF34F8FBFF36F8F7047CD
:106E000000E100E0002808DB01224309034900F00B
:106E10001F008240603341F82320704700E100E00A
:106E200010B5044650B1437903F0FF0213B9027163
:106E300003F0A0FB01230020637110BD0120FCE7DB
:106E4000034610B540B314210068144A0244B2FB53
:106E5000F1F292001A64124ADA63022283F82120C6
:106E6000D3E901242243DC68016822431C6921F430
:106E70007F5122435C6921F0300122439C69224307
:106E8000DC6922430A43026000200122986383F8F0
:106E9000200083F8212010BD0120FCE7F8FFFDBF92
:106EA00000000240034610B528B30168134C0A687D
:106EB00022F001020A600268002010601A68506027
:106EC0001A6890601A68D06019680D4ADC630A4439
:106ED0001421B2FBF1F2012192001A6401FA02F2CC
:106EE0006260C3E90A00C3E90C00986383F82000DC
:106EF00083F8210010BD0120FCE700BF0000024024
:106F0000F8FFFDBF70B590F82040012C3DD0012462
:106F100090F8215080F82040012DECB24FF0000590
:106F200031D1022680F8216006688563356825F036
:106F300001053560D0E90F56B4406C6004686360A9
:106F40004368102B03680BBF9A609960036803685D
:106F50000CBFD960DA60C26A036852B11A6842F0A5
:106F60000E021A6002680020136843F001031360E8
:106F700070BD1A6822F004021A600268136843F0B8
:106F80000A031360EEE780F820500220F0E790F843
:106F900021200346022A06D0042282630120002217
:106FA00083F82020704701680A6822F00E020A6008
:106FB00001680A6822F001020A6001211A6CC06BA4
:106FC00001FA02F24260002083F82110E7E7000096
:106FD00030B40424C36B056C1968AC4003680C42E0
:106FE0001A6833D0540731D51A6895065EBF1A68FF
:106FF00022F004021A6003683F4A934219D0143207
:10700000934218D01432934217D01432934217D0BF
:107010001432934217D01432934214BF4FF080635E
:107020004FF48003354A5360C36A002B61D030BCF3
:1070300018470423F6E74023F4E74FF48063F1E7B1
:107040004FF48043EEE74FF48023EBE70224AC409B
:107050000C4236D0940734D51A68910606D41A68C3
:1070600022F00A021A60012380F821300368224AC4
:10707000934219D01432934218D01432934217D04D
:107080001432934217D01432934217D014329342E1
:1070900014BF4FF000734FF40013184A53600023DD
:1070A00080F82030836AC0E70223F6E72023F4E764
:1070B0004FF40073F1E74FF40053EEE74FF4003361
:1070C000EBE70824AC400C4213D0120711D51A6824
:1070D00022F00E021A600123026CC16B03FA02F265
:1070E0004A60836380F82130002380F82030036BEE
:1070F0009BE730BC704700BF080002400000024020
:10710000114AD36813F0100305D01049CB6943F03E
:107110000203CB611023D268500706D50B4943F018
:107120000403CA6942F00102CA61074AD169C9076A
:1071300008D50648C16941F00401C161D16921F057
:107140000101D161D360704700200240380C00205B
:107150007047704770B5424B424CDA6812F0100F1E
:1071600002D1DB685A070AD54FF0FF33A568A36048
:10717000FFF7C6FF2846FFF7ECFF00232370384DCA
:10718000EB689B0618D52023EB602378A3B1237806
:10719000012B27D16368013B63606368DBB1A068A2
:1071A000FFF7D6FFA06800F58060A0602B6923F090
:1071B00002032B6100F058F8237803F0FF014BB96C
:1071C000274B1A6922F007021A611A6922F4A052A9
:1071D0001A61217670BD4FF0FF30A0602370FFF779
:1071E000B7FFE9E72378022B09D12B69002023F0B0
:1071F00004032B61FFF7ACFF00232370DCE7636817
:10720000013B63606368D3B1A3680233A360A668DF
:10721000D4E90401020C42EA01420B0CC4E9042344
:107220002B6923F001032B61D4E904230023E361DC
:107230002B6992B243F001032B613280BCE72378C3
:10724000032B06D1A068FFF783FF4FF0FF33A36045
:10725000D2E72378A068042B0CBF02380638F2E787
:1072600000200240380C00200022064BDA61064B59
:107270001A6942F002021A6158611A6942F040022A
:107280001A617047380C0020002002402DE9F74FAA
:1072900000221546794E7A4BDFF8E8C17A4FD1F8D3
:1072A00000E03EFA05F402D103B0BDE8F08F4FF0E4
:1072B000010808FA05F80EEA080438EA0E0E40F054
:1072C000A180D1F804E0BEF1030F09D80EF1FF3E12
:1072D000BEF1020F00F2A680DFE80EF0B8BDC300D9
:1072E000BEF1120F00F0BA8000F28E80BEF1110FD5
:1072F00000F0AE80FF2C98BF82464FF00F094FEA96
:10730000850E84BF00F1040AAEF1200EDAF8008089
:1073100009FA0EFB28EA0B0802FA0EFE48EA0E08EC
:10732000CAF80080D1F804E01EF0805F6AD0D6F879
:1073300018E025F003084EF0010EC6F818E0D6F864
:1073400018E008F180480EF0010ECDF804E008F5D1
:10735000803805F0030ADDF804E04FEA8A0AD8F81D
:1073600008E009FA0AF92EEA0909DFF820E1704578
:107370007BD00EF5806E70457AD00EF5806E70452C
:1073800079D00EF5806E704514BF4FF0040E4FF0AB
:10739000030E0EFA0AFE4EEA090EC8F808E0D1F80C
:1073A00004E01EF4801FD3F808E014BF4EEA040E78
:1073B0002EEA040EC3F808E0D1F804E01EF4001F22
:1073C000D3F80CE014BF4EEA040E2EEA040EC3F804
:1073D0000CE0D1F804E01EF4003FD3F804E014BF41
:1073E0004EEA040E2EEA040EC3F804E0D1F804E0DD
:1073F0001EF4803FD3F800E014BF4EEA04042EEAE6
:1074000004041C6001354AE7DFF88490CE4509D0BA
:1074100014D8A9F58019CE4504D0E64502D0BE4562
:107420007FF468AF8A68F2B1012A08BFC0F8108003
:107430004FF0080218BFC0F814805BE7DFF85490E3
:10744000CE45EFD009F58039CE45E9E7CA6851E766
:10745000CA6804324EE7CA6808324BE7CA680C3281
:1074600048E7002246E7042244E74FF0000E90E789
:107470004FF0010E8DE74FF0020E8AE70010024038
:10748000000401400000211000001110000801401C
:1074900000002210000031102DE9F74F4FF0040BCF
:1074A00000224FF0010A4FF00F0800EB0B0301938D
:1074B0002E4B31FA02F402D103B0BDE8F08F0AFA84
:1074C00002F70F4049D022F0030404F1804404F590
:1074D000803402F0030CA5684FEA8C0C08FA0CF912
:1074E00009EA050E224DA84239D005F58065A8426B
:1074F00037D005F58065A84235D005F58065A842EE
:107500000CBF0325042505FA0CF575456FEA07063F
:107510000FD11D6835401D605D6835405D60DD68D8
:107520003540DD609D6835409D60A56825EA090508
:10753000A560FF2F94BF0746019F4FEA82043D6874
:1075400088BF203C08FA04FC25EA0C050BFA04F479
:1075500025433D60C4683440C4600132A9E700257A
:10756000D1E70125CFE70225CDE700BF00040140A8
:10757000000801408368194214BF012000207047B1
:107580000AB1016170470904FBE70000064A0129BE
:10759000136923F00403136101D130BF704740BF6A
:1075A00020BF20BF704700BF00ED00E0024A136912
:1075B00043F002031361704700ED00E070470000E4
:1075C00010B5054C6369DB0304D5FFF7F7FF4FF4F3
:1075D0008033636110BD00BF000401402DE9F34119
:1075E000044638B30368DB0710D423689F0759D4D7
:1075F0002368190700F1908023685A0700F1BC80C6
:10760000E369002B40F0248100202BE08C4D6B6857
:1076100003F00C03042B07D06B6803F00C03082B5A
:107620000AD16B68DE0307D52B689D03DDD563683F
:10763000002BDAD1012015E06368B3F5803F14D147
:107640002B6843F480332B606368FBB1FEF71EFCAC
:1076500006462B689803C8D4FEF718FC801B6428E4
:10766000F7D9032002B0BDE8F0813BB92B6823F4C1
:1076700080332B602B6823F48023E4E7B3F5A02F3D
:107680002B68F4D143F480232B60D9E7FEF7FEFB8F
:1076900006462B689903A8D5FEF7F8FB801B6428E3
:1076A000F7D9DEE7664D6B6813F00C0F07D06B68F7
:1076B00003F00C03082B10D16B68DA030DD42B6890
:1076C0009B0702D52369012BB4D12B68626923F093
:1076D000F80343EAC2032B608AE72269594B6AB177
:1076E00001221A60FEF7D2FB06462B689F07ECD4F6
:1076F000FEF7CCFB801B0228F7D9B2E71A60FEF731
:10770000C5FB06462B6898077FF572AFFEF7BEFBF8
:10771000801B0228F6D9A4E7A269494E494BE2B181
:107720000122C3F88024FEF7B1FB0546736A9B076C
:107730000DD54FF4FA52444B1B68B3FBF2F301939F
:1077400000BF019B5A1E0192002BF9D154E7FEF7AE
:107750009DFB401B0228E9D983E7C3F88024FEF78C
:1077600095FB0546736A9F077FF546AFFEF78EFBD4
:10777000401B0228F6D974E7314DEB69D80027D4B5
:107780000127EB6943F08053EB61EB6903F0805311
:107790000093009B2D4E3368D9051BD5E368012B60
:1077A00029D12B6A43F001032B62E368002B38D008
:1077B000FEF76CFB41F2883806462B6A9B072AD5F8
:1077C000002F3FF41DAFEB6923F08053EB6117E707
:1077D0000027DFE7336843F480733360FEF756FB1E
:1077E00080463368DA05D9D4FEF750FBA0EB0800D9
:1077F0006428F6D935E73BB92B6A23F001032B62E5
:107800002B6A23F00403CFE7052B2B6AF5D143F055
:1078100004032B62C5E7FEF739FB801B4045CCD93A
:107820001FE7FEF733FB41F2883806462B6A9807BC
:10783000C6D5FEF72BFB801B4045F7D911E700BFEB
:1078400000100240000042425C0A0020007000402C
:107850002B4D6A6802F00C02082A3FD00022022B4E
:10786000284B1A662DD1FEF711FB06462B689901AD
:1078700021D4236AB3F5803F05D16B68A26823F455
:10788000003313436B606A68D4E9083122F4741240
:107890000B43134301226B601A4B1A66FEF7F6FA8C
:1078A00004462B689A013FF5AFAEFEF7EFFA001BD6
:1078B0000228F6D9D5E6FEF7E9FA801B0228D5D9C9
:1078C000CFE6FEF7E3FA04462B689B017FF59CAEFA
:1078D000FEF7DCFA001B0228F6D9C2E6012B3FF4C2
:1078E000A9AE6868236A00F480329A427FF4A2AE9F
:1078F000636A00F47010C01A18BF0120B2E600BF1E
:1079000000100240000042420D4A536803F00C018F
:10791000082912D10B48C3F38341DB03405C09D52E
:107920005368094AC3F340435043084AD35CB0FB51
:10793000F3F07047064B584370470348704700BF49
:1079400000100240A2B5000800127A00A0B500089D
:1079500000093D002DE9F0410D46044610B9012013
:10796000BDE8F081464A136803F007038B422AD32F
:107970002368980732D42368DA0745D4404A13684D
:1079800003F00703AB4267D823683E4D13F0040FA2
:107990006ED123681B0706D56B68226923F46053F8
:1079A00043EAC2036B60FFF7AFFF6B68364AC3F36D
:1079B0000313D35CD840354B1860354B186803F07F
:1079C000F1F90020CCE7136823F007030B431360A1
:1079D000136803F007038B42C1D1C9E713F0040F0A
:1079E000284B1EBF5A6842F4E0625A6022681107B1
:1079F00042BF5A6842F460525A605A68A16822F045
:107A0000F0020A435A60B6E762681E4E012A3368E4
:107A10001AD113F4003FA2D0736841F2883823F0E2
:107A2000030313437360FEF731FA07467368626815
:107A300003F00C03B3EB820FA0D0FEF727FAC01BB4
:107A40004045F3D903208BE7022A02D113F0007FCF
:107A5000E1E713F0020FDEE7136823F007032B437F
:107A60001360136803F00703AB427FF478AF8BE732
:107A70006B68E26823F4E06313436B6089E700BF3F
:107A8000002002400010024078B600085C0A002086
:107A9000540A0020044B054A5B68C3F30223D35CFD
:107AA000034A1068D84070470010024070B60008C2
:107AB0005C0A0020044B054A5B68C3F3C223D35C15
:107AC000034A1068D84070470010024070B60008A2
:107AD0005C0A00200F2303600B4B5A6802F003027C
:107AE00042605A6802F0F00282605A6802F4E06272
:107AF000C2605B68DB0803F4E0630361034B1B684F
:107B000003F007030B6070470010024000200240A2
:107B10002DE9F34103680546D80721D5364CE369C2
:107B2000D9002CD40126E36943F08053E361E36973
:107B300003F080530193019B304F3B68DA0520D559
:107B4000236A6A6813F440732FD1236A6A6823F4A6
:107B50004073134323621EB1E36923F08053E36152
:107B60002B689A0706D5244AA968536823F4404332
:107B70000B4353602B68DB0636D4002012E000264E
:107B8000DAE73B6843F480733B60FEF77FF9804699
:107B90003B68DB05D4D4FEF779F9A0EB0800642834
:107BA000F6D9032002B0BDE8F08102F440729A4297
:107BB000CBD00120124A236AC2F84004002023F4EB
:107BC0004071C2F84004D8072162BED5FEF75EF9C5
:107BD00041F288380746236A9907B6D4FEF756F96A
:107BE000C01B4045F7D9DCE7034AE968536823F432
:107BF00080030B435360C0E7001002400070004058
:107C000000004242022808B544D0102803D00128C1
:107C100022D0002034E0254B5A68186810F080709C
:107C20002ED0C2F383412248D20348BF5A68405C39
:107C300041BF2049C2F34042895C1F4A5B684CBF88
:107C4000B2FBF1F21D4A5B0202FB00F018D40323E1
:107C50004000B0FBF3F013E040F20231134A136A24
:107C60001940B1F5817F1ED003F44073B3F5007F56
:107C700007D149F64043506A10F0020018BF184679
:107C800008BDB3F5407FC4D110684FF2244310F40F
:107C90000030F3E7FFF70EFF044B5B68C3F381335B
:107CA00001335B00D5E74FF40040E9E700100240E4
:107CB000B4B50008B2B5000800127A0000093D0012
:107CC000036A026A70B522F00102026244688269A6
:107CD0000D6822F073022A438D6823F002032B43C0
:107CE0000A4DA8420BD1CD6823F008032B4324F49E
:107CF0004074D1E90556354323F004032C43446016
:107D000082614A684263036270BD00BF002C01407B
:107D1000036A026A70B522F4807202624468C26922
:107D20000D6822F073022A438D6823F4007343EA3E
:107D300005230B4DA8420DD1CD6823F4006343EA1F
:107D4000052324F44054D1E90556354323F48063D8
:107D500044EA05144460C2614A68C263036270BDAC
:107D6000002C0140036A026A30B522F4805202629C
:107D70004468C2690D6822F4E64242EA05228D6831
:107D800023F4005343EA0533064DA84202BF4D6970
:107D900024F4804444EA85144460C2614A68026461
:107DA000036230BD002C0140704770477047704738
:107DB00070477047704770477047000090F83D303B
:107DC000012B21D10223026880F83D30D36843F0B3
:107DD0000103D36003680D4A93420AD0B3F1804F88
:107DE00007D0A2F59432934203D002F58062934209
:107DF00004D19A6802F00702062A03D01A6842F0FA
:107E000001021A600020704701207047002C0140D9
:107E1000022341F2111210B580F83D300368044688
:107E2000196A114208D140F24442196A114202BF54
:107E30001A6822F001021A60636E0BB90E4B63667A
:107E40002046636E9847002084F8460084F83C0082
:107E500084F83E0084F83F0084F8400084F8410034
:107E600084F8420084F8430084F8440084F8450014
:107E700084F83D0010BD00BFC5B0000810B5036810
:107E800004461A69910711D5DA6892070ED56FF08A
:107E900002021A610123037703689B699B0700F0C4
:107EA0008380D0F8903098470023237723681A699D
:107EB000500712D5DA6851070FD56FF004021A6126
:107EC0000223237723689B6913F4407F73D0D4F88F
:107ED0009030204698470023237723681A691207B9
:107EE00011D5DA6810070ED56FF008021A61042365
:107EF00023772368DB69990764D0D4F89030204653
:107F000098470023237723681A69D20612D5DA68C6
:107F1000D0060FD56FF010021A610823237723686B
:107F2000DB6913F4407F54D0D4F890302046984752
:107F30000023237723681A69D10709D5DA68D207A5
:107F400006D56FF001021A612046D4F880309847B8
:107F500023681A69100609D5DA68110606D56FF08C
:107F600080021A612046D4F8B030984723681A6915
:107F7000520609D5DA68500606D56FF040021A613C
:107F80002046D4F88830984723681A69910627D587
:107F9000DA68920624D56FF020021A612046D4F8E0
:107FA000A830BDE810401847D0F8983098472046D0
:107FB000D4F89C3077E7D4F8983020469847D4F826
:107FC0009C3086E7D4F8983020469847D4F89C3007
:107FD00095E7D4F8983020469847D4F89C30A5E728
:107FE00010BD00001A4A036890420AD0B0F1804FD9
:107FF00007D0A2F59432904203D002F580629042FD
:1080000015D14A6823F070031343114A90420AD0F5
:10801000B0F1804F07D0A2F59432904203D002F520
:108020008062904203D1CA6823F4407313434A69C3
:1080300023F08003134303608B68C3620B68836281
:10804000034B984204BF0B690363012343617047EC
:10805000002C0140036A026A70B522F0100202622D
:10806000446882690D6822F4E64242EA05228D687E
:1080700023F0200343EA05130B4DA8420DD1CD6830
:1080800023F0800343EA051324F44064D1E9055644
:10809000354323F0400344EA8504446082614A6822
:1080A0008263036270BD00BF002C014038B590F8B8
:1080B0003C300446012B5BD00120082A84F83C00A8
:1080C00043D006D8D2B1042A2CD0002384F83C3007
:1080D00038BD0C2AF9D12068FFF744FE2268D36925
:1080E00043F40063D3612268D36923F48063D361CE
:1080F00022680969D36943EA012337E02068FFF762
:10810000DFFD2268936943F0080393612268936955
:1081100023F0040393612268096993690B43936117
:108120000020D2E72068FFF795FF2268936943F4A7
:10813000006393612268936923F4806393612268EA
:108140000969936943EA0123E9E72068FFF7E0FD45
:108150002268D36943F00803D3612268D36923F00E
:108160000403D36122680969D3690B43D361D7E75C
:108170000220ADE710B584680A4324F47F4442EA44
:1081800003222243826010BD38B590F83C3004468B
:10819000012B4FF0020000F09A80012284F83D008C
:1081A000206884F83C20836823F47F4323F077031E
:1081B00083600B68602B57D036D8402B6ED018D810
:1081C000202B0DD00AD833F0100109D0012384F8F8
:1081D0003D30002384F83C30104638BD302BF5D1BB
:1081E00021688A6822F07002134343F007038B6012
:1081F0002DE0502BEAD123684868CD68196A1A6AC5
:1082000021F00A0122F001021A629A69014322F068
:10821000F00242EA05129A6119622268936823F01B
:10822000700343F0570311E0B3F5805F0FD0B3F54F
:10823000005F0ED0702BC9D1CB682068D1E9012135
:10824000FFF798FF2268936843F07703936000225A
:10825000BCE7CB682068D1E90121FFF78BFF2268DA
:10826000936843F48043F1E7236848681A6ACD684D
:10827000196A22F0A00221F010011962996942EAFC
:10828000001221F4704141EA053199611A622268B5
:10829000936823F0700343F06703D7E723684868C7
:1082A000CD68196A1A6A21F00A0122F001021A62E5
:1082B0009A69014322F0F00242EA05129A611962BA
:1082C0002268936823F0700343F04703BEE7024639
:1082D00082E710B50124036A01F01F018C4023EAF4
:1082E00004030362036A8A401A43026210BD00005D
:1082F00010B5044629B990F83E30012B1ED001205C
:1083000042E0042907D190F83F30012BF7D1022336
:1083100080F83F3015E008290CBF90F8403090F805
:108320004130013B18BF0123002BE8D1022308296B
:108330000CBF84F8403084F8413002E0022380F81A
:108340003E3001222068FFF7C4FF23680F4A9342A2
:1083500002BF536C43F4004353642368934209D033
:10836000B3F1804F06D00A4A934203D002F58062EF
:10837000934204D19A6802F00702062A03D01A68D1
:1083800042F001021A60002010BD00BF002C014025
:1083900000040040FFF7ACBF082938B504460D467D
:1083A00042D004D851B1042939D0012038BD0C295C
:1083B000FBD10268D36823F0100303E00268D3689E
:1083C00023F00203D360294600222068FFF781FFD3
:1083D00023681E4A93420DD141F21112196A1142CB
:1083E00008D140F24442196A114202BF5A6C22F489
:1083F00000425A6441F211122368196A114208D1ED
:1084000040F24442196A114202BF1A6822F0010286
:108410001A6001236DB984F83E300020C6E7026877
:10842000D36823F00403CDE70268D36823F0080380
:10843000C8E7042D02D184F83F30EEE7082D0CBFC9
:1084400084F8403084F84130E7E700BF002C014059
:10845000FFF7A2BF134BC0F88030134BC0F8843035
:10846000124BC0F88830124BC0F88C30114BC0F85A
:108470009030114BC0F89430104BC0F89830104B2E
:10848000C0F89C300F4BC0F8A0300F4BC0F8A430A0
:108490000E4BC0F8A8300E4BC0F8AC300D4BC0F8F6
:1084A000B03070473DAD0008A97D0008B57D0008DB
:1084B000B77D0008AD7D0008AF7D0008AB7D0008EA
:1084C000B17D0008B37D0008B97D0008678600080B
:1084D000698600086B86000810B5044668B390F8FA
:1084E0003D3003F0FF0253B980F83C20FFF7B2FFA4
:1084F000836C0BB9124B83642046A36C984702230C
:10850000206884F83D30211DFFF76CFD0123002019
:1085100084F8463084F83E3084F83F3084F84030A8
:1085200084F8413084F8423084F8433084F8443091
:1085300084F8453084F83D3010BD0120FCE700BFD1
:10854000A9AF000810B5044668B390F83D3003F0B9
:10855000FF0253B980F83C20FFF77CFF036E0BB994
:10856000124B03662046236E98470223206884F846
:108570003D30211DFFF736FD0123002084F84630F1
:1085800084F83E3084F83F3084F8403084F841303D
:1085900084F8423084F8433084F8443084F845301D
:1085A00084F83D3010BD0120FCE700BF81AF00081A
:1085B00030B590F83C200346012A4FF0020026D047
:1085C00001221C6883F83C2083F83D0062680D6836
:1085D00022F070022A43A06862601A680C4CA24222
:1085E0000AD0B2F1804F07D0A4F59434A24203D050
:1085F00004F58064A24204D1496820F08000014360
:1086000091600122002083F83D2083F83C0030BDBA
:10861000002C014090F83C300246012B21D0012370
:1086200080F83C30CB68886823F440730343486883
:1086300023F480630343086823F400630343086959
:1086400023F480530343486923F400530343002079
:10865000C96923F480430B4311684B6482F83C00E2
:1086600070470220704770477047704710B501F09F
:108670008BFB20B1D0E90030BDE81040184710BD99
:10868000EFF3058313B16FF005007047EFF310832C
:10869000002BF8D1074B1868022806D1EFF311839D
:1086A000002BF0D14FF0FF3070470028FAD10122A3
:1086B0001A6070479013002010B5EFF3058313B1D3
:1086C0006FF0050010BDEFF31084002CF8D1094BBA
:1086D0001A68022A06D1EFF31183002BF0D14FF074
:1086E000FF30EFE7012AFAD102221A6000F0DEFD26
:1086F0002046E7E790130020F0B51446002287B02B
:108700000B460592EFF3058252BBEFF310823ABBA2
:10871000264A1268022A02D1EFF3118202BBF8B195
:1087200000228DF81320002C30D0216809B90DF1FA
:108730001301A569002D08BF18256A1E372AAC460B
:108740002AD86268D20727D4666966B1B208D4E92C
:10875000027E57B1BEF5CE7F02D3246904B1EEB9D3
:10876000059807B0F0BD8022F1E7BEF1000FF7D108
:108770002469002CF4D105ACCDE900C492B200F01C
:108780001CFD01281CBF00230593E9E74FF0180CDE
:1087900080220DF11301EEE70020E2E7CDE9014769
:1087A000009500F0D1FC0590DAE700BF901300209F
:1087B000F7B506460D4617461C46EFF3058313B181
:1087C000002003B0F0BDEFF31083002BF8D1164B5F
:1087D0001B68022B03D1EFF31183002BF0D1002E85
:1087E000EED0082001F06AFC03460028E8D02A1EDB
:1087F00018BF0122C0E900677CB12068D4E90214E7
:1088000041B12F2CDCD9019108490091012101F0DF
:1088100032F9D6E7002CD3D1044604492046009112
:10882000012101F001F9CCE7901300206D860008CA
:1088300007B50A46EFF3058323B16FF0050003B0D7
:108840005DF804FBEFF31083002BF6D10B4B1B6894
:10885000022B03D1EFF31183002BEED150B1002393
:108860000421009301F044F9012814BF6FF00200C5
:108870000020E4E76FF00300E1E700BF9013002061
:10888000034B0360034B0B6080231360704700BFF2
:10889000F4110020F40F0020034B0360034B0B6026
:1088A00080231360704700BF580E0020580C002032
:1088B0004FF0FF3200F10803C0E902234360036177
:1088C00000230360704700230361704743684B60D7
:1088D0009A688A6051609960086103680133036097
:1088E000704730B50C68631C0AD103695A684A6046
:1088F00091608B605960086103680133036030BD8B
:1089000000F10802134652681568A542FAD9EDE74E
:108910000369D0E901128A60416851605A68824255
:1089200004BF82685A60002202611A68013A1A6024
:108930001868704710B5044601F094FAA46B01F072
:10894000B1FAB4FA84F0400910BD70B51646026C55
:108950000446856B42B906689EB9406800F0A0FFE6
:1089600066600135A56370BD6EB9806802F0F4FBE6
:10897000A368226C13446268A360934224BF2368F7
:10898000A3600020EDE7C06802F0E6FB226CE3681C
:1089900051429B1A2268E36093423EBF63685B18B2
:1089A000E360022EEDD10DB1013DEAE72846D8E79C
:1089B00003461A6C084610B462B1DC685968144466
:1089C0008C4228BF1968DC6028BFD960D96810BC08
:1089D00002F0C2BB10BC704770B5044601F042FA09
:1089E00094F8455004F124066DB2002D14DCFF23E9
:1089F00084F8453001F056FA01F034FA94F8445006
:108A000004F110066DB2002D12DCFF2384F844300F
:108A1000BDE8704001F046BA636A002BE7D03046EB
:108A200000F0A0FE08B100F025FF013D6DB2DCE7CB
:108A30002369002BE9D0304600F094FE08B100F025
:108A400019FF013D6DB2DEE738B50D46044640B969
:108A50004FF0500383F31188BFF36F8FBFF34F8F35
:108A6000FEE701F0FFF9D4E90F314B432268D0183B
:108A70005B1A6060A26000201A44FF23A063E260DA
:108A800084F8443084F84530A5B9236973B104F102
:108A9000100000F067FE48B14FF0E0234FF0805225
:108AA000C3F8042DBFF34F8FBFF36F8F01F0FAF9B6
:108AB000012038BD04F11000FFF7FAFE04F1240094
:108AC000FFF7F6FEF2E737B50D461C4640B94FF00A
:108AD000500383F31188BFF36F8FBFF34F8FFEE70F
:108AE00043B94FF0500383F31188BFF36F8FBFF387
:108AF0004F8FFEE74AB191B94FF0500383F31188CD
:108B0000BFF36F8FBFF34F8FFEE741B14FF05003BC
:108B100083F31188BFF36F8FBFF34F8FFEE75023AE
:108B20000193019B502B08D04FF0500383F3118821
:108B3000BFF36F8FBFF34F8FFEE70121002D08BFFA
:108B40002246C4E90F0584F8461020462260FFF74C
:108B50007BFF20469DF8183084F84C3003B030BDC0
:108B60002DE9FF410F461E460446019240B94FF0E1
:108B7000500383F31188BFF36F8FBFF34F8FFEE76E
:108B800051B9036C43B14FF0500383F31188BFF325
:108B90006F8FBFF34F8FFEE7022E0BD1E36B012BDC
:108BA00008D04FF0500383F31188BFF36F8FBFF3EA
:108BB0004F8FFEE700F064FE054630B300254FF00E
:108BC000000801F04FF9A26BE36B9A4201D3022E29
:108BD00027D1324639462046FFF7B7FE636A1BB1FC
:108BE00004F1240000F0BEFD48B14FF0E0234FF047
:108BF0008052C3F8042DBFF34F8FBFF36F8F01F086
:108C000051F9012004B0BDE8F081019B002BD6D0C2
:108C10004FF0500383F31188BFF36F8FBFF34F8F73
:108C2000FEE7019B1BB901F03DF90020EAE715B909
:108C300002A800F0D7FD01F035F900F087FB01F044
:108C400011F994F84430FF2B08BF84F8448094F85D
:108C50004530FF2B08BF84F8458001F023F901A9B6
:108C600002A800F0CBFD38BB01F0FCF8A26BE36B6F
:108C70009A420ED101F016F9019904F1100000F0AA
:108C800037FD2046FFF7A8FE00F00CFC48B1012597
:108C900097E701F007F92046FFF79EFE00F002FC7F
:108CA000F5E74FF0E0234FF08052C3F8042DBFF3F7
:108CB0004F8FBFF36F8FEAE72046FFF78DFE00F07E
:108CC000F1FBB2E72DE9F843894617461E460446F4
:108CD00040B94FF0500383F31188BFF36F8FBFF398
:108CE0004F8FFEE751B9036C43B14FF0500383F34C
:108CF0001188BFF36F8FBFF34F8FFEE7022E0BD1AA
:108D0000E36B012B08D04FF0500383F31188BFF3BE
:108D10006F8FBFF34F8FFEE701F07CF9EFF31188FF
:108D20004FF0500383F31188BFF36F8FBFF34F8F62
:108D3000A26BE36B9A4201D3022E1DD194F84550E9
:108D40003246494620466DB2FFF7FFFD6B1C0ED13F
:108D5000636A3BB104F1240000F004FD10B10FB1CF
:108D600001233B60012088F31188BDE8F8830135B9
:108D70006DB284F84550F5E70020F4E72DE9FF4196
:108D80000E460446019240B94FF0500383F3118818
:108D9000BFF36F8FBFF34F8FFEE751B9036C43B141
:108DA0004FF0500383F31188BFF36F8FBFF34F8FE2
:108DB000FEE700F065FD054618B300254FF00008FA
:108DC00001F050F8A76B47B331462046013FFFF74B
:108DD000EFFDA763236973B104F1100000F0C2FC3A
:108DE00048B14FF0E0234FF08052C3F8042DBFF399
:108DF0004F8FBFF36F8F01F055F8012004B0BDE82D
:108E0000F081019B002BD9D04FF0500383F31188E0
:108E1000BFF36F8FBFF34F8FFEE7019B1BB901F0CC
:108E200041F80020EAE715B902A800F0DBFC01F0E8
:108E300039F800F08BFA01F015F894F84430FF2B64
:108E400008BF84F8448094F84530FF2B08BF84F8AD
:108E5000458001F027F801A902A800F0CFFC00BB73
:108E60002046FFF767FDB0B1019904F1240000F03E
:108E70003FFC2046FFF7B0FD00F014FB48B94FF06F
:108E8000E0234FF08052C3F8042DBFF34F8FBFF3A0
:108E90006F8F012594E72046FFF79EFD00F002FB4F
:108EA000F7E72046FFF798FD00F0FCFA2046FFF7B1
:108EB00041FD0028EDD0B4E770B504460D461646D6
:108EC00000F0D0FF94F84430FF2B04BF002384F857
:108ED000443094F84530FF2B04BF002384F845301C
:108EE00000F0E0FFA36B2BB93246294604F12400C1
:108EF00000F018FC2046BDE87040FFF76DBD000093
:108F00002DE9F041044600F0ADFF2F4B2F4E1A68BB
:108F10002F4F01321A603568002D49D134601B682B
:108F2000012B1CD1B84640460135FFF7C1FC382D56
:108F300008F11408F7D1DFF89C80274D4046FFF771
:108F4000B7FC2846FFF7B4FC2448FFF7B1FC2448DF
:108F5000FFF7AEFC234BC3F80080234B1D601420A9
:108F6000224A136801331360214AC4F8383111686A
:108F7000E36A8B4200FB037004F1040188BF1360B5
:108F8000FFF7A4FC00F08EFF1A4B1B6873B1336827
:108F9000DA6AE36A9A4209D24FF0E0234FF0805236
:108FA000C3F8042DBFF34F8FBFF36F8FBDE8F0817F
:108FB000104B1A68E36A002AD1D13268D26A9A4209
:108FC00098BF3460CBE700BFB813002074180020AE
:108FD0001414002000140020EC130020D0130020F3
:108FE000BC130020E8130020E41300209C13002091
:108FF000B0130020AC130020F8B50646144B154DF5
:109000001C6828680F460430FFF782FC731C07D1E8
:1090100037B1296810480431BDE8F840FFF756BC65
:109020002B68A4195C6007D30C4B18682968BDE84D
:10903000F8400431FFF755BC094B18682968043122
:10904000FFF74FFC074B1A68A24288BF1C60F8BDAF
:10905000B413002074180020BC130020E413002077
:10906000E81300209813002008B501F005FBFCE789
:10907000064A13681968064B19B94FF0FF321A6097
:1090800070471268D268D2685268F8E7E813002087
:10909000981300202DE9F0470D46DDE9099496006C
:1090A00032460746A521206B984602F029F8236B2B
:1090B000043E1E4426F007066B1EC4F8346104F11A
:1090C0003302FE3513F8011F02F8011F09B1AB424C
:1090D000F8D1089D4FF0000A372D28BF3725201DF5
:1090E000C4E9505AE56284F832A1FFF7ECFBC5F100
:1090F000380504F11800FFF7E6FB4C225146C4F88E
:1091000094A12461A561646284F898A104F5A47017
:1091100001F0F6FF0B4B394603F16802C4F84C31FD
:10912000D033C4F8502130464246C4F8543100F0E0
:109130006FFE2060B9F1000F01D0C9F80040BDE812
:10914000F08700BF4847002070B586B0DDE90B54BA
:1091500045B94FF0500383F31188BFF36F8FBFF30E
:109160004F8FFEE744B94FF0500383F31188BFF3EC
:109170006F8FBFF34F8FFEE74FF4CE760596059EB7
:10918000B6F5CE7F08D04FF0500383F31188BFF3BC
:109190006F8FBFF34F8FFEE72563022584F8995147
:1091A00004AD01950A9D02940095FFF773FF2046D8
:1091B000FFF7A6FE049806B070BD2DE9F043074600
:1091C00085B0900088461646994600F077FF054620
:1091D00020B94FF0FF3005B0BDE8F0834FF4CE70FA
:1091E00000F06CFF044698B1002380F899310D9B84
:1091F000056301930C9B324641460290009338462A
:109200004B46FFF747FF2046FFF77AFE0120E2E7D3
:10921000284600F0E5FFDCE770B5044640B94FF0A2
:10922000500383F31188BFF36F8FBFF34F8FFEE7B7
:10923000194D2B6883422ED000F014FE6269174B43
:109240009A4224D1A36A164A934220D0FBB9261D24
:109250003046FFF75DFB1420124AE36A11688B4227
:1092600088BF1360104A314600FB0320FFF72EFB36
:109270002B68E26ADB6A9A4209D34FF0E0234FF091
:109280008052C3F8042DBFF34F8FBFF36F8FBDE83B
:10929000704000F007BE70BD74180020BC130020A1
:1092A000D0130020B01300201414002010B50024A7
:1092B00088B007AA06A905A8CDE90544FFF7E0FA9A
:1092C000059B079A0293069B1949CDE9004319486B
:1092D0002346FFF739FF48B300F074FB01281AD189
:1092E0004FF0500383F31188BFF36F8FBFF34F8F9D
:1092F000114B124A1B6803F5A47313604FF0FF3241
:109300000F4B1A600F4B18600F4B1C6008B0BDE884
:10931000104000F027BE013008D14FF0500383F316
:109320001188BFF36F8FBFF34F8FFEE708B010BDFA
:10933000C4B500086990000874180020600A002075
:1093400098130020AC130020B4130020024A1368C5
:1093500001331360704700BF94130020014B18685D
:10936000704700BFB41300202DE9F74F424B1B6834
:10937000002B77D1414B1C6801341C60BCB9404BB9
:109380001A68126842B14FF0500383F31188BFF39B
:109390006F8FBFF34F8FFEE73A4A19681068186065
:1093A0001160394A136801331360FFF761FE374DCE
:1093B0004FF0000B2B68364EA342364F16D91421BE
:1093C0003A68D26A4A43B258022A334A28BF4FF059
:1093D000010B12680AB901F061F9304A1268002ADB
:1093E0000CBF5846012003B0BDE8F08FDFF8909025
:1093F000DFF8ACA0D9F8002012681AB94FF0FF329C
:109400002A60DCE7D9F80020D268D2F80C80D8F8BE
:1094100004108C4201D22960D1E708F104031846F8
:109420000193FFF775FAD8F8281019B108F1180060
:10943000FFF76EFA1423D8F82C00DAF800108842EF
:1094400088BFCAF8000008F1040103FB0060FFF7C1
:109450003DFA3868D8F82C10C26A914228BF4FF004
:10946000010BC7E70C4A4FF0000B13680133136080
:1094700001F014F9B1E700BF94130020B4130020E9
:10948000E8130020E4130020A0130020981300200C
:109490001414002074180020A8130020A413002026
:1094A000B01300202DE9F041304C236843B94FF050
:1094B000500383F31188BFF36F8FBFF34F8FFEE725
:1094C00000F0D0FC2368013B236024682CB1002409
:1094D00000F0E8FC2046BDE8F081254B1B68002B1E
:1094E000F5D0244D244EDFF894801DE0EB68DC6855
:1094F000271D04F11800FFF70BFA3846FFF708FAAA
:109500001420E36A326800FB03809342394688BF27
:109510003360FFF7DBF91A4BE26A1B68DB6A9A4299
:1095200002D30122174B1A602B68002BDED10CB13D
:10953000FFF79EFD144D2C6844B10127114EFFF733
:1095400013FF00B13760013CF9D12C600D4B1B6853
:10955000002BBCD04FF0E0234FF08052C3F8042D15
:10956000BFF34F8FBFF36F8F0124B1E79413002037
:10957000B8130020D0130020B013002014140020D2
:1095800074180020A4130020A8130020F8B5254B60
:109590001A68254B12B101221A60F8BD234C1A60DB
:1095A00023681B6B1A68B2F1A53F0BD15A68B2F160
:1095B000A53F07D19A68B2F1A53F03D1DB68B3F1AB
:1095C000A53F04D020682168343101F077F81427D2
:1095D000174E1849326807FB02F3CD58C818ADB1D1
:1095E000456808336D680B4445609D4204BF6B6855
:1095F0004360142303FB02114B68DB682360326075
:1096000023680D4A03F5A4731360C6E742B94FF00F
:10961000500383F31188BFF36F8FBFF34F8FFEE7C3
:10962000013AD8E794130020A413002074180020F6
:10963000B013002014140020600A002070B5044606
:10964000264D00F00FFC04B92C68261D3046FFF7AC
:109650005FF9A36A1BB104F11800FFF759F931460D
:109660001F48FFF733F994F898311E4E012B04BFC1
:10967000002384F8983100F015FC33682BB100F01A
:10968000F1FBFFF7F5FC00F00DFC2B68A34217D1AE
:109690003368B3B1144B1B6843B14FF0500383F3ED
:1096A0001188BFF36F8FBFF34F8FFEE74FF0E023BA
:1096B0004FF08052C3F8042DBFF34F8FBFF36F8F6D
:1096C00070BD074A1168094A1268914201D12B60A6
:1096D000F6E7BDE87040FFF759BF00BF74180020DF
:1096E000BC130020AC13002094130020B8130020FA
:1096F00010B50C4640B94FF0500383F31188BFF307
:109700006F8FBFF34F8FFEE7054B19681831FFF7D6
:10971000E8F82046BDE810400121FFF76DBC00BF0E
:109720007418002038B50D46144640B94FF0500368
:1097300083F31188BFF36F8FBFF34F8FFEE7084BA2
:1097400019681831FFF7C2F8002C214608BF2846D7
:10975000BDE8384018BF4FF0FF30FFF74DBC00BFE9
:109760007418002038B5C368DC6844B94FF0500362
:1097700083F31188BFF36F8FBFF34F8FFEE704F1C0
:1097800018052846FFF7C4F8104B1B68DBB9251DE8
:109790002846FFF7BDF80E4A14201168E36A8B4291
:1097A000294688BF13600B4A00FB0320FFF78EF8A1
:1097B000094BE26A1B68DB6A9A4285BF0120074BAE
:1097C0000020186038BD29460548EFE794130020B3
:1097D000B01300201414002074180020A4130020DB
:1097E000D0130020034B1B680360034B1B684360CE
:1097F000704700BFA0130020B413002070B50C46C2
:10980000054640B94FF0500383F31188BFF36F8FC3
:10981000BFF34F8FFEE741B94FF0500383F3118838
:10982000BFF36F8FBFF34F8FFEE700F01BFB0F4BB3
:10983000196823685A1C10D00D482E6800686A68A1
:10984000864201D08A420FD9881A83420AD95B1A0C
:10985000134428462360FFF7C5FF002400F022FBD5
:10986000204670BD002323600124F7E7B4130020D5
:10987000A01300200122014B1A607047A41300209E
:10988000054B1B6833B1054B1868B0FA80F04009EE
:109890004000704701207047AC1300209413002053
:1098A00038B508B9002038BD1D4B1C68844208D06B
:1098B0004FF0500383F31188BFF36F8FBFF34F8FC7
:1098C000FEE7D4F8443143B94FF0500383F31188D5
:1098D000BFF36F8FBFF34F8FFEE7E16AD4F84021EB
:1098E000013B9142C4F84431DCD0002BDAD1251D74
:1098F0002846FFF70DF81420D4F84031C3F13802A0
:10990000A261084AE36211688B4288BF1360064A6D
:10991000294600FB0320FEF7D9FF0120C3E700BF63
:1099200074180020B013002014140020914208B5D0
:10993000416000610AD8D21A83699A420DD2084B5D
:10994000011D1868FEF7CDFF002008BD9A4201D224
:10995000994202D2034B011DF3E70120F5E700BF56
:109960004C19002050190020F7B50F4C00F07AFA7E
:1099700025689DB90D4F0E4E3846FEF799FF3046CB
:10998000FEF796FF0B4B0C211F600B4B0A201E604D
:109990000A4A0B4B0095FFF796F8206003B0BDE82C
:1099A000F04000F07FBA00BF48190020681900207D
:1099B00054190020501900204C190020C81800200C
:1099C0007818002010B588B0FFF7CEFF124B1B6847
:1099D000B3B1002407AA06A905A8CDE90544FEF7FE
:1099E0005BFF059B079A0293069B0C490193352365
:1099F0000B4800932346FFF7A7FB0A4B186040B9BA
:109A00004FF0500383F31188BFF36F8FBFF34F8F75
:109A1000FEE7012008B010BD48190020C9B50008B4
:109A2000E59B0008441900202DE9F04180463020D4
:109A30000D4617461E4600F041FB0446C0B145B92D
:109A40004FF0500383F31188BFF36F8FBFF34F8F35
:109A5000FEE7FFF789FF069BC4E906576362C4F877
:109A600000802662201DFEF72EFF002384F82C3094
:109A70002046BDE8F0812DE9F3411E4630230193D5
:109A8000019B8046302B0D461746099C08D04FF0AD
:109A9000500383F31188BFF36F8FBFF34F8FFEE73F
:109AA00044B94FF0500383F31188BFF36F8FBFF3B6
:109AB0004F8FFEE741B94FF0500383F31188BFF396
:109AC0006F8FBFF34F8FFEE7FFF74EFF089B201D00
:109AD0006362C4E90657C4F800802662FEF7F3FE0D
