:020000040800F2
:10000000004C0020890A0008510A0008530A000821
:10001000550A0008570A0008590A000800000000A5
:100020000000000000000000000000005B0A000863
:100030005D0A0008000000005F0A0008610A00086D
:10004000D10A0008650A0008D10A0008D10A000890
:10005000690A00086D0A0008D10A0008D10A0008E0
:10006000D10A0008D10A0008D10A0008D10A000804
:10007000D10A0008D10A0008D10A0008D10A0008F4
:10008000D10A0008D10A0008D10A00086F0A000846
:100090007B0A00087F0A0008830A0008D10A0008CA
:1000A000D10A0008D10A0008D10A0008D10A0008C4
:1000B000D10A0008D10A0008D10A0008D10A0008B4
:1000C000D10A0008D10A0008D10A0008D10A0008A4
:1000D000D10A0008D10A0008D10A0008D10A000894
:1000E000D10A0008D10A0008D10A00080000000067
:1000F0000000000000000000000000000000000000
:0C01000000000000000000005FF808F1A3
:10010C0010B5054C237833B9044B13B10448AFF345
:10011C0000800123237010BD180000200000000097
:10012C00481E000808B5034B1BB103490348AFF345
:10013C00008008BD000000001C000020481E0008C4
:10014C0040F234004FF4C843C2F20000C4F2000382
:10015C0010B50024036006234FF48022C0E901345B
:10016C004FF4A003C0E904234FF480738AB0C0F2AB
:10017C000113C4608361848300F0F2FC08B100F0C9
:10018C003EFC0D23CDE905340123079308934EF271
:10019C00400340F23400CDE900344FF6E073694679
:1001AC00C2F20000CDE90234049400F05AFD40F292
:1001BC003400C2F2000000F0CBFD40F23400062106
:1001CC00C2F2000000F0E9FE0AB010BD10B586B016
:1001DC0004461022002102A801F003FE4FF4C8438C
:1001EC002268C4F200039A422FD14FF48053C4F218
:1001FC000203DA694FF4006042F00072DA61DA69E6
:10020C0002A902F000720092009A9A69C4F20100ED
:10021C0042F004029A619B6903F004030193019B71
:10022C004FF4006302930123049301F027FA4FF477
:10023C00805102234FF40060CDE90213032302A97D
:10024C00C4F20100059301F019FA06B010BD10229A
:10025C002DE9F04188B00DEB0200002101F0C1FD49
:10026C004FF480534FF44066C4F202034FF4006520
:10027C009A69C4F2010642F010029A619A69C4F2BA
:10028C00010502F010020092009A9A69304642F081
:10029C0020029A619A6940F6020102F02002019252
:1002AC00019A9A69032442F004029A619A694FF008
:1002BC00010802F004020292029A9A69022742F0A3
:1002CC0008029A619B69002203F008030393039BC5
:1002DC0001F0F2FA002228464FF4807101F0ECFA9A
:1002EC004FF480504FF4604304A9C4F20100CDE9EF
:1002FC00043401F0C3F948F2FF63284604A9CDE9A0
:10030C00043401F0BBF94FF2FD73304604A9CDE97A
:10031C00043401F0B3F940F60203304604A9CDE9E8
:10032C000438CDE9067401F0A9F94FF4807328461E
:10033C0004A9CDE90438CDE9067401F09FF908B0A1
:10034C00BDE8F08110B5142490B02246002108A815
:10035C0001F047FD2246002101A801F042FD0224D4
:10036C0001224FF48033CDE90623CDE90D434FF440
:10037C00E01306A80A920F9301F0B2FA0F234FF480
:10038C008062CDE901340023214601A8CDE9033276
:10039C00059301F079FC10B010BD002102464FF01E
:1003AC000063C0F60201184603F580639A4201D23D
:1003BC00824202D28B42F6D10020704713B54DF623
:1003CC00FF30C0F60000FFF7E8FF044601F048F8E4
:1003DC0040F25C000023C2F2000003604FF40053B3
:1003EC00C0F60003836004F17843A3F500539B0A25
:1003FC00013301A9C36001F0E9F8044618B101F01A
:10040C004FF802B010BD01F041F82046F9E7F8B5FD
:10041C0006460F46154672B601F022F80024A54296
:10042C0006EB840104D801F031F862B60020F8BD67
:10043C000023022057F8242001F062F808B9013497
:10044C00EDE7BDE8F84001F02BB872B601EB820283
:10045C00401A914201D162B67047435841F8043BAF
:10046C00F7E72DE9F04140F29C0440F2840540F29C
:10047C00C00740F2B80640F2800840F23400C2F2E5
:10048C0000042369C2F200052B612368C2F2000745
:10049C0001332B603B78C2F2000633707B78C2F2DA
:1004AC00000840337370BB783246B370FB78294632
:1004BC00F3703B79C2F200003371434600F073FCD9
:1004CC000020C5E90100C4E90200306070602861B9
:1004DC00E86028602875C8F8000020602061606022
:1004EC00A061606138607860BDE8F08140F204037F
:1004FC002DE9F04140F2C00640F2840540F29C0424
:10050C0040F2B807C2F200031B78C2F20006022BBD
:10051C00C2F20005C2F20004C2F2000733D140F26D
:10052C00740840F27C01D6F80330C2F20008C2F223
:10053C0000010122D8F800000B60FFF768FFD8F823
:10054C00003040F234000433C8F8003040F2780335
:10055C00C2F200031A68294601321A6023693A462E
:10056C002B612368C2F2000001332B6033783B709F
:10057C00737840337B70B378BB7040F28003C2F267
:10058C00000300F010FC002340F28002C5E90133A7
:10059C00C4E90233C2F200023B607B602B61EB606A
:1005AC002B602B751360236023616360A36163610F
:1005BC0033607360BDE8F0812DE9F04140F29C049A
:1005CC0040F2840540F2C00740F2B80640F28008C1
:1005DC0040F23400C2F200042369C2F200052B6120
:1005EC002368C2F2000701332B603B78C2F200068D
:1005FC0033707B78C2F2000840337370BB7832469C
:10060C00B37029464346C2F2000000F0CCFB002038
:10061C00C5E90100C4E90200306070602861E8603F
:10062C0028602875C8F80000206020616060A06117
:10063C00606138607860BDE8F0812DE9F84340F2E4
:10064C009C0640F2840740F2C00540F2B80440F228
:10065C00800840F23409C2F200063369C2F2000786
:10066C003B613368C2F2000501333B602B78C2F268
:10067C00000423706B78C2F2000840336370AB78CF
:10068C00C2F20009A370EB782246E3702B7939464D
:10069C0023716B7948466371AB79A371EB79E37184
:1006AC00434600F080FBFFF789FED8F8001048465F
:1006BC0000F0CBFB0021C7E90111C6E90211216052
:1006CC0061603961F96039603975C8F800103160C2
:1006DC0031617160B161716129606960BDE8F88355
:1006EC0070B54FF40054C0F60004256872B616209D
:1006FC0000F0E0FD152000F0DDFD142000F0DAFD27
:10070C00132000F0D7FD052000F0D4FD042000F0EC
:10071C00D1FD012000F0CEFD4FF0E02300221A6144
:10072C005A619A614FF46D43CEF200039C6085F3DD
:10073C0008886368BDE87040184708B500F0EAF90E
:10074C00FFF700FEFFF783FDFFF7FAFC0022052000
:10075C00114600F057FD052000F089FD0022042011
:10076C00114600F04FFD042000F081FD0022012015
:10077C00114600F047FD012000F079FD0022162003
:10078C00114600F03FFD162000F071FD00221520EF
:10079C00114600F037FD152000F069FD00221420F1
:1007AC00114600F02FFD142000F061FD00221320F3
:1007BC00114600F027FD132000F059FD40F27403A0
:1007CC000022C2F200031A6040F27803C2F2000366
:1007DC001A6040F2700440F20003C2F20004C2F24C
:1007EC000003214618680122FFF72FFE21684B1CDD
:1007FC0040F26C03C2F200030FD040F208024FF437
:10080C009840C2F20002C2F2000010604FF4804225
:10081C00C2F20002D2F8002C1A601A68022A05D122
:10082C0040F20403C2F200031A70FEE70131FCD05F
:10083C00FFF756FFF9E772B640F208030022C2F246
:10084C0000031B681A60BFF34F8F4FF46D420423F3
:10085C00CEF20002D168C0F2FA5301F4E0610B430E
:10086C00D360BFF34F8F00BFFDE7F7B540F2C00474
:10087C00C2F2000422786378042A06D1312B04D109
:10088C002379042B19D1FFF7D8FE6378342B0FD1C1
:10089C0040F27402637921791B0243EA0143A17986
:1008AC00C2F200020B4343F000631360FFF7D9FD63
:1008BC006378362B01D1FFF719FE40F2B80740F2EE
:1008CC00840640F29C056378C2F20007372BC2F213
:1008DC000006C2F2000504D12378012B07D1FFF7E3
:1008EC006BFE6378112B02D1A278012A18D040F24A
:1008FC0080020023C2F20002C6E90133C5E90233CB
:10090C003B607B603361F3603360337513602B6045
:10091C002B616B60AB616B612360636003B0F0BDF6
:10092C002B69BA7033612B6840F2B8020133336023
:10093C00237840F284013B7051237B70E37840F2C2
:10094C003400FB7040F28003C2F20002C2F20003DA
:10095C00C2F20001C2F2000000F025FA002345F6B5
:10096C008F720193C0F201020193019B934201D952
:10097C00FFF761FF019B01330193F6E770B540F27D
:10098C00C00440F29C05C2F20004C2F200052346EA
:10099C002A460021064600F07CFA40F20403C2F21B
:1009AC0000031A78022A23D0052A01D1FFF743FF4E
:1009BC006278102A20D1A07802281DD140F284013F
:1009CC002A69C2F200010A612A68247801320A609D
:1009DC0040F2B8021870C2F2000240F280031470A8
:1009EC0050249070C2F200033046547000F0DBF9D2
:1009FC00BDE87040FFF739BF70BDFFF7BFBF704750
:100A0C004FF48053C4F202039A6982B042F001029F
:100A1C009A619A6902F001020092009ADA6942F036
:100A2C008052DA610022DB69C4F2010203F08053C8
:100A3C000193019B536823F0E06343F00073536010
:100A4C0002B07047FEE7FEE7FEE7FEE7FEE7704701
:100A5C007047704700F071B800F034BF00F06EBC06
:100A6C00704740F23400C2F2000000F0B2BAFFF757
:100A7C00F8BFFFF7F6BFFFF7F4BF7047FFF7FDFFB6
:100A8C000B480C490C4A002302E0D458C4500433E0
:100A9C00C4188C42F9D3094A094C002301E01360B5
:100AAC000432A242FBD301F0A5F9FFF746FE7047D2
:100ABC0000000020180000208C1E000818000020E8
:100ACC00F0000020FEE738B540F21003C2F200033C
:100ADC0019784FF47A7340F20C02B3FBF1F3C2F2C3
:100AEC00000205461068B0FBF3F000F0CEFB0446A4
:100AFC0070B90F2D0CD8024629464FF0FF3000F08C
:100B0C0081FB40F214032046C2F200031D6038BD85
:100B1C000120FCE708B54FF40053C4F202031A6835
:100B2C00032042F010021A6000F059FB0F20FFF76F
:100B3C00CAFFFFF765FF002008BD40F2C80340F272
:100B4C001002C2F20003C2F20002196812780A44C1
:100B5C001A60704740F2C803C2F20003186870476D
:100B6C0038B50446002874D090F820300BB9FFF744
:100B7C002DFB2268136843F001031360FFF7EAFFB3
:100B8C00054623685A68D10757D51A6822F0020225
:100B9C001A60FFF7DFFF054623685A6892075AD49C
:100BAC00227E0020012A1A680CBF42F0800222F03B
:100BBC0080021A602368627E012A1A680CBF42F018
:100BCC00400222F040021A602368A27E012A1A68B1
:100BDC000CBF42F0200222F020021A602368E27E51
:100BEC00012A1A680CBF22F0100242F010021A609F
:100BFC002368227F012A1A680CBF42F0080222F0F7
:100C0C0008021A602368627F012A1A680CBF42F03E
:100C1C00040222F004021A60D4E90232134322695E
:100C2C0021681343626913436268013A1343CB6131
:100C3C000123606284F820300CE0FFF78BFF401B2F
:100C4C000A289ED9636A43F400336362052384F84F
:100C5C002030012038BDFFF77DFF401B0A289BD9AF
:100C6C00F0E770B590F820200368013A012A69D8A2
:100C7C000120D3F8002242F00102C3F800224A6995
:100C8C00D3F81C4202F01F0200FA02F224EA02041A
:100C9C00C3F81C42CC69D043ACB9D3F80C42044025
:100CAC00C3F80C42CE684C698D88483445EA064539
:100CBC0043F834504C698E680D88483445EA064533
:100CCC0003EBC4046560CC69012C15D1D3F80C423C
:100CDC001443C3F80C420E684C698D88483445EABD
:100CEC00064543F834504C698E688D89483445EA82
:100CFC00064503EBC40465608C69DCB9D3F8044287
:100D0C000440C3F804420C69C4B9D3F8144220401F
:100D1C00C3F814020020096A012902BFD3F81C127F
:100D2C000A43C3F81C22D3F8002222F00102C3F8B4
:100D3C00002270BDD3F804421443E2E7D3F8140246
:100D4C001043E5E7436A43F4802343620120F0E754
:100D5C0038B590F820300446012B1FD102230268CD
:100D6C0080F82030136823F001031360FFF7F2FEC4
:100D7C0005462368586810F0010001D1606238BD47
:100D8C00FFF7E8FE401B0A28F3D9636A43F40033EB
:100D9C006362052384F820300120F0E7436A43F4B2
:100DAC0000234362F8E7F0B590F820500468013D49
:100DBC00012DA46845D814F0E05F3CD00125C4F3A4
:100DCC000164A5401D608B680668CD6804F11807A6
:100DDC0053BB0B6845EA43553B01F55003680D695D
:100DEC0003EB07135D600B7D012B4FEA041307D156
:100DFC0001681944D1F8844144F48074C1F88441E9
:100E0C00016854681944C1F88C41116802681A448D
:100E1C00C2F88811026800201344D3F8802142F0F4
:100E2C000102C3F88021F0BD2B434D6843EAC50392
:100E3C003D017351D2E7436A43F40013436201202E
:100E4C00F1E7436A43F48023F8E790F82030013B44
:100E5C00012B18D8CB0741BF0268936843F080037D
:100E6C0093608A0741BF0268936843F40043936020
:100E7C004B0748BF02684FF0000042BF936843F431
:100E8C00000393607047436A43F48023436201205C
:100E9C007047F0B590F82040013C012C79D80468DB
:100EAC0041B9E568AD0707D1436A43F400134362C7
:100EBC000120F0BD2569F5E701F11B052E01A459B0
:100ECC0004F0040494600768002C59D1BC59640DDB
:100EDC00146006682C01345904F00204D4600668CE
:100EEC000C0106EB0116D6F8B4713F074EBF08266D
:100EFC00D6F8B46106F00F061661066806EB051607
:100F0C007668C6F307269661066806EB05167568C3
:100F1C002D0C556102682244D2F8B8211A7002686F
:100F2C002244D2F8B821120A5A7002682244D2F82C
:100F3C00B821120C9A7002682244D2F8B821120E11
:100F4C00DA7002682244D2F8BC211A710268224479
:100F5C00D2F8BC21120A5A7102682244D2F8BC2180
:100F6C00120C9A7102682244D2F8BC21120EDA716A
:100F7C00036849B9DA6842F02002DA60002098E789
:100F8C00BC59E4085460A4E71A6942F020021A61C3
:100F9C00F4E7436A43F4802389E790F82030013B5F
:100FAC00012B05D802680020536919435161704721
:100FBC00436A43F4802343620120704770477047B3
:100FCC00704770477047704770477047704770475D
:100FDC0070472DE9F84F036805465E69D3F8049015
:100FEC0016F00104D3F80880D3F80CB0D3F810A095
:100FFC009F6927D018F0010F07D0012218F0020FBB
:10100C009A6000F0A780FFF7D9FF002418F4807FC6
:10101C000AD04FF480722B6818F4007F9A6000F0AD
:10102C00A8802846FFF7CBFF18F4803F0AD04FF476
:10103C0080322B6818F4003F9A6000F0AA80284692
:10104C00FFF7BEFF320707D51BF0100F1FBF102292
:10105C002B6844F40074DA60730708D51BF0080F92
:10106C0005D008222B682846DA60FFF7C6FCB007CB
:10107C0006D52B68DB68990702D02846FFF77EFC63
:10108C00720607D51AF0100F1FBF10222B6844F4FC
:10109C0080641A61B30608D51AF0080F05D008222F
:1010AC002B6828461A61FFF790FFF00606D52B68CF
:1010BC001B69990702D02846FFF786FFB20308D5B3
:1010CC0019F0100F05D010222B6828465A60FFF734
:1010DC007DFFF30308D519F0080F05D008222B6803
:1010EC0028465A60FFF773FF30042AD519F0040F15
:1010FC0024D0F10503D5FA0748BF44F00104B30529
:10110C0003D5B80748BF44F00204710503D57A072C
:10111C0048BF44F00404330510D517F070030DD00C
:10112C00402B56D045D8202B4DD0302B4ED0102BE9
:10113C0046D02A68936923F07003936104222B68CC
:10114C005A602CB16B6A284623436B62FFF740FF51
:10115C00BDE8F88F18F0040F05D118F0080F05D171
:10116C00FFF72FFF51E74FF400644FE74FF4805423
:10117C004CE718F4806F02D044F4005454E718F490
:10118C00006F02D044F480444EE72846FFF71AFF64
:10119C004AE718F4802F02D044F4004452E718F4C4
:1011AC00002F02D044F480344CE72846FFF70BFFA5
:1011BC0048E7502B10D0602BBBD144F48074B8E7B7
:1011CC0044F00804B5E744F01004B2E744F02004FE
:1011DC00AFE744F04004ACE744F08004A9E74FF4D7
:1011EC006D42CEF20002D168030221F4E0610904E1
:1011FC0003F4E063090C0B4343F0BF6343F4003387
:10120C00D36070474FF46D4330B5CEF20003DC6809
:10121C00C4F30224C4F10703251D042B28BF0423A7
:10122C00062D4FF0FF3594BF0024033C05FA03F361
:10123C0021EA0303A540002822EA050203FA04F37D
:10124C0043EA0203B6BF4EF6FC4200F16040CEF218
:10125C0000024FEA0313B8BF00F00F00DBB2ABBFC4
:10126C0000F56140121880F80033137630BD002869
:10127C000ADB01234FF46142410900F01F00834057
:10128C00CEF2000242F8213070470138B0F1807F75
:10129C000ED24FF46D424FF0E023F021CEF200025B
:1012AC00586182F823100020072298611A61704758
:1012BC000120704700280BDB01224FF461414309E8
:1012CC0000F01F008240CEF20001603341F8232071
:1012DC0070474FF40052C4F20202D36813F01003AB
:1012EC0008D040F2D003C2F20003D96941F00201E8
:1012FC00D9611023D268500709D540F2D002C2F24E
:10130C000002D16943F0040341F00101D1614FF4B3
:10131C000052C4F20202D169C9070BD540F2D001C8
:10132C00C2F20001C86940F00400C861D16921F023
:10133C000101D161D3607047704770474FF400537F
:10134C0070B540F2D004C4F20203DA68C2F20004B1
:10135C0012F0100F02D1DB685A070AD54FF0FF3399
:10136C00A568A360FFF7B5FF2846FFF7E6FF00234B
:10137C0023704FF40055C4F20205EB689B0618D598
:10138C002023EB602378A3B12378012B2AD1636847
:10139C00013B63606368F3B1A068FFF7CDFFA06801
:1013AC0000F58060A0602B6923F002032B6100F034
:1013BC00F9F8237803F0FF0163B94FF40053C4F23A
:1013CC0002031A6922F007021A611A6922F4A05268
:1013DC001A61217670BD4FF0FF30A0602370FFF7CB
:1013EC00ABFFE6E72378022B09D12B69002023F011
:1013FC0004032B61FFF7A0FF00232370D9E7636878
:10140C00013B63606368D3B1A3680233A360A66831
:10141C00D4E90401020C42EA01420B0CC4E9042396
:10142C002B6923F001032B61D4E904230023E3612E
:10143C002B6992B243F001032B613280B9E7237818
:10144C00032B06D1A068FFF777FF4FF0FF33A360A3
:10145C00D2E72378A068042B0CBF02380638F2E7D9
:10146C004FF40053C4F20203186910F080000CD042
:10147C0040F22312C4F267525A6048F6AB12CCF613
:10148C00EF525A601869C0F3C01070474FF4005304
:10149C00C4F202031A69002042F080021A617047FC
:1014AC0040F2D003C2F20003D869704770B505460C
:1014BC00FFF750FB4FF400540646C4F20204E368F5
:1014CC00D80712D4E368990644BF2023E360E3688D
:1014DC00DA0606D4E369DB0703D4E06810F00400F5
:1014EC0007D0FFF7F6FE012003E06B1CE7D00DB927
:1014FC00032070BDFFF72EFB801BA842DFD9F7E756
:10150C002DE9F84F40F2D006C2F200061F46337E9A
:10151C000546012B8846914642D001234CF25030AF
:10152C003376FFF7C3FFB8BB012D03D0022D14BFD8
:10153C00042502254FF0000A4FF4005B5346C4F219
:10154C00020B4FEA0A14C4F12001A4F1200207FA9D
:10155C0001F129FA04F4F3610C4327FA02F2144363
:10156C00DBF81020A4B242F00102CBF810204CF2B0
:10157C00503028F81A40FFF799FFDBF8102022F0C2
:10158C000102CBF8102038B90AF1010A5FFA8AF28D
:10159C0095424FF00003D4D800233376BDE8F88F82
:1015AC000220FBE740F2D0030022C2F20003DA6112
:1015BC004FF40053C4F202031A6942F002021A619A
:1015CC0058611A6942F040021A6170472DE9F041E6
:1015DC0040F2D005C2F200052B7E0646012B884650
:1015EC004AD001242C7603684CF25030022B1DD1CA
:1015FC00FFF75CFF20B1012000232B76BDE8F081C2
:10160C004FF40054E861C4F2020423694CF25030E8
:10161C0043F004032361236943F040032361FFF784
:10162C0045FF236923F004032361E5E7FFF73EFF41
:10163C000028E0D14FF0FF3320464FF40054C8F897
:10164C000030B768C4F20204D6E9023203EB8223FD
:10165C00BB42D1D93846FFF7A5FF4CF25030FFF70B
:10166C0025FF236923F00203236110B1C8F8007031
:10167C00C2E707F58067E7E70220BFE700222DE904
:10168C00F04F144687B0C1F2220400941446C1F204
:10169C00310401941446C1F23204029414464FF4FE
:1016AC0080564FF4006B4FF48063944617461546F2
:1016BC00C1F21204C4F20206C4F2010BC4F201031B
:1016CC000394C1F2210CC1F21107D1F800E03EFAEB
:1016DC0005F402D107B0BDE8F08F4FF0010808FA0D
:1016EC0005F80EEA080438EA0E0E40F0A980D1F88D
:1016FC0004E0BEF1030F09D80EF1FF3EBEF1020F5C
:10170C0000F2AE80DFE80EF0C0C5CB00BEF1120FC8
:10171C0000F0C28000F29680BEF1110F00F0B6808E
:10172C00FF2C94BF824600F1040ADAF800804FEADD
:10173C00850EC1464FF00F0888BFAEF1200E08FA97
:10174C000EF829EA080802FA0EFE48EA0E08CAF852
:10175C000080D1F804E01EF0805F71D04FF00F09CB
:10176C00D6F818E025F003084EF0010EC6F818E084
:10177C00D6F818E008F180480EF0010ECDF814E010
:10178C0008F5803805F0030ADDF814E04FEA8A0A00
:10179C00D8F808E009FA0AF958452EEA090900F0C8
:1017AC0082804FF4406EC4F2010E70457ED04FF42F
:1017BC00805EC4F2010E70457BD04FF4A05EC4F283
:1017CC00010E704514BF4FF0040E4FF0030E0EFACD
:1017DC000AFE4EEA090EC8F808E0D1F804E01EF43F
:1017EC00801FD3F808E014BF4EEA040E2EEA040E54
:1017FC00C3F808E0D1F804E01EF4001FD3F80CE0A5
:10180C0014BF4EEA040E2EEA040EC3F80CE0D1F815
:10181C0004E01EF4003FD3F804E014BF4EEA040EBB
:10182C002EEA040EC3F804E0D1F804E01EF4803F65
:10183C00D3F800E014BF4EEA04042EEA04041C6042
:10184C00013542E7DDF80090CE4509D014D8DDF81B
:10185C000C90CE4504D0E64502D0BE457FF460AF77
:10186C008A68F2B1012A08BFC0F810804FF0080254
:10187C0018BFC0F8148053E7DDF80490CE45EFD0C4
:10188C00DDF80890CE45E9E7CA6849E7CA68043232
:10189C0046E7CA68083243E7CA680C3240E70022C0
:1018AC003EE704223CE74FF0000E90E74FF0010EAC
:1018BC008DE74FF0020E8AE70AB101617047090407
:1018CC00FBE7704710B54FF48064C4F20104636900
:1018DC00DB0304D5FFF7F5FF4FF48033636110BDD4
:1018EC002DE9F341044650B30368DB0710D4236899
:1018FC009F075CD42368190700F1988023685A0766
:10190C0000F1CC80E369002B40F0318100202EE007
:10191C004FF48055C4F202056B6803F00C03042BE2
:10192C0007D06B6803F00C03082B0AD16B68DE033D
:10193C0007D52B689D03DAD56368002BD7D101201E
:10194C0015E06368B3F5803F14D12B6843F4803302
:10195C002B606368FBB1FFF7FDF806462B68980314
:10196C00C5D4FFF7F7F8801B6428F7D9032002B021
:10197C00BDE8F0813BB92B6823F480332B602B68D6
:10198C0023F48023E4E7B3F5A02F2B68F4D143F4C0
:10199C0080232B60D9E7FFF7DDF806462B68990307
:1019AC00A5D5FFF7D7F8801B6428F7D9DEE74FF4ED
:1019BC008055C4F202056B6813F00C0F07D06B68EE
:1019CC0003F00C03082B10D16B68DA030DD42B68D1
:1019DC009B0702D52369012BB1D12B68626923F0D7
:1019EC00F80343EAC2032B6084E700232269C4F2A4
:1019FC0042236AB101221A60FFF7ACF806462B6845
:101A0C009F07EAD4FFF7A6F8801B0228F7D9ADE7A9
:101A1C001A60FFF79FF806462B6898077FF56AAFA8
:101A2C00FFF798F8801B0228F6D99FE74FF48055F2
:101A3C000023A269C4F20205C4F24223FAB10122C6
:101A4C00C3F88024FFF786F806466B6A9B0710D50F
:101A5C0040F20C034FF4FA52C2F200031B68B3FBC2
:101A6C00F2F3019300BF019B5A1E0192002BF9D196
:101A7C0044E7FFF76FF8801B0228E6D976E7C3F836
:101A8C008024FFF767F806466B6A9F077FF536AF31
:101A9C00FFF760F8801B0228F6D967E74FF48055F2
:101AAC00C4F20205EB69D8002AD40127EB6943F094
:101ABC008053EB61EB6903F080530093009B4FF470
:101ACC00E046C4F200063368D9051BD5E368012B48
:101ADC0029D12B6A43F001032B62E368002B38D029
:101AEC00FFF738F841F2883806462B6A9B072AD54F
:101AFC00002F3FF407AFEB6923F08053EB6101E754
:101B0C000027DCE7336843F480733360FFF722F877
:101B1C0080463368DA05D9D4FFF71CF8A0EB08002F
:101B2C006428F6D922E73BB92B6A23F001032B6218
:101B3C002B6A23F00403CFE7052B2B6AF5D143F076
:101B4C0004032B62C5E7FFF705F8801B4045CCD991
:101B5C000CE7FEF7FFFF41F2883806462B6A980720
:101B6C00C6D5FEF7F7FF801B4045F7D9FEE64FF4CC
:101B7C008055C4F202056A6802F00C02082A45D0AE
:101B8C00022B4FF000034FF00002C4F242231A66FE
:101B9C002FD1FEF7DFFF06462B68990123D4236A69
:101BAC00B3F5803F05D16B68A26823F4003313436F
:101BBC006B606A68D4E9083122F474120B43134346
:101BCC006B6000230122C4F242231A66FEF7C2FFA7
:101BDC0004462B689A013FF599AEFEF7BBFF001B3C
:101BEC000228F6D9C2E6FEF7B5FF801B0228D3D92E
:101BFC00BCE6FEF7AFFF04462B689B017FF586AE73
:101C0C00FEF7A8FF001B0228F6D9AFE6012B3FF424
:101C1C0096AE6868236A00F480329A427FF48FAEE5
:101C2C00636A00F47010C01A18BF01209FE64FF4CD
:101C3C008053C4F202035A6802F00C0108291ED129
:101C4C0041F67261C2F38340C0F60001D203085C16
:101C5C000FD54FF49052C0F27A02504341F67062A5
:101C6C005B68C0F60002C3F34043D35CB0FBF3F0F7
:101C7C0070474FF41063C0F23D03584370474FF464
:101C8C009050C0F27A0070472DE9F0410D460446A1
:101C9C0010B90120BDE8F0814FF40053C4F20203E7
:101CAC001A6802F007028A4239D32368980741D494
:101CBC002368DA0757D44FF40053C4F202031A68AE
:101CCC0002F00702AA4279D84FF480552368C4F277
:101CDC00020513F0040F7DD123681B0706D56B6832
:101CEC00226923F4605343EAC2036B60FFF79FFF42
:101CFC0041F6606140F20C036A68C0F60001C2F361
:101D0C0003128A5CC2F20003D040186040F2140344
:101D1C00C2F200031868FEF7D6FE0020BAE71A6874
:101D2C0022F007020A431A601B6803F007038B4278
:101D3C00AFD1BAE713F0040F4FF48053C4F202038F
:101D4C001EBF5A6842F4E0625A602268110742BF13
:101D5C005A6842F460525A605A68A16822F0F00244
:101D6C000A435A60A4E74FF480566268C4F2020634
:101D7C00012A33681AD113F4003F8AD0736841F2F8
:101D8C00883823F0030313437360FEF7E3FE074622
:101D9C007368626803F00C03B3EB820F8BD0FEF711
:101DAC00D9FEC01B4045F3D9032073E7022A02D1A8
:101DBC0013F0007FE1E713F0020FDEE71A6822F060
:101DCC0007022A431A601B6803F00703AB427FF437
:101DDC0060AF79E76B68E26823F4E06313436B60F0
:101DEC007AE703460244934200D1704703F8011B83
:101DFC00F9E7000070B500260C4D0D4C641BA410C7
:101E0C00A64209D100F01AF800260A4D0A4C641BB0
:101E1C00A410A64205D170BD55F8043B9847013675
:101E2C00EEE755F8043B98470136F2E7841E0008AC
:101E3C00841E0008841E0008881E0008F8B500BF28
:101E4C00F8BC08BC9E467047F8B500BFF8BC08BC8F
:041E5C009E467047E7
:101E6000000000000000000001020304060708094A
:101E7000010202030405060708090A0B0C0D0E0FE8
:041E8000101000003E
:041E84003101000820
:041E88000D01000840
:101E8C00003C000807000000004C002000127A0003
:081E9C0001000000100000002D
:0400000508000A895C
:00000001FF
