:020000040800F2
:10200000004C00204D350008BD820008C982000840
:10201000D5820008E1820008ED820008000000007F
:102020000000000000000000000000000174000833
:10203000F98200080000000091740008D5740008BF
:1020400095350008FB820008953500089535000895
:102050000D830008118300089535000895350008A8
:10206000953500089535000895350008158300085A
:102070009535000895350008953500089535000818
:10208000953500089535000895350008218300082E
:102090002D8300083183000835830008953500083A
:1020A0003983000845830008498300084D830008F0
:1020B00051830008953500086583000895350008B0
:1020C00095350008953500089535000895350008C8
:1020D00095350008953500089535000895350008B8
:1020E000953500089535000895350008000000007A
:1020F00000000000000000000000000000000000E0
:0C21000000000000000000005FF808F183
:1021100010B5054C237833B9044B13B10448AFF321
:1021200000800123237010BD780000200000000013
:10213000D085000808B5034B1BB103490348AFF332
:10214000008008BD000000007C000020D085000851
:1021500080F0004002E000BF81F0004142001FBF5C
:102160005FEA410392EA030F7FEA226C7FEA236C65
:102170006AD04FEA1262D2EB1363C1BFD21841405A
:1021800048404140B8BF5B42192B88BF704710F0F0
:10219000004F40F4000020F07F4018BF404211F093
:1021A000004F41F4000121F07F4118BF494292EAFB
:1021B000030F3FD0A2F1010241FA03FC10EB0C0027
:1021C000C3F1200301FA03F100F0004302D54942B4
:1021D00060EB4000B0F5000F13D3B0F1807F06D361
:1021E00040084FEA310102F10102FE2A51D2B1F159
:1021F000004F40EBC25008BF20F0010040EA03004E
:102200007047490040EB0000013A28BFB0F5000FCD
:10221000EDD2B0FA80FCACF1080CB2EB0C0200FA83
:102220000CF0AABF00EBC25052421843BCBFD040D2
:102230001843704792F0000F81F4000106BF80F44C
:1022400000000132013BB5E74FEA41037FEA226C0F
:1022500018BF7FEA236C21D092EA030F04D092F0DA
:10226000000F08BF0846704790EA010F1CBF00200E
:10227000704712F07F4F04D1400028BF40F000406B
:10228000704712F100723CBF00F50000704700F08B
:10229000004343F0FE4040F4000070477FEA2262B2
:1022A00016BF08467FEA23630146420206BF5FEA83
:1022B000412390EA010F40F4800070474FF0000383
:1022C00004E000BF10F0004348BF40425FEA000C4A
:1022D00008BF704743F0964301464FF000001CE0F2
:1022E00050EA010208BF70474FF000030AE000BF48
:1022F00050EA010208BF704711F0004302D5404286
:1023000061EB41015FEA010C02BF844601460020F7
:1023100043F0B64308BFA3F18053A3F50003BCFA12
:102320008CF2083AA3EBC25310DB01FA02FC6344BF
:1023300000FA02FCC2F12002BCF1004F20FA02F2C6
:1023400043EB020008BF20F00100704702F12002B9
:1023500001FA02FCC2F1200250EA4C0021FA02F21A
:1023600043EB020008BF20EADC7070474FF0FF0C1F
:102370001CEAD0521EBF1CEAD15392EA0C0F93EA1A
:102380000C0F6FD01A4480EA010C400218BF5FEABC
:1023900041211ED04FF0006343EA501043EA51112F
:1023A000A0FB01310CF00040B1F5000F3EBF490029
:1023B00041EAD3715B0040EA010062F17F02FD2A2D
:1023C0001DD8B3F1004F40EBC25008BF20F0010010
:1023D000704790F0000F0CF0004C08BF49024CEA27
:1023E000502040EA51207F3AC2BFD2F1FF0340EAB9
:1023F000C250704740F400004FF00003013A5DDC2A
:1024000012F1190FDCBF00F000407047C2F100026A
:10241000410021FA02F1C2F1200200FA02FC5FEA57
:10242000310040F1000053EA4C0308BF20EADC70A1
:10243000704792F0000F00F0004C02BF400010F413
:10244000000F013AF9D040EA0C0093F0000F01F0C0
:10245000004C02BF490011F4000F013BF9D041EAE2
:102460000C018FE70CEAD15392EA0C0F18BF93EAE4
:102470000C0F0AD030F0004C18BF31F0004CD8D10E
:1024800080EA010000F00040704790F0000F17BF95
:1024900090F0004F084691F0000F91F0004F14D0DB
:1024A00092EA0C0F01D142020FD193EA0C0F03D133
:1024B0004B0218BF084608D180EA010000F0004036
:1024C00040F0FE4040F40000704740F0FE4040F411
:1024D000400070474FF0FF0C1CEAD0521EBF1CEAB0
:1024E000D15392EA0C0F93EA0C0F69D0A2EB0302CE
:1024F00080EA010C49024FEA402037D04FF0805368
:1025000043EA111143EA10130CF000408B4238BF2C
:102510005B0042F17D024FF4000C8B4224BF5B1A3A
:1025200040EA0C00B3EB510F24BFA3EB510340EA88
:102530005C00B3EB910F24BFA3EB910340EA9C0036
:10254000B3EBD10F24BFA3EBD10340EADC001B01A6
:1025500018BF5FEA1C1CE0D1FD2A3FF650AF8B424A
:1025600040EBC25008BF20F0010070470CF0004C57
:102570004CEA50207F32C2BFD2F1FF0340EAC25082
:10258000704740F400004FF00003013A37E792F043
:10259000000F00F0004C02BF400010F4000F013AA1
:1025A000F9D040EA0C0093F0000F01F0004C02BF9C
:1025B000490011F4000F013BF9D041EA0C0195E705
:1025C0000CEAD15392EA0C0F08D142027FF47DAF9E
:1025D00093EA0C0F7FF470AF084676E793EA0C0F8E
:1025E00004D14B023FF44CAF08466EE730F0004C8C
:1025F00018BF31F0004CCAD130F000427FF45CAF1C
:1026000031F000437FF43CAF5FE700BF4FF0FF3C89
:1026100006E000BF4FF0010C02E000BF4FF0010CDC
:102620004DF804CD4FEA40024FEA41037FEA226CA5
:1026300018BF7FEA236C11D001B052EA530C18BFC7
:1026400090EA010F58BFB2EB030088BFC81738BF2C
:102650006FEAE17018BF40F0010070477FEA226C1A
:1026600002D15FEA402C05D17FEA236CE4D15FEA16
:10267000412CE1D05DF8040B704700BF844608464A
:102680006146FFE70FB5FFF7C9FF002848BF10F10B
:10269000000F0FBD4DF808EDFFF7F4FF0CBF012050
:1026A00000205DF808FB00BF4DF808EDFFF7EAFFDA
:1026B00034BF012000205DF808FB00BF4DF808ED95
:1026C000FFF7E0FF94BF012000205DF808FB00BF8A
:1026D0004DF808EDFFF7D2FF94BF012000205DF810
:1026E00008FB00BF4DF808EDFFF7C8FF34BF01201D
:1026F00000205DF808FB00BF42000ED2B2F1FE4F91
:102700000BD34FF09E03B3EB126209D44FEA0023C0
:1027100043F0004323FA02F070474FF00000704787
:1027200012F1610F01D1420202D14FF0FF30704728
:102730004FF00000704700BF2DE9F0413E4B3F4E87
:102740001F78012F0ED13E4D3E4C2878D4F80080E2
:10275000132837D83C4B0130287041461868FFF7E2
:10276000FDFC20603568394C284639492668FFF75A
:10277000B9FF002832D0374B1B78002B2ED1012F08
:102780002CD129462846FFF7F1FD3349FFF7E4FC39
:102790003249FFF79FFE324B31461860FFF7DEFCEF
:1027A0002060FFF7A9FF2F4B186025682E492846A7
:1027B000FFF798FF0446002831D00122254B1A70FC
:1027C000BDE8F081FFF77EFD01464046FFF782FE3F
:1027D00000232B70002330602360C3E7234B1D6868
:1027E0001423B5FBF3F203FB1255002DDDD1304667
:1027F0001F49FFF7BBFD1F49FFF76CFE206006462F
:10280000FFF77AFF174F4FF07E5138603046FFF7E1
:102810004BFF0028C9D000233D602360C5E700219D
:102820002846FFF737FF0028CAD00A4B1A78012A3A
:1028300008BF1C70C4E700BF06000020CC000020C9
:10284000C4000020D0000020D8000020D4000020C8
:1028500000002841EE0C00200080DC4200002041F6
:10286000C8000020E00C00200000CD44A80000209B
:102870000000AA420000C84247F22F5398429DBF71
:10288000030247F23050B3FBF0F3FF2310B5164CB0
:1028900098BF9BB254F82300B1F5FA4F00F1050040
:1028A00044F823003DBF0B024FF4FA41B3FBF1F3B0
:1028B000FF230E4838BF9BB250F82310B2F5FA4FF1
:1028C00001F1050140F823103DBF4FF4FA43120215
:1028D000B2FBF3F2FF22064938BF92B251F8223020
:1028E000053341F8223010BDE0080020E00400204C
:1028F000E000002030B5374B1B78012B364B10D051
:102900001A780AB901221A701A784AB133490D6847
:1029100085B9334B334A1B681360334A0B6013602D
:1029200030BD00222D491A700A602E490A602E49D6
:102930000A60E9E7022A1CD0032A34D0012AEFD129
:102940002A4908882A490C8825490968491B4CF2FC
:10295000A755A94206D98442E2D302211970254B1A
:102960001A70DDE78442DBD202221A700022214B6A
:10297000F6E71F491B4C0888194924680968091B98
:102980001D4CA1420AD90A241C49098801EB4101C6
:10299000B1FBF4F18142C3DC0321DFE7B0F5487FEE
:1029A000BED20322E1E712490F4C08880C49246883
:1029B0000968091B124CA14206D9B0F5487FAFD374
:1029C0000C490A700422CBE7B0F5487FA8D2042254
:1029D000CBE700BF06000020E70C0020B400002079
:1029E000A8000020B0000020AC000020C0000020A3
:1029F00004000020EF0C00209F6806000200002069
:102A00001FEE0F000A22114B1B8803EB8303B3FB5D
:102A1000F2F30F4A9BB213800E4A12889A4234BFD7
:102A2000002301230C4A13700C4B1B78012B0AD195
:102A30000B4B0C4A1B78127813430CBF0123002365
:102A4000094A137070470023FAE700BF0200002014
:102A5000C000002004000020E60C0020060000203A
:102A6000EC0C0020ED0C00200000002042F210725F
:102A700010B51A4B1A491888A0F5DA53183B9BB2C7
:102A80009342184A07D800231360174A0B6013704B
:102A9000164A137010BD41F65734154BA0421B68FF
:102AA0000CD8086810B90B6000230BE01B1A3C2BF4
:102AB0008CBF012100210C4B1970F5E70020086044
:102AC000116809B91360E5E75B1A3C2B88BF012246
:102AD000064B8CBF1A701870DCE700BF02000020A4
:102AE000A4000020A0000020EB0C0020EA0C002035
:102AF000A8000020F0B533490B78012B06D1324AEB
:102B0000324B10681B6800284FD11360304B1B7884
:102B1000012B03D02F4B1B78012B02D100222E4B0F
:102B20001A702E4F3B7813B100202B4A10702C4A9C
:102B30001278012A02BF00242748047029480C7823
:102B400001780129284906D153EA040601BF0D780E
:102B5000067001350D70254D2E78012E05D11343D9
:102B600001BF0E782B70731C0B700B78204E0A2B54
:102B700008BF0123317808BF3B701E4B01291B7829
:102B80001D4919D1C3B90F78012F15D10B70124906
:102B900033700B7019490B602B789342037818BF80
:102BA0002A70A34218BF0470F0BD1B1AB3F5967FBC
:102BB000ACD900230B70A8E70E789E4218BF0B70AB
:102BC000EAE700BFEC0C002098000020A8000020DD
:102BD000EA0C0020EB0C002000000020E40C002098
:102BE000EE0C002096000020E50C0020950000204F
:102BF000ED0C002006000020940000209C00002026
:102C0000164B1B78012B0DD1154A16491288B2F5C7
:102C1000CC6F4FF0000201D90A7070470B70124B55
:102C20001A707047022BFCD1104B1A880C4B1B8872
:102C30009A420F4A04D800230E490B701360704764
:102C40000D4B11681B680029F8D05B1A3C2BE8D9A2
:102C50000122084B1A700022034BE1E7C300002059
:102C600004000020EC0C002000000020C000002028
:102C70009C000020ED0C0020A800002038B52C4B53
:102C80001A782C4B012A3ED1197851B91A702A4B67
:102C90001A682A4B1A6040F20112294B1B685A63CA
:102CA00038BD01290BD12549234A08681268121A38
:102CB000092AF5D902221A7000230B60F0E70229D5
:102CC000EED12048037863B91F4B1C68002CE7D174
:102CD000194C027024681C601C48BDE8384001F0A3
:102CE00049BF012BDCD1184C134A25681268521BCE
:102CF000152A03D9002201702260EDE7D0D11A46CF
:102D00004FF48061E8E700241C700E4B22461C70D3
:102D10000F4B02211C600C4B0C481C60074B1C60C5
:102D2000074B1B685C6301F025FF2246E8E700BF04
:102D300000000020C2000020A8000020B8000020F1
:102D400014450020C3000020BC000020000C0140FE
:102D50009C00002008B5FFF755FEFFF7CBFEFFF7FC
:102D6000EBFCFFF783FEFFF74BFFFFF787FFFFF753
:102D7000C1FD064B1A88064B1988064B1868FFF7E9
:102D80007BFD054A13680133136008BD0400002071
:102D900002000020DC000020A8000020F8B5554803
:102DA00001F0D5FA0428544E544C62D0544A33688A
:102DB0001278022A5DD1CA22B3FBF2F102FB113371
:102DC000504D63B9504B22461B782946237001238E
:102DD0002B61512347482B604C4B01F0BFF83368FF
:102DE000002B5BD14A4B47491B7842482370494B23
:102DF0001B786370484B1B681A0AA370E2701A0CA8
:102E00001B0E6371454B22711B783C4AA371444BE6
:102E10001B78E37108232B614FF4DE632B603B4B7F
:102E200001F09CF8002363602B612B60C923376895
:102E3000B7FBF3F203FB1277DFB93A4B2F4A1B784B
:102E400030492370384B2B481B786370374B1B7805
:102E5000A370374B1B78E370364B1B782371052327
:102E60002B6140F2F1632B60284B01F077F82F6162
:102E70002F60314A1368392B03F101031360336863
:102E800088BF012003F1020333604FF0000388BFC5
:102E90001B49236088BF08706360F8BD274B194940
:102EA0001B6814481A0A237062701A0C1B0EE37018
:102EB000234BA2701B88114A23711B0A6371214B9B
:102EC0001B88A3711B0AE37108232B6140F2EF6397
:102ED0002B600E4B01F042F80023142263602B613B
:102EE0002B603368B3FBF2F102FB1133002B9DD151
:102EF00078E700BFB41B0020400D0020FC0C002030
:102F000007000020040D0020E60C0020F80C002033
:102F1000EB0C0020EA0C0020E00C0020EC0C002060
:102F2000ED0C0020EE0C0020E40C0020E50C00204D
:102F3000E90C0020EF0C0020F40C0020DC00002045
:102F4000020000200400002070B5274B06461B78C5
:102F5000264D012B264C12D12B462246002101F092
:102F60004FF840F2FF3322689A4206D12B78122B99
:102F700003D10021084600F0E5FA01F011FE1B4BD9
:102F80001B4A0021304601F03BF840F2FF32236833
:102F9000934215D12B78122B07D100230221154A19
:102FA0001370154A1170154A13600023C4E90233E7
:102FB00023616360A361236063612B606B6070BDFC
:102FC000502B03D12A780E4B1A70EEE740F20272B2
:102FD0009342EAD10B4A1360236913610A4A2B68B2
:102FE00013606B685360E0E7940D00201C0D002017
:102FF000240D0020F00C002007000020F40C00201D
:10300000060000206C0D0020640D00202DE9F74320
:10301000054600241A4E1B4F06F10108EC4600221B
:103020006146A30804F0030055F823300132C000C4
:10303000D2B2C3400134072A0CF8013BA4B202D03B
:10304000B4F5806FEDD120234046337005F0B2FA1D
:1030500008233B6140F20373DFF82C903B604B4642
:1030600032463946094800F079FF0028F7D00120A0
:1030700000F0B6FAB4F5806FD0D103B0BDE8F083AC
:103080005C0D0020440D0020880D0020B41B0020A2
:1030900008B50548FFF7BAFF0448FFF7B7FFBDE8DA
:1030A00008400348FFF7B2BFE0080020E00400201A
:1030B000E000002008B5144B144AD8781978D07075
:1030C00018791170597810715879403151705071D8
:1030D00099789879DB799071D3710D4B9170196063
:1030E0000C4B0D4918691B68086101330B600B48D4
:1030F0000B4B00F033FF012000F072FABDE80840EE
:103100000021084600F01EBA640D00205C0D00206E
:10311000004C00206C0D0020440D0020B41B00204A
:10312000880D002003230E4A13707F235370192348
:1031300093702223D3700B4B197911715979517106
:103140009979DB799171D371074B084918691B682C
:10315000086101330B600648064B00F0FFBE00BF5C
:103160005C0D0020640D00206C0D0020440D00203B
:10317000B41B0020880D002008B5134B134A1978A2
:10318000117059784031517099789170D978D17017
:1031900019791171597951719979DB799171D371DB
:1031A0000B4B0C4918691B68086101330B600A4816
:1031B0000A4B00F0D3FE012000F012FABDE80840EF
:1031C0000021084600F0BEB9640D00205C0D00200F
:1031D0006C0D0020440D0020B41B0020880D002041
:1031E00070B5154B154C1A78154D043222705A786B
:1031F000144E403262709A78DB78A270E370124B02
:103200001A7822715A7862719A78DB78A271E37128
:103210000E4B1A691B682A6101332B603346224624
:1032200029460B4800F09AFE0028F7D000232360BF
:1032300063602B612B6070BD640D00205C0D00206D
:10324000440D0020880D0020080000206C0D002097
:10325000B41B002070B50025144B154C1D70154B88
:10326000154E1D70154B31461A78154822705A7844
:10327000403262709A78A270DA78E2701A7922711C
:103280005A7962719A79DB79A271E3710D4B1A69EF
:103290001B6832610133336022460B4B00F05EFE47
:1032A000256065603561356070BD00BFE50C0020AC
:1032B0005C0D0020E40C0020440D0020640D002073
:1032C000B41B00206C0D0020880D002038B5224D65
:1032D0002B680BB9214A1360214CA378022B04D12F
:1032E000204B1B7873BBFFF7E5FE6278A378112AA9
:1032F00006D1012B04D11B4B1B7843BBFFF73CFFCE
:10330000A378F12B04D1E378802B01D1FFF768FF7C
:103310002379402B04D16378312B09D1FFF79AFF31
:103320002379412B04D16378312B01D1FFF7B0FE13
:1033300000230D4A23606360136053602B680133E0
:103340002B6038BD012BD0D1FFF7ECFECDE7012B70
:10335000DED1FFF7E7FED3E78C0D0020004C002004
:10336000640D0020060000205C0D0020BFF34F8F8D
:103370000549064BCA6802F4E0621343CB60BFF311
:103380004F8F00BFFDE700BF00ED00E00400FA052D
:103390001FB572B603224FF4C243002469462E487B
:1033A000CDE90032CDE9024401F06AFA40F22A4345
:1033B00069462A48009301F063FA4FF400536946C6
:1033C0002748009301F05CFA62B6264800F0F2FB51
:1033D000244800F05FFB72B6234B21469A692348CC
:1033E00022F008029A619A6922F010029A615A69E1
:1033F00022F001025A619A6922F400729A619A6974
:1034000022F001029A619A6922F400629A6102F044
:1034100019FB164801F0F6FF04F046FF60B20134D4
:1034200000F0FAFF522CF9D14FF0E0220124136989
:103430000F4823F00503136101F0BAFF0D4B0E484E
:103440001C7000F079FD62B600F0DCF821462046E1
:1034500001F096FBFFF78AFF00080140000C0140D5
:1034600000100140681B002000100240144500209D
:1034700060440020940D0020B41B002008B50121F9
:103480001F4801F071FB1F4B1F4A18701F4B1B7820
:10349000012B05D0012803D01D4B1B78022B17D11F
:1034A00001211C4B19703A231B4913600B601368F0
:1034B0001A4A1278042A16D02BB90222154B1A7018
:1034C0003A22154B1A60164A13680133136008BD7F
:1034D0001368002BEBD0013B1360002BE7D10221D6
:1034E0000C4B1970E3E7002BEDD10B4A1368002B4E
:1034F000E9D0013B1360002BE5D1FFF749FF00BF86
:1035000000080140950D002010000020060000205A
:1035100007000020140000200C000020E70C002011
:10352000900D0020012108B5054801F01DFB012880
:1035300001D1FFF71BFFBDE8084001F031BB00BF20
:103540000008014008B5FFF711FF000004F010FF6C
:103550000B480C490C4A002302E0D458C4500433F1
:10356000C4188C42F9D3094A094C002301E01360C6
:103570000432A242FBD304F0F9FF04F051FD70477E
:103580000000002074000020D88600087800002089
:1035900000470020FEE7000008B5074A0320136833
:1035A00043F01003136000F0D5FE0F2004F02EFE50
:1035B00004F004FE002008BD00200240034A044B32
:1035C00011681B780B441360704700BF980D0020F2
:1035D00015000020014B1868704700BF980D0020AF
:1035E00038B50446FFF7F6FF0546631C1EBF044BC3
:1035F0001B78E418FFF7EEFF431BA342FAD338BD54
:1036000015000020024A536823F0010353607047FD
:10361000002004E0436A9A6A12F0500F1AD19A6AA5
:1036200042F400729A621A68926802F46022B2F55B
:10363000602F0CD11A7B52B99A6A22F480729A6276
:103640009A6AD2045EBF9A6A42F001029A621846F0
:103650001A6B10471B6A1B6B1847406A436B18476D
:10366000406A836A43F040038362C36A43F0040301
:10367000C362C36B1847704770470000002373B5DF
:10368000019390F824300246012B71D0012380F879
:1036900024304C680068062C0D684FEA840325D856
:1036A00023441F24466B053B9C4026EA040405FA8C
:1036B00003F3234343630C681668092C04EB4400AE
:1036C0008B684FF0070429D9F5681E38844025EA35
:1036D000040483402343F3600B68103B012B25D97E
:1036E0000020002382F8243002B070BD0C2C23444B
:1036F0004FF01F0409D8066B233B9C4026EA0404C4
:1037000005FA03F323430363D5E7C66A413B9C40B4
:1037100026EA04049D402C43C462CCE7356984400A
:1037200025EA0404834023433361D5E71368114835
:10373000834217D198680002D2D4986840F4000000
:1037400098600B68102BCBD10B4B0C491B68B3FB5B
:10375000F1F30A214B430193019B002BC0D0019B45
:10376000013BF8E7936A012043F020039362B8E736
:103770000220B9E7002401402000002040420F0051
:10378000002337B50193036804469A68D20702D52F
:10379000002003B030BD9A6842F001029A60144BD9
:1037A000144A1B68B3FBF2F30193019BE3B9FFF7E3
:1037B00011FF054623689B68DB07E9D4FFF70AFF82
:1037C000401B0228F6D923689B6813F00103F1D14E
:1037D000A26A012042F01002A262E26A84F8243058
:1037E00042F00102E262D4E7019B013BDCE700BF4B
:1037F0002000002040420F002DE9F041414B90464F
:10380000026804469A420F4602D03F498A4203D1D9
:103810005B6813F4702F70D194F82430012B6ED0B4
:103820000123204684F82430FFF7AAFF064600282B
:103830005FD1A56A2168344B25F4706525F0010538
:1038400045F480759942A56204D12E4A536813F459
:10385000702F40D1A36A23F48013A3624B685A05EA
:1038600005D5A36A23F4405343F48053A362A36AAB
:10387000264A13F480531CBFE36A23F00603E36275
:10388000002384F82430236A9A62236A204ADA6289
:10389000236A204A1A636FF0020223681A602268C2
:1038A000936843F480739360216843463A46206AE4
:1038B0004C3100F021FE23689A6802F46022B2F5D0
:1038C000602F9A680CBF42F4A00242F480129A6002
:1038D0003046BDE8F081A36A43F48013A3625368C5
:1038E0005B0541BFA06A20F4405040F48050A062C4
:1038F000BDE7002384F82430EAE70126E8E7022642
:10390000E6E700BF0024014000280140153600080A
:103910005B3600086136000838B5036804469A68CB
:10392000D10701D4002038BD9A6822F001029A60C4
:10393000FFF750FE054623689B68DB07F2D5FFF7CB
:1039400049FE401B0228F6D923689B68DA07F2D5A6
:10395000A36A012043F01003A362E36A43F001036A
:10396000E362E0E770B5044600287CD0836A9BB927
:10397000C36280F824303F4B03633F4B43633F4BAC
:1039800083633F4BC3633F4B0364436C0BB93E4BB4
:1039900043642046636C98472046FFF7BDFFA36A47
:1039A00013F0100361D100285FD1A26A616822F48C
:1039B000885222F0020242F00202A262E269257BF2
:1039C0001143A26841EA4501B2F5807F03D0561E3B
:1039D000724272411202267D012E07D1002D2FD195
:1039E000A569013D42EA453545F4006226687568DF
:1039F00025F469452A4372602568244AAE6832403E
:103A00000A43AA60A268B2F5807F01D0012A02D1E0
:103A10002369013B1B052568EA6A22F470021343FF
:103A2000EB6223689A681A4B1340994211D1002324
:103A3000E362A36A23F0030343F00103A36270BDB2
:103A4000A56A45F02005A562E56A45F00105E56235
:103A5000CCE7A36A23F0120343F01003A362E36AE6
:103A600043F00103E3620120E9E7A36A43F0100396
:103A7000A362F8E76D7D0008773600087936000804
:103A8000757F0008F13C0008BD780008FDF7E1FFF4
:103A9000FE0E1FFF38B50446002865D0836A43F048
:103AA00002038362FFF738FF0546002857D16FF005
:103AB0001F0223681A6022682C4B51680B40536028
:103AC00022682B4B91680B4093602268D36803F007
:103AD0007F43D3602268136903F040431361216878
:103AE000244B4A691A404A6121688A691A408A61EE
:103AF0002168CA691A40CA6121680A6A1A400A62C2
:103B000021684A6A1A404A6221688A6A13408B62B5
:103B100022681949D36A03F07F43D3622268D36ACB
:103B200003F07F43D3622268136B03F040431363B7
:103B30002268536B03F0404353632268936B0B403E
:103B400093632268936B0B409363A36C0BB90B4B8D
:103B5000A364A36C204698470023E362A36200237A
:103B600084F82430284638BD0125FBE700003FFFDC
:103B7000F00601FF00F0FFFF0000C0FF51790008D0
:103B800010B590F824300446012B11D0012380F8A1
:103B90002430FFF7C1FE38B9A36A23F4885323F019
:103BA000010343F00103A362002384F8243010BD15
:103BB0000220FCE738B590F824300446012B25D0CC
:103BC000012380F82430FFF7A7FE0546A0B922683C
:103BD000936823F480739360206A90F82130022B5D
:103BE0000AD100F0CEFCA36A58B923F4885323F01D
:103BF000010343F00103A362002384F82430284624
:103C000038BD43F040030546A362F5E70225F6E719
:103C1000002373B5019390F824300446012B62D041
:103C2000012380F82430FFF777FE2046FFF7A8FD38
:103C3000054600282FD1A36A022023F4885323F0DD
:103C4000020343F00203A362284B1E6801F0D4FA7A
:103C5000B6FBF0F676000196019B03BB22689368E1
:103C600043F008039360FFF7B5FC064623689A68A3
:103C7000110718D49A6842F004029A60FFF7AAFC70
:103C8000064623689B685B0723D4A36A23F00303DB
:103C900043F00103A362002384F8243016E0019B63
:103CA000013B0193D8E7FFF795FC801B0A28DDD97B
:103CB00023689B681807D9D5A36A012523F012034E
:103CC00043F01003A362002384F82430284602B096
:103CD00070BDFFF77FFC801B0A28D2D923689B6840
:103CE0005A07CED5E8E70225F0E700BF2000002004
:103CF000704738B50446002874D090F820300BB9CE
:103D000003F09CFE2268136843F001031360FFF781
:103D100061FC054623685A68D10757D51A6822F016
:103D200002021A60FFF756FC054623685A6892079C
:103D30005AD4227E0020012A1A680CBF42F0800269
:103D400022F080021A602368627E012A1A680CBF82
:103D500042F0400222F040021A602368A27E012A4B
:103D60001A680CBF42F0200222F020021A60236879
:103D7000E27E012A1A680CBF22F0100242F0100203
:103D80001A602368227F012A1A680CBF42F00802D9
:103D900022F008021A602368627F012A1A680CBFA9
:103DA00042F0040222F004021A60D4E90232134302
:103DB000226921681343626913436268013A13431D
:103DC000CB610123606284F820300CE0FFF702FC35
:103DD000401B0A289ED9636A43F4003363620523BB
:103DE00084F82030012038BDFFF7F4FB401B0A287F
:103DF0009BD9F0E770B590F820200368013A012ABA
:103E000069D80120D3F8002242F00102C3F8002251
:103E10004A69D3F81C4202F01F0200FA02F224EAB7
:103E20000204C3F81C42CC69D043ACB9D3F80C42AD
:103E30000440C3F80C42CE684C698D88483445EA8A
:103E4000064543F834504C698E680D88483445EA7D
:103E5000064503EBC4046560CC69012C15D1D3F889
:103E60000C421443C3F80C420E684C698D884834E8
:103E700045EA064543F834504C698E688D894834CC
:103E800045EA064503EBC40465608C69DCB9D3F8E8
:103E900004420440C3F804420C69C4B9D3F8144284
:103EA0002040C3F814020020096A012902BFD3F898
:103EB0001C120A43C3F81C22D3F8002222F001028C
:103EC000C3F8002270BDD3F804421443E2E7D3F8EC
:103ED00014021043E5E7436A43F480234362012060
:103EE000F0E738B590F820300446012B1FD10223AB
:103EF000026880F82030136823F001031360FFF795
:103F000069FB05462368586810F0010001D1606222
:103F100038BDFFF75FFB401B0A28F3D9636A43F4FF
:103F200000336362052384F820300120F0E7436A00
:103F300043F400234362F8E790F82030013B012B63
:103F400006D802680020136843F00203136070472C
:103F5000436A43F48023436201207047F0B590F830
:103F600020500468013D012DA46845D814F0E05F9D
:103F70003CD00125C4F30164A5401D608B68066830
:103F8000CD6804F1180753BB0B6845EA43553B0164
:103F9000F55003680D6903EB07135D600B7D012B82
:103FA0004FEA041307D101681944D1F8844144F45D
:103FB0008074C1F88441016854681944C1F88C4187
:103FC000116802681A44C2F888110268002013447C
:103FD000D3F8802142F00102C3F88021F0BD2B43C9
:103FE0004D6843EAC5033D017351D2E7436A43F488
:103FF000001343620120F1E7436A43F48023F8E7AA
:10400000F0B590F82040013C012C79D8046841B902
:10401000E568AD0707D1436A43F40013436201200A
:10402000F0BD2569F5E701F11B052E01A45904F047
:10403000040494600768002C59D1BC59640D1460C5
:1040400006682C01345904F00204D46006680C019F
:1040500006EB0116D6F8B4713F074EBF0826D6F816
:10406000B46106F00F061661066806EB0516766861
:10407000C6F307269661066806EB051675682D0CD3
:10408000556102682244D2F8B8211A7002682244AD
:10409000D2F8B821120A5A7002682244D2F8B82124
:1040A000120C9A7002682244D2F8B821120EDA700B
:1040B00002682244D2F8BC211A7102682244D2F864
:1040C000BC21120A5A7102682244D2F8BC21120C97
:1040D0009A7102682244D2F8BC21120EDA71036888
:1040E00049B9DA6842F02002DA60002098E7BC594A
:1040F000E4085460A4E71A6942F020021A61F4E768
:10410000436A43F4802389E790F82030013B012B78
:1041100005D8026800205369194351617047436A0A
:1041200043F4802343620120704770477047704713
:1041300070477047704770477047704770477047C7
:1041400070472DE9F84F036805465E69D3F804907F
:1041500016F00104D3F80880D3F80CB0D3F810A0FF
:104160009F6927D018F0010F07D0012218F0020F25
:104170009A6000F0A780FFF7D8FF002418F4807F32
:104180000AD04FF480722B6818F4007F9A6000F018
:10419000A8802846FFF7CAFF18F4803F0AD04FF4E2
:1041A00080322B6818F4003F9A6000F0AA802846FD
:1041B000FFF7BDFF320707D51BF0100F1FBF1022FE
:1041C0002B6844F40074DA60730708D51BF0080FFD
:1041D00005D008222B682846DA60FFF7ACFFB0074D
:1041E00006D52B68DB68990702D02846FEF7ACFE9F
:1041F000720607D51AF0100F1FBF10222B6844F467
:1042000080641A61B30608D51AF0080F05D0082299
:104210002B6828461A61FFF790FFF00606D52B6839
:104220001B69990702D02846FFF786FFB20308D51D
:1042300019F0100F05D010222B6828465A60FFF79E
:104240007DFFF30308D519F0080F05D008222B686D
:1042500028465A60FFF773FF30042AD519F0040F7F
:1042600024D0F10503D5FA0748BF44F00104B30593
:1042700003D5B80748BF44F00204710503D57A0797
:1042800048BF44F00404330510D517F070030DD077
:10429000402B56D045D8202B4DD0302B4ED0102B54
:1042A00046D02A68936923F07003936104222B6837
:1042B0005A602CB16B6A284623436B62FFF740FFBC
:1042C000BDE8F88F18F0040F05D118F0080F05D1DC
:1042D000FFF72EFF51E74FF400644FE74FF480548F
:1042E0004CE718F4806F02D044F4005454E718F4FB
:1042F000006F02D044F480444EE72846FFF719FFD0
:104300004AE718F4802F02D044F4004452E718F42E
:10431000002F02D044F480344CE72846FFF70AFF10
:1043200048E7502B10D0602BBBD144F48074B8E721
:1043300044F00804B5E744F01004B2E744F0200468
:10434000AFE744F04004ACE744F08004A9E7406ADA
:104350007047000007490302CA6803F4E06322F4CF
:10436000E0621204120C134343F0BF6343F40033C2
:10437000CB60704700ED00E030B5154BDC68C4F34E
:104380000224C4F10703251D042B28BF0423062D96
:104390004FF0FF3594BF0024033C05FA03F321EAF4
:1043A0000303A54022EA0502A340002843EA0203D2
:1043B000ACBF00F16040074A4FEA0313DBB2ABBF6A
:1043C00000F5614000F00F0080F80033135430BD59
:1043D00000ED00E014ED00E0002807DB01234109B7
:1043E000034A00F01F00834042F82130704700BFAD
:1043F00000E100E000280CDB01220649430900F03F
:104400001F008240203341F82320BFF34F8FBFF3BA
:104410006F8F704700E100E0002808DB01224309AC
:10442000034900F01F008240603341F823207047A9
:1044300000E100E0034610B540B314210068144ABF
:104440000244B2FBF1F292001A64124ADA630222C9
:1044500083F82120D3E901242243DC680168224348
:104460001C6921F47F5122435C6921F03001224311
:104470009C692243DC6922430A4302600020012236
:10448000986383F8200083F8212010BD0120FCE709
:10449000F8FFFDBF00000240034610B528B30168D5
:1044A000134C0A6822F001020A60026800201060C2
:1044B0001A6850601A6890601A68D06019680D4ACE
:1044C000DC630A441421B2FBF1F2012192001A6468
:1044D00001FA02F26260C3E90A00C3E90C009863C2
:1044E00083F8200083F8210010BD0120FCE700BF05
:1044F00000000240F8FFFDBF70B590F82040012C8D
:104500003DD0012490F8215080F82040012DECB2DC
:104510004FF0000531D1022680F8216006688563DE
:10452000356825F001053560D0E90F56B4406C6060
:10453000046863604368102B03680BBF9A6099603E
:10454000036803680CBFD960DA60C26A036852B1BD
:104550001A6842F00E021A6002680020136843F0E5
:104560000103136070BD1A6822F004021A60026829
:10457000136843F00A031360EEE780F8205002202E
:10458000F0E790F821200346022A06D00422826335
:104590000120002283F82020704701680A6822F079
:1045A0000E020A6001680A6822F001020A60012115
:1045B0001A6CC06B01FA02F24260002083F82110ED
:1045C000E7E7000030B40424C36B056C1968AC4005
:1045D00003680C421A6833D0540731D51A6895061F
:1045E0005EBF1A6822F004021A6003683F4A9342D1
:1045F00019D01432934218D01432934217D0143287
:10460000934217D01432934217D01432934214BFFE
:104610004FF080634FF48003354A5360C36A002B28
:1046200061D030BC18470423F6E74023F4E74FF489
:104630008063F1E74FF48043EEE74FF48023EBE72C
:104640000224AC400C4236D0940734D51A68910647
:1046500006D41A6822F00A021A60012380F8213079
:104660000368224A934219D01432934218D014326C
:10467000934217D01432934217D01432934217D07A
:104680001432934214BF4FF000734FF40013184AD2
:104690005360002380F82030836AC0E70223F6E7E6
:1046A0002023F4E74FF40073F1E74FF40053EEE7F3
:1046B0004FF40033EBE70824AC400C4213D0120750
:1046C00011D51A6822F00E021A600123026CC16B28
:1046D00003FA02F24A60836380F82130002380F8F5
:1046E0002030036B9BE730BC704700BF08000240DE
:1046F00000000240114AD36813F0100305D010499E
:10470000CB6943F00203CB611023D268500706D572
:104710000B4943F00403CA6942F00102CA61074A27
:10472000D169C90708D50648C16941F00401C161D2
:10473000D16921F00101D161D360704700200240AE
:10474000A00D00207047704770B5424B424CDA68AC
:1047500012F0100F02D1DB685A070AD54FF0FF3371
:10476000A568A360FFF7C6FF2846FFF7ECFF00230C
:104770002370384DEB689B0618D52023EB60237817
:10478000A3B12378012B27D16368013B6360636881
:10479000DBB1A068FFF7D6FFA06800F58060A060DD
:1047A0002B6923F002032B6100F058F8237803F003
:1047B000FF014BB9274B1A6922F007021A611A69E7
:1047C00022F4A0521A61217670BD4FF0FF30A06034
:1047D0002370FFF7B7FFE9E72378022B09D12B6994
:1047E000002023F004032B61FFF7ACFF00232370AC
:1047F000DCE76368013B63606368D3B1A36802339D
:10480000A360A668D4E90401020C42EA01420B0C41
:10481000C4E904232B6923F001032B61D4E90423A9
:104820000023E3612B6992B243F001032B613280D4
:10483000BCE72378032B06D1A068FFF783FF4FF076
:10484000FF33A360D2E72378A068042B0CBF0238A3
:104850000638F2E700200240A00D00200022064B9F
:10486000DA61064B1A6942F002021A6158611A694C
:1048700042F040021A617047A00D00200020024063
:104880002DE9F74F00221546794E7A4BDFF8E8C143
:104890007A4FD1F800E03EFA05F402D103B0BDE84A
:1048A000F08F4FF0010808FA05F80EEA080438EA1C
:1048B0000E0E40F0A180D1F804E0BEF1030F09D83C
:1048C0000EF1FF3EBEF1020F00F2A680DFE80EF00F
:1048D000B8BDC300BEF1120F00F0BA8000F28E80A6
:1048E000BEF1110F00F0AE80FF2C98BF82464FF052
:1048F0000F094FEA850E84BF00F1040AAEF1200EC5
:10490000DAF8008009FA0EFB28EA0B0802FA0EFE1C
:1049100048EA0E08CAF80080D1F804E01EF0805F73
:104920006AD0D6F818E025F003084EF0010EC6F85C
:1049300018E0D6F818E008F180480EF0010ECDF826
:1049400004E008F5803805F0030ADDF804E04FEADA
:104950008A0AD8F808E009FA0AF92EEA0909DFF804
:1049600020E170457BD00EF5806E70457AD00EF553
:10497000806E704579D00EF5806E704514BF4FF093
:10498000040E4FF0030E0EFA0AFE4EEA090EC8F8A6
:1049900008E0D1F804E01EF4801FD3F808E014BF4B
:1049A0004EEA040E2EEA040EC3F808E0D1F804E043
:1049B0001EF4001FD3F80CE014BF4EEA040E2EEADA
:1049C000040EC3F80CE0D1F804E01EF4003FD3F865
:1049D00004E014BF4EEA040E2EEA040EC3F804E00D
:1049E000D1F804E01EF4803FD3F800E014BF4EEA93
:1049F00004042EEA04041C6001354AE7DFF88490C1
:104A0000CE4509D014D8A9F58019CE4504D0E64585
:104A100002D0BE457FF468AF8A68F2B1012A08BFB0
:104A2000C0F810804FF0080218BFC0F814805BE790
:104A3000DFF85490CE45EFD009F58039CE45E9E74F
:104A4000CA6851E7CA6804324EE7CA6808324BE7C1
:104A5000CA680C3248E7002246E7042244E74FF0D8
:104A6000000E90E74FF0010E8DE74FF0020E8AE73F
:104A7000001002400004014000002110000011104D
:104A80000008014000002210000031102DE9F74F0E
:104A90004FF0040B00224FF0010A4FF00F0800EB1B
:104AA0000B0301932E4B31FA02F402D103B0BDE89F
:104AB000F08F0AFA02F70F4049D022F0030404F104
:104AC000804404F5803402F0030CA5684FEA8C0C96
:104AD00008FA0CF909EA050E224DA84239D005F56D
:104AE0008065A84237D005F58065A84235D005F528
:104AF0008065A8420CBF0325042505FA0CF5754511
:104B00006FEA07060FD11D6835401D605D683540AE
:104B10005D60DD683540DD609D6835409D60A5685D
:104B200025EA0905A560FF2F94BF0746019F4FEABC
:104B300082043D6888BF203C08FA04FC25EA0C0585
:104B40000BFA04F425433D60C4683440C46001326C
:104B5000A9E70025D1E70125CFE70225CDE700BF72
:104B600000040140000801408368194214BF01207D
:104B7000002070470AB1016170470904FBE700009B
:104B8000064A0129136923F00403136101D130BFE0
:104B9000704740BF20BF20BF704700BF00ED00E05E
:104BA000024A136943F002031361704700ED00E00D
:104BB0007047000010B5054C6369DB0304D5FFF7AF
:104BC000F7FF4FF48033636110BD00BF0004014064
:104BD0002DE9F341044638B30368DB0710D423689A
:104BE0009F0759D42368190700F1908023685A075A
:104BF00000F1BC80E369002B40F0248100202BE011
:104C00008C4D6B6803F00C03042B07D06B6803F02A
:104C10000C03082B0AD16B68DE0307D52B689D03B4
:104C2000DDD56368002BDAD1012015E06368B3F5A8
:104C3000803F14D12B6843F480332B606368FBB151
:104C4000FEF7C8FC06462B689803C8D4FEF7C2FCE2
:104C5000801B6428F7D9032002B0BDE8F0813BB97E
:104C60002B6823F480332B602B6823F48023E4E744
:104C7000B3F5A02F2B68F4D143F480232B60D9E740
:104C8000FEF7A8FC06462B689903A8D5FEF7A2FC00
:104C9000801B6428F7D9DEE7664D6B6813F00C0FB4
:104CA00007D06B6803F00C03082B10D16B68DA0394
:104CB0000DD42B689B0702D52369012BB4D12B6837
:104CC000626923F0F80343EAC2032B608AE7226992
:104CD000594B6AB101221A60FEF77CFC06462B682C
:104CE0009F07ECD4FEF776FC801B0228F7D9B2E7C9
:104CF0001A60FEF76FFC06462B6898077FF572AFC7
:104D0000FEF768FC801B0228F6D9A4E7A269494E89
:104D1000494BE2B10122C3F88024FEF75BFC054653
:104D2000736A9B070DD54FF4FA52444B1B68B3FBD3
:104D3000F2F3019300BF019B5A1E0192002BF9D19F
:104D400054E7FEF747FC401B0228E9D983E7C3F884
:104D50008024FEF73FFC0546736A9F077FF546AF48
:104D6000FEF738FC401B0228F6D974E7314DEB6999
:104D7000D80027D40127EB6943F08053EB61EB693E
:104D800003F080530093009B2D4E3368D9051BD54B
:104D9000E368012B29D12B6A43F001032B62E368FE
:104DA000002B38D0FEF716FC41F2883806462B6AF5
:104DB0009B072AD5002F3FF41DAFEB6923F08053EA
:104DC000EB6117E70027DFE7336843F48073336054
:104DD000FEF700FC80463368DA05D9D4FEF7FAFB0B
:104DE000A0EB08006428F6D935E73BB92B6A23F01D
:104DF00001032B622B6A23F00403CFE7052B2B6AF8
:104E0000F5D143F004032B62C5E7FEF7E3FB801BFB
:104E10004045CCD91FE7FEF7DDFB41F28838064656
:104E20002B6A9807C6D5FEF7D5FB801B4045F7D9FE
:104E300011E700BF001002400000424220000020A5
:104E4000007000402B4D6A6802F00C02082A3FD027
:104E50000022022B284B1A662DD1FEF7BBFB06461B
:104E60002B68990121D4236AB3F5803F05D16B6883
:104E7000A26823F4003313436B606A68D4E90831F5
:104E800022F474120B43134301226B601A4B1A660F
:104E9000FEF7A0FB04462B689A013FF5AFAEFEF784
:104EA00099FB001B0228F6D9D5E6FEF793FB801B81
:104EB0000228D5D9CFE6FEF78DFB04462B689B016F
:104EC0007FF59CAEFEF786FB001B0228F6D9C2E6F2
:104ED000012B3FF4A9AE6868236A00F480329A423D
:104EE0007FF4A2AE636A00F47010C01A18BF0120EC
:104EF000B2E600BF00100240000042420D4A536873
:104F000003F00C01082912D10B48C3F38341DB03E2
:104F1000405C09D55368094AC3F340435043084AEB
:104F2000D35CB0FBF3F07047064B5843704703481F
:104F3000704700BF00100240EA85000800127A00A6
:104F4000E885000800093D002DE9F0410D460446C2
:104F500010B90120BDE8F081464A136803F0070349
:104F60008B422AD32368980732D42368DA0745D4C2
:104F7000404A136803F00703AB4267D823683E4DED
:104F800013F0040F6ED123681B0706D56B682269E6
:104F900023F4605343EAC2036B60FFF7AFFF6B6813
:104FA000364AC3F30313D35CD840354B1860354BF6
:104FB000186803F02BF90020CCE7136823F00703EF
:104FC0000B431360136803F007038B42C1D1C9E799
:104FD00013F0040F284B1EBF5A6842F4E0625A6077
:104FE0002268110742BF5A6842F460525A605A68F8
:104FF000A16822F0F0020A435A60B6E762681E4ECA
:10500000012A33681AD113F4003FA2D0736841F229
:10501000883823F0030313437360FEF7DBFA074677
:105020007368626803F00C03B3EB820FA0D0FEF745
:10503000D1FAC01B4045F3D903208BE7022A02D1E5
:1050400013F0007FE1E713F0020FDEE7136823F0AF
:1050500007032B431360136803F00703AB427FF48D
:1050600078AF8BE76B68E26823F4E06313436B600F
:1050700089E700BF0020024000100240C0860008FF
:105080002000002018000020044B054A5B68C3F391
:105090000223D35C034A1068D840704700100240D6
:1050A000B886000820000020044B054A5B68C3F363
:1050B000C223D35C034A1068D840704700100240F6
:1050C000B8860008200000200F2303600B4B5A68AD
:1050D00002F0030242605A6802F0F00282605A68ED
:1050E00002F4E062C2605B68DB0803F4E063036122
:1050F000034B1B6803F007030B607047001002406E
:10510000002002402DE9F34103680546D80721D568
:10511000364CE369D9002CD40126E36943F080536F
:10512000E361E36903F080530193019B304F3B68D7
:10513000DA0520D5236A6A6813F440732FD1236AF5
:105140006A6823F44073134323621EB1E36923F0BA
:105150008053E3612B689A0706D5244AA9685368EF
:1051600023F440430B4353602B68DB0636D4002006
:1051700012E00026DAE73B6843F480733B60FEF7F9
:1051800029FA80463B68DB05D4D4FEF723FAA0EB6E
:1051900008006428F6D9032002B0BDE8F08102F4CB
:1051A00040729A42CBD00120124A236AC2F84004CE
:1051B000002023F44071C2F84004D8072162BED514
:1051C000FEF708FA41F288380746236A9907B6D4F1
:1051D000FEF700FAC01B4045F7D9DCE7034AE9684F
:1051E000536823F480030B435360C0E70010024070
:1051F0000070004000004242022808B544D0102848
:1052000003D0012822D0002034E0254B5A681868CA
:1052100010F080702ED0C2F383412248D20348BFE1
:105220005A68405C41BF2049C2F34042895C1F4A32
:105230005B684CBFB2FBF1F21D4A5B0202FB00F05F
:1052400018D403234000B0FBF3F013E040F2023126
:10525000134A136A1940B1F5817F1ED003F44073DD
:10526000B3F5007F07D149F64043506A10F00200C1
:1052700018BF184608BDB3F5407FC4D110684FF27F
:10528000244310F40030F3E7FFF70EFF044B5B6894
:10529000C3F3813301335B00D5E74FF40040E9E706
:1052A00000100240FC850008FA85000800127A0010
:1052B00000093D00036A026A70B522F00102026231
:1052C000446882690D6822F073022A438D6823F0D6
:1052D00002032B430A4DA8420BD1CD6823F00803EB
:1052E0002B4324F44074D1E90556354323F00403DD
:1052F0002C43446082614A684263036270BD00BF10
:10530000002C0140036A026A70B522F480720262C6
:105310004468C2690D6822F073022A438D6823F441
:10532000007343EA05230B4DA8420DD1CD6823F449
:10533000006343EA052324F44054D1E9055635437C
:1053400023F4806344EA05144460C2614A68C2637E
:10535000036270BD002C0140036A026A30B522F47A
:10536000805202624468C2690D6822F4E64242EA51
:1053700005228D6823F4005343EA0533064DA84205
:1053800002BF4D6924F4804444EA85144460C2613C
:105390004A680264036230BD002C014070477047C8
:1053A00070477047704770477047704770470000FC
:1053B00090F83D30012B21D10223026880F83D3066
:1053C000D36843F00103D36003680D4A93420AD0C7
:1053D000B3F1804F07D0A2F59432934203D002F587
:1053E0008062934204D19A6802F00702062A03D031
:1053F0001A6842F001021A600020704701207047CD
:10540000002C0140022341F2111210B580F83D300A
:1054100003680446196A114208D140F24442196AED
:10542000114202BF1A6822F001021A60636E0BB9C2
:105430000E4B63662046636E9847002084F8460052
:1054400084F83C0084F83E0084F83F0084F8400073
:1054500084F8410084F8420084F8430084F8440052
:1054600084F8450084F83D0010BD00BF2185000888
:1054700010B5036804461A69910711D5DA689207D6
:105480000ED56FF002021A610123037703689B694E
:105490009B0700F08380D0F8903098470023237753
:1054A00023681A69500712D5DA6851070FD56FF0D3
:1054B00004021A610223237723689B6913F4407F57
:1054C00073D0D4F890302046984700232377236880
:1054D0001A69120711D5DA6810070ED56FF00802A5
:1054E0001A61042323772368DB69990764D0D4F811
:1054F0009030204698470023237723681A69D20604
:1055000012D5DA68D0060FD56FF010021A610823A1
:1055100023772368DB6913F4407F54D0D4F89030AC
:10552000204698470023237723681A69D10709D5B5
:10553000DA68D20706D56FF001021A612046D4F866
:105540008030984723681A69100609D5DA68110671
:1055500006D56FF080021A612046D4F8B030984723
:1055600023681A69520609D5DA68500606D56FF025
:1055700040021A612046D4F88830984723681A6997
:10558000910627D5DA68920624D56FF020021A61B9
:105590002046D4F8A830BDE810401847D0F898301D
:1055A00098472046D4F89C3077E7D4F898302046C6
:1055B0009847D4F89C3086E7D4F89830204698472E
:1055C000D4F89C3095E7D4F8983020469847D4F822
:1055D0009C30A5E710BD00001A4A036890420AD02B
:1055E000B0F1804F07D0A2F59432904203D002F57B
:1055F0008062904215D14A6823F070031343114A28
:1056000090420AD0B0F1804F07D0A2F59432904278
:1056100003D002F58062904203D1CA6823F440733C
:1056200013434A6923F08003134303608B68C3620A
:105630000B688362034B984204BF0B690363012329
:1056400043617047002C0140036A026A70B522F082
:1056500010020262446882690D6822F4E64242EA5E
:1056600005228D6823F0200343EA05130B4DA84261
:105670000DD1CD6823F0800343EA051324F4406480
:10568000D1E90556354323F0400344EA85044460DC
:1056900082614A688263036270BD00BF002C0140D2
:1056A00038B590F83C300446012B5BD00120082A25
:1056B00084F83C0043D006D8D2B1042A2CD0002371
:1056C00084F83C3038BD0C2AF9D12068FFF744FE3D
:1056D0002268D36943F40063D3612268D36923F459
:1056E0008063D36122680969D36943EA012337E003
:1056F0002068FFF7DFFD2268936943F00803936198
:105700002268936923F0040393612268096993690D
:105710000B4393610020D2E72068FFF795FF2268D2
:10572000936943F4006393612268936923F480636F
:10573000936122680969936943EA0123E9E72068D4
:10574000FFF7E0FD2268D36943F00803D3612268C4
:10575000D36923F00403D36122680969D3690B4339
:10576000D361D7E70220ADE710B584680A4324F47B
:105770007F4442EA03222243826010BD38B590F88C
:105780003C300446012B4FF0020000F09A800122C9
:1057900084F83D00206884F83C20836823F47F432C
:1057A00023F0770383600B68602B57D036D8402BEB
:1057B0006ED018D8202B0DD00AD833F0100109D0A4
:1057C000012384F83D30002384F83C30104638BD76
:1057D000302BF5D121688A6822F07002134343F020
:1057E00007038B602DE0502BEAD123684868CD6811
:1057F000196A1A6A21F00A0122F001021A629A69F2
:10580000014322F0F00242EA05129A61196222680D
:10581000936823F0700343F0570311E0B3F5805F02
:105820000FD0B3F5005F0ED0702BC9D1CB682068C4
:10583000D1E90121FFF798FF2268936843F07703CD
:1058400093600022BCE7CB682068D1E90121FFF713
:105850008BFF2268936843F48043F1E7236848682C
:105860001A6ACD68196A22F0A00221F010011962AB
:10587000996942EA001221F4704141EA05319961C7
:105880001A622268936823F0700343F06703D7E736
:1058900023684868CD68196A1A6A21F00A0122F063
:1058A00001021A629A69014322F0F00242EA0512EB
:1058B0009A6119622268936823F0700343F04703EA
:1058C000BEE7024682E710B50124036A01F01F011A
:1058D0008C4023EA04030362036A8A401A4302628B
:1058E00010BD000010B5044629B990F83E30012BD8
:1058F0001ED0012042E0042907D190F83F30012B4F
:10590000F7D1022380F83F3015E008290CBF90F84A
:10591000403090F84130013B18BF0123002BE8D103
:10592000022308290CBF84F8403084F8413002E09B
:10593000022380F83E3001222068FFF7C4FF23686D
:105940000F4A934202BF536C43F4004353642368ED
:10595000934209D0B3F1804F06D00A4A934203D054
:1059600002F58062934204D19A6802F00702062A87
:1059700003D01A6842F001021A60002010BD00BF77
:10598000002C014000040040FFF7ACBF082938B5E7
:1059900004460D4642D004D851B1042939D0012023
:1059A00038BD0C29FBD10268D36823F0100303E053
:1059B0000268D36823F00203D360294600222068DE
:1059C000FFF781FF23681E4A93420DD141F2111265
:1059D000196A114208D140F24442196A114202BFC9
:1059E0005A6C22F400425A6441F211122368196A77
:1059F000114208D140F24442196A114202BF1A68AA
:105A000022F001021A6001236DB984F83E300020B3
:105A1000C6E70268D36823F00403CDE70268D368C1
:105A200023F00803C8E7042D02D184F83F30EEE7E5
:105A3000082D0CBF84F8403084F84130E7E700BF00
:105A4000002C0140FFF7A2BF134BC0F88030134B6E
:105A5000C0F88430124BC0F88830124BC0F88C303C
:105A6000114BC0F89030114BC0F89430104BC0F877
:105A70009830104BC0F89C300F4BC0F8A0300F4B43
:105A8000C0F8A4300E4BC0F8A8300E4BC0F8AC30B4
:105A90000D4BC0F8B0307047A58100089D53000839
:105AA000A9530008AB530008A1530008A3530008F2
:105AB0009F530008A5530008A7530008AD530008E2
:105AC0005B5C00085D5C00085F5C000810B5044684
:105AD00068B390F83D3003F0FF0253B980F83C20E2
:105AE000FFF7B2FF836C0BB9124B83642046A36CA3
:105AF00098470223206884F83D30211DFFF76CFD94
:105B00000123002084F8463084F83E3084F83F308A
:105B100084F8403084F8413084F8423084F84330CF
:105B200084F8443084F8453084F83D3010BD0120BD
:105B3000FCE700BF0584000810B5044668B390F880
:105B40003D3003F0FF0253B980F83C20FFF77CFFA3
:105B5000036E0BB9124B03662046236E984702234F
:105B6000206884F83D30211DFFF736FD0123002019
:105B700084F8463084F83E3084F83F3084F8403072
:105B800084F8413084F8423084F8433084F844305B
:105B900084F8453084F83D3010BD0120FCE700BF9B
:105BA000DD83000830B590F83C200346012A4FF011
:105BB000020026D001221C6883F83C2083F83D00B7
:105BC00062680D6822F070022A43A06862601A6859
:105BD0000C4CA2420AD0B2F1804F07D0A4F5943405
:105BE000A24203D004F58064A24204D1496820F0A7
:105BF0008000014391600122002083F83D2083F85A
:105C00003C0030BD002C014090F83C300246012B96
:105C100021D0012380F83C30CB68886823F440739E
:105C20000343486823F480630343086823F4006354
:105C30000343086923F480530343486923F4005362
:105C400003430020C96923F480430B4311684B646C
:105C500082F83C00704702207047704770477047D9
:105C600010B501F073FB20B1D0E90030BDE8104061
:105C7000184710BDEFF3058313B16FF005007047AF
:105C8000EFF31083002BF8D1074B1868022806D1D8
:105C9000EFF31183002BF0D14FF0FF307047002855
:105CA000FAD101221A6070471813002010B5EFF3E3
:105CB000058313B16FF0050010BDEFF31084002CC5
:105CC000F8D1094B1A68022A06D1EFF31183002B91
:105CD000F0D14FF0FF30EFE7012AFAD102221A602B
:105CE00000F0D6FD2046E7E718130020F0B5144673
:105CF000002287B00B460592EFF3058252BBEFF30B
:105D000010823ABB264A1268022A02D1EFF31182AE
:105D100002BBF8B100228DF81320002C30D021688E
:105D200009B90DF11301A569002D08BF18256A1ED8
:105D3000372AAC462AD86268D20727D4666966B18A
:105D4000B208D4E9027E57B1BEF1AB0F02D9246983
:105D500004B1EEB9059807B0F0BD8022F1E7BEF1BD
:105D6000000FF7D12469002CF4D105ACCDE900C4B3
:105D700092B200F014FD01281CBF00230593E9E74F
:105D80004FF0180C80220DF11301EEE70020E2E73E
:105D9000CDE90147009500F0CBFC0590DAE700BFA4
:105DA00018130020F7B506460D4617461C46EFF3BC
:105DB000058313B1002003B0F0BDEFF31083002B77
:105DC000F8D1164B1B68022B03D1EFF31183002B84
:105DD000F0D1002EEED0082001F050FC0346002840
:105DE000E8D02A1E18BF0122C0E900677CB12068F4
:105DF000D4E9021441B12F2CDCD90191084900915A
:105E0000012101F01AF9D6E7002CD3D10446044948
:105E100020460091012101F0E9F8CCE71813002099
:105E2000615C000807B50A46EFF3058323B16FF004
:105E3000050003B05DF804FBEFF31083002BF6D1EF
:105E40000B4B1B68022B03D1EFF31183002BEED118
:105E500050B100230421009301F02CF9012814BF54
:105E60006FF002000020E4E76FF00300E1E700BFFD
:105E700018130020034B0360034B0B608023136057
:105E8000704700BF6C1200206C100020034B0360B1
:105E9000034B0B6080231360704700BFC00F0020CE
:105EA000C00D00204FF0FF3200F10803C0E90223CB
:105EB0004360036100230360704700230361704760
:105EC00043684B609A688A60516099600861036812
:105ED00001330360704730B50C68631C0AD1036955
:105EE0005A684A6091608B605960086103680133A9
:105EF000036030BD00F10802134652681568A542E0
:105F0000FAD9EDE70369D0E901128A60416851606E
:105F10005A68824204BF82685A60002202611A688D
:105F2000013A1A601868704710B5044601F07AFA11
:105F3000A46B01F097FAB4FA84F0400910BD70B573
:105F40001646026C0446856B42B906689EB94068E5
:105F500000F08CFF66600135A56370BD6EB9806886
:105F600002F028FBA368226C13446268A36093428A
:105F700024BF2368A3600020EDE7C06802F01AFB8D
:105F8000226CE36851429B1A2268E36093423EBF51
:105F900063685B18E360022EEDD10DB1013DEAE7C5
:105FA0002846D8E703461A6C084610B462B1DC688C
:105FB000596814448C4228BF1968DC6028BFD96036
:105FC000D96810BC02F0F6BA10BC704770B5044630
:105FD00001F028FA94F8455004F124066DB2002D22
:105FE00014DCFF2384F8453001F03CFA01F01AFA82
:105FF00094F8445004F110066DB2002D12DCFF231A
:1060000084F84430BDE8704001F02CBA636A002B7C
:10601000E7D0304600F08CFE08B100F011FF013DE2
:106020006DB2DCE72369002BE9D0304600F080FE3A
:1060300008B100F005FF013D6DB2DEE738B50D4651
:10604000044640B94FF0500383F31188BFF36F8FBC
:10605000BFF34F8FFEE701F0E5F9D4E90F314B4371
:106060002268D0185B1A6060A26000201A44FF23E7
:10607000A063E26084F8443084F84530A5B9236910
:1060800073B104F1100000F053FE48B14FF0E0236B
:106090004FF08052C3F8042DBFF34F8FBFF36F8FC3
:1060A00001F0E0F9012038BD04F11000FFF7FAFE1D
:1060B00004F12400FFF7F6FEF2E737B50D461C4663
:1060C00040B94FF0500383F31188BFF36F8FBFF3D4
:1060D0004F8FFEE743B94FF0500383F31188BFF3AE
:1060E0006F8FBFF34F8FFEE74AB191B94FF0500366
:1060F00083F31188BFF36F8FBFF34F8FFEE741B17A
:106100004FF0500383F31188BFF36F8FBFF34F8FAE
:10611000FEE750230193019B502B08D04FF0500312
:1061200083F31188BFF36F8FBFF34F8FFEE7012119
:10613000002D08BF2246C4E90F0584F8461020460A
:106140002260FFF77BFF20469DF8183084F84C3022
:1061500003B030BD2DE9FF410F461E4604460192B3
:1061600040B94FF0500383F31188BFF36F8FBFF333
:106170004F8FFEE751B9036C43B14FF0500383F3E7
:106180001188BFF36F8FBFF34F8FFEE7022E0BD145
:10619000E36B012B08D04FF0500383F31188BFF35A
:1061A0006F8FBFF34F8FFEE700F050FE054630B310
:1061B00000254FF0000801F035F9A26BE36B9A421D
:1061C00001D3022E27D1324639462046FFF7B7FECB
:1061D000636A1BB104F1240000F0AAFD48B14FF03E
:1061E000E0234FF08052C3F8042DBFF34F8FBFF36D
:1061F0006F8F01F037F9012004B0BDE8F081019BF9
:10620000002BD6D04FF0500383F31188BFF36F8F6C
:10621000BFF34F8FFEE7019B1BB901F023F900206C
:10622000EAE715B902A800F0C3FD01F01BF900F080
:106230007FFB01F0F7F894F84430FF2B08BF84F897
:10624000448094F84530FF2B08BF84F8458001F066
:1062500009F901A902A800F0B7FD38BB01F0E2F886
:10626000A26BE36B9A420ED101F0FCF8019904F1A4
:10627000100000F023FD2046FFF7A8FE00F004FC0C
:1062800048B1012597E701F0EDF82046FFF79EFEA3
:1062900000F0FAFBF5E74FF0E0234FF08052C3F82F
:1062A000042DBFF34F8FBFF36F8FEAE72046FFF750
:1062B0008DFE00F0E9FBB2E72DE9F8438946174669
:1062C0001E46044640B94FF0500383F31188BFF3D4
:1062D0006F8FBFF34F8FFEE751B9036C43B14FF09F
:1062E000500383F31188BFF36F8FBFF34F8FFEE727
:1062F000022E0BD1E36B012B08D04FF0500383F338
:106300001188BFF36F8FBFF34F8FFEE701F062F983
:10631000EFF311884FF0500383F31188BFF36F8FB1
:10632000BFF34F8FA26BE36B9A4201D3022E1DD1B4
:1063300094F845503246494620466DB2FFF7FFFDBE
:106340006B1C0ED1636A3BB104F1240000F0F0FC39
:1063500010B10FB101233B60012088F31188BDE823
:10636000F88301356DB284F84550F5E70020F4E775
:106370002DE9FF410E460446019240B94FF050030B
:1063800083F31188BFF36F8FBFF34F8FFEE751B9CF
:10639000036C43B14FF0500383F31188BFF36F8F49
:1063A000BFF34F8FFEE700F051FD054618B30025FF
:1063B0004FF0000801F036F8A76B47B3314620468E
:1063C000013FFFF7EFFDA763236973B104F11000EC
:1063D00000F0AEFC48B14FF0E0234FF08052C3F81C
:1063E000042DBFF34F8FBFF36F8F01F03BF80120F7
:1063F00004B0BDE8F081019B002BD9D04FF05003D1
:1064000083F31188BFF36F8FBFF34F8FFEE7019BBC
:106410001BB901F027F80020EAE715B902A800F03F
:10642000C7FC01F01FF800F083FA00F0FBFF94F8BE
:106430004430FF2B08BF84F8448094F84530FF2B8C
:1064400008BF84F8458001F00DF801A902A800F00A
:10645000BBFC00BB2046FFF767FDB0B1019904F11A
:10646000240000F02BFC2046FFF7B0FD00F00CFBF1
:1064700048B94FF0E0234FF08052C3F8042DBFF32A
:106480004F8FBFF36F8F012594E72046FFF79EFDE6
:1064900000F0FAFAF7E72046FFF798FD00F0F4FA6B
:1064A0002046FFF741FD0028EDD0B4E770B5044663
:1064B0000D46164600F0B6FF94F84430FF2B04BF9B
:1064C000002384F8443094F84530FF2B04BF0023A8
:1064D00084F8453000F0C6FFA36B2BB9324629463D
:1064E00004F1240000F004FC2046BDE87040FFF7F2
:1064F0006DBD00002DE9F041044600F093FF2E4BE6
:106500002E4E1A682E4F01321A603568002D48D180
:1065100034601B68012B1CD1B84640460135FFF79B
:10652000C1FC382D08F11408F7D1DFF89880264D0A
:106530004046FFF7B7FC2846FFF7B4FC2348FFF7B7
:10654000B1FC2348FFF7AEFC224BC3F80080224B7E
:106550001D601420214A136801331360204AA3648C
:106560001168E36A8B4200FB037004F1040188BFE9
:106570001360FFF7A5FC00F075FF1A4B1B6873B1A1
:106580003368DA6AE36A9A4209D24FF0E0234FF0A7
:106590008052C3F8042DBFF34F8FBFF36F8FBDE858
:1065A000F081104B1A68E36A002AD2D13268D26AAD
:1065B0009A4298BF3460CCE740130020FC170020BB
:1065C0009C1300208813002074130020581300200F
:1065D00044130020701300206C13002024130020AB
:1065E0003813002034130020F8B50646144B154D1F
:1065F0001C6828680F460430FFF784FC731C07D121
:1066000037B1296810480431BDE8F840FFF758BC9D
:106610002B68A4195C6007D30C4B18682968BDE887
:10662000F8400431FFF757BC094B1868296804315A
:10663000FFF751FC074B1A68A24288BF1C60F8BDE7
:106640003C130020FC170020441300206C13002092
:10665000701300202013002008B501F09FFAFCE71A
:10666000064A13681968064B19B94FF0FF321A60D1
:1066700070471268D268D2685268F8E77013002039
:10668000201300202DE9F0470D46DDE9099496001E
:1066900032460746A521206B984601F05FFF236B29
:1066A000043E1E4426F007066B1E666404F13302A6
:1066B0000F3513F8011F02F8011F09B1AB42F8D1E1
:1066C000089D4FF0000A372D28BF3725201DC4E94B
:1066D000145AE56284F843A0FFF7EFFBC5F13805D3
:1066E00004F11800FFF7E9FB4C225146C4F8A4A0BE
:1066F0002461A561646284F8A8A004F1580001F047
:106700002DFF0A4B394603F16802E365D033226658
:1067100030464246636600F05DFE2060B9F1000F2E
:1067200001D0C9F80040BDE8F08700BFC84500208F
:1067300070B586B0DDE90B5445B94FF0500383F3D3
:106740001188BFF36F8FBFF34F8FFEE744B94FF04F
:10675000500383F31188BFF36F8FBFF34F8FFEE7B2
:10676000AC260596059EAC2E08D04FF0500383F35F
:106770001188BFF36F8FBFF34F8FFEE725630225AC
:1067800084F8A95004AD01950A9D02940095FFF785
:1067900079FF2046FFF7AEFE049806B070BD2DE9E4
:1067A000F043074685B0900088461646994600F0AB
:1067B00065FF054620B94FF0FF3005B0BDE8F08316
:1067C000AC2000F05BFF044698B1002380F8A930AC
:1067D0000D9B056301930C9B32464146029000934A
:1067E00038464B46FFF74EFF2046FFF783FE012059
:1067F000E3E7284600F0D4FFDDE7000070B504466B
:1068000040B94FF0500383F31188BFF36F8FBFF38C
:106810004F8FFEE7194D2B6883422ED000F002FE09
:106820006269174B9A4224D1A36A164A934220D038
:10683000FBB9261D3046FFF765FB1420124AE36AB8
:1068400011688B4288BF1360104A314600FB032059
:10685000FFF736FB2B68E26ADB6A9A4209D34FF0F6
:10686000E0234FF08052C3F8042DBFF34F8FBFF3E6
:106870006F8FBDE8704000F0F5BD70BDFC170020C3
:106880004413002058130020381300209C130020CC
:1068900010B5002488B007AA06A905A8CDE90544CB
:1068A000FFF7E8FA059B079A0293069B1949CDE981
:1068B000004319482346FFF73BFF40B300F064FB59
:1068C000012819D14FF0500383F31188BFF36F8F64
:1068D000BFF34F8F114B124A1B68583313604FF0B0
:1068E000FF32104B1A60104B1860104B1C6008B040
:1068F000BDE8104000F016BE013008D14FF0500343
:1069000083F31188BFF36F8FBFF34F8FFEE708B09B
:1069100010BD00BF0C86000859660008FC17002057
:106920002400002020130020341300203C130020FA
:10693000024A136801331360704700BF1C13002024
:10694000014B1868704700BF3C1300202DE9F74F3A
:10695000424B1B68002B77D1414B1C6801341C60F3
:10696000BCB9404B1A68126842B14FF0500383F330
:106970001188BFF36F8FBFF34F8FFEE73A4A196854
:10698000106818601160394A136801331360FFF70B
:1069900067FE374D4FF0000B2B68364EA342364F43
:1069A00016D914213A68D26A4A43B258022A334AA5
:1069B00028BF4FF0010B12680AB901F001F9304A03
:1069C0001268002A0CBF5846012003B0BDE8F08FC2
:1069D000DFF89090DFF8ACA0D9F8002012681AB95F
:1069E0004FF0FF322A60DCE7D9F80020D268D2F8F5
:1069F0000C80D8F804108C4201D22960D1E708F14C
:106A0000040318460193FFF77DFAD8F8281019B14E
:106A100008F11800FFF776FA1423D8F82C00DAF8FA
:106A20000010884288BFCAF8000008F1040103FB87
:106A30000060FFF745FA3868D8F82C10C26A914216
:106A400028BF4FF0010BC7E70C4A4FF0000B13684B
:106A50000133136001F0B4F8B1E700BF1C1300204C
:106A60003C130020701300206C130020281300201A
:106A7000201300209C130020FC170020301300205E
:106A80002C130020381300202DE9F041304C2368EE
:106A900043B94FF0500383F31188BFF36F8FBFF3F7
:106AA0004F8FFEE700F0BEFC2368013B23602468A3
:106AB0002CB1002400F0D6FC2046BDE8F081254B27
:106AC0001B68002BF5D0244D244EDFF894801DE088
:106AD000EB68DC68271D04F11800FFF713FA38464D
:106AE000FFF710FA1420E36A326800FB0380934238
:106AF000394688BF3360FFF7E3F91A4BE26A1B6837
:106B0000DB6A9A4202D30122174B1A602B68002BD2
:106B1000DED10CB1FFF7A4FD144D2C6844B1012760
:106B2000114EFFF713FF00B13760013CF9D12C6023
:106B30000D4B1B68002BBCD04FF0E0234FF0805270
:106B4000C3F8042DBFF34F8FBFF36F8F0124B1E75C
:106B50001C1300204013002058130020381300207D
:106B60009C130020FC1700202C1300203013002061
:106B7000F8B51F4B1A681F4B12B101221A60F8BDFD
:106B80001D4C1A602268236812681B6B9A4204D855
:106B900020682168343101F01BF81427174E18497A
:106BA000326807FB02F3CD58C818A5B14568083311
:106BB0006D680B4445609D4204BF6B6843601423BD
:106BC00003FB02114B68DB682360326023680D4AC7
:106BD00058331360D3E742B94FF0500383F3118861
:106BE000BFF36F8FBFF34F8FFEE7013AD9E700BFC6
:106BF0001C1300202C130020FC1700203813002049
:106C00009C1300202400002070B50446264D00F09F
:106C100009FC04B92C68261D3046FFF773F9A36AF6
:106C20001BB104F11800FFF76DF931461F48FFF75B
:106C300047F994F8A8301E4E012B04BF002384F8B6
:106C4000A83000F00FFC33682BB100F0EBFBFFF72E
:106C500007FD00F007FC2B68A34217D13368B3B1DE
:106C6000144B1B6843B14FF0500383F31188BFF3FB
:106C70006F8FBFF34F8FFEE74FF0E0234FF080524E
:106C8000C3F8042DBFF34F8FBFF36F8F70BD074A5A
:106C90001168094A1268914201D12B60F6E7BDE8FC
:106CA0007040FFF765BF00BFFC17002044130020B1
:106CB000341300201C1300204013002010B50C4694
:106CC00040B94FF0500383F31188BFF36F8FBFF3C8
:106CD0004F8FFEE7054B19681831FFF7FCF8204687
:106CE000BDE810400121FFF77FBC00BFFC1700206A
:106CF00038B50D46144640B94FF0500383F3118860
:106D0000BFF36F8FBFF34F8FFEE7084B1968183141
:106D1000FFF7D6F8002C214608BF2846BDE83840CA
:106D200018BF4FF0FF30FFF75FBC00BFFC1700201B
:106D300038B5C368DC6844B94FF0500383F3118859
:106D4000BFF36F8FBFF34F8FFEE704F1180528469E
:106D5000FFF7D8F8104B1B68DBB9251D2846FFF755
:106D6000D1F80E4A14201168E36A8B42294688BF85
:106D700013600B4A00FB0320FFF7A2F8094BE26AFD
:106D80001B68DB6A9A4285BF0120074B0020186010
:106D900038BD29460548EFE71C13002038130020B2
:106DA0009C130020FC1700202C13002058130020F7
:106DB000034B1B680360034B1B684360704700BFB5
:106DC000281300203C13002070B50C46054640B93E
:106DD0004FF0500383F31188BFF36F8FBFF34F8FD2
:106DE000FEE741B94FF0500383F31188BFF36F8F73
:106DF000BFF34F8FFEE700F015FB0F4B19682368B8
:106E00005A1C10D00D482E6800686A68864201D06E
:106E10008A420FD9881A83420AD95B1A134428463A
:106E20002360FFF7C5FF002400F01CFB204670BD67
:106E3000002323600124F7E73C13002028130020DF
:106E40000122014B1A6070472C130020054B1B6870
:106E500033B1054B1868B0FA80F040094000704724
:106E600001207047341300201C13002038B508B9E6
:106E7000002038BD1B4B1C68844208D04FF05003E3
:106E800083F31188BFF36F8FBFF34F8FFEE7636DFE
:106E900043B94FF0500383F31188BFF36F8FBFF3F3
:106EA0004F8FFEE7E16A226D013B91426365DFD0BF
:106EB000002BDDD1251D2846FFF724F81420236D73
:106EC000C3F13802A261084AE36211688B4288BFAD
:106ED0001360064A294600FB0320FEF7F1FF01205C
:106EE000C7E700BFFC170020381300209C130020C8
:106EF000914208B5416000610AD8D21A83699A426A
:106F00000DD2084B011D1868FEF7E5FF002008BDF3
:106F10009A4201D2994202D2034B011DF3E70120AC
:106F2000F5E700BFD4180020D8180020F7B50F4CA3
:106F300000F078FA25689DB90D4F0E4E3846FEF7E1
:106F4000B1FF3046FEF7AEFF0B4B0C211F600B4B21
:106F50000A201E600A4A0B4B0095FFF7AEF820602E
:106F600003B0BDE8F04000F07DBA00BFD0180020AB
:106F7000F0180020DC180020D8180020D4180020B9
:106F8000501800200018002010B588B0FFF7CEFF81
:106F9000124B1B68B3B1002407AA06A905A8CDE9C6
:106FA0000544FEF773FF059B079A0293069B0C4965
:106FB000019335230B4800932346FFF7B9FB0A4B97
:106FC000186040B94FF0500383F31188BFF36F8FFF
:106FD000BFF34F8FFEE7012008B010BDD01800208E
:106FE00011860008A9710008CC1800202DE9F04195
:106FF000804630200D4617461E4600F03FFB0446F3
:10700000C0B145B94FF0500383F31188BFF36F8FC0
:10701000BFF34F8FFEE7FFF789FF069BC4E90657D2
:107020006362C4F800802662201DFEF746FF00233D
:1070300084F82C302046BDE8F0812DE9F3411E464E
:1070400030230193019B8046302B0D461746099C47
:1070500008D04FF0500383F31188BFF36F8FBFF355
:107060004F8FFEE744B94FF0500383F31188BFF30D
:107070006F8FBFF34F8FFEE741B94FF0500383F39B
:107080001188BFF36F8FBFF34F8FFEE7FFF74EFFFF
:10709000089B201D6362C4E90657C4F8008026627D
:1070A000FEF70BFF0123204684F82C3002B0BDE828
:1070B000F08100007FB5164604461A4640B94FF0ED
:1070C000500383F31188BFF36F8FBFF34F8FFEE739
:1070D0000C4D286878B10529CDE9011603940CDC24
:1070E000FFF7B4FE0023022814BF1A46089A286846
:1070F00001A9FFF72FF804B070BD002301A9FFF725
:10710000DBF8F8E7D01800202DE9F3470646FFF733
:1071100017FCDFF888800546D8F80030834209D98B
:107120001F4F3B681A686AB91E4A116813603960BC
:10713000012300E0002328463360C8F8005002B065
:10714000BDE8F087DB68DC68D3F8009004F1040A3E
:107150005046FEF7D7FE636A20469847E369012B45
:10716000DFD1A3694B44994506D251463868636024
:107170002461FEF7B0FED4E700234A4619462046B4
:107180000093FFF797FF0028CBD14FF0500383F314
:107190001188BFF36F8FBFF34F8FFEE7C818002031
:1071A000D8180020D41800202DE9F043644E654F14
:1071B00087B033681D68002D33D0DB68D3F80080BA
:1071C000FFF7B6FB03A8FFF79FFF039C8146002C47
:1071D00075D1002D58D040455CD3FFF755FC33687E
:1071E000DB68DD68281DFEF78DFEEB69012B1AD1E7
:1071F000A96943464A4628464144FFF779FE90B1C3
:1072000023464246214628460094FFF753FF50B9D3
:107210004FF0500383F31188BFF36F8FBFF34F8F8D
:10722000FEE7A846CCE728466B6A984700223868F4
:1072300003A9FFF79DF80028BBD0039B002BF5DBCB
:10724000059C636913B1201DFEF75CFE02A8FFF7E1
:107250005BFF039B0246092BE8D801A151F823F0FC
:10726000C5720008C5720008C57200082D720008BA
:10727000097300082D730008C5720008C572000864
:107280002D720008097300082F4B1B681C68B4FAA4
:1072900084F4640922463868A8EB0901FFF706F96F
:1072A000FFF7F2FB0028C1D14FF0E0234FF08052EE
:1072B000C3F8042DBFF34F8FBFF36F8FB6E7FFF70F
:1072C000E3FBB3E7A169049B20461944FFF710FED6
:1072D0000028ABD0636A20469847E369012BA5D10B
:1072E0000023A269049920460A4400931946FFF737
:1072F000E1FE00289AD14FF0500383F31188BFF3C9
:107300006F8FBFF34F8FFEE70499A16141B94FF032
:10731000500383F31188BFF36F8FBFF34F8FFEE7E6
:10732000034601442046FFF7E3FD7FE794F82C3045
:10733000002B7FF47BAF204600F032FA76E700BFE7
:10734000D8180020D0180020D418002010B504460A
:1073500040B94FF0500383F31188BFF36F8FBFF331
:107360004F8FFEE700F05EF8246A00F07BF82046BD
:1073700010BD000006480068006880F3088862B607
:1073800061B6BFF34F8FBFF36F8F00DF00BF000008
:1073900008ED00E0002382B001930D4B1B68013320
:1073A00008D04FF0500383F31188BFF36F8FBFF302
:1073B0004F8FFEE74FF0500383F31188BFF36F8FB9
:1073C000BFF34F8F019B002BFCD002B0704700BF72
:1073D0001C0000204FF0807340F8043C054B21F066
:1073E000010140F8081C40F80C3C40F8202C4038C3
:1073F000704700BF95730008000000000000000007
:10740000074B19680868B0E8F00F80F30988BFF3EC
:107410006F8F4FF0000080F311884EF00D0E704713
:10742000FC1700204FF0500383F31188BFF36F8FD8
:10743000BFF34F8F0A4A13680133012B13600ED13B
:107440004FF0E023D3F8043DDBB243B14FF05003DB
:1074500083F31188BFF36F8FBFF34F8FFEE7704741
:107460001C000020084A136843B94FF0500383F30F
:107470001188BFF36F8FBFF34F8FFEE7013B13609F
:107480000BB983F3118870471C0000200000000036
:10749000EFF30980BFF36F8F0D4B1A6820E9F00FEF
:1074A00010602DE908404FF0500080F31188FFF77D
:1074B0005FFB4FF0000080F31188BDE808401968B9
:1074C0000868B0E8F00F80F30988BFF36F8F70474A
:1074D000FC17002008B54FF0500383F31188BFF369
:1074E0006F8FBFF34F8FFFF731FA28B14FF0E023D2
:1074F0004FF08052C3F8042D002383F3118808BD98
:107500004FF0E02200234FF47A7113619361044B32
:107510001B68B3FBF1F3013B536107231361704711
:107520002000002013B5274B1A78D2B20192FF2217
:107530001A701B78244ADBB28DF803309DF80330B3
:1075400003F0500313700723204A13609DF80310C3
:10755000136809060AD4032B11D04FF0500383F3AC
:107560001188BFF36F8FBFF34F8FFEE7013B1360AE
:107570009DF803305B00DBB28DF80330E6E74FF493
:1075800040731360019B0F4ADBB213704FF0E0238E
:107590000024D3F8202D42F47002C3F8202DD3F834
:1075A000202D42F07042C3F8202DFFF7A9FF084BB1
:1075B0001C60FFF7DFFEFFF7DBFA2046FFF7EAFE6D
:1075C00002B010BD00E400E00819002004190020FA
:1075D0001C000020EFF305830F2B0ED9114A9B5C92
:1075E000114A12789A4208D94FF0500383F3118858
:1075F000BFF36F8FBFF34F8FFEE74FF0E0230B4ACF
:10760000D3F80C3D126803F4E063934208D94FF0BD
:10761000500383F31188BFF36F8FBFF34F8FFEE7E3
:10762000704700BFF0E300E00819002004190020B3
:1076300010B5104B1A461B688342FBD354681119CE
:10764000884201BF41681046091951604468011918
:107650008B420DD1084909688B4204D05B682344F2
:107660004360136819689042016018BF106010BD34
:107670001946F8E71C190020181900202DE9F041DF
:107680000446FFF755F94049404D0B680BBB404A93
:1076900056071FBFD01D20F0070002F50072131A15
:1076A0000CBF4FF40073024600201344394E083BD0
:1076B00023F0070370603260C3E90000981AC2E942
:1076C00000300B60344B1860344B18604FF00043AF
:1076D0002B602F68274207D0FFF7D6F9002600F06D
:1076E0007BFA3046BDE8F081002CF5D004F10803A8
:1076F00060071CBF23F007030833002BECD0DFF832
:107700009C80D8F800509D42E6D3224A14686068F5
:10771000984201D22068B0B90968A142DCD0216842
:107720001668116062680836D21A102A12D9E01859
:1077300041070BD04FF0500383F31188BFF36F8FD5
:10774000BFF34F8FFEE722460446E0E742606360E6
:10775000FFF76EFF0023104962680868AD1A1743EF
:1077600085422360676038BF0D60C8F80050FFF79E
:107770008BF97307B5D04FF0500383F31188BFF333
:107780006F8FBFF34F8FFEE7181900200C190020F0
:10779000241900201C1900201019002014190020A1
:1077A00010B5044670B3184A50F8043C12681342EE
:1077B00008D14FF0500383F31188BFF36F8FBFF3ED
:1077C0004F8FFEE750F8081C41B14FF0500383F390
:1077D0001188BFF36F8FBFF34F8FFEE723EA0203D9
:1077E00040F8043CFFF7A4F8084A54F8043C116838
:1077F000A4F108000B441360FFF71AFFBDE8104026
:10780000FFF742B910BD00BF0C1900201419002069
:107810001FB52848284A002302604FF48072CDE942
:1078200001330393826003734FF460220375436056
:107830000523C2610361FCF795F808B100F0BCFCB8
:107840000123CDE9013307231A4801A90393FBF76C
:1078500015FF08B100F0B0FC0223164801A9CDE9DC
:107860000133FBF70BFF08B100F0A6FC032311481E
:1078700001A9CDE90133FBF701FF08B100F09CFC41
:1078800004230C480DEB0301CDE90133FBF7F6FEB1
:1078900008B100F091FC11220523064801A9CDE9A9
:1078A0000123FBF7EBFE08B100F086FC05B05DF8A4
:1078B00004FB00BF681B00200024014030B50546D2
:1078C00087B01022002102A800F048FE2A681C4B55
:1078D0009A4233D103F56C439A691A4842F4007214
:1078E0009A619A6902A902F400720092009A9A6958
:1078F000154C42F004029A619B691E2203F00403B6
:107900000193019B0323CDE90223FCF7B9FF8020FB
:107910004FF480720023C4E903024FF480620B49E4
:107920002046C4E90013C4E90523A360E361FCF722
:1079300081FD08B100F040FC2C62656207B030BDEB
:107940000024014000080140241B002008000240E0
:1079500010B50A4B026804469A420DD1084A0948FC
:1079600093691E2123F400739361FDF78FF8206A59
:10797000BDE81040FCF790BD10BD00BF00240140E1
:10798000001002400008014006232948294A70B52A
:107990004FF48021C0E900234FF4A0030024C0E984
:1079A0000413254B8AB0C0E9024483618483FCF749
:1079B000A0F908B100F000FC0D2301254FF6E07698
:1079C000CDE905344EF2400369461948CDE900344B
:1079D000CDE90264079504940895FCF70BFA0A2395
:1079E000CDE905344FF4206369461148CDE90034F0
:1079F000CDE90264079504940895FCF7FBF9092387
:107A0000CDE9053447F6E07369460948CDE900340D
:107A1000CDE90264079504940895FCF7EBF9044856
:107A2000FCF75FFA06210248FCF76EFB0AB070BD56
:107A3000B41B0020006400400001010110B50446A1
:107A400086B01022002102A800F088FD2268164BA3
:107A50009A4227D103F5D633DA69144842F000720E
:107A6000DA61DA6902A902F000720092009A9A695A
:107A700042F004029A619B6903F004030193019BA5
:107A80004FF40063029301230493FCF7F9FE4FF4D3
:107A900080510223CDE902130323044802A9059370
:107AA000FCF7EEFE06B010BD006400400008014087
:107AB000064B82B05A6942F001025A615B6903F0D9
:107AC00001030193019B02B0704700BF0010024008
:107AD00008B5074C204601224FF40051FDF74AF843
