:020000040800F2
:10000000C04F0020CD1000084B1000085110000810
:10001000571000085D100008631000080000000081
:10002000000000000000000000000000691000084F
:100030006B100008000000006D1000086F10000831
:100040001511000877100008151100081511000897
:100050007F1000088710000815110008151100080E
:1000600015110008151100081511000815110008D8
:1000700015110008151100081511000815110008C8
:100080001511000815110008151100088910000845
:1000900099100008A9100008B910000815110008EF
:1000A0001511000815110008151100081511000898
:1000B0001511000815110008151100081511000888
:1000C0001511000815110008151100081511000878
:1000D0001511000815110008151100081511000868
:1000E0001511000815110008151100080000000086
:1000F0000000000000000000000000000000000000
:0C01000000000000000000005FF808F1A3
:10010C0010B5054C237833B9044B13B10448AFF345
:10011C0000800123237010BDB80B002000000000EC
:10012C00FC2A000808B5034B1BB103490348AFF385
:10013C00008008BD00000000BC0B0020FC2A000859
:10014C0010B58AB040F6D830C2F200004FF4C84364
:10015C00C4F2000303600623436000238360C36082
:10016C004FF4802202614FF4A00242610376012217
:10017C0042768276C2760377437701F020F828BB6B
:10018C000D230593002306930122079204930892F2
:10019C004EF24002009201934FF6E07202920393EA
:1001AC0040F6D834C2F200046946204601F0F7F854
:1001BC00204601F07AF940F6D433C2F20003022152
:1001CC001960204601F0C9FA0AB010BD00F030FEEB
:1001DC00D6E710B586B000230293039304930593DE
:1001EC0002684FF4C843C4F200039A4201D006B02F
:1001FC0010BD4FF48053C4F20203DA6942F000726E
:10020C00DA61DA6902F000720092009A9A6942F09F
:10021C0004029A619B6903F004030193019B4FF460
:10022C0000630293012304934FF40064C4F20104AD
:10023C0002A9204601F026FF4FF4805302930223BB
:10024C0003930323059302A9204601F01BFFCEE77D
:10025C0008B540F63C40C2F200004FF44053C4F2E3
:10026C000203036001F032FC00B908BD00F0E0FDB0
:10027C00FBE702684FF44053C4F202039A4200D0E9
:10028C00704782B04FF48053C4F202035A6942F0B3
:10029C0040025A615B6903F040030193019B02B079
:1002AC0070472DE9F04188B000240494059406941D
:1002BC0007944FF48053C4F202039A6942F010027F
:1002CC009A619A6902F010020092009A9A6942F0BF
:1002DC0020029A619A6902F020020192019A9A69AD
:1002EC0042F004029A619A6902F004020292029AA4
:1002FC009A6942F008029A619B6903F00803039320
:10030C00039B4FF44066C4F20106224640F60201FC
:10031C00304601F0EFFF4FF40065C4F201052246B0
:10032C004FF48071284601F0E5FF4FF460430493CD
:10033C000324059404A94FF48050C4F2010001F089
:10034C00A1FE48F2FF630493059404A9284601F02A
:10035C0099FE4FF2FD730493059404A9304601F005
:10036C0091FE40F6020304934FF00108CDF814807F
:10037C0002270697079404A9304601F083FE4FF438
:10038C0080730493CDF814800697079404A928462B
:10039C0001F078FE08B0BDE8F081BFF34F8F4FF449
:1003AC006D43CEF20003D96801F4E0610422C0F27F
:1003BC00FA520A43DA60BFF34F8F00BFFDE704E047
:1003CC0011F8012B00F8012B1A46531E002AF7D105
:1003DC00704700B54FF0000E4FF0FF3210E052089E
:1003EC000133DBB2072B09D812F0010FF7D048F21A
:1003FC00203CCEF6B85C8CEA5202F1E70EF1010E0D
:10040C008E4504D210F80E305A400023EAE7D04350
:10041C005DF804FB00B583B00023009301933022F8
:10042C008DF8002005228DF8022040F67041C2F2B2
:10043C00000140F203720A608B60CB6008230B61F1
:10044C0040F66C43C2F200036A4640F6D830C2F262
:10045C00000001F058F803B05DF804FB10B582B051
:10046C000A4600240094019401F00F038DF800302B
:10047C0001460DF10100FFF7A2FF40F67041C2F2F8
:10048C00000140F203730B608C60CC6008230B619D
:10049C0040F66C43C2F200036A4640F6D830C2F212
:1004AC00000001F030F802B010BD08B50022114672
:1004BC00052001F0C9FA052001F0D6FA00221146F8
:1004CC00042001F0C1FA042001F0CEFA00221146FA
:1004DC00012001F0B9FA012001F0C6FA0022114600
:1004EC00162001F0B1FA162001F0BEFA00221146D6
:1004FC00152001F0A9FA152001F0B6FA00221146D8
:10050C00142001F0A1FA142001F0AEFA00221146D9
:10051C00132001F099FA132001F0A6FA08BD10B5CA
:10052C0072B64FF0E02300221A615A619A6143F2CD
:10053C00DC62C0F6000242F64831C0F6000140F21F
:10054C000004C2F20004521A204602F0C3FA2168D9
:10055C0062684FF46D43CEF200039C6081F308880F
:10056C00904710BD0146002301E00133DBB213F0CC
:10057C00800F0CD103F500320132B1EB822FF4D293
:10058C0003F500329002B1EB822FEED370470020BE
:10059C00FCE710B582B04FF6FF30C0F60000FFF755
:1005AC00E1FF044601F01CFC40F64840C2F200009A
:1005BC00002303604FF48043C0F60003836004F112
:1005CC007843A3F580439B0A0133C36001A901F072
:1005DC00FBFC20B901F024FC002002B010BD01F09E
:1005EC0029FCFAE7F8B505460F46164672B601F037
:1005FC00F7FB002401E004350134A6420BD957F86F
:10060C00242000232946022001F05EFC0028F2D0B1
:10061C0001F010FC03E001F003FC62B60020F8BD11
:10062C0000B583B040F63C40C2F20000026893680B
:10063C0043F00103936042F6FF524FF48041C0F641
:10064C00000101F052FA0190012201A94FF2FC7055
:10065C00C0F60000FFF7C6FF03B05DF804FB10B551
:10066C004FF47043C0F60003D3F8FC37013B13F191
:10067C00030F15D84FF47043C0F60003D3F8FC47B2
:10068C0042F6FF524FF48041C0F6000140F63C4068
:10069C00C2F2000001F029FA844204D1012010BDFD
:1006AC00FFF7BEFFE6E70020F9E772B6002393429E
:1006BC000BD210B450F8234041F8234001339BB2C5
:1006CC009342F7D362B610BC704762B6704738B528
:1006DC004FF48044C0F60004256872B6162001F071
:1006EC00E6F9152001F0E3F9142001F0E0F91320EC
:1006FC0001F0DDF9052001F0DAF9042001F0D7F959
:10070C00012001F0D4F94FF0E02300221A615A6164
:10071C009A614FF46D43CEF200039C6085F3088818
:10072C00626840F64443C2F200031A60904738BD39
:10073C0008B572B640F69C33C2F200031B68002267
:10074C001A60FFF72AFE2DE9F04784B004460E46E6
:10075C0000230393057840F6A033C2F200031B7804
:10076C00022B05D0102D00F0228204B0BDE8F087DA
:10077C00312D25D0222D00F0D8802378312B00F09C
:10078C00FB80342D00F01981312D00F07A81362D4B
:10079C0000F09D81372D00F0F381112DE5D1012E54
:1007AC00E3D96378012BE0D151228DF800208DF82C
:1007BC00013002216846FFF751FE00230193EDE161
:1007CC000829D7D14378012BD4D18378002BD1D1F0
:1007DC00C378002BCED140F6B442C2F200021268AC
:1007EC0082B141F6C442C2F20002126852B140F624
:1007FC00AC42C2F200021278002A3BD04FF0FF321A
:10080C00039217E042F61433C0F600031B68ADF8F0
:10081C0004301B0C8DF80630032101A8FFF71EFED7
:10082C00A3E740F6B042C2F20002D15C03AAD15455
:10083C000133DBB240F6AC42C2F2000212789A42AB
:10084C00EFD840F66447C2F20007012203A93868CA
:10085C00FFF7C8FE3B6804333B6040F66843C2F2C6
:10086C0000031A6801321A6040F6AC43C2F200036E
:10087C0000221A702779637947EA0327A37947EA9C
:10088C000347E37947EA036740F6B843C2F2000333
:10089C00186840F6B443C2F200031968FFF799FDDB
:1008AC0087421CD042F61433C0F600031B68ADF827
:1008BC0004301B0C8DF80630032101A8FFF7CEFD88
:1008CC0040F65943C2F200031B78012B2AD040F6A4
:1008DC005943C2F200031A7801321A704AE7002316
:1008EC000193029304228DF8042071228DF80520C7
:1008FC0001228DF8062040F67041C2F2000140F250
:10090C0003720A608B60CB6005230B6140F66C436D
:10091C00C2F2000301AA40F6D830C2F2000000F087
:10092C00F2FDCDE7FFF77CFED1E7032E7FF425AF78
:10093C006378F12B7FF421AFA278802A7FF41DAF6E
:10094C0062218DF804108DF805308DF8062040F6E4
:10095C00A433C2F200031A788DF807205A788DF868
:10096C0008209A788DF80920DB788DF80A30072159
:10097C0001A8FFF773FD00E76378002B7FF401AF4C
:10098C00A278002A7FF4FDAEE17807297FF4F9AE56
:10099C0041F6C340C2F200000127077071208DF8A8
:1009AC0004008DF805308DF806208DF80710042111
:1009BC000DEB0100FFF752FDE3E6A3781B090333AF
:1009CC00E218E17827793F0447EA0167617947EA41
:1009DC000127A1790F43E15C53781B0443EA0163BF
:1009EC00917843EA0123D27853EA02080DD043F6FA
:1009FC00FF73C0F600039F4207D907EB08024FF4C0
:100A0C007843C0F600039A420DD942F61833C0F66B
:100A1C0000031B68ADF804301B0C8DF80630032165
:100A2C0001A8FFF71BFD40F6B843C2F200031F609C
:100A3C0040F6B443C2F20003C3F8008040F66443AE
:100A4C00C2F200031F6040F66843C2F200030022AA
:100A5C001A6040F6AC43C2F200031A7041F6C4436C
:100A6C00C2F200031A6074238DF8043010238DF841
:100A7C000530F0238DF80630032101A8FFF7EEFCBA
:100A8C0082E66378012B7FF482AEA278E37843EAA6
:100A9C0002231BB2042B7FF47AAEFFF77AFD71238D
:100AAC008DF8043001238DF80530A3788DF80630CD
:100ABC00E3788DF8073000238DF808308DF8093075
:100ACC008DF80A30072101A8FFF7C8FC5FE6022E5B
:100ADC007FF64BAE94F80190A6F102081FFA88F845
:100AEC0041F6C443C2F200031A6842441A6000275C
:100AFC0047453BD240F6AC42C2F200021378E119F2
:100B0C00887840F6B041C2F20001C8540137BFB238
:100B1C000133DBB21370042BEAD10A460B78497807
:100B2C0043EA0123917843EA0143D27843EA026312
:100B3C00039340F6644AC2F2000A012203A9DAF8D0
:100B4C000000FFF74FFDDAF800300433CAF800302C
:100B5C0040F66843C2F200031A6801321A6040F68C
:100B6C00AC43C2F2000300221A70C1E776238DF861
:100B7C0004308DF80590022101A8FFF76FFC09E6FF
:100B8C00012E7FF40AAE77238DF80430012101A8E1
:100B9C00FFF764FC01E6019B01330193019A45F6D2
:100BAC008F73C0F201039A42F5D9FFF7C1FD0129F9
:100BBC007FF6DBAD4378022B7FF4D7AD40F6A03245
:100BCC00C2F200020221117050228DF804208DF81F
:100BDC00053001A8FFF742FCC7E510B58C460B7831
:100BEC001A0903F00F0190F810E0012A11D0022A23
:100BFC0000F0B18002B110BD0029FCD00EF1FF3E17
:100C0C005FFA8EFE8E45F6D30CF10100FFF79BFDCB
:100C1C00F1E700293CD19CF80120CABBBEF1050FBD
:100C2C0015D99CF802209CF803301B0443EA02639C
:100C3C009CF8042043EA02239CF80520134316D0A9
:100C4C00B3F5805F80F083809BB206212EE040F6E6
:100C5C00BC43C2F200031A7040F6BE43C2F200035A
:100C6C001A8040F6C043C2F200031A80C3E740F674
:100C7C00BC43C2F2000300221A7040F6BE43C2F21B
:100C8C0000031A8040F6C043C2F200031A80B2E798
:100C9C00BEF1010F39D99CF8012042EA01235A1EFA
:100CAC0092B240F6FE718A4240D8022140F6C04210
:100CBC00C2F200020020108040F6BE42C2F20002D6
:100CCC001380714513D2AEEB010E5FFA8EF49C4289
:100CDC0000D9DCB22246614440F6C440C2F20000A6
:100CEC00FFF76DFB40F6C043C2F200031C8040F6D8
:100CFC00BD43C2F2000301221A7040F6BC43C2F29B
:100D0C0000031A70FFF786FB75E740F6BC43C2F28E
:100D1C00000300221A7040F6BE43C2F200031A8090
:100D2C0040F6C043C2F200031A8064E740F6BC43AD
:100D3C00C2F2000300221A7040F6BE43C2F2000356
:100D4C001A8040F6C043C2F200031A8053E7062112
:100D5C0040F6FF73AAE740F6BC43C2F200031B78CF
:100D6C00DBB2012B7FF447AF40F6BE43C2F2000367
:100D7C001B8840F6C042C2F2000210881B1A9BB2BC
:100D8C000EF1FF3E5FFA8EF49C4200D9DCB214BB2C
:100D9C0040F6BD42C2F200021378013303F00F0398
:100DAC00137040F6C043C2F200031A8840F6BE43EB
:100DBC00C2F2000319888A42FFF41DAF40F6BC430F
:100DCC00C2F2000300221A7040F6C440C2F20000C6
:100DDC00FFF7B9FC0FE740F6C443C2F2000322460A
:100DEC000CF101011844FFF7EAFA40F6C043C2F2D5
:100DFC0000031A8814441C80CAE710B540F68844D6
:100E0C00C2F2000440F6A443C2F2000322460021C1
:100E1C0000F0EEFB226840F202739A4200D010BD43
:100E2C0040F6A441C2F200012046FFF7D6FEF6E7D9
:100E3C0008B5FFF7B2FA00B591B02822002106A838
:100E4C0001F01BFE0023019302930393049305937B
:100E5C00012206924FF4803307930A9202220D92DC
:100E6C000E934FF4E0130F9306A801F076FA80B9B5
:100E7C000F23019302210291002303934FF480620C
:100E8C000492059301A801F016FD20B911B05DF88C
:100E9C0004FBFFF7CDFFFFF7CBFF10B500F05DF9BA
:100EAC00FFF7C9FFFFF7FDF9FFF74AF9FFF7D0F994
:100EBC00FFF7FBFA4FF48053C4F202035B6A13F0A2
:100ECC00006F4BD140F66443C2F2000300221A605B
:100EDC0040F66843C2F200031A6040F69833C2F23F
:100EEC0000031B681B68322B3DD140F65C43C2F2F9
:100EFC00000302221A6040F65C43C2F200031B6836
:100F0C00022B56D140F6A033C2F2000302221A7013
:100F1C0041F6C343C2F200031B78002BF8D041F614
:100F2C00C343C2F2000300221A70FFF7F8FAEFE78E
:100F3C00002243F8042B44F6FF72C2F200029342E3
:100F4C00F6D94FF48053C4F202035A6A42F000629D
:100F5C005A625A6A42F080725A62B3E744F6C0731E
:100F6C00C2F20003E7E740F66044C2F2000440F628
:100F7C009433C2F20003012221461868FFF795FB57
:100F8C002368B3F1FF3FB6D040F69C33C2F20003A6
:100F9C0044F6C072C2F200021A604FF48043C2F2EF
:100FAC000003D3F8C02F40F65C43C2F200031A6072
:100FBC00A1E7FFF754FB40F65842C2F20002107052
:100FCC0030B940F6A033C2F2000302221A709FE738
:100FDC00FFF77DFB9CE782B04FF48053C4F2020311
:100FEC009A6942F001029A619A6902F00102009238
:100FFC00009ADA6942F08052DA61DB6903F08053BF
:10100C000193019B0022C4F20102536823F0E063B8
:10101C0043F00073536002B07047BFF34F8F4FF42F
:10102C006D43CEF20003D96801F4E0610422C0F2F2
:10103C00FA520A43DA60BFF34F8F00BFFDE708B5E1
:10104C00FFF7EBFF08B5FFF7E8FF08B5FFF7E5FF83
:10105C0008B5FFF7E2FF08B5FFF7DFFF70477047F1
:10106C00704708B500F08CF808BD08B501F049F9D7
:10107C0008BD08B500F0BDFD08BD704708B540F6C9
:10108C00D830C2F2000000F07AFB08BD08B540F67B
:10109C00D830C2F2000000F072FB08BD08B540F673
:1010AC00D830C2F2000000F06AFB08BD08B540F66B
:1010BC00D830C2F2000000F062FB08BD704700009F
:1010CC00FFF7FCFF0B480C490C4A002302E0D458F4
:1010DC00C4500433C4188C42F9D3094A094C002378
:1010EC0001E013600432A242FBD301F0CFFCFFF706
:1010FC00D4FE7047940B0020B40B0020DC360008A3
:10110C00B80B0020601F0020FEE710B5044640F627
:10111C00AC33C2F200031A784FF47A73B3FBF2F3D8
:10112C0040F6A832C2F200021068B0FBF3F000F0F7
:10113C00A9FC80B90F2C01D901200DE00022214619
:10114C004FF0FF3000F080FC40F6B033C2F20003E9
:10115C001C60002000E0012010BD08B54FF40053C6
:10116C00C4F202031A6842F010021A60032000F065
:10117C0058FC0F20FFF7C9FFFFF72DFF002008BD1B
:10118C0041F63873C2F20003196840F6AC32C2F271
:10119C00000212780A441A60704741F63873C2F2A2
:1011AC000003186870477047704770477047704766
:1011BC0070477047704770477047704770470028FA
:1011CC0000F0EB8038B5044690F82030002B45D168
:1011DC0040F60763C0F60003036441F2BF13C0F688
:1011EC000003436441F2C113C0F60003836441F26F
:1011FC00C313C0F60003C36441F2B313C0F600037B
:10120C00836241F2B513C0F60003C36241F2B71317
:10121C00C0F60003036341F2B913C0F60003436345
:10122C0041F2BB13C0F60003836341F2BD13C0F659
:10123C000003C36341F2C513C0F60003036541F21A
:10124C00C713C0F60003436541F2C913C0F600038F
:10125C008365C36DEBB1E36D204698472268136834
:10126C0043F001031360FFF798FF054623685A68A3
:10127C0012F0010F13D1FFF790FF401B0A28F5D98C
:10128C00636A43F400336362052384F82030012041
:10129C0038BD40F2DF13C0F60003C365DBE71A6804
:1012AC0022F002021A60FFF778FF054623685A689D
:1012BC0012F0020F0DD0FFF770FF401B0A28F5D972
:1012CC00636A43F400336362052384F82030012001
:1012DC00DEE7227E012A3DD01A6822F080021A60D5
:1012EC00637E012B3BD02268136823F0400313600C
:1012FC00A37E012B39D02268136823F020031360DE
:10130C00E37E012B37D02268136843F0100313607F
:10131C00237F012B35D02268136823F00803136058
:10132C00637F012B33D02268136823F0040313600E
:10133C00A368E2681343226913436269134362682A
:10134C00013A21681343CB6100206062012384F8C9
:10135C0020309DE71A6842F080021A60C0E72268CC
:10136C00136843F040031360C2E72268136843F02C
:10137C0020031360C4E72268136823F01003136082
:10138C00C6E72268136843F008031360C8E72268B5
:10139C00136843F004031360CAE701207047026826
:1013AC0090F82030013BDBB2012B05D9436A43F4A2
:1013BC00802343620120704710B5D2F8003243F00D
:1013CC000103C2F800324B6903F01F03012000FA3D
:1013DC0003F3D2F81C026FEA030C20EA0300C2F8F4
:1013EC001C02C869C0B9D2F80C020CEA0000C2F8A1
:1013FC000C028C884869D1F80CE044EA0E44483061
:10140C0042F830400C884869D1F808E044EA0E44B0
:10141C00483002EBC0004460C86901281AD08869C2
:10142C0088BBD2F804020CEA0000C2F80402086976
:10143C0078BBD2F814020CEA0000C2F81402096A54
:10144C0001292CD0D2F8003223F00103C2F800326B
:10145C00002010BDD2F80C021843C2F80C028C8884
:10146C004869D1F800E044EA0E44483042F8304074
:10147C008C894869D1F808E044EA0E44483002EB04
:10148C00C0004460CBE7D2F804021843C2F804024F
:10149C00CDE7D2F814021843C2F81402CFE7D2F801
:1014AC001C120B43C2F81C32CCE770B5044690F802
:1014BC002050EDB2012D06D0436A43F40023436261
:1014CC000125284670BD022380F82030026813687D
:1014DC0023F001031360FFF760FE064623685B6888
:1014EC0013F0010F0CD0FFF758FE831B0A2BF5D914
:1014FC00636A43F400336362052384F82030E0E729
:10150C0000256562DDE730B590F820C00468A4685A
:10151C000CF1FF3C5FFA8CFCBCF1010F62D814F0AB
:10152C00E05F59D0C4F3016C012404FA0CF41C6084
:10153C008B68002B3DD10D68CB68046843EA455598
:10154C000CF118031B01E55003680C690CF1180E23
:10155C0003EB0E135C600B7D012B35D0D1799379A5
:10156C001B0443EA0163517943EA012314790168AE
:10157C00234301EB0C11C1F88C31D17893781B0407
:10158C0043EA0163517843EA0123117802680B4363
:10159C0002EB0C12C2F8883102680CF1180C4FEAFD
:1015AC000C1C52F80C3043F0010342F80C300020B4
:1015BC001DE04C6843EAC403CC6823430CF11804C7
:1015CC00240105682B51BFE7036803EB0E13596820
:1015DC0041F480715960C1E7436A43F400134362DC
:1015EC00012004E0436A43F480234362012030BDB0
:1015FC0090F820C00CF1FF3C5FFA8CFCBCF1010FA1
:10160C0000F2A58030B451B90468E46814F0030FFB
:10161C0010D1436A43F40013436201207EE0046856
:10162C00246914F0030F05D1436A43F40013436299
:10163C00012073E0056801F11B0424012C5904F00E
:10164C0004049460002C6BD1056801F11B04240187
:10165C002C59640D1460046801F11B0C4FEA0C1C2E
:10166C0054F80C4004F00204D4600468A444DCF880
:10167C00045015F0080F5BD008241461046801F1C4
:10168C001B0C04EB0C146468C4F307249461046809
:10169C0004EB0C146468240C5461026802EB011214
:1016AC00D2F8B8211A70026802EB0112D2F8B821F4
:1016BC00C2F307225A70026802EB0112D2F8B82169
:1016CC00C2F307429A70026802EB0112D2F8B821F9
:1016DC00120EDA70026802EB0112D2F8BC211A71F8
:1016EC00026802EB0112D2F8BC21C2F307225A7134
:1016FC00026802EB0112D2F8BC21C2F307429A71C4
:10170C00026802EB0112D2F8BC21120EDA71C1B9D7
:10171C000268D36843F02003D360002030BC7047CC
:10172C00056801F11B0424012C59E408546092E76C
:10173C0001F11B0504EB0514646804F00F0414613B
:10174C009CE70268136943F020031361E5E7436AE1
:10175C0043F4802343620120704790F82030013B12
:10176C00DBB2012B05D9436A43F480234362012089
:10177C007047026853690B435361002070472DE991
:10178C00F84F044603685D69D3F804809F68D3F86A
:10179C000CB0D3F810A0D3F8189015F0010627D090
:1017AC0017F0010608D001229A6017F0020F00F022
:1017BC00AC80836A9847002617F4807F0AD0236890
:1017CC004FF480729A6017F4007F00F0AD80E36AEA
:1017DC002046984717F4803F0AD023684FF4803294
:1017EC009A6017F4003F00F0AF80236B20469847B7
:1017FC0015F0080F07D01BF0100F04D046F400763C
:10180C0023681022DA6015F0040F08D01BF0080FC3
:10181C0005D023680822DA60636C2046984715F0DF
:10182C00020F07D02368DB6813F0030F02D0236C80
:10183C002046984715F0400F07D01AF0100F04D02F
:10184C0046F48066236810221A6115F0200F08D028
:10185C001AF0080F05D0236808221A61E36C2046A1
:10186C00984715F0100F07D023681B6913F0030F6E
:10187C0002D0A36C2046984715F4003F08D018F00E
:10188C00100F05D0236810225A60236D204698470C
:10189C0015F4803F08D018F0080F05D023680822F3
:1018AC005A60636D2046984715F4004F69D018F0C4
:1018BC00040F63D015F4807F04D019F0010F01D010
:1018CC0046F0010615F4007F04D019F0020F01D088
:1018DC0046F0020615F4806F04D019F0040F01D005
:1018EC0046F0040615F4006F48D019F0700945D085
:1018FC00B9F1400F5AD04DD8B9F1200F53D0B9F1EE
:10190C00300F31D146F0200633E017F0040F05D12B
:10191C0017F0080605D1436B98474DE74FF4006666
:10192C004AE74FF4805647E717F4806F02D046F42D
:10193C0000564FE717F4006F02D046F4804649E793
:10194C00A36B2046984745E717F4802F02D046F446
:10195C0000464DE717F4002F02D046F4803647E7D7
:10196C00E36B2046984743E7B9F1100F01D146F0DD
:10197C0008062268936923F070039361236804229C
:10198C005A602EB1636A33436362A36D2046984755
:10199C00BDE8F88FB9F1500F0BD0B9F1600FE8D159
:1019AC0046F48076E5E746F01006E2E746F040069E
:1019BC00DFE746F08006DCE7002808DB0901C9B246
:1019CC0000F1604000F5614080F80013704700F0B2
:1019DC000F000901C9B24EF6FC43CEF200030344DA
:1019EC001976704700B500F00700C0F1070CBCF188
:1019FC00040F28BF4FF0040C031D062B0FD9C31E78
:101A0C004FF0FF3E0EFA0CF021EA000199400EFA5D
:101A1C0003FE22EA0E0241EA02005DF804FB0023F9
:101A2C00EEE74FF46D42CEF20002D36823F4E0638C
:101A3C001B041B0C000200F4E060034343F0BF6383
:101A4C0043F40033D360704710B504464FF46D4334
:101A5C00CEF20003D868C0F30220FFF7C3FF0146A3
:101A6C002046FFF7A9FF10BD00280ADB00F01F027B
:101A7C004009012393404FF46142CEF2000242F838
:101A8C00203070470138B0F1807F0ED24FF0E02348
:101A9C0058614FF46D42CEF20002F02182F823100F
:101AAC000020986107221A617047012070470028B6
:101ABC000BDB00F01F024009012393404FF46142FD
:101ACC00CEF20002603042F82030704758B110B5A9
:101ADC00044643791BB101236371002010BD0371CF
:101AEC00FEF7C7FBF7E701207047844602234371DA
:101AFC000068836843F0010383600023934211D292
:101B0C0000B5DCF8000051F823E0C0F800E0013328
:101B1C009342F6D3DCF80030186801238CF80530BA
:101B2C005DF804FBDCF80030186801238CF80530F4
:101B3C00704741F64073C2F200030022DA614FF4A1
:101B4C000053C4F202031A6942F001021A610180C7
:101B5C0070474FF40053C4F20203DB6813F0100318
:101B6C0008D041F64073C2F20003DA6942F0020277
:101B7C00DA6110234FF40052C4F20202D26812F060
:101B8C00040F09D041F64072C2F20002D16941F053
:101B9C000101D16143F004034FF40052C4F202027C
:101BAC00D26912F0010F0FD041F64072C2F200025E
:101BBC00D16941F00401D1614FF40052C4F2020228
:101BCC00D16921F00101D16140F20112934205D09B
:101BDC004FF40052C4F20202D36070474FF400532A
:101BEC00C4F20203DA6922F00102DA61704770472D
:101BFC007047F8B54FF40053C4F20203DB6813F0DE
:101C0C00100F07D14FF40053C4F20203DB6813F03A
:101C1C00040F0ED041F64074C2F20004A5684FF0D8
:101C2C00FF33A360FFF795FF2846FFF7E1FF002382
:101C3C0023704FF40053C4F20203DB6813F0200F3F
:101C4C0049D04FF40053C4F202032022DA6041F66B
:101C5C004073C2F200031B78002B3CD041F640735A
:101C6C00C2F200031B78DBB2012B4DD041F640735E
:101C7C00C2F200031B78DBB2022B70D041F640732A
:101C8C00C2F200035A68013A5A605B68002B78D1A3
:101C9C0041F64073C2F200031B78DBB2032B00F059
:101CAC008E8041F64073C2F200031B78DBB2042B2A
:101CBC0000F08D8041F64073C2F20003986806383C
:101CCC00FFF795FF41F64073C2F200034FF0FF326D
:101CDC009A6000221A7041F64073C2F200031B781E
:101CEC008BB94FF40053C4F202031A6922F00702B5
:101CFC001A611A6922F4A0521A6141F64073C2F2B9
:101D0C00000300221A76F8BD41F64073C2F20003BC
:101D1C005A68013A5A605B68ABB141F64074C2F242
:101D2C000004A068FFF763FFA06800F58060A06066
:101D3C004FF40053C4F202031A6922F002021A6132
:101D4C0000F02EF9C7E741F64073C2F200034FF0E2
:101D5C00FF30986000221A70FFF749FFBBE74FF481
:101D6C000053C4F202031A6922F004021A61002023
:101D7C00FFF73DFF41F64073C2F2000300221A70D8
:101D8C00A9E741F64073C2F200039A6802329A60E6
:101D9C009868D3E90467340C44EA07443D0CC3E962
:101DAC0004454FF40052C4F20202116921F0010102
:101DBC001161D3E9042391B2FFF7BBFE8BE741F627
:101DCC004073C2F200039868FFF711FF7AE741F6FF
:101DDC004073C2F2000398680238FFF708FF71E7FE
:101DEC004FF40053C4F202031B6913F0800F13D09D
:101DFC004FF40053C4F2020340F22312C4F26752B0
:101E0C005A6048F6AB12CCF6EF525A601B6913F0CD
:101E1C00800F03D1002070470020704701207047CD
:101E2C004FF40053C4F202031A6942F080021A61A3
:101E3C000020704741F64073C2F20003D869704726
:101E4C0038B50446FFF7A9F905464FF40053C4F220
:101E5C000203DB6813F0010F0AD0B4F1FF3FF4D09A
:101E6C0024B1FFF79AF9401BA042EED903202AE0D7
:101E7C004FF40053C4F20203DB6813F0200F05D0BB
:101E8C004FF40053C4F202032022DA604FF40053E3
:101E9C00C4F20203DB6813F0100F11D14FF400539E
:101EAC00C4F20203DB6913F0010F09D14FF40053A4
:101EBC00C4F20203DB6813F0040F01D1002002E02E
:101ECC00FFF747FE012038BD2DE9F0411D4641F6D4
:101EDC004073C2F200031B7E012B4CD004460E460D
:101EEC00174641F64073C2F2000301221A764CF2F7
:101EFC005030FFF7A5FF0346A0BB012C08D0022CE5
:101F0C0003D04FF004081C4607E04FF00208FAE734
:101F1C004FF00108F7E70134E4B2444522D2210125
:101F2C00C1F12002A1F1200327FA01F105FA02F216
:101F3C00114325FA03F3194389B206EB4400FFF76A
:101F4C00F8FD4CF25030FFF77BFF4FF4005CC4F20D
:101F5C00020CDCF8103023F00103CCF810300346EF
:101F6C000028D8D041F64072C2F20002002111764E
:101F7C001846BDE8F0810223FAE741F64073C2F23D
:101F8C0000030022DA614FF40053C4F202031A6911
:101F9C0042F004021A611A6942F040021A61704759
:101FAC0041F64073C2F200030022DA614FF4005391
:101FBC00C4F202031A6942F002021A6158611A69EA
:101FCC0042F040021A61704741F64073C2F20003BE
:101FDC001B7E012B53D070B505460E4641F640735F
:101FEC00C2F2000301221A760368022B24D04CF2B1
:101FFC005030FFF725FF002838D14FF0FF33336006
:10200C00AC680121EA68AB6803EB8223A3422ED9AA
:10201C002046FFF7C5FF4CF25030FFF711FF4FF48D
:10202C000053C4F202031A6922F002021A6101463B
:10203C00D0B904F58064E5E74CF25030FFF700FFAF
:10204C0008B1012113E00120FFF797FF4CF250304B
:10205C00FFF7F6FE01464FF40053C4F202031A696F
:10206C0022F004021A6102E0346000E0012141F622
:10207C004073C2F2000300221A76084670BD02219A
:10208C000846704770B582B00024A446CBE000250A
:10209C00C1F22205AB4219D00025C1F22205AB4298
:1020AC000AD90025C1F23105AB420FD00025C1F28F
:1020BC003205AB420AD016E00025C1F21205AB4244
:1020CC0004D00025C1F22105AB4207D18B68002B4F
:1020DC0065D0012B5ED04261082404E00025C1F2DA
:1020EC001105AB42F2D0BEF1FF0F5AD806464FEAAB
:1020FC008C0233680F25954023EA050304FA02F29B
:10210C00134333604B6813F0805F00F08A804FF408
:10211C008053C4F202039A6942F001029A619B69EE
:10212C0003F001030193019B4FEA9C020023C4F2CC
:10213C000103951C53F825600CF00305AD000F232B
:10214C00AB4026EA03064FF40063C4F20103984245
:10215C002ED04FF44063C4F20103984200F0A080EB
:10216C004FF48053C4F20103984200F09B804FF46B
:10217C00A053C4F20103984218D0042319E0CC6890
:10218C00B1E7CC680434AEE7CC680834ABE7CC6874
:10219C000C34A8E702610824A5E70024A3E7042473
:1021AC00A1E7061DACF108029200A2E7032300E0B0
:1021BC000023AB4033430025C4F20105023245F83D
:1021CC0022304B6813F4801F6ED04FF48063C4F23E
:1021DC0001039A6842EA0E029A604B6813F4001FDE
:1021EC006BD04FF48063C4F20103DA6842EA0E024A
:1021FC00DA604B6813F4003F68D04FF48063C4F28C
:10220C0001035A6842EA0E025A604B6813F4803F8D
:10221C0065D04FF48063C4F201031A6842EA0E02DF
:10222C001A600CF1010C0B6833FA0CF260D001222D
:10223C0002FA0CF203EA020E32EA0303F1D14B6804
:10224C00122B3FF624AF122B3FF64DAF01A555F8DC
:10225C0023F000BFD92000088B210008952100082D
:10226C00A7210008F3200008F3200008F320000841
:10227C00F3200008F3200008F3200008F3200008E6
:10228C00F3200008F3200008F3200008F3200008D6
:10229C00F3200008F32000088F2100089B21000880
:1022AC00012386E7022384E74FF48063C4F2010321
:1022BC009A6822EA0E029A608FE74FF48063C4F2A8
:1022CC000103DA6822EA0E02DA6092E74FF48063C7
:1022DC00C4F201035A6822EA0E025A6095E74FF4E1
:1022EC008063C4F201031A6822EA0E021A6098E7AE
:1022FC0002B070BD0AB101617047090401617047F9
:10230C00704708B54FF48063C4F201035B6913F4A2
:10231C00803F00D108BDFFF7F3FF4FF48063C4F298
:10232C0001034FF480325A61F4E782B040F6A833CF
:10233C00C2F200031B6844F6D352C1F26202A2FB44
:10234C0003235B0A00FB03F3019300BF019B5A1E9E
:10235C000192002BF9D102B07047002800F068827E
:10236C0070B582B00446036813F0010F38D04FF4F7
:10237C008053C4F202035B6803F00C03042B23D0DC
:10238C004FF48053C4F202035B6803F00C03082B78
:10239C0012D06368B3F5803F54D0002B6ED14FF44C
:1023AC008053C4F202031A6822F480321A601A684D
:1023BC0022F480221A604DE04FF48053C4F20203E1
:1023CC005B6813F4803FE4D04FF48053C4F20203F3
:1023DC001B6813F4003F03D06368002B00F02A82C3
:1023EC00236813F0020F00F097804FF48053C4F26F
:1023FC0002035B6813F00C0F77D04FF48053C4F2D8
:10240C0002035B6803F00C03082B66D02369002BD6
:10241C0000F0AD800023C4F2422301221A60FEF7C3
:10242C00BCFE05464FF48053C4F202031B6813F044
:10243C00020F40F09080FEF7B0FE401B0228F1D94D
:10244C000320FCE14FF48053C4F202031A6842F4F7
:10245C0080321A60636873B3FEF79FFE05464FF433
:10246C008053C4F202031B6813F4003FB8D1FEF78B
:10247C0094FE401B6428F2D90320E0E1B3F5A02FB1
:10248C000CD04FF48053C4F202031A6822F4803249
:10249C001A601A6822F480221A60DBE74FF480532A
:1024AC00C4F202031A6842F480221A601A6842F4D9
:1024BC0080321A60CEE7FEF770FE05464FF480536B
:1024CC00C4F202031B6813F4003F89D0FEF765FECB
:1024DC00401B6428F2D90320B1E14FF48053C4F2BD
:1024EC0002035B6813F4803F90D14FF48053C4F225
:1024FC0002031B6813F0020F03D02369012B40F079
:10250C009B814FF48052C4F20202136823F0F8034B
:10251C00616943EAC1031360236813F0080F40D0CC
:10252C00A369002B72D00023C4F242230122C3F80A
:10253C008024FEF732FE05464FF48053C4F20203AA
:10254C005B6A13F0020F29D1FEF727FE401B02280D
:10255C00F2D9032073E14FF48052C4F202021368E3
:10256C0023F0F803616943EAC1031360D4E7002345
:10257C00C4F2422300221A60FEF70FFE05464FF408
:10258C008053C4F202031B6813F0020FC4D0FEF791
:10259C0004FE401B0228F2D9032050E10120FFF772
:1025AC00C4FE236813F0040F00F0B3804FF4805383
:1025BC00C4F20203DB6913F0805F3FD14FF4805308
:1025CC00C4F20203DA6942F08052DA61DB6903F08B
:1025DC0080530193019B01254FF4E043C4F20003A7
:1025EC001B6813F4807F2BD0E368012B42D0002BA7
:1025FC005ED14FF48053C4F202031A6A22F0010236
:10260C001A621A6A22F004021A623BE00023C4F236
:10261C0042230022C3F88024FEF7BFFD05464FF489
:10262C008053C4F202035B6A13F0020FB9D0FEF7B9
:10263C00B4FD401B0228F2D9032000E10025CBE7B2
:10264C004FF4E043C4F200031A6842F480721A603B
:10265C00FEF7A3FD06464FF4E043C4F200031B68EB
:10266C0013F4807FC0D1FEF798FD801B6428F2D94B
:10267C000320E4E04FF48053C4F202031A6A42F0E0
:10268C0001021A62E3687BB3FEF787FD06464FF43E
:10269C008053C4F202031B6A13F0020F38D1FEF709
:1026AC007CFD801B41F288339842F0D90320C6E0B0
:1026BC00052B0CD04FF48053C4F202031A6A22F09B
:1026CC0001021A621A6A22F004021A62DAE74FF463
:1026DC008053C4F202031A6A42F004021A621A6AA4
:1026EC0042F001021A62CDE7FEF757FD06464FF4A1
:1026FC008053C4F202031B6A13F0020F08D0FEF7DA
:10270C004CFD801B41F288339842F0D9032096E0AF
:10271C002DBBE369002B00F091804FF48052C4F282
:10272C000202526802F00C02082A6ED0022B1FD053
:10273C000023C4F2422300221A66FEF72EFD044643
:10274C004FF48053C4F202031B6813F0007F5AD07D
:10275C00FEF723FD001B0228F2D903206FE04FF493
:10276C008053C4F20203DA6922F08052DA61D0E7B6
:10277C000023C4F2422300221A66FEF70EFD054622
:10278C004FF48053C4F202031B6813F0007F06D091
:10279C00FEF703FD401B0228F2D903204FE0236A09
:1027AC00B3F5803F22D04FF48052C4F2020253683A
:1027BC0023F47413216A606A01430B4353600023B2
:1027CC00C4F2422301221A66FEF7E7FC04464FF4DA
:1027DC008053C4F202031B6813F0007F11D1FEF783
:1027EC00DCFC001B0228F2D9032028E04FF48052B5
:1027FC00C4F20202536823F40033A1680B43536004
:10280C00D1E700201BE0002019E0012B19D04FF478
:10281C008053C4F202035B6803F48031226A914254
:10282C0011D103F47013626A93420ED1002006E0BA
:10283C0001207047012002E0012000E0002002B0DE
:10284C0070BD0120FBE70120F9E70120F7E74FF409
:10285C008053C4F202035B6803F00C02082A04D014
:10286C004FF49050C0F27A007047C3F3834142F6A4
:10287C003032C0F60002505C13F4803F14D04FF499
:10288C008053C4F202035B68C3F3404342F62C321C
:10289C00C0F60002D25C4FF49053C0F27A0303FBF3
:1028AC0000F0B0FBF2F070474FF41063C0F23D0340
:1028BC0003FB00F07047002800F0D78070B50D4680
:1028CC0004464FF40053C4F202031B6803F00703E1
:1028DC008B420ED24FF40052C4F20202136823F062
:1028EC0007030B431360136803F007038B4240F09C
:1028FC00BE80236813F0020F20D013F0040F07D012
:10290C004FF48053C4F202035A6842F4E0625A60F6
:10291C00236813F0080F07D04FF48053C4F202035E
:10292C005A6842F460525A604FF48052C4F2020268
:10293C00536823F0F003A1680B435360236813F032
:10294C00010F41D06368012B2AD0022B32D04FF4F7
:10295C008052C4F20202126812F0020F00F0898059
:10296C004FF48052C4F20202516821F003010B4370
:10297C005360FEF712FC06464FF48053C4F2020378
:10298C005B6803F00C036268B3EB820F1CD0FEF79C
:10299C0004FC801B41F288339842EDD9032063E09C
:1029AC004FF48052C4F20202126812F4003FD7D1E5
:1029BC00012059E04FF48052C4F20202126812F066
:1029CC00007FCDD101204FE04FF40053C4F202033D
:1029DC001B6803F00703AB420DD94FF40052C4F24D
:1029EC000202136823F007032B431360136803F0F0
:1029FC000703AB423FD1236813F0040F09D04FF407
:102A0C008052C4F20202536823F4E063E1680B4382
:102A1C005360236813F0080F0AD04FF48052C4F2AD
:102A2C000202536823F46053216943EAC1035360E3
:102A3C00FFF70DFF4FF48053C4F202035B68C3F33E
:102A4C00031342F61C32C0F60002D35CD84040F6A9
:102A5C00A833C2F20003186040F6B033C2F2000390
:102A6C001868FEF752FB002070BD01207047012052
:102A7C00FAE70120F8E70120F6E703460244934207
:102A8C0000D1704703F8011BF9E7000070B5002670
:102A9C000C4D0D4C641BA410A64209D100F028F873
:102AAC0000260A4D0A4C641BA410A64205D170BD29
:102ABC0055F8043B98470136EEE755F8043B984728
:102ACC000136F2E7402B0008402B0008402B000891
:102ADC00442B00080A44914200F1FF3300D17047A7
:102AEC0010B511F8014B914203F8014FF9D110BD0B
:102AFC00F8B500BFF8BC08BC9E467047F8B500BFDF
:082B0C00F8BC08BC9E467047AE
:102B14007F3122007F3431000000000000000000FB
:102B24000102030406070809010200000203040568
:0C2B3400060708090A0B0C0D0E0F10100C
:042B40003101000857
:042B44000D01000877
:102B4800804F00207B0B00206D0000206D000020CE
:102B58006D0000206D0000206D00002000000000C6
:102B68000000000000000000000000006D000020D0
:102B78006D000020000000006D0000206D000020A6
:102B88006D0000206D0000206D0000206D00002009
:102B98006D0000206D0000206D0000206D000020F9
:102BA8006D0000206D0000206D0000204FF0E02235
:102BB800D2F82C1D4FF00053C3F80011D2F8281D8D
:102BC800C3F80411D2F8381DC3F80811D2F8342D0F
:102BD800C3F80C21EFF30882C3F81021FEE782B096
:102BE800019000E000BF019B5A1E0192002BF9D111
:102BF80002B0704782B04FF40053C4F20203DB689E
:102C080013F0010FF7D14FF40053C4F20203DB684D
:102C180013F0200F05D04FF40053C4F20203202212
:102C2800DA600023019302E0019B01330193019BC9
:102C3800B3F5FA6FF8DB02B070474FF40053C4F2F3
:102C480002031B6913F0800F0DD04FF40053C4F238
:102C5800020340F22312C4F267525A6048F6AB12DC
:102C6800CCF6EF525A6070474FF40053C4F2020397
:102C78001A6942F080021A61704738B50546FFF7B5
:102C8800B9FF4FF40054C4F20204236943F002036D
:102C980023616561236943F040032361FFF7AAFFBD
:102CA800236923F00203236138BD38B504460D4675
:102CB800FFF7C3FF04E02046FFF7DFFF04F5806459
:102CC800AC42F8D3FFF7D0FF38BD10F0010F5FD149
:102CD800B0F1006F5FD343F6FF73C0F6000398426C
:102CE8005CD803889BB24FF6FF72934259D14FF4D8
:102CF8000053C4F20203DB6813F0010FF7D14FF45D
:102D08000053C4F202033422DA601A6942F0010265
:102D18001A6101804FF40053C4F20203DB6813F018
:102D2800010FF7D14FF40053C4F20203DB6813F02C
:102D3800040F13D14FF40053C4F20203DB6813F0FD
:102D4800100F18D14FF40053C4F202032022DA60A6
:102D58001A6922F001021A61002070474FF40053EB
:102D6800C4F202030422DA601A6922F001021A612D
:102D78006FF0060070474FF40053C4F202031022AC
:102D8800DA601A6922F001021A616FF007007047D1
:102D98006FF0020070476FF0030070476FF0040097
:102DA80070476FF00500704770B504460D46FFF791
:102DB80044FFA9B22046FFF788FF064618B1FFF77F
:102DC80053FF304670BD290CA01CFFF77EFF064656
:102DD800F5E74FF4C043C4F20003D3F80C3413F002
:102DE800030F2ED0F0B44FF4C043C4F20003D3F85D
:102DF800B075D3F8B465D3F8B855D3F8BC454FEAE5
:102E0800575CA0F800C006F00F0008701570C5F3F5
:102E180007215170C5F3074191702D0ED5701471BB
:102E2800C4F307215171C4F307419171240ED47181
:102E3800D3F80C2442F02002C3F80C240120F0BC83
:102E480070470020704700B54FF4C043C4F2000338
:102E5800D3F8083413F0806FF6D092F803C0937853
:102E68001B0443EA0C6392F801C043EA0C2392F86E
:102E780000C043EA0C034FF4C04CC4F2000CCCF879
:102E8800883592F807E093791B0443EA0E6392F8B9
:102E980005E043EA0E2312791343CCF88C3501F090
:102EA8000F01CCF88415400540F00100CCF88005EE
:102EB8004FF4C043C4F20003D3F8083413F0010FF1
:102EC800F6D04FF4C043C4F200030122C3F808242B
:102ED8005DF804FB00B54FF0000E4FF0FF3210E034
:102EE80052080133DBB2072B09D812F0010FF7D0D3
:102EF80048F2203CCEF6B85C8CEA5202F1E70EF1BB
:102F0800010E8E4504D210F80E305A400023EAE72D
:102F1800D0435DF804FB08B5002307E041F62872AA
:102F2800C2F200020021D1540133DBB2072BF5D9DC
:102F380041F62872C2F20002302313700023537046
:102F480005239370082140F20370FFF77CFF08BD4A
:102F580008B5072900D90721002309E041F628729E
:102F6800C2F200024FF0000C02F803C00133DBB2DA
:102F7800072BF3D901F00F0241F62873C2F20003C0
:102F88001A70002309E05A1C10F803C041F6287390
:102F9800C2F2000303F802C0D3B28B42F3D341F666
:102FA8002872C2F20002082140F20370FFF74BFFBB
:102FB80008BD2DE9F04182B004460378103B272B69
:102FC80000F20581DFE813F02800BE0103010301C8
:102FD80003010301030103010301030103010301C9
:102FE800030103010301030103010301E3010301D9
:102FF80003010301030103010301030103010301A9
:10300800030103010301030103010D01030103018E
:103018003F000301B5000101012940F2D88043783F
:10302800022B40F0D48050228DF800208DF801301A
:103038004FF48043C2F200030221C3F8C01F684660
:10304800FFF786FFC3E0022940F2C18083781B099D
:10305800042B02D1DA1D8A420ED942F61833C0F683
:1030680000031B68ADF800301B0C8DF802300321FB
:103078006846FFF76DFFAAE00333C118C0782279CC
:10308800120442EA0062607942EA0022A07902430F
:10309800E05C4B781B0443EA0063887843EA00232A
:1030A800C9780B4309D0B2F1006F06D3D0184FF49A
:1030B8008041C0F6000188420ED942F61833C0F6A6
:1030C80000031B68ADF800301B0C8DF8023003219B
:1030D8006846FFF73DFF7AE041F62471C2F200012D
:1030E8000A6041F62071C2F200010B6041F61C73C0
:1030F800C2F200031A6041F61872C2F200020023FD
:10310800136041F61072C2F200021370032B08D844
:1031180041F61472C2F200020021D1540133DBB22D
:10312800F4E7032140F69030C2F20000FFF710FFE9
:103138004DE002294BD9467802398DB241F6187311
:10314800C2F200031A682A441A60002701E0013716
:10315800BFB2AF422FD241F61072C2F2000213780A
:10316800E119887841F61471C2F20001C85401339C
:10317800DBB21370042BEAD10B460A78497842EA8D
:103188000122997842EA0142D97841F61C78C2F2C4
:10319800000842EA0161D8F80000FFF705FED8F8F8
:1031A80000300433C8F8003041F61073C2F200034F
:1031B80000221A70CBE776238DF800308DF8016075
:1031C80002216846FFF7C4FE01E0012902D002B0DF
:1031D800BDE8F08177238DF800306846FFF7B8FE28
:1031E800F5E708292BD00329F1D96378012BEED113
:1031F800A278E37843EA02231BB2062BE7D14FF407
:103208008041C0F600014FF00060FFF74EFD7123CA
:103218008DF8003001238DF80130A3788DF8023045
:10322800E3788DF8033000238DF804308DF80530ED
:103238008DF8063007216846FFF78AFEC7E743780E
:10324800012BD0D18378002BCDD1C378002BCAD1E4
:1032580041F62073C2F200031B682BB141F61873C4
:10326800C2F200031B6873B942F61433C0F60003B8
:103278001B68ADF800301B0C8DF80230032168463E
:10328800FFF766FEA3E741F61073C2F200031A784F
:10329800FAB14FF0FF330093002307E041F61471B1
:1032A800C2F20001C95C0DF8031001339A42F5D847
:1032B80041F61C75C2F2000500992868FFF774FDF5
:1032C8002B6804332B6041F61073C2F2000300220E
:1032D8001A702379627943EA0223A27943EA024306
:1032E800E27943EA026440F68C33C2F200031C60C0
:1032F80041F62072C2F2000241F62473C2F20003C2
:1033080011681868FFF7E6FD40F68832C2F200023D
:10331800106084420ED042F61433C0F600031B68D6
:10332800ADF800301B0C8DF8023003216846FFF71A
:103338000FFE4CE7052140F68030C2F20000FFF78F
:1033480007FE44E701297FF642AF4378012B7FF45B
:103358003EAF51228DF800208DF8013002216846D9
:10336800FFF7F6FD45F69070C0F20100FFF737FC55
:103378004FF48043C2F200030222C3F8C02F042393
:10338800C0F2FA534FF0E022C2F80C3DFEE70329E1
:103398007FF41DAF4378F12B7FF419AF8278802A30
:1033A8007FF415AF62218DF800108DF801308DF88B
:1033B80002200D238DF803308DF80430FF238DF89B
:1033C80005308DF8063007216846FFF7C1FDFEE697
:1033D800002900F0098170B5084611780B0901F041
:1033E8000F01012B30D0022B00F09F8003B170BD7C
:1033F8000029FCD00138C0B288420CD2F7E703F1AB
:10340800010C12F80CE041F6D040C2F2000000F8BE
:1034180003E05FFA8CF38B42F1D341F6CC43C2F25E
:103428000003198041F6CA43C2F20003198041F62D
:10343800C843C2F2000300221A7041F6D040C2F21B
:103448000000FFF7B6FDD2E7A1B9537893B9052874
:103458005AD99178D3781B0443EA0163117943EA76
:10346800012351790B43591EB1F5107F4CD29BB201
:1034780006250AE0012847D9537843EA0123591E53
:1034880089B2B1F5107F3FD2022541F6CC41C2F294
:10349800000100240C8041F6CA41C2F200010B80F1
:1034A800854223D2401BC0B2834200D2D8B208B1B1
:1034B800002314E041F6C843C2F2000300221A7048
:1034C80041F6CA43C2F200031A8090E7E918545C37
:1034D80041F6D041C2F20001CC540133DBB2834241
:1034E800F4D341F6CC43C2F20003188041F6C94335
:1034F800C2F2000301221A7041F6C843C2F2000367
:103508001A70FFF708FD72E741F6C843C2F20003DC
:1035180000221A7041F6CA43C2F200031A8041F62B
:10352800CC43C2F200031A8061E741F6C843C2F2F5
:1035380000031B78DBB2012B7FF459AF41F6CA4375
:10354800C2F20003198841F6CC43C2F200031D8879
:103558004B1B9BB20138C0B2984200D9D8B2461969
:10356800B6B2B6F5107F01D800231DE041F6C84376
:10357800C2F2000300221A7041F6CA43C2F20003E5
:103588001A8041F6CC43C2F200031A802FE703F1F8
:10359800010E2B4412F80E4041F6D04CC2F2000C3A
:1035A8000CF803405FFA8EF39842F0D841F6CC430A
:1035B800C2F200031E8041F6C942C2F2000213782B
:1035C800013303F00F031370B1423FF610AF41F619
:1035D800C843C2F2000300221A7041F6D040C2F27A
:1035E8000000FFF7E6FC02E7704700B583B072B64B
:1035F8004FF0E0224FF0FF33C2F88031002313610F
:103608005361936141F62472C2F20002136041F6DD
:103618002072C2F20002136041F61C72C2F200026C
:10362800136041F61872C2F20002136041F610727C
:10363800C2F20002137041F6C842C2F200021370CF
:1036480041F6CC42C2F20002138041F6CA42C2F2ED
:103658000002138041F6C942C2F20002137062B63A
:1036680017E041F63072C2F200029DF80510FFF72C
:10367800AFFE20E041F63072C2F200020021D154C0
:1036880041F62872C2F20002D1540133DBB2072B93
:10369800F0D941F63072C2F200020DF105010DF1C8
:1036A8000600FFF796FB0028F3D0BDF8060040F2AD
:1036B80002739842D5D00023E9E708B5FFF795FFD4
:1036C8007101000000000000000000000000000080
:0436D8007410F0007A
:1036DC0000400008C44F0020C04F0020070000002D
:1036EC001414FFFF00127A0001000000100000000B
:04000005080010CD12
:00000001FF
