:020000040800F2
:10400000804F00202D6F0008A1C90008ADC900082D
:10401000B9C90008C5C90008D1C9000800000000DE
:10402000000000000000000000000000D1B5000802
:10403000DDC900080000000061B60008A5B6000850
:10404000756F0008DFC90008756F0008756F0008FC
:10405000F1C90008F5C90008756F0008756F000800
:10406000756F0008756F0008756F0008F9C90008C2
:10407000756F0008756F0008756F0008756F000890
:10408000756F0008756F000805CA000811CA00089E
:104090001DCA000821CA000825CA0008756F00085B
:1040A00029CA000835CA000839CA00083DCA0008F4
:1040B00041CA000855CA00086DCA0008756F00089B
:1040C000756F0008756F0008756F0008756F000840
:1040D000756F0008756F0008756F0008756F000830
:1040E000756F0008756F0008756F0008000000000C
:1040F00000000000000000000000000000000000C0
:0C41000000000000000000005FF808F163
:1041100010B5054C237833B9044B13B10448AFF301
:1041200000800123237010BDB803002000000000B0
:1041300088D1000808B5034B1BB103490348AFF30E
:10414000008008BD00000000BC03002088D10008EA
:1041500080F0004002E000BF81F0004142001FBF3C
:104160005FEA410392EA030F7FEA226C7FEA236C45
:104170006AD04FEA1262D2EB1363C1BFD21841403A
:1041800048404140B8BF5B42192B88BF704710F0D0
:10419000004F40F4000020F07F4018BF404211F073
:1041A000004F41F4000121F07F4118BF494292EADB
:1041B000030F3FD0A2F1010241FA03FC10EB0C0007
:1041C000C3F1200301FA03F100F0004302D5494294
:1041D00060EB4000B0F5000F13D3B0F1807F06D341
:1041E00040084FEA310102F10102FE2A51D2B1F139
:1041F000004F40EBC25008BF20F0010040EA03002E
:104200007047490040EB0000013A28BFB0F5000FAD
:10421000EDD2B0FA80FCACF1080CB2EB0C0200FA63
:104220000CF0AABF00EBC25052421843BCBFD040B2
:104230001843704792F0000F81F4000106BF80F42C
:1042400000000132013BB5E74FEA41037FEA226CEF
:1042500018BF7FEA236C21D092EA030F04D092F0BA
:10426000000F08BF0846704790EA010F1CBF0020EE
:10427000704712F07F4F04D1400028BF40F000404B
:10428000704712F100723CBF00F50000704700F06B
:10429000004343F0FE4040F4000070477FEA226292
:1042A00016BF08467FEA23630146420206BF5FEA63
:1042B000412390EA010F40F4800070474FF0000363
:1042C00004E000BF10F0004348BF40425FEA000C2A
:1042D00008BF704743F0964301464FF000001CE0D2
:1042E00050EA010208BF70474FF000030AE000BF28
:1042F00050EA010208BF704711F0004302D5404266
:1043000061EB41015FEA010C02BF844601460020D7
:1043100043F0B64308BFA3F18053A3F50003BCFAF2
:104320008CF2083AA3EBC25310DB01FA02FC63449F
:1043300000FA02FCC2F12002BCF1004F20FA02F2A6
:1043400043EB020008BF20F00100704702F1200299
:1043500001FA02FCC2F1200250EA4C0021FA02F2FA
:1043600043EB020008BF20EADC7070474FF0FF0CFF
:104370001CEAD0521EBF1CEAD15392EA0C0F93EAFA
:104380000C0F6FD01A4480EA010C400218BF5FEA9C
:1043900041211ED04FF0006343EA501043EA51110F
:1043A000A0FB01310CF00040B1F5000F3EBF490009
:1043B00041EAD3715B0040EA010062F17F02FD2A0D
:1043C0001DD8B3F1004F40EBC25008BF20F00100F0
:1043D000704790F0000F0CF0004C08BF49024CEA07
:1043E000502040EA51207F3AC2BFD2F1FF0340EA99
:1043F000C250704740F400004FF00003013A5DDC0A
:1044000012F1190FDCBF00F000407047C2F100024A
:10441000410021FA02F1C2F1200200FA02FC5FEA37
:10442000310040F1000053EA4C0308BF20EADC7081
:10443000704792F0000F00F0004C02BF400010F4F3
:10444000000F013AF9D040EA0C0093F0000F01F0A0
:10445000004C02BF490011F4000F013BF9D041EAC2
:104460000C018FE70CEAD15392EA0C0F18BF93EAC4
:104470000C0F0AD030F0004C18BF31F0004CD8D1EE
:1044800080EA010000F00040704790F0000F17BF75
:1044900090F0004F084691F0000F91F0004F14D0BB
:1044A00092EA0C0F01D142020FD193EA0C0F03D113
:1044B0004B0218BF084608D180EA010000F0004016
:1044C00040F0FE4040F40000704740F0FE4040F4F1
:1044D000400070474FF0FF0C1CEAD0521EBF1CEA90
:1044E000D15392EA0C0F93EA0C0F69D0A2EB0302AE
:1044F00080EA010C49024FEA402037D04FF0805348
:1045000043EA111143EA10130CF000408B4238BF0C
:104510005B0042F17D024FF4000C8B4224BF5B1A1A
:1045200040EA0C00B3EB510F24BFA3EB510340EA68
:104530005C00B3EB910F24BFA3EB910340EA9C0016
:10454000B3EBD10F24BFA3EBD10340EADC001B0186
:1045500018BF5FEA1C1CE0D1FD2A3FF650AF8B422A
:1045600040EBC25008BF20F0010070470CF0004C37
:104570004CEA50207F32C2BFD2F1FF0340EAC25062
:10458000704740F400004FF00003013A37E792F023
:10459000000F00F0004C02BF400010F4000F013A81
:1045A000F9D040EA0C0093F0000F01F0004C02BF7C
:1045B000490011F4000F013BF9D041EA0C0195E7E5
:1045C0000CEAD15392EA0C0F08D142027FF47DAF7E
:1045D00093EA0C0F7FF470AF084676E793EA0C0F6E
:1045E00004D14B023FF44CAF08466EE730F0004C6C
:1045F00018BF31F0004CCAD130F000427FF45CAFFC
:1046000031F000437FF43CAF5FE700BF4FF0FF3C69
:1046100006E000BF4FF0010C02E000BF4FF0010CBC
:104620004DF804CD4FEA40024FEA41037FEA226C85
:1046300018BF7FEA236C11D001B052EA530C18BFA7
:1046400090EA010F58BFB2EB030088BFC81738BF0C
:104650006FEAE17018BF40F0010070477FEA226CFA
:1046600002D15FEA402C05D17FEA236CE4D15FEAF6
:10467000412CE1D05DF8040B704700BF844608462A
:104680006146FFE70FB5FFF7C9FF002848BF10F1EB
:10469000000F0FBD4DF808EDFFF7F4FF0CBF012030
:1046A00000205DF808FB00BF4DF808EDFFF7EAFFBA
:1046B00034BF012000205DF808FB00BF4DF808ED75
:1046C000FFF7E0FF94BF012000205DF808FB00BF6A
:1046D0004DF808EDFFF7D2FF94BF012000205DF8F0
:1046E00008FB00BF4DF808EDFFF7C8FF34BF0120FD
:1046F00000205DF808FB00BF4FEA40024FEA41038B
:104700007FEA226C02D15FEA402C08D17FEA236C59
:1047100002D15FEA412C02D14FF0000070474FF008
:104720000100704742000ED2B2F1FE4F0BD34FF0A2
:104730009E03B3EB126209D44FEA002343F0004317
:1047400023FA02F070474FF00000704712F1610F3A
:1047500001D1420202D14FF0FF3070474FF000000C
:10476000704700BF53B94AB9002908BF00281CBFD1
:104770004FF0FF314FF0FF3000F068B9ADF1080C99
:104780006DE904CE00F006F8DDF804E0DDE902236F
:1047900004B070472DE9F047089D0C46002B4ED120
:1047A00094468C458646B2FA82F262D94AB1C2F189
:1047B0002003914020FA03F30CFA02FC194300FA9B
:1047C00002FE4FEA1C47B1FBF7F407FB14111FFA76
:1047D0008CF64FEA1E4343EA014304FB06F199427B
:1047E0000AD91CEB030304F1FF3080F010819942D9
:1047F00040F20D81023C6344591AB1FBF7F007FB0C
:10480000101100FB06F61FFA8EF343EA01439E42A5
:104810000AD91CEB030300F1FF3180F0FA809E42BD
:1048200040F2F7806344023800219B1B40EA0440B9
:104830001DB1D3400022C5E90032BDE8F0878B42AC
:1048400005D90DB1C5E9000100210846F5E7B3FA25
:1048500083F1002946D1A34202D39042C0F0EE80FA
:10486000861A64EB03030120002DE6D0C5E900633E
:10487000E3E7002A40F08F80A1EB0C0401214FEA0E
:104880001C481FFA8CF7B4FBF8F608FB164407FB2C
:1048900006F04FEA1E4343EA0443984208D91CEB52
:1048A000030306F1FF3402D2984200F2CB80264681
:1048B0001C1AB4FBF8F008FB104400FB07F71FFAC2
:1048C0008EF343EA04439F4208D91CEB030300F133
:1048D000FF3402D29F4200F2AE802046DB1B40EA4A
:1048E0000640A5E7C1F120078B4022FA07FC4CEAFD
:1048F000030C24FA07F64FEA1C49B6FBF9F81FFA35
:104900008CFE09FB186620FA07F38C4000FA01FAC6
:1049100008FB0EF01C43230C43EA0643984202FABC
:1049200001F20AD91CEB030308F1FF3680F0818005
:1049300098427ED9A8F1020863441E1AB6FBF9F327
:1049400009FB136603FB0EFEA4B244EA0644A64527
:1049500008D91CEB040403F1FF3066D2A64564D9E4
:10496000023B644443EA0840A0FB0283A4EB0E042C
:104970009C42C6461E4650D34DD055B1BAEB0E03ED
:1049800064EB060404FA07F7CB401F43CC40C5E9AB
:104990000074002151E70CFA02FCC2F12003D94057
:1049A0004FEA1C4820FA03F300FA02FEB1FBF8F0CC
:1049B00008FB101194401C431FFA8CF7230C43EAA8
:1049C000014300FB07F1994208D91CEB030300F1F6
:1049D000FF362CD299422AD9023863445B1AB3FBC2
:1049E000F8F108FB1133A4B244EA034401FB07F3D6
:1049F000A34208D91CEB040401F1FF3613D2A342F1
:104A000011D902396444E41A41EA00413BE7044603
:104A1000F2E6084608E7C245AFD2B8EB020E63EBF8
:104A20000C060138A9E73146EDE703469AE7304620
:104A3000D4E7B04681E7634402384FE70646234691
:104A4000084611E7023E634432E700BF704700BFEB
:104A5000F8B504460846D4E90C566188A288238834
:104A6000914203F102072ED154F8271049436D1AE1
:104A700066F10006C4E90C5644F827004043D4E927
:104A80000C6101338019B3FBF2F602FB163341F1DE
:104A90000001052A4FF00005C4E90C01238015D15F
:104AA0006388052B19D105220023FFF75BFEFFF772
:104AB00017FC08F0ADF9FFF735FE00220023C4E92A
:104AC0000C236580F8BD01316180D5E70A2A04D145
:104AD00063880A2B01D10A22E6E72846F2E72DE98E
:104AE000F0410746884616461D46FFF7B1FF0446CB
:104AF000414607F13800FFF7ABFF04B1346000B165
:104B00002860BDE8F08100002DE9F74F0A22AF4F81
:104B1000AF4E3B88AF4D03EB8303B3FBF2F3AE4ADA
:104B20009BB213803288DFF8B4829A4234BF0023EC
:104B30000123AB4A1370AB4B1B78012B04D0AA4B5B
:104B40001B78012B40F0FE802B7898F8002013434F
:104B50000CBF01230023A54CA5492370A54B186861
:104B6000FFF7C0FDA44B002800F0EE800022227069
:104B700001222F211A70582001F078FE9F4BA04986
:104B80001868FFF791FDDFF87C92002800F0F480B0
:104B90009D49D9F800300A68002A40F0DE800B6099
:104BA0002B78012B07D1994AD9F8003011680029D8
:104BB00040F0EC801360964B1B78012B03D0954B93
:104BC0001B78012B01D100232370DFF84CC29CF825
:104BD00000300BB100222270DFF84092DFF840A2D3
:104BE00099F80010012904BF002222709AF80020D1
:104BF000012A0BD12A781A4308D1DFF828E28AF873
:104C000000209EF8000001308EF80000DFF818B296
:104C10009BF80020012A834A06D10B4301BF11787B
:104C20008BF800304B1C137013780A2B06D101232C
:104C30002F2154208CF8003001F018FE98F8002045
:104C4000684B012A1B78794A40F0A880002B40F07D
:104C5000A5801178012940F0A1801370744A88F86A
:104C60000030237013609BF8002099F800909AF8A8
:104C700000104A452A7818BF8BF80090914218BF5F
:104C80008AF80020012B16D1DFF8A8B1DFF8A8A11F
:104C90009BF80000DAF80020132800F28480114607
:104CA000564A01308BF8000010680093FFF756FA5F
:104CB000009BCAF8000061490A78012A604A04D1C1
:104CC000002008705F49096811601268DFF878A158
:104CD00010465E49DAF800B001930092FFF702FD3A
:104CE000002800F0BF80B9F1000F40F0BB80019BAD
:104CF000009A012B40F0B68011461046FFF736FBB4
:104D00005349FFF729FA5349FFF7E4FB5946FFF7E8
:104D100025FACAF80000FFF705FD4F4B18604A4B13
:104D20004E49D3F800B05846FFF7DCFC8246002815
:104D300000F0C38001222F21384B1A70532001F05C
:104D400095FDC6E0002306E71870582001F07CFDB1
:104D50002F287FF413AF2E210DE79B1A3C2B404BDD
:104D600007D901222F211A702270592001F07EFDEF
:104D700016E700221A7013E7394B1870592001F01A
:104D800063FD2F287FF40CAF2E21EEE75B1AB3F5FD
:104D9000967F7FF610AF00232B700BE711789942B6
:104DA00018BF13705FE7CDE90023FFF78BFA009A75
:104DB00001461046FFF78EFB214A019B106000223E
:104DC0008BF800200022CAF8002074E700000020C1
:104DD000020000206E0400205C0400206F0400200C
:104DE0006804002004000020320500200500002097
:104DF00000007042140400207504002010040020FC
:104E0000333323C058040020080400200404002089
:104E10006C0400206D040020660400207004002053
:104E20000304002067040020020400200104002085
:104E30005404002000040020FC0300207304002020
:104E4000F80300200C040020F40300200000284197
:104E50000080DC42000020414C0400200000CD44D2
:104E6000740400201422A94B1B68B3FBF2F102FB6F
:104E700011330193002B7FF452AF5846A449FFF73A
:104E800075FAA449FFF726FBCAF800000090FFF767
:104E900049FCDFF884B2009ACBF800004FF07E5155
:104EA0001046FFF701FC00283FF439AF0022019BB8
:104EB000CAF80020CBF8003031E700215846FFF750
:104EC000E9FB002855D0B9F1010F52D1934B83F87B
:104ED00000A042F210713A88DFF83092A2F5DA535E
:104EE000183B9BB28B42DFF838A28E4948D800238A
:104EF0008D4A0B6013708D4ACAF800301370DFF8CA
:104F000030A29AF80030012B40F08880DFF824822C
:104F1000D9F80020D8F80010521A012A0FD9328887
:104F2000B2F5CC6F4FF000026ED955202A7001F017
:104F30008BFC2F2803D12E21552001F097FCD9F8A6
:104F40000030D8F800209B1A072B74D97A4B32888E
:104F50001B88A3F57A7393425AD8002355202B70EF
:104F600001F072FC2F2866D12E21552001F07EFC25
:104F700061E0532001F068FC2F28AAD12E21DDE644
:104F800041F657308242D9F800301DD80A6812B96C
:104F90000B6000231FE09B1A3C2B634B0BD90122B3
:104FA0002F211A70502001F061FC44F268233A88E6
:104FB0009A42EED90AE0002250201A7001F044FC17
:104FC0002F28F2D12E21EDE700230B60DAF8002024
:104FD000D9F8003012B9CAF8003090E79B1A3C2B80
:104FE000524B06D901222F2151201A7001F03EFCAC
:104FF00085E7002250201A7001F026FC2F287FF44C
:105000007EAF2E215020F1E72F212B70227093E7E5
:1050100001232B7000232F212370A6E7022B0AD136
:10502000454B1A8833889A42444A00F2C5800023CF
:1050300088F80030136025784148012D40F0028146
:105040000178D9F80030002940F0C8803D4A057049
:10505000136040F201123C4B1B685A633B4B3C4CC3
:105060001B78012B00F0048123780BB901232370F6
:105070002578D9F800304DB136490A68002A40F049
:105080000081354A0B601360344A1360D9F8004040
:10509000002C34D0C822B4FBF2F302FB1343002BE4
:1050A0002DD12F492F4B304A09683048FFF717FDA3
:1050B0002F4B304A39883048FFF711FD2F4A31888D
:1050C0002F4B3048FFF70BFD2F4B1868FFF72AFBDB
:1050D0002E4B01462E4A2F48FFF701FD2E492F4A3D
:1050E00009882F4B2F48FFF7FAFC2F4B1868FFF762
:1050F00019FB2E4B01462E4A2E48FFF7F0FC0134D7
:10510000C9F8004003B0BDE8F08F00BF580400208C
:105110000000AA420000C8424C0400207004002095
:10512000EC030020F00300206D0400206C0400203C
:1051300072040020500400205C040020540400206D
:10514000E8030020E4030020F449002004000020CC
:1051500069040020DC030020D8030020D4030020D1
:1051600048040020400400204404002038020020AD
:10517000380400203C040020C80100203404002032
:1051800030040020580100201404002028040020CE
:105190002C040020E80000206404002024040020E7
:1051A0002004002078000020600400201804002063
:1051B0001C040020080000201168D9F800300029E4
:1051C0003FF438AF5B1A3C2B7FF635AF012388F8EC
:1051D000003000232F2156202370C7E601290AD171
:1051E00059490A689A1A092A7FF638AF02230370D0
:1051F00000230B6032E702297FF430AF9AF80020D9
:1052000072B952480468002C7FF428AF504A0360FA
:1052100013602A468AF800504E4803F0B7FB1DE79A
:10522000012A7FF41BAF494C20681B1A152B04D9A7
:1052300000228AF800102260EEE77FF40FAF4FF4EF
:105240008061E9E70024444B22461C603F4B047018
:105250001C603D4B02211C603D4B3E481C603F4B97
:105260008AF800401B685C6303F090FB2246E6E787
:1052700000233B4A237013603A4A13603A4A136092
:10528000F6E6022D2BD0032D44D0012D7FF4FEAE87
:105290009A1A4CF2A75335499A42088831880BD99B
:1052A00088423FF6F3AE2F21522001F0DFFA0223AD
:1052B00023702F4B1D70E9E688427FF6E7AE02238C
:1052C000002223702A4B52201A7001F0BDFA2F28B9
:1052D0007FF4DCAE2E21522001F0C8FAD6E60A2176
:1052E0003A88308802EB4202B2FBF1F21D490968AC
:1052F0005B1A20498B4208D982423FF7C7AE2F2163
:10530000522001F0B3FA0323D2E782427FF7BEAE08
:105310000323D5E71449328809685B1A16498B4282
:105320000CD9B2F5487FFFF4B1AE2F21522001F025
:105330009DFA0F4B1D7004232370A7E6B2F5487F3A
:10534000BFF4A4AE0423BBE7E4030020E003002085
:1053500050040020000C014054040020F4490020B7
:10536000DC030020D8030020D40300205C040020CC
:10537000710400209F6806001FEE0F00002340F21A
:10538000C17270B5084C094EC4E90023C4E9023368
:10539000074D206133462A462146064802F0AAFB03
:1053A0000028F7D170BD00BFD40400208404002081
:1053B000EC040020B0150020FE22064B1A700022DB
:1053C000587008209A70DA701A715A719A71DA71ED
:1053D000FFF7D4BFEC04002038B5124B12489D698A
:1053E00002F080FD114C6B07206013D50E4802F0CF
:1053F0002DFB0D4802F058FB0D4B1A6942F000726C
:105400001A611A6922F000721A6106F021FC06483E
:1054100002F0F1FA236823B1BDE83840024802F0F7
:1054200063BD38BD00640040B01500207804002042
:10543000001002402DE9F347934FFFF7CDFF3B7873
:10544000924E022B924C40F00981924A33681178B7
:10545000002940F00381904A904D5343B3F1333F0C
:1054600034D88F4A8F481378DFF83CA20E2B97BFB1
:10547000137811700133DBB298BF137013780021D9
:1054800063701523A370894B12781B782171E37028
:1054900043EA024343F4A8536171A171E17101220F
:1054A00001A9019302F0C9FD04232B615123DFF808
:1054B000E091DFF8E88120702B6053464A46414670
:1054C0007B4802F017FB0028F7D160603368C3B94E
:1054D000784BDFF8D4A11B68DFF8B4912360042374
:1054E0002B6140F2ED63DFF8B4812B6053464A46EE
:1054F00041466F4802F0FEFA0028F7D12861286083
:1055000027E0002323706370A370E3706A4BDFF819
:1055100098A11B88DFF8789123711B0A6371674B90
:10552000DFF878811B88A3711B0AE37108232B61C4
:1055300040F2EF632B6053464A4641465C4802F016
:10554000D9FA0028F7D133686060DB07286128604A
:10555000BED506223368B3FBF2F102FB1133D3B997
:10556000574BDFF844A11B68DFF824912360554BAB
:10557000DFF828811B68636008232B6140F2EE632B
:105580002B6053464A464146494802F0B3FA002888
:10559000F7D12861286033684B4A5343B3F1553F34
:1055A00029D84A4BDFF800A11B78DFF8E49023707C
:1055B000474BDFF8E8801B786370464B1B681A0A7C
:1055C000A370E2701A0C1B0E6371434B22711B789F
:1055D000A371424B1B78E37108232B614FF4DE6308
:1055E0002B6053464A464146314802F083FA002870
:1055F000F7D128612860336899072FD10A22384BE8
:10560000DFF8A4A01B78DFF888902370354BDFF813
:105610008C801B786370344B1B78A370334B1B78E2
:10562000E370334B1B782371324B1B786371324B21
:105630001B88B3FBF2F3A371304B1B78E371082393
:105640002B6140F2F1632B6053464A4641461848AD
:1056500002F050FA0028F7D128612860284A136820
:10566000392B03F101031360336888BF012103F173
:10567000010333604FF0000388BF3970236063601B
:1056800002B0BDE8F08700BFA80200208804002017
:10569000C304002031050020CDCCCCCC8C040020EC
:1056A000C1040020D81500208404002068040020D4
:1056B000B01500201004002000000020020000208F
:1056C0001404002060040020ABAAAAAA6D040020E4
:1056D0006C0400204C0400206E0400206F040020A5
:1056E0007004002066040020670400206B04002082
:1056F000710400207404002064040020750400205C
:105700008004002038B5134C134D22462B4601214E
:1057100002F042FA40F20272236893420FD10F481E
:10572000294603602369036100F0CCFC38B90C4AB8
:105730002B6813606B68536001220A4B1A700022B9
:10574000C4E9022222616260A261226062612A6071
:105750006A6038BDA4040020CB040020F8040020B7
:105760003B05002052050020F8B5784B06461B7813
:10577000774D012B774C12D12B462246002102F0A7
:105780000BFA40F2FF3322689A4206D12B78122B93
:1057900003D10021084601F06BFA03F077F90021EC
:1057A00030466B4B6B4A02F0F7F9A168002940F0D4
:1057B00088802368B3F5F86F40F08380227CF2B1D3
:1057C0002B78F43B0B2B7AD8DFE803F04179797919
:1057D000797972657934240601220021FF205E4B1D
:1057E0001A7059705D4B18708020987008205A709C
:1057F000D870187159719A71DA71FFF7BFFD0023E3
:10580000C4E9023323616360A361236063612B6099
:105810006B60F8BD0023FF214F4A137053704F4A4D
:10582000117053709370D370137153719371D3715E
:105830000820E2E7FF22494B1A70474A52785A7013
:1058400000229A70DA701A715A719A712EE0072A42
:1058500003D82220FFF7B0FDD1E76A78531E062B4C
:10586000F7D8EB78002BF4D1FF203C4B6F68187011
:1058700018467E5C013103F8016FCEB2B242F8D80F
:10588000561CF6B2C2F107020021D2B2304407F032
:1058900057FA3046B1E7FF22304B1A7000225A7097
:1058A0009A70DA701A715A719A711022DA71BFE720
:1058B000012ACED0FF22294B1A700122BFE72020F7
:1058C000C8E740F2FF32236893420BD12B78122BAA
:1058D00095D100230221224A1370224A1170224AD4
:1058E00013608CE7502B8AD104210023184810F84C
:1058F000012F534008225EB25B00002EDBB202F1A2
:10590000FF32B8BF83F0070312F0FF02F3D1013971
:10591000EDD11649164A0B70137828780133DBB2A3
:1059200013700B78697898420DD1AB78162B0AD199
:1059300013785B1A002BB8BF5B42012B03DCEA78BB
:105940000C4B1A705BE7117059E700BFA4050020EB
:10595000CB040020A4040020F4040020EC04002068
:10596000C2040020A8020020800400207C04002043
:10597000C0040020040000200B0A017043700B0CCF
:10598000090E8370C1707047F8B507460E4601F0E6
:1059900011FB0546154C01F00DFB2369401B984295
:1059A00001D3002016E02378002BF4D000232370CD
:1059B000A37813F00F0310D194F90420E378002AA0
:1059C0003B70237904DA0F33DBB2082B03D80123B1
:1059D00001203370F8BDA37AFAE7012B03D101F05F
:1059E000E9FA0546D7E74FF0FF30F3E7B4020020AD
:1059F0002DE9F0411446142207468AB09DF84080F4
:105A00000D460DEB020000211E4607F099F90497A0
:105A1000B8F1000F0DD0082231460DEB020007F05F
:105A20008FF922462946082402A807F0BBF90DEB9E
:105A300004050894054C2A46204601AB04A902F04F
:105A400059F80028F7D10AB0BDE8F081B015002060
:105A500030B505460C4689B01422002103A807F092
:105A60006FF902950694064D064C2A46204601AB76
:105A700002A902F03FF80028F7D109B030BD00BFFD
:105A800033050020B0150020054A80F0A53302FB45
:105A90000131044B00BA0B4480EA7370704700BFB9
:105AA000795B3D1F6824571310B500680C4600BA97
:105AB0001946FFF7E9FF030E2370030C6370030A16
:105AC000A370E07010BD0000F8B5002501F072FA77
:105AD000184E194B96F802C0184A83F800C0184BAC
:105AE000184C1D70184B84F802C04340C3F30740A4
:105AF000C3F307211F0EDBB29170D3701770507083
:105B00003278207104322270727861714032627092
:105B10000E4AA37111690E4B106819610130C9B2A8
:105B2000E770E5711860FFF793FF256065603560E9
:105B30007560F8BD430500204C0500204D05002090
:105B40004B050020330500205A5AA5A5F804002073
:105B50001405002004222DE9F341234B234D1B782B
:105B60000DEB02012248EC7895F804806F79AE794C
:105B7000FFF79AFF9DF804206B78A2421D4C2CD1B0
:105B80009DF80520424528D19DF80620BA4224D12F
:105B90009DF80720B24220D10121174A40331170ED
:105BA0000222227000226370AB780026E270134A52
:105BB000A3701169124B106819610130C9B22671C6
:105BC0006671A671E6711860FFF742FF2660666095
:105BD0002E606E6002B0BDE8F081032222707F2249
:105BE00062703522E1E700BF4C050020430500202C
:105BF0004D050020330500204B050020F80400204F
:105C000014050020F8B50323204C214D23707F2379
:105C100063706B781F4FA3707823E3702B791E4E4F
:105C200023716B7939696371AB793868A371EB794A
:105C300001303161C9B2E3713060FFF709FF18220A
:105C40005021164807F07CF8042001F0B9F92B78B0
:105C5000396923706B78386840336370AB78316191
:105C6000A370EB780130E3702B79C9B223716B79A3
:105C700030606371AB79A371EB79E371FFF7E8FEF4
:105C80000023236063602B606B60F8BD3305002048
:105C900043050020F804002014050020C80200205D
:105CA00038B5124C124DE2782378EA7022792B70C5
:105CB0002A71627963786A71A2794033AA71E279B4
:105CC0006B70EA71A3780B4AAB7013700A4A0B4BE6
:105CD0001169106819610130C9B21860FFF7B8FE88
:105CE00000232B606B602360636038BD4305002098
:105CF0003305002031050020F804002014050020A1
:105D000038B5124C124DE2782378EA7022792B7064
:105D10002A71627963786A71A2794033AA71E27953
:105D20006B70EA71A3780B4AAB7013700A4A0B4B85
:105D30001169106819610130C9B21860FFF788FE57
:105D400000232B606B602360636038BD4305002037
:105D50003305002030050020F80400201405002041
:105D600038B5134D134C2B78013323706B784033C7
:105D70006370AB78A370EB78E3700F4B1868FEF795
:105D8000D1FC6B790D4A6371AB791169A371EB7921
:105D90002071E37110680A4B01301961C9B21860B3
:105DA000FFF756FE0023236063602B606B6038BDF5
:105DB000430500203305002098470020F804002008
:105DC0001405002038B5134D134C2B78134A0233B9
:105DD00023706B78116940336370AB781068A370DF
:105DE000EB780130E3700E4B1B7823710D4B1B7861
:105DF0006371AB79A371EB79E3710B4B1961C9B294
:105E00001860FFF725FE0023236063602B606B6042
:105E100038BD00BF4305002033050020F8040020F2
:105E2000D54F0020D44F00201405002038B5124D66
:105E3000124C2B78043323706B7840336370AB784B
:105E4000A370EB78E3700E4B1B681A0A62711A0C90
:105E5000A2710C4A23711B0E11691068E3710A4B81
:105E600001301961C9B21860FFF7F2FD0023236009
:105E700063602B606B6038BD430500203305002054
:105E8000C44F0020F80400201405002038B5124D3E
:105E9000124C2B78043323706B7840336370AB78EB
:105EA000A370EB78E3700E4B1B681A0A62711A0C30
:105EB000A2710C4A23711B0E11691068E3710A4B21
:105EC00001301961C9B21860FFF7C2FD00232360D9
:105ED00063602B606B6038BD4305002033050020F4
:105EE000D04F0020F80400201405002038B5124DD2
:105EF000124C2B78043323706B7840336370AB788B
:105F0000A370EB78E3700E4B1B681A0A62711A0CCF
:105F1000A2710C4A23711B0E11691068E3710A4BC0
:105F200001301961C9B21860FFF792FD00232360A8
:105F300063602B606B6038BD430500203305002093
:105F4000CC4F0020F80400201405002038B5124D75
:105F5000124C2B78043323706B7840336370AB782A
:105F6000A370EB78E3700E4B1B681A0A62711A0C6F
:105F7000A2710C4A23711B0E11691068E3710A4B60
:105F800001301961C9B21860FFF762FD0023236078
:105F900063602B606B6038BD430500203305002033
:105FA000C84F0020F80400201405002038B5114C1B
:105FB000114D2378114A2B706378116940336B704F
:105FC000A3781068AB70E3780130EB7023792B7104
:105FD00063796B71A379AB71E379EB71084B19614C
:105FE000C9B21860FFF734FD00232B606B6023609B
:105FF000636038BD4305002033050020F80400200D
:106000001405002038B5124C124DE2782378EA705E
:1060100022792B702A71627963786A71A279403390
:10602000AA71E2796B70EA71A3780B4AAB701360C6
:106030000A4A0B4B1169106819610130C9B2186026
:10604000FFF706FD00232B606B602360636038BDA3
:106050004305002033050020C04F0020F804002035
:106060001405002038B5124C124D2378A2792B70FC
:106070006378AA7140336B70A378E279AB70E378F0
:10608000EA71EB7023790C4A2B71637913700B4A18
:106090006B7111690A4B106819610130C9B218603F
:1060A000FFF7D6FC00232B606B602360636038BD74
:1060B000430500203305002032050020F8040020AD
:1060C0001405002010B50F4B02465C7804F0FF0069
:1060D000ACB19068A0B91468DA6894420FD10A781C
:1060E00002F0F002302A0AD11A783AB90A68C3F8E5
:1060F00002204A68C3F8062001221A70012010BD50
:106100000020FCE7B40200202DE9F04F0125584F94
:1061100089B0072A884616469DF848A0029300F1E8
:1061200001093D70D4B216D80DF119008DF8184050
:1061300006F038FE6219029B4846CDF800A0D2B2A4
:1061400006A9FFF755FC0023B0FA80F03B70400928
:1061500009B0BDE8F08F4FF0000BC2F3032242F00C
:1061600010028DF818200A688DF81940CDF81A2011
:10617000404C8A886570E060ADF81E2084F800B05D
:1061800008224846CDF800A006A9FFF731FC28B147
:1061900084F801B087F800B00020D9E7A27A8DF822
:1061A000160003900DF117010DF116008DF8172060
:1061B000FFF7EAFB0028039B02DC63703B70EBE710
:1061C0004FF0060B9DF816409DF816307BB174B960
:1061D0000DF117010DF11600FFF7D6FB002804DCC6
:1061E000244B5C70224B1C70D6E79DF81640A6EB42
:1061F0000B07072F28BF072745F020030722029926
:106200000DF119008DF8183006F09AFD3A4608EBAA
:106210000B010DF1190006F0C5FD7A1C4846029BE2
:10622000CDF800A0D2B206A9FFF7E2FB28B1002307
:10623000104A53700E4A1370AEE79DF816305F4453
:1062400001351FFA87FB05F00F0513B10CB1013CB6
:10625000E4B29DF8170008B100F0B2FE5E45B3D875
:106260000023044A01205370014A137070E700BFF5
:1062700051050020B4020020F0B5184D9DB06B7898
:10628000EA7840338DF80C30AB788DF80E208DF81D
:106290000D3003AB01221946114E124C54F8040B79
:1062A00016F8017B0132DF70070C1F71192A4FEAC3
:1062B00010275F71987103F10403EFD100240A489D
:1062C0000094234663220068FFF71EFF074B2C60F3
:1062D0001C605C606C601DB0F0BD00BF4305002019
:1062E000C8020020E0D10008F80400203305002097
:1062F000712310B52C4C96B08DF80C30A37804A8FF
:106300008DF80D30E37834228DF80E3023798DF836
:106310000F30264B1968FFF72FFB254B05A819688E
:10632000FFF72AFB234B06A81968FFF725FB224B32
:1063300007A81968FFF720FB204B08A81968FFF78A
:106340001BFB1F4B09A81968FFF716FB1D4B0AA87A
:106350001968FFF711FB1C4B0BA81968FFF70CFB22
:106360001A4B0CA81968FFF707FB194B0DA8196801
:10637000FFF702FB174B0EA81968FFF7FDFA164B43
:106380000FA81968FFF7F8FA01231448009303A92E
:1063900055230068FFF7B8FE0023114A23601360FD
:1063A0005360636016B010BD430500204404002014
:1063B000400400203C040020380400203404002065
:1063C000300400202C040020280400202404002095
:1063D000200400201C04002018040020F8040020E1
:1063E00033050020F8B50323204C214D23707F2373
:1063F00063706B781F4FA3707823E3702B791E4E68
:1064000023716B7939696371AB793868A371EB7962
:1064100001303161C9B2E3713060FFF719FB00F060
:1064200037FBEA782B78E2702A79237022716A7937
:106430006B786271AA793969A271EA793868403358
:106440006370E271AB780D4A31610130C9B2A3705B
:1064500013603060FFF7FCFA012000F0B1FDBDE8E9
:10646000F8400021084600F003BC00BF33050020BF
:1064700043050020F804002014050020C04F002030
:1064800038B50323104C114D23707F2363706B7854
:106490000F4AA3702223E3702B79116923716B7962
:1064A00010686371AB790130A371EB79E371094B2B
:1064B0001961C9B21860FFF7CBFA0023236063604B
:1064C0002B606B6038BD00BF330500204305002002
:1064D000F804002014050020F8B503231F4C204DBC
:1064E00023707F2363706B781E4FA3707823E37053
:1064F0002B791D4E23716B7939696371AB793868DB
:10650000A371EB7901303161C9B2E3713060FFF7FB
:106510009FFA00F0BDFA2B78396923706B783868E0
:1065200040336370AB783161A370EB780130E37076
:106530002B79C9B223716B7930606371AB79A37128
:10654000EB79E371FFF784FA012000F039FDBDE833
:10655000F8400021084600F08BBB00BF3305002047
:1065600043050020F80400201405002070B5134DE9
:10657000134C2B78134E043323706B7840336370C5
:10658000AB78A370EB78E3700F4B1A7822715A78CE
:1065900062719A78DB78A271E3710C4B1969186803
:1065A00031610130C9B23060FFF752FA0023336124
:1065B0003360236063602B606B6070BD4305002017
:1065C0003305002014050020B0020020F80400204C
:1065D000F8B50026134B144C1E70144B144D1E704E
:1065E0002378144F2B70637840336B70A378AB70B3
:1065F000E378EB7023792B7163796B71A379AB71BD
:10660000E379EB710C4B1969186839610130C9B233
:106610003860FFF71DFA2E606E60266066603E618E
:106620003E60F8BD6704002043050020660400209A
:106630003305002014050020F804002038B572B698
:106640007848794C0278794B002A46D0784A11680C
:106650002160516861600021116051604FF47A72CD
:1066600001701A6062B6734D2A683AB972490A60BD
:106670000121724A917241F2883111611B680BB994
:106680006D4A13606378142B01D1FFF7BBFA63786E
:10669000192B01D1FFF7F0FD6378282B05D1664B4C
:1066A0001B68032B1ED1FFF7FBFA6378852B05D1FE
:1066B000614B1B68032B18D1FFF722FB6378222B59
:1066C0001DD1E378062B13D8A3B1023B042B14D8B9
:1066D000DFE803F02124272A2D001A68002AC1D000
:1066E000013ABEE7FFF7CCFEDFE7FFF7C9FEE5E7BB
:1066F000802B1FD0FFF7C4FE01E0FFF797FB627805
:10670000A378272A1ED1012B17D0A378022B29D1D9
:10671000FFF720FA16E0FFF7B9FBF0E7FFF7E6FB1B
:10672000EDE7FFF713FCEAE7FFF74CFBE7E7FFF7BE
:1067300017FBE4E7FFF71AFFE1E7FFF7C5F9637816
:10674000272BE2D0A378022B0CD13D4B1A783D4B7E
:106750001B7852EA030140D1374B1B68032B01D150
:10676000FFF740FE6378112B0BD1A378012B08D1E2
:10677000334B1A78334B1B7852EA030134D1FFF7BD
:10678000ABFE22796378402A03D1312B0DD1FFF77C
:106790001FFF22796378422A07D1312B11D1264B72
:1067A0001B68032B27D1FFF75DFC22796378412A10
:1067B00007D1312B05D1204B1B68032B1ED1FFF7CE
:1067C00097FD6378102B21D1A378012B19D0A378E2
:1067D000032B23D1FFF716FC18E0012A01D0012B6F
:1067E000C0D1FFF74DFEBDE7012A01D0012BC8D172
:1067F000FFF746FEC5E7FFF743FED6E7FFF740FE8B
:10680000DFE7FFF7FFFB6378102BE0D063783E2BC8
:1068100004D1A378802B01D1FFF7C8FB2B6801338B
:106820002B6038BD5205002043050020AC0200203B
:106830003B0500202C050020C04F0020B4020020A2
:106840000400002032050020002310B5054A52F84C
:10685000044B1946844203F10103F8D1024B585C02
:1068600010BD00BFE0D10008C80200202DE9F041B2
:1068700000230E46204A88B052F8045B1C4685422D
:1068800003F10103F8D11D4B1B788BBB1C4F17F88C
:106890000480B04503D03946012000F087F82F2E40
:1068A0003E5525D1B8F12F0F22D01422002103A884
:1068B00006F046FA0023134C01932B0A63702B0C4D
:1068C000A3700523069340F2FE7325702D0EE5702C
:1068D0000D4D267102932246284601AB02A901F014
:1068E00009F90028F7D120706070A070E070207165
:1068F00008B0BDE8F08100BFE0D1000830050020FD
:10690000C802002053050020B015002002464FF0B9
:1069100000630649184603F580639A4201D2824219
:1069200002D28B42F6D10020704700BF000002085F
:1069300013B50C48FFF7EAFF044601F0A9FD002358
:10694000094801A9036001238460C36001F050FE7F
:10695000044618B101F0B8FD02B010BD01F0AAFD67
:106960002046F9E700FC00085805002070B50C46E9
:106970000646154601F08CFD04EB8505361BAC423E
:1069800004EB060103D101F095FD00240CE0002387
:10699000022054F8042B01F0C7FD0028EFD001F0CD
:1069A00093FD044601F086FD204670BD2DE9F04FB1
:1069B000894685B072B600224FF0FF33CDE902233D
:1069C0000C2303FB00F4DFF874B01D4E3BF8048089
:1069D0001C484FEA98084246356801F02EFB3BF808
:1069E000043005F110021344174A18499342074630
:1069F0000BEB040A21441AD8022228460835FFF777
:106A0000B5FF424649462846CAF80450FFF7AEFF94
:106A10003BF8044002222C44204602A90834029785
:106A2000FFF7A4FF346062B605B0BDE8F08F0191B6
:106A300000F00EF8022235680199DEE76C050020AF
:106A40009C050020D8150020E6FF000884050020E2
:106A500013B572B6FFF76CFF4FF0A533094C0A4827
:106A600002226946CDE900332060FFF77FFF2368EB
:106A7000012008332360054B9968FFF797FF62B642
:106A800002B010BD9C05002000FC0008F4020020AC
:106A900010B572B60A4C2378012B04D1094B0020A3
:106AA0001968FFF783FF6078012803D1054B9968C7
:106AB000FFF77CFF0222044B1A7062B610BD00BFC4
:106AC000E0020020F40200206905002001EB8202B0
:106AD000401A914200D17047435841F8043BF8E70F
:106AE0002DE9F04186B072B600232E4DCDE9013379
:106AF0002C682D4B002C3ED12B6002222A4801A984
:106B0000FFF7E4FF019B029AB3F1A53F3AD1B2F13E
:106B1000A53F3AD1244C254E254FDFF8988002221C
:106B2000304603A9FFF7D2FF9DF80C20012A24D894
:106B30000C23534317F803C006F10801944507EBF3
:106B4000030E11D1BDF80E00BEF8022082420BD117
:106B50001948C41800F803C018486280C252C4180B
:106B6000103261609419214601F1100343452960F8
:106B700003D80E46D3E79C42BFD02C6062B606B065
:106B8000BDE8F0811340013301D0FFF7D1FE4FF093
:106B9000A5330222044801A9CDE90133034CFFF7D4
:106BA000E5FEEAE79C05002000FC000808FC000860
:106BB0001C030020E6FF0008840500206C0500206F
:106BC00073B572B60023CDE90033FFF789FF1E4A83
:106BD0001E4D137B1E4C013BDBB2FD2B28D8D38905
:106BE000FF2B25D023B3AA89A16828699208FFF753
:106BF0006DFFAE892869022269463044FFF766FFBF
:106C0000A1681448B20801F018FA009B834209D029
:106C1000114BAA899968A06806F0C4F80120A16800
:106C2000FFF7C4FE02220D4B1A7062B602B070BDAF
:106C30000B4B0C4A07CA83E807000B4B0B4A07CAE9
:106C400083E80700E4E700BF840500206C0500200E
:106C5000F4020020D8150020E4020020680500207E
:106C60009005002028030020780500201003002054
:106C700000220C4B1A600C4B19700C4B187018B199
:106C80000B4A136801331360BFF34F8F09490A4B56
:106C9000CA6802F4E0621343CB60BFF34F8F00BFBA
:106CA000FDE700BFC84F0020D44F0020D54F002083
:106CB000C44F002000ED00E00400FA051FB572B6D5
:106CC000FFF7E6FE002403224FF4C243694634482E
:106CD000CDE90032CDE9024401F0DEFC40F22A4366
:106CE00069463048009301F0D7FC4FF400536946E1
:106CF0002D48009301F0D0FC62B62C4800F0E4FC73
:106D00002A4800F051FC72B6294B21469A6929485D
:106D100022F008029A619A6922F010029A615A6977
:106D200022F001025A619A6922F400729A619A690A
:106D300022F001029A619A6922F400629A6102F0DB
:106D400041FE1D4802F0E0FA1C4801F05DF91948C7
:106D500002F018FB184802F0A1FA05F017FE60B225
:106D6000013401F033F9522CF9D14FF0E022012423
:106D70001369134823F00503136102F0D9FA114B8C
:106D800011481C7000F0A4FE62B600F02BF92146F9
:106D9000204601F06BFE00210846FFF769FF00BFA7
:106DA00000080140000C0140001001406415002063
:106DB00000100240F44900208C480020D815002023
:106DC00040490020A4050020B015002038B5344803
:106DD00001F00BFE334A0121136833480533136079
:106DE000324A334C1368334D0533136001F0C8FD4C
:106DF000314A324B11782870197051785970917856
:106E0000D2789970DA70236833B92D4B1B7843B36D
:106E10002F215720FFF72AFD2A4B2B4A1B78012BE5
:106E200006D02B78012B03D0284B1B78022B1FD1C7
:106E30000121274B19704FF4FA63264913600B6048
:106E40001368254A1278042A1DD033B90222204B38
:106E50001A704FF4FA621F4B1A60236801332360E3
:106E600038BD5720FFF7F0FC2F28D5D12E21D0E7D1
:106E70001368002BE4D0013B1360002BE0D102210A
:106E8000134B1970DCE7002BE7D1124A1368002B73
:106E9000E3D0013B1360002BDFD1FFF70FFF00BFF2
:106EA000AC470020CC4F002000080140C84F002014
:106EB000A0050020A5050020B0020020D64F00202C
:106EC000D54F00200400002038030020A802002035
:106ED0003C030020340300206904002008B50F485B
:106EE00001F083FD0E4A13681E331360FEF774FA37
:106EF0000C4800F0F7FF10B10A4800F0F5FF01213F
:106F0000094801F03DFD012803D100210846FFF7A3
:106F1000AFFEBDE8084001F0B9BD00BFAC4700209E
:106F2000D04F0020B01500200008014005F0A4FD5E
:106F30000B480C490C4A002302E0D458C4500433D7
:106F4000C4188C42F9D3094A094C002301E01360AC
:106F50000432A242FBD305F001FF05F0B7FB7047F6
:106F600000000020B403002064D30008B803002010
:106F7000E04B0020FEE7000008B5074A0320136835
:106F800043F01003136000F0BFFF062005F0B0FCD3
:106F900005F086FC002008BD00200240034A044B97
:106FA00011681B780B441360704700BFA8050020D0
:106FB0003D030020014B1868704700BFA805002062
:106FC00038B50446FFF7F6FF0546631C1EBF044BA9
:106FD0001B78E418FFF7EEFF431BA342FAD338BD3A
:106FE0003D030020024A536823F0010353607047B9
:106FF000002004E0436A9A6A12F0500F1AD19A6A8C
:1070000042F400729A621A68926802F46022B2F541
:10701000602F0CD11A7B52B99A6A22F480729A625C
:107020009A6AD2045EBF9A6A42F001029A621846D6
:107030001A6B10471B6A1B6B1847406A436B184753
:10704000406A836A43F040038362C36A43F00403E7
:10705000C362C36B1847704770B5036804461D6868
:107060005E68B00626D5A90724D5A26AD2065EBFFF
:10707000A26A42F40072A2629A6802F46022B2F537
:10708000602F10D1227B72B95A6822F020025A6018
:10709000A36A23F48073A362A36AD8045EBFA36AC1
:1070A00043F00103A362236B204698476FF012025E
:1070B00023681A60310630D56A072ED5A36ADB062D
:1070C0005EBFA36A43F40053A36223689A6802F484
:1070D000E042B2F5E04F0AD05A68500516D49A68DB
:1070E00002F46022B2F5602F10D1227B72B95A6887
:1070F00022F080025A60A36A23F48053A362A36A39
:10710000D9055EBFA36A43F00103A362236C204646
:1071100098476FF00C0223681A6072060CD5EB07D3
:107120000AD5A36A204643F48033A362A36B984731
:107130006FF0010223681A6070BD0000002373B570
:10714000019390F824300246012B71D0012380F87E
:1071500024304C680068062C0D684FEA840325D85B
:1071600023441F24466B053B9C4026EA040405FA91
:1071700003F3234343630C681668092C04EB4400B3
:107180008B684FF0070429D9F5681E38844025EA3A
:10719000040483402343F3600B68103B012B25D983
:1071A0000020002382F8243002B070BD0C2C234450
:1071B0004FF01F0409D8066B233B9C4026EA0404C9
:1071C00005FA03F323430363D5E7C66A413B9C40BA
:1071D00026EA04049D402C43C462CCE73569844010
:1071E00025EA0404834023433361D5E7136811483B
:1071F000834217D198680002D2D4986840F4000006
:1072000098600B68102BCBD10B4B0C491B68B3FB60
:10721000F1F30A214B430193019B002BC0D0019B4A
:10722000013BF8E7936A012043F020039362B8E73B
:107230000220B9E7002401405803002040420F001B
:1072400030B590F824200346012A1FD0012280F88F
:1072500024200268087A012850680CBF40F04000E2
:1072600020F0400050601C68D1E9002065680243AE
:107270000748284002436260C8681A6850620020CC
:1072800009691A68916283F8240030BD0220FCE786
:10729000E0FD3FFF002337B50193036804469A6879
:1072A000D20702D5002003B030BD9A6842F0010237
:1072B0009A60144B144A1B68B3FBF2F30193019BD1
:1072C000E3B9FFF777FE054623689B68DB07E9D43F
:1072D000FFF770FE401B0228F6D923689B6813F065
:1072E0000103F1D1A26A012042F01002A262E26A17
:1072F00084F8243042F00102E262D4E7019B013BB2
:10730000DCE700BF5803002040420F002DE9F041A8
:10731000414B9046026804469A420F4602D03F49CC
:107320008A4203D15B6813F4702F70D194F8243033
:10733000012B6ED00123204684F82430FFF7AAFFEA
:10734000064600285FD1A56A2168344B25F4706594
:1073500025F0010545F480759942A56204D12E4AB5
:10736000536813F4702F40D1A36A23F48013A362EF
:107370004B685A0505D5A36A23F4405343F4805360
:10738000A362A36A264A13F480531CBFE36A23F066
:107390000603E362002384F82430236A9A62236A96
:1073A000204ADA62236A204A1A636FF002022368D5
:1073B0001A602268936843F480739360216843469F
:1073C0003A46206A4C3100F0B1FE23689A6802F414
:1073D0006022B2F5602F9A680CBF42F4A00242F41A
:1073E00080129A603046BDE8F081A36A43F48013AE
:1073F000A36253685B0541BFA06A20F4405040F48B
:107400008050A062BDE7002384F82430EAE701261B
:10741000E8E70226E6E700BF00240140002801401B
:10742000F56F00083B7000084170000838B503682C
:1074300004469A68D10701D4002038BD9A6822F02A
:1074400001029A60FFF7B6FD054623689B68DB07DB
:10745000F2D5FFF7AFFD401B0228F6D923689B68E1
:10746000DA07F2D5A36A012043F01003A362E36AAE
:1074700043F00103E362E0E770B5044600287CD0E6
:10748000836A9BB9C36280F824303F4B03633F4B50
:1074900043633F4B83633F4BC3633F4B0364436C86
:1074A0000BB93E4B43642046636C98472046FFF778
:1074B000BDFFA36A13F0100361D100285FD1A26A57
:1074C000616822F4885222F0020242F00202A262B3
:1074D000E269257B1143A26841EA4501B2F5807F4C
:1074E00003D0561E724272411202267D012E07D130
:1074F000002D2FD1A569013D42EA453545F40062D2
:107500002668756825F469452A4372602568244A0F
:10751000AE6832400A43AA60A268B2F5807F01D00B
:10752000012A02D12369013B1B052568EA6A22F47E
:1075300070021343EB6223689A681A4B1340994216
:1075400011D10023E362A36A23F0030343F0010394
:10755000A36270BDA56A45F02005A562E56A45F005
:107560000105E562CCE7A36A23F0120343F01003A0
:10757000A362E36A43F00103E3620120E9E7A36A3F
:1075800043F01003A362F8E76DC2000857700008CB
:1075900039C50008EDC400080578000881BB000863
:1075A000FDF7E1FFFE0E1FFF38B50446002865D049
:1075B000836A43F002038362FFF738FF0546002821
:1075C00057D16FF01F0223681A6022682C4B516854
:1075D0000B40536022682B4B91680B4093602268EC
:1075E000D36803F07F43D3602268136903F04043FC
:1075F00013612168244B4A691A404A6121688A69EB
:107600001A408A612168CA691A40CA6121680A6AF7
:107610001A400A6221684A6A1A404A6221688A6AE4
:1076200013408B6222681949D36A03F07F43D36207
:107630002268D36A03F07F43D3622268136B03F09E
:10764000404313632268536B03F040435363226843
:10765000936B0B4093632268936B0B409363A36C13
:107660000BB90B4BA364A36C204698470023E3623D
:10767000A362002384F82430284638BD0125FBE7A7
:1076800000003FFFF00601FF00F0FFFF0000C0FF19
:1076900015BC000810B590F824300446012B11D019
:1076A000012380F82430FFF7C1FE38B9A36A23F420
:1076B000885323F0010343F00103A362002384F8FD
:1076C000243010BD0220FCE738B590F82430044681
:1076D000012B25D0012380F82430FFF7A7FE0546B3
:1076E000A0B92268936823F480739360206A90F8AD
:1076F0002130022B0AD100F05EFDA36A58B923F4B1
:10770000885323F0010343F00103A362002384F8AC
:107710002430284638BD43F040030546A362F5E710
:107720000225F6E7002373B5019390F82430044650
:10773000012B62D0012380F82430FFF777FE20462A
:10774000FFF7A8FD054600282FD1A36A022023F4E5
:10775000885323F0020343F00203A362284B1E6800
:1077600001F0C0FCB6FBF0F676000196019B03BB6E
:107770002268936843F008039360FFF71BFC0646FA
:1077800023689A68110718D49A6842F004029A6034
:10779000FFF710FC064623689B685B0723D4A36AA7
:1077A00023F0030343F00103A362002384F8243091
:1077B00016E0019B013B0193D8E7FFF7FBFB801B21
:1077C0000A28DDD923689B681807D9D5A36A012543
:1077D00023F0120343F01003A362002384F8243043
:1077E000284602B070BDFFF7E5FB801B0A28D2D9FE
:1077F00023689B685A07CED5E8E70225F0E700BF6B
:1078000058030020704738B50446002874D090F81B
:1078100020300BB904F088FA2268136843F00103A2
:107820001360FFF7C7FB054623685A68D10757D591
:107830001A6822F002021A60FFF7BCFB05462368B3
:107840005A6892075AD4227E0020012A1A680CBF77
:1078500042F0800222F080021A602368627E012AD0
:107860001A680CBF42F0400222F040021A602368FE
:10787000A27E012A1A680CBF42F0200222F02002E8
:107880001A602368E27E012A1A680CBF22F01002F7
:1078900042F010021A602368227F012A1A680CBF86
:1078A00042F0080222F008021A602368627F012A6F
:1078B0001A680CBF42F0040222F004021A60D4E9F4
:1078C00002321343226921681343626913436268D9
:1078D000013A1343CB610123606284F820300CE04D
:1078E000FFF768FB401B0A289ED9636A43F4003304
:1078F0006362052384F82030012038BDFFF75AFB6E
:10790000401B0A289BD9F0E770B590F82020036847
:10791000013A012A69D80120D3F8002242F001027D
:10792000C3F800224A69D3F81C4202F01F0200FA91
:1079300002F224EA0204C3F81C42CC69D043ACB979
:10794000D3F80C420440C3F80C42CE684C698D88D1
:10795000483445EA064543F834504C698E680D8832
:10796000483445EA064503EBC4046560CC69012C44
:1079700015D1D3F80C421443C3F80C420E684C697D
:107980008D88483445EA064543F834504C698E6882
:107990008D89483445EA064503EBC40465608C696B
:1079A000DCB9D3F804420440C3F804420C69C4B9FA
:1079B000D3F814422040C3F814020020096A0129B8
:1079C00002BFD3F81C120A43C3F81C22D3F80022CA
:1079D00022F00102C3F8002270BDD3F80442144320
:1079E000E2E7D3F814021043E5E7436A43F4802347
:1079F00043620120F0E738B590F820300446012BAF
:107A00001FD10223026880F82030136823F001039D
:107A10001360FFF7CFFA05462368586810F001009D
:107A200001D1606238BDFFF7C5FA401B0A28F3D9BF
:107A3000636A43F400336362052384F82030012035
:107A4000F0E7436A43F400234362F8E738B590F85F
:107A500020300446022B22D10268136843F0010350
:107A60001360FFF7A7FA054623685A68D20708D5BE
:107A70001A68002022F002021A60012384F82030E4
:107A800038BDFFF797FA401B0A28EDD9636A43F423
:107A900000336362052384F820300120F0E7436A55
:107AA00043F480134362F8E710B5044670B1FFF762
:107AB000CDFF204604F072F900202268136843F4D9
:107AC00000431360606284F8200010BD0120FCE7D1
:107AD00090F82030013B012B06D802680020136883
:107AE00043F0020313607047436A43F48023436208
:107AF00001207047F0B590F820500468013D012D39
:107B0000A46845D814F0E05F3CD00125C4F30164BB
:107B1000A5401D608B680668CD6804F1180753BB4B
:107B20000B6845EA43553B01F55003680D6903EBCB
:107B300007135D600B7D012B4FEA041307D1016829
:107B40001944D1F8844144F48074C1F88441016837
:107B500054681944C1F88C41116802681A44C2F88B
:107B60008811026800201344D3F8802142F00102FA
:107B7000C3F88021F0BD2B434D6843EAC5033D01A6
:107B80007351D2E7436A43F4001343620120F1E7E3
:107B9000436A43F48023F8E7F0B590F82040013CB5
:107BA000012C79D8046841B9E568AD0707D1436A6B
:107BB00043F4001343620120F0BD2569F5E701F1AC
:107BC0001B052E01A45904F0040494600768002CDE
:107BD00059D1BC59640D146006682C01345904F065
:107BE0000204D46006680C0106EB0116D6F8B471E5
:107BF0003F074EBF0826D6F8B46106F00F0616619F
:107C0000066806EB05167668C6F3072696610668D1
:107C100006EB051675682D0C556102682244D2F8F2
:107C2000B8211A7002682244D2F8B821120A5A7098
:107C300002682244D2F8B821120C9A7002682244D9
:107C4000D2F8B821120EDA7002682244D2F8BC21B0
:107C50001A7102682244D2F8BC21120A5A710268D1
:107C60002244D2F8BC21120C9A7102682244D2F844
:107C7000BC21120EDA71036849B9DA6842F02002B9
:107C8000DA60002098E7BC59E4085460A4E71A6958
:107C900042F020021A61F4E7436A43F4802389E743
:107CA00090F82030013B012B05D802680020536971
:107CB000194351617047436A43F4802343620120B2
:107CC00070477047704770477047704770477047FC
:107CD00070477047704770472DE9F84F03680546B5
:107CE0005E69D3F8049016F00104D3F80880D3F845
:107CF0000CB0D3F810A09F6927D018F0010F07D05F
:107D0000012218F0020F9A6000F0A780FFF7D9FF58
:107D1000002418F4807F0AD04FF480722B6818F486
:107D2000007F9A6000F0A8802846FFF7CBFF18F488
:107D3000803F0AD04FF480322B6818F4003F9A60DD
:107D400000F0AA802846FFF7BEFF320707D51BF0D8
:107D5000100F1FBF10222B6844F40074DA60730701
:107D600008D51BF0080F05D008222B682846DA60DA
:107D7000FFF7ADFFB00706D52B68DB68990702D087
:107D80002846FDF7F1FC720607D51AF0100F1FBF49
:107D900010222B6844F480641A61B30608D51AF0E7
:107DA000080F05D008222B6828461A61FFF790FFBC
:107DB000F00606D52B681B69990702D02846FDF707
:107DC000A1FCB20308D519F0100F05D010222B68C2
:107DD00028465A60FFF77DFFF30308D519F0080F16
:107DE00005D008222B6828465A60FFF773FF30043D
:107DF0002AD519F0040F24D0F10503D5FA0748BF9E
:107E000044F00104B30503D5B80748BF44F00204A9
:107E1000710503D57A0748BF44F00404330510D533
:107E200017F070030DD0402B56D045D8202B4DD0E5
:107E3000302B4ED0102B46D02A68936923F0700364
:107E4000936104222B685A602CB16B6A2846234345
:107E50006B62FFF740FFBDE8F88F18F0040F05D103
:107E600018F0080F05D1FFF72FFF51E74FF400641A
:107E70004FE74FF480544CE718F4806F02D044F47D
:107E8000005454E718F4006F02D044F480444EE7E5
:107E90002846FFF71AFF4AE718F4802F02D044F46F
:107EA000004452E718F4002F02D044F480344CE729
:107EB0002846FFF70BFF48E7502B10D0602BBBD1B3
:107EC00044F48074B8E744F00804B5E744F01004C3
:107ED000B2E744F02004AFE744F04004ACE744F0DC
:107EE0008004A9E7406A704790F82030013B012BDD
:107EF00095BF0023436A436243F4802392BF184630
:107F0000436201207047000007490302CA6803F476
:107F1000E06322F4E0621204120C134343F0BF63E7
:107F200043F40033CB60704700ED00E030B5154BF3
:107F3000DC68C4F30224C4F10703251D042B28BF09
:107F40000423062D4FF0FF3594BF0024033C05FAAF
:107F500003F321EA0303A54022EA0502A340002817
:107F600043EA0203ACBF00F16040074A4FEA031343
:107F7000DBB2ABBF00F5614000F00F0080F80033CA
:107F8000135430BD00ED00E014ED00E0002807DBE5
:107F900001234109034A00F01F00834042F82130C9
:107FA000704700BF00E100E000280CDB0122064919
:107FB000430900F01F008240203341F82320BFF323
:107FC0004F8FBFF36F8F704700E100E0002808DBA0
:107FD00001224309034900F01F008240603341F849
:107FE0002320704700E100E010B5044650B143790A
:107FF00003F0FF0213B9027103F004FF0123002014
:10800000637110BD0120FCE738B5044698B143798F
:10801000022BDDB20DD00223002502684371936864
:1080200043F00103936003681D7103F0FFFE657167
:108030002571284638BD0125FBE70346022010B50F
:108040001C685871A06801EB820240F00100A0603A
:108050009142186803D1012200685A7110BD51F88D
:10806000044B0460F4E70000034610B540B314214C
:108070000068144A0244B2FBF1F292001A64124AF8
:10808000DA63022283F82120D3E901242243DC6849
:10809000016822431C6921F47F5122435C6921F06D
:1080A000300122439C692243DC6922430A43026077
:1080B00000200122986383F8200083F8212010BD5E
:1080C0000120FCE7F8FFFDBF00000240034610B5A9
:1080D00028B30168134C0A6822F001020A600268A2
:1080E000002010601A6850601A6890601A68D060AA
:1080F00019680D4ADC630A441421B2FBF1F2012134
:1081000092001A6401FA02F26260C3E90A00C3E94C
:108110000C00986383F8200083F8210010BD012033
:10812000FCE700BF00000240F8FFFDBF70B590F80B
:108130002040012C3DD0012490F8215080F82040AF
:10814000012DECB24FF0000531D1022680F82160FC
:1081500006688563356825F001053560D0E90F565E
:10816000B4406C60046863604368102B03680BBF05
:108170009A609960036803680CBFD960DA60C26ACC
:10818000036852B11A6842F00E021A6002680020B9
:10819000136843F00103136070BD1A6822F00402F3
:1081A0001A600268136843F00A031360EEE780F870
:1081B00020500220F0E790F821200346022A06D042
:1081C000042282630120002283F820207047016886
:1081D0000A6822F00E020A6001680A6822F00102B1
:1081E0000A6001211A6CC06B01FA02F242600020A1
:1081F00083F82110E7E7000030B40424C36B056C5A
:108200001968AC4003680C421A6833D0540731D562
:108210001A6895065EBF1A6822F004021A600368A5
:108220003F4A934219D01432934218D014329342E9
:1082300017D01432934217D01432934217D014320D
:10824000934214BF4FF080634FF48003354A53606C
:10825000C36A002B61D030BC18470423F6E74023E3
:10826000F4E74FF48063F1E74FF48043EEE74FF417
:108270008023EBE70224AC400C4236D0940734D57F
:108280001A68910606D41A6822F00A021A600123BD
:1082900080F821300368224A934219D01432934265
:1082A00018D01432934217D01432934217D014329C
:1082B000934217D01432934214BF4FF000734FF41F
:1082C0000013184A5360002380F82030836AC0E707
:1082D0000223F6E72023F4E74FF40073F1E74FF4AD
:1082E0000053EEE74FF40033EBE70824AC400C42B8
:1082F00013D0120711D51A6822F00E021A6001235A
:10830000026CC16B03FA02F24A60836380F8213089
:10831000002380F82030036B9BE730BC704700BF20
:108320000800024000000240114AD36813F0100315
:1083300005D01049CB6943F00203CB611023D2680A
:10834000500706D50B4943F00403CA6942F0010205
:10835000CA61074AD169C90708D50648C16941F011
:108360000401C161D16921F00101D161D36070477D
:1083700000200240B00500207047704770B5424BA6
:10838000424CDA6812F0100F02D1DB685A070AD5A6
:108390004FF0FF33A568A360FFF7C6FF2846FFF73D
:1083A000ECFF00232370384DEB689B0618D5202383
:1083B000EB602378A3B12378012B27D16368013BBD
:1083C00063606368DBB1A068FFF7D6FFA06800F5C3
:1083D0008060A0602B6923F002032B6100F0F6F8A7
:1083E000237803F0FF014BB9274B1A6922F00702EB
:1083F0001A611A6922F4A0521A61217670BD4FF0F9
:10840000FF30A0602370FFF7B7FFE9E72378022B66
:1084100009D12B69002023F004032B61FFF7ACFF87
:1084200000232370DCE76368013B63606368D3B1BA
:10843000A3680233A360A668D4E90401020C42EAEF
:1084400001420B0CC4E904232B6923F001032B61C7
:10845000D4E904230023E3612B6992B243F00103C2
:108460002B613280BCE72378032B06D1A068FFF78D
:1084700083FF4FF0FF33A360D2E72378A068042B7B
:108480000CBF02380638F2E700200240B005002099
:10849000064B186910F0800007D0054A5A6002F1B7
:1084A00088325A601869C0F3C0107047002002403B
:1084B00023016745034A0020136943F080031361D9
:1084C000704700BF00200240014BD869704700BFD1
:1084D000B005002070B50546FEF76CFD0646114C50
:1084E000E368D80712D4E368990644BF2023E36009
:1084F000E368DA0606D4E369DB0703D4E06810F02A
:10850000040007D0FFF710FF012003E06B1CE7D049
:108510000DB9032070BDFEF74DFD801BA842DFD9C9
:10852000F7E700BF002002402DE9F84FDFF894A0E4
:108530001F469AF818300546012B884691463FD0D1
:1085400001234CF250308AF81830FFF7C3FF90BB7C
:10855000012D03D0022D14BF042502250026334629
:10856000DFF864B03401C4F12001A4F1200207FA5D
:1085700001F129FA04F4CAF81C300C4327FA02F27C
:108580001443DBF81020A4B242F00102CBF8102013
:108590004CF2503028F81640FFF79CFFDBF8102013
:1085A00022F00102CBF8102028B90136F2B2954230
:1085B0004FF00003D6D800238AF81830BDE8F88FB2
:1085C0000220FBE7B0050020002002400022064BFD
:1085D000DA61064B1A6942F002021A6158611A699F
:1085E00042F040021A617047B005002000200240AE
:1085F0002DE9F041264F05463B7E8846012B44D0AD
:1086000001243C7603684CF25030022B1AD1FFF75C
:1086100061FF20B1012000233B76BDE8F0811D4CB5
:10862000F86123694CF2503043F00403236123695D
:1086300043F040032361FFF74DFF236923F0040358
:108640002361E8E7FFF746FF0028E3D14FF0FF334F
:10865000C8F800302046AE680E4CD5E9023203EB74
:108660008223B342D7D93046FFF7B0FF4CF25030E7
:10867000FFF730FF236923F00203236110B1C8F82C
:108680000060C8E706F58066E7E70220C5E700BF9F
:10869000B0050020002002402DE9F74F00221546CA
:1086A000794E7A4BDFF8E8C17A4FD1F800E03EFA14
:1086B00005F402D103B0BDE8F08F4FF0010808FACD
:1086C00005F80EEA080438EA0E0E40F0A180D1F851
:1086D00004E0BEF1030F09D80EF1FF3EBEF1020F18
:1086E00000F2A680DFE80EF0B8BDC300BEF1120FA5
:1086F00000F0BA8000F28E80BEF1110F00F0AE8063
:10870000FF2C98BF82464FF00F094FEA850E84BFB9
:1087100000F1040AAEF1200EDAF8008009FA0EFB2F
:1087200028EA0B0802FA0EFE48EA0E08CAF8008092
:10873000D1F804E01EF0805F6AD0D6F818E025F08A
:1087400003084EF0010EC6F818E0D6F818E008F15C
:1087500080480EF0010ECDF804E008F5803805F0F1
:10876000030ADDF804E04FEA8A0AD8F808E009FABB
:108770000AF92EEA0909DFF820E170457BD00EF5F1
:10878000806E70457AD00EF5806E704579D00EF50A
:10879000806E704514BF4FF0040E4FF0030E0EFABA
:1087A0000AFE4EEA090EC8F808E0D1F804E01EF40B
:1087B000801FD3F808E014BF4EEA040E2EEA040E20
:1087C000C3F808E0D1F804E01EF4001FD3F80CE071
:1087D00014BF4EEA040E2EEA040EC3F80CE0D1F8E2
:1087E00004E01EF4003FD3F804E014BF4EEA040E88
:1087F0002EEA040EC3F804E0D1F804E01EF4803F32
:10880000D3F800E014BF4EEA04042EEA04041C600E
:1088100001354AE7DFF88490CE4509D014D8A9F590
:108820008019CE4504D0E64502D0BE457FF468AF3E
:108830008A68F2B1012A08BFC0F810804FF0080220
:1088400018BFC0F814805BE7DFF85490CE45EFD036
:1088500009F58039CE45E9E7CA6851E7CA680432AC
:108860004EE7CA6808324BE7CA680C3248E7002274
:1088700046E7042244E74FF0000E90E74FF0010E68
:108880008DE74FF0020E8AE700100240000401401D
:10889000000021100000111000080140000022100B
:1088A000000031102DE9F74F4FF0040B00224FF07C
:1088B000010A4FF00F0800EB0B0301932E4B31FA26
:1088C00002F402D103B0BDE8F08F0AFA02F70F40BC
:1088D00049D022F0030404F1804404F5803402F00E
:1088E000030CA5684FEA8C0C08FA0CF909EA050E8E
:1088F000224DA84239D005F58065A84237D005F54C
:108900008065A84235D005F58065A8420CBF0325D7
:10891000042505FA0CF575456FEA07060FD11D68A9
:1089200035401D605D6835405D60DD683540DD6067
:108930009D6835409D60A56825EA0905A560FF2F63
:1089400094BF0746019F4FEA82043D6888BF203CE0
:1089500008FA04FC25EA0C050BFA04F425433D60F3
:10896000C4683440C4600132A9E70025D1E701257D
:10897000CFE70225CDE700BF000401400008014019
:108980008368194214BF0120002070470AB10161B9
:1089900070470904FBE738B5044620B34CF6CC42D7
:1089A00003681A6045F2555203681A60D0E9003234
:1089B0005A60036882689A60FEF7FCFA05462268EE
:1089C000D06810F0030003D14AF6AA23136038BD23
:1089D000FEF7F0FA401B2728F1D92368DB689B07D4
:1089E000EDD00320F3E70120F1E74AF6AA2203685D
:1089F00000201A60704700001A4A0168136823F0CB
:108A0000E0030B431360184B5A6822F480325A601B
:108A10001A6822F480321A60DA6822F48032DA604E
:108A20009A6822F480329A604268D10342BF1A6881
:108A300042F480321A604268920342BF5A6842F49C
:108A400080325A604268D10742BF9A6842F480324D
:108A50009A604268920742BFDA6842F48032DA6074
:108A6000704700BF0070004000040140064A012921
:108A7000136923F00403136101D130BF704740BF75
:108A800020BF20BF704700BF00ED00E0024A13691D
:108A900043F002031361704700ED00E070470000EF
:108AA00010B5054C6369DB0304D5FFF7F7FF4FF4FE
:108AB0008033636110BD00BF000401402DE9F34124
:108AC000044638B30368DB0710D423689F0759D4E2
:108AD0002368190700F1908023685A0700F1BC80D1
:108AE000E369002B40F0248100202BE08C4D6B6863
:108AF00003F00C03042B07D06B6803F00C03082B66
:108B00000AD16B68DE0307D52B689D03DDD563684A
:108B1000002BDAD1012015E06368B3F5803F14D152
:108B20002B6843F480332B606368FBB1FEF742FA95
:108B300006462B689803C8D4FEF73CFA801B6428CD
:108B4000F7D9032002B0BDE8F0813BB92B6823F4CC
:108B500080332B602B6823F48023E4E7B3F5A02F48
:108B60002B68F4D143F480232B60D9E7FEF722FA77
:108B700006462B689903A8D5FEF71CFA801B6428CB
:108B8000F7D9DEE7664D6B6813F00C0F07D06B6802
:108B900003F00C03082B10D16B68DA030DD42B689B
:108BA0009B0702D52369012BB4D12B68626923F09E
:108BB000F80343EAC2032B608AE72269594B6AB182
:108BC00001221A60FEF7F6F906462B689F07ECD4DF
:108BD000FEF7F0F9801B0228F7D9B2E71A60FEF71A
:108BE000E9F906462B6898077FF572AFFEF7E2F9C0
:108BF000801B0228F6D9A4E7A269494E494BE2B18D
:108C00000122C3F88024FEF7D5F90546736A9B0755
:108C10000DD54FF4FA52444B1B68B3FBF2F30193AA
:108C200000BF019B5A1E0192002BF9D154E7FEF7B9
:108C3000C1F9401B0228E9D983E7C3F88024FEF775
:108C4000B9F90546736A9F077FF546AFFEF7B2F99B
:108C5000401B0228F6D974E7314DEB69D80027D4C0
:108C60000127EB6943F08053EB61EB6903F080531C
:108C70000093009B2D4E3368D9051BD5E368012B6B
:108C800029D12B6A43F001032B62E368002B38D013
:108C9000FEF790F941F2883806462B6A9B072AD5E1
:108CA000002F3FF41DAFEB6923F08053EB6117E712
:108CB0000027DFE7336843F480733360FEF77AF907
:108CC00080463368DA05D9D4FEF774F9A0EB0800C2
:108CD0006428F6D935E73BB92B6A23F001032B62F0
:108CE0002B6A23F00403CFE7052B2B6AF5D143F061
:108CF00004032B62C5E7FEF75DF9801B4045CCD924
:108D00001FE7FEF757F941F2883806462B6A9807A5
:108D1000C6D5FEF74FF9801B4045F7D911E700BFD4
:108D20000010024000004242580300200070004042
:108D30002B4D6A6802F00C02082A3FD00022022B59
:108D4000284B1A662DD1FEF735F906462B68990196
:108D500021D4236AB3F5803F05D16B68A26823F460
:108D6000003313436B606A68D4E9083122F474124B
:108D70000B43134301226B601A4B1A66FEF71AF974
:108D800004462B689A013FF5AFAEFEF713F9001BBE
:108D90000228F6D9D5E6FEF70DF9801B0228D5D9B1
:108DA000CFE6FEF707F904462B689B017FF59CAEE2
:108DB000FEF700F9001B0228F6D9C2E6012B3FF4AA
:108DC000A9AE6868236A00F480329A427FF4A2AEAA
:108DD000636A00F47010C01A18BF0120B2E600BF29
:108DE00000100240000042420D4A536803F00C019B
:108DF000082912D10B48C3F38341DB03405C09D53A
:108E00005368094AC3F340435043084AD35CB0FB5C
:108E1000F3F07047064B584370470348704700BF54
:108E20000010024042D2000800127A0040D200082E
:108E300000093D002DE9F0410D46044610B901201E
:108E4000BDE8F081464A136803F007038B422AD33A
:108E50002368980732D42368DA0745D4404A136858
:108E600003F00703AB4267D823683E4D13F0040FAD
:108E70006ED123681B0706D56B68226923F4605303
:108E800043EAC2036B60FFF7AFFF6B68364AC3F378
:108E90000313D35CD840354B1860354B186803F08A
:108EA00027FD0020CCE7136823F007030B43136072
:108EB000136803F007038B42C1D1C9E713F0040F15
:108EC000284B1EBF5A6842F4E0625A6022681107BC
:108ED00042BF5A6842F460525A605A68A16822F050
:108EE000F0020A435A60B6E762681E4E012A3368F0
:108EF0001AD113F4003FA2D0736841F2883823F0EE
:108F0000030313437360FEF755F8074673686268FE
:108F100003F00C03B3EB820FA0D0FEF74BF8C01B9D
:108F20004045F3D903208BE7022A02D113F0007FDA
:108F3000E1E713F0020FDEE7136823F007032B438A
:108F40001360136803F00703AB427FF478AF8BE73D
:108F50006B68E26823F4E06313436B6089E700BF4A
:108F6000002002400010024044D3000858030020B3
:108F700040030020044B054A5B68C3F30223D35C23
:108F8000034A1068D8407047001002403CD30008E4
:108F900058030020044B054A5B68C3F3C223D35C2B
:108FA000034A1068D8407047001002403CD30008C4
:108FB000580300200F2303600B4B5A6802F0030292
:108FC00042605A6802F0F00282605A6802F4E0627D
:108FD000C2605B68DB0803F4E0630361034B1B685A
:108FE00003F007030B6070470010024000200240AE
:108FF0002DE9F34103680546D80721D5364CE369CE
:10900000D9002CD40126E36943F08053E361E3697E
:1090100003F080530193019B304F3B68DA0520D564
:10902000236A6A6813F440732FD1236A6A6823F4B1
:109030004073134323621EB1E36923F08053E3615D
:109040002B689A0706D5244AA968536823F440433D
:109050000B4353602B68DB0636D4002012E0002659
:10906000DAE73B6843F480733B60FDF7A3FF80467B
:109070003B68DB05D4D4FDF79DFFA0EB0800642816
:10908000F6D9032002B0BDE8F08102F440729A42A2
:10909000CBD00120124A236AC2F84004002023F4F6
:1090A0004071C2F84004D8072162BED5FDF782FFA7
:1090B00041F288380746236A9907B6D4FDF77AFF4C
:1090C000C01B4045F7D9DCE7034AE968536823F43D
:1090D00080030B435360C0E7001002400070004063
:1090E00000004242022808B544D0102803D00128CD
:1090F00022D0002034E0254B5A68186810F08070A8
:109100002ED0C2F383412248D20348BF5A68405C44
:1091100041BF2049C2F34042895C1F4A5B684CBF93
:10912000B2FBF1F21D4A5B0202FB00F018D40323EC
:109130004000B0FBF3F013E040F20231134A136A2F
:109140001940B1F5817F1ED003F44073B3F5007F61
:1091500007D149F64043506A10F0020018BF184684
:1091600008BDB3F5407FC4D110684FF2244310F41A
:109170000030F3E7FFF70EFF044B5B68C3F3813366
:1091800001335B00D5E74FF40040E9E700100240EF
:1091900054D2000852D2000800127A0000093D00A3
:1091A000036A026A70B522F00102026244688269B1
:1091B0000D6822F073022A438D6823F002032B43CB
:1091C0000A4DA8420BD1CD6823F008032B4324F4A9
:1091D0004074D1E90556354323F004032C43446021
:1091E00082614A684263036270BD00BF002C014087
:1091F000036A026A70B522F4807202624468C2692E
:109200000D6822F073022A438D6823F4007343EA49
:1092100005230B4DA8420DD1CD6823F4006343EA2A
:10922000052324F44054D1E90556354323F48063E3
:1092300044EA05144460C2614A68C263036270BDB7
:10924000002C0140036A026A30B522F480520262A7
:109250004468C2690D6822F4E64242EA05228D683C
:1092600023F4005343EA0533064DA84202BF4D697B
:1092700024F4804444EA85144460C2614A6802646C
:10928000036230BD002C0140704770477047704743
:10929000704770477047704770470000022341F2E3
:1092A000111210B580F83D3003680446196A114266
:1092B00008D140F24442196A114202BF1A6822F0F2
:1092C00001021A60E36C0BB90E4BE3642046E36CB9
:1092D0009847002084F8460084F83C0084F83E005B
:1092E00084F83F0084F8400084F8410084F842008C
:1092F00084F8430084F8440084F8450084F83D0075
:1093000010BD00BF09CD000841F211120368196AAF
:10931000114208D140F24442196A114202BF1A6850
:1093200022F001021A60012380F83D3000207047CE
:1093300090F83D30012B21D10223026880F83D30A6
:10934000D36843F00103D36003680D4A93420AD007
:10935000B3F1804F07D0A2F59432934203D002F5C7
:109360008062934204D19A6802F00702062A03D071
:109370001A6842F001021A6000207047012070470D
:10938000002C0140022341F2111210B580F83D304B
:1093900003680446196A114208D140F24442196A2E
:1093A000114202BF1A6822F001021A60636E0BB903
:1093B0000E4B63662046636E9847002084F8460093
:1093C00084F83C0084F83E0084F83F0084F84000B4
:1093D00084F8410084F8420084F8430084F8440093
:1093E00084F8450084F83D0010BD00BFCDCC0008D6
:1093F00010B5036804461A69910711D5DA68920717
:109400000ED56FF002021A610123037703689B698E
:109410009B0700F08380D0F8903098470023237793
:1094200023681A69500712D5DA6851070FD56FF013
:1094300004021A610223237723689B6913F4407F97
:1094400073D0D4F8903020469847002323772368C0
:109450001A69120711D5DA6810070ED56FF00802E5
:109460001A61042323772368DB69990764D0D4F851
:109470009030204698470023237723681A69D20644
:1094800012D5DA68D0060FD56FF010021A610823E2
:1094900023772368DB6913F4407F54D0D4F89030ED
:1094A000204698470023237723681A69D10709D5F6
:1094B000DA68D20706D56FF001021A612046D4F8A7
:1094C0008030984723681A69100609D5DA681106B2
:1094D00006D56FF080021A612046D4F8B030984764
:1094E00023681A69520609D5DA68500606D56FF066
:1094F00040021A612046D4F88830984723681A69D8
:10950000910627D5DA68920624D56FF020021A61F9
:109510002046D4F8A830BDE810401847D0F898305D
:1095200098472046D4F89C3077E7D4F89830204606
:109530009847D4F89C3086E7D4F89830204698476E
:10954000D4F89C3095E7D4F8983020469847D4F862
:109550009C30A5E710BD00001A4A036890420AD06B
:10956000B0F1804F07D0A2F59432904203D002F5BB
:109570008062904215D14A6823F070031343114A68
:1095800090420AD0B0F1804F07D0A2F594329042B9
:1095900003D002F58062904203D1CA6823F440737D
:1095A00013434A6923F08003134303608B68C3624B
:1095B0000B688362034B984204BF0B69036301236A
:1095C00043617047002C0140036A026A70B522F0C3
:1095D00010020262446882690D6822F4E64242EA9F
:1095E00005228D6823F0200343EA05130B4DA842A2
:1095F0000DD1CD6823F0800343EA051324F44064C1
:10960000D1E90556354323F0400344EA850444601C
:1096100082614A688263036270BD00BF002C014012
:1096200038B590F83C300446012B5BD00120082A65
:1096300084F83C0043D006D8D2B1042A2CD00023B1
:1096400084F83C3038BD0C2AF9D12068FFF7FAFDC8
:109650002268D36943F40063D3612268D36923F499
:109660008063D36122680969D36943EA012337E043
:109670002068FFF795FD2268936943F00803936122
:109680002268936923F0040393612268096993694E
:109690000B4393610020D2E72068FFF795FF226813
:1096A000936943F4006393612268936923F48063B0
:1096B000936122680969936943EA0123E9E7206815
:1096C000FFF796FD2268D36943F00803D36122684F
:1096D000D36923F00403D36122680969D3690B437A
:1096E000D361D7E70220ADE710B584680A4324F4BC
:1096F0007F4442EA03222243826010BD38B590F8CD
:109700003C300446012B4FF0020000F09A80012209
:1097100084F83D00206884F83C20836823F47F436C
:1097200023F0770383600B68602B57D036D8402B2B
:109730006ED018D8202B0DD00AD833F0100109D0E4
:10974000012384F83D30002384F83C30104638BDB6
:10975000302BF5D121688A6822F07002134343F060
:1097600007038B602DE0502BEAD123684868CD6851
:10977000196A1A6A21F00A0122F001021A629A6932
:10978000014322F0F00242EA05129A61196222684E
:10979000936823F0700343F0570311E0B3F5805F43
:1097A0000FD0B3F5005F0ED0702BC9D1CB68206805
:1097B000D1E90121FFF798FF2268936843F077030E
:1097C00093600022BCE7CB682068D1E90121FFF754
:1097D0008BFF2268936843F48043F1E7236848686D
:1097E0001A6ACD68196A22F0A00221F010011962EC
:1097F000996942EA001221F4704141EA0531996108
:109800001A622268936823F0700343F06703D7E776
:1098100023684868CD68196A1A6A21F00A0122F0A3
:1098200001021A629A69014322F0F00242EA05122B
:109830009A6119622268936823F0700343F047032A
:10984000BEE7024682E710B50124036A01F01F015A
:109850008C4023EA04030362036A8A401A430262CB
:1098600010BD000010B5044629B990F83E30012B18
:109870001ED0012042E0042907D190F83F30012B8F
:10988000F7D1022380F83F3015E008290CBF90F88B
:10989000403090F84130013B18BF0123002BE8D144
:1098A000022308290CBF84F8403084F8413002E0DC
:1098B000022380F83E3001222068FFF7C4FF2368AE
:1098C0000F4A934202BF536C43F40043536423682E
:1098D000934209D0B3F1804F06D00A4A934203D095
:1098E00002F58062934204D19A6802F00702062AC8
:1098F00003D01A6842F001021A60002010BD00BFB8
:10990000002C014000040040FFF7ACBF082938B527
:1099100004460D4642D004D851B1042939D0012063
:1099200038BD0C29FBD10268D36823F0100303E093
:109930000268D36823F00203D3602946002220681E
:10994000FFF781FF23681E4A93420DD141F21112A5
:10995000196A114208D140F24442196A114202BF09
:109960005A6C22F400425A6441F211122368196AB7
:10997000114208D140F24442196A114202BF1A68EA
:1099800022F001021A6001236DB984F83E300020F4
:10999000C6E70268D36823F00403CDE70268D36802
:1099A00023F00803C8E7042D02D184F83F30EEE726
:1099B000082D0CBF84F8403084F84130E7E700BF41
:1099C000002C0140FFF7A2BF134BC0F88030134BAF
:1099D000C0F88430124BC0F88830124BC0F88C307D
:1099E000114BC0F89030114BC0F89430104BC0F8B8
:1099F0009830104BC0F89C300F4BC0F8A0300F4B84
:109A0000C0F8A4300E4BC0F8A8300E4BC0F8AC30F4
:109A10000D4BC0F8B030704729C600088992000885
:109A200095920008979200088D9200088F92000886
:109A30008B92000891920008939200089992000876
:109A4000DB9B0008DD9B0008DF9B000810B5044687
:109A500068B390F83D3003F0FF0253B980F83C2022
:109A6000FFF7B2FF836C0BB9124B83642046A36CE3
:109A700098470223206884F83D30211DFFF76CFDD4
:109A80000123002084F8463084F83E3084F83F30CB
:109A900084F8403084F8413084F8423084F8433010
:109AA00084F8443084F8453084F83D3010BD0120FE
:109AB000FCE700BF75CB000810B5044668B390F80A
:109AC0003D3003F0FF0253B980F83C20FFF77CFFE4
:109AD000036E0BB9124B03662046236E9847022390
