:020000040800F2
:10000000C04F0020F110000873100008791000089C
:100010007F100008851000088B1000080000000009
:100020000000000000000000000000009110000827
:1000300093100008000000009510000897100008B9
:10004000391100089F100008391100083911000803
:10005000A5100008AD10000839110008391100087A
:100060003911000839110008391100083911000848
:100070003911000839110008391100083911000838
:10008000391100083911000839110008AF100008B3
:10009000BF100008CF100008DF1000083911000859
:1000A0003911000839110008391100083911000808
:1000B00039110008391100083911000839110008F8
:1000C00039110008391100083911000839110008E8
:1000D00039110008391100083911000839110008D8
:1000E000391100083911000839110008000000001A
:1000F0000000000000000000000000000000000000
:0C01000000000000000000005FF808F1A3
:10010C0010B5054C237833B9044B13B10448AFF345
:10011C0000800123237010BD000C002000000000A3
:10012C004C2B000808B5034B1BB103490348AFF334
:10013C00008008BD00000000040C00204C2B0008BF
:10014C0010B58AB040F62040C2F200004FF4C8430C
:10015C00C4F2000303600623436000238360C36082
:10016C004FF4802202614FF4A00242610376012217
:10017C0042768276C2760377437701F032F828BB59
:10018C000D230593002306930122079204930892F2
:10019C004EF24002009201934FF6E07202920393EA
:1001AC0040F62044C2F200046946204601F009F9E9
:1001BC00204601F08CF940F61C43C2F200030221E8
:1001CC001960204601F0DBFA0AB010BD00F051FEB8
:1001DC00D6E710B586B000230293039304930593DE
:1001EC0002684FF4C843C4F200039A4201D006B02F
:1001FC0010BD4FF48053C4F20203DA6942F000726E
:10020C00DA61DA6902F000720092009A9A6942F09F
:10021C0004029A619B6903F004030193019B4FF460
:10022C0000630293012304934FF40064C4F20104AD
:10023C0002A9204601F014FF4FF4805302930223CD
:10024C0003930323059302A9204601F009FFCEE78F
:10025C0008B540F68440C2F200004FF44053C4F29B
:10026C000203036001F044FC00B908BD00F001FE7C
:10027C00FBE702684FF44053C4F202039A4200D0E9
:10028C00704782B04FF48053C4F202035A6942F0B3
:10029C0040025A615B6903F040030193019B02B079
:1002AC00704710B588B00023049305930693079309
:1002BC004FF48053C4F202039A6942F010029A611F
:1002CC009A6902F010020092009A9A6942F0200298
:1002DC009A619A6902F020020192019A9A6942F09D
:1002EC0004029A619A6902F004020292029A9A69D3
:1002FC0042F008029A619B6903F008030393039B85
:10030C004FF4604304930324059404A94FF48050E4
:10031C00C4F2010001F0A4FE48F2FF7304930594AB
:10032C0004A94FF40060C4F2010001F099FE4FF6ED
:10033C00FF730493059404A94FF44060C4F20100C8
:10034C0001F08EFE08B010BDBFF34F8F4FF46D431C
:10035C00CEF20003D96801F4E0610422C0F2FA5233
:10036C000A43DA60BFF34F8F00BFFDE704E011F8DA
:10037C00012B00F8012B1A46531E002AF7D17047A7
:10038C0000B54FF0000E4FF0FF3210E05208013371
:10039C00DBB2072B09D812F0010FF7D048F2203C42
:1003AC00CEF6B85C8CEA5202F1E70EF1010E8E45E6
:1003BC0004D210F80E305A400023EAE7D0435DF81F
:1003CC0004FB00B583B000230093019330228DF819
:1003DC00002005228DF8022040F69C41C2F200015B
:1003EC0040F203720A608B60CB6008230B6140F60D
:1003FC009843C2F200036A4640F62040C2F2000065
:10040C0001F093F803B05DF804FB10B582B00A4616
:10041C0000240094019401F00F038DF80030014684
:10042C000DF10100FFF7A2FF40F69C41C2F2000162
:10043C0040F203730B608C60CC6008230B6140F6B8
:10044C009843C2F200036A4640F62040C2F2000014
:10045C0001F06BF802B010BD08B500221146052062
:10046C0001F004FB052001F011FB002211460420D1
:10047C0001F0FCFA042001F009FB002211460120D6
:10048C0001F0F4FA012001F001FB002211461620C4
:10049C0001F0ECFA162001F0F9FA002211461520B1
:1004AC0001F0E4FA152001F0F1FA002211461420B3
:1004BC0001F0DCFA142001F0E9FA002211461320B5
:1004CC0001F0D4FA132001F0E1FA08BD10B572B6B0
:1004DC004FF0E02300221A615A619A6143F2747260
:1004EC00C0F6000242F69831C0F6000140F200045A
:1004FC00C2F20004521A204602F014FB2168626812
:10050C004FF46D43CEF200039C6081F30888904752
:10051C0010BD0146002301E00133DBB213F0800F64
:10052C000CD103F500320132B1EB822FF4D203F57A
:10053C0000329002B1EB822FEED370470020FCE723
:10054C0010B586B072B643F6FF30C0F60000FFF768
:10055C00E0FF044601F032FC002302934FF4605399
:10056C00C0F60003049304F17840A0F56050800AB3
:10057C000130059001A902A801F014FD28B901F081
:10058C003DFC62B6002006B010BD62B601F040FC26
:10059C00F9E710B586B072B64FF2FF70C0F60000E6
:1005AC00FFF7B7FF044601F009FC002302934FF458
:1005BC007053C0F60003049304F17840A0F570501A
:1005CC00800A0130059001A902A801F0EBFC28B9C2
:1005DC0001F014FC62B6002006B010BD62B601F04A
:1005EC0017FCF9E7F8B505460F46164672B601F04A
:1005FC00E5FB002401E004350134A6420CD957F880
:10060C00242000232946022001F04CFC0028F2D0C3
:10061C0062B601F0FDFB03E001F0F0FB62B60020D6
:10062C00F8BD72B6002393420BD210B450F823409D
:10063C0041F8234001339BB29342F7D362B610BC0E
:10064C00704762B6704738B54FF44054C0F600049A
:10065C00D4F8005C72B6162001F03BFA152001F0BC
:10066C0038FA142001F035FA132001F032FA052083
:10067C0001F02FFA042001F02CFA012001F029FAE4
:10068C004FF0E02300221A615A619A614FF46D43D6
:10069C00CEF200034FF47052C0F600029A6085F35C
:1006AC000888D4F8043C984738BD08B572B640F6B3
:1006BC00E433C2F200031B6800221A6040F6E033F8
:1006CC00C2F200031B681A60FFF73EFE2DE9F047EB
:1006DC0086B004460E46002305930493057840F635
:1006EC00E833C2F200031B78022B05D0102D00F06A
:1006FC007F8206B0BDE8F087222D28D0312D00F086
:10070C008780222D00F043812378312B00F0668105
:10071C00342D00F08381312D00F0C081362D00F096
:10072C00FE81372D00F04D82112DE2D1012EE0D942
:10073C006378012BDDD151228DF804208DF8053022
:10074C00022101A8FFF761FE0023029347E203296F
:10075C0030D0032ED2D16378F12BCFD1A3787F2B5D
:10076C00CCD100230293039304228DF8082062223B
:10077C008DF80920F1228DF80A207F228DF80B20AC
:10078C0002228DF80C2040F69C41C2F2000140F28E
:10079C0003720A608B60CB6005230B6140F69843B3
:1007AC00C2F2000302AA40F62040C2F2000000F0A0
:1007BC00BCFEA3E74278F12ACBD182787E2AC8D13D
:1007CC0000220292039204218DF8081062218DF808
:1007DC000910F1218DF80A107E218DF80B108DF87F
:1007EC000C3040F69C41C2F2000140F203730B60E6
:1007FC008A60CA6005230B6140F69843C2F200037D
:10080C0002AA40F62040C2F2000000F08EFEA0E7E3
:10081C00032E7FF676AF6378012B7FF472AFA3784B
:10082C00002B7FF46EAFE378002B7FF46AAF40F6B9
:10083C00E042C2F2000212687AB141F6F042C2F212
:10084C00000212684AB140F6D842C2F20002127895
:10085C00A2B34FF0FF32049217E042F66433C0F6B5
:10086C0000031B68ADF808301B0C8DF80A3003210F
:10087C0002A8FFF7CAFD3CE740F6DC42C2F20002D8
:10088C00D15C04AAD1540133DBB240F6D842C2F297
:10089C00000212789A42EFD840F69447C2F2000751
:1008AC00012204A93868FFF79DFE3B6804333B60C6
:1008BC0040F6D843C2F2000300221A70042E2CD941
:1008CC00A31913F8047C13F8032C47EA022713F836
:1008DC00022C47EA024713F8013C47EA036740F64B
:1008EC00E443C2F20003186840F6E043C2F200038E
:1008FC001968FFF745FD0590B8421DD042F66433E8
:10090C00C0F600031B68ADF808301B0C8DF80A30DC
:10091C00032102A8FFF779FDF3E642F66433C0F633
:10092C0000031B68ADF808301B0C8DF80A3003214E
:10093C0002A8FFF76AFDDCE600230293039304226E
:10094C008DF8082071228DF8092001228DF80A20DB
:10095C0040F69C47C2F2000740F203713960BB605D
:10096C00FB6005233B6105A94FF2FC70C0F600004B
:10097C00FFF738FE40F69843C2F2000302AA39464C
:10098C0040F62040C2F2000000F0CFFDB9E6032E85
:10099C007FF4BAAE6378F12B7FF4B6AEA278802ADE
:1009AC007FF4B2AE62218DF808108DF809308DF805
:1009BC000A2040F6EC33C2F200031A788DF80B20B3
:1009CC005A788DF80C209A788DF80D20DB788DF8FC
:1009DC000E30072102A8FFF718FD95E66378012B6E
:1009EC007FF496AEA278002A7FF492AEE1780729C4
:1009FC007FF48EAE41F6EF40C2F200000127077083
:100A0C0071208DF808008DF809308DF80A208DF8CA
:100A1C000B10042102A8FFF7F8FC79E6A278120962
:100A2C000332A118E07823791B0443EA0063607950
:100A3C0043EA0023A0790343A05C4A78120442EAFB
:100A4C000062887842EA0022C9780A4340F6E44101
:100A5C00C2F200010B6040F6E041C2F200010A60F4
:100A6C0040F69442C2F20002136040F6D843C2F240
:100A7C00000300221A7041F6F043C2F200031A6020
:100A8C0074238DF8083010238DF80930F0238DF87D
:100A9C000A30032102A8FFF7B8FC3CE66378012B6F
:100AAC007FF43CAEA278E37843EA0223042B1CD0FB
:100ABC00052B7FF433AEFFF743FD71238DF808301F
:100ACC0001238DF80930A3788DF80A30E3788DF87E
:100ADC000B3000238DF80C308DF80D308DF80E3066
:100AEC00072102A8FFF791FC18E6FFF752FD7123CE
:100AFC008DF8083001238DF80930A3788DF80A3071
:100B0C00E3788DF80B3000238DF80C308DF80D3018
:100B1C008DF80E30072102A8FFF777FCFEE5022EB8
:100B2C007FF6E7AD94F80190A6F102081FFA88F859
:100B3C0041F6F043C2F200031A6842441A600027DF
:100B4C00474534D240F6D842C2F200021378E1197C
:100B5C00887840F6DC41C2F20001C8540137BFB2BC
:100B6C000133DBB21370042BEAD10A460B784978B7
:100B7C0043EA0123917843EA0143D27843EA0263C2
:100B8C00049340F6944AC2F2000A012204A9DAF84E
:100B9C000000FFF727FDDAF800300433CAF8003004
:100BAC0040F6D843C2F2000300221A70C8E776233D
:100BBC008DF808308DF80990022102A8FFF725FC6A
:100BCC00AFE5012E7FF4B0AD77238DF8083001210D
:100BDC0002A8FFF71AFCA7E5029B01330293029AC5
:100BEC0045F68F73C0F201039A42F5D9FFF75DFD0C
:100BFC0001297FF67EAD4378022B7FF47AAD40F667
:100C0C00E832C2F200020221117050228DF8082045
:100C1C008DF8093002A8FFF7F8FB6AE510B58C4691
:100C2C000B781A0903F00F0190F810E0012A11D08B
:100C3C00022A00F0B18002B110BD0029FCD00EF1E7
:100C4C00FF3E5FFA8EFE8E45F6D30CF10100FFF7E6
:100C5C003DFDF1E700293CD19CF80120CABBBEF157
:100C6C00050F15D99CF802209CF803301B0443EAAD
:100C7C0002639CF8042043EA02239CF805201343EA
:100C8C0016D0B3F5805F80F083809BB206212EE0F6
:100C9C0040F6E843C2F200031A7040F6EA43C2F28F
:100CAC0000031A8040F6EC43C2F200031A80C3E73B
:100CBC0040F6E843C2F2000300221A7040F6EA4301
:100CCC00C2F200031A8040F6EC43C2F200031A8011
:100CDC00B2E7BEF1010F39D99CF8012042EA012399
:100CEC005A1E92B240F6FE718A4240D8022140F65A
:100CFC00EC42C2F200020020108040F6EA42C2F23E
:100D0C0000021380714513D2AEEB010E5FFA8EF424
:100D1C009C4200D9DCB22246614440F6F040C2F25B
:100D2C000000FFF723FB40F6EC43C2F200031C80EB
:100D3C0040F6E943C2F2000301221A7040F6E84380
:100D4C00C2F200031A70FFF73CFB75E740F6E8436C
:100D5C00C2F2000300221A7040F6EA43C2F200030A
:100D6C001A8040F6EC43C2F200031A8064E740F6A6
:100D7C00E843C2F2000300221A7040F6EA43C2F2C2
:100D8C0000031A8040F6EC43C2F200031A8053E7CA
:100D9C00062140F6FF73AAE740F6E843C2F20003CF
:100DAC001B78DBB2012B7FF447AF40F6EA43C2F26B
:100DBC0000031B8840F6EC42C2F2000210881B1A9A
:100DCC009BB20EF1FF3E5FFA8EF49C4200D9DCB26E
:100DDC0014BB40F6E942C2F200021378013303F06F
:100DEC000F03137040F6EC43C2F200031A8840F66E
:100DFC00EA43C2F2000319888A42FFF41DAF40F6A1
:100E0C00E843C2F2000300221A7040F6F040C2F22E
:100E1C000000FFF75BFC0FE740F6F043C2F2000363
:100E2C0022460CF101011844FFF7A0FA40F6EC43FE
:100E3C00C2F200031A8814441C80CAE710B540F6AD
:100E4C00B444C2F2000440F6D043C2F2000322467E
:100E5C00002100F0DFFB226840F202739A4200D0BE
:100E6C0010BD40F6D041C2F200012046FFF7D6FE7D
:100E7C00F6E708B5FFF768FA00B591B02822002113
:100E8C0006A801F022FE002301930293039304931E
:100E9C000593012206924FF4803307930A920222A3
:100EAC000D920E934FF4E0130F9306A801F07DFA08
:100EBC0080B90F23019302210291002303934FF475
:100ECC0080620492059301A801F01DFD20B911B0B8
:100EDC005DF804FBFFF7CDFFFFF7CBFF10B582B039
:100EEC0000F04DF9FFF7C8FFFFF7DBF9FFF728F922
:100EFC00FFF7AEF9FFF7B0FA0223C0F2010301933A
:100F0C0000230093684601F0E3F901F030FA4FF446
:100F1C008053C4F202035B6A13F0006F41D140F6B8
:100F2C00E033C2F200031B681B68323B022B3DD836
:100F3C0040F68C43C2F2000302221A6040F68C4346
:100F4C00C2F200031B68022B56D140F6E833C2F202
:100F5C00000302221A7041F6EF43C2F200031B7821
:100F6C00002BF8D041F6EF43C2F2000300221A70B6
:100F7C00FFF7ACFAEFE7002342F8043B44F6FF73AB
:100F8C00C2F200039A42F6D94FF48053C4F2020322
:100F9C005A6A42F000625A625A6A42F080725A628D
:100FAC00BDE744F6C072C2F20002E7E740F6904497
:100FBC00C2F2000440F6DC33C2F2000301222146E7
:100FCC001868FFF72EFB2368B3F1FF3FB6D040F64D
:100FDC00E433C2F2000344F6C072C2F200021A609B
:100FEC004FF48043C2F20003D3F8C02F40F68C4379
:100FFC00C2F200031A60A1E7FFF725FBABE782B052
:10100C004FF48053C4F202039A6942F001029A61D0
:10101C009A6902F001020092009ADA6942F0805259
:10102C00DA61DB6903F080530193019B0022C4F267
:10103C000102536823F0E06343F00073536002B085
:10104C007047BFF34F8F4FF46D43CEF20003D96856
:10105C0001F4E0610422C0F2FA520A43DA60BFF3F1
:10106C004F8F00BFFDE708B5FFF7EBFF08B5FFF7A3
:10107C00E8FF08B5FFF7E5FF08B5FFF7E2FF08B595
:10108C00FFF7DFFF70477047704708B500F08AF82C
:10109C0008BD08B5FFF7D5FF08B500F098FD08BDF1
:1010AC00704708B540F62040C2F2000000F079FB12
:1010BC0008BD08B540F62040C2F2000000F071FBFC
:1010CC0008BD08B540F62040C2F2000000F069FBF4
:1010DC0008BD08B540F62040C2F2000000F061FBEC
:1010EC0008BD7047FFF7FDFF0B480C490C4A002365
:1010FC0002E0D458C4500433C4188C42F9D3094AC2
:10110C00094C002301E013600432A242FBD301F02E
:10111C00E5FCFFF7E3FE7047DC0B0020FC0B002026
:10112C0074370008000C0020881F0020FEE710B563
:10113C00044640F6F433C2F200031A784FF47A7383
:10114C00B3FBF2F340F6F032C2F200021068B0FBCF
:10115C00F3F000F0A9FC80B90F2C01D901200DE0AF
:10116C00002221464FF0FF3000F080FC40F6F833AF
:10117C00C2F200031C60002000E0012010BD08B585
:10118C004FF40053C4F202031A6842F010021A60C2
:10119C00032000F058FC0F20FFF7C9FFFFF72FFFCB
:1011AC00002008BD41F66473C2F20003196840F6D2
:1011BC00F432C2F2000212780A441A60704741F607
:1011CC006473C2F200031868704770477047704729
:1011DC00704770477047704770477047704770474B
:1011EC007047002800F0EB8038B5044690F82030AA
:1011FC00002B45D140F64963C0F60003036441F26D
:10120C00E313C0F60003436441F2E513C0F6000398
:10121C00836441F2E713C0F60003C36441F2D713B1
:10122C00C0F60003836241F2D913C0F60003C36217
:10123C0041F2DB13C0F60003036341F2DD13C0F689
:10124C000003436341F2DF13C0F60003836341F2F2
:10125C00E113C0F60003C36341F2E913C0F60003C7
:10126C00036541F2EB13C0F60003436541F2ED1345
:10127C00C0F600038365C36DEBB1E36D2046984760
:10128C002268136843F001031360FFF798FF0546CB
:10129C0023685A6812F0010F13D1FFF790FF401B1F
:1012AC000A28F5D9636A43F400336362052384F892
:1012BC002030012038BD40F2DF13C0F60003C365B7
:1012CC00DBE71A6822F002021A60FFF778FF054686
:1012DC0023685A6812F0020F0DD0FFF770FF401B05
:1012EC000A28F5D9636A43F400336362052384F852
:1012FC0020300120DEE7227E012A3DD01A6822F040
:10130C0080021A60637E012B3BD02268136823F0A5
:10131C0040031360A37E012B39D02268136823F09D
:10132C0020031360E37E012B37D02268136843F04F
:10133C0010031360237F012B35D02268136823F030
:10134C0008031360637F012B33D02268136823F0EA
:10135C0004031360A368E2681343226913436269B0
:10136C0013436268013A21681343CB610020606229
:10137C00012384F820309DE71A6842F080021A603D
:10138C00C0E72268136843F040031360C2E7226889
:10139C00136843F020031360C4E72268136823F03A
:1013AC0010031360C6E72268136843F00803136048
:1013BC00C8E72268136843F004031360CAE70120EE
:1013CC007047026890F82030013BDBB2012B05D945
:1013DC00436A43F4802343620120704710B5D2F86E
:1013EC00003243F00103C2F800324B6903F01F03D3
:1013FC00012000FA03F3D2F81C026FEA030C20EA76
:10140C000300C2F81C02C869C0B9D2F80C020CEA7D
:10141C000000C2F80C028C884869D1F80CE044EA50
:10142C000E44483042F830400C884869D1F808E046
:10143C0044EA0E44483002EBC0004460C8690128FD
:10144C001AD0886988BBD2F804020CEA0000C2F8F2
:10145C000402086978BBD2F814020CEA0000C2F846
:10146C001402096A01292CD0D2F8003223F00103AE
:10147C00C2F80032002010BDD2F80C021843C2F89A
:10148C000C028C884869D1F800E044EA0E444830DC
:10149C0042F830408C894869D1F808E044EA0E449F
:1014AC00483002EBC0004460CBE7D2F8040218438A
:1014BC00C2F80402CDE7D2F814021843C2F81402A1
:1014CC00CFE7D2F81C120B43C2F81C32CCE770B534
:1014DC00044690F82050EDB2012D06D0436A43F437
:1014EC00002343620125284670BD022380F820307A
:1014FC000268136823F001031360FFF760FE0646D1
:10150C0023685B6813F0010F0CD0FFF758FE831BA8
:10151C000A2BF5D9636A43F400336362052384F81C
:10152C002030E0E700256562DDE730B590F820C09B
:10153C000468A4680CF1FF3C5FFA8CFCBCF1010F51
:10154C0062D814F0E05F59D0C4F3016C012404FAA2
:10155C000CF41C608B68002B3DD10D68CB680468C3
:10156C0043EA45550CF118031B01E55003680C695F
:10157C000CF1180E03EB0E135C600B7D012B35D0B8
:10158C00D17993791B0443EA0163517943EA01232E
:10159C0014790168234301EB0C11C1F88C31D1781B
:1015AC0093781B0443EA0163517843EA01231178D1
:1015BC0002680B4302EB0C12C2F8883102680CF182
:1015CC00180C4FEA0C1C52F80C3043F0010342F893
:1015DC000C3000201DE04C6843EAC403CC68234364
:1015EC000CF11804240105682B51BFE7036803EBC9
:1015FC000E13596841F480715960C1E7436A43F492
:10160C0000134362012004E0436A43F480234362E5
:10161C00012030BD90F820C00CF1FF3C5FFA8CFC2F
:10162C00BCF1010F00F2A58030B451B90468E46834
:10163C0014F0030F10D1436A43F4001343620120EA
:10164C007EE00468246914F0030F05D1436A43F467
:10165C0000134362012073E0056801F11B042401AF
:10166C002C5904F004049460002C6BD1056801F132
:10167C001B0424012C59640D1460046801F11B0C2B
:10168C004FEA0C1C54F80C4004F00204D4600468BB
:10169C00A444DCF8045015F0080F5BD00824146146
:1016AC00046801F11B0C04EB0C146468C4F30724EC
:1016BC009461046804EB0C146468240C5461026893
:1016CC0002EB0112D2F8B8211A70026802EB011277
:1016DC00D2F8B821C2F307225A70026802EB011249
:1016EC00D2F8B821C2F307429A70026802EB0112D9
:1016FC00D2F8B821120EDA70026802EB0112D2F89D
:10170C00BC211A71026802EB0112D2F8BC21C2F39F
:10171C0007225A71026802EB0112D2F8BC21C2F303
:10172C0007429A71026802EB0112D2F8BC21120E28
:10173C00DA71C1B90268D36843F02003D36000208A
:10174C0030BC7047056801F11B0424012C59E408D6
:10175C00546092E701F11B0504EB0514646804F076
:10176C000F0414619CE70268136943F020031361B2
:10177C00E5E7436A43F4802343620120704790F805
:10178C002030013BDBB2012B05D9436A43F48023A3
:10179C00436201207047026853690B435361002078
:1017AC0070472DE9F84F044603685D69D3F804804F
:1017BC009F68D3F80CB0D3F810A0D3F8189015F09C
:1017CC00010627D017F0010608D001229A6017F005
:1017DC00020F00F0AC80836A9847002617F4807FD4
:1017EC000AD023684FF480729A6017F4007F00F0DF
:1017FC00AD80E36A2046984717F4803F0AD02368EF
:10180C004FF480329A6017F4003F00F0AF80236BE6
:10181C002046984715F0080F07D01BF0100F04D086
:10182C0046F4007623681022DA6015F0040F08D015
:10183C001BF0080F05D023680822DA60636C204681
:10184C00984715F0020F07D02368DB6813F0030FDD
:10185C0002D0236C2046984715F0400F07D01AF0A1
:10186C00100F04D046F48066236810221A6115F01C
:10187C00200F08D01AF0080F05D0236808221A612F
:10188C00E36C2046984715F0100F07D023681B69AE
:10189C0013F0030F02D0A36C2046984715F4003FB9
:1018AC0008D018F0100F05D0236810225A60236D51
:1018BC002046984715F4803F08D018F0080F05D043
:1018CC00236808225A60636D2046984715F4004F30
:1018DC0069D018F0040F63D015F4807F04D019F090
:1018EC00010F01D046F0010615F4007F04D019F069
:1018FC00020F01D046F0020615F4806F04D019F0E7
:10190C00040F01D046F0040615F4006F48D019F00E
:10191C00700945D0B9F1400F5AD04DD8B9F1200F0C
:10192C0053D0B9F1300F31D146F0200633E017F027
:10193C00040F05D117F0080605D1436B98474DE706
:10194C004FF400664AE74FF4805647E717F4806F70
:10195C0002D046F400564FE717F4006F02D046F45D
:10196C00804649E7A36B2046984745E717F4802F3C
:10197C0002D046F400464DE717F4002F02D046F48F
:10198C00803647E7E36B2046984743E7B9F1100FE1
:10199C0001D146F008062268936923F07003936125
:1019AC00236804225A602EB1636A33436362A36DC9
:1019BC0020469847BDE8F88FB9F1500F0BD0B9F11C
:1019CC00600FE8D146F48076E5E746F01006E2E7D2
:1019DC0046F04006DFE746F08006DCE7002808DB2F
:1019EC000901C9B200F1604000F5614080F80013B4
:1019FC00704700F00F000901C9B24EF6FC43CEF25D
:101A0C00000303441976704700B500F00700C0F1DD
:101A1C00070CBCF1040F28BF4FF0040C031D062B60
:101A2C000FD9C31E4FF0FF3E0EFA0CF021EA000155
:101A3C0099400EFA03FE22EA0E0241EA02005DF81A
:101A4C0004FB0023EEE74FF46D42CEF20002D368A4
:101A5C0023F4E0631B041B0C000200F4E06003435E
:101A6C0043F0BF6343F40033D360704710B50446B2
:101A7C004FF46D43CEF20003D868C0F30220FFF799
:101A8C00C3FF01462046FFF7A9FF10BD00280ADB63
:101A9C0000F01F024009012393404FF46142CEF243
:101AAC00000242F8203070470138B0F1807F0ED22E
:101ABC004FF0E02358614FF46D42CEF20002F0215A
:101ACC0082F823100020986107221A6170470120C8
:101ADC00704700280BDB00F01F02400901239340E4
:101AEC004FF46142CEF20002603042F82030704771
:101AFC0058B110B5044643791BB101236371002022
:101B0C0010BD0371FEF7B5FBF7E70120704741F6F6
:101B1C006873C2F200030022DA614FF40053C4F27E
:101B2C0002031A6942F001021A61018070474FF4F6
:101B3C000053C4F20203DB6813F0100308D041F623
:101B4C006873C2F20003DA6942F00202DA61102310
:101B5C004FF40052C4F20202D26812F0040F09D002
:101B6C0041F66872C2F20002D16941F00101D16103
:101B7C0043F004034FF40052C4F20202D26912F093
:101B8C00010F0FD041F66872C2F20002D16941F028
:101B9C000401D1614FF40052C4F20202D16921F068
:101BAC000101D16140F20112934205D04FF4005271
:101BBC00C4F20202D36070474FF40053C4F2020324
:101BCC00DA6922F00102DA61704770477047F8B5A4
:101BDC004FF40053C4F20203DB6813F0100F07D16B
:101BEC004FF40053C4F20203DB6813F0040F0ED061
:101BFC0041F66874C2F20004A5684FF0FF33A3608D
:101C0C00FFF795FF2846FFF7E1FF002323704FF401
:101C1C000053C4F20203DB6813F0200F49D04FF4D9
:101C2C000053C4F202032022DA6041F66873C2F258
:101C3C0000031B78002B3CD041F66873C2F2000302
:101C4C001B78DBB2012B4DD041F66873C2F2000356
:101C5C001B78DBB2022B70D041F66873C2F2000322
:101C6C005A68013A5A605B68002B78D141F6687368
:101C7C00C2F200031B78DBB2032B00F08E8041F61E
:101C8C006873C2F200031B78DBB2042B00F08D806A
:101C9C0041F66873C2F2000398680638FFF795FFA7
:101CAC0041F66873C2F200034FF0FF329A600022D3
:101CBC001A7041F66873C2F200031B788BB94FF4AB
:101CCC000053C4F202031A6922F007021A611A695E
:101CDC0022F4A0521A6141F66873C2F2000300228A
:101CEC001A76F8BD41F66873C2F200035A68013ADD
:101CFC005A605B68ABB141F66874C2F20004A0682C
:101D0C00FFF763FFA06800F58060A0604FF40053FC
:101D1C00C4F202031A6922F002021A6100F02EF9D1
:101D2C00C7E741F66873C2F200034FF0FF309860CA
:101D3C0000221A70FFF749FFBBE74FF40053C4F2BF
:101D4C0002031A6922F004021A610020FFF73DFF1A
:101D5C0041F66873C2F2000300221A70A9E741F63B
:101D6C006873C2F200039A6802329A609868D3E9E9
:101D7C000467340C44EA07443D0CC3E904454FF4B2
:101D8C000052C4F20202116921F001011161D3E980
:101D9C00042391B2FFF7BBFE8BE741F66873C2F2E6
:101DAC0000039868FFF711FF7AE741F66873C2F2F7
:101DBC00000398680238FFF708FF71E74FF40053EF
:101DCC00C4F202031B6913F0800F13D04FF40053BD
:101DDC00C4F2020340F22312C4F267525A6048F66E
:101DEC00AB12CCF6EF525A601B6913F0800F03D183
:101DFC000020704700207047012070474FF40053BB
:101E0C00C4F202031A6942F080021A610020704782
:101E1C0041F66873C2F20003D869704738B50446BE
:101E2C00FFF7CDF905464FF40053C4F20203DB680B
:101E3C0013F0010F0AD0B4F1FF3FF4D024B1FFF737
:101E4C00BEF9401BA042EED903202AE04FF4005308
:101E5C00C4F20203DB6813F0200F05D04FF40053DB
:101E6C00C4F202032022DA604FF40053C4F20203DE
:101E7C00DB6813F0100F11D14FF40053C4F20203BE
:101E8C00DB6913F0010F09D14FF40053C4F20203C4
:101E9C00DB6813F0040F01D1002002E0FFF747FECE
:101EAC00012038BD2DE9F0411D4641F66873C2F2A0
:101EBC0000031B7E012B4CD004460E46174641F600
:101ECC006873C2F2000301221A764CF25030FFF70D
:101EDC00A5FF0346A0BB012C08D0022C03D04FF069
:101EEC0004081C4607E04FF00208FAE74FF001081F
:101EFC00F7E70134E4B2444522D22101C1F12002BA
:101F0C00A1F1200327FA01F105FA02F2114325FA97
:101F1C0003F3194389B206EB4400FFF7F8FD4CF2CA
:101F2C005030FFF77BFF4FF4005CC4F2020CDCF87E
:101F3C00103023F00103CCF8103003460028D8D021
:101F4C0041F66872C2F20002002111761846BDE813
:101F5C00F0810223FAE741F66873C2F20003002213
:101F6C00DA614FF40053C4F202031A6942F004021E
:101F7C001A611A6942F040021A61704741F668739F
:101F8C00C2F200030022DA614FF40053C4F20203E0
:101F9C001A6942F002021A6158611A6942F0400251
:101FAC001A61704741F66873C2F200031B7E012B65
:101FBC0053D070B505460E4641F66873C2F2000365
:101FCC0001221A760368022B24D04CF25030FFF712
:101FDC0025FF002838D14FF0FF333360AC68012166
:101FEC00EA68AB6803EB8223A3422ED92046FFF7A5
:101FFC00C5FF4CF25030FFF711FF4FF40053C4F201
:10200C0002031A6922F002021A610146D0B904F5E2
:10201C008064E5E74CF25030FFF700FF08B1012176
:10202C0013E00120FFF797FF4CF25030FFF7F6FE5C
:10203C0001464FF40053C4F202031A6922F0040261
:10204C001A6102E0346000E0012141F66873C2F2CB
:10205C00000300221A76084670BD0221084670471C
:10206C0070B582B00024A446CBE00025C1F2220555
:10207C00AB4219D00025C1F22205AB420AD900258A
:10208C00C1F23105AB420FD00025C1F23205AB4293
:10209C000AD016E00025C1F21205AB4204D000258F
:1020AC00C1F22105AB4207D18B68002B65D0012B07
:1020BC005ED04261082404E00025C1F21105AB4258
:1020CC00F2D0BEF1FF0F5AD806464FEA8C023368A5
:1020DC000F25954023EA050304FA02F213433360FB
:1020EC004B6813F0805F00F08A804FF48053C4F289
:1020FC0002039A6942F001029A619B6903F00103A1
:10210C000193019B4FEA9C020023C4F20103951C2E
:10211C0053F825600CF00305AD000F23AB4026EA05
:10212C0003064FF40063C4F2010398422ED04FF41F
:10213C004063C4F20103984200F0A0804FF4805336
:10214C00C4F20103984200F09B804FF4A053C4F2F8
:10215C000103984218D0042319E0CC68B1E7CC688D
:10216C000434AEE7CC680834ABE7CC680C34A8E791
:10217C0002610824A5E70024A3E70424A1E7061DB7
:10218C00ACF108029200A2E7032300E00023AB406D
:10219C0033430025C4F20105023245F822304B6866
:1021AC0013F4801F6ED04FF48063C4F201039A685D
:1021BC0042EA0E029A604B6813F4001F6BD04FF486
:1021CC008063C4F20103DA6842EA0E02DA604B68FB
:1021DC0013F4003F68D04FF48063C4F201035A68D3
:1021EC0042EA0E025A604B6813F4803F65D04FF4FC
:1021FC008063C4F201031A6842EA0E021A600CF101
:10220C00010C0B6833FA0CF260D0012202FA0CF2CA
:10221C0003EA020E32EA0303F1D14B68122B3FF6AC
:10222C0024AF122B3FF64DAF01A555F823F000BF9C
:10223C00B5200008672100087121000883210008DF
:10224C00CF200008CF200008CF200008CF200008A6
:10225C00CF200008CF200008CF200008CF20000896
:10226C00CF200008CF200008CF200008CF20000886
:10227C00CF2000086B21000877210008012386E796
:10228C00022384E74FF48063C4F201039A6822EAC4
:10229C000E029A608FE74FF48063C4F20103DA6890
:1022AC0022EA0E02DA6092E74FF48063C4F2010373
:1022BC005A6822EA0E025A6095E74FF48063C4F222
:1022CC0001031A6822EA0E021A6098E702B070BD88
:1022DC004FF4E042C4F20002136823F0E0030168FB
:1022EC000B4313604FF48063C4F201035A6822F469
:1022FC0080325A601A6822F480321A60DA6822F44A
:10230C008032DA609A6822F480329A60436813F45F
:10231C00803F07D04FF48063C4F201031A6842F483
:10232C0080321A60436813F4003F07D04FF4806387
:10233C00C4F201035A6842F480325A60436813F0C5
:10234C00010F07D04FF48063C4F201039A6842F482
:10235C0080329A60436813F0020F07D04FF4806309
:10236C00C4F20103DA6842F48032DA607047002369
:10237C00C4F20E2301221A61704782B040F6F0338A
:10238C00C2F200031B6844F6D352C1F26202A2FBF4
:10239C0003235B0A00FB03F3019300BF019B5A1E4E
:1023AC000192002BF9D102B07047002800F068822E
:1023BC0070B582B00446036813F0010F38D04FF4A7
:1023CC008053C4F202035B6803F00C03042B23D08C
:1023DC004FF48053C4F202035B6803F00C03082B28
:1023EC0012D06368B3F5803F54D0002B6ED14FF4FC
:1023FC008053C4F202031A6822F480321A601A68FD
:10240C0022F480221A604DE04FF48053C4F2020390
:10241C005B6813F4803FE4D04FF48053C4F20203A2
:10242C001B6813F4003F03D06368002B00F02A8272
:10243C00236813F0020F00F097804FF48053C4F21E
:10244C0002035B6813F00C0F77D04FF48053C4F287
:10245C0002035B6803F00C03082B66D02369002B86
:10246C0000F0AD800023C4F2422301221A60FEF773
:10247C00A6FE05464FF48053C4F202031B6813F00A
:10248C00020F40F09080FEF79AFE401B0228F1D913
:10249C000320FCE14FF48053C4F202031A6842F4A7
:1024AC0080321A60636873B3FEF789FE05464FF4F9
:1024BC008053C4F202031B6813F4003FB8D1FEF73B
:1024CC007EFE401B6428F2D90320E0E1B3F5A02F77
:1024DC000CD04FF48053C4F202031A6822F48032F9
:1024EC001A601A6822F480221A60DBE74FF48053DA
:1024FC00C4F202031A6842F480221A601A6842F489
:10250C0080321A60CEE7FEF75AFE05464FF4805330
:10251C00C4F202031B6813F4003F89D0FEF74FFE90
:10252C00401B6428F2D90320B1E14FF48053C4F26C
:10253C0002035B6813F4803F90D14FF48053C4F2D4
:10254C0002031B6813F0020F03D02369012B40F028
:10255C009B814FF48052C4F20202136823F0F803FB
:10256C00616943EAC1031360236813F0080F40D07C
:10257C00A369002B72D00023C4F242230122C3F8BA
:10258C008024FEF71CFE05464FF48053C4F2020370
:10259C005B6A13F0020F29D1FEF711FE401B0228D3
:1025AC00F2D9032073E14FF48052C4F20202136893
:1025BC0023F0F803616943EAC1031360D4E70023F5
:1025CC00C4F2422300221A60FEF7F9FD05464FF4CF
:1025DC008053C4F202031B6813F0020FC4D0FEF741
:1025EC00EEFD401B0228F2D9032050E10120FFF739
:1025FC00C4FE236813F0040F00F0B3804FF4805333
:10260C00C4F20203DB6913F0805F3FD14FF48053B7
:10261C00C4F20203DA6942F08052DA61DB6903F03A
:10262C0080530193019B01254FF4E043C4F2000356
:10263C001B6813F4807F2BD0E368012B42D0002B56
:10264C005ED14FF48053C4F202031A6A22F00102E5
:10265C001A621A6A22F004021A623BE00023C4F2E6
:10266C0042230022C3F88024FEF7A9FD05464FF44F
:10267C008053C4F202035B6A13F0020FB9D0FEF769
:10268C009EFD401B0228F2D9032000E10025CBE778
:10269C004FF4E043C4F200031A6842F480721A60EB
:1026AC00FEF78DFD06464FF4E043C4F200031B68B1
:1026BC0013F4807FC0D1FEF782FD801B6428F2D911
:1026CC000320E4E04FF48053C4F202031A6A42F090
:1026DC0001021A62E3687BB3FEF771FD06464FF404
:1026EC008053C4F202031B6A13F0020F38D1FEF7B9
:1026FC0066FD801B41F288339842F0D90320C6E076
:10270C00052B0CD04FF48053C4F202031A6A22F04A
:10271C0001021A621A6A22F004021A62DAE74FF412
:10272C008053C4F202031A6A42F004021A621A6A53
:10273C0042F001021A62CDE7FEF741FD06464FF466
:10274C008053C4F202031B6A13F0020F08D0FEF789
:10275C0036FD801B41F288339842F0D9032096E075
:10276C002DBBE369002B00F091804FF48052C4F232
:10277C000202526802F00C02082A6ED0022B1FD003
:10278C000023C4F2422300221A66FEF718FD044609
:10279C004FF48053C4F202031B6813F0007F5AD02D
:1027AC00FEF70DFD001B0228F2D903206FE04FF459
:1027BC008053C4F20203DA6922F08052DA61D0E766
:1027CC000023C4F2422300221A66FEF7F8FC0546E9
:1027DC004FF48053C4F202031B6813F0007F06D041
:1027EC00FEF7EDFC401B0228F2D903204FE0236AD0
:1027FC00B3F5803F22D04FF48052C4F202025368EA
:10280C0023F47413216A606A01430B435360002361
:10281C00C4F2422301221A66FEF7D1FC04464FF49F
:10282C008053C4F202031B6813F0007F11D1FEF732
:10283C00C6FC001B0228F2D9032028E04FF480527A
:10284C00C4F20202536823F40033A1680B435360B3
:10285C00D1E700201BE0002019E0012B19D04FF428
:10286C008053C4F202035B6803F48031226A914204
:10287C0011D103F47013626A93420ED1002006E06A
:10288C0001207047012002E0012000E0002002B08E
:10289C0070BD0120FBE70120F9E70120F7E74FF4B9
:1028AC008053C4F202035B6803F00C02082A04D0C4
:1028BC004FF49050C0F27A007047C3F3834142F654
:1028CC008032C0F60002505C13F4803F14D04FF4F9
:1028DC008053C4F202035B68C3F3404342F67C327C
:1028EC00C0F60002D25C4FF49053C0F27A0303FBA3
:1028FC0000F0B0FBF2F070474FF41063C0F23D03F0
:10290C0003FB00F07047002800F0D78070B50D462F
:10291C0004464FF40053C4F202031B6803F0070390
:10292C008B420ED24FF40052C4F20202136823F011
:10293C0007030B431360136803F007038B4240F04B
:10294C00BE80236813F0020F20D013F0040F07D0C1
:10295C004FF48053C4F202035A6842F4E0625A60A6
:10296C00236813F0080F07D04FF48053C4F202030E
:10297C005A6842F460525A604FF48052C4F2020218
:10298C00536823F0F003A1680B435360236813F0E2
:10299C00010F41D06368012B2AD0022B32D04FF4A7
:1029AC008052C4F20202126812F0020F00F0898009
:1029BC004FF48052C4F20202516821F003010B4320
:1029CC005360FEF7FCFB06464FF48053C4F202033F
:1029DC005B6803F00C036268B3EB820F1CD0FEF74C
:1029EC00EEFB801B41F288339842EDD9032063E063
:1029FC004FF48052C4F20202126812F4003FD7D195
:102A0C00012059E04FF48052C4F20202126812F015
:102A1C00007FCDD101204FE04FF40053C4F20203EC
:102A2C001B6803F00703AB420DD94FF40052C4F2FC
:102A3C000202136823F007032B431360136803F09F
:102A4C000703AB423FD1236813F0040F09D04FF4B6
:102A5C008052C4F20202536823F4E063E1680B4332
:102A6C005360236813F0080F0AD04FF48052C4F25D
:102A7C000202536823F46053216943EAC103536093
:102A8C00FFF70DFF4FF48053C4F202035B68C3F3EE
:102A9C00031342F66C32C0F60002D35CD84040F609
:102AAC00F033C2F20003186040F6F833C2F20003B0
:102ABC001868FEF73CFB002070BD01207047012018
:102ACC00FAE70120F8E70120F6E7034602449342B7
:102ADC0000D1704703F8011BF9E7000070B5002620
:102AEC000C4D0D4C641BA410A64209D100F028F823
:102AFC0000260A4D0A4C641BA410A64205D170BDD9
:102B0C0055F8043B98470136EEE755F8043B9847D7
:102B1C000136F2E7902B0008902B0008902B000850
:102B2C00942B00080A44914200F1FF3300D1704706
:102B3C0010B511F8014B914203F8014FF9D110BDBA
:102B4C00F8B500BFF8BC08BC9E467047F8B500BF8E
:082B5C00F8BC08BC9E4670475E
:102B64007F3122007F3431000000000000000000AB
:102B74000102030406070809010200000203040518
:0C2B8400060708090A0B0C0D0E0F1010BC
:042B90003101000807
:042B94000D01000827
:102B9800804F0020C30B00206D0000206D00002036
:102BA8006D0000206D0000206D0000200000000076
:102BB8000000000000000000000000006D00002080
:102BC8006D000020000000006D0000206D00002056
:102BD8006D0000206D0000206D0000206D000020B9
:102BE8006D0000206D0000206D0000206D000020A9
:102BF8006D0000206D0000206D0000204FF0E022E5
:102C0800D2F82C1D4FF00053C3F80011D2F8281D3C
:102C1800C3F80411D2F8381DC3F80811D2F8342DBE
:102C2800C3F80C21EFF30882C3F81021FEE782B045
:102C3800019000E000BF019B5A1E0192002BF9D1C0
:102C480002B0704782B04FF40053C4F20203DB684D
:102C580013F0010FF7D14FF40053C4F20203DB68FD
:102C680013F0200F05D04FF40053C4F202032022C2
:102C7800DA600023019302E0019B01330193019B79
:102C8800B3F5FA6FF8DB02B070474FF40053C4F2A3
:102C980002031B6913F0800F0DD04FF40053C4F2E8
:102CA800020340F22312C4F267525A6048F6AB128C
:102CB800CCF6EF525A6070474FF40053C4F2020347
:102CC8001A6942F080021A61704738B50546FFF765
:102CD800B9FF4FF40054C4F20204236943F002031D
:102CE80023616561236943F040032361FFF7AAFF6D
:102CF800236923F00203236138BD38B504460D4625
:102D0800FFF7C3FF04E02046FFF7DFFF04F5806408
:102D1800AC42F8D3FFF7D0FF38BD10F0010F5FD1F8
:102D2800B0F1006F5FD343F2FF73C0F6000398421F
:102D38005CD803889BB24FF6FF72934259D14FF487
:102D48000053C4F20203DB6813F0010FF7D14FF40C
:102D58000053C4F202033422DA601A6942F0010215
:102D68001A6101804FF40053C4F20203DB6813F0C8
:102D7800010FF7D14FF40053C4F20203DB6813F0DC
:102D8800040F13D14FF40053C4F20203DB6813F0AD
:102D9800100F18D14FF40053C4F202032022DA6056
:102DA8001A6922F001021A61002070474FF400539B
:102DB800C4F202030422DA601A6922F001021A61DD
:102DC8006FF0060070474FF40053C4F2020310225C
:102DD800DA601A6922F001021A616FF00700704781
:102DE8006FF0020070476FF0030070476FF0040047
:102DF80070476FF00500704770B504460D46FFF741
:102E080044FFA9B22046FFF788FF064618B1FFF72E
:102E180053FF304670BD290CA01CFFF77EFF064605
:102E2800F5E74FF4C043C4F20003D3F80C3413F0B1
:102E3800030F2ED0F0B44FF4C043C4F20003D3F80C
:102E4800B075D3F8B465D3F8B855D3F8BC454FEA94
:102E5800575CA0F800C006F00F0008701570C5F3A5
:102E680007215170C5F3074191702D0ED57014716B
:102E7800C4F307215171C4F307419171240ED47131
:102E8800D3F80C2442F02002C3F80C240120F0BC33
:102E980070470020704700B54FF4C043C4F20003E8
:102EA800D3F8083413F0806FF6D092F803C0937803
:102EB8001B0443EA0C6392F801C043EA0C2392F81E
:102EC80000C043EA0C034FF4C04CC4F2000CCCF829
:102ED800883592F807E093791B0443EA0E6392F869
:102EE80005E043EA0E2312791343CCF88C3501F040
:102EF8000F01CCF88415400540F00100CCF880059E
:102F08004FF4C043C4F20003D3F8083413F0010FA0
:102F1800F6D04FF4C043C4F200030122C3F80824DA
:102F28005DF804FB00B54FF0000E4FF0FF3210E0E3
:102F380052080133DBB2072B09D812F0010FF7D082
:102F480048F2203CCEF6B85C8CEA5202F1E70EF16A
:102F5800010E8E4504D210F80E305A400023EAE7DD
:102F6800D0435DF804FB08B5002307E041F654722E
:102F7800C2F200020021D1540133DBB2072BF5D98C
:102F880041F65472C2F200023023137000235370CA
:102F980005239370082140F20370FFF77CFF08BDFA
:102FA80008B5072900D90721002309E041F6547222
:102FB800C2F200024FF0000C02F803C00133DBB28A
:102FC800072BF3D901F00F0241F65473C2F2000344
:102FD8001A70002309E05A1C10F803C041F6547314
:102FE800C2F2000303F802C0D3B28B42F3D341F616
:102FF8005472C2F20002082140F20370FFF74BFF3F
:1030080008BD2DE9F04182B004460D460378103B17
:10301800272B00F20581DFE813F02800BF01030128
:103028000301030103010301030103010301030178
:103038000301030103010301030103010301E40187
:103048000301030103010301030103010301030158
:103058000301030103010301030103010E0103013D
:1030680003013F000301B5000101012940F2D880A6
:103078004378022B40F0D48050228DF800208DF840
:1030880001304FF48043C2F200030221C3F8C01F8D
:103098006846FFF785FFC3E0022940F2C1808378C4
:1030A8001B09042B02D1DA1D8A420ED942F6683375
:1030B800C0F600031B68ADF800301B0C8DF8023019
:1030C80003216846FFF76CFFAAE00333C118C078F4
:1030D8002279120442EA0062607942EA0022A07969
:1030E8000243E05C4B781B0443EA0063887843EAB8
:1030F8000023C9780B4309D0B2F1006F06D3D0186A
:103108004FF46051C0F6000188420ED942F6683388
:10311800C0F600031B68ADF800301B0C8DF80230B8
:1031280003216846FFF73CFF7AE041F65071C2F28E
:1031380000010A6041F64C71C2F200010B6041F6D1
:103148004873C2F200031A6041F64472C2F20002E8
:103158000023136041F63C72C2F200021370032B85
:1031680008D841F64072C2F200020021D15401335E
:10317800DBB2F4E7032140F6D830C2F20000FFF7D3
:103188000FFF4DE002294BD947788D1EADB241F6AD
:103198004473C2F200031A682A441A60002601E048
:1031A8000136B6B2AE422FD241F63C72C2F20002EC
:1031B8001378A119887841F64071C2F20001C85409
:1031C8000133DBB21370042BEAD10B460A78497835
:1031D80042EA0122997842EA0142D97841F64878D0
:1031E800C2F2000842EA0161D8F80000FFF704FEC5
:1031F800D8F800300433C8F8003041F63C73C2F206
:10320800000300221A70CBE776238DF800308DF882
:10321800017002216846FFF7C3FE01E0012902D0D0
:1032280002B0BDE8F08177238DF8003001216846AF
:10323800FFF7B6FEF4E708292BD0032DF0D9637801
:10324800012BEDD1A278E37843EA02231BB2062BC7
:10325800E6D14FF46051C0F600014FF00060FFF76F
:103268004CFD71238DF8003001238DF80130A378CF
:103278008DF80230E3788DF8033000238DF80430A0
:103288008DF805308DF8063007216846FFF788FE6F
:10329800C6E74378012BD0D18378002BCDD1C378F2
:1032A800002BCAD141F64C73C2F200031B682BB144
:1032B80041F64473C2F200031B6873B942F66433E3
:1032C800C0F600031B68ADF800301B0C8DF8023007
:1032D80003216846FFF764FEA2E741F63C73C2F299
:1032E80000031A78FAB14FF0FF330093002307E088
:1032F80041F64071C2F20001C95C0DF803100133B8
:103308009A42F5D841F64875C2F200050099286836
:10331800FFF772FD2B6804332B6041F63C73C2F251
:10332800000300221A702379627943EA0223A27902
:1033380043EA0243E27943EA026440F6D433C2F234
:1033480000031C6041F64C72C2F2000241F6507351
:10335800C2F2000311681868FFF7E4FD40F6D032A6
:10336800C2F20002106084420ED042F66433C0F606
:1033780000031B68ADF800301B0C8DF802300321E8
:103388006846FFF70DFE4BE7052140F6C830C2F24C
:103398000000FFF705FE43E701297FF641AF4378B8
:1033A800012B7FF43DAF51228DF800208DF80130BC
:1033B80002216846FFF7F4FD45F69070C0F201005F
:1033C800FFF735FC4FF48043C2F200030222C3F832
:1033D800C02F0423C0F2FA534FF0E022C2F80C3D8C
:1033E800FEE7032920D0032D7FF41AAF6378F12B71
:1033F8007FF416AFA278802A7FF412AF62218DF88D
:1034080000108DF801308DF8022021238DF803304B
:103418008DF804308DF80530FF238DF8063007212C
:103428006846FFF7BDFDFBE64378F12B0FD06378C4
:10343800F12BD8D1A3787F2BD5D14FF26213C0F2EC
:103448007F33009304216846FFF7AAFDCBE7837812
:103458007E2BECD14FF26213C0F27E23009304213D
:103468006846FFF79DFDE2E7002900F0098170B585
:10347800084611780B0901F00F01012B30D0022BFF
:1034880000F09F8003B170BD0029FCD00138C0B2A4
:1034980088420CD2F7E703F1010C12F80CE041F670
:1034A800FC40C2F2000000F803E05FFA8CF38B42A4
:1034B800F1D341F6F843C2F20003198041F6F6430E
:1034C800C2F20003198041F6F443C2F2000300225D
:1034D8001A7041F6FC40C2F20000FFF792FDD2E7F5
:1034E800A1B9537893B905285AD99178D3781B0490
:1034F80043EA0163117943EA012351790B43591EC9
:10350800B1F5107F4CD29BB206250AE0012847D9B5
:10351800537843EA0123591E89B2B1F5107F3FD28F
:10352800022541F6F841C2F2000100240C8041F660
:10353800F641C2F200010B80854223D2401BC0B283
:10354800834200D2D8B208B1002314E041F6F44314
:10355800C2F2000300221A7041F6F643C2F20003D9
:103568001A8090E7E918545C41F6FC41C2F2000168
:10357800CC540133DBB28342F4D341F6F843C2F2B0
:103588000003188041F6F543C2F2000301221A70C5
:1035980041F6F443C2F200031A70FFF7E4FC72E745
:1035A80041F6F443C2F2000300221A7041F6F643D2
:1035B800C2F200031A8041F6F843C2F200031A80EF
:1035C80061E741F6F443C2F200031B78DBB2012B3A
:1035D8007FF459AF41F6F643C2F20003198841F669
:1035E800F843C2F200031D884B1B9BB20138C0B2DE
:1035F800984200D9D8B24619B6B2B6F5107F01D8AC
:1036080000231DE041F6F443C2F2000300221A70C1
:1036180041F6F643C2F200031A8041F6F843C2F2BB
:1036280000031A802FE703F1010E2B4412F80E4015
:1036380041F6FC4CC2F2000C0CF803405FFA8EF322
:103648009842F0D841F6F843C2F200031E8041F6D2
:10365800F542C2F200021378013303F00F0313702E
:10366800B1423FF610AF41F6F443C2F20003002224
:103678001A7041F6FC40C2F20000FFF7C2FC02E7F4
:10368800704700B583B072B64FF0E0224FF0FF33B9
:10369800C2F88031002313615361936141F650727F
:1036A800C2F20002136041F64C72C2F200021360CB
:1036B80041F64872C2F20002136041F64472C2F247
:1036C8000002136041F63C72C2F20002137041F628
:1036D800F442C2F20002137041F6F842C2F200024C
:1036E800138041F6F642C2F20002138041F6F54219
:1036F800C2F20002137062B617E041F65C72C2F2C1
:1037080000029DF80510FFF7AFFE20E041F65C725D
:10371800C2F200020021D15441F65472C2F20002F2
:10372800D1540133DBB2072BF0D941F65C72C2F2F7
:1037380000020DF105010DF10600FFF772FB0028EC
:10374800F3D0BDF8060040F202739842D5D00023AA
:10375800E9E708B5FFF795FF7101000000000000D8
:0C37680000000000000000007410F000E1
:10377400003C0008C84F0020C04F00200700000094
:10378400212121FF00127A00010000001000000036
:04000005080010F1EE
:00000001FF
