:020000040800F2
:10000000C04F0020550C00081B0C00081D0C0008F8
:100010001F0C0008210C0008230C00080000000041
:10002000000000000000000000000000250C000897
:10003000270C000800000000290C00082B0C000809
:100040009D0C00082F0C00089D0C00089D0C00085A
:10005000330C0008370C00089D0C00089D0C0008AC
:100060009D0C00089D0C00089D0C00089D0C0008CC
:100070009D0C00089D0C00089D0C00089D0C0008BC
:100080009D0C00089D0C00089D0C0008390C000810
:10009000450C0008490C00084D0C00089D0C000898
:1000A0009D0C00089D0C00089D0C00089D0C00088C
:1000B0009D0C00089D0C00089D0C00089D0C00087C
:1000C0009D0C00089D0C00089D0C00089D0C00086C
:1000D0009D0C00089D0C00089D0C00089D0C00085C
:1000E0009D0C00089D0C00089D0C000800000000FD
:1000F0000000000000000000000000000000000000
:0C01000000000000000000005FF808F1A3
:10010C0010B5054C237833B9044B13B10448AFF345
:10011C0000800123237010BD380500200000000072
:10012C005820000808B5034B1BB103490348AFF333
:10013C00008008BD000000003C050020582000088D
:10014C0040F254504FF4C843C2F20000C4F2000312
:10015C0010B50024036006234FF48022C0E901345B
:10016C004FF4A003C0E904234FF480738AB0C0F2AB
:10017C000113C4608361848300F0ECFD08B100F0CE
:10018C0023FD0D23CDE905340123079308934EF28B
:10019C00400340F25450CDE900344FF6E073694609
:1001AC00C2F20000CDE90234049400F054FE40F297
:1001BC005450C2F2000000F0C5FE40F2545006212B
:1001CC00C2F2000000F0E3FF0AB010BD10B586B01B
:1001DC0004461022002102A801F0FDFE4FF4C84392
:1001EC002268C4F200039A422FD14FF48053C4F218
:1001FC000203DA694FF4006042F00072DA61DA69E6
:10020C0002A902F000720092009A9A69C4F20100ED
:10021C0042F004029A619B6903F004030193019B71
:10022C004FF4006302930123049301F021FB4FF47C
:10023C00805102234FF40060CDE90213032302A97D
:10024C00C4F20100059301F013FB06B010BD10229F
:10025C002DE9F04188B00DEB0200002101F0BBFE4E
:10026C004FF480534FF44066C4F202034FF4006520
:10027C009A69C4F2010642F010029A619A69C4F2BA
:10028C00010502F010020092009A9A69304642F081
:10029C0020029A619A6940F6020102F02002019252
:1002AC00019A9A69032442F004029A619A694FF008
:1002BC00010802F004020292029A9A69022742F0A3
:1002CC0008029A619B69002203F008030393039BC5
:1002DC0001F0ECFB002228464FF4807101F0E6FBA4
:1002EC004FF480504FF4604304A9C4F20100CDE9EF
:1002FC00043401F0BDFA48F2FF63284604A9CDE9A5
:10030C00043401F0B5FA4FF2FD73304604A9CDE97F
:10031C00043401F0ADFA40F60203304604A9CDE9ED
:10032C000438CDE9067401F0A3FA4FF48073284623
:10033C0004A9CDE90438CDE9067401F099FA08B0A6
:10034C00BDE8F0812DE9F04140F2A4560823C2F239
:10035C000006336140F2037340F2D8553360042336
:10036C00C2F200052B70712340F2E0576B7007232B
:10037C0040F2A05840F254500024C2F200072B71F6
:10038C007B79C2F200086B71BB792A46AB71FB79A1
:10039C003146EB71C2F200004346AC70EC7000F0D9
:1003AC00FCFD40F2BC530120C2F20003C6E901443B
:1003BC00C3E902442C606C603461F46034603475C1
:1003CC00C8F800401C601C615C609C615C613C6016
:1003DC007C6000F0ABFC72B64FF0E02342F2B452FA
:1003EC001C6142F29C015C619C6140F20003C0F60E
:1003FC000001C2F20003C0F60002521A184601F0C6
:10040C0017FE4FF46D420346CEF2000200685968A5
:10041C00936080F30888BDE8F041084710B51424B8
:10042C0090B02246002108A801F0D5FD22460021FB
:10043C0001A801F0D0FD022401224FF48033CDE954
:10044C000623CDE90D434FF4E01306A80A920F934F
:10045C0001F040FB0F234FF48062CDE901340023FF
:10046C00214601A8CDE90332059301F007FD10B038
:10047C0010BD002102464FF00063C0F60201184681
:10048C0003F580639A4201D2824202D28B42F6D1AA
:10049C000020704713B54FF6FF70C0F60000FFF751
:1004AC00E8FF044601F0D6F840F27C500023C2F27B
:1004BC00000003604FF48043C0F60003836004F136
:1004CC007843A3F580439B0A013301A9C36001F073
:1004DC0077F9044618B101F0DDF802B010BD01F057
:1004EC00CFF82046F9E7F8B506460F46154672B622
:1004FC0001F0B0F80024A54206EB840104D801F009
:10050C00BFF862B60020F8BD0023022057F8242063
:10051C0001F0F0F808B90134EDE7BDE8F84001F05E
:10052C00B9B872B601EB8202401A914201D162B69F
:10053C007047435841F8043BF7E72DE9F04140F28E
:10054C00BC5540F2A456C2F200052B69C2F200065B
:10055C0033612B6840F2D854013340F2E0573360DA
:10056C000723C2F20004C2F2000723707B7840F22A
:10057C00A05840336370BB7840F25450A370FB78A2
:10058C00C2F20008E37040F21853C2F200031A786A
:10059C00314622715A78C2F2000062719A78DB7887
:1005AC00A271E3712246434600F0F7FC0020C6E935
:1005BC000100C5E90200206060603061F0603060CD
:1005CC003075C8F80000286028616860A86168610F
:1005DC0038607860BDE8F0812DE9F04140F2BC5400
:1005EC0040F2A45540F2E05740F2D85640F2A058E1
:1005FC0040F25450C2F200042369C2F200052B6190
:10060C002368C2F2000701332B603B78C2F200066C
:10061C0033707B78C2F2000840337370BB7832467B
:10062C00B370FB782946F3703B79C2F2000033714A
:10063C00434600F0B2FC0020C5E90100C4E9020009
:10064C00306070602861E86028602875C8F8000088
:10065C00206020616060A061606138607860BDE8F6
:10066C00F08140F220532DE9F04140F2E05640F287
:10067C00A45540F2BC5440F2D857C2F200031B7888
:10068C00C2F20006022BC2F20005C2F20004C2F252
:10069C00000733D140F2945840F29C51D6F8033005
:1006AC00C2F20008C2F200010122D8F800000B606F
:1006BC00FFF719FFD8F8003040F254500433C8F853
:1006CC00003040F29853C2F200031A6829460132F6
:1006DC001A6023693A462B612368C2F20000013389
:1006EC002B6033783B70737840337B70B378BB707E
:1006FC0040F2A053C2F2000300F04FFC002340F282
:10070C00A052C5E90133C4E90233C2F200023B60D6
:10071C007B602B61EB602B602B7513602360236176
:10072C006360A361636133607360BDE8F0812DE9A0
:10073C00F04140F2BC5440F2A45540F2E05740F274
:10074C00D85640F2A05840F25450C2F2000423692B
:10075C00C2F200052B612368C2F2000701332B6043
:10076C003B78C2F2000633707B78C2F2000840334B
:10077C007370BB783246B37029464346C2F2000010
:10078C0000F00BFC0020C5E90100C4E90200306058
:10079C0070602861E86028602875C8F80000206047
:1007AC0020616060A061606138607860BDE8F081B4
:1007BC002DE9F84340F2BC5640F2A45740F2E05504
:1007CC0040F2D85440F2A05840F25459C2F20006FC
:1007DC003369C2F200073B613368C2F20005013392
:1007EC003B602B78C2F2000423706B78C2F20008D5
:1007FC0040336370AB78C2F20009A370EB782246E9
:10080C00E3702B79394623716B7948466371AB7968
:10081C00A371EB79E371434600F0BFFBFFF73AFE9F
:10082C00D8F80010484600F00AFC0021C7E9011175
:10083C00C6E90211216061603961F960396039756E
:10084C00C8F80010316031617160B161716129606B
:10085C006960BDE8F88370B54FF48044C0F60004BD
:10086C00256872B6162000F01FFE152000F01CFE45
:10087C00142000F019FE132000F016FE052000F0E5
:10088C0013FE042000F010FE012000F00DFE4FF0CE
:10089C00E02300221A615A619A614FF46D43CEF243
:1008AC0000039C6085F308886368BDE870401847B6
:1008BC0008B500F015FAFFF7B1FDFFF7C8FCFFF71C
:1008CC003FFC00220520114600F096FD052000F0AB
:1008DC00C8FD00220420114600F08EFD042000F01B
:1008EC00C0FD00220120114600F086FD012000F021
:1008FC00B8FD00221620114600F07EFD162000F0F7
:10090C00B0FD00221520114600F076FD152000F0F8
:10091C00A8FD00221420114600F06EFD142000F0FA
:10092C00A0FD00221320114600F066FD132000F0FC
:10093C0098FD40F294530022C2F200031A6040F278
:10094C009853C2F200031A6040F2905440F21C53C8
:10095C00C2F20004C2F20003214618680122FFF71C
:10096C00E0FD21684B1C40F28C53C2F200030FD007
:10097C0040F2245244F6C070C2F20002C2F20000EF
:10098C0010604FF48042C2F20002D2F8C02F1A60FD
:10099C001A68022A10D140F22053C2F200031A70D6
:1009AC0040F2E8540025C2F200042378002BFCD05E
:1009BC002570FFF7C7FCF8E70131F1D0FFF74BFFCB
:1009CC00EEE772B640F224530022C2F200031B6819
:1009DC001A60BFF34F8F4FF46D420423CEF2000226
:1009EC00D168C0F2FA5301F4E0610B43D360BFF35A
:1009FC004F8F00BFFDE7F7B540F2E054C2F20004A0
:100A0C002378032B0AD16378222B07D1A378F12BFF
:100A1C0004D1E378802B01D1FFF78FFD2379627825
:100A2C00072B217840D1042946D1312A44D1A3780F
:100A3C00E278134305D140F2E8530122C2F20003DD
:100A4C001A7040F2D85740F2A45640F2BC55637865
:100A5C00C2F20007372BC2F20006C2F2000504D125
:100A6C002378012B07D1FFF762FE6378112B02D19B
:100A7C00A278012A39D040F2A0520023C2F200021F
:100A8C00C6E90133C5E902333B607B603361F36037
:100A9C003360337513602B602B616B60AB616B61E2
:100AAC002360636003B0F0BD042905D1312A03D162
:100ABC00042BC6D1FFF77CFE6378342B0FD140F2A8
:100ACC009452637921791B0243EA0143A179C2F262
:100ADC0000020B4343F000631360FFF77DFD637866
:100AEC00362BAED1FFF7BDFDABE72B69BA70336186
:100AFC002B6840F2D85201333360237840F2A45172
:100B0C003B7051237B70E37840F25450FB7040F201
:100B1C00A053C2F20002C2F20003C2F20001C2F200
:100B2C00000000F03AFA002345F68F720193C0F2F0
:100B3C0001020193019B934201D9FFF742FF019BF4
:100B4C0001330193F6E770B540F2E05440F2BC5526
:100B5C00C2F20004C2F2000523462A4600210646D2
:100B6C0000F091FA40F22053C2F200031A78022AE4
:100B7C0023D0052A01D1FFF724FF6278102A20D157
:100B8C00A07802281DD140F2A4512A69C2F20001BA
:100B9C000A612A68247801320A6040F2D85218702F
:100BAC00C2F2000240F2A053147050249070C2F2B2
:100BBC0000033046547000F0F0F9BDE87040FFF7C8
:100BCC001ABF70BDFFF7BFBF70474FF48053C4F21C
:100BDC0002039A6982B042F001029A619A6902F0AA
:100BEC0001020092009ADA6942F08052DA61002226
:100BFC00DB69C4F2010203F080530193019B53683B
:100C0C0023F0E06343F00073536002B07047FEE7DB
:100C1C00FEE7FEE7FEE7FEE770477047704700F01F
:100C2C0072B800F049BF00F083BC704740F25450DA
:100C3C00C2F2000000F0C7BAFFF7F8BFFFF7F6BF2B
:100C4C00FFF7F4BF70470000FFF7FCFF0B480C499F
:100C5C000C4A002302E0D458C4500433C4188C420C
:100C6C00F9D3094A094C002301E013600432A24273
:100C7C00FBD301F0B9F9FFF71BFE704718050020F4
:100C8C0034050020B425000838050020100600208B
:100C9C00FEE738B540F22C53C2F2000319784FF43A
:100CAC007A7340F22852B3FBF1F3C2F2000205460C
:100CBC001068B0FBF3F000F0E2FB044670B90F2DA6
:100CCC000CD8024629464FF0FF3000F095FB40F25D
:100CDC0030532046C2F200031D6038BD0120FCE7F2
:100CEC0008B54FF40053C4F202031A68032042F013
:100CFC0010021A6000F06DFB0F20FFF7CAFFFFF720
:100D0C0064FF002008BD40F2EC5340F22C52C2F2BA
:100D1C000003C2F20002196812780A441A60704784
:100D2C0040F2EC53C2F200031868704738B5044621
:100D3C00FFF7F6FF631C18BF40F22C5305461EBF8D
:100D4C00C2F200031B78E418FFF7EAFF431BA3422F
:100D5C00FAD338BD38B50446002874D090F820304A
:100D6C000BB9FFF733FA2268136843F001031360E1
:100D7C00FFF7D6FF054623685A68D10757D51A687E
:100D8C0022F002021A60FFF7CBFF054623685A686F
:100D9C0092075AD4227E0020012A1A680CBF42F016
:100DAC00800222F080021A602368627E012A1A688F
:100DBC000CBF42F0400222F040021A602368A27E6F
:100DCC00012A1A680CBF42F0200222F020021A609D
:100DDC002368E27E012A1A680CBF22F0100242F04E
:100DEC0010021A602368227F012A1A680CBF42F095
:100DFC00080222F008021A602368627F012A1A682E
:100E0C000CBF42F0040222F004021A60D4E9023250
:100E1C001343226921681343626913436268013AE0
:100E2C001343CB610123606284F820300CE0FFF7A0
:100E3C0077FF401B0A289ED9636A43F40033636230
:100E4C00052384F82030012038BDFFF769FF401BD3
:100E5C000A289BD9F0E770B590F820200368013A76
:100E6C00012A69D80120D3F8002242F00102C3F80C
:100E7C0000224A69D3F81C4202F01F0200FA02F267
:100E8C0024EA0204C3F81C42CC69D043ACB9D3F8B1
:100E9C000C420440C3F80C42CE684C698D8848342F
:100EAC0045EA064543F834504C698E680D88483441
:100EBC0045EA064503EBC4046560CC69012C15D1E9
:100ECC00D3F80C421443C3F80C420E684C698D885D
:100EDC00483445EA064543F834504C698E688D8990
:100EEC00483445EA064503EBC40465608C69DCB9FB
:100EFC00D3F804420440C3F804420C69C4B9D3F8D3
:100F0C0014422040C3F814020020096A012902BFD0
:100F1C00D3F81C120A43C3F81C22D3F8002222F087
:100F2C000102C3F8002270BDD3F804421443E2E777
:100F3C00D3F814021043E5E7436A43F48023436279
:100F4C000120F0E738B590F820300446012B1FD172
:100F5C000223026880F82030136823F00103136029
:100F6C00FFF7DEFE05462368586810F0010001D13A
:100F7C00606238BDFFF7D4FE401B0A28F3D9636AC0
:100F8C0043F400336362052384F820300120F0E73A
:100F9C00436A43F400234362F8E7F0B590F820501D
:100FAC000468013D012DA46845D814F0E05F3CD0E5
:100FBC000125C4F30164A5401D608B680668CD68EB
:100FCC0004F1180753BB0B6845EA43553B01F55038
:100FDC0003680D6903EB07135D600B7D012B4FEA72
:100FEC00041307D101681944D1F8844144F4807486
:100FFC00C1F88441016854681944C1F88C411168E6
:10100C0002681A44C2F88811026800201344D3F80D
:10101C00802142F00102C3F88021F0BD2B434D68C2
:10102C0043EAC5033D017351D2E7436A43F400130D
:10103C0043620120F1E7436A43F48023F8E790F818
:10104C002030013B012B18D8CB0741BF02689368B5
:10105C0043F0800393608A0741BF0268936843F4AE
:10106C00004393604B0748BF02684FF0000042BF3B
:10107C00936843F4000393607047436A43F48023FE
:10108C00436201207047F0B590F82040013C012CE0
:10109C0079D8046841B9E568AD0707D1436A43F4D0
:1010AC00001343620120F0BD2569F5E701F11B0532
:1010BC002E01A45904F0040494600768002C59D143
:1010CC00BC59640D146006682C01345904F00204F8
:1010DC00D46006680C0106EB0116D6F8B4713F0714
:1010EC004EBF0826D6F8B46106F00F0616610668E6
:1010FC0006EB05167668C6F307269661066806EBBE
:10110C00051675682D0C556102682244D2F8B82179
:10111C001A7002682244D2F8B821120A5A70026876
:10112C002244D2F8B821120C9A7002682244D2F8E8
:10113C00B821120EDA7002682244D2F8BC211A715E
:10114C0002682244D2F8BC21120A5A710268224465
:10115C00D2F8BC21120C9A7102682244D2F8BC213C
:10116C00120EDA71036849B9DA6842F02002DA60CB
:10117C00002098E7BC59E4085460A4E71A6942F0CF
:10118C0020021A61F4E7436A43F4802389E790F85C
:10119C002030013B012B05D802680020536919430C
:1011AC0051617047436A43F48023436201207047C6
:1011BC00704770477047704770477047704770476B
:1011CC007047704770472DE9F84F036805465E6914
:1011DC00D3F8049016F00104D3F80880D3F80CB0BF
:1011EC00D3F810A09F6927D018F0010F07D0012267
:1011FC0018F0020F9A6000F0A780FFF7D9FF0024C7
:10120C0018F4807F0AD04FF480722B6818F4007F9A
:10121C009A6000F0A8802846FFF7CBFF18F4803FB7
:10122C000AD04FF480322B6818F4003F9A6000F01B
:10123C00AA802846FFF7BEFF320707D51BF0100F18
:10124C001FBF10222B6844F40074DA60730708D5B2
:10125C001BF0080F05D008222B682846DA60FFF730
:10126C00B1FCB00706D52B68DB68990702D028467D
:10127C00FFF769FC720607D51AF0100F1FBF10227A
:10128C002B6844F480641A61B30608D51AF0080F71
:10129C0005D008222B6828461A61FFF790FFF0064C
:1012AC0006D52B681B69990702D02846FFF786FFE5
:1012BC00B20308D519F0100F05D010222B68284660
:1012CC005A60FFF77DFFF30308D519F0080F05D01E
:1012DC0008222B6828465A60FFF773FF30042AD582
:1012EC0019F0040F24D0F10503D5FA0748BF44F0D8
:1012FC000104B30503D5B80748BF44F002047105D7
:10130C0003D57A0748BF44F00404330510D517F011
:10131C0070030DD0402B56D045D8202B4DD0302B00
:10132C004ED0102B46D02A68936923F0700393613A
:10133C0004222B685A602CB16B6A284623436B62DB
:10134C00FFF740FFBDE8F88F18F0040F05D118F037
:10135C00080F05D1FFF72FFF51E74FF400644FE75B
:10136C004FF480544CE718F4806F02D044F40054CE
:10137C0054E718F4006F02D044F480444EE728463A
:10138C00FFF71AFF4AE718F4802F02D044F4004408
:10139C0052E718F4002F02D044F480344CE728466E
:1013AC00FFF70BFF48E7502B10D0602BBBD144F458
:1013BC008074B8E744F00804B5E744F01004B2E7D1
:1013CC0044F02004AFE744F04004ACE744F0800460
:1013DC00A9E74FF46D42CEF20002D168030221F46A
:1013EC00E061090403F4E063090C0B4343F0BF63B1
:1013FC0043F40033D36070474FF46D4330B5CEF2F5
:10140C000003DC68C4F30224C4F10703251D042B7C
:10141C0028BF0423062D4FF0FF3594BF0024033C56
:10142C0005FA03F321EA0303A540002822EA05028A
:10143C0003FA04F343EA0203B6BF4EF6FC4200F192
:10144C006040CEF200024FEA0313B8BF00F00F0069
:10145C00DBB2ABBF00F56140121880F80033137695
:10146C0030BD00280ADB01234FF46142410900F032
:10147C001F008340CEF2000242F821307047013841
:10148C00B0F1807F0ED24FF46D424FF0E023F0218B
:10149C00CEF20002586182F82310002007229861D6
:1014AC001A6170470120704700280BDB01224FF4B2
:1014BC006141430900F01F008240CEF2000160330D
:1014CC0041F8232070474FF40052C4F20202D36853
:1014DC0013F0100308D040F2F053C2F20003D969A4
:1014EC0041F00201D9611023D268500709D540F2AE
:1014FC00F052C2F20002D16943F0040341F0010141
:10150C00D1614FF40052C4F20202D169C9070BD564
:10151C0040F2F051C2F20001C86940F00400C86109
:10152C00D16921F00101D161D360704770477047D8
:10153C004FF4005370B540F2F054C4F20203DA6871
:10154C00C2F2000412F0100F02D1DB685A070AD560
:10155C004FF0FF33A568A360FFF7B5FF2846FFF7F0
:10156C00E6FF002323704FF40055C4F20205EB682C
:10157C009B0618D52023EB602378A3B12378012B8D
:10158C002AD16368013B63606368F3B1A068FFF71D
:10159C00CDFFA06800F58060A0602B6923F00203EA
:1015AC002B6100F0F9F8237803F0FF0163B94FF4D5
:1015BC000053C4F202031A6922F007021A611A6975
:1015CC0022F4A0521A61217670BD4FF0FF30A0605A
:1015DC002370FFF7ABFFE6E72378022B09D12B69C9
:1015EC00002023F004032B61FFF7A0FF00232370DE
:1015FC00D9E76368013B63606368D3B1A3680233C6
:10160C00A360A668D4E90401020C42EA01420B0C67
:10161C00C4E904232B6923F001032B61D4E90423CF
:10162C000023E3612B6992B243F001032B613280FA
:10163C00B9E72378032B06D1A068FFF777FF4FF0AB
:10164C00FF33A360D2E72378A068042B0CBF0238C9
:10165C000638F2E74FF40053C4F20203186910F095
:10166C0080000CD040F22312C4F267525A6048F644
:10167C00AB12CCF6EF525A601869C0F3C010704729
:10168C004FF40053C4F202031A69002042F08002A6
:10169C001A61704740F2F053C2F20003D8697047E8
:1016AC0070B50546FFF73CFB4FF400540646C4F2F8
:1016BC000204E368D80712D4E368990644BF2023D8
:1016CC00E360E368DA0606D4E369DB0703D4E06879
:1016DC0010F0040007D0FFF7F6FE012003E06B1CAE
:1016EC00E7D00DB9032070BDFFF71AFB801BA84291
:1016FC00DFD9F7E72DE9F84F40F2F056C2F20006B9
:10170C001F46337E0546012B8846914642D0012365
:10171C004CF250303376FFF7C3FFB8BB012D03D02A
:10172C00022D14BF042502254FF0000A4FF4005B74
:10173C005346C4F2020B4FEA0A14C4F12001A4F17F
:10174C00200207FA01F129FA04F4F3610C4327FA99
:10175C0002F21443DBF81020A4B242F00102CBF8E1
:10176C0010204CF2503028F81A40FFF799FFDBF8A4
:10177C00102022F00102CBF8102038B90AF1010A2E
:10178C005FFA8AF295424FF00003D4D800233376E7
:10179C00BDE8F88F0220FBE740F2F0530022C2F2C2
:1017AC000003DA614FF40053C4F202031A6942F0E9
:1017BC0002021A6158611A6942F040021A617047BC
:1017CC002DE9F04140F2F055C2F200052B7E0646A1
:1017DC00012B88464AD001242C7603684CF25030F9
:1017EC00022B1DD1FFF75CFF20B1012000232B76CB
:1017FC00BDE8F0814FF40054E861C4F2020423699F
:10180C004CF2503043F004032361236943F040034E
:10181C002361FFF745FF236923F004032361E5E708
:10182C00FFF73EFF0028E0D14FF0FF3320464FF486
:10183C000054C8F80030B768C4F20204D6E902328A
:10184C0003EB8223BB42D1D93846FFF7A5FF4CF2FC
:10185C005030FFF725FF236923F00203236110B1F9
:10186C00C8F80070C2E707F58067E7E70220BFE71A
:10187C0000222DE9F04F144687B0C1F222040094E7
:10188C001446C1F2310401941446C1F2320402949C
:10189C0014464FF480564FF4006B4FF4806394461B
:1018AC0017461546C1F21204C4F20206C4F2010B2B
:1018BC00C4F201030394C1F2210CC1F21107D1F857
:1018CC0000E03EFA05F402D107B0BDE8F08F4FF00E
:1018DC00010808FA05F80EEA080438EA0E0E40F082
:1018EC00A980D1F804E0BEF1030F09D80EF1FF3E38
:1018FC00BEF1020F00F2AE80DFE80EF0C0C5CB00E7
:10190C00BEF1120F00F0C28000F29680BEF1110FF2
:10191C0000F0B680FF2C94BF824600F1040ADAF87E
:10192C0000804FEA850EC1464FF00F0888BFAEF11C
:10193C00200E08FA0EF829EA080802FA0EFE48EA08
:10194C000E08CAF80080D1F804E01EF0805F71D058
:10195C004FF00F09D6F818E025F003084EF0010EF1
:10196C00C6F818E0D6F818E008F180480EF0010E21
:10197C00CDF814E008F5803805F0030ADDF814E022
:10198C004FEA8A0AD8F808E009FA0AF958452EEA0B
:10199C00090900F082804FF4406EC4F2010E7045CC
:1019AC007ED04FF4805EC4F2010E70457BD04FF4B4
:1019BC00A05EC4F2010E704514BF4FF0040E4FF040
:1019CC00030E0EFA0AFE4EEA090EC8F808E0D1F82A
:1019DC0004E01EF4801FD3F808E014BF4EEA040E96
:1019EC002EEA040EC3F808E0D1F804E01EF4001F40
:1019FC00D3F80CE014BF4EEA040E2EEA040EC3F822
:101A0C000CE0D1F804E01EF4003FD3F804E014BF5E
:101A1C004EEA040E2EEA040EC3F804E0D1F804E0FA
:101A2C001EF4803FD3F800E014BF4EEA04042EEA03
:101A3C0004041C60013542E7DDF80090CE4509D066
:101A4C0014D8DDF80C90CE4504D0E64502D0BE4546
:101A5C007FF460AF8A68F2B1012A08BFC0F8108029
:101A6C004FF0080218BFC0F8148053E7DDF804905B
:101A7C00CE45EFD0DDF80890CE45E9E7CA6849E7D6
:101A8C00CA68043246E7CA68083243E7CA680C32AF
:101A9C0040E700223EE704223CE74FF0000E90E7BF
:101AAC004FF0010E8DE74FF0020E8AE70AB101618B
:101ABC0070470904FBE7704710B54FF48064C4F21B
:101ACC0001046369DB0304D5FFF7F5FF4FF48033A2
:101ADC00636110BD2DE9F341044650B30368DB0785
:101AEC0010D423689F075CD42368190700F19880F1
:101AFC0023685A0700F1CC80E369002B40F0318158
:101B0C0000202EE04FF48055C4F202056B6803F000
:101B1C000C03042B07D06B6803F00C03082B0AD1C1
:101B2C006B68DE0307D52B689D03DAD56368002B41
:101B3C00D7D1012015E06368B3F5803F14D12B6831
:101B4C0043F480332B606368FBB1FFF7E9F806467A
:101B5C002B689803C5D4FFF7E3F8801B6428F7D9EA
:101B6C00032002B0BDE8F0813BB92B6823F480332D
:101B7C002B602B6823F48023E4E7B3F5A02F2B68AC
:101B8C00F4D143F480232B60D9E7FFF7C9F806465C
:101B9C002B689903A5D5FFF7C3F8801B6428F7D9E8
:101BAC00DEE74FF48055C4F202056B6813F00C0F9E
:101BBC0007D06B6803F00C03082B10D16B68DA03A9
:101BCC000DD42B689B0702D52369012BB1D12B684F
:101BDC00626923F0F80343EAC2032B6084E7002315
:101BEC002269C4F242236AB101221A60FFF798F805
:101BFC0006462B689F07EAD4FFF792F8801B022851
:101C0C00F7D9ADE71A60FFF78BF806462B689807F3
:101C1C007FF56AAFFFF784F8801B0228F6D99FE79F
:101C2C004FF480550023A269C4F20205C4F242238A
:101C3C00FAB10122C3F88024FFF772F806466B6AEA
:101C4C009B0710D540F228534FF4FA52C2F200030E
:101C5C001B68B3FBF2F3019300BF019B5A1E019268
:101C6C00002BF9D144E7FFF75BF8801B0228E6D97B
:101C7C0076E7C3F88024FFF753F806466B6A9F0794
:101C8C007FF536AFFFF74CF8801B0228F6D967E7D3
:101C9C004FF48055C4F20205EB69D8002AD4012711
:101CAC00EB6943F08053EB61EB6903F080530093D5
:101CBC00009B4FF4E046C4F200063368D9051BD5EF
:101CCC00E368012B29D12B6A43F001032B62E368F3
:101CDC00002B38D0FFF724F841F2883806462B6ADF
:101CEC009B072AD5002F3FF407AFEB6923F08053F5
:101CFC00EB6101E70027DCE7336843F48073336062
:101D0C00FFF70EF880463368DA05D9D4FFF708F8E8
:101D1C00A0EB08006428F6D922E73BB92B6A23F024
:101D2C0001032B622B6A23F00403CFE7052B2B6AEC
:101D3C00F5D143F004032B62C5E7FEF7F1FF801BDE
:101D4C004045CCD90CE7FEF7EBFF41F2883806464C
:101D5C002B6A9807C6D5FEF7E3FF801B4045F7D9E1
:101D6C00FEE64FF48055C4F202056A6802F00C02DC
:101D7C00082A45D0022B4FF000034FF00002C4F2AA
:101D8C0042231A662FD1FEF7CBFF06462B6899012A
:101D9C0023D4236AB3F5803F05D16B68A26823F482
:101DAC00003313436B606A68D4E9083122F474126F
:101DBC000B4313436B6000230122C4F242231A66C7
:101DCC00FEF7AEFF04462B689A013FF599AEFEF77D
:101DDC00A7FF001B0228F6D9C2E6FEF7A1FF801B65
:101DEC000228D3D9BCE6FEF79BFF04462B689B0167
:101DFC007FF586AEFEF794FF001B0228F6D9AFE6FE
:101E0C00012B3FF496AE6868236A00F480329A4244
:101E1C007FF48FAE636A00F47010C01A18BF0120F3
:101E2C009FE64FF48053C4F202035A6802F00C018F
:101E3C0008291ED142F28201C2F38340C0F6000190
:101E4C00D203085C0FD54FF49052C0F27A02504383
:101E5C0042F280025B68C0F60002C3F34043D35CDD
:101E6C00B0FBF3F070474FF41063C0F23D035843DE
:101E7C0070474FF49050C0F27A0070472DE9F04152
:101E8C000D46044610B90120BDE8F0814FF4005313
:101E9C00C4F202031A6802F007028A4239D323689B
:101EAC00980741D42368DA0757D44FF40053C4F28F
:101EBC0002031A6802F00702AA4279D84FF480553F
:101ECC002368C4F2020513F0040F7DD123681B07AD
:101EDC0006D56B68226923F4605343EAC2036B6036
:101EEC00FFF79FFF42F2700140F228536A68C0F678
:101EFC000001C2F303128A5CC2F20003D0401860E6
:101F0C0040F23053C2F200031868FEF7C2FE002004
:101F1C00BAE71A6822F007020A431A601B6803F03A
:101F2C0007038B42AFD1BAE713F0040F4FF4805381
:101F3C00C4F202031EBF5A6842F4E0625A6022687F
:101F4C00110742BF5A6842F460525A605A68A1683D
:101F5C0022F0F0020A435A60A4E74FF480566268FC
:101F6C00C4F20206012A33681AD113F4003F8AD056
:101F7C00736841F2883823F0030313437360FEF750
:101F8C00CFFE07467368626803F00C03B3EB820F55
:101F9C008BD0FEF7C5FEC01B4045F3D9032073E779
:101FAC00022A02D113F0007FE1E713F0020FDEE703
:101FBC001A6822F007022A431A601B6803F0070311
:101FCC00AB427FF460AF79E76B68E26823F4E063BF
:101FDC0013436B607AE703460244934200D1704787
:101FEC0003F8011BF9E7000070B500260C4D0D4CF1
:101FFC00641BA410A64209D100F028F800260A4D53
:10200C000A4C641BA410A64205D170BD55F8043BC4
:10201C0098470136EEE755F8043B98470136F2E74E
:10202C0094200008942000089420000898200008B0
:10203C000A44914200F1FF3300D1704710B511F8FA
:10204C00014B914203F8014FF9D110BDF8B500BF17
:10205C00F8BC08BC9E467047F8B500BFF8BC08BC7D
:04206C009E467047D5
:102070000000000000000000010203040607080938
:10208000010202030405060708090A0B0C0D0E0FD6
:04209000101000002C
:04209400310100080E
:042098000D0100082E
:10209C00804F0020F10400209900002099000020BE
:1020AC0099000020990000209900002000000000F9
:1020BC00000000000000000000000000990000205B
:1020CC0099000020000000009900002099000020D9
:1020DC009900002099000020990000209900002010
:1020EC006D0000209900002099000020990000202C
:1020FC009900002099000020990000204FF4005313
:10210C0040F21452C4F20203D968C2F2000211F078
:10211C00340F11601CBF3422DA6040F210530122DC
:10212C00C2F200031A607047FEE740F200034FF062
:10213C00E022C2F20003C2F8083DBFF34F8FBFF399
:10214C006F8F4FF400533421C4F20203D960196924
:10215C0041F4A05119614FF0FF33C2F880311023C4
:10216C00C2F8003162B670474FF4005382B0C4F22B
:10217C000203DA68D107FCD4DA68920644BF202245
:10218C00DA6000230193019BB3F5FA6F01DB02B017
:10219C007047019B0133F5E74FF40053C4F202037F
:1021AC001A69120609D540F22312C4F267525A601A
:1021BC0048F6AB12CCF6EF525A6070474FF400530E
:1021CC00C4F202031A6942F080021A61704710B51A
:1021DC004FF40054C4F20204FFF7C6FF236943F026
:1021EC00020323616061236943F040032361FFF71D
:1021FC00BBFF236923F00203236110BDC3073FD447
:10220C00B0F1006F3FD343F6FE73C0F60003984263
:10221C003CD84FF6FF7203889BB2934239D14FF4EE
:10222C000053C4F20203DA68D207FCD43422DA6019
:10223C001A6942F001021A610180DA68D107FCD4F4
:10224C00DA68520708D50422DA601A696FF00600C2
:10225C0022F001021A617047D86810F0100008D003
:10226C001022DA601A696FF0070022F001021A617D
:10227C0070472022DA601A6922F001021A61704755
:10228C006FF0020070476FF0030070476FF00400AE
:10229C0070476FF0050070474FF4C04370B5C4F23F
:1022AC0000030446D3F80C0410F0030019D0D3F843
:1022BC00B005D3F8B425400D02F00F02D3F8B86581
:1022CC00D3F8BC5520800A7040F200520120C2F2B3
:1022DC00000216605560D3F80C2442F02002C3F8BB
:1022EC000C2470BD10B54FF48044FFF755FF4FF030
:1022FC000060C0F60004FFF76AFF00F58060A042A2
:10230C00F9D1BDE8104059E74FF4C043C4F20003C3
:10231C00D3F808245101FBD540F2F842C2F2000276
:10232C0011684005C3F88815526840F00100C3F8E5
:10233C008C250822C3F88425C3F880054FF4C043CC
:10234C00C4F20003D3F80824D207FBD50122C3F84A
:10235C000824704740F2FB420023C2F2000230B462
:10236C001360137140F20053C2F200031C7802F8A0
:10237C00034C5C78403402F8024C9C7802F8014C17
:10238C0021B1D3F80310DB7911601371013080B2E5
:10239C0030BCB9E740F20053C2F200035A78372A36
:1023AC0004D11B78012B01D10021D3E7704740F2F7
:1023BC00005210B4C2F200025378342B19D11378A6
:1023CC00072B16D140F20C51537914791B029279D8
:1023DC0043EA04431343C2F2000143F000630B6071
:1023EC0040F208530022C2F200031A60012110BC13
:1023FC00B0E710BC704740F20053C2F200035A78A9
:10240C00102A0DD19A78022A0AD11A78022A07D1F9
:10241C004FF48043C2F200030021C3F8C02F99E7A8
:10242C00704738B505460C4672B689B2FFF7B4FE54
:10243C00FFF7E4FE18B9210CA81CFFF7DFFEFFF72D
:10244C00BDFE62B638BD40F2005370B5C2F2000357
:10245C005A78362A19D11A78062A16D140F20C5419
:10246C000021C2F20004D3F80360FFF773FF256864
:10247C0031462846FFF7D5FF40F20853C2F200035D
:10248C001A680435013225601A6070BD82B0019063
:10249C00019B5A1E01920BB902B0704700BFF7E7BF
:1024AC0008B540F20053C2F200031A79062A13D180
:1024BC001A78042A10D15A78312A0DD19A78DB78FF
:1024CC001A4309D10121FFF745FF42F21070FFF7C3
:1024DC00DDFFBDE8084005E708BD08B540F2005334
:1024EC00C2F200035A78112A1AD19978012917D10E
:1024FC00FFF730FF45F69070C0F20100FFF7C6FF02
:10250C0072B64FF480430222C2F20003C3F8C02F0C
:10251C0004234FF0E022C0F2FA53C2F80C3DFEE760
:10252C0008BD73B572B6FFF700FE62B640F20056F6
:10253C0040F2F845C2F20006C2F200050DF10501A9
:10254C000DF10600FFF7A8FE0028F7D0BDF80640F5
:10255C002046FFF750FF2046FFF7A2FF2046FFF76B
:10256C0026FF2046FFF76FFF2046FFF713FF20469C
:10257C00FFF7B3FF0023336073602B606B60DDE704
:10258C0008B5FFF7CEFF00000000000000000000BF
:10259C00000000000000000000000000000000002F
:0825AC00000000000000000027
:1025B4000C0CFFFF0040000807000000C04F002083
:0C25C40000127A0001000000100000006E
:0400000508000C558E
:00000001FF
