:020000040800F2
:103C0000804F00200591000859E4000865E4000891
:103C100071E400087DE4000889E400080000000069
:103C2000000000000000000000000000D1D20008E9
:103C300095E400080000000061D30008A5D3000847
:103C40004D91000897E400084D9100084D9100083F
:103C5000A9E40008ADE400084D9100084D9100086A
:103C60004D9100084D9100084D910008B1E4000805
:103C70004D9100084D9100084D9100084D910008AC
:103C80004D9100084D910008BDE40008C9E400080A
:103C9000D5E40008D9E40008DDE400084D910008EF
:103CA000E1E40008EDE40008F1E40008F5E40008B0
:103CB0004D910008F9E4000811E500084D91000855
:103CC0004D9100084D9100084D9100084D9100085C
:103CD0004D9100084D9100084D9100084D9100084C
:103CE0004D9100084D9100084D9100080000000022
:103CF00000000000000000000000000000000000C4
:0C3D000000000000000000005FF808F167
:103D100010B5054C237833B9044B13B10448AFF305
:103D200000800123237010BD7803002000000000F4
:103D300008EA000808B5034B1BB103490348AFF379
:103D4000008008BD000000007C03002008EA000895
:103D500080F0004002E000BF81F0004142001FBF40
:103D60005FEA410392EA030F7FEA226C7FEA236C49
:103D70006AD04FEA1262D2EB1363C1BFD21841403E
:103D800048404140B8BF5B42192B88BF704710F0D4
:103D9000004F40F4000020F07F4018BF404211F077
:103DA000004F41F4000121F07F4118BF494292EADF
:103DB000030F3FD0A2F1010241FA03FC10EB0C000B
:103DC000C3F1200301FA03F100F0004302D5494298
:103DD00060EB4000B0F5000F13D3B0F1807F06D345
:103DE00040084FEA310102F10102FE2A51D2B1F13D
:103DF000004F40EBC25008BF20F0010040EA030032
:103E00007047490040EB0000013A28BFB0F5000FB1
:103E1000EDD2B0FA80FCACF1080CB2EB0C0200FA67
:103E20000CF0AABF00EBC25052421843BCBFD040B6
:103E30001843704792F0000F81F4000106BF80F430
:103E400000000132013BB5E74FEA41037FEA226CF3
:103E500018BF7FEA236C21D092EA030F04D092F0BE
:103E6000000F08BF0846704790EA010F1CBF0020F2
:103E7000704712F07F4F04D1400028BF40F000404F
:103E8000704712F100723CBF00F50000704700F06F
:103E9000004343F0FE4040F4000070477FEA226296
:103EA00016BF08467FEA23630146420206BF5FEA67
:103EB000412390EA010F40F4800070474FF0000367
:103EC00004E000BF10F0004348BF40425FEA000C2E
:103ED00008BF704743F0964301464FF000001CE0D6
:103EE00050EA010208BF70474FF000030AE000BF2C
:103EF00050EA010208BF704711F0004302D540426A
:103F000061EB41015FEA010C02BF844601460020DB
:103F100043F0B64308BFA3F18053A3F50003BCFAF6
:103F20008CF2083AA3EBC25310DB01FA02FC6344A3
:103F300000FA02FCC2F12002BCF1004F20FA02F2AA
:103F400043EB020008BF20F00100704702F120029D
:103F500001FA02FCC2F1200250EA4C0021FA02F2FE
:103F600043EB020008BF20EADC7070474FF0FF0C03
:103F70001CEAD0521EBF1CEAD15392EA0C0F93EAFE
:103F80000C0F6FD01A4480EA010C400218BF5FEAA0
:103F900041211ED04FF0006343EA501043EA511113
:103FA000A0FB01310CF00040B1F5000F3EBF49000D
:103FB00041EAD3715B0040EA010062F17F02FD2A11
:103FC0001DD8B3F1004F40EBC25008BF20F00100F4
:103FD000704790F0000F0CF0004C08BF49024CEA0B
:103FE000502040EA51207F3AC2BFD2F1FF0340EA9D
:103FF000C250704740F400004FF00003013A5DDC0E
:1040000012F1190FDCBF00F000407047C2F100024E
:10401000410021FA02F1C2F1200200FA02FC5FEA3B
:10402000310040F1000053EA4C0308BF20EADC7085
:10403000704792F0000F00F0004C02BF400010F4F7
:10404000000F013AF9D040EA0C0093F0000F01F0A4
:10405000004C02BF490011F4000F013BF9D041EAC6
:104060000C018FE70CEAD15392EA0C0F18BF93EAC8
:104070000C0F0AD030F0004C18BF31F0004CD8D1F2
:1040800080EA010000F00040704790F0000F17BF79
:1040900090F0004F084691F0000F91F0004F14D0BF
:1040A00092EA0C0F01D142020FD193EA0C0F03D117
:1040B0004B0218BF084608D180EA010000F000401A
:1040C00040F0FE4040F40000704740F0FE4040F4F5
:1040D000400070474FF0FF0C1CEAD0521EBF1CEA94
:1040E000D15392EA0C0F93EA0C0F69D0A2EB0302B2
:1040F00080EA010C49024FEA402037D04FF080534C
:1041000043EA111143EA10130CF000408B4238BF10
:104110005B0042F17D024FF4000C8B4224BF5B1A1E
:1041200040EA0C00B3EB510F24BFA3EB510340EA6C
:104130005C00B3EB910F24BFA3EB910340EA9C001A
:10414000B3EBD10F24BFA3EBD10340EADC001B018A
:1041500018BF5FEA1C1CE0D1FD2A3FF650AF8B422E
:1041600040EBC25008BF20F0010070470CF0004C3B
:104170004CEA50207F32C2BFD2F1FF0340EAC25066
:10418000704740F400004FF00003013A37E792F027
:10419000000F00F0004C02BF400010F4000F013A85
:1041A000F9D040EA0C0093F0000F01F0004C02BF80
:1041B000490011F4000F013BF9D041EA0C0195E7E9
:1041C0000CEAD15392EA0C0F08D142027FF47DAF82
:1041D00093EA0C0F7FF470AF084676E793EA0C0F72
:1041E00004D14B023FF44CAF08466EE730F0004C70
:1041F00018BF31F0004CCAD130F000427FF45CAF00
:1042000031F000437FF43CAF5FE700BF4FF0FF3C6D
:1042100006E000BF4FF0010C02E000BF4FF0010CC0
:104220004DF804CD4FEA40024FEA41037FEA226C89
:1042300018BF7FEA236C11D001B052EA530C18BFAB
:1042400090EA010F58BFB2EB030088BFC81738BF10
:104250006FEAE17018BF40F0010070477FEA226CFE
:1042600002D15FEA402C05D17FEA236CE4D15FEAFA
:10427000412CE1D05DF8040B704700BF844608462E
:104280006146FFE70FB5FFF7C9FF002848BF10F1EF
:10429000000F0FBD4DF808EDFFF7F4FF0CBF012034
:1042A00000205DF808FB00BF4DF808EDFFF7EAFFBE
:1042B00034BF012000205DF808FB00BF4DF808ED79
:1042C000FFF7E0FF94BF012000205DF808FB00BF6E
:1042D0004DF808EDFFF7D2FF94BF012000205DF8F4
:1042E00008FB00BF4DF808EDFFF7C8FF34BF012001
:1042F00000205DF808FB00BF4FEA40024FEA41038F
:104300007FEA226C02D15FEA402C08D17FEA236C5D
:1043100002D15FEA412C02D14FF0000070474FF00C
:104320000100704742000ED2B2F1FE4F0BD34FF0A6
:104330009E03B3EB126209D44FEA002343F000431B
:1043400023FA02F070474FF00000704712F1610F3E
:1043500001D1420202D14FF0FF3070474FF0000010
:10436000704700BF2DE9F047054600241A4E56F865
:10437000047B29463846A2460134FFF79FFF30B33D
:10438000D6F8008028464146FFF78EFFF8B139463F
:104390002846FFF7E1FC394605464046FFF7DCFCBE
:1043A00001462846FFF796FEDFF83090054659F89B
:1043B0002A6059F824003146FFF7CEFC0146284612
:1043C000FFF7D4FD3146FFF7C9FCBDE8F0870A2CA2
:1043D000CDD10020F9E700BF4CEA000820EA000830
:1043E0002DE9F04FA24BA34A1B881268A24F9342BB
:1043F000A24EA34AA34DDFF89082A44C87B0C0F030
:10440000D58139688B424FF00003136000F2D781E9
:1044100033602B7088F800300A22954B1B8803EB21
:104420008303B3FBF2F39A4A13809A4A11689A4ABB
:104430008B42167894BF0020581A002E40F0058257
:104440000B44964909888B4201D801231370944B81
:104450001B78012B0ED06BB1924B1B78012B09D02E
:1044600043B1914B1B78012B04D0904B1B785A1E03
:10447000534253418E4ADFF83CB213708E4A9BF888
:10448000009092F800E08D4A2878167898F800207D
:10449000012E03D0012A01D0012802D10127884929
:1044A0000F7088490F78002F40F0EC81012B00F04D
:1044B000D6810022844E854F32703A780B70844B3F
:1044C000012A19780DD14A1E022A0AD8814A107889
:1044D000042802D01278062A03D100227E483A70BE
:1044E00002707C4A107888421CBF12781A707B4B8D
:1044F000D3F800A07A4B51461868FFF7D5FE8146E5
:10450000002800F0DC81DFF8DC912368D9F8002076
:10451000002A40F0BB81C9F80030734BD3F800A0EB
:10452000724B51461868FFF7DDFE8146002800F007
:10453000F981DFF8BC912368D9F80020002A40F007
:10454000E181C9F800305C4B1B78012B06D1694A28
:1045500023681168002940F00982136098F8003040
:10456000012B02D02B78012B01D100233370624B39
:10457000624D1B78DFF85481012B04BF002232709A
:104580002A78012A0AD14C4A98F8001012780A4376
:1045900004D151482A7001784A1C027058480278A8
:1045A000012A4D4A07D198F800100B4301BF11783A
:1045B00003704B1C1370534B12781B689A420AD13C
:1045C00001232F2154203B7003F0A2FCAF214FF4B4
:1045D000AA7003F031FC98F800300BB1002333705F
:1045E000364B1B78012B484B40F0E58100222B49CC
:1045F00032700888264909888842C0F0DC81186832
:104600002168002840F0BC811960264B93F8008097
:104610003E4B1A78424518BF83F80080364B1F780E
:10462000374B1A78BA4218BF1F70234B2A781B7871
:104630009A4218BF2B70B8F1010F4FF000056FD1EF
:10464000DFF8CCA0334B9AF800001B68DFF8C89065
:104650009842D9F800B080F0B181304B01308AF82F
:10466000000059461868FFF779FBC9F8000057E0C9
:104670002C010020C8000020C4000020F00300200E
:10468000F40300200A05002009050020FC04002096
:1046900000050020F0000020060500202E0100206B
:1046A00050010020310100200403002010050020EB
:1046B00030010020110500200B0500200C05002012
:1046C000EE030020ED03002032010020040500204D
:1046D000EC0300206205002005050020AC0400204A
:1046E00058000020E8030020A00400205C00002007
:1046F000E4030020E00300200D050020DD0300207E
:10470000DC030020E8000020D8030020D5030020AF
:10471000D4030020EC000020D0030020A8040020D7
:10472000AD4BDFF8B8A2D3F800B0AD4B58461968CE
:10473000DAF800900191FFF7B7FD002800F07481CE
:10474000002F40F07181B8F1010F019940F06C81A8
:104750000846FFF70BFC594680465846FFF706FC13
:1047600001464046FFF7F8FA4946FFF7F7FACAF85C
:104770000000FFF7D7FD9B4B1860984BD3F80090D3
:10478000994B48461968FFF7ADFD8046002800F0B8
:1047900083810123954A2F215320137003F0B8FB26
:1047A000AF2140F2531003F047FB82E11168236808
:1047B00051B913608E4B1A883B689A4243D93268CC
:1047C0002368FAB9336027E68A4A5B1A1268934273
:1047D0000BD901232F2150202B7003F099FBAF211F
:1047E0004FF4A87003F028FBE4E7002350202B705F
:1047F00003F0FAFA2F28DDD12E21502003F088FB98
:10480000AE21EDE79B1A7B4A126893420CD9012333
:104810002F21512088F8003003F07AFBAF2140F2BD
:10482000511003F009FBF7E50023512088F8003010
:1048300003F0DAFA2F287FF4EFAD2E21512003F098
:1048400067FBAE21EBE70023BCE7012E7FF4FFAD51
:10485000694B1B8883423FF6FAAD0023F6E5DFF88B
:104860009CC18CF800704EEA060E49EA0E0942EA35
:10487000090202437FF41DAE604A1278B2FA82F256
:10488000520917E6012B7FF414AEECE79B1A594A44
:10489000126893427FF641AE01234FF0000A2F21A8
:1048A00058208BF8003086F800A003F031FBAF21D0
:1048B0004FF4AC7003F0C0FAC9F800A02DE6504BDD
:1048C00050461968FFF7F0FC00283FF426AEDFF8E9
:1048D00034A12368DAF800209B1A464A12689342F2
:1048E0007FF61BAE484B582083F8009003F07CFA0B
:1048F0002F2803D12E21582003F00AFB0023CAF8E9
:1049000000300AE69B1A3B4A126893427FF61BAEC0
:1049100001233E4A2F2159201370337003F0F8FA17
:1049200000230EE650463A49FFF7DCFC00283FF42E
:104930000AAEDFF8E0A02368DAF8002012B9CAF85E
:10494000003000E69B1A2B4A126893427FF6FBADBB
:104950002E4B592083F8009003F046FA2F2803D1FC
:104960002E21592003F0D4FA0023E8E75B1A2A49E4
:1049700009688B427FF6F2AD002328490B70ECE505
:10498000091A1C48006881427FF63FAE2449562030
:104990000A7024491A600A6003F026FA2F287FF46F
:1049A00034AE2E21562003F0B3FAAE214FF4AB7093
:1049B00003F042FA29E600221A6026E6FFF782FA9F
:1049C00001465846FFF786FB054BC9F800501860B2
:1049D00000238AF80030A3E68C000020C8030020E2
:1049E000CC030020F0040020880000200D050020EA
:1049F0002C010020E00000202E010020EE0300200A
:104A000054000020E80300201105002010050020BC
:104A1000CDCCCCBDE4030020D40000200B05002049
:104A20000C050020F8040020164B22681B68B2FB1E
:104A3000F3F103FB1128B8F1000F7FF49EAE124B87
:104A4000DFF848B01868FFF739FA4946FFF78EFAE1
:104A50000F49FFF73FFBCBF800008246FFF762FCEF
:104A6000DFF830904FF07E51C9F800005046FFF754
:104A70001BFC00283FF481AECBF80050C9F8008041
:104A80007BE600BFEC000020D8000020C803002017
:104A90000000C842F004002000214846FFF7FAFB5E
:104AA000002800F01385012F40F01085A74B83F8F4
:104AB00000803378A64F012B00F015853B780BB9A9
:104AC00001233B7097F80080B8F1000F0AD0A14A8B
:104AD0001068002840F01385236813609E4A136015
:104AE0009E4A13609E4F3B78012B40F0BA85DFF859
:104AF0007492DFF87482D9F80020D8F80000A2F18F
:104B000014012268121A914218D8984A1188984ABA
:104B1000126891424FF00002C0F09185954B5520EC
:104B20001A7003F061F92F2808D12E21552003F0C7
:104B3000EFF9AE2140F2551003F07EF9D9F80020CC
:104B40002368D8F800100E3A5B1A9A4214D88A4BA0
:104B5000864A1B881288A3F57A73934200F27985FE
:104B60000023844A5520137003F03EF92F2803D107
:104B70002E21552003F0CCF940F202227F4B3678EB
:104B80001B68012E5A6340F0FD853A782368002A9D
:104B900040F095857A4A116841B91360724A022142
:104BA000136032463E70774805F00EFE764B1B6868
:104BB0000593764BD3F800B0754B1A78C2B9012231
:104BC0001A70744A744B12685D605A62059A5D618E
:104BD0005A639A634FF048529D61DD611D62C3F8CC
:104BE0003CB05A656D4B1D606D4B1D606D4B1D607B
:104BF0006D4B6E4F1B8818460493FFF75FF96C49A5
:104C00000290FFF767FA6B4B39681B680446019303
:104C1000694BD3F800804046FFF7A8F941460646A5
:104C20004FF07E50FFF798F80199FFF79FF9014682
:104C30003046FFF793F83860574F019B7E68204657
:104C400031463C60BB60FFF787F85C4BDFF8708152
:104C50001968FFF78BF93146FFF780F8002178607B
:104C6000FD600446FFF782F9564B81461B683861A8
:104C700000211846D8F800600393FFF71FFB0028B7
:104C800000F09185012387F8513000234E4987F8C1
:104C9000523009F10040FFF769F9F969FFF75EF852
:104CA0000136F861C8F80060454B1868002800F02C
:104CB0008085FFF703F901460020FFF70BFA434B0D
:104CC00038641868002800F07785FFF7F7F8404B44
:104CD00001461868FFF7FEF9786400210398FFF792
:104CE000EDFA40B1796B0020FFF7F4F90146786ADC
:104CF000FFF732F87862374B7E6AD3F80090364B74
:104D000049463046D3F800A0FFF7CEFA002840F01D
:104D1000568551463046FFF7E5FA00B156462F4B0F
:104D2000002118687E62FFF7D3FA002800F053854F
:104D30001C4F20463968FFF70FF800218046FFF727
:104D4000B3FA00284CD008F1004849E00D050020D6
:104D500007050020C4030020C0030020BC0300207E
:104D60000F050020E4000020F40400202E010020A4
:104D7000C00000200B05002000050020103F00208F
:104D8000B8030020000C014050000020100000205B
:104D9000B40300204C000020FC030020B0030020DE
:104DA000AC030020A80300202C010020A403002055
:104DB00000007A44A8040020080000202C000020F5
:104DC000A003002004000020DC69BA35980300200D
:104DD0009C030020F803002048000020440000202D
:104DE000AD4B41461868FFF773FA002800F0F384D2
:104DF000AA49AB4B0A681B68002A40F0E3840B60A9
:104E00003C600027DFF89C822046A74988F8507054
:104E1000FFF754FA002840F0E5842046A349FFF745
:104E200057FA002840F0E1842046FFF79BFAC8F8C3
:104E30002800E7B13146FEF78FFF9D4B1968FFF759
:104E400095F83146FEF78AFF064601464846FFF7C9
:104E500049FA002840F0CC8431465046FFF724FA46
:104E600000B1564601228F4B5E6283F85620914B6B
:104E7000D8F8246019680020C8F82C60FEF76CFF91
:104E800000218146FFF710FA002800F0B48409F1F0
:104E900000404FF07E51FFF725FA002837D0864BAF
:104EA00021461868FEF758FF00218046FFF7FCF9FD
:104EB000002800F0A38408F100408049FFF712FAAF
:104EC00028B349464046FFF705F900218046FFF721
:104ED000EBF908B108F1004840467949FFF702FABA
:104EE000A8B140467749FFF7DFF980B1DFF8B49108
:104EF0004046D9F83CA05146FEF72EFF724B196888
:104F0000FFF734F85146FEF729FFC9F83C006A4B19
:104F100059461C60674B1D60624BDD6B6B4B28462E
:104F2000D3F80080FFF7CAF9002840F06A84684B84
:104F30002846D3F800A05146FFF7CAF9002840F0F0
:104F4000648459462846FEF707FF4146814661487A
:104F5000FEF702FF01464846FFF708F8594681462A
:104F60005046FEF7F9FE01464846FFF7B3F8014602
:104F70005848FEF7F1FE8246574B41465046D3F85B
:104F80000090FFF791F9002840F0428451464846CE
:104F9000FFF78AF900B1CA46DFF808814D4950464B
:104FA000C8F830A0FFF796F80599FEF7DFFF4FF03D
:104FB0007E518146FFF778F908B14FF07E59002104
:104FC0000398C8F83490FFF779F9002800F023849B
:104FD00040493046FFF77EF84946FEF7C7FF0021FB
:104FE000FFF778F8C8F8480000210398FFF766F942
:104FF000002800F0138431463648FEF7ADFE3549EF
:10500000FFF768F84946FEF7B1FF344B81464FF091
:1050100000411868FEF7AAFF01464846FFF75AF814
:105020002F4BC8F84C0019682046FFF747F90028B5
:1050300040F0F78330462B49FFF740F9002840F055
:10504000F083234B4FF07D511868FEF78FFF014628
:105050002846FFF73DF9003818BF0120224B88F899
:10506000530019682046FFF729F9002840F0DB8338
:1050700030461E49FFF722F9003818BF01200023EF
:1050800088F8553098F8563088F85400012B14BF32
:10509000174C184C30E000BF400000209403002063
:1050A000FC040020FC030020CDCC3C4114AE4B415D
:1050B0001C000020AC030020B00300200AD7233CD2
:1050C0006F12833A9A99993E24000020180000201C
:1050D0000C0000200000C842140000202000002026
:1050E000380000200000A0413400002000002041D2
:1050F000000020420000824227B12046A549FEF769
:105100002DFE044659462846FFF7D8F8002800F03F
:105110008C832046A049FEF721FE00210446FFF7BC
:10512000C3F8002840F08E8320469C49FFF7DAF848
:1051300000B19A4C2046FFF7F5F888F85700DFF8E1
:105140006082D8F80040B4F5C87FC0F0B781DFF8BE
:1051500054A29AF80030002B40F08880924B0498BB
:105160001D68924F01351D60FEF7ACFE396806469A
:10517000FFF79AF808B1029B3B608D4F30463968C3
:10518000FFF7B0F808B1029B3B608A4F30463968A0
:10519000FEF7E4FD884B3860B3F8009006464846B9
:1051A000FEF790FEDFF814B20746DBF80010FFF7B9
:1051B0007BF820B14846FEF781FECBF80000DFF80F
:1051C00000B23846DBF80010FFF78CF820B14846F3
:1051D000FEF774FECBF80000DFF8E8913846D9F806
:1051E0000010FEF7BBFDC9F80000DFF8DC910746B0
:1051F000D9F800100198FFF757F810B1019BC9F8D2
:105200000030DFF8C8910198D9F80010FFF76AF86C
:1052100010B1019BC9F80030DFF8B4B10198DBF898
:105220000010FEF79BFD6B4BCBF800008146186821
:1052300001301860FEF742FE834601463046FEF715
:1052400049FF654B594618603846FEF743FF634BEC
:10525000594618604846FEF73DFF614B1860614BA8
:105260001B689D4224BF01238AF80030DFF878B123
:105270009BF80030002B40F0D78042F6E162B4FB8F
:10528000F2F302FB1343DFF86491594EDFF864A197
:10529000594FA3B959495A485A4AC9F80010CAF88F
:1052A00000100160584932600A603A600022574994
:1052B0000A6057490A6057490A60574A13600498C0
:1052C000FEF700FED9F800100546FEF7EDFF10B11D
:1052D000029BC9F8003028463168FFF703F808B18F
:1052E000029B3360494E28463168FEF737FD324B4A
:1052F0003060B3F8009005464846FEF7E3FDDAF863
:1053000000100646FEF7D0FF20B14846FEF7D6FD56
:10531000CAF8000030463968FEF7E4FF18B1484685
:10532000FEF7CCFD38603A4F30463968FEF716FD7F
:105330003860334F064639680198FEF7B5FF08B16B
:10534000019B3B60304F01983968FEF7CBFF08B1F5
:10535000019B3B602F4F01983968FEF7FFFC2E4AF6
:10536000386013688146581C1060FEF7A7FD074699
:1053700001462846FEF7AEFE284B394618603046F7
:10538000FEF7A8FE264B394618604846FEF7A2FEF7
:1053900048E000BF00002041000070410000B4421E
:1053A000FC04002003050020E80400202801002060
:1053B00024010020D80400202E010020200100201C
:1053C0001C010020D004002008010020040100205E
:1053D000B8040020E0040020DC040020D4040020F5
:1053E000BC040020F8000020020500201801002065
:1053F00014010020100100200C010020286B6E4ECB
:1054000000010020286B6ECEFC000020C8040020A4
:10541000C0040020B0040020E4040020CC040020DC
:10542000C4040020AE4B1860AE4B1B78012B94BF18
:10543000002301238BF8003042F6E063B4FBF3F263
:1054400003FB1244002C39D1A74BA8491B68032049
:105450000B60A74B1B684B60A64B1B688B60A64B71
:105460001B68CB60A54B1B680B61A54B1B684B6190
:10547000A44B1B688B61A44B1B68CB61A34B1B68BF
:105480000B62A34B1B684B62A24B1B688B62A24B47
:105490001B68CB62A14B1B680B63A14B1B684B6362
:1054A000A04B1B688B63A04B1B68CB639F4B1B6897
:1054B0000B648B4B1B684B6402F0D8FED8F80030AD
:1054C0000133C8F8003007B0BDE8F08F532002F078
:1054D0008BFC2F287FF4EDAA2E21532002F018FD1B
:1054E000AE21FFF75EB90023914A3B701360914AE9
:1054F0001360914A1360914A1370FFF7E3BAB8F151
:10550000020F3CD0B8F1030F69D0B8F1010F7FF45E
:10551000E9AA8B4B19888B4B1A8823681B1A8A4877
:105520000068834212D391423FF6DCAA2F21522019
:1055300002F0EEFCAF214FF4A97002F07DFC0223D3
:105540003B707E4B83F80080FFF7CCBA91427FF628
:10555000C9AA022300223B70784B52201A7002F035
:1055600043FC2F287FF4BEAA2E21522002F0D0FC4B
:10557000AE214FF4A97002F05FFCFFF7B3BA0A2224
:10558000724B6C481B88006803EB4303B3FBF2F3D8
:105590006C4A11882268121A6D48006882420DD345
:1055A0008B423FF79FAA2F215F2002F0B1FCAF2171
:1055B0004FF4A97002F040FC0323C1E78B427FF750
:1055C00091AA032300223B705C4B5F201A7002F00B
:1055D0000BFC2F287FF486AA2E215F20C6E7594BAB
:1055E000554819885B4B00681A6823681B1A5A488B
:1055F0000068834212D39142FFF474AA2F216020E5
:1056000002F086FCAF214FF4A97002F015FC4B4B61
:1056100083F8008004233B70FFF764BA9142BFF423
:1056200061AA042300223B70444B60201A7002F0F0
:10563000DBFB2F287FF456AA2E21602096E74749EE
:1056400055200B702F21327002F062FCAF21FFF762
:1056500071BA0123414A2F21137000233370FFF7E1
:1056600088BA022B7FF488AA1E4B197801297FF48F
:1056700083AA334B1A88334B1B889A42384A05D881
:10568000002338490B701360FFF776BA106823685F
:105690000028F8D0344A1B1A126893427FF66CAA8D
:1056A000304B5620197000232F21337002F030FC4C
:1056B000AF214FF4AB7002F0BFFBFFF75DBA012AD8
:1056C0007FF474AA294801685B1A294909688B424A
:1056D00050D30022022102603970FFF764BA00BF84
:1056E000B4040020080500202801002054040020F4
:1056F00024010020DC040020200100201C010020E7
:10570000D40400200801002004010020BC04002073
:105710001801002014010020CC04002010010020FA
:105720000C010020C404002000010020FC00002027
:10573000C4030020C0030020BC0300200E0500208D
:10574000000500202E010020D00000202C010020A8
:10575000A8000020CC000020AC0000200B05002099
:10576000F80400200C050020E0000020B803002011
:10577000E400002001398B42FFF418AA4FF4806145
:10578000FFF711BA002E7FF411AA2F4B32461E608C
:105790002E4B02211E602E4B2E483E701E6005F0DF
:1057A00013F83246EAE787F8510087F85200FFF70E
:1057B0007BBA0020FFF783BA0020FFF78DBA4E4670
:1057C000FFF7ADBA9B1A244A12689342FFF419AB53
:1057D0000127FFF717BB0022204B1A60204B1C60EB
:1057E000FFF70FBB0020FFF722BB1E48FFF71FBBD0
:1057F0004E46FFF737BB4846FFF74BBB4046FFF727
:105800005CBBDFF860A0FFF7B7BBC246FFF7B4BBD5
:10581000C246FFF7C1BB0020FFF7E4BB0020FFF743
:10582000FFBB01201AE4012029E40F4B2846196828
:10583000FEF74EFD00283FF477AC20460B49FEF7FB
:105840008BFA6AE4002475E4F8040020B803002011
:10585000F4040020000C01403C00002094030020D0
:10586000A80300200000C8420C00002000002041D6
:10587000F8B540F2C17200234FF49665084C094E0A
:10588000C4E90023C4E90233074F206133463A4696
:105890002146064804F064F908B1013DF6D1F8BD8F
:1058A0007C0500202405002094050020E03B00201A
:1058B000FE22064B1A700022587008209A70DA7087
:1058C0001A715A719A71DA71FFF7D2BF94050020EC
:1058D0002DE9F74FDFF8C482B14F98F800203B68FC
:1058E000022AB04C40F0A481AF4A1278002A40F05E
:1058F0009F81AE4AAE492BB1C820B3FBF0F500FB47
:1059000015331BB110780B7898423DD00B78A9481D
:105910001370A94A9B00117803F004030E298CBF71
:1059200000211178A54D9CBF0131C9B211701278C8
:10593000617802F01F020A43A17842F0A0020B43F3
:1059400043F002036270A37001A943EA022301221B
:10595000019304F04FFB03232B6151234FF4966610
:10596000DFF85C92DFF83CA220702B604B46524679
:105970002946944804F0F4F808B1013EF6D100231A
:10598000236063602B612B6028223B68B3FBF2F13C
:1059900002FB1133002B40F0D2808B4B1B785B064F
:1059A00040F1CD80894D854E6B694FF49669236037
:1059B000AB69DFF80CA263600823336140F2F16346
:1059C000DFF8E0B1336053465A4631467D4804F073
:1059D000C7F810B1B9F10109F5D16B6A4FF49669B6
:1059E0002360AB6ADFF8D8A163600823336140F21B
:1059F000F263DFF8B0B17149336053465A467148DB
:105A000004F0AEF818B1B9F101096C49F5D1EB6AAF
:105A10004FF4966923602B6BDFF8A4A16360082321
:105A2000336140F2F363DFF87CB16449336053467D
:105A30005A46644804F094F818B1B9F101095F4975
:105A4000F5D16B6B4FF496692360EB6BDFF870A1B7
:105A500063600823336140F2F463DFF848B15749CB
:105A6000336053465A46574804F07AF818B1B9F1F2
:105A700001095249F5D12B6C4FF4966923606B6C88
:105A8000DFF83CA163600823336140F2F563DFF87F
:105A900014B14A49336053465A464A4804F060F804
:105AA00018B1B9F101094549F5D1AB6C4FF49669CC
:105AB0002360EB6CDFF808A163600823336140F2D8
:105AC000F663DFF8E0B03D49336053465A463D483F
:105AD00004F046F818B1B9F101093849F5D195F843
:105AE0005030DFF8C090237095F85130DFF8CCA02B
:105AF000637095F85230A37095F85330E37095F8C1
:105B00005430237195F85530637195F85630A37170
:105B100095F857304FF49665E3710823336140F2EE
:105B2000F7633360264E33464A465146254804F013
:105B300017F808B1013DF6D10023236063603B688C
:105B400023B1214E33785A0600F1A78014213B6817
:105B5000B3FBF1F201FB1232002A69D1002B67D0AE
:105B60004FF4FA421A4B1B491B88144DC3EB032315
:105B7000B3FBF2F32370184B4FF496661B88DFF8E3
:105B80004090C3EB0323B3FBF2F34CF2503263704B
:105B9000124BDFF810A01B6822E000BF3401002088
:105BA000280500206B050020ED05002012050020CF
:105BB00006050020443C0020610500202C05002043
:105BC00024050020E03B00207B050020FC03002092
:105BD0002C01002000007F432E010020EC04002057
:105BE000C3EB0323B3FBF2F3A370774B1868FEF704
:105BF000BDF97649FEF76EFAFEF794FB744BFF2869
:105C00001B7828BFFF20237105232B614FF4D86335
:105C1000E0702B604B46524629466E4803F0A0FFC9
:105C200008B1013EF6D10023236063602B612B6035
:105C3000694B6A491A686A4D0132B2F5167F1A60DB
:105C400028BF01223B6828BF88F8002001333B6051
:105C50000B6801330B602968C82B01F10101296031
:105C600040F299802F215A2002F052F92B68C82B5C
:105C700040F299802F215D2002F04AF9594B1B68B0
:105C8000322B40F298802F215B2002F041F9002353
:105C90002360636003B0BDE8F08F534B534D1B8806
:105CA0004FF4966923701B0A6370514BDFF844A1CF
:105CB0001B88DFF844B1A3701B0AE3704F4B1B68CD
:105CC000636008232B6140F2EF632B6053465A4612
:105CD0002946404803F044FF10B1B9F10109F5D15C
:105CE0000023236063602B612B603B68002B3FF433
:105CF0002DAF33785B067FF529AF334B4FF49669B0
:105D00001B68DFF8F0A023603D4BDFF8ECB01B68A8
:105D10003649636008232B6140F2EE632B605346E3
:105D20005A462C4803F01CFF18B1B9F101092F495C
:105D3000F5D10023236063602B612B603B68002B4F
:105D40003FF404AF33785E067FF500AF2D4B4FF480
:105D500096661B68DFF89C901A0A237062701A0C12
:105D60001B0EE37004232B614FF4DE63DFF888A081
:105D7000DFF878B0A2702B604B4652465946154862
:105D800003F0EEFE08B1013EF6D10023236063600C
:105D90002B612B60DAE65A2002F026F82F287FF4D8
:105DA00065AF2E215FE75D2002F01EF82F287FF4FB
:105DB00065AF2E215FE75B2002F016F82F287FF4F5
:105DC00066AF2E2160E700BFAC0400200000114345
:105DD00020060020E03B0020200500201C050020BC
:105DE00018050020140500202C0100202C0500209F
:105DF0002E010020240500206B050020A8040020AF
:105E00009C040020F004002038B51B4C1B4D22469A
:105E10002B46012103F0F6FE40F2027322689A42FB
:105E20001ED1174B1A6022691A612A78022A0AD1F8
:105E30006B783E2B07D1AB782BB912490B70124906
:105E40000A70124A13600D490D4801F001FA38B981
:105E50000F4A2B6813606B68536001220D4B1A7058
:105E60000022C4E9022222616260A26122606261B2
:105E70002A606A6038BD00BF440500207305002019
:105E8000B405002063050020340100202005002017
:105E9000F60500200D0600202DE9F843BB4DBC4C53
:105EA0002A462346002103F0ADFE2A68B2F5DA6FD8
:105EB0002BD12178B74B1970A1790E2901D90F2167
:105EC0001970B5490B78022B40F08281AB68002B2A
:105ED00040F07E81B2F5F86F40F07A81297C22781B
:105EE000002900F0FD80F43A0B2A00F24D81DFE832
:105EF00012F00301BB00A1002B004D004B01430138
:105F000036014B0199008200690040F202239A4257
:105F1000D7D12368A14903F03F000870A049C3F31B
:105F2000831008709F49C3F3842008709E49C3F30F
:105F3000C43008709D49C3F3055008709C499B0EFE
:105F40000B7021799B4BBBE7042903D82220FFF774
:105F5000AFFCC5E09848D4F80120D0F8013097494B
:105F60001BBA83F0A53312BA01EBF36393420BD152
:105F70000022FF21924B027019705A709A70DA70E9
:105F80001A715A719A71F5E02520E0E703F0FEF8E6
:105F90008C4B894A43401E0EC3F30740C3F30721CD
:105FA000DBB2137156709070D170854AFF27137160
:105FB0000023177056709070D17053719371D37124
:105FC00008208BE040F201127F4B80211A80FF22D3
:105FD0007B4B08201A709970012200215A70597168
:105FE000D87018719A71DA71FFF742FC2F21612085
:105FF00001F08EFF74E00022FF21734B08201A800D
:106000006F4B19705A709A70DA701A715A719A71CE
:10601000DA71FFF72DFC612001F0E6FE2F285FD139
:106020002E21E4E7FF22664B1A70674A52785A70B5
:106030000022A3E7062989D96349A378D4F803206D
:106040008B704A60002B81D1B2F1005FFFF47EAF0C
:106050005E498A423FF47AAFFF21594A117053706A
:106060009370D3701371A8E7012967783FF46EAF7E
:10607000514A1278002A87D17A1E062A3FF666AF67
:10608000DFF8448198F80220002A7FF45FAFD8F847
:106090000460B6F1005FFFF459AFC6F1005202F59B
:1060A000A04297423FF652AF454AFF211046117079
:1060B000F15C013302F8011FD9B2B942F8D307F1FC
:1060C00001095FFA89F9C7F107020021D2B24844F9
:1060D00008F000FB48463E44C8F80460FFF7C8FBE0
:1060E0000023C5E902332B616B60AB612B606B61F0
:1060F00023606360BDE8F883072962787FF626AFE6
:106100002D49097800297FF43FAF511E06293FF63B
:106110001DAFE17800297FF419AF6668B6F1005F22
:10612000FFF414AFC6F1005101F5A0418A423FF6D9
:106130000DAFFF20224908700846F75C013301F8D3
:10614000017FDFB2BA42F8D8561CF6B2C2F107029C
:106150000021D2B2304408F0BDFA3046BEE7FF223B
:10616000174B1A7000225A709A70DA701A715A71AD
:106170009A711022DA7123E701293FF4E7AEFF227A
:106180000F4B1A70012252E72020E0E64405002060
:106190007305002033010020340100206A0500202F
:1061A00069050020680500206705002066050020BD
:1061B0006505002064050020A4050020682457130D
:1061C000940500205A5AA5A59C05002000500020E7
:1061D00040F2FF339A420ED12378424A13F0600F07
:1061E00013703FF47DAF00233F4A137002220A7000
:1061F0003E4A136074E7972A0CD100223C4B1A6088
:106200003C4B22781A701B78062B55D92F215E2023
:1062100001F07EFE2B68502B7FF462AF0022364BDC
:1062200066781A6033460822A17806F01F005FB234
:10623000002F4FEA4303DBB245DB013A12F0FF02C5
:10624000F5D108224B405FB2002F4FEA4303DBB287
:106250003CDB013A12F0FF02F5D1284F3A780132C7
:1062600002F01F02904234D0013202F01F02A2EB72
:10627000000CDCF1000242EB0C0294F800C09C45DB
:10628000DFF87CC027D1CB0003F0180343EA561394
:10629000162B20D1FAB11B4BC1F3800119700023DA
:1062A0003870CCF800305C2001F09EFD2F287FF480
:1062B00017AF2E215C209BE65E2001F095FD2F2874
:1062C000A8D12E21A3E783F00703B6E783F00703E5
:1062D000BFE70122D1E7DCF8003038700133CCF899
:1062E0000030E0E77B05002063050020200500204A
:1062F00018050020620500201C0500206005002014
:106300001405002031010020F8B507460E4602F0C2
:106310003DFF0546154C02F039FF2369401B9842AA
:1063200001D3002016E02378002BF4D00023237043
:10633000A37813F00F0310D194F90420E378002A16
:106340003B70237904DA0F33DBB2082B03D8012327
:1063500001203370F8BDA37AFAE7012B03D102F0D4
:1063600015FF0546D7E74FF0FF30F3E7580100204F
:106370002DE9F0411446142207468AB09DF840806A
:106380000D460DEB020000211E4608F0A3F904970C
:10639000B8F1000F0DD0082231460DEB020008F0D5
:1063A00099F922462946082402A808F0C5F90DEB00
:1063B00004050894054C2A46204601AB04A903F0C5
:1063C000CFFB0028F7D10AB0BDE8F081E03B002008
:1063D000054A80F0A53302FB0131044B00BA0B449F
:1063E00080EA7370704700BF795B3D1F68245713C4
:1063F00010B500680C4600BA1146FFF7E9FF030E1E
:106400002370030C6370030AA370E07010BD0000DA
:1064100070B51546064688B00C461422002103A824
:1064200008F058F90695064D02962246284601AB1B
:1064300002A903F095FB0028F7D108B070BD00BF9A
:10644000E03B00200023502010B50D4A0D4952F8C2
:10645000044B0CB941F823000133092BF7D1042078
:10646000084901F003FF0123074908220B70442368
:106470004B70064BBDE8104018680130FFF7C8BFED
:10648000BC010020E0010020EE050020B405002042
:1064900038B5104D104C2B781049043323706B78AD
:1064A0000A6940336370AB780868A370EB780130F9
:1064B000E3700B4B21461B6863600A4B1A61D2B232
:1064C0001860FFF7A5FF0023236063602B606B60FB
:1064D00038BD00BFFE050020EE050020B4050020F9
:1064E00028010020D005002038B5104D104C2B7825
:1064F0001049043323706B780A6940336370AB78BA
:106500000868A370EB780130E3700B4B21461B68E1
:1065100063600A4B1A61D2B21860FFF779FF00235B
:10652000236063602B606B6038BD00BFFE050020F8
:10653000EE050020B405002024010020D005002035
:1065400038B5104D104C2B781049043323706B78FC
:106550000A6940336370AB780868A370EB78013048
:10656000E3700B4B21461B6863600A4B1A61D2B281
:106570001860FFF74DFF0023236063602B606B60A2
:1065800038BD00BFFE050020EE050020B405002048
:10659000DC040020D005002038B5104D104C2B78BD
:1065A0001049043323706B780A6940336370AB7809
:1065B0000868A370EB780130E3700B4B21461B6831
:1065C00063600A4B1A61D2B21860FFF721FF002303
:1065D000236063602B606B6038BD00BFFE05002048
:1065E000EE050020B405002020010020D005002089
:1065F00038B5104D104C2B781049043323706B784C
:106600000A6940336370AB780868A370EB78013097
:10661000E3700B4B21461B6863600A4B1A61D2B2D0
:106620001860FFF7F5FE0023236063602B606B604A
:1066300038BD00BFFE050020EE050020B405002097
:106640001C010020D005002038B5104D104C2B78CF
:106650001049043323706B780A6940336370AB7858
:106660000868A370EB780130E3700B4B21461B6880
:1066700063600A4B1A61D2B21860FFF7C9FE0023AB
:10668000236063602B606B6038BD00BFFE05002097
:10669000EE050020B4050020D4040020D005002021
:1066A00038B5104D104C2B781049043323706B789B
:1066B0000A6940336370AB780868A370EB780130E7
:1066C000E3700B4B21461B6863600A4B1A61D2B220
:1066D0001860FFF79DFE0023236063602B606B60F2
:1066E00038BD00BFFE050020EE050020B4050020E7
:1066F00008010020D005002038B5104D104C2B7833
:106700001049043323706B780A6940336370AB78A7
:106710000868A370EB780130E3700B4B21461B68CF
:1067200063600A4B1A61D2B21860FFF771FE002352
:10673000236063602B606B6038BD00BFFE050020E6
:10674000EE050020B405002004010020D005002043
:1067500038B5104D104C2B781049043323706B78EA
:106760000A6940336370AB780868A370EB78013036
:10677000E3700B4B21461B6863600A4B1A61D2B26F
:106780001860FFF745FE0023236063602B606B6099
:1067900038BD00BFFE050020EE050020B405002036
:1067A000BC040020D005002038B5104D104C2B78CB
:1067B0001049043323706B780A6940336370AB78F7
:1067C0000868A370EB780130E3700B4B21461B681F
:1067D00063600A4B1A61D2B21860FFF719FE0023FA
:1067E000236063602B606B6038BD00BFFE05002036
:1067F000EE050020B405002018010020D00500207F
:1068000038B5104D104C2B781049043323706B7839
:106810000A6940336370AB780868A370EB78013085
:10682000E3700B4B21461B6863600A4B1A61D2B2BE
:106830001860FFF7EDFD0023236063602B606B6041
:1068400038BD00BFFE050020EE050020B405002085
:1068500014010020D005002038B5104D104C2B78C5
:106860001049043323706B780A6940336370AB7846
:106870000868A370EB780130E3700B4B21461B686E
:1068800063600A4B1A61D2B21860FFF7C1FD0023A2
:10689000236063602B606B6038BD00BFFE05002085
:1068A000EE050020B4050020CC040020D005002017
:1068B00038B5104D104C2B781049043323706B7889
:1068C0000A6940336370AB780868A370EB780130D5
:1068D000E3700B4B21461B6863600A4B1A61D2B20E
:1068E0001860FFF795FD0023236063602B606B60E9
:1068F00038BD00BFFE050020EE050020B4050020D5
:1069000010010020D005002038B5104D104C2B7818
:106910001049043323706B780A6940336370AB7895
:106920000868A370EB780130E3700B4B21461B68BD
:1069300063600A4B1A61D2B21860FFF769FD002349
:10694000236063602B606B6038BD00BFFE050020D4
:10695000EE050020B40500200C010020D005002029
:1069600038B5104D104C2B781049043323706B78D8
:106970000A6940336370AB780868A370EB78013024
:10698000E3700B4B21461B6863600A4B1A61D2B25D
:106990001860FFF73DFD0023236063602B606B6090
:1069A00038BD00BFFE050020EE050020B405002024
:1069B000C4040020D005002038B5104D104C2B78B1
:1069C0001049043323706B780A6940336370AB78E5
:1069D0000868A370EB780130E3700B4B21461B680D
:1069E00063600A4B1A61D2B21860FFF711FD0023F1
:1069F000236063602B606B6038BD00BFFE05002024
:106A0000EE050020B405002000010020D005002084
:106A100038B5104D104C2B781049043323706B7827
:106A20000A6940336370AB780868A370EB78013073
:106A3000E3700B4B21461B6863600A4B1A61D2B2AC
:106A40001860FFF7E5FC0023236063602B606B6038
:106A500038BD00BFFE050020EE050020B405002073
:106A6000FC000020D005002038B5104D104C2B78CC
:106A70001049043323706B780A6940336370AB7834
:106A80000868A370EB780130E3700B4B21461B685C
:106A900063600A4B1A61D2B21860FFF7B9FC002399
:106AA000236063602B606B6038BD00BFFE05002073
:106AB000EE050020B4050020B4040020D00500201D
:106AC00038B5134D134C2B781349013323706B7871
:106AD0000A6940336370AB780868A370EB780130C3
:106AE000E3700E4B21461B7823716B796371AB7990
:106AF000A371EB79E3710A4B1A61D2B21860FFF708
:106B000087FC0023236063602B606B6038BD00BF8F
:106B1000FE050020EE050020B4050020060600203A
:106B2000D005002038B5124D124C2B781249013394
:106B300023706B780A6940336370AB780868A37080
:106B4000EB780130E370012323716B792146637187
:106B5000AB79A371EB79E371084B1A61D2B218607B
:106B6000FFF756FC0023236063602B606B6038BD29
:106B7000FE050020EE050020B4050020D005002011
:106B800038B5134D134C2B781349013323706B78B0
:106B90000A6940336370AB780868A370EB78013002
:106BA000E3700E4B21461B6823716B796371AB79DF
:106BB000A371EB79E3710A4B1A61D2B21860FFF747
:106BC00027FC0023236063602B606B6038BD00BF2F
:106BD000FE050020EE050020B4050020C04F002077
:106BE000D0050020F8B5002502F0D0FA194E1A4B56
:106BF00096F802C0194A83F800C0194B194C1D7051
:106C0000194B84F802C04340C3F30740C3F3072184
:106C10001F0EDBB250709170D370177032786171B3
:106C200004322270727811494032627020710A6910
:106C30000868A3710E4B01301A612146D2B2E77089
:106C4000E5711860FFF7E4FB2560656035607560ED
:106C5000F8BD00BFFE050020070600200806002042
:106C600006060020EE0500205A5AA5A5B40500200E
:106C7000D00500202DE9F341224B234D1A782348FB
:106C800001A9EC7895F804806F79AE79FFF7B0FB35
:106C90009DF804206B78A2421D4C2DD19DF8052053
:106CA000424529D19DF80620BA4225D19DF80720FA
:106CB000B24221D10121174A4033117002222270C1
:106CC00000226370AB7800261349A3700868134B49
:106CD000E2700A6901301A610D49D2B226716671FB
:106CE000A671E6711860FFF793FB266066602E6060
:106CF0006E6002B0BDE8F081032222707F226270D4
:106D00003522E0E707060020FE05002008060020E7
:106D1000EE05002006060020B4050020D005002066
:106D200003232DE9F0412C4C2C4D23707F236370FD
:106D30006B78DFF8AC80A3707823E3702B79D8F8F8
:106D4000102023716B79274F6371AB79D8F800005D
:106D5000A371EB793A610130D2B22146E371386018
:106D60001426FFF755FB50221F4B013E16F0FF067D
:106D700043F8042BF9D14FF4F07231461B4807F069
:106D8000A9FC0120184901F071FA0220174901F00D
:106D90006DFA2B78D8F8102023706B78D8F80000A3
:106DA00040336370AB783A61A370EB780130E370E5
:106DB0002B79094923716B79D2B26371AB79386051
:106DC000A371EB79E371FFF723FB266066602E6009
:106DD0006E60BDE8F08100BFEE050020FE050020DA
:106DE000B4050020D00500206C0100202206002000
:106DF00038B5134D134CEA782B78E2702A7923705A
:106E000022716A796B786271AA794033A271EA794A
:106E10000D496370E271AB780C4A08681370A37077
:106E20000A690B4B01301A612146D2B21860FFF794
:106E3000EFFA0023236063602B606B6038BD00BFF6
:106E4000FE050020EE050020B4050020ED05002021
:106E5000D005002038B5134D134CEA782B78E2703A
:106E60002A79237022716A796B786271AA7940332A
:106E7000A271EA790D496370E271AB780C4A086837
:106E80001370A3700A690B4B01301A612146D2B20C
:106E90001860FFF7BDFA0023236063602B606B600E
:106EA00038BD00BFFE050020EE050020B40500201F
:106EB000EC050020D005002038B5144D144C2B787B
:106EC000013323706B7840336370AB78A370EB7839
:106ED000E370104B1868FDF725FA6B790E49637162
:106EE000AB790A69A371EB792071E37108680B4BE8
:106EF00001301A612146D2B21860FFF789FA0023E7
:106F0000236063602B606B6038BD00BFFE0500200E
:106F1000EE050020843C0020B4050020D0050020B0
:106F200038B5134D134C2B781349023323706B780B
:106F30000A6940336370AB780868A370EB7801305E
:106F4000E3700E4B21461B7823710D4B1B78637148
:106F5000AB79A371EB79E3710A4B1A61D2B2186075
:106F6000FFF756FA0023236063602B606B6038BD27
:106F7000FE050020EE050020B4050020D54F0020BE
:106F8000D44F0020D005002038B5134D134C2B787A
:106F90001349043323706B78086840336370AB780F
:106FA0000130A370EB78E3700E4B1B681A0A237153
:106FB00062711A0C1B0EA271E3710A690A4B214619
:106FC0001A61D2B21860FFF723FA002323606360CE
:106FD0002B606B6038BD00BFFE050020EE05002071
:106FE000B4050020C44F0020D005002038B5134D53
:106FF000134C2B781349043323706B7808684033A3
:107000006370AB780130A370EB78E3700E4B1B68B4
:107010001A0A237162711A0C1B0EA271E3710A69BC
:107020000A4B21461A61D2B21860FFF7F1F900232A
:10703000236063602B606B6038BD00BFFE050020DD
:10704000EE050020B4050020D04F0020D005002020
:1070500038B5134D134C2B781349043323706B78D8
:10706000086840336370AB780130A370EB78E3704D
:107070000E4B1B681A0A237162711A0C1B0EA27147
:10708000E3710A690A4B21461A61D2B21860FFF710
:10709000BFF90023236063602B606B6038BD00BFC5
:1070A000FE050020EE050020B4050020CC4F002096
:1070B000D005002038B5124D124C2B7812492370A0
:1070C0006B780A6940336370AB780868A370EB781B
:1070D0000130E3702B79214623716B796371AB79B1
:1070E000A371EB79E371094B1A61D2B21860FFF713
:1070F0008FF90023236063602B606B6038BD00BF95
:10710000FE050020EE050020B4050020D00500207B
:1071100038B5134D134CEA782B78E2702A79237036
:1071200022716A796B786271AA794033A271EA7927
:107130000D496370E271AB780C4A08681360A37064
:107140000A690B4B01301A612146D2B21860FFF771
:107150005FF90023236063602B606B6038BD00BF64
:10716000FE050020EE050020B4050020C04F0020E1
:10717000D005002038B5174D174CE9796A791748C2
:10718000E171174962710A7002690068154901309E
:107190000A61086041F288312B78D2B223706B7893
:1071A00040336370AB78A370EB78E3702B79237175
:1071B000AB79A3714B430521B3FBF1F30A490B6093
:1071C0002146FFF725F90023236063602B606B6085
:1071D00038BD00BFFE050020EE050020B4050020EC
:1071E00050010020D0050020B005002038B5134D17
:1071F000134C2B781349013323706B780A694033A1
:107200006370AB780868A370EB780130E3700E4BC5
:1072100021461B7823716B796371AB79A371EB798C
:10722000E3710A4B1A61D2B21860FFF7F1F800233C
:10723000236063602B606B6038BD00BFFE050020DB
:10724000EE050020B405002006050020D005002032
:107250000022134B30B51A605A60124B04461A6074
:107260005A60114B5D7805F0FF00ADB1A068A0B980
:107270002468DA6894420FD10A7802F0F002302ACA
:107280000AD11A783AB90A68C3F802204A68C3F8E2
:10729000062001221A70012030BD1046FCE700BF15
:1072A000EE050020FE050020580100202DE9F04FDA
:1072B0000125584F89B0072A884616469DF848A0F0
:1072C000029300F101093D70D4B216D80DF11900F6
:1072D0008DF8184007F030FA6219029B4846CDF845
:1072E00000A0D2B206A9FFF743F80023B0FA80F05D
:1072F0003B70400909B0BDE8F08F4FF0000BC2F3BE
:10730000032242F010028DF818200A688DF8194007
:10731000CDF81A20404C8A886570E060ADF81E20D8
:1073200084F800B008224846CDF800A006A9FFF76F
:107330001FF828B184F801B087F800B00020D9E721
:10734000A27A8DF8160003900DF117010DF11600C9
:107350008DF81720FEF7D8FF0028039B02DC63702E
:107360003B70EBE74FF0060B9DF816409DF816308A
:107370007BB174B90DF117010DF11600FEF7C4FFD2
:10738000002804DC244B5C70224B1C70D6E79DF86F
:107390001640A6EB0B07072F28BF072745F0200351
:1073A000072202990DF119008DF8183007F092F9B3
:1073B0003A4608EB0B010DF1190007F0BDF97A1CF4
:1073C0004846029BCDF800A0D2B206A9FEF7D0FF36
:1073D00028B10023104A53700E4A1370AEE79DF88F
:1073E00016305F4401351FFA87FB05F00F0513B116
:1073F0000CB1013CE4B29DF8170008B101F0CCFEDD
:107400005E45B3D80023044A01205370014A13702B
:1074100070E700BF0C06002058010020712330B532
:1074200000250F4C99B08DF80C30A37848228DF8C8
:107430000D30E3780B498DF80E30237904A88DF8D0
:107440000F3007F079F9084800952B464C2203A924
:107450000068FFF72BFF2560656019B030BD00BFE5
:10746000FE05002054040020B40500204323002121
:107470000122F0B5124893B0124D8DF8083050F843
:10748000043B502B0FD0531C55F82140DBB202F1C6
:10749000480648336E44270A02326B4406F8407CA3
:1074A000D2B203F8404C01310929E8D10023064843
:1074B000009302A90068FFF7F9FE13B0F0BD00BF0A
:1074C000E0010020CCEA0008B40500204723002199
:1074D0000122F0B5124893B0124D8DF8083050F8E3
:1074E000043B502B0FD0531C55F82140DBB202F166
:1074F000480648336E44270A02326B4406F8407C43
:10750000D2B203F8404C01310929E8D100230648E2
:10751000009302A90068FFF7C9FE13B0F0BD00BFD9
:10752000E0010020CCEA0008B40500204A23F0B5B1
:1075300093B08DF80830012200231448144D154EE5
:1075400050F8041BAF2914D155F82310012910D18C
:10755000511C56F82340C9B202F1480748316F4424
:107560004FEA142C0232694407F840CCD2B201F839
:10757000404C0133092BE3D100230748009302A9B3
:107580000068FFF793FE13B0F0BD00BFE0010020DC
:10759000BC010020CCEA0008B405002040F25943A9
:1075A0002DE9F041002002221827ADF5227D1D4D66
:1075B0001D4EDFF878C002A90B8055F8043B502B14
:1075C0001BD056F82040230C8B54531C4FEA142E2A
:1075D0009BB201F803E0931C9BB2CC5407FB00C4A0
:1075E000D31C9BB20B4404F1180E54F8048B744561
:1075F00043F8048BF9D11B3292B201301428DCD14C
:1076000001230B48009300685523FFF74FFE00232A
:10761000084A13605360084A136053600DF5227DD9
:10762000BDE8F0816C0100207CEA00082206002001
:10763000B4050020FE050020EE050020F0B51B4D2E
:107640009DB06B78EA7840338DF80C30AB788DF8CC
:107650000E208DF80D3003220023154C154F54F8E1
:10766000046B502E10D057F8230002F170016944CA
:1076700001F8646C060C01F8636C0432060A01F828
:10768000626C01F8610C92B20133142BE7D1002433
:1076900009480094234603A90068FFF707FE074B3B
:1076A0002C601C605C606C601DB0F0BDFE050020AD
:1076B0006C0100207CEA0008B4050020EE050020E3
:1076C000F8B50323214C224D23707F2363706B7820
:1076D000204FA3707823E3702B791F4E23716B79B1
:1076E0003A696371AB793868A371EB7921463261ED
:1076F0000130D2B2E3713060FEF78AFE00F06AFE1C
:10770000EA782B78E2702A79237022716A796B7893
:107710006271AA794033A271EA796370E271AB7841
:107720000E4A386813603A69214632610130D2B29C
:10773000A3703060FEF76CFE012001F02DFDBDE866
:10774000F8400021084601F0B1BC00BFEE05002062
:10775000FE050020B4050020D0050020C04F002009
:10776000032370B50D4C002523707F2304220C4E9B
:107770000C4963707378E0700868A3700A4B01309D
:10778000214625716571A571E5711A611860FEF7D2
:107790003FFE256065603560756070BDEE050020B8
:1077A000FE050020B4050020D005002030B52A4C8D
:1077B00093B0A378042B28D00A2B37D0022B45D1C5
:1077C00040F24923ADF8083001238DF80A30234BED
:1077D0000DF10B0203F1100153F8040B8B4242F838
:1077E000040BF9D11B781370142200231C4800935A
:1077F000006802A9FFF75AFD1A4B1A7802F0FF033E
:107800000AB92360636013B030BD40F249430122DE
:10781000154D16482946ADF808308DF80A2000F0BD
:10782000F5FD2B680722CDF80B30DEE740F6492343
:10783000ADF8083001238DF80A300D4B1A889B787B
:10784000ADF80B208DF80D300622CEE7122013B0D4
:10785000BDE83040FFF784BFFE050020380100205E
:10786000B40500200C060020A9050020FCF7000844
:107870003501002010B5104C6378033B072B17D857
:10788000DFE803F0040A16160D161013FFF7EEFDDD
:1078900000232360636010BDFEF7D4FDF8E7FFF717
:1078A00015FEF5E7FFF782FFF2E7FFF73FFEEFE790
:1078B0001120FFF755FFEBE7FE05002003232DE91C
:1078C000F041244C244D23707F2363706B784FF07C
:1078D0000008A3707823E3702B79204F23716B7914
:1078E0001F4E6371AB793A693868A371EB79214611
:1078F00032610130D2B2E3713060FEF789FD194B7D
:1079000083F80080184B83F8008000F063FD2B782B
:107910003A6923706B78386840336370AB782146DE
:10792000A370EB783261E3702B79013023716B79AE
:10793000D2B26371AB793060A371EB79E371FEF77A
:1079400067FD012001F028FC41464046BDE8F041BA
:1079500001F0ACBBEE050020FE050020B4050020C0
:10796000D0050020D44F0020D54F002070B5154D14
:10797000154C2B78154E043323706B782146403319
:107980006370AB78A370EB78E370114B1A782271B7
:107990005A78DB7862710F4AE37192F806210E4B38
:1079A000A27118681A6901303261D2B23060FEF7F4
:1079B0002FFD002333613360236063602B606B60B5
:1079C00070BD00BFFE050020EE050020D0050020A0
:1079D0005101002024080020B4050020F8B500263D
:1079E000144B154D1E70154B154C1E702B78154FF2
:1079F00023706B78214640336370AB78A370EB78CB
:107A0000E3702B7923716B796371AB79A371EB7997
:107A1000E3710D4B1A6918683A610130D2B23860CF
:107A2000FEF7F6FC266066602E606E603E613E608A
:107A3000F8BD00BF05050020FE050020040500205C
:107A4000EE050020D0050020B405002070B572B608
:107A50007648774C0378774A5BB3774B1968216097
:107A6000596861600021196059604FF47A730170A0
:107A7000136072490B680BBBFF21714B197062B622
:107A8000704E336843B901216F4B196005216F4B6C
:107A9000997242F210711961136813B901226A4B8D
:107AA0001A6063785A1E092A0DD8BDE87040FFF7A6
:107AB000E1BE1368002BDCD0013BD9E7013B0B6032
:107AC000002BDCD1D8E7192B04D1A378042B09D1E2
:107AD000FFF764FD6378142B01D1FFF721F9637878
:107AE000192B04D1A378022B13D1FFF7A7FD6378DC
:107AF000282B05D1544B1B68032B25D1FFF778F9B0
:107B00006378852B05D1504B1B68032B20D1FFF7E1
:107B1000A1F96378222B2BD1E3781D2B1CD80BB352
:107B2000013B1C2B1ED8DFE803F0211D2F32353816
:107B30003B1D1D1D3E4144474A4D505356595C5F05
:107B40006265686B6E7174007F20FFF709FED7E7EE
:107B50007F20FFF705FEDCE77F2B63D0802B5BD017
:107B60007E2B5CD01220FFF7FBFD01E0FFF70CFA43
:107B70006378272B71D1A378012B69D0A378022BCE
:107B80006BD1FFF777F868E0FFF730FAF0E7FFF71F
:107B90005FFAEDE7FFF7C4F9EAE7FFF78DF9E7E7EA
:107BA000FEF78EFFE4E7FEF773FCE1E7FEF79CFCCF
:107BB000DEE7FEF7C5FCDBE7FEF7EEFCD8E7FEF7F5
:107BC00017FDD5E7FEF740FDD2E7FEF769FDCFE7E9
:107BD000FEF792FDCCE7FEF7BBFDC9E7FEF7E4FD3B
:107BE000C6E7FEF70DFEC3E7FEF736FEC0E7FEF779
:107BF0005FFEBDE7FEF788FEBAE7FEF7B1FEB7E726
:107C0000FEF7DAFEB4E7FEF703FFB1E7FEF72CFF5D
:107C1000AEE7FFF7EBFAABE7FFF7A8FEA8E7FEF742
:107C2000AFFFA5E7FEF77EFFA2E700BF0D0600202D
:107C3000FE0500204C010020F6050020B0050020C4
:107C400050010020E8050020C04F0020580100200E
:107C5000FEF7C8FF6378272B90D03B4D2B78012B84
:107C600043D12F21622000F053F9A378022B0CD1CD
:107C7000364B1B68032B49D12B78012B3CD1344B5D
:107C80001B78062B38D1FFF71BFD6378112B04D12D
:107C9000A378012B01D1FFF711FE22796378402AE6
:107CA00003D1312B09D1FFF799FE62782379312A6C
:107CB00003D1432B01D1FFF7B1FB2379422B08D12C
:107CC0006378312B05D1214B1B68032B28D1FFF79B
:107CD00051FA6378102B2CD1A378012B24D0A378F0
:107CE000032B2DD1FFF714FA23E0622000F07CF87B
:107CF0002F28BAD12E21B5E72B781BB1144B1B7856
:107D0000062BC2D02B782BB9332000E07F20FFF761
:107D100027FDBAE70E4B1B78062BB6D02220F6E7DC
:107D20007F20FFF71DFDD4E7FFF7F2F96378102BF2
:107D3000D5D063783E2B03D1A3780BB9FFF7BAF9FE
:107D400033680133336070BD06060020C04F002049
:107D50006205002013282ED81823584316490A5AC2
:107D60000B1801320A52154A022012789A70144AEE
:107D70001278DA70134A12781A71134A12785A710B
:107D8000124A12789A71124A1278DA71114A1288DC
:107D9000A3F80920104A1288A3F80B200F4A126892
:107DA000C3F80D200E4A1268C3F811200D4A12784C
:107DB0001A7200F05BBA7047220600206A050020A4
:107DC0006905002068050020670500206605002081
:107DD000650500202E0100202C010020AC040020AD
:107DE000A8040020620500200023074A52F8041B63
:107DF000814204D00133142BF8D100207047034A8C
:107E000012F82300704700BF7CEA00086C010020D4
:107E10000023074A52F8041B814204D00133092B86
:107E2000F8D100207047034A12F82300704700BFC2
:107E3000CCEA0008E00100202E4B2DE9F0410D4670
:107E40000024984688B053F8042B824208D00134AD
:107E5000092CF8D108B0BDE8F081AF2DFAD112E0BD
:107E6000254B1B78002BF5D1244E56F82470AF42D9
:107E7000F3D0AF2D46F82450ECD13146042000F069
:107E8000F5F946F82450FFB2AF2FE3D01C4B1B7816
:107E9000022BDFD11422002103A806F01BFC58F8A6
:107EA0002430184C1A0A190E23706270C3F305426D
:107EB000C3F3816363F04303E37004230025069357
:107EC00040F2FE7342EA81120F4F104E0195A270EC
:107ED00002932246384601AB02A901F041FE01356A
:107EE00010B13368AB42F4D8002323706370A370E1
:107EF000E370AFE7CCEA0008EC050020E0010020C9
:107F00003401002012060020E03B002078EA00083F
:107F1000304B2DE9F0410D460024984688B053F8C7
:107F2000042B824208D00134142CF8D108B0BDE8EB
:107F3000F0812F2DFAD115E0274B1B78002BF5D1BE
:107F4000264E56F82470AF42F3D02F2D46F8245019
:107F5000ECD13146012000F089F9E0B2FFF7FAFEDA
:107F600046F82450FFB22F2FE0D01D4B1B78022B78
:107F7000DCD11422002103A806F0ACFB58F8243011
:107F8000184C1A0A190E23706270C3F30542C3F32A
:107F9000816363F04303E37004230025069340F2FA
:107FA000FE7342EA8112104F104E0195A2700293A7
:107FB0002246384601AB02A901F0D2FD013510B1CD
:107FC0003368AB42F4D8002323706370A370E3706E
:107FD000ACE700BF7CEA0008EC0500206C01002043
:107FE000340100200E060020E03B002078EA000863
:107FF0002DE9F0415D4B1B780F2B78D8DFE803F0BB
:10800000083750848D777777777777777777779793
:108010000023574A574E13703478574A136014BBE5
:108020002546564F57F8048B4046FFF7F1FEAF2820
:1080300003D12E214046FFF7FFFE0135EDB2092D99
:10804000F0D14F4D55F8047B3846FFF7CDFE2F2871
:1080500003D12E213846FFF75BFF0134E4B2142C24
:10806000F0D1012333700022464B1A703FE0002408
:108070000127414B414E3E4D1C6056F8040BFFF763
:10808000C7FE5230C0B2012804D80C232B70012245
:108090003C4BEAE70134E4B2092C2F70EDD1F6E74E
:1080A0000022354B374D1A602B78012B0ED14FF43F
:1080B000B270FFF7ADFEAF2808D1AE214FF4B27019
:1080C000FFF7BAFE2E216420FFF722FF00244FF0B5
:1080D00002082A4F264E57F8040BFFF799FE52303C
:1080E000C0B2012809D80C23337002232B70264A12
:1080F000136801331360BDE8F0810134E4B2092C48
:1081000086F80080E7D1F0E700221B4B1A600323BA
:10811000174A13701B4A1370E9E70023164A1449E3
:10812000136004220A7017490A70124AF3E7124CCE
:10813000154B22681B687AB9B3F5FA6F0CD9236026
:10814000AF214FF4B270FFF777FE2F216420FFF7C5
:10815000DFFE0023236003E09B1AB3F5FA6FEFD331
:108160000F22084B1A700C22014B7EE733010020CE
:10817000200600201606002018060020CCEA000881
:108180007CEA0008210600201C06002000687047D9
:1081900002464FF000630649184603F580639A4291
:1081A00001D2824202D28B42F6D10020704700BF3A
:1081B0000000020813B50C48FFF7EAFF044602F07E
:1081C000F3F80023094801A9036001238460C36018
:1081D00002F09AF9044618B102F002F902B010BD9B
:1081E00002F0F4F82046F9E70038000814080020EF
:1081F00013B50C48FFF7CCFF044602F0D5F8002376
:10820000094801A9036002238460C36002F07CF97D
:10821000044618B102F0E4F802B010BD02F0D6F83E
:108220002046F9E700F800080408002070B50C4665
:108230000646154602F0B8F804EB8505361BAC423D
:1082400004EB060103D102F0C1F800240CE0002386
:10825000022054F8042B02F0F3F80028EFD002F0CB
:10826000BFF8044602F0B2F8204670BD2DE9F04F89
:10827000431E042B0F4685B043D8002941D072B667
:1082800000224FF0FF33CDE902230C2303FB00F45F
:10829000DFF8D8B0364E3BF8048036484FEA9808ED
:1082A0004246356801F0A6FE3BF8043005F11002A5
:1082B0001344314A3149934281460BEB040A21446D
:1082C00022D2022228460835FFF7B0FF424639463F
:1082D0002846CAF80450FFF7A9FF3BF804400222E1
:1082E0002C44204602A90834CDF80890FFF79EFFE1
:1082F00034603368224A93422DD20122214B1A6006
:1083000062B605B0BDE8F08F01231F4D01912B60CF
:1083100000F03CF833680199022218460193FFF7F8
:1083200085FF019B4246083339461846CAF8043097
:108330000193FFF77BFF019B3BF8044002221C44A2
:10834000204602A9CDF80890FFF770FF02230834F9
:1083500034602B60CDE703F17843A3F57C43B3F59C
:10836000806FCDD20222074BC9E700BF3009002041
:10837000C8090020443C0020FFFF000878090020C5
:1083800000FC0008C0090020C409002037B572B6FF
:10839000FFF72EFF4FF0B6330B4C0C480222694614
:1083A000CDE900332060FFF741FF2368084D083313
:1083B0002360012455F83410A0B20134FFF756FFB2
:1083C000062CF7D103B030BDC809002000F8000822
:1083D0003402002070B572B60024094D094E15F81C
:1083E000013B012B04D156F83410A0B2FFF73EFF39
:1083F0000134062CF3D10222034B1A7062B670BD11
:10840000F4020020340200202D09002001EB82023A
:10841000401A914200D17047435841F8043BF8E7B5
:108420002DE9F84FBE4C42222146BE48FFF7EEFF31
:1084300094F80731BC4AAA2BBC49BD4B40F00282DC
:108440002046FFF7A3FE1060201DFFF79FFE086087
:1084500004F10800FFF79AFEB64A106004F10C0020
:10846000FFF794FEB44A106004F11000FFF78EFE8F
:10847000B24A106004F11400FFF788FEB04A1060A1
:1084800004F11800FFF782FEAE4A106004F11C00F0
:10849000FFF77CFEAC4A106004F12000FFF776FE87
:1084A000AA4A106004F12400FFF770FEA84A106089
:1084B00004F12800FFF76AFEA64A106004F12C00C0
:1084C000FFF764FEA44A106004F13000FFF75EFE7F
:1084D000A24A106004F13400FFF758FEA04A106071
:1084E00004F13800FFF752FE9E4A106004F13C0090
:1084F000FFF74CFE186004F14000FFF747FE9A4B6F
:10850000186004F14400FFF741FE984B186004F135
:108510004800FFF73BFE964B186004F14C00FFF754
:1085200035FE944B186004F15000FFF72FFE924B7C
:10853000186004F15400FFF729FE904B186004F115
:108540005800FFF723FE8E4B186004F15C00FFF724
:108550001DFE8C4B186004F16000FFF717FE8A4B7C
:10856000186004F16400FFF711FE884B186004F1F5
:108570006800FFF70BFE864B186004F16C00FFF7F4
:1085800005FE844B186004F17000FFF7FFFD824B7D
:10859000186004F17400FFF7F9FD804B186004F1D6
:1085A0007800FFF7F3FD7E4B186004F17C00FFF7C5
:1085B000EDFD7C4B186004F18000FFF7E7FD7A4B7E
:1085C000186004F18400FFF7E1FD784B186004F1B6
:1085D0008800FFF7DBFD764B186004F18C00FFF795
:1085E000D5FD744B186004F19000FFF7CFFD724B7E
:1085F000186004F19400FFF7C9FD704B186004F196
:108600009800FFF7C3FD6E4B186004F19C00FFF764
:10861000BDFD6C4B186004F1A000FFF7B7FD6A4B7D
:10862000186004F1A400FFF7B1FD684B186004F175
:10863000A800FFF7ABFD664B186004F1AC00FFF734
:10864000A5FD644B186004F1B000FFF79FFD624B7D
:10865000186004F1B400FFF799FD604B186004F155
:10866000B800FFF793FD5E4B186004F1BC00FFF704
:108670008DFD5C4B186004F1C000FFF787FD5A4B7D
:10868000186004F1C400FFF781FD584B186004F135
:10869000C800FFF77BFD564B186004F1CC00FFF7D4
:1086A00075FD544B186004F1D000FFF76FFD524B7D
:1086B000186004F1D400FFF769FD504B186004F115
:1086C000D800FFF763FD4E4B186004F1DC00FFF7A4
:1086D0005DFD4C4B186004F1E000FFF757FD4A4B7D
:1086E000186004F1E400FFF751FD484B186004F1F5
:1086F000E800FFF74BFD464B186004F1EC00FFF774
:1087000045FD444B186004F1F000FFF73FFD424B7C
:10871000186004F1F400FFF739FD404B18607FE06A
:108720002408002000380008F8000020F400002091
:10873000F0000020D0000020B4000020AC00002099
:10874000A8000020D4000020CC000020C800002099
:10875000C4000020C0000020BC000020B8000020A1
:10876000B000002090000020EC000020E800002075
:10877000E4000020E0000020DC000020D800002001
:10878000940000203C000020A4000020A000002055
:108790009C000020980000208C0000208800002011
:1087A00084000020800000207C0000207800002051
:1087B00074000020700000206C0000206800002081
:1087C00064000020600000205C00002058000020B1
:1087D00054000020500000204C000020F80300202E
:1087E0004800002044000020400000203800002005
:1087F00034000020300000202C0000202800002041
:1088000024000020200000201C0000201800002070
:1088100014000020100000200C00002008000020A0
:1088200004F1F800FFF7B2FC044B186004F1FC00FF
:10883000FFF7ACFC024B1860BDE8F88F0400002085
:10884000000000204FF4FA651560DA4A0D200A6036
:10885000FA211960142316260A274FF0550C4FF001
:10886000BE0E4FF4966941F6F42AD34944F2303BE8
:108870000B60D249DFF8488308604FF42F70D1496C
:108880000E60D14940F6E4460B60D0490F60D049F4
:1088900040F6FF77C1F800C0CE49DFF83CC3C1F80D
:1088A00000E0CE49DFF838E3C1F80080CD49DFF8B9
:1088B0003883C1F80090CD49DFF83493C1F800A0A7
:1088C000CC49DFF834A3C1F800B0CC49DFF830B3AD
:1088D000086040F66E70CB490E60CB49CB4E0F60FE
:1088E000CB4FCC490F60CC490860CC49CC480A60DA
:1088F000CC490E60CC490860CC49CD480860CD49D0
:10890000CD480160CD48016043F22C01CC480160A4
:1089100041F27830CCF80000DFF828C3CCF800E052
:10892000DFF824C3DFF824E3CCF800E0DFF820C34D
:10893000DFF820E3CCF800E0DFF81CC3DFF81CE32D
:10894000CCF800E0DFF818C3DFF818E3CCF800E05B
:10895000DFF814C3DFF814E3CCF800E0DFF810C34D
:10896000DFF810E32560CCF800E0DFF80CC3DFF897
:108970000CE3934DCCF800E0DFF804C3DFF804E328
:108980006260CCF800E0DFF800C3DFF800E3CEF867
:1089900000C0DFF8FCE2CEF80080DFF8F8E2DFF894
:1089A000F882CEF80080DFF8F4E2DFF8F482CEF847
:1089B0000080DFF8F0E2DFF8F082CEF80080DFF828
:1089C000ECE2DFF8EC82C8F800E0DFF8E882C8F8F3
:1089D0000090DFF8E482DFF8E492C8F800E04FF09E
:1089E0000008DFF8DCE2CEF80080DFF8D8E2DFF83C
:1089F000D882C8F800E0DFF8D482C9F80080DFF838
:108A0000D092CAF80090DFF8CCA2CAF800B0DFF824
:108A1000C8A2DFF8C8B2CAF800B0DFF8C4A2DFF815
:108A2000C4B2CAF800B0DFF8C0A2CAF80090DFF8FC
:108A3000BC92DFF8BCA2C9F800A0DFF8B892C9F870
:108A40000080DFF8B482DFF8B492C8F80090DFF855
:108A5000B082DFF8B092C8F80090DFF8AC82DFF89F
:108A6000AC92C8F80090DFF8A882C8F800E0DFF800
:108A7000A4E2DFF8A482CEF80080DFF8A0E2DFF8FD
:108A8000A082CEF80080DFF89CE2CEF800C04FF064
:108A90007E5CDFF894E2CEF800C0DFF890E2CEF81A
:108AA00000C0A5602261BE22A2614FF49662E2611D
:108AB00041F6F422226244F2303262624FF42F72A5
:108AC000A26240F6E442E26240F6FF72226340F6A0
:108AD0006E722364E3640A236263FA2223655523DA
:108AE000E2630D22636541F2707362641622E365EE
:108AF0004B4BA06323664E4BA26463664D4BA1654E
:108B0000A366E366364BE7602367504B6661636795
:108B1000A3F13273A3F52043CD3BA3674F4B324AF9
:108B2000E367504B3249C4F88030504B344DC4F8A1
:108B30008430504B00F17250C4F8883003F17D430B
:108B400003F5190303F26763C4F88C304D4BC4F886
:108B50009820C4F890304C4B4F4AC4F89430C4F875
:108B6000F4304FF07E53C4F8F830C4F8FC30AA2338
:108B7000C4F89C204A4A84F80731C4F8A0204A4A25
:108B80001C23C4F8A420A2F5A012C4F8A820C4F89D
:108B9000B0200022C4F8AC104C49C4F8B420C4F88A
:108BA000BC10C4F8D8105549464AC4F8DC1000F58A
:108BB0000F10BDE0209B0800EC000020E800002022
:108BC000A0030200E4000020E0000020DC00002000
:108BD000D8000020D400002090000020D000002009
:108BE0000000E041CC0000205C8F7E41C8000020E6
:108BF00000009A42C400002040000020C000002075
:108C0000CDCC3C41BC000020B8000020E080030037
:108C100078630100B4000020B0000020AC00002008
:108C20005C8F0241A8000020A4000020A0000020CA
:108C3000A470AF417B1402419C00002098000020EA
:108C4000940000208C0000208800002000345D4645
:108C500084000020339394438000002000C0B2447D
:108C60007C0000209A998940780000200000C841CB
:108C70007400002033938843700000209A992141AA
:108C80006C00002072F97F3F17B7D13868000020D0
:108C90006400002060000020CD4C19445C000020DE
:108CA000000080BF580000200000B4420000A04235
:108CB00054000020500000204C0000204400002000
:108CC000F80300200000C84248000020CDCCCC3D75
:108CD0000AD7A33C38000020340000209A99314183
:108CE000300000209A9919412C0000202800002013
:108CF000CDCC4C3D24000020200000206666663F5D
:108D00001C000020CDCC4C3E180000200000484242
:108D100014000020100000208FC2753C0C000020C1
:108D20008FC2753D080000200400002000000020D4
:108D30001849C4F8B82000F29230C4F8C450C4F8FE
:108D4000E820A5F53325144AC4F8C000C4F8D000C3
:108D5000C4F8E01011481249A5F23335C4F8C850E0
:108D6000C4F8EC20A5F5C01502F18072C4F8E41037
:108D7000C4F8F020C4F8CC50C4F8D40084F806310C
:108D8000FFF718FA2146BDE8F84F42220548FFF7E1
:108D90004DBA00BFCDCC4C3E8FC2753CCDCC4C3DC6
:108DA00000004842003800082DE9F04186B072B654
:108DB00000232E4DCDE901332C682D4B002C3ED1E4
:108DC0002B6002222A4801A9FFF720FB019B029A8F
:108DD000B3F1B63F39D1B2F1B63F39D1244C254E6B
:108DE000254FDFF898800222304603A9FFF70EFBDB
:108DF0009DF80C20052A24D80C23534317F803C0F0
:108E000006F10801944507EB030E11D1BDF80E00E1
:108E1000BEF8022082420BD11948C41800F803C0E2
:108E200018486280C252C4181032616094192146F9
:108E300001F110034345296003D80E46D3E79C4255
:108E4000BFD02C6006B0BDE8F0811340013301D0E3
:108E5000FFF7CEF94FF0B6330222054801A9CDE95C
:108E60000133044CFFF7E2F9EBE700BFC80900202B
:108E700000F8000808F80008AC0200201EFE0008F8
:108E800078090020300900202DE9F74F72B6002341
:108E900001264FF00C0ACDE90033294DFFF784FF7E
:108EA000DFF8A090284A294C174617F80C3F04F128
:108EB0000C08013BDBB2FD2B34D8D389FF2B31D01A
:108EC00083B3A289A96820699208FFF79FFAB4F8D2
:108ED0000CB02069022269465844FFF797FAA96846
:108EE0001B484FEA9B0201F085F8009B834209D0A2
:108EF000D9F80810A289A86805F01EFCA968B0B2CC
:108F0000FFF7B4F90136062E3A46444605F1080546
:108F100009F10809C8D102220E4B1A7062B603B0DB
:108F2000BDE8F08F0AFB06F30B4A9A1807CA87E8D8
:108F300007000A4A134493E8070088E80700D7E7C8
:108F400034020020040200207809002030090020AB
:108F5000443C00202C090020AC02002064020020C8
:108F600073B5404C404B227801211A703F4A40486B
:108F70001368404D053313603F4A404E1368053374
:108F8000136001F01BFC3E4A3E4B117830701970A3
:108F9000517859709178D2789970DA702B6833B91A
:108FA000394B1B78D3B12F215720FEF7B1FF33780F
:108FB000364A012B07D0364B1B78022B03D0354B9A
:108FC0001B78012B11D101232370C8231360324A6F
:108FD00013602B6801332B6002B070BD5720FEF781
:108FE00003FF2F28E3D12E21DEE713682BB1013BCD
:108FF0001360002BEDD102232370284B264A1B78E7
:10900000042B2BD11368002BE3D0013B1360002B02
:10901000DFD103222270224A4FF480701360214A6C
:109020001370194A137003F1804303F50433DA69AE
:1090300042F08052DA61DB6903F080530193019BB7
:10904000194B1A6842F004021A601A6842F00802CA
:109050001A6001F0FFFB01F009FCBAE7022323705C
:10906000C823B5E70503002008050020D04F0020E5
:1090700000080140CC090020CC4F00200403002050
:1090800051010020D64F0020D54F002000030020C2
:109090003401002030010020FC02002007050020E0
:1090A000C84F0020D44F00200070004000220E4B1B
:1090B0001A600E4B19700E4B187038B10D4A1368B8
:1090C000013313600C4A136801331360BFF34F8FF1
:1090D0000A490B4BCA6802F4E0621343CB60BFF34A
:1090E0004F8F00BFFDE700BFCC4F0020D44F0020C2
:1090F000D54F0020C84F0020C44F002000ED00E0F5
:109100000400FA0505F00AFA0B480C490C4A002342
:1091100002E0D458C4500433C4188C42F9D3094A2D
:10912000094C002301E013600432A242FBD305F096
:10913000DFFA05F045F870470000002074030020B6
:109140000CEC000878030020FC400020FEE7000043
:1091500008B5074A0320136843F01003136000F0BA
:10916000E9FE0F2005F024F905F0F8F8002008BD0D
:1091700000200240034A044B11681B780B44136023
:10918000704700BFD009002006030020014B18687B
:10919000704700BFD009002038B50446FFF7F6FF3E
:1091A0000546631C1EBF044B1B78E418FFF7EEFF57
:1091B000431BA342FAD338BD06030020436A9A6AD0
:1091C00012F0500F1AD19A6A42F400729A621A6829
:1091D000926802F46022B2F5602F0CD11A7B52B96A
:1091E0009A6A22F480729A629A6AD2045EBF9A6A7C
:1091F00042F001029A6218461A6B10471B6A1B6BF9
:109200001847406A436B1847406A836A43F040033B
:109210008362C36A43F00403C362C36B1847704799
:10922000704770B5036804461D685E68B00626D5B1
:10923000A90724D5A26AD2065EBFA26A42F40072D0
:10924000A2629A6802F46022B2F5602F10D1227BEC
:1092500072B95A6822F020025A60A36A23F480731C
:10926000A362A36AD8045EBFA36A43F00103A362AA
:10927000236B204698476FF0120223681A6031066C
:1092800030D56A072ED5A36ADB065EBFA36A43F416
:109290000053A36223689A6802F4E042B2F5E04FFB
:1092A0000AD05A68500516D49A6802F46022B2F5C2
:1092B000602F10D1227B72B95A6822F080025A6066
:1092C000A36A23F48053A362A36AD9055EBFA36A8D
:1092D00043F00103A362236C204698476FF00C0211
:1092E00023681A6072060CD5EB070AD5A36A2046DC
:1092F00043F48033A362A36B98476FF001022368A5
:109300001A6070BD002373B5019390F824300246B3
:10931000012B71D0012380F824304C680068062CA2
:109320000D684FEA840325D823441F24466B053B70
:109330009C4026EA040405FA03F3234343630C68C4
:109340001668092C04EB44008B684FF0070429D9F8
:10935000F5681E38844025EA040483402343F36003
:109360000B68103B012B25D90020002382F8243004
:1093700002B070BD0C2C23444FF01F0409D8066BBB
:10938000233B9C4026EA040405FA03F323430363CA
:10939000D5E7C66A413B9C4026EA04049D402C4325
:1093A000C462CCE73569844025EA04048340234342
:1093B0003361D5E713681148834217D198680002DA
:1093C000D2D4986840F4000098600B68102BCBD181
:1093D0000B4B0C491B68B3FBF1F30A214B43019380
:1093E000019B002BC0D0019B013BF8E7936A012051
:1093F00043F020039362B8E70220B9E7002401405C
:109400002003002040420F0030B590F8242003468E
:10941000012A1FD0012280F824200268087A01283E
:1094200050680CBF40F0400020F0400050601C68C5
:10943000D1E9002065680243074828400243626082
:10944000C8681A685062002009691A68916283F836
:10945000240030BD0220FCE7E0FD3FFF806A70473A
:10946000002337B50193036804469A68D20702D5F2
:10947000002003B030BD9A6842F001029A60144B9C
:10948000144A1B68B3FBF2F30193019BE3B9FFF7A6
:109490007DFE054623689B68DB07E9D4FFF776FE6F
:1094A000401B0228F6D923689B6813F00103F1D111
:1094B000A26A012042F01002A262E26A84F824301B
:1094C00042F00102E262D4E7019B013BDCE700BF0E
:1094D0002003002040420F002DE9F041414B90460F
:1094E000026804469A420F4602D03F498A4203D19D
:1094F0005B6813F4702F70D194F82430012B6ED078
:109500000123204684F82430FFF7AAFF06460028EE
:109510005FD1A56A2168344B25F4706525F00105FB
:1095200045F480759942A56204D12E4A536813F41C
:10953000702F40D1A36A23F48013A3624B685A05AD
:1095400005D5A36A23F4405343F48053A362A36A6E
:10955000264A13F480531CBFE36A23F00603E36238
:10956000002384F82430236A9A62236A204ADA624C
:10957000236A204A1A636FF0020223681A60226885
:10958000936843F480739360216843463A46206AA7
:109590004C3100F077FD23689A6802F46022B2F53E
:1095A000602F9A680CBF42F4A00242F480129A60C5
:1095B0003046BDE8F081A36A43F48013A362536888
:1095C0005B0541BFA06A20F4405040F48050A06287
:1095D000BDE7002384F82430EAE70126E8E7022605
:1095E000E6E700BF0024014000280140BD910008CB
:1095F000039200080992000838B5036804469A6887
:10960000D10701D4002038BD9A6822F001029A6087
:10961000FFF7BCFD054623689B68DB07F2D5FFF723
:10962000B5FD401B0228F6D923689B68DA07F2D5FE
:10963000A36A012043F01003A362E36A43F001032D
:10964000E362E0E770B5044600287CD0836A9BB9EA
:10965000C36280F824303F4B03633F4B43633F4B6F
:1096600083633F4BC3633F4B0364436C0BB93E4B77
:1096700043642046636C98472046FFF7BDFFA36A0A
:1096800013F0100361D100285FD1A26A616822F44F
:10969000885222F0020242F00202A262E269257BB5
:1096A0001143A26841EA4501B2F5807F03D0561EFE
:1096B000724272411202267D012E07D1002D2FD158
:1096C000A569013D42EA453545F4006226687568A2
:1096D00025F469452A4372602568244AAE68324001
