:020000040800F2
:103C0000804F0020F99700086DEB000879EB000861
:103C100085EB000891EB00089DEB00080000000018
:103C2000000000000000000000000000D1D90008E2
:103C3000A9EB00080000000061DA0008A5DA00081E
:103C400041980008ABEB0008419800084198000833
:103C5000BDEB0008C1EB000841980008419800083E
:103C6000419800084198000841980008C5EB0008F9
:103C700041980008419800084198000841980008C0
:103C80004198000841980008D1EB0008DDEB0008DE
:103C9000E9EB0008EDEB0008F1EB000841980008A3
:103CA000F5EB000801EC000805EC000809EC000841
:103CB000419800080DEC000825EC00084198000828
:103CC0004198000841980008419800084198000870
:103CD0004198000841980008419800084198000860
:103CE0004198000841980008419800080000000031
:103CF00000000000000000000000000000000000C4
:0C3D000000000000000000005FF808F167
:103D100010B5054C237833B9044B13B10448AFF305
:103D200000800123237010BD9803002000000000D4
:103D30001CF1000808B5034B1BB103490348AFF35E
:103D4000008008BD000000009C0300201CF100085A
:103D500080F0004002E000BF81F0004142001FBF40
:103D60005FEA410392EA030F7FEA226C7FEA236C49
:103D70006AD04FEA1262D2EB1363C1BFD21841403E
:103D800048404140B8BF5B42192B88BF704710F0D4
:103D9000004F40F4000020F07F4018BF404211F077
:103DA000004F41F4000121F07F4118BF494292EADF
:103DB000030F3FD0A2F1010241FA03FC10EB0C000B
:103DC000C3F1200301FA03F100F0004302D5494298
:103DD00060EB4000B0F5000F13D3B0F1807F06D345
:103DE00040084FEA310102F10102FE2A51D2B1F13D
:103DF000004F40EBC25008BF20F0010040EA030032
:103E00007047490040EB0000013A28BFB0F5000FB1
:103E1000EDD2B0FA80FCACF1080CB2EB0C0200FA67
:103E20000CF0AABF00EBC25052421843BCBFD040B6
:103E30001843704792F0000F81F4000106BF80F430
:103E400000000132013BB5E74FEA41037FEA226CF3
:103E500018BF7FEA236C21D092EA030F04D092F0BE
:103E6000000F08BF0846704790EA010F1CBF0020F2
:103E7000704712F07F4F04D1400028BF40F000404F
:103E8000704712F100723CBF00F50000704700F06F
:103E9000004343F0FE4040F4000070477FEA226296
:103EA00016BF08467FEA23630146420206BF5FEA67
:103EB000412390EA010F40F4800070474FF0000367
:103EC00004E000BF10F0004348BF40425FEA000C2E
:103ED00008BF704743F0964301464FF000001CE0D6
:103EE00050EA010208BF70474FF000030AE000BF2C
:103EF00050EA010208BF704711F0004302D540426A
:103F000061EB41015FEA010C02BF844601460020DB
:103F100043F0B64308BFA3F18053A3F50003BCFAF6
:103F20008CF2083AA3EBC25310DB01FA02FC6344A3
:103F300000FA02FCC2F12002BCF1004F20FA02F2AA
:103F400043EB020008BF20F00100704702F120029D
:103F500001FA02FCC2F1200250EA4C0021FA02F2FE
:103F600043EB020008BF20EADC7070474FF0FF0C03
:103F70001CEAD0521EBF1CEAD15392EA0C0F93EAFE
:103F80000C0F6FD01A4480EA010C400218BF5FEAA0
:103F900041211ED04FF0006343EA501043EA511113
:103FA000A0FB01310CF00040B1F5000F3EBF49000D
:103FB00041EAD3715B0040EA010062F17F02FD2A11
:103FC0001DD8B3F1004F40EBC25008BF20F00100F4
:103FD000704790F0000F0CF0004C08BF49024CEA0B
:103FE000502040EA51207F3AC2BFD2F1FF0340EA9D
:103FF000C250704740F400004FF00003013A5DDC0E
:1040000012F1190FDCBF00F000407047C2F100024E
:10401000410021FA02F1C2F1200200FA02FC5FEA3B
:10402000310040F1000053EA4C0308BF20EADC7085
:10403000704792F0000F00F0004C02BF400010F4F7
:10404000000F013AF9D040EA0C0093F0000F01F0A4
:10405000004C02BF490011F4000F013BF9D041EAC6
:104060000C018FE70CEAD15392EA0C0F18BF93EAC8
:104070000C0F0AD030F0004C18BF31F0004CD8D1F2
:1040800080EA010000F00040704790F0000F17BF79
:1040900090F0004F084691F0000F91F0004F14D0BF
:1040A00092EA0C0F01D142020FD193EA0C0F03D117
:1040B0004B0218BF084608D180EA010000F000401A
:1040C00040F0FE4040F40000704740F0FE4040F4F5
:1040D000400070474FF0FF0C1CEAD0521EBF1CEA94
:1040E000D15392EA0C0F93EA0C0F69D0A2EB0302B2
:1040F00080EA010C49024FEA402037D04FF080534C
:1041000043EA111143EA10130CF000408B4238BF10
:104110005B0042F17D024FF4000C8B4224BF5B1A1E
:1041200040EA0C00B3EB510F24BFA3EB510340EA6C
:104130005C00B3EB910F24BFA3EB910340EA9C001A
:10414000B3EBD10F24BFA3EBD10340EADC001B018A
:1041500018BF5FEA1C1CE0D1FD2A3FF650AF8B422E
:1041600040EBC25008BF20F0010070470CF0004C3B
:104170004CEA50207F32C2BFD2F1FF0340EAC25066
:10418000704740F400004FF00003013A37E792F027
:10419000000F00F0004C02BF400010F4000F013A85
:1041A000F9D040EA0C0093F0000F01F0004C02BF80
:1041B000490011F4000F013BF9D041EA0C0195E7E9
:1041C0000CEAD15392EA0C0F08D142027FF47DAF82
:1041D00093EA0C0F7FF470AF084676E793EA0C0F72
:1041E00004D14B023FF44CAF08466EE730F0004C70
:1041F00018BF31F0004CCAD130F000427FF45CAF00
:1042000031F000437FF43CAF5FE700BF4FF0FF3C6D
:1042100006E000BF4FF0010C02E000BF4FF0010CC0
:104220004DF804CD4FEA40024FEA41037FEA226C89
:1042300018BF7FEA236C11D001B052EA530C18BFAB
:1042400090EA010F58BFB2EB030088BFC81738BF10
:104250006FEAE17018BF40F0010070477FEA226CFE
:1042600002D15FEA402C05D17FEA236CE4D15FEAFA
:10427000412CE1D05DF8040B704700BF844608462E
:104280006146FFE70FB5FFF7C9FF002848BF10F1EF
:10429000000F0FBD4DF808EDFFF7F4FF0CBF012034
:1042A00000205DF808FB00BF4DF808EDFFF7EAFFBE
:1042B00034BF012000205DF808FB00BF4DF808ED79
:1042C000FFF7E0FF94BF012000205DF808FB00BF6E
:1042D0004DF808EDFFF7D2FF94BF012000205DF8F4
:1042E00008FB00BF4DF808EDFFF7C8FF34BF012001
:1042F00000205DF808FB00BF4FEA40024FEA41038F
:104300007FEA226C02D15FEA402C08D17FEA236C5D
:1043100002D15FEA412C02D14FF0000070474FF00C
:10432000010070474FEA4002B2F1FE4F0FD34FF049
:104330009E03B3EB12620DD94FEA002343F0004312
:1043400010F0004F23FA02F018BF404270474FF0C0
:104350000000704712F1610F01D1420205D110F047
:10436000004008BF6FF0004070474FF000007047FA
:1043700042000ED2B2F1FE4F0BD34FF09E03B3EBCF
:10438000126209D44FEA002343F0004323FA02F0FB
:1043900070474FF00000704712F1610F01D14202E7
:1043A00002D14FF0FF3070474FF00000704700BF60
:1043B000F8B5204B04461E681F4B014630461D6869
:1043C000FFF786FF40BB1D4B21461F683846FFF7AD
:1043D00075FF18BB31462046FFF7BEFC2946044650
:1043E0001748FFF7B9FC01462046FFF7BFFD3146ED
:1043F00004463846FFF7B0FC01462046FFF76AFE48
:1044000001460F48FFF7A8FC044629462046FFF75F
:104410004BFF20B12C460AE0094CF6E72C46094B2D
:1044200020461D682946FFF75DFF0028F2D120468F
:10443000F8BD00BF30000020380000202C00002014
:104440000000C842340000202DE9F8432149054608
:10445000FFF734FF002838D128461F49FFF738FFFF
:104460000446002833D11D4E56F8047B28463946B1
:10447000A1460134FFF72CFF28B3D6F80080284668
:104480004146FFF711FFF0B1154B53F8296053F87F
:1044900024003146FFF760FC394604462846FFF702
:1044A0005BFC01462046FFF761FD39460446404665
:1044B000FFF752FC01462046FFF70CFE3146FFF79E
:1044C0004DFCBDE8F8830C2CCED10020F9E705485F
:1044D000F7E700BF0000284100004C4168F10008E8
:1044E00034F100080000C84210B516490446FFF731
:1044F000E5FED0B920461449FFF7E0FEB8B92046E2
:104500001249FFF7DBFEA0B920461149FFF7D6FE9E
:1045100088B920460F49FFF7D1FE70B920460E49F1
:10452000FFF7CCFE58B10D4810BD0D48FCE70D4813
:10453000FAE70D48F8E70D48F6E70D48F4E70D48AF
:10454000F2E700BF33332B4166662E4133333341EC
:1045500000003841CDCC3C41000040410000B44255
:1045600000000C420000344200005C420000824225
:104570000000A0420000C8422DE9F04FA84BA94A14
:104580001B881268DFF8A0829342A84DA84AA94F61
:10459000A94EAA4C95B0C0F0E981D8F800108B4222
:1045A0004FF00003136000F2EB812B603B7033701F
:1045B0000A229B4BA24D1B8803EB8303B3FBF2F350
:1045C000A04A1380A04A1168A04A8B4292F800C00A
:1045D00094BF0020581ABCF1000F40F015820B4424
:1045E00029888B4201D801231370994B1B78012B2A
:1045F00011D083B1974B1B78012B0CD05BB1964B3C
:104600001B78012B07D0954B1B7803F1FF3CDCF1A5
:10461000000343EB0C03924ADFF848B21370924A4E
:104620009BF800A092F80090904A387892F800C069
:104630003278BCF1010F03D0012A01D0012804D146
:104640004FF0010E8A4981F800E08A4991F800E0B4
:10465000BEF1000F40F0F581012B00F0DF81002258
:104660000B70DFF81482854B854988F800201A7892
:104670000B78012B0DD1531E022B0AD8814B1878D1
:10468000042802D01B78062B03D100230B707E492F
:104690000B707C4B197891421EBF1A78774B1A70B9
:1046A0007A4BD3F800A07A4B51461868FFF7FCFD0F
:1046B0008146002800F0E281DFF8D8912368D9F81C
:1046C0000020002A40F0C181C9F80030724BD3F8B5
:1046D00000A0724B51461868FFF704FE814600287F
:1046E00000F00082DFF8B8912368D9F80020002A92
:1046F00040F0E781C9F800305B4B1B78012B06D1F5
:10470000684A23681168002940F0108213603378EA
:10471000594E012B02D03B78012B01D1002333707D
:10472000614F62483B78DFF85891012B04BF0022AB
:1047300032700278012A0CD14B4A99F80010127895
:104740000A4306D15049027091F800C00CF10102F1
:104750000A7057480278012A4B4A07D199F800108D
:104760000B4301BF117803704B1C1370514B12782F
:104770001B689A420BD101232F21542089F8003065
:1047800003F0D8FEAF214FF4AA7003F067FE99F84A
:1047900000300BB10023337034480378012B40F014
:1047A000EC810023274A2988128888F8003091423A
:1047B000C0F0E38140492268D1F800C0BCF1000F8D
:1047C00040F0BE810A60234B3F7893F800803B4B5A
:1047D0001A78424518BF83F80080354B1A78BA42E0
:1047E00018BF1F70204B1A78304B1978914218BFB0
:1047F0001A70B8F1010F70D1DFF8C4A0314B9AF8EC
:1048000000001B68DFF8C0909842D9F800B080F033
:10481000B8812E4B01308AF80000594658E000BF9D
:1048200050010020EC000020E8000020F0030020F0
:10483000F40300207605002075050020680500209F
:10484000520100206C050020140100207205002098
:104850007401002055010020280300207C05002061
:10486000540100207D0500207705002078050020F8
:10487000EE030020ED03002056010020EC03002091
:1048800070050020CE0500207105002018050020CD
:104890007C000020E80300200C05002080000020A0
:1048A000E4030020E003002079050020DD03002060
:1048B000DC0300200C010020D8030020D5030020D9
:1048C000D403002010010020D00300201405002094
:1048D0001868FFF743FAC9F80000B14BDFF8C4A22B
:1048E000D3F800B0B04B58461968DAF8009001913F
:1048F000FFF7DAFC002800F07B81002F40F0788180
:10490000B8F1010F019940F073810846FFF72EFBC3
:10491000594680465846FFF729FB01464046FFF7B7
:104920001BFAA249FFF7D6FB4946FFF717FACAF868
:104930000000FFF71DFD9E4B18609A4BD3F80090C6
:104940009C4B48461968FFF7CDFC8046002800F0D4
:1049500087810122984B2F2153201A7003F0EAFD22
:10496000AF2140F2531003F079FD86E1116823680E
:1049700059B91360914B1A88D8F800309A4241D93E
:104980002A682368FAB92B6012E68D4A5B1A12680E
:1049900093420BD901232F2150203B7003F0CAFD15
:1049A000AF214FF4A87003F059FDE3E70023502036
:1049B0003B7003F02BFD2F28DCD12E21502003F07B
:1049C000B9FDAE21EDE79B1A7D4A126893420BD9DF
:1049D00001232F215120337003F0ACFDAF2140F2B1
:1049E000511003F03BFDE3E500235120337003F049
:1049F0000DFD2F287FF4DCAD2E21512003F09AFD10
:104A0000AE21ECE70023BEE7BCF1010F7FF4EDAD72
:104A10002B8883423FF6E9AD0023E5E5DFF8A4816A
:104A200088F800E049EA0C094AEA090A42EA0A025F
:104A300002437FF414AE634A1278B2FA82F252094A
:104A40000EE6012B7FF40BAEECE79B1A5C4A126872
:104A500093427FF63BAE01234FF0000A2F215820EE
:104A60008BF8003088F800A003F064FDAF214FF40C
:104A7000AC7003F0F3FCC9F800A027E6524B504697
:104A80001968FFF711FC00283FF420AEDFF83CA1C5
:104A90002368DAF800209B1A494A126893427FF68D
:104AA00015AE4B4B582083F8009003F0AFFC2F2835
:104AB00003D12E21582003F03DFD0023CAF8003019
:104AC00004E69B1A3E4A126893427FF615AE012314
:104AD000404A2F215920137088F8003003F02AFD36
:104AE000002307E650463C49FFF7FCFB00283FF453
:104AF00003AEDFF8E8A02368DAF8002012B9CAF89C
:104B00000030F9E59B1A2E4A126893427FF6F4AD05
:104B1000304B592083F8009003F078FC2F2803D104
:104B20002E21592003F006FD0023E8E75B1A2C49EB
:104B300009688B427FF6EBAD00232A490B70E5E54F
:104B4000A2EB0C02DFF878C0DCF800C062457FF60B
:104B50003AAE254A0370562013600B6003F056FCF2
:104B60002F287FF430AE2E21562003F0E3FCAE2137
:104B70004FF4AB7003F072FC25E600221B4B1A6069
:104B800021E6FFF79FF901465846FFF7A3FA064BC7
:104B9000186000238AF800300023C9F800309CE632
:104BA000B0000020C8030020CC03002000002041FA
:104BB0005C050020AC000020790500205001002099
:104BC00004010020EE03002078000020E80300200C
:104BD0007D0500207C050020CDCCCCBDE403002069
:104BE000F80000207705002064050020D80300208D
:104BF000164B22681B68B2FBF3F103FB1128B8F1D6
:104C0000000F7FF49AAE124BDFF848B01868FFF738
:104C100055F94946FFF7AAF90F49FFF75BFACBF8B8
:104C200000008246FFF7A4FBDFF830904FF07E5182
:104C3000C9F800005046FFF737FB00283FF47DAE6F
:104C40000023C9F80080CBF8003076E61001002080
:104C5000FC000020C80300200000C8425C050020C2
:104C600000214846FFF716FB002800F02582012F9F
:104C700040F02282A14B83F80080A14BA14F1B780A
:104C8000012B00F025823B780BB901233B7097F88C
:104C90000080B8F1000F0AD09B4A1368002B40F047
:104CA000228223681360994A1360994A1360994FCE
:104CB0003B78012B40F0E682DFF85C92DFF85C8203
:104CC000D9F80020D8F80000A2F114012268121AC5
:104CD000914217D8924A2988126891424FF00002F7
:104CE000C0F09B828F4B55201A7003F08FFB2F284A
:104CF00008D12E21552003F01DFCAE2140F25510A5
:104D000003F0ACFBD9F800202368D8F800100E3A65
:104D10005B1A9A4213D8844B2A881B88A3F57A73AE
:104D2000934200F2838200237E4A5520137003F0E1
:104D30006DFB2F2803D12E21552003F0FBFB40F201
:104D400002227A4B1B685A636D4B1E78012E40F08D
:104D5000DA823A782368002A40F0BF82744A1168E8
:104D600041B913606D4A0221136032463E707148AA
:104D700006F0A4F8704B1B8818460A93FFF79EF8BC
:104D80006E490790FFF7A6F92B88029018460B93FF
:104D9000FFF794F869490890FFF79CF9684B0546BE
:104DA000D3F800B0674B1B680693674B1B78002B4A
:104DB00071D1664C029B266C2360E360069B6060A9
:104DC000206163493046C4F808B0C4F814B0636485
:104DD000FFF76AFA20B930465E49FFF783FA10B14F
:104DE0005D4B1B682364266A00213046FFF75CFA9E
:104DF00020B930465949FFF775FA18B10298FFF704
:104E000023FB2062564B266A1C68564B21463046CF
:104E10001F68FFF749FA38B939463046FFF762FA9A
:104E2000002800F081823C46484E02983462746249
:104E3000FFF70AFBB062306CFFF7BAFA47493063FC
:104E40007163F062FFF746F90699FFF78FF84FF0AC
:104E50007E510746FFF728FA08B14FF07E5700232E
:104E6000B764B76B00213846C6F88030A6F88430A6
:104E7000FFF71AFA20B938463B49FFF733FA20B159
:104E80000023B363002386F83C302F4B029ADC6288
:104E90009A6201221A602D4F029BFC683B60069BC0
:104EA00021467B64314B7D601E680298C7F808B0CC
:104EB000FEF752FF3146FFF759F82146FEF74EFF45
:104EC000D7F8108004464146F8602846FEF744FFB4
:104ED0003146FFF74BF84146FEF740FF7D69064635
:104EE000294638615846FEF737FF214B1968FFF70E
:104EF0003DF82946FEF732FF3CE000BF790500206F
:104F00005601002073050020C4030020C0030020C8
:104F1000BC0300207B050020080100206005002064
:104F2000E4000020770500206C050020903F002061
:104F3000B8030020000C01405001002000007A441A
:104F40001405002074000020F80300203404002021
:104F50006F12833A9A99993E300000200000C842AF
:104F60006C000020680000200000A0414C000020E0
:104F7000480000202146786105463046FEF7ECFEE9
:104F800097F88330AD4EB861002B40F0D781AC4B21
:104F90001968FFF79DF9002800F0CE81A94AF3684F
:104FA00012689342C0F0C2810122A74B83F883208C
:104FB00000233361A44A92F8833003939F4B0398F4
:104FC000D97881420FD000215961A2F884100028BD
:104FD00000F0CC810020996118631962D06490655B
:104FE000964B039ADA70994BD3F800A0984B504631
:104FF0001968FEF7B3FE914B07465E780AF1004947
:10500000022E06D149462846FFF758F9002840F0FD
:10501000E481284607F10041FFF750F9002840F0ED
:10502000AE81012E06D151462846FFF751F90028DE
:1050300040F0D38139462846FFF74AF9003818BFB7
:105040000120864200F0C9817C4A9378834200F0B7
:105050009881012390709360784B5B780193019A5B
:10506000794B911E83F880204A424A4183F881207F
:10507000019A501E4242424183F88220754B1E68BD
:10508000039B002B40F0188400212846FFF70CF901
:10509000002800F0A58105F100413046FFF718F91E
:1050A000002800F00984654B5F69002F40F0B28151
:1050B00001229C625A61C8E1532003F0A7F92F280E
:1050C0007FF4DBAD2E21532003F034FAAE2148E407
:1050D0000023614A3B701360604A1360604A1360AA
:1050E000604A1370D3E5B8F1020F39D0B8F1030F5D
:1050F00065D0B8F1010F7FF4DAAD5B4A29881088DA
:105100002268D31A594A1268934211D388423FF653
:10511000CEAD2F21522003F00DFAAF214FF4A9702C
:1051200003F09CF902233B704E4B83F80080BEE5F0
:1051300088427FF6BCAD022300223B70494B5220CF
:105140001A7003F063F92F287FF4B1AD2E2152209D
:1051500003F0F0F9AE214FF4A97003F07FF9A6E552
:105160000A22434B21681B88288803EB4303B3FBC7
:10517000F2F33A4A12688A1A3E4909688A420DD304
:1051800083423FF794AD2F215F2003F0D3F9AF2185
:105190004FF4A97003F062F90323C4E783427FF759
:1051A00086AD032300223B702E4B5F201A7003F064
:1051B0002DF92F287FF47BAD2E215F20C8E72E4BE1
:1051C00021681A68264B28881B68CB1A2B49096866
:1051D0008B4211D39042FFF46AAD2F21602003F07F
:1051E000A9F9AF214FF4A97003F038F91D4B83F8EA
:1051F000008004233B705AE59042BFF458AD04236D
:1052000000223B70174B60201A7003F0FFF82F2824
:105210007FF44DAD2E2160209AE7194955200B707F
:105220002F21327003F086F9AF2167E50123144A7C
:105230002F211370002333707EE500BFF803002098
:105240001800002004010020340400202400002065
:105250001C00002000000020C4030020C003002028
:10526000BC0300207A0500206C050020F40000201B
:1052700050010020CC000020F0000020D0000020D1
:1052800077050020022B7FF45AAD564B197801297F
:105290007FF455AD544B1A882B889A42534A04D850
:1052A000002353490B70136049E5106823680028F8
:1052B000F9D0504A1B1A126893427FF640AD4C4B0E
:1052C0005620197000232F21337003F033F9AF21DA
:1052D0004FF4AB7003F0C2F831E5012A7FF44AAD18
:1052E000454801685B1A454909688B4204D300228E
:1052F0000221026039703AE501398B42FFF43AAD80
:105300004FF4806133E5002E7FF434AD374B3246E5
:105310001E60394B02211E60394B3A483E701E60B8
:1053200005F0CCFD3246EBE734467DE501339A4289
:10533000F3603FF63FAE37E6F0603BE6324B19686C
:10534000FEF7BCFF80B12B4A33691268934205D344
:1053500000232E4AF36082F883302BE601339A4211
:1053600033613FF627AEF3E7306123E603990398F4
:10537000D9610021586259631165516530E60220F8
:105380005FE61C49936809688B4212D302284FF0EC
:10539000000314D100261D49936116631362CE6485
:1053A0008E65A1F884305361194B587000229A60C1
:1053B00052E60133994293603FF64EAEE6E701288C
:1053C000134A07D100261149D361566353620E6513
:1053D0004E65E6E753619462E6E70D4B9E70E5E7A4
:1053E00029465AE6740500206C050020640500205B
:1053F0007805002004010020B803002008010020E7
:1054000060050020000C014014000020340400203E
:10541000F8030020996A2046FEF79EFC002106460C
:10542000FEF742FF08B106F10046AE4B3146D3F815
:105430000080AD4B1868FEF74BFFAC4B00283FF4E3
:1054400037AE474501D201375F61A84AA54E516981
:105450003668A74BB14293F83C0080F01A820022D4
:1054600083F88420DFF88882D8F8403018460C93FF
:10547000FEF79EFF98F83C3006460F9398F884306C
:1054800005930F9B002B00F01F82D8F83800FFF720
:105490002BF8074639463046C8F83060C8F83470F3
:1054A000FEF702FF00B13746914E38469149F76248
:1054B000FEF710FE0699FEF759FD4FF07E510746A4
:1054C000FEF7F2FE08B14FF07E5751462846B7640A
:1054D000FEF7FEFE002800F0FF8151462846FEF749
:1054E0003BFC064649462846FEF7E8FE002800F049
:1054F000F581514605F10040FEF72EFC0490049919
:105500003046FEF729FC7C4912900498FEF72EFDE8
:10551000794910903046FEF729FD784B0D901B68B5
:10552000109819460E93FEF721FD0D991390FEF782
:1055300013FCDFF8BC816F491190FEF717FD394667
:10554000FEF7C8FDD8F82410FEF708FC6C4A0746A1
:1055500013686C4A1946D2F800900993FEF7A4FE2E
:10556000002840F0BE8149463846FEF7BBFE00B138
:105570004F46059BC8F82470002B00F0B48101222F
:10558000204688F88520C8F81C40FEF75DFF3946A4
:10559000C8F82800FEF7E0FB5B4A1168FEF7E6FC5E
:1055A0003946FEF7DBFBC8F82400DFF844A1099870
:1055B000DAF824502946FEF795FE002840F0C38112
:1055C00029464846FEF770FE00B14D46019BCAF8D9
:1055D0002450012BCAF820500DD1DFF8109199F812
:1055E000043043B1494B30461968FEF75DFE07466B
:1055F000002800F0AA810023454ADFF8F4901360E8
:10560000D9F8403018460993FEF7D2FE0F9B0746A3
:10561000002B00F0C881D9F83800FEF765FF8046FE
:1056200041463846C9F83070C9F83480FEF73CFE70
:1056300000B1B8462E4F2F494046C7F82C80FEF7E0
:1056400049FD0699FEF792FC4FF07E518146FEF728
:105650002BFE08B14FF07E591399F86DC7F84890AA
:10566000FEF77CFB0D99F865786EFEF777FB1199D4
:105670007866F86EFEF772FB1099F8662046FEF722
:1056800075FC0E99FEF772FC396EFEF767FB0D99FB
:1056900038662046FEF76AFC0146B86EFEF75EFBF0
:1056A0001199B8662046FEF761FC0146386FFEF797
:1056B00055FB002138670498FEF714FEA8B3DFF805
:1056C0002CA00498DAF83010FEF748FBCAF8300036
:1056D0000390DAF820000130CAF82000FEF7EEFB54
:1056E00018E000BF5C00002060000020F8030020EC
:1056F000340400200000C842DC69BA3540000020B4
:105700006C000020680000203C00002010000020F9
:10571000B4030020039A01461046FEF7DBFCDAF8DA
:105720001820F8640132CAF8182000213046FEF72C
:10573000D9FDA8B1A04F3046796BFEF70FFB786317
:105740000390786A01307862FEF7B8FB039B01464C
:105750001846FEF7BFFC994B1865FB690133FB61E6
:1057600012992046FEF702FC944F002178670498B6
:10577000FEF7B8FD002800F0478120460499FEF7A7
:10578000F5FBB86700213046FEF7ACFD002800F0BD
:105790003D8131462046FEF7E9FB019B874F012BF7
:1057A000F86740F03881D7F850A085495046FEF799
:1057B00099FD002800F02C8182492846FEF78AFCDA
:1057C0004946FEF7D3FB5146FEF784FC786500207E
:1057D0007A4B7D4998654046FEF770FD002840F001
:1057E0003C81059B3BB1794B20461968FEF766FD6D
:1057F000002840F0328128467549FEF75FFD071EFC
:1058000018BF0127DFF8B481059B88F886703BB18B
:10581000704B20461968FEF751FD002840F01F81AB
:105820004FF082412846FEF749FD041E18BF0124AF
:10583000694B0298196888F88740FEF73FFD30B140
:1058400030466649FEF74EFD003818BF01205B4B1D
:1058500083F88800059B002B40F00381DFF88091DE
:1058600060490998FEF734FD48B15F490998FEF791
:1058700025FD20B148465D49FEF770FA8146019B3F
:10588000022B40F0F78048465949FEF767FA8146F7
:10589000F4E00121946383F88410117130B1204643
:1058A000996BFEF701FD00283FF4DCAD0122434B6C
:1058B0009C6383F83C20D5E500233F4A5361946202
:1058C0003E4A82F88430CDE5059B1BB1039B0BB9A2
:1058D0002046DCE53B4FDDE5002603E6002304938C
:1058E0000DE6099F45E6059B88F88530019B002B56
:1058F0007FF45BAE00212846FEF7D6FC08B105F127
:1059000000453C495046FEF729FA2946FEF7E0FCDF
:1059100000283FF44AAE384B4FF07A511868FEF732
:1059200025FBDFF898A005463946DAF82800FEF78F
:1059300013FA01462846FEF719FB3946FEF70EFA20
:10594000CAF8240031E6099D40E62C4B2C4A1B681E
:105950001268934201D201334EE62146D9F838004D
:10596000FEF7FAF93146FEF7B5FB1E498046FEF711
:10597000AFFC00283FF43FAE40461B49FEF79EFCBB
:1059800000283FF438AE0C994046FEF7E5F91D4B70
:105990001968FEF7EBFA0C99FEF7E0F989F8047044
:1059A000CAF8400027E6059B1BB1039B0BB92046B4
:1059B00033E6DFF8108033E6F803002034040020DB
:1059C000CDCC4C3D0000C84200008242580000206F
:1059D0000000A04154000020500000200000A04022
:1059E00000000C426F12833A9A99993E0000704170
:1059F00000002041CDCCCC3D3C000020B403002071
:105A000004010020440000200020BAE60020C4E683
:105A100000237B65DBE600237B65019B022B7FF483
:105A2000D6AEFF6C10493846FEF75CFC00283FF408
:105A3000CEAE29460D48FEF78FF90C49FEF74AFB1A
:105A40004946FEF793FA394681460E98FEF78EFADC
:105A500001464846FEF73EFBBAE60127D2E601249E
:105A6000E6E6DFF80C90FBE6CDCC4C3D0000C842EA
:105A700000007042019B012B3FF405AF27B148465F
:105A8000A449FEF769F9814624B14846A249FEF7C8
:105A900063F9814600214846FEF706FC00260028EF
:105AA00040F0D08148469D49FEF71CFC08B1DFF864
:105AB0006C924846FEF75CFC994B88F88900DD62E1
:105AC000984B1C68B4F5C87FC0F0B581964B1B7825
:105AD000002B40F08880954B0A981D68DFF85082B3
:105AE00001351D60FEF7EEF9D8F800100746FEF705
:105AF000DBFB10B1079BC8F80030DFF8388238466E
:105B0000D8F80010FEF7EEFB10B1079BC8F8003084
:105B1000DFF824923846D9F80010FEF71FF9C9F8CB
:105B2000000080460B98FEF7CDF9DFF8109207468B
:105B3000D9F80010FEF7B8FB10B1089BC9F8003087
:105B4000DFF8FC913846D9F80010FEF7CBFB10B116
:105B5000089BC9F80030DFF8EC913846D9F80010FE
:105B6000FEF7FCF8C9F80000DFF8DC910746D9F829
:105B700000105846FEF798FB08B1C9F800B0DFF8EE
:105B8000CC915846D9F80010FEF7ACFB08B1C9F823
:105B900000B0DFF8BCA15846DAF80010FEF7DEF8D6
:105BA0006C4BCAF800008146186801301860FEF797
:105BB00085F9824601464046FEF78CFA664B51460F
:105BC00018603846FEF786FA644B5146186048461E
:105BD000FEF780FA624B1860624B1B689D4222BF41
:105BE0000122514B1A70604D2B78002B40F08C80B5
:105BF00042F6E162B4FBF2F302FB1343DFF86C817F
:105C00005B4FA3B95B495C485C4A01605C48C8F8DB
:105C1000001002605B483A6001605B490A605B4AC1
:105C200016605B4A16605B4A16605B4A13600A980E
:105C3000FEF748F9D8F800100646FEF735FB10B11C
:105C4000079BC8F8003030463968FEF74BFB08B1B7
:105C5000079B3B604D4F30463968FEF77FF8386050
:105C600006460B98FEF72EF9DFF80C810746D8F8A8
:105C70000010FEF719FB10B1089BC8F80030DFF8E0
:105C800000813846D8F80010FEF72CFB10B1089BB5
:105C9000C8F80030DFF8F8903846D9F80010FEF761
:105CA0005DF8384F8046C9F8000039685846FEF75D
:105CB000FBFA08B1C7F800B0334F58463968FEF711
:105CC00011FB08B1C7F800B0324F58463968FEF7EB
:105CD00045F8314A386013688146581C1060FEF759
:105CE000EDF8074601463046FEF7F4F92B4B3946EE
:105CF00018604046FEF7EEF9294B394618604846D1
:105D0000FEF7E8F9274B1860274B1B78012B98BF4B
:105D100000234BE00000A040000020410000C842EA
:105D2000F8030020680500206F05002054050020BE
:105D30004C010020480100204405002044010020BF
:105D4000400100203C0500202C01002028010020FB
:105D5000240500204C0500204805002040050020B7
:105D6000280500201C0100206E0500203C010020B9
:105D700038010020286B6E4E34010020286B6ECE57
:105D800030010020240100202001002034050020E3
:105D90002C0500201C05002050050020380500209F
:105DA00030050020200500207405002088BF012355
:105DB0002B7042F6E063B4FBF3F203FB1244002CB9
:105DC00039D1214B21491B6803200B60204B1B68F4
:105DD0004B60204B1B688B601F4B1B68CB601F4BBD
:105DE0001B680B611E4B1B684B611E4B1B688B6154
:105DF0001D4B1B68CB611D4B1B680B621C4B1B684A
:105E00004B621C4B1B688B621B4B1B68CB621B4B92
:105E10001B680B631A4B1B684B631A4B1B688B6325
:105E2000194B1B68CB63194B1B680B64184B1B6821
:105E30004B6402F02DFD174A13680133136015B04F
:105E4000BDE8F08FB14634E64C010020C0040020CC
:105E500048010020480500204401002040010020A6
:105E6000400500202C0100202801002028050020EA
:105E70003C010020380100203805002034010020BA
:105E800030010020300500202401002020010020E6
:105E90002005002068050020F8B540F2C1720023FB
:105EA0004FF49665084C094EC4E90023C4E9023357
:105EB000074F206133463A462146064804F0CAF9A6
:105EC00008B1013DF6D1F8BDE8050020900500209D
:105ED00000060020603C0020FE22064B1A700022C3
:105EE000587008209A70DA701A715A719A71DA71C2
:105EF000FFF7D2BF000600202DE9F74FDFF8C4827C
:105F0000B14F98F800203B68022AB04C40F0A481C1
:105F1000AF4A1278002A40F09F81AE4AAE492BB1B9
:105F2000C820B3FBF0F500FB15331BB110780B78DC
:105F300098423DD00B78A9481370A94A9B0011786C
:105F400003F004030E298CBF00211178A54D9CBFDE
:105F50000131C9B211701278617802F01F020A4350
:105F6000A17842F0A0020B4343F002036270A370D9
:105F700001A943EA02230122019304F0B5FB0323A4
:105F80002B6151234FF49666DFF85C92DFF83CA258
:105F900020702B604B4652462946944804F05AF92B
:105FA00008B1013EF6D10023236063602B612B60B2
:105FB00028223B68B3FBF2F102FB1133002B40F0C7
:105FC000D2808B4B1B785B0640F1CD80894D854E8E
:105FD000EB6D4FF4966923606B6EDFF80CA2636083
:105FE0000823336140F2F163DFF8E0B133605346D8
:105FF0005A4631467D4804F02DF910B1B9F1010936
:10600000F5D12B6A4FF496692360AB6ADFF8D8A10B
:1060100063600823336140F2F263DFF8B0B1714985
:10602000336053465A46714804F014F918B1B9F177
:1060300001096C49F5D16B6A4FF496692360EB6AEC
:10604000DFF8A4A163600823336140F2F363DFF853
:106050007CB16449336053465A46644804F0FAF808
:1060600018B1B9F101095F49F5D1AB6C4FF49669EC
:1060700023602B6CDFF870A163600823336140F26A
:10608000F463DFF848B15749336053465A465748DE
:1060900004F0E0F818B1B9F101095249F5D1EB6CFF
:1060A0004FF4966923602B6DDFF83CA163600823F1
:1060B000336140F2F563DFF814B14A493360534667
:1060C0005A464A4804F0C6F818B1B9F101094549E1
:1060D000F5D16B6D4FF496692360AB6DDFF808A1C5
:1060E00063600823336140F2F663DFF8E0B03D49B6
:1060F000336053465A463D4804F0ACF818B1B9F144
:1061000001093849F5D195F88430DFF8C090237043
:1061100095F88130DFF8CCA0637095F88230A370D9
:1061200095F88630E37095F88730237195F88830BC
:10613000637195F88530A37195F889304FF49665B1
:10614000E3710823336140F2F7633360264E334630
:106150004A465146254804F07DF808B1013DF6D184
:106160000023236063603B6823B1214E33785A06D5
:1061700000F1A68014213B68B3FBF1F201FB12325F
:10618000002A69D1002B67D04FF4FA421A4B1B4901
:106190001B88144DC3EB0323B3FBF2F32370184B9E
:1061A0004FF496661B88DFF84090C3EB0323B3FBE4
:1061B000F2F34CF250326370124BDFF810A01B6800
:1061C00022E000BF5801002094050020D7050020E0
:1061D000590600207E05002072050020C43C0020E6
:1061E000CD0500209805002090050020603C00208F
:1061F000E7050020340400205001002000007F4308
:106200005201002058050020C3EB0323B3FBF2F337
:10621000A370764B1868FDF7A9FE7549FDF75AFF84
:10622000FEF7A6F8734BFF281B7828BFFF202371C9
:1062300005232B614FF4D863E0702B604B46524628
:1062400029466D4804F006F808B1013EF6D1002356
:10625000236063602B612B60684B69491A68694D44
:106260000132C72A1A6088BF01223B6888BF88F8BC
:10627000002001333B600B6801330B602968C82B99
:1062800001F10101296040F299802F215A2002F08A
:1062900051F92B68C82B40F299802F215D2002F024
:1062A00049F9594B1B68322B40F298802F215B2013
:1062B00002F040F900232360636003B0BDE8F08F73
:1062C000524B534D1B884FF4966923701B0A637021
:1062D000504BDFF844A11B88DFF840B1A3701B0AC4
:1062E000E3704F4B1B68636008232B6140F2EF6340
:1062F0002B6053465A4629463F4803F0ABFF10B186
:10630000B9F10109F5D10023236063602B612B6093
:106310003B68002B3FF42EAF33785B067FF52AAF46
:10632000324B4FF496691B68DFF8ECA023603D4BBD
:10633000DFF8E8B01B683649636008232B6140F240
:10634000EE632B6053465A462B4803F083FF18B187
:10635000B9F101092E49F5D10023236063602B6157
:106360002B603B68002B3FF405AF33785E067FF56A
:1063700001AF2D4B4FF496661B68DFF89C901A0A0C
:10638000237062701A0C1B0EE37004232B614FF410
:10639000DE63DFF888A0DFF878B0A2702B604B4690
:1063A00052465946144803F055FF08B1013EF6D154
:1063B0000023236063602B612B60DBE65A2002F030
:1063C00025F82F287FF465AF2E215FE75D2002F0CE
:1063D0001DF82F287FF465AF2E215FE75B2002F0C8
:1063E00015F82F287FF466AF2E2160E718050020EE
:1063F000000011438C060020603C00208C0500202A
:106400008805002084050020800500205001002020
:10641000980500205201002090050020D70500209B
:1064200014050020080500205C05002038B51B4C31
:106430001B4D22462B46012103F05EFF40F2027302
:1064400022689A421ED1174B1A6022691A612A7873
:10645000022A0AD16B783E2B07D1AB782BB91249AF
:106460000B7012490A70124A13600D490D4801F071
:1064700001FA38B90F4A2B6813606B685360012228
:106480000D4B1A700022C4E9022222616260A261EF
:10649000226062612A606A6038BD00BFB0050020DA
:1064A000DF05002020060020CF0500205801002035
:1064B0008C05002062060020790600202DE9F843B3
:1064C000BB4DBC4C2A462346002103F015FF2A6829
:1064D000B2F5DA6F2BD12178B74B1970A1790E295B
:1064E00001D90F211970B5490B78022B40F0828138
:1064F000AB68002B40F07E81B2F5F86F40F07A81F6
:10650000297C2278002900F0FD80F43A0B2A00F261
:106510004D81DFE812F00301BB00A1002B004D000C
:106520004B01430136014B0199008200690040F2A2
:1065300002239A42D7D12368A14903F03F00087093
:10654000A049C3F3831008709F49C3F384200870E7
:106550009E49C3F3C43008709D49C3F305500870C9
:106560009C499B0E0B7021799B4BBBE7042903D8F8
:106570002220FFF7B1FCC5E09848D4F80120D0F8FC
:10658000013097491BBA83F0A53312BA01EBF363CC
:1065900093420BD10022FF21924B027019705A7066
:1065A0009A70DA701A715A719A71F5E02520E0E755
:1065B00003F066F98C4B894A43401E0EC3F3074033
:1065C000C3F30721DBB2137156709070D170854A06
:1065D000FF2713710023177056709070D17053719C
:1065E0009371D37108208BE040F201127F4B802120
:1065F0001A80FF227B4B08201A709970012200211B
:106600005A705971D87018719A71DA71FFF744FC99
:106610002F21612001F08EFF74E00022FF21734BD7
:1066200008201A806F4B19705A709A70DA701A71BC
:106630005A719A71DA71FFF72FFC612001F0E6FEC2
:106640002F285FD12E21E4E7FF22664B1A70674A9C
:1066500052785A700022A3E7062989D96349A378A2
:10666000D4F803208B704A60002B81D1B2F1005F17
:10667000FFF47EAF5E498A423FF47AAFFF21594A68
:10668000117053709370D3701371A8E70129677864
:106690003FF46EAF514A1278002A87D17A1E062A3B
:1066A0003FF666AFDFF8448198F80220002A7FF4B5
:1066B0005FAFD8F80460B6F1005FFFF459AFC6F1E0
:1066C000005202F5A04297423FF652AF454AFF21E1
:1066D00010461170F15C013302F8011FD9B2B942C2
:1066E000F8D307F101095FFA89F9C7F10702002120
:1066F000D2B2484408F078FB48463E44C8F80460EB
:10670000FFF7CAFB0023C5E902332B616B60AB6165
:106710002B606B6123606360BDE8F88307296278B2
:106720007FF626AF2D49097800297FF43FAF511E2F
:1067300006293FF61DAFE17800297FF419AF66689E
:10674000B6F1005FFFF414AFC6F1005101F5A041AE
:106750008A423FF60DAFFF20224908700846F75CD9
:10676000013301F8017FDFB2BA42F8D8561CF6B205
:10677000C2F107020021D2B2304408F035FB3046A6
:10678000BEE7FF22174B1A7000225A709A70DA7017
:106790001A715A719A711022DA7123E701293FF4B4
:1067A000E7AEFF220F4B1A70012252E72020E0E6ED
:1067B000B0050020DF05002057010020580100200F
:1067C000D6050020D5050020D4050020D3050020E3
:1067D000D2050020D1050020D005002010060020A1
:1067E00068245713000600205A5AA5A50806002061
:1067F0000050002040F2FF339A420ED12378424AE3
:1068000013F0600F13703FF47DAF00233F4A137005
:1068100002220A703E4A136074E7972A0CD10022C4
:106820003C4B1A603C4B22781A701B78062B55D9CA
:106830002F215E2001F07EFE2B68502B7FF462AF8B
:106840000022364B66781A6033460822A17806F09B
:106850001F005FB2002F4FEA4303DBB245DB013A72
:1068600012F0FF02F5D108224B405FB2002F4FEA31
:106870004303DBB23CDB013A12F0FF02F5D1284FB3
:106880003A78013202F01F02904234D0013202F015
:106890001F02A2EB000CDCF1000242EB0C0294F8A8
:1068A00000C09C45DFF87CC027D1CB0003F0180363
:1068B00043EA5613162B20D1FAB11B4BC1F38001CA
:1068C000197000233870CCF800305C2001F09EFD78
:1068D0002F287FF417AF2E215C209BE65E2001F06D
:1068E00095FD2F28A8D12E21A3E783F00703B6E753
:1068F00083F00703BFE70122D1E7DCF800303870EE
:106900000133CCF80030E0E7E7050020CF05002098
:106910008C05002084050020CE050020880500207D
:10692000CC0500208005002055010020F8B5074661
:106930000E4602F0A5FF0546154C02F0A1FF2369A3
:10694000401B984201D3002016E02378002BF4D09E
:1069500000232370A37813F00F0310D194F90420BF
:10696000E378002A3B70237904DA0F33DBB2082B7B
:1069700003D8012301203370F8BDA37AFAE7012B75
:1069800003D102F07DFF0546D7E74FF0FF30F3E774
:106990007C0100202DE9F0411446142207468AB0FC
:1069A0009DF840800D460DEB020000211E4608F0C8
:1069B0001BFA0497B8F1000F0DD0082231460DEBF9
:1069C000020008F011FA22462946082402A808F01D
:1069D0003DFA0DEB04050894054C2A46204601AB10
:1069E00004A903F037FC0028F7D10AB0BDE8F08114
:1069F000603C0020054A80F0A53302FB0131044BC6
:106A000000BA0B4480EA7370704700BF795B3D1F8A
:106A10006824571310B500680C4600BA1146FFF7FA
:106A2000E9FF030E2370030C6370030AA370E07088
:106A300010BD000070B51546064688B00C461422FD
:106A4000002103A808F0D0F90695064D02962246CB
:106A5000284601AB02A903F0FDFB0028F7D108B0DE
:106A600070BD00BF603C00200023502010B50D4ACF
:106A70000D4952F8044B0CB941F823000133092B9E
:106A8000F7D10420084901F003FF01230749082238
:106A90000B7044234B70064BBDE810401868013062
:106AA000FFF7C8BFE0010020040200205A060020C2
:106AB0002006002038B5104D104C2B7810490433B7
:106AC00023706B780A6940336370AB780868A370F1
:106AD000EB780130E3700B4B21461B6863600A4B77
:106AE0001A61D2B21860FFF7A5FF0023236063602C
:106AF0002B606B6038BD00BF6A0600205A0600207C
:106B0000200600204C0100203C06002038B5104D26
:106B1000104C2B781049043323706B780A6940338A
:106B20006370AB780868A370EB780130E3700B4BAF
:106B300021461B6863600A4B1A61D2B21860FFF7E6
:106B400079FF0023236063602B606B6038BD00BF5A
:106B50006A0600205A060020200600204801002076
:106B60003C06002038B5104D104C2B7810490433EA
:106B700023706B780A6940336370AB780868A37040
:106B8000EB780130E3700B4B21461B6863600A4BC6
:106B90001A61D2B21860FFF74DFF002323606360D3
:106BA0002B606B6038BD00BF6A0600205A060020CB
:106BB00020060020480500203C06002038B5104D76
:106BC000104C2B781049043323706B780A694033DA
:106BD0006370AB780868A370EB780130E3700B4BFF
:106BE00021461B6863600A4B1A61D2B21860FFF736
:106BF00021FF0023236063602B606B6038BD00BF02
:106C00006A0600205A0600202006002044010020C9
:106C10003C06002038B5104D104C2B781049043339
:106C200023706B780A6940336370AB780868A3708F
:106C3000EB780130E3700B4B21461B6863600A4B15
:106C40001A61D2B21860FFF7F5FE0023236063607B
:106C50002B606B6038BD00BF6A0600205A0600201A
:106C600020060020400100203C06002038B5104DD1
:106C7000104C2B781049043323706B780A69403329
:106C80006370AB780868A370EB780130E3700B4B4E
:106C900021461B6863600A4B1A61D2B21860FFF785
:106CA000C9FE0023236063602B606B6038BD00BFAA
:106CB0006A0600205A060020200600204005002019
:106CC0003C06002038B5104D104C2B781049043389
:106CD00023706B780A6940336370AB780868A370DF
:106CE000EB780130E3700B4B21461B6863600A4B65
:106CF0001A61D2B21860FFF79DFE00232360636023
:106D00002B606B6038BD00BF6A0600205A06002069
:106D1000200600202C0100203C06002038B5104D34
:106D2000104C2B781049043323706B780A69403378
:106D30006370AB780868A370EB780130E3700B4B9D
:106D400021461B6863600A4B1A61D2B21860FFF7D4
:106D500071FE0023236063602B606B6038BD00BF51
:106D60006A0600205A060020200600202801002084
:106D70003C06002038B5104D104C2B7810490433D8
:106D800023706B780A6940336370AB780868A3702E
:106D9000EB780130E3700B4B21461B6863600A4BB4
:106DA0001A61D2B21860FFF745FE002323606360CA
:106DB0002B606B6038BD00BF6A0600205A060020B9
:106DC00020060020280500203C06002038B5104D84
:106DD000104C2B781049043323706B780A694033C8
:106DE0006370AB780868A370EB780130E3700B4BED
:106DF00021461B6863600A4B1A61D2B21860FFF724
:106E000019FE0023236063602B606B6038BD00BFF8
:106E10006A0600205A060020200600203C010020BF
:106E20003C06002038B5104D104C2B781049043327
:106E300023706B780A6940336370AB780868A3707D
:106E4000EB780130E3700B4B21461B6863600A4B03
:106E50001A61D2B21860FFF7EDFD00232360636072
:106E60002B606B6038BD00BF6A0600205A06002008
:106E700020060020380100203C06002038B5104DC7
:106E8000104C2B781049043323706B780A69403317
:106E90006370AB780868A370EB780130E3700B4B3C
:106EA00021461B6863600A4B1A61D2B21860FFF773
:106EB000C1FD0023236063602B606B6038BD00BFA1
:106EC0006A0600205A06002020060020380500200F
:106ED0003C06002038B5104D104C2B781049043377
:106EE00023706B780A6940336370AB780868A370CD
:106EF000EB780130E3700B4B21461B6863600A4B53
:106F00001A61D2B21860FFF795FD00232360636019
:106F10002B606B6038BD00BF6A0600205A06002057
:106F200020060020340100203C06002038B5104D1A
:106F3000104C2B781049043323706B780A69403366
:106F40006370AB780868A370EB780130E3700B4B8B
:106F500021461B6863600A4B1A61D2B21860FFF7C2
:106F600069FD0023236063602B606B6038BD00BF48
:106F70006A0600205A06002020060020300100206A
:106F80003C06002038B5104D104C2B7810490433C6
:106F900023706B780A6940336370AB780868A3701C
:106FA000EB780130E3700B4B21461B6863600A4BA2
:106FB0001A61D2B21860FFF73DFD002323606360C1
:106FC0002B606B6038BD00BF6A0600205A060020A7
:106FD00020060020300500203C06002038B5104D6A
:106FE000104C2B781049043323706B780A694033B6
:106FF0006370AB780868A370EB780130E3700B4BDB
:1070000021461B6863600A4B1A61D2B21860FFF711
:1070100011FD0023236063602B606B6038BD00BFEF
:107020006A0600205A0600202006002024010020C5
:107030003C06002038B5104D104C2B781049043315
:1070400023706B780A6940336370AB780868A3706B
:10705000EB780130E3700B4B21461B6863600A4BF1
:107060001A61D2B21860FFF7E5FC00232360636069
:107070002B606B6038BD00BF6A0600205A060020F6
:1070800020060020200100203C06002038B5104DCD
:10709000104C2B781049043323706B780A69403305
:1070A0006370AB780868A370EB780130E3700B4B2A
:1070B00021461B6863600A4B1A61D2B21860FFF761
:1070C000B9FC0023236063602B606B6038BD00BF98
:1070D0006A0600205A060020200600202005002015
:1070E0003C06002038B5134D134C2B78134901335F
:1070F00023706B780A6940336370AB780868A370BB
:10710000EB780130E3700E4B21461B7823716B79CD
:107110006371AB79A371EB79E3710A4B1A61D2B257
:107120001860FFF787FC0023236063602B606B60AF
:1071300038BD00BF6A0600205A0600202006002045
:10714000720600203C06002038B5124D124C2B78F8
:107150001249013323706B780A6940336370AB784E
:107160000868A370EB780130E370012323716B7919
:1071700021466371AB79A371EB79E371084B1A6116
:10718000D2B21860FFF756FC0023236063602B60C7
:107190006B6038BD6A0600205A06002020060020D9
:1071A0003C06002038B5134D134C2B78134901339E
:1071B00023706B780A6940336370AB780868A370FA
:1071C000EB780130E3700E4B21461B6823716B791D
:1071D0006371AB79A371EB79E3710A4B1A61D2B297
:1071E0001860FFF727FC0023236063602B606B604F
:1071F00038BD00BF6A0600205A0600202006002085
:10720000C04F00203C060020F8B5002502F038FBF6
:10721000194E1A4B96F802C0194A83F800C0194B50
:10722000194C1D70194B84F802C04340C3F307404A
:10723000C3F307211F0EDBB250709170D37017702B
:107240003278617104322270727811494032627072
:1072500020710A690868A3710E4B01301A6121463A
:10726000D2B2E770E5711860FFF7E4FB2560656056
:1072700035607560F8BD00BF6A0600207306002007
:1072800074060020720600205A0600205A5AA5A54E
:10729000200600203C0600202DE9F341224B234D1F
:1072A0001A78234801A9EC7895F804806F79AE79B3
:1072B000FFF7B0FB9DF804206B78A2421D4C2DD146
:1072C0009DF80520424529D19DF80620BA4225D1D6
:1072D0009DF80720B24221D10121174A4033117095
:1072E0000222227000226370AB7800261349A3703B
:1072F0000868134BE2700A6901301A610D49D2B275
:1073000026716671A671E6711860FFF793FB26601F
:1073100066602E606E6002B0BDE8F08103222270CC
:107320007F2262703522E0E7730600206A060020A3
:10733000740600205A060020720600202006002055
:107340003C06002003232DE9F0412C4C2C4D2370EA
:107350007F2363706B78DFF8AC80A3707823E370D1
:107360002B79D8F8102023716B79274F6371AB7993
:10737000D8F80000A371EB793A610130D2B221460E
:10738000E37138601426FFF755FB50221F4B013E76
:1073900016F0FF0643F8042BF9D14FF4F072314692
:1073A0001B4807F021FD0120184901F071FA022065
:1073B000174901F06DFA2B78D8F8102023706B78FC
:1073C000D8F8000040336370AB783A61A370EB7873
:1073D0000130E3702B79094923716B79D2B2637163
:1073E000AB793860A371EB79E371FFF723FB26607B
:1073F00066602E606E60BDE8F08100BF5A06002016
:107400006A060020200600203C0600209001002093
:107410008E06002038B5134D134CEA782B78E270B5
:107420002A79237022716A796B786271AA79403364
:10743000A271EA790D496370E271AB780C4A086871
:107440001370A3700A690B4B01301A612146D2B246
:107450001860FFF7EFFA0023236063602B606B6016
:1074600038BD00BF6A0600205A0600202006002012
:10747000590600203C06002038B5134D134CEA781D
:107480002B78E2702A79237022716A796B786271A5
:10749000AA794033A271EA790D496370E271AB7841
:1074A0000C4A08681370A3700A690B4B01301A610B
:1074B0002146D2B21860FFF7BDFA00232360636053
:1074C0002B606B6038BD00BF6A0600205A060020A2
:1074D00020060020580600203C06002038B5144D38
:1074E000144C2B78013323706B7840336370AB7886
:1074F000A370EB78E370104B1868FCF739FF6B79D9
:107500000E496371AB790A69A371EB792071E3715C
:1075100008680B4B01301A612146D2B21860FFF7A0
:1075200089FA0023236063602B606B6038BD00BF65
:107530006A0600205A060020043D00202006002094
:107540003C06002038B5134D134C2B7813490233F9
:1075500023706B780A6940336370AB780868A37056
:10756000EB780130E3700E4B21461B7823710D4BF5
:107570001B786371AB79A371EB79E3710A4B1A61E4
:10758000D2B21860FFF756FA0023236063602B60C5
:107590006B6038BD6A0600205A06002020060020D5
:1075A000D54F0020D44F00203C06002038B5134DA5
:1075B000134C2B781349043323706B7808684033DD
:1075C0006370AB780130A370EB78E3700E4B1B68EF
:1075D0001A0A237162711A0C1B0EA271E3710A69F7
:1075E0000A4B21461A61D2B21860FFF723FA002332
:1075F000236063602B606B6038BD00BF6A060020AB
:107600005A06002020060020C44F00203C0600201F
:1076100038B5134D134C2B781349043323706B7812
:10762000086840336370AB780130A370EB78E37087
:107630000E4B1B681A0A237162711A0C1B0EA27181
:10764000E3710A690A4B21461A61D2B21860FFF74A
:10765000F1F90023236063602B606B6038BD00BFCD
:107660006A0600205A06002020060020D04F002085
:107670003C06002038B5134D134C2B7813490433C6
:1076800023706B78086840336370AB780130A37067
:10769000EB78E3700E4B1B681A0A237162711A0CA7
:1076A0001B0EA271E3710A690A4B21461A61D2B21C
:1076B0001860FFF7BFF90023236063602B606B60E5
:1076C00038BD00BF6A0600205A06002020060020B0
:1076D000CC4F00203C06002038B5124D124C2B78C0
:1076E000124923706B780A6940336370AB7808687D
:1076F000A370EB780130E3702B79214623716B790D
:107700006371AB79A371EB79E371094B1A61D2B262
:107710001860FFF78FF90023236063602B606B60B4
:1077200038BD00BF6A0600205A060020200600204F
:107730003C06002038B5134D134CEA782B78E270E4
:107740002A79237022716A796B786271AA79403341
:10775000A271EA790D496370E271AB780C4A08684E
:107760001360A3700A690B4B01301A612146D2B233
:107770001860FFF75FF90023236063602B606B6084
:1077800038BD00BF6A0600205A06002020060020EF
:10779000C04F00203C06002038B5174D174CE97942
:1077A0006A791748E171174962710A7002690068C5
:1077B000154901300A61086041F288312B78D2B254
:1077C00023706B7840336370AB78A370EB78E37011
:1077D0002B792371AB79A3714B430521B3FBF1F3F3
:1077E0000A490B602146FFF725F9002323606360F7
:1077F0002B606B6038BD00BF6A0600205A0600206F
:1078000020060020740100203C0600201C060020F9
:1078100038B5134D134C2B781349013323706B7813
:107820000A6940336370AB780868A370EB78013065
:10783000E3700E4B21461B7823716B796371AB7932
:10784000A371EB79E3710A4B1A61D2B21860FFF7AA
:10785000F1F80023236063602B606B6038BD00BFCC
:107860006A0600205A06002020060020720500202B
:107870003C0600200022134B30B51A605A60124BB0
:1078800004461A605A60114B5D7805F0FF00ADB1F7
:10789000A068A0B92468DA6894420FD10A7802F08F
:1078A000F002302A0AD11A783AB90A68C3F80220DD
:1078B0004A68C3F8062001221A70012030BD104624
:1078C000FCE700BF5A0600206A0600207C01002069
:1078D0002DE9F04F0125584F89B0072A88461646F2
:1078E0009DF848A0029300F101093D70D4B216D86A
:1078F0000DF119008DF8184007F0A8FA6219029BE3
:107900004846CDF800A0D2B206A9FFF743F80023FD
:10791000B0FA80F03B70400909B0BDE8F08F4FF03D
:10792000000BC2F3032242F010028DF818200A68FF
:107930008DF81940CDF81A20404C8A886570E060B7
:10794000ADF81E2084F800B008224846CDF800A00B
:1079500006A9FFF71FF828B184F801B087F800B036
:107960000020D9E7A27A8DF8160003900DF11701D7
:107970000DF116008DF81720FEF7D8FF0028039BA5
:1079800002DC63703B70EBE74FF0060B9DF816408E
:107990009DF816307BB174B90DF117010DF1160089
:1079A000FEF7C4FF002804DC244B5C70224B1C70E3
:1079B000D6E79DF81640A6EB0B07072F28BF072731
:1079C00045F02003072202990DF119008DF81830B7
:1079D00007F00AFA3A4608EB0B010DF1190007F01F
:1079E00035FA7A1C4846029BCDF800A0D2B206A90F
:1079F000FEF7D0FF28B10023104A53700E4A1370CF
:107A0000AEE79DF816305F4401351FFA87FB05F09D
:107A10000F0513B10CB1013CE4B29DF8170008B199
:107A200001F034FF5E45B3D80023044A01205370AF
:107A3000014A137070E700BF780600207C01002027
:107A4000712330B500250F4C99B08DF80C30A37818
:107A500048228DF80D30E3780B498DF80E302379EC
:107A600004A88DF80F3007F0F1F9084800952B466F
:107A70004C2203A90068FFF72BFF2560656019B051
:107A800030BD00BF6A060020C00400202006002090
:107A9000432300210122F0B5124893B0124D8DF816
:107AA000083050F8043B502B0FD0531C55F82140A0
:107AB000DBB202F1480648336E44270A02326B44B7
:107AC00006F8407CD2B203F8404C01310929E8D1D4
:107AD00000230648009302A90068FFF7F9FE13B0DF
:107AE000F0BD00BF04020020F0F1000820060020D5
:107AF000472300210122F0B5124893B0124D8DF8B2
:107B0000083050F8043B502B0FD0531C55F821403F
:107B1000DBB202F1480648336E44270A02326B4456
:107B200006F8407CD2B203F8404C01310929E8D173
:107B300000230648009302A90068FFF7C9FE13B0AE
:107B4000F0BD00BF04020020F0F100082006002074
:107B50004A23F0B593B08DF8083001220023144871
:107B6000144D154E50F8041BAF2914D155F82310AD
:107B7000012910D1511C56F82340C9B202F148071F
:107B800048316F444FEA142C0232694407F840CC64
:107B9000D2B201F8404C0133092BE3D1002307484E
:107BA000009302A90068FFF793FE13B0F0BD00BF79
:107BB00004020020E0010020F0F10008200600206F
:107BC00040F259432DE9F041002002221827ADF57B
:107BD000227D1D4D1D4EDFF878C002A90B8055F89F
:107BE000043B502B1BD056F82040230C8B54531CC5
:107BF0004FEA142E9BB201F803E0931C9BB2CC54C5
:107C000007FB00C4D31C9BB20B4404F1180E54F8BC
:107C1000048B744543F8048BF9D11B3292B20130C6
:107C20001428DCD101230B48009300685523FFF78B
:107C30004FFE0023084A13605360084A13605360E4
:107C40000DF5227DBDE8F08190010020A0F1000833
:107C50008E060020200600206A0600205A0600201A
:107C6000F0B51B4D9DB06B78EA7840338DF80C3041
:107C7000AB788DF80E208DF80D3003220023154CC3
:107C8000154F54F8046B502E10D057F8230002F112
:107C90007001694401F8646C060C01F8636C0432ED
:107CA000060A01F8626C01F8610C92B20133142BE0
:107CB000E7D1002409480094234603A90068FFF790
:107CC00007FE074B2C601C605C606C601DB0F0BD53
:107CD0006A06002090010020A0F100082006002084
:107CE0005A060020F8B50323214C224D23707F2330
:107CF00063706B78204FA3707823E3702B791F4E4D
:107D000023716B793A696371AB793868A371EB7948
:107D1000214632610130D2B2E3713060FEF78AFE53
:107D200000F06AFEEA782B78E2702A7923702271DB
:107D30006A796B786271AA794033A271EA796370CB
:107D4000E271AB780E4A386813603A6921463261B5
:107D50000130D2B2A3703060FEF76CFE012001F05A
:107D600095FDBDE8F8400021084601F019BD00BFAF
:107D70005A0600206A060020200600203C0600204B
:107D8000C04F0020032370B50D4C002523707F23C6
:107D900004220C4E0C4963707378E0700868A3707D
:107DA0000A4B0130214625716571A571E5711A6193
:107DB0001860FEF73FFE256065603560756070BD38
:107DC0005A0600206A060020200600203C060020FB
:107DD00030B52A4C93B0A378042B28D00A2B37D087
:107DE000022B45D140F24923ADF8083001238DF82C
:107DF0000A30234B0DF10B0203F1100153F8040B71
:107E00008B4242F8040BF9D11B7813701422002323
:107E10001C480093006802A9FFF75AFD1A4B1A7814
:107E200002F0FF030AB92360636013B030BD40F273
:107E300049430122154D16482946ADF808308DF802
:107E40000A2000F0F5FD2B680722CDF80B30DEE7A5
:107E500040F64923ADF8083001238DF80A300D4B68
:107E60001A889B78ADF80B208DF80D300622CEE7EE
:107E7000122013B0BDE83040FFF784BF6A0600202F
:107E80005C01002020060020780600201506002056
:107E9000FCF700085901002010B5104C6378033B33
:107EA000072B17D8DFE803F0040A16160D16101377
:107EB000FFF7EEFD00232360636010BDFEF7D4FDE5
:107EC000F8E7FFF715FEF5E7FFF782FFF2E7FFF7A8
:107ED0003FFEEFE71120FFF755FFEBE76A060020B2
:107EE00003232DE9F041244C244D23707F2363703C
:107EF0006B784FF00008A3707823E3702B79204F44
:107F000023716B791F4E6371AB793A693868A3713D
:107F1000EB79214632610130D2B2E3713060FEF775
:107F200089FD194B83F80080184B83F8008000F01E
:107F300063FD2B783A6923706B783868403363703F
:107F4000AB782146A370EB783261E3702B79013076
:107F500023716B79D2B26371AB793060A371EB7925
:107F6000E371FEF767FD012001F090FC41464046B9
:107F7000BDE8F04101F014BC5A0600206A0600205A
:107F8000200600203C060020D44F0020D54F0020C2
:107F900070B5154D154C2B78154E043323706B7846
:107FA000214640336370AB78A370EB78E370114BDC
:107FB0001A7822715A78DB7862710F4AE37192F86D
:107FC00006210E4BA27118681A6901303261D2B2D3
:107FD0003060FEF72FFD0023336133602360636060
:107FE0002B606B6070BD00BF6A0600205A0600203F
:107FF0003C0600207501002090080020200600208B
:10800000F8B50026144B154D1E70154B154C1E70FF
:108010002B78154F23706B78214640336370AB7813
:10802000A370EB78E3702B7923716B796371AB7973
:10803000A371EB79E3710D4B1A6918683A6101304D
:10804000D2B23860FEF7F6FC266066602E606E6085
:108050003E613E60F8BD00BF710500206A06002049
:10806000700500205A0600203C0600202006002053
:1080700070B572B67648774C0378774A5BB3774B26
:1080800019682160596861600021196059604FF4D6
:108090007A730170136072490B680BBBFF21714B3F
:1080A000197062B6704E336843B901216F4B196085
:1080B00005216F4B997242F210711961136813B95F
:1080C00001226A4B1A6063785A1E092A0DD8BDE84E
:1080D0007040FFF7E1BE1368002BDCD0013BD9E70D
:1080E000013B0B60002BDCD1D8E7192B04D1A3781E
:1080F000042B09D1FFF764FD6378142B01D1FFF73E
:1081000021F96378192B04D1A378022B13D1FFF73F
:10811000A7FD6378282B05D1544B1B68032B25D171
:10812000FFF778F96378852B05D1504B1B68032B3B
:1081300020D1FFF7A1F96378222B2BD1E3781D2BF7
:108140001CD80BB3013B1C2B1ED8DFE803F0211D0C
:108150002F3235383B1D1D1D3E4144474A4D50537B
:1081600056595C5F6265686B6E7174007F20FFF723
:1081700009FED7E77F20FFF705FEDCE77F2B63D002
:10818000802B5BD07E2B5CD01220FFF7FBFD01E043
:10819000FFF70CFA6378272B71D1A378012B69D0F4
:1081A000A378022B6BD1FFF777F868E0FFF730FA7E
:1081B000F0E7FFF75FFAEDE7FFF7C4F9EAE7FFF74B
:1081C0008DF9E7E7FEF78EFFE4E7FEF773FCE1E7E2
:1081D000FEF79CFCDEE7FEF7C5FCDBE7FEF7EEFCF6
:1081E000D8E7FEF717FDD5E7FEF740FDD2E7FEF72B
:1081F00069FDCFE7FEF792FDCCE7FEF7BBFDC9E7CF
:10820000FEF7E4FDC6E7FEF70DFEC3E7FEF736FE18
:10821000C0E7FEF75FFEBDE7FEF788FEBAE7FEF7B0
:10822000B1FEB7E7FEF7DAFEB4E7FEF703FFB1E70A
:10823000FEF72CFFAEE7FFF7EBFAABE7FFF7A8FE80
:10824000A8E7FEF7AFFFA5E7FEF77EFFA2E700BFB6
:10825000790600206A0600207001002062060020D6
:108260001C0600207401002054060020C04F00208E
:108270007C010020FEF7C8FF6378272B90D03B4D90
:108280002B78012B43D12F21622000F053F9A378E2
:10829000022B0CD1364B1B68032B49D12B78012BB9
:1082A0003CD1344B1B78062B38D1FFF71BFD63788C
:1082B000112B04D1A378012B01D1FFF711FE2279F4
:1082C0006378402A03D1312B09D1FFF799FE6278F8
:1082D0002379312A03D1432B01D1FFF7B1FB237955
:1082E000422B08D16378312B05D1214B1B68032B1E
:1082F00028D1FFF751FA6378102B2CD1A378012BEA
:1083000024D0A378032B2DD1FFF714FA23E06220A9
:1083100000F07CF82F28BAD12E21B5E72B781BB1BD
:10832000144B1B78062BC2D02B782BB9332000E0DE
:108330007F20FFF727FDBAE70E4B1B78062BB6D040
:108340002220F6E77F20FFF71DFDD4E7FFF7F2F9C3
:108350006378102BD5D063783E2B03D1A3780BB96B
:10836000FFF7BAF933680133336070BD720600203D
:10837000C04F0020CE05002013282ED818235843C4
:1083800016490A5A0B1801320A52154A022012786D
:108390009A70144A1278DA70134A12781A71134AD2
:1083A00012785A71124A12789A71124A1278DA7156
:1083B000114A1288A3F80920104A1288A3F80B204A
:1083C0000F4A1268C3F80D200E4A1268C3F8112034
:1083D0000D4A12781A7200F05BBA70478E060020C0
:1083E000D6050020D5050020D4050020D3050020A7
:1083F000D2050020D10500205201002050010020AC
:108400001805002014050020CE0500200023074A8F
:1084100052F8041B814204D00133142BF8D1002000
:108420007047034A12F82300704700BFA0F100080C
:10843000900100200023074A52F8041B814204D017
:108440000133092BF8D100207047034A12F82300AA
:10845000704700BFF0F10008040200202E4B2DE908
:10846000F0410D460024984688B053F8042B824210
:1084700008D00134092CF8D108B0BDE8F081AF2D47
:10848000FAD112E0254B1B78002BF5D1244E56F87B
:108490002470AF42F3D0AF2D46F82450ECD13146D2
:1084A000042000F0F5F946F82450FFB2AF2FE3D0D6
:1084B0001C4B1B78022BDFD11422002103A806F0ED
:1084C00093FC58F82430184C1A0A190E2370627065
:1084D000C3F30542C3F3816363F04303E3700423F2
:1084E0000025069340F2FE7342EA81120F4F104EB0
:1084F0000195A27002932246384601AB02A901F011
:10850000A9FE013510B13368AB42F4D800232370C3
:108510006370A370E370AFE7F0F100085806002025
:1085200004020020580100207E060020603C00204C
:108530009CF10008304B2DE9F0410D46002498468F
:1085400088B053F8042B824208D00134142CF8D19F
:1085500008B0BDE8F0812F2DFAD115E0274B1B782C
:10856000002BF5D1264E56F82470AF42F3D02F2DB4
:1085700046F82450ECD13146012000F089F9E0B2F0
:10858000FFF7FAFE46F82450FFB22F2FE0D01D4B24
:108590001B78022BDCD11422002103A806F024FC56
:1085A00058F82430184C1A0A190E23706270C3F35D
:1085B0000542C3F3816363F04303E37004230025A2
:1085C000069340F2FE7342EA8112104F104E01955D
:1085D000A27002932246384601AB02A901F03AFE8E
:1085E000013510B13368AB42F4D8002323706370B7
:1085F000A370E370ACE700BFA0F1000858060020AC
:1086000090010020580100207A060020603C0020E4
:108610009CF100082DE9F0415D4B1B780F2B78D8B9
:10862000DFE803F0083750848D77777777777777AF
:10863000777777970023574A574E13703478574A05
:10864000136014BB2546564F57F8048B4046FFF77E
:10865000F1FEAF2803D12E214046FFF7FFFE013582
:10866000EDB2092DF0D14F4D55F8047B3846FFF798
:10867000CDFE2F2803D12E213846FFF75BFF0134B2
:10868000E4B2142CF0D1012333700022464B1A704F
:108690003FE000240127414B414E3E4D1C6056F8FF
:1086A000040BFFF7C7FE5230C0B2012804D80C23D8
:1086B0002B7001223C4BEAE70134E4B2092C2F7005
:1086C000EDD1F6E70022354B374D1A602B78012BA0
:1086D0000ED14FF4B270FFF7ADFEAF2808D1AE2136
:1086E0004FF4B270FFF7BAFE2E216420FFF722FF8D
:1086F00000244FF002082A4F264E57F8040BFFF7CC
:1087000099FE5230C0B2012809D80C2333700223DD
:108710002B70264A136801331360BDE8F0810134E1
:10872000E4B2092C86F80080E7D1F0E700221B4B69
:108730001A600323174A13701B4A1370E9E70023DA
:10874000164A1449136004220A7017490A70124A23
:10875000F3E7124C154B22681B687AB9B3F5FA6F30
:108760000CD92360AF214FF4B270FFF777FE2F21B1
:108770006420FFF7DFFE0023236003E09B1AB3F5BC
:10878000FA6FEFD30F22084B1A700C22014B7EE7D1
:10879000570100208C06002082060020840600205D
:1087A000F0F10008A0F100088D06002088060020E6
:1087B0000068704702464FF000630649184603F50B
:1087C00080639A4201D2824202D28B42F6D10020CB
:1087D000704700BF0000020813B50C48FFF7EAFF1E
:1087E000044602F05BF90023094801A90360012354
:1087F0008460C36002F002FA044618B102F06AF91C
:1088000002B010BD02F05CF92046F9E7003800081C
:108810008008002013B50C48FFF7CCFF044602F097
:108820003DF90023094801A9036002238460C36065
:1088300002F0E4F9044618B102F04CF902B010BDA0
:1088400002F03EF92046F9E700F800087008002021
:1088500070B50C460646154602F020F904EB850576
:10886000361BAC4204EB060103D102F029F90024C7
:108870000CE00023022054F8042B02F05BF90028DE
:10888000EFD002F027F9044602F01AF9204670BD35
:108890002DE9F04F431E042B0F4685B043D8002925
:1088A00041D072B600224FF0FF33CDE902230C23F2
:1088B00003FB00F4DFF8D8B0364E3BF804803648AE
:1088C0004FEA98084246356801F00EFF3BF8043045
:1088D00005F110021344314A3149934281460BEBB2
:1088E000040A214422D2022228460835FFF7B0FFAD
:1088F000424639462846CAF80450FFF7A9FF3BF81C
:10890000044002222C44204602A90834CDF80890E5
:10891000FFF79EFF34603368224A93422DD2012232
:10892000214B1A6062B605B0BDE8F08F01231F4DE0
:1089300001912B6000F03CF833680199022218463F
:108940000193FFF785FF019B4246083339461846DD
:10895000CAF804300193FFF77BFF019B3BF804400A
:1089600002221C44204602A9CDF80890FFF770FFB0
:108970000223083434602B60CDE703F17843A3F57C
:108980007C43B3F5806FCDD20222074BC9E700BF0D
:10899000B40900204C0A0020C43C0020FFFF00085E
:1089A000FC09002000FC0008440A0020480A0020BE
:1089B00037B572B6FFF72EFF4FF0B6330B4C0C48AD
:1089C00002226946CDE900332060FFF741FF2368AA
:1089D000084D08332360012455F83410A0B2013447
:1089E000FFF756FF062CF7D103B030BD4C0A00202C
:1089F00000F800085802002070B572B60024094D36
:108A0000094E15F8013B012B04D156F83410A0B2E1
:108A1000FFF73EFF0134062CF3D10222034B1A70FC
:108A200062B670BD1803002058020020B309002070
:108A300001EB8202401A914200D17047435841F83D
:108A4000043BF8E72DE9F84FBE4C48222146BE48CA
:108A5000FFF7EEFF94F82131BC49AA2BBC4ABD4B6D
:108A600040F042822046FFF7A3FE1860201DFFF76A
:108A70009FFE086004F10800FFF79AFEB64B1860ED
:108A800004F10C00FFF794FEB44B186004F11000E1
:108A9000FFF78EFEB24B186004F11400FFF788FE5A
:108AA000B04B186004F11800FFF782FEAE4B18605F
:108AB00004F11C00FFF77CFEAC4B186004F12000B1
:108AC000FFF776FEAA4B186004F12400FFF770FE52
:108AD000A84B186004F12800FFF76AFEA64B186047
:108AE00004F12C00FFF764FEA44B186004F1300081
:108AF000FFF75EFEA24B186004F13400FFF758FE4A
:108B0000A04B186004F13800FFF752FE9E4B18602E
:108B100004F13C00FFF74CFE106004F14000FFF749
:108B200047FE9A4B186004F14400FFF741FE984B52
:108B3000186004F14800FFF73BFE964B186004F103
:108B40004C00FFF735FE944B186004F15000FFF71E
:108B50002FFE924B186004F15400FFF729FE904B52
:108B6000186004F15800FFF723FE8E4B186004F1E3
:108B70005C00FFF71DFE8C4B186004F16000FFF7EE
:108B800017FE8A4B186004F16400FFF711FE884B52
:108B9000186004F16800FFF70BFE864B186004F1C3
:108BA0006C00FFF705FE844B186004F17000FFF7BE
:108BB000FFFD824B186004F17400FFF7F9FD804B54
:108BC000186004F17800FFF7F3FD7E4B186004F1A4
:108BD0007C00FFF7EDFD7C4B186004F18000FFF78F
:108BE000E7FD7A4B186004F18400FFF7E1FD784B54
:108BF000186004F18800FFF7DBFD764B186004F184
:108C00008C00FFF7D5FD744B186004F19000FFF75E
:108C1000CFFD724B186004F19400FFF7C9FD704B53
:108C2000186004F19800FFF7C3FD6E4B186004F163
:108C30009C00FFF7BDFD6C4B186004F1A000FFF72E
:108C4000B7FD6A4B186004F1A400FFF7B1FD684B53
:108C5000186004F1A800FFF7ABFD664B186004F143
:108C6000AC00FFF7A5FD644B186004F1B000FFF7FE
:108C70009FFD624B186004F1B400FFF799FD604B53
:108C8000186004F1B800FFF793FD5E4B186004F123
:108C9000BC00FFF78DFD5C4B186004F1C000FFF7CE
:108CA00087FD5A4B186004F1C400FFF781FD584B53
:108CB000186004F1C800FFF77BFD564B186004F103
:108CC000CC00FFF775FD544B186004F1D000FFF79E
:108CD0006FFD524B186004F1D400FFF769FD504B53
:108CE000186004F1D800FFF763FD4E4B186004F1E3
:108CF000DC00FFF75DFD4C4B186004F1E000FFF76E
:108D000057FD4A4B186004F1E400FFF751FD484B52
:108D1000186004F1E800FFF74BFD464B186004F1C2
:108D2000EC00FFF745FD444B186004F1F000FFF73D
:108D30003FFD424B186004F1F400FFF739FD404B52
:108D400018607FE09008002000380008180100201B
:108D5000140100201C010020F4000020D800002095
:108D6000D0000020CC000020F8000020F0000020FF
:108D7000EC000020E8000020E4000020E0000020DB
:108D8000DC000020D4000020B400002010010020EE
:108D90000C01002008010020040100200001002037
:108DA000FC000020B80000205C000020C80000206B
:108DB000C4000020C0000020BC000020B000002043
:108DC000AC000020A8000020A4000020A00000208B
:108DD0009C000020980000209400002090000020BB
:108DE0008C000020880000208400002080000020EB
:108DF0007C0000207800002074000020700000201B
:108E00006C0000206800002064000020600000204A
:108E10005800002054000020500000204C0000208A
:108E20004800002044000020400000203C000020BA
:108E30003800002034000020300000202C000020EA
:108E40002800002004F1F800FFF7B2FC1C4B18606A
:108E500004F1FC00FFF7ACFC1A4B186004F58070BD
:108E6000FFF7A6FC184B186004F58270FFF7A0FC12
:108E7000164B186004F58470FFF79AFC144B1860C9
:108E800004F58670FFF794FC124B186004F58870A7
:108E9000FFF78EFC104B186004F58A70FFF788FC12
:108EA0000E4B186004F58C70FFF782FC0C4B1860B9
:108EB00004F58E70FFF77CFC0A4B1860BDE8F88F54
:108EC00024000020200000201C00002018000020AA
:108ED00014000020100000200C00002008000020DA
:108EE00004000020000000204FF4FA601860BF4B1F
:108EF00014250B60FA210D2616274FF0500C4FF069
:108F00000A0E4FF055084FF0BE094FF4966B1160F2
:108F100041F6F42144F23030B54ADFF8D8A21560AA
:108F20004FF42F75B44A166040F6E446B34A176012
:108F300040F6FF77B24AC2F800C0B24ADFF8C8C2B2
:108F4000C2F800E040F66E7EB04AC2F80080B04A37
:108F5000DFF8C082C2F80090AF4ADFF8C092C2F8D2
:108F600000A0AF4ADFF8BCA2C2F800B0AE4ADFF8FA
:108F7000BCB21160AE4AAF491060AF4AC82015605C
:108F800043F22C05AD4A166041F27836AC4A1760C0
:108F9000AC4AAD4FC2F800C0AC4ADFF8B4C2C2F868
:108FA00000E0AC4ADFF8B0E21360AC4A1760AC4AAC
:108FB0001160AC4AAC491160AC4AAD490A60AD4998
:108FC0000A60AD4AAD491560AD4A1060AD4A166001
:108FD000AD4A1160AD4AAE491160AE4AAE4911606A
:108FE000AE4AAF491160AF4AAF491160AF4AB049CC
:108FF0001160B04AB0491160B04AB1491160B14A3C
:10900000B149C2F80080B14AC2F800C0B04A11604C
:10901000B04AB1491160B14AB1491160B14AB2498F
:109020001160B24AB2491160B24AB34911604FF0BF
:109030007E52B2490A60B2490A60B249C1F800E002
:10904000B149C9F80010DFF8C492CAF80090DFF8FF
:10905000C0A2CAF800B0DFF8BCA2DFF8BCB2CAF800
:1090600000B0DFF8B8A2DFF8B8B2CAF800B0DFF895
:10907000B4A2CAF80090DFF8B092DFF8B0A2CAF844
:109080000090DFF8ACA2CAF80010DFF8A8A2CAF876
:109090000080DFF8A482DFF8A4A2CAF80080DFF81D
:1090A000A0A2CAF80020DFF89CA2CAF800E0DFF80E
:1090B00098E2DFF898A2CEF800A0DFF894E2DFF89B
:1090C00094A2CEF800A0DFF890E2CEF800C04FF0F6
:1090D0007A5EDFF888C2CCF80020A14ADFF884C2AB
:1090E000CCF80020DFF880C2CCF80020DFF87CC28A
:1090F000CCF800E063602361BE23A3614FF4966364
:10910000E36141F6F423236244F2303363624FF4A7
:109110002F73A36240F6E443E36240F6FF732363D8
:1091200040F66E736363FA23E363142323640D2311
:1091300063641623A3645023E3640A23DFF830C278
:109140002365CCF800108B49DFF82CC2C1F80080F1
:109150008A495523C1F8009089496365C1F800C068
:109160008849DFF824C2334BC1F800C08749236621
:109170000A604FF4FA623C4B22601E4A6366A260AA
:109180003A4B214A6761E260A663A565E065A36684
:10919000E3663A4B254F23673D4B1E48636703F157
:1091A0007F4303F5C93303F23313A3673C4B2A4EC5
:1091B000E3673D4B5549C4F880303D4BC4F8C4705B
:1091C000C4F884303C4BA7F53327C4F8883003F14A
:1091D0007D4303F5190303F26763C4F88C303A4BFF
:1091E000494AC4F898303C4BD2E000BF209B0800AD
:1091F00010010020A00302000C0100200801002043
:10920000040100200001002078630100FC00002020
:10921000F80000206666663FF4000020640000202D
:10922000F000002060000020EC000020CDCC3C418C
:10923000E80000205C8F0241E4000020E0000020F4
:10924000DC000020D8000020E0800300D4000020D3
:1092500017B7D138D00000200000C842CC00002051
:10926000C8000020C4000020A470AF417B1402415C
:10927000C0000020BC000020B80000200000E04139
:109280005C000020B4000020B0000020AC000020F2
:1092900000009344A800002033939443A4000020CE
:1092A00000C0B244A00000209A9989409C00002090
:1092B0000000C841980000203393884394000020A8
:1092C0009A992141900000205C8F7E418C00002003
:1092D0008800002084000020CD4C1944800000202C
:1092E000000080BF7C0000200000B4427800002015
:1092F0000000A0427400002000009A42700000208C
:109300006C00002068000020CDCCCC3D0AD7A33CE7
:1093100058000020540000209A993141500000204C
:109320009A9919414C000020CDCC4C3D48000020BA
:109330004400002040000020CDCC4C3E3C000020EA
:109340003800002034000020300000208FC2753C1F
:109350002C0000208FC2753D280000202400002032
:109360009A99993E200000201C000020180000203F
:1093700014000020100000209A99193E0C000020D3
:1093800008000020040000203333B33E000000201A
:109390003A4DC4F89C303A4BC4F89000C4F8A03061
:1093A000384BC4F8B860C4F8A430A3F5A013C4F8CF
:1093B000A830A3F5C023C4F8AC304FF07E53C4F8F6
:1093C000C010C4F8D010C4F8DC002F492F48C4F8EE
:1093D000E860A7F233372E4EC4F8C870A7F5C0175F
:1093E000C4F8D410C4F89450C4F8B030C4F8B43001
:1093F000C4F8BC20C4F8D820C4F8E000C4F8E430B5
:10940000C4F8CC70C4F8EC60C4F8F830A3F5660377
:10941000A3F5CC43663BC4F8FC30C4F80031C4F873
:109420001C31AA23C4F8F45084F821314FF07A5546
:109430002023C4F8082102F5990202F599424D3221
:10944000C4F8142102F1991202F5194206F180764E
:10945000C4F81011C4F81821C4F8F060C4F804511D
:10946000C4F80C0184F82031FFF7B6F92146BDE8B5
:10947000F84F48220748FFF7EBB900BF17B7D138BC
:10948000000080BF0000B442CDCC4C3DCDCC4C3E62
:109490008FC2753C003800082DE9F04186B072B6E5
:1094A00000232E4DCDE901332C682D4B002C3ED1ED
:1094B0002B6002222A4801A9FFF7BAFA019B029AFF
:1094C000B3F1B63F39D1B2F1B63F39D1244C254E74
:1094D000254FDFF898800222304603A9FFF7A8FA4B
:1094E0009DF80C20052A24D80C23534317F803C0F9
:1094F00006F10801944507EB030E11D1BDF80E00EB
:10950000BEF8022082420BD11948C41800F803C0EB
:1095100018486280C252C418103261609419214602
:1095200001F110034345296003D80E46D3E79C425E
:10953000BFD02C6006B0BDE8F0811340013301D0EC
:10954000FFF768F94FF0B6330222054801A9CDE9CB
:109550000133044CFFF77CF9EBE700BF4C0A002015
:1095600000F8000808F80008D00200201EFE0008DD
:10957000FC090020B40900202DE9F74F72B6002342
:1095800001264FF00C0ACDE90033294DFFF784FF87
:10959000DFF8A090284A294C174617F80C3F04F131
:1095A0000C08013BDBB2FD2B34D8D389FF2B31D023
:1095B00083B3A289A96820699208FFF739FAB4F841
:1095C0000CB02069022269465844FFF731FAA968B5
:1095D0001B484FEA9B0201F087F8009B834209D0A9
:1095E000D9F80810A289A86805F030FCA968B0B2C3
:1095F000FFF74EF90136062E3A46444605F10805B6
:1096000009F10809C8D102220E4B1A7062B603B0E4
:10961000BDE8F08F0AFB06F30B4A9A1807CA87E8E1
:1096200007000A4A134493E8070088E80700D7E7D1
:109630005802002028020020FC090020B409002064
:10964000C43C0020B2090020D00200208802002083
:1096500073B5404C404B227801211A703F4A404874
:109660001368404D053313603F4A404E136805337D
:10967000136001F01DFC3E4A3E4B117830701970AA
:10968000517859709178D2789970DA702B6833B923
:10969000394B1B78D3B12F215720FEF74BFF33787E
:1096A000364A012B07D0364B1B78022B03D0354BA3
:1096B0001B78012B11D101232370C8231360324A78
:1096C00013602B6801332B6002B070BD5720FEF78A
:1096D0009DFE2F28E3D12E21DEE713682BB1013B3D
