:020000040800F2
:103C0000804F0020D994000849E8000855E80008D2
:103C100061E800086DE8000879E80008000000008D
:103C2000000000000000000000000000B1D6000805
:103C300085E800080000000041D7000885D700088B
:103C40002195000887E800082195000821950008C3
:103C500099E800089DE800082195000821950008D2
:103C6000219500082195000821950008A1E8000889
:103C7000219500082195000821950008219500084C
:103C80002195000821950008ADE80008B9E8000872
:103C9000C5E80008C9E80008CDE80008219500083B
:103CA000D1E80008DDE80008E1E80008E5E80008E0
:103CB00021950008E9E8000801E9000821950008BD
:103CC00021950008219500082195000821950008FC
:103CD00021950008219500082195000821950008EC
:103CE000219500082195000821950008000000009A
:103CF00000000000000000000000000000000000C4
:0C3D000000000000000000005FF808F167
:103D100010B5054C237833B9044B13B10448AFF305
:103D200000800123237010BD180300200000000054
:103D3000F4ED000808B5034B1BB103490348AFF38A
:103D4000008008BD000000001C030020F4ED000806
:103D500080F0004002E000BF81F0004142001FBF40
:103D60005FEA410392EA030F7FEA226C7FEA236C49
:103D70006AD04FEA1262D2EB1363C1BFD21841403E
:103D800048404140B8BF5B42192B88BF704710F0D4
:103D9000004F40F4000020F07F4018BF404211F077
:103DA000004F41F4000121F07F4118BF494292EADF
:103DB000030F3FD0A2F1010241FA03FC10EB0C000B
:103DC000C3F1200301FA03F100F0004302D5494298
:103DD00060EB4000B0F5000F13D3B0F1807F06D345
:103DE00040084FEA310102F10102FE2A51D2B1F13D
:103DF000004F40EBC25008BF20F0010040EA030032
:103E00007047490040EB0000013A28BFB0F5000FB1
:103E1000EDD2B0FA80FCACF1080CB2EB0C0200FA67
:103E20000CF0AABF00EBC25052421843BCBFD040B6
:103E30001843704792F0000F81F4000106BF80F430
:103E400000000132013BB5E74FEA41037FEA226CF3
:103E500018BF7FEA236C21D092EA030F04D092F0BE
:103E6000000F08BF0846704790EA010F1CBF0020F2
:103E7000704712F07F4F04D1400028BF40F000404F
:103E8000704712F100723CBF00F50000704700F06F
:103E9000004343F0FE4040F4000070477FEA226296
:103EA00016BF08467FEA23630146420206BF5FEA67
:103EB000412390EA010F40F4800070474FF0000367
:103EC00004E000BF10F0004348BF40425FEA000C2E
:103ED00008BF704743F0964301464FF000001CE0D6
:103EE00050EA010208BF70474FF000030AE000BF2C
:103EF00050EA010208BF704711F0004302D540426A
:103F000061EB41015FEA010C02BF844601460020DB
:103F100043F0B64308BFA3F18053A3F50003BCFAF6
:103F20008CF2083AA3EBC25310DB01FA02FC6344A3
:103F300000FA02FCC2F12002BCF1004F20FA02F2AA
:103F400043EB020008BF20F00100704702F120029D
:103F500001FA02FCC2F1200250EA4C0021FA02F2FE
:103F600043EB020008BF20EADC7070474FF0FF0C03
:103F70001CEAD0521EBF1CEAD15392EA0C0F93EAFE
:103F80000C0F6FD01A4480EA010C400218BF5FEAA0
:103F900041211ED04FF0006343EA501043EA511113
:103FA000A0FB01310CF00040B1F5000F3EBF49000D
:103FB00041EAD3715B0040EA010062F17F02FD2A11
:103FC0001DD8B3F1004F40EBC25008BF20F00100F4
:103FD000704790F0000F0CF0004C08BF49024CEA0B
:103FE000502040EA51207F3AC2BFD2F1FF0340EA9D
:103FF000C250704740F400004FF00003013A5DDC0E
:1040000012F1190FDCBF00F000407047C2F100024E
:10401000410021FA02F1C2F1200200FA02FC5FEA3B
:10402000310040F1000053EA4C0308BF20EADC7085
:10403000704792F0000F00F0004C02BF400010F4F7
:10404000000F013AF9D040EA0C0093F0000F01F0A4
:10405000004C02BF490011F4000F013BF9D041EAC6
:104060000C018FE70CEAD15392EA0C0F18BF93EAC8
:104070000C0F0AD030F0004C18BF31F0004CD8D1F2
:1040800080EA010000F00040704790F0000F17BF79
:1040900090F0004F084691F0000F91F0004F14D0BF
:1040A00092EA0C0F01D142020FD193EA0C0F03D117
:1040B0004B0218BF084608D180EA010000F000401A
:1040C00040F0FE4040F40000704740F0FE4040F4F5
:1040D000400070474FF0FF0C1CEAD0521EBF1CEA94
:1040E000D15392EA0C0F93EA0C0F69D0A2EB0302B2
:1040F00080EA010C49024FEA402037D04FF080534C
:1041000043EA111143EA10130CF000408B4238BF10
:104110005B0042F17D024FF4000C8B4224BF5B1A1E
:1041200040EA0C00B3EB510F24BFA3EB510340EA6C
:104130005C00B3EB910F24BFA3EB910340EA9C001A
:10414000B3EBD10F24BFA3EBD10340EADC001B018A
:1041500018BF5FEA1C1CE0D1FD2A3FF650AF8B422E
:1041600040EBC25008BF20F0010070470CF0004C3B
:104170004CEA50207F32C2BFD2F1FF0340EAC25066
:10418000704740F400004FF00003013A37E792F027
:10419000000F00F0004C02BF400010F4000F013A85
:1041A000F9D040EA0C0093F0000F01F0004C02BF80
:1041B000490011F4000F013BF9D041EA0C0195E7E9
:1041C0000CEAD15392EA0C0F08D142027FF47DAF82
:1041D00093EA0C0F7FF470AF084676E793EA0C0F72
:1041E00004D14B023FF44CAF08466EE730F0004C70
:1041F00018BF31F0004CCAD130F000427FF45CAF00
:1042000031F000437FF43CAF5FE700BF4FF0FF3C6D
:1042100006E000BF4FF0010C02E000BF4FF0010CC0
:104220004DF804CD4FEA40024FEA41037FEA226C89
:1042300018BF7FEA236C11D001B052EA530C18BFAB
:1042400090EA010F58BFB2EB030088BFC81738BF10
:104250006FEAE17018BF40F0010070477FEA226CFE
:1042600002D15FEA402C05D17FEA236CE4D15FEAFA
:10427000412CE1D05DF8040B704700BF844608462E
:104280006146FFE70FB5FFF7C9FF002848BF10F1EF
:10429000000F0FBD4DF808EDFFF7F4FF0CBF012034
:1042A00000205DF808FB00BF4DF808EDFFF7EAFFBE
:1042B00034BF012000205DF808FB00BF4DF808ED79
:1042C000FFF7E0FF94BF012000205DF808FB00BF6E
:1042D0004DF808EDFFF7D2FF94BF012000205DF8F4
:1042E00008FB00BF4DF808EDFFF7C8FF34BF012001
:1042F00000205DF808FB00BF4FEA40024FEA41038F
:104300007FEA226C02D15FEA402C08D17FEA236C5D
:1043100002D15FEA412C02D14FF0000070474FF00C
:10432000010070474FEA4002B2F1FE4F0FD34FF049
:104330009E03B3EB12620DD94FEA002343F0004312
:1043400010F0004F23FA02F018BF404270474FF0C0
:104350000000704712F1610F01D1420205D110F047
:10436000004008BF6FF0004070474FF000007047FA
:1043700042000ED2B2F1FE4F0BD34FF09E03B3EBCF
:10438000126209D44FEA002343F0004323FA02F0FB
:1043900070474FF00000704712F1610F01D14202E7
:1043A00002D14FF0FF3070474FF00000704700BF60
:1043B000F8B5204B04461E681F4B014630461D6869
:1043C000FFF786FF40BB1D4B21461F683846FFF7AD
:1043D00075FF18BB31462046FFF7BEFC2946044650
:1043E0001748FFF7B9FC01462046FFF7BFFD3146ED
:1043F00004463846FFF7B0FC01462046FFF76AFE48
:1044000001460F48FFF7A8FC044629462046FFF75F
:104410004BFF20B12C460AE0094CF6E72C46094B2D
:1044200020461D682946FFF75DFF0028F2D120468F
:10443000F8BD00BF30000020380000202C00002014
:104440000000C842340000202DE9F8432149054608
:10445000FFF734FF002838D128461F49FFF738FFFF
:104460000446002833D11D4E56F8047B28463946B1
:10447000A1460134FFF72CFF28B3D6F80080284668
:104480004146FFF711FFF0B1154B53F8296053F87F
:1044900024003146FFF760FC394604462846FFF702
:1044A0005BFC01462046FFF761FD39460446404665
:1044B000FFF752FC01462046FFF70CFE3146FFF79E
:1044C0004DFCBDE8F8830C2CCED10020F9E705485F
:1044D000F7E700BF0000284100004C4140EE000813
:1044E0000CEE00080000C84210B516490446FFF75C
:1044F000E5FED0B920461449FFF7E0FEB8B92046E2
:104500001249FFF7DBFEA0B920461149FFF7D6FE9E
:1045100088B920460F49FFF7D1FE70B920460E49F1
:10452000FFF7CCFE58B10D4810BD0D48FCE70D4813
:10453000FAE70D48F8E70D48F6E70D48F4E70D48AF
:10454000F2E700BF33332B4166662E4133333341EC
:1045500000003841CDCC3C41000040410000B44255
:1045600000000C420000344200005C420000824225
:104570000000A0420000C8422DE9F04FA34BA44A1E
:104580001B881268A34E9342A34DA44ADFF8908281
:10459000DFF89092A44C95B0C0F0D38131688B4283
:1045A0004FF00003136000F2D5812B6088F80030D3
:1045B00089F800300A22954B9C4E1B8803EB83033D
:1045C000B3FBF2F39A4A13809A4A11689A4A8B42D3
:1045D000157894BF0020581A002D40F0F1810B444B
:1045E00031888B4201D801231370944B1B78012B27
:1045F0000ED06BB1924B1B78012B09D043B1914B7C
:104600001B78012B04D0904B1B785D1E6B426B41D5
:104610008E4A98F8000013708D4A92F800E08D4A97
:1046200015788D4A012D92F800B099F8002003D03A
:10463000012A01D0012802D1012788490F70884939
:104640000F78002F40F0D881012B00F0C2810022AA
:10465000844D854F2A703A780B70844B012A197863
:104660000DD14A1E022A0AD8814A1078042802D0A5
:104670001278062A03D100227E483A7002707C4AE2
:10468000107888421CBF12781A707B4B7B4AD3F893
:1046900000A010685146FFF707FE8346002800F08F
:1046A000C381DFF8DCB12368DBF80020002A40F08A
:1046B000A781CBF80030734B734AD3F800A0106881
:1046C0005146FFF70FFE8346002800F0E081DFF837
:1046D000BCB12368DBF80020002A40F0C881CBF889
:1046E00000305B4B1B78012B06D1694A23681168A7
:1046F000002940F0F081136099F80030012B03D0BD
:1047000098F80030012B01D100232B70614BDFF8AA
:1047100088911B78012B04BF00222A7099F8002091
:10472000012A544A09D14A4938780978014301BF1E
:10473000107889F80010411C11705848017801293F
:1047400006D139780B4301BF117803704B1C1370ED
:10475000534B12781B689A4205D101232F21542014
:104760003B7003F0ADFD3B780BB100232B70394853
:104770000378012B4B4B40F0CD8100222C49378828
:1047800009882A708F42C0F0C5811F682168002FF8
:1047900040F0AB8119602A4B93F80080424B1A78A5
:1047A000424518BF83F800803A4B1F783B4B1A787C
:1047B000BA4218BF1F70264B99F800201B789A4206
:1047C00018BF89F80030B8F1010F16D1DFF8DCA06E
:1047D000374B9AF800001B68DFF8D8909842D9F858
:1047E00000B080F09A81344B01308AF800005946BD
:1047F0001868FFF7B3FAC9F80000304BDFF8C0A023
:10480000D3F800B02F4B58465EE000BF50010020A7
:10481000EC000020E800002070030020740300205A
:10482000F6040020F5040020E804002052010020D6
:10483000EC04002014010020F2040020600100209C
:1048400055010020A4020020FC0400205401002097
:10485000F7040020F8040020FD0400206E0300206F
:104860006D03002056010020F00400206C0300209E
:104870004E050020F1040020980400207C00002058
:10488000680300208C0400208000002064030020C6
:1048900060030020F90400205D0300205C03002079
:1048A0000C01002058030020550300205403002071
:1048B000100100205003002094040020B0000020CC
:1048C000480300204C0300201968DAF80090019199
:1048D000FFF7EAFC002800F02F81002F40F02C8128
:1048E000B8F1010F019940F027810846FFF73EFB20
:1048F000594680465846FFF739FB01464046FFF7C8
:104900002BFAA449FFF7E6FB4946FFF727FACAF856
:104910000000FFF72DFDA04B1860A04BD3F80090CE
:104920009F4B48461968FFF7DDFC8046002800F0E1
:104930005B8101232F219B4A1370532003F0C0FC9D
:104940005DE11168236851B91360974B1A88336889
:104950009A4233D92A682368C2B92B602AE6934A5F
:104960005B1A1268934207D901232F2188F800307F
:10497000502003F0A5FCE8E70023502088F8003021
:1049800003F08AFC2F28E0D12E21F1E79B1A874AF9
:104990001268934207D901232F2189F80030512052
:1049A00003F08EFC06E60023512089F8003003F066
:1049B00073FC2F287FF4FEAD2E21F0E70023CCE717
:1049C000012D7FF412AE338883423FF60EAE0023F2
:1049D0000AE6DFF8DCC18CF800704EEA050E4BEAFF
:1049E0000E0B42EA0B0202437FF431AE704A12789A
:1049F000B2FA82F252092BE6012B7FF428AEECE7E3
:104A00009B1A6A4A126893427FF655AE01214FF015
:104A1000000A684A582011702F2185F800A003F081
:104A20004FFCCBF800A046E6634A50461168FFF7FA
:104A30003BFC00283FF43FAEDFF880A12268DAF8A3
:104A40000010521A594909688A427FF634AE594A11
:104A5000582082F800B003F01FFC2F2803D12E212C
:104A6000582003F02DFC0022CAF8002023E69B1AF0
:104A70004E4A126893427FF634AE0123504A2F21EA
:104A8000592013702B7003F01BFC002327E65046BF
:104A90004C49FFF727FC00283FF423AEDFF828A19C
:104AA0002268DAF8001011B9CAF8002019E6521A83
:104AB0003E4909688A427FF614AE414A592082F87D
:104AC00000B003F0E9FB2F2803D12E21592003F079
:104AD000F7FB0022E8E75B1A3C4909688B427FF646
:104AE0000BAE00233A490B7005E6C91B2F4F3F68F8
:104AF000B9427FF650AE3749027056200A601A60FC
:104B000003F0CAFB2F287FF446AE2E21562003F077
:104B1000D7FB40E600221A603DE6FFF7D3F90146D5
:104B20005846FFF7D7FA2C4B186000238AF800305C
:104B30000023C9F8003060E6284B22681B68B2FBEE
:104B4000F3F103FB1128B8F1000F7FF4E6AE244B1C
:104B5000DFF848B01868FFF7B1F94946FFF706FAE1
:104B60002049FFF7B7FACBF800008246FFF700FCB8
:104B7000DFF824904FF07E51C9F800005046FFF74F
:104B800093FB00283FF4C9AE0023C9F80080CBF89E
:104B90000030C2E600002041DC0400204803002071
:104BA000AC000020F9040020500100200401002086
:104BB0006E030020FD040020780000206803002020
:104BC000FC040020CDCCCCBD64030020F800002004
:104BD000F7040020E40400204C0300201001002012
:104BE000FC0000200000C84200214846FFF752FBAD
:104BF000002861D0012F5FD1804B83F800802B7893
:104C00007F4F012B5FD03B780BB901233B7097F8A6
:104C10000080B8F1000F09D07A4A106800285DD1F1
:104C200023681360784A1360784A1360784F3B78A2
:104C3000012B40F00581DFF8DC91DFF8DC81D9F849
:104C40000020D8F80000A2F114012268121A914243
:104C500012D8724A3188126891424FF00002C0F0B7
:104C6000C0806F4B55201A7003F016FB2F2803D11C
:104C70002E21552003F024FBD9F800202368D8F812
:104C800000100E3A5B1A9A4200F2EB80654B3288B4
:104C90001B88A3F57A73934200F2A8800023604A30
:104CA0005520137003F0F8FA2F2840F0DA802E21F7
:104CB000552003F005FBD4E0532003F0EDFA2F2834
:104CC0009DD12E2139E600234E4A3B7013604E4A97
:104CD00013604E4A1360544A137098E7B8F1020FFC
:104CE0002CD0B8F1030F53D0B8F1010F9ED14D4B2A
:104CF0003288198823681B1A4C48006883420BD3FA
:104D0000914293D82F21522003F0DAFA02233B700C
:104D1000454B83F8008089E7914287D9022300221E
:104D20003B70414B52201A7003F0B6FA2F287FF4E3
:104D30007DAF2E21522003F0C3FA77E70A223C4BC5
:104D400031481B88006803EB4303B3FBF2F322688E
:104D50003188121A37480068824208D38B423FF7E5
:104D600065AF2F215F2003F0ABFA0323CFE78B421F
:104D70007FF75CAF032300223B702B4B5F201A7040
:104D800003F08AFA2F287FF451AF2E215F20D2E75B
:104D9000294B1E481A680068236831881B1A274867
:104DA000006883420CD39142FFF440AF2F21602072
:104DB00003F086FA1C4B83F8008004233B7035E730
:104DC0009142BFF433AF042300223B70164B6020A6
:104DD0001A7003F061FA2F287FF428AF2E2160208B
:104DE000A9E70F492A700B702F2142E701230C4AD3
:104DF0002F21137000232B705AE700BFF904002005
:104E0000F304002044030020400300203C03002062
:104E1000FB04002008010020E0040020E400002042
:104E2000F7040020EC040020FA040020F400002025
:104E300050010020CC000020F0000020D000002015
:104E4000022B0ED1994B197801290AD1984B1A8857
:104E500033889A42974A00F2B981002396490B7031
:104E6000136040F20222954B2D781B68012D5A6386
:104E700040F0D4813A782368002A40F0B981904A02
:104E8000116841B913608F4A022113602A463D70B0
:104E90008D4805F083FE8D4B1B8818460A93FFF75B
:104EA0000DF88B490790FFF715F9338802901846E3
:104EB0000B93FFF703F886490890FFF70BF9854B32
:104EC0000546D3F800B0844B1B680693834B1B78D0
:104ED000002B71D1824C029B266C2360E360069B01
:104EE000606020617F493046C4F808B0C4F814B04F
:104EF0006364FFF7D9F920B930467B49FFF7F2F92F
:104F000010B17A4B1B682364266A00213046FFF7F4
:104F1000CBF920B930467649FFF7E4F918B1029889
:104F2000FFF792FA2062734B266A1C68724B214687
:104F300030461F68FFF7B8F938B939463046FFF7F1
:104F4000D1F9002800F07B813C46654E029834621E
:104F50007462FFF779FAB062306CFFF729FA64499E
:104F600030637163F062FFF7B5F80699FEF7FEFF54
:104F70004FF07E510746FFF797F908B14FF07E5783
:104F80000023B764B76B00213846C6F88030A6F816
:104F90008430FFF789F920B938465849FFF7A2F95C
:104FA00020B10023B363002386F83C304B4B029AB8
:104FB000DC629A6201221A60494F029BFC683B60E6
:104FC000069B21467B644E4B7D601E680298C7F8A5
:104FD00008B0FEF7C1FE3146FEF7C8FF2146FEF7D6
:104FE000BDFED7F8108004464146F8602846FEF71B
:104FF000B3FE3146FEF7BAFF4146FEF7AFFE7D69CC
:105000000646294638615846FEF7A6FE3D4B19680C
:10501000FEF7ACFF2946FEF7A1FE21467861054662
:105020003046FEF799FE97F883302C4EB861002B7E
:1050300040F00F81344B1968FFF74AF9002800F05F
:105040000681324AF36812689342C0F0FA80012266
:10505000234B83F8832000233361214A92F8833065
:1050600003931E4B0398D97881420FD000215961D8
:10507000A2F88410002800F00481002099611863D0
:105080001962D0649065154B039ADA70204BD3F8FF
:1050900000A0204B50461968FEF760FE0F4B0746F4
:1050A0005E780AF10049022E3DD135E0F40400207B
:1050B000EC040020E4040020F8040020F83E002066
:1050C00038030020E0040020000C014050010020C3
:1050D00000007A449404002074000020780300202B
:1050E000B40300206F12833A9A99993E3000002051
:1050F0000000C8426C000020680000200000A041B1
:105100004C0000204800002018000020040100206E
:10511000240000201C00002049462846FFF7CEF856
:10512000002840F0E580284607F10041FFF7C6F867
:10513000002840F0AF80012E06D151462846FFF7E7
:10514000C7F8002840F0D48039462846FFF7C0F859
:10515000003818BF0120864200F0CA80674A937861
:10516000834200F09980012390709360634B5B78D9
:105170000193019A624B911E83F880204A424A4172
:1051800083F88120019A501E4242424183F88220D6
:105190005C4B1E68039B002B40F0188300212846BF
:1051A000FFF782F8002800F0A68005F100413046A4
:1051B000FFF78EF8002800F00983504B5F69002F3D
:1051C00040F0B28001229C625A61C8E010682368F6
:1051D00000283FF445AE4C4A1B1A126893427FF6F2
:1051E00040AE4A4B5620197000232F212B7060E5EA
:1051F000012A7FF450AE464801685B1A45490968A8
:105200008B4204D3002202210260397040E601394A
:105210008B42FFF440AE4FF4806139E6002D7FF4FD
:105220003AAE3D4B2A461D60394B02211D603B4B77
:105230003B483D701D6005F0B1FC2A46EBE7344663
:1052400083E601339A42F3603FF607AFFFE6F06072
:1052500003E7344B1968FFF731F880B12A4A336904
:105260001268934205D30023254AF36082F8833005
:10527000F3E601339A4233613FF6EFAEF3E7306174
:10528000EBE603990398D9610021586259631165CF
:105290005165F8E602205EE71B49936809688B4276
:1052A00012D302284FF0000314D100261449936151
:1052B00016631362CE648E65A1F8843053610F4B80
:1052C000587000229A6051E70133994293603FF68B
:1052D0004DAFE6E70128094A07D100260849D36106
:1052E000566353620E654E65E6E753619462E6E7E6
:1052F000024B9E70E5E7294659E700BF780300207E
:10530000B40300200000002004010020F804002065
:105310003803002008010020E4040020E0040020FD
:10532000000C014014000020996A2046FEF714FD8D
:1053300000210646FEF7B8FF08B106F10046AE4B65
:105340003146D3F80080AD4B1868FEF7C1FFAC4B77
:1053500000283FF437AF474501D201375F61A84AC3
:10536000A54E51693668A74BB14293F83C0080F0D6
:105370001A82002283F88420DFF88882D8F840302F
:1053800018460C93FFF714F898F83C3006460F9334
:1053900098F8843005930F9B002B00F01F82D8F8FB
:1053A0003800FFF7A1F8074639463046C8F83060A4
:1053B000C8F83470FEF778FF00B13746914E384692
:1053C0009149F762FEF786FE0699FEF7CFFD4FF092
:1053D0007E510746FEF768FF08B14FF07E575146F1
:1053E0002846B764FEF774FF002800F0FF8151469D
:1053F0002846FEF7B1FC064649462846FEF75EFF02
:10540000002800F0F581514605F10040FEF7A4FCAC
:10541000049004993046FEF79FFC7C491290049852
:10542000FEF7A4FD794910903046FEF79FFD784BBA
:105430000D901B68109819460E93FEF797FD0D9975
:105440001390FEF789FCDFF8BC816F491190FEF7DD
:105450008DFD3946FEF73EFED8F82410FEF77EFC9F
:105460006C4A074613686C4A1946D2F800900993B3
:10547000FEF71AFF002840F0BE8149463846FEF785
:1054800031FF00B14F46059BC8F82470002B00F097
:10549000B4810122204688F88520C8F81C40FEF718
:1054A000D3FF3946C8F82800FEF756FC5B4A11685E
:1054B000FEF75CFD3946FEF751FCC8F82400DFF822
:1054C00044A10998DAF824502946FEF70BFF00287A
:1054D00040F0C38129464846FEF7E6FE00B14D463E
:1054E000019BCAF82450012BCAF820500DD1DFF8D7
:1054F000109199F8043043B1494B30461968FEF7D2
:10550000D3FE0746002800F0AA810023454ADFF8B1
:10551000F4901360D9F8403018460993FEF748FF1D
:105520000F9B0746002B00F0C881D9F83800FEF722
:10553000DBFF804641463846C9F83070C9F83480F0
:10554000FEF7B2FE00B1B8462E4F2F494046C7F8CD
:105550002C80FEF7BFFD0699FEF708FD4FF07E5147
:105560008146FEF7A1FE08B14FF07E591399F86D00
:10557000C7F84890FEF7F2FB0D99F865786EFEF7D4
:10558000EDFB11997866F86EFEF7E8FB1099F86666
:105590002046FEF7EBFC0E99FEF7E8FC396EFEF7AD
:1055A000DDFB0D9938662046FEF7E0FC0146B86E3B
:1055B000FEF7D4FB1199B8662046FEF7D7FC0146EA
:1055C000386FFEF7CBFB002138670498FEF78AFEA0
:1055D000A8B3DFF82CA00498DAF83010FEF7BEFB71
:1055E000CAF830000390DAF820000130CAF8200031
:1055F000FEF764FC18E000BF5C00002060000020A3
:1056000078030020B40300200000C842DC69BA35EA
:10561000400000206C000020680000203C000020BA
:105620001000002034030020039A01461046FEF7C4
:1056300051FDDAF81820F8640132CAF81820002168
:105640003046FEF74FFEA8B1A04F3046796BFEF70B
:1056500085FB78630390786A01307862FEF72EFC50
:10566000039B01461846FEF735FD994B1865FB690B
:105670000133FB6112992046FEF778FC944F00211C
:1056800078670498FEF72EFE002800F04781204638
:105690000499FEF76BFCB86700213046FEF722FE46
:1056A000002800F03D8131462046FEF75FFC019B5B
:1056B000874F012BF86740F03881D7F850A0854913
:1056C0005046FEF70FFE002800F02C818249284644
:1056D000FEF700FD4946FEF749FC5146FEF7FAFC8D
:1056E000786500207A4B7D4998654046FEF7E6FDD7
:1056F000002840F03C81059B3BB1794B204619685E
:10570000FEF7DCFD002840F0328128467549FEF79F
:10571000D5FD071E18BF0127DFF8B481059B88F867
:1057200086703BB1704B20461968FEF7C7FD002814
:1057300040F01F814FF082412846FEF7BFFD041E56
:1057400018BF0124694B0298196888F88740FEF752
:10575000B5FD30B130466649FEF7C4FD003818BFCC
:1057600001205B4B83F88800059B002B40F00381F0
:10577000DFF8809160490998FEF7AAFD48B15F49BA
:105780000998FEF79BFD20B148465D49FEF7E6FA11
:105790008146019B022B40F0F78048465949FEF7AD
:1057A000DDFA8146F4E00121946383F884101171DD
:1057B00030B12046996BFEF777FD00283FF4DCAD51
:1057C0000122434B9C6383F83C20D5E500233F4AEC
:1057D000536194623E4A82F88430CDE5059B1BB14B
:1057E000039B0BB92046DCE53B4FDDE5002603E6D5
:1057F000002304930DE6099F45E6059B88F8853054
:10580000019B002B7FF45BAE00212846FEF74CFD88
:1058100008B105F100453C495046FEF79FFA29467C
:10582000FEF756FD00283FF44AAE384B4FF07A5150
:105830001868FEF79BFBDFF898A005463946DAF8B2
:105840002800FEF789FA01462846FEF78FFB394605
:10585000FEF784FACAF8240031E6099D40E62C4B95
:105860002C4A1B681268934201D201334EE621464E
:10587000D9F83800FEF770FA3146FEF72BFC1E49C6
:105880008046FEF725FD00283FF43FAE40461B4909
:10589000FEF714FD00283FF438AE0C994046FEF7A1
:1058A0005BFA1D4B1968FEF761FB0C99FEF756FA7F
:1058B00089F80470CAF8400027E6059B1BB1039BDA
:1058C0000BB9204633E6DFF8108033E6780300207A
:1058D000B4030020CDCC4C3D0000C8420000824201
:1058E000580000200000A04154000020500000207B
:1058F0000000A04000000C426F12833A9A99993E32
:105900000000704100002041CDCCCC3D3C00002087
:105910003403002004010020440000200020BAE6E7
:105920000020C4E600237B65DBE600237B65019B4A
:10593000022B7FF4D6AEFF6C10493846FEF7D2FC3E
:1059400000283FF4CEAE29460D48FEF705FA0C4973
:10595000FEF7C0FB4946FEF709FB394681460E9823
:10596000FEF704FB01464846FEF7B4FBBAE6012702
:10597000D2E60124E6E6DFF80C90FBE6CDCC4C3D08
:105980000000C84200007042019B012B3FF405AFAC
:1059900027B14846A449FEF7DFF9814624B14846BD
:1059A000A249FEF7D9F9814600214846FEF77CFC62
:1059B0000026002840F0D08148469D49FEF792FC21
:1059C00008B1DFF86C924846FEF7D2FC994B88F894
:1059D0008900DD62984B1C68B4F5C87FC0F0B581C2
:1059E000964B1B78002B40F08880954B0A981D68D9
:1059F000DFF8508201351D60FEF764FAD8F8001018
:105A00000746FEF751FC10B1079BC8F80030DFF8DD
:105A100038823846D8F80010FEF764FC10B1079BB6
:105A2000C8F80030DFF824923846D9F80010FEF7A5
:105A300095F9C9F8000080460B98FEF743FADFF8A5
:105A400010920746D9F80010FEF72EFC10B1089B03
:105A5000C9F80030DFF8FC913846D9F80010FEF79D
:105A600041FC10B1089BC9F80030DFF8EC913846D2
:105A7000D9F80010FEF772F9C9F80000DFF8DC91E0
:105A80000746D9F800105846FEF70EFC08B1C9F8D1
:105A900000B0DFF8CC915846D9F80010FEF722FC90
:105AA00008B1C9F800B0DFF8BCA15846DAF8001018
:105AB000FEF754F96C4BCAF80000814618680130B3
:105AC0001860FEF7FBF9824601464046FEF702FBEE
:105AD000664B514618603846FEF7FCFA644B514657
:105AE00018604846FEF7F6FA624B1860624B1B6876
:105AF0009D4222BF0122514B1A70604D2B78002B22
:105B000040F08C8042F6E162B4FBF2F302FB1343F7
:105B1000DFF86C815B4FA3B95B495C485C4A01606C
:105B20005C48C8F8001002605B483A6001605B495D
:105B30000A605B4A16605B4A16605B4A16605B4A05
:105B400013600A98FEF7BEF9D8F800100646FEF773
:105B5000ABFB10B1079BC8F8003030463968FEF740
:105B6000C1FB08B1079B3B604D4F30463968FEF7DB
:105B7000F5F8386006460B98FEF7A4F9DFF80C81BB
:105B80000746D8F80010FEF78FFB10B1089BC8F845
:105B90000030DFF800813846D8F80010FEF7A2FB8D
:105BA00010B1089BC8F80030DFF8F8903846D9F8F3
:105BB0000010FEF7D3F8384F8046C9F80000396866
:105BC0005846FEF771FB08B1C7F800B0334F58468E
:105BD0003968FEF787FB08B1C7F800B0324F584666
:105BE0003968FEF7BBF8314A386013688146581CA3
:105BF0001060FEF763F9074601463046FEF76AFA81
:105C00002B4B394618604046FEF764FA294B39465B
:105C100018604846FEF75EFA274B1860274B1B7842
:105C2000012B98BF00234BE00000A0400000204162
:105C30000000C84278030020E8040020EF040020A0
:105C4000D40400204C01002048010020C40400209E
:105C50004401002040010020BC0400202C01002051
:105C600028010020A4040020CC040020C804002047
:105C7000C0040020A80400201C010020EE04002025
:105C80003C01002038010020286B6E4E34010020BA
:105C9000286B6ECE3001002024010020200100205E
:105CA000B4040020AC0400209C040020D004002098
:105CB000B8040020B0040020A0040020F404002058
:105CC00088BF01232B7042F6E063B4FBF3F203FBC1
:105CD0001244002C39D1214B21491B6803200B6051
:105CE000204B1B684B60204B1B688B601F4B1B6855
:105CF000CB601F4B1B680B611E4B1B684B611E4B1F
:105D00001B688B611D4B1B68CB611D4B1B680B62B5
:105D10001C4B1B684B621C4B1B688B621B4B1B682C
:105D2000CB621B4B1B680B631A4B1B684B631A4BF4
:105D30001B688B63194B1B68CB63194B1B680B6487
:105D4000184B1B684B6402F013FC174A13680133AD
:105D5000136015B0BDE8F08FB14634E64C01002069
:105D60004004002048010020C80400204401002015
:105D700040010020C00400202C0100202801002048
:105D8000A80400203C01002038010020B8040020B5
:105D90003401002030010020B00400202401002044
:105DA00020010020A0040020E8040020F8B540F203
:105DB000C17200234FF49665084C094EC4E90023D4
:105DC000C4E90233074F206133463A46214606486C
:105DD00004F0B0F808B1013DF6D1F8BD6805002027
:105DE0001005002080050020C83B0020FE22064B45
:105DF0001A700022587008209A70DA701A715A715D
:105E00009A71DA71FFF7D2BF800500202DE9F74FB4
:105E1000DFF8C482B14F98F800203B68022AB04CEA
:105E200040F0A481AF4A1278002A40F09F81AE4A28
:105E3000AE492BB1C820B3FBF0F500FB15331BB105
:105E400010780B7898423DD00B78A9481370A94A76
:105E50009B00117803F004030E298CBF00211178F8
:105E6000A54D9CBF0131C9B211701278617802F062
:105E70001F020A43A17842F0A0020B4343F0020341
:105E80006270A37001A943EA02230122019304F086
:105E90009BFA03232B6151234FF49666DFF85C9243
:105EA000DFF83CA220702B604B46524629469448AE
:105EB00004F040F808B1013EF6D10023236063608E
:105EC0002B612B6028223B68B3FBF2F102FB1133FC
:105ED000002B40F0D2808B4B1B785B0640F1CD80CD
:105EE000894D854EEB6D4FF4966923606B6EDFF83C
:105EF0000CA263600823336140F2F163DFF8E0B184
:105F0000336053465A4631467D4804F013F810B1C9
:105F1000B9F10109F5D12B6A4FF496692360AB6A98
:105F2000DFF8D8A163600823336140F2F263DFF841
:105F3000B0B17149336053465A46714803F0FAFFD5
:105F400018B1B9F101096C49F5D16B6A4FF4966942
:105F50002360EB6ADFF8A4A163600823336140F299
:105F6000F363DFF87CB16449336053465A466448B2
:105F700003F0E0FF18B1B9F101095F49F5D1AB6C4D
:105F80004FF4966923602B6CDFF870A163600823DF
:105F9000336140F2F463DFF848B157493360534648
:105FA0005A46574803F0C6FF18B1B9F101095249E2
:105FB000F5D1EB6C4FF4966923602B6DDFF83CA1B3
:105FC00063600823336140F2F563DFF814B14A4996
:105FD000336053465A464A4803F0ACFF18B1B9F152
:105FE00001094549F5D16B6D4FF496692360AB6D9E
:105FF000DFF808A163600823336140F2F663DFF83D
:10600000E0B03D49336053465A463D4803F092FFA5
:1060100018B1B9F101093849F5D195F88430DFF8A4
:10602000C090237095F88130DFF8CCA0637095F8AC
:106030008230A37095F88630E37095F8873023712D
:1060400095F88830637195F88530A37195F889309B
:106050004FF49665E3710823336140F2F7633360D0
:10606000264E33464A465146254803F063FF08B1A1
:10607000013DF6D10023236063603B6823B1214ECC
:1060800033785A0600F1A68014213B68B3FBF1F285
:1060900001FB1232002A69D1002B67D04FF4FA427B
:1060A0001A4B1B491B88144DC3EB0323B3FBF2F3BC
:1060B0002370184B4FF496661B88DFF84090C3EBB3
:1060C0000323B3FBF2F34CF250326370124BDFF850
:1060D00010A01B6822E000BF58010020140500201A
:1060E00057050020D5050020FE040020F204002002
:1060F0002C3C00204D050020180500201005002034
:10610000C83B002067050020B40300205001002098
:1061100000007F4352010020D8040020C3EB03237A
:10612000B3FBF2F3A370764B1868FDF71FFF7549B8
:10613000FDF7D0FFFEF71CF9734BFF281B7828BF33
:10614000FF20237105232B614FF4D863E0702B608F
:106150004B46524629466D4803F0ECFE08B1013E1D
:10616000F6D10023236063602B612B60684B694983
:106170001A68694D0132C72A1A6088BF01223B683C
:1061800088BF88F8002001333B600B6801330B6047
:106190002968C82B01F10101296040F299802F2163
:1061A0005A2002F08DF82B68C82B40F299802F21DD
:1061B0005D2002F085F8594B1B68322B40F2988025
:1061C0002F215B2002F07CF800232360636003B082
:1061D000BDE8F08F524B534D1B884FF496692370E6
:1061E0001B0A6370504BDFF844A11B88DFF840B1F5
:1061F000A3701B0AE3704F4B1B68636008232B617D
:1062000040F2EF632B6053465A4629463F4803F05D
:1062100091FE10B1B9F10109F5D10023236063604B
:106220002B612B603B68002B3FF42EAF33785B066D
:106230007FF52AAF324B4FF496691B68DFF8ECA06C
:1062400023603D4BDFF8E8B01B68364963600823E4
:106250002B6140F2EE632B6053465A462B4803F005
:1062600069FE18B1B9F101092E49F5D10023236067
:1062700063602B612B603B68002B3FF405AF3378E4
:106280005E067FF501AF2D4B4FF496661B68DFF875
:106290009C901A0A237062701A0C1B0EE370042380
:1062A0002B614FF4DE63DFF888A0DFF878B0A270CE
:1062B0002B604B4652465946144803F03BFE08B14A
:1062C000013EF6D10023236063602B612B60DBE687
:1062D0005A2001F0E1FF2F287FF465AF2E215FE700
:1062E0005D2001F0D9FF2F287FF465AF2E215FE7F5
:1062F0005B2001F0D1FF2F287FF466AF2E2160E7ED
:10630000980400200000114304060020C83B002030
:106310000C050020080500200405002000050020D1
:106320005001002018050020520100201005002017
:10633000570500209404002088040020DC0400207D
:1063400038B51B4C1B4D22462B46012103F044FE61
:1063500040F2027322689A421ED1174B1A602269DA
:106360001A612A78022A0AD16B783E2B07D1AB78C2
:106370002BB912490B7012490A70124A13600D4969
:106380000D4801F021FA38B90F4A2B6813606B6889
:10639000536001220D4B1A700022C4E902222261CF
:1063A0006260A261226062612A606A6038BD00BFDB
:1063B000300500205F0500209C0500204F050020CF
:1063C000580100200C050020DE050020F505002006
:1063D0002DE9F843BB4DBC4C2A462346002103F06F
:1063E000FBFD2A68B2F5DA6F2BD12178B74B197013
:1063F000A1790E2901D90F211970B5490B78022B0B
:1064000040F08281AB68002B40F07E81B2F5F86FDE
:1064100040F07A81297C2278002900F0FD80F43A4E
:106420000B2A00F24D81DFE812F00301BB00A1004E
:106430002B004D004B01430136014B0199008200B6
:10644000690040F202239A42D7D12368A14903F0A0
:106450003F000870A049C3F3831008709F49C3F33D
:10646000842008709E49C3F3C43008709D49C3F36B
:10647000055008709C499B0E0B7021799B4BBBE724
:10648000042903D82220FFF7B1FCC5E09848D4F8CE
:106490000120D0F8013097491BBA83F0A53312BA16
:1064A00001EBF36393420BD10022FF21924B027068
:1064B00019705A709A70DA701A715A719A71F5E0FF
:1064C0002520E0E703F04CF88C4B894A43401E0E30
:1064D000C3F30740C3F30721DBB21371567090700A
:1064E000D170854AFF271371002317705670907082
:1064F000D17053719371D37108208BE040F2011277
:106500007F4B80211A80FF227B4B08201A709970E4
:10651000012200215A705971D87018719A71DA717C
:10652000FFF744FC2F21612001F0CAFE74E0002235
:10653000FF21734B08201A806F4B19705A709A70A4
:10654000DA701A715A719A71DA71FFF72FFC6120B3
:1065500001F0A2FE2F285FD12E21E4E7FF22664B37
:106560001A70674A52785A700022A3E7062989D91F
:106570006349A378D4F803208B704A60002B81D143
:10658000B2F1005FFFF47EAF5E498A423FF47AAF1A
:10659000FF21594A117053709370D3701371A8E79B
:1065A000012967783FF46EAF514A1278002A87D1EB
:1065B0007A1E062A3FF666AFDFF8448198F802207B
:1065C000002A7FF45FAFD8F80460B6F1005FFFF4F3
:1065D00059AFC6F1005202F5A04297423FF652AFC2
:1065E000454AFF2110461170F15C013302F8011F8A
:1065F000D9B2B942F8D307F101095FFA89F9C7F1B5
:1066000007020021D2B2484408F05AFA48463E44F4
:10661000C8F80460FFF7CAFB0023C5E902332B6109
:106620006B60AB612B606B6123606360BDE8F883D6
:10663000072962787FF626AF2D49097800297FF473
:106640003FAF511E06293FF61DAFE17800297FF4C8
:1066500019AF6668B6F1005FFFF414AFC6F10051E0
:1066600001F5A0418A423FF60DAFFF202249087094
:106670000846F75C013301F8017FDFB2BA42F8D86F
:10668000561CF6B2C2F107020021D2B2304408F023
:1066900017FA3046BEE7FF22174B1A7000225A70D5
:1066A0009A70DA701A715A719A711022DA7123E7AE
:1066B00001293FF4E7AEFF220F4B1A70012252E787
:1066C0002020E0E6300500205F0500205701002073
:1066D00058010020560500205505002054050020D3
:1066E00053050020520500205105002050050020D0
:1066F0009005002068245713800500205A5AA5A54C
:10670000880500200050002040F2FF339A420ED14D
:106710002378424A13F0600F13703FF47DAF0023DB
:106720003F4A137002220A703E4A136074E7972AA8
:106730000CD100223C4B1A603C4B22781A701B781B
:10674000062B55D92F215E2001F0BAFD2B68502B66
:106750007FF462AF0022364B66781A603346082217
:10676000A17806F01F005FB2002F4FEA4303DBB2AF
:1067700045DB013A12F0FF02F5D108224B405FB22F
:10678000002F4FEA4303DBB23CDB013A12F0FF0279
:10679000F5D1284F3A78013202F01F02904234D0EE
:1067A000013202F01F02A2EB000CDCF1000242EB0E
:1067B0000C0294F800C09C45DFF87CC027D1CB00C8
:1067C00003F0180343EA5613162B20D1FAB11B4BE2
:1067D000C1F38001197000233870CCF800305C20C0
:1067E00001F05AFD2F287FF417AF2E215C209BE685
:1067F0005E2001F051FD2F28A8D12E21A3E783F0C0
:106800000703B6E783F00703BFE70122D1E7DCF80F
:10681000003038700133CCF80030E0E76705002025
:106820004F0500200C050020040500204E05002027
:10683000080500204C05002000050020550100201F
:10684000F8B507460E4602F08BFE0546154C02F0E1
:1068500087FE2369401B984201D3002016E023786D
:10686000002BF4D000232370A37813F00F0310D172
:1068700094F90420E378002A3B70237904DA0F337B
:10688000DBB2082B03D8012301203370F8BDA37AB3
:10689000FAE7012B03D102F063FE0546D7E74FF07C
:1068A000FF30F3E7680100202DE9F041144614227F
:1068B00007468AB09DF840800D460DEB020000218E
:1068C0001E4608F0FDF80497B8F1000F0DD008221D
:1068D00031460DEB020008F0F3F822462946082461
:1068E00002A808F01FF90DEB04050894054C2A4690
:1068F000204601AB04A903F01DFB0028F7D10AB024
:10690000BDE8F081C83B00200B8810B59C1CB4F595
:10691000207F09D8140AC4540B88184442700120FF
:106920000B8802330B8010BD0020FCE738B504460D
:106930001D46FFF7E9FF18B12A462046FFF7E4FF9E
:1069400000F0010038BD70B505461E46FFF7DCFFBC
:1069500058B10B881A1DB2F5207F97BF0120002087
:10696000EE500B889CBF04330B8070BD70B505469C
:106970001E46FFF7C9FF58B10B885A1CB2F5207F9D
:1069800097BF01200020EE540B889CBF01330B8081
:1069900070BD0000054A80F0A53302FB0131044BB5
:1069A00000BA0B4480EA7370704700BF795B3D1FEB
:1069B0006824571310B500680C4600BA1146FFF75B
:1069C000E9FF030E2370030C6370030AA370E070E9
:1069D00010BD000070B51546064688B00C4614225E
:1069E000002103A808F06CF80695064D0296224691
:1069F000284601AB02A903F09DFA0028F7D108B0A0
:106A000070BD00BFC83B002038B5104D104C2B782E
:106A10001049043323706B780A6940336370AB7894
:106A20000868A370EB780130E3700B4B21461B68BC
:106A300063600A4B1A61D2B21860FFF7CBFF0023E4
:106A4000236063602B606B6038BD00BFE6050020EB
:106A5000D60500209C0500204C010020B805002030
:106A600038B5104D104C2B781049043323706B78D7
:106A70000A6940336370AB780868A370EB78013023
:106A8000E3700B4B21461B6863600A4B1A61D2B25C
:106A90001860FFF79FFF0023236063602B606B602B
:106AA00038BD00BFE6050020D60500209C0500206B
:106AB00048010020B805002038B5104D104C2B7847
:106AC0001049043323706B780A6940336370AB78E4
:106AD0000868A370EB780130E3700B4B21461B680C
:106AE00063600A4B1A61D2B21860FFF773FF00238C
:106AF000236063602B606B6038BD00BFE60500203B
:106B0000D60500209C050020C8040020B805002000
:106B100038B5104D104C2B781049043323706B7826
:106B20000A6940336370AB780868A370EB78013072
:106B3000E3700B4B21461B6863600A4B1A61D2B2AB
:106B40001860FFF747FF0023236063602B606B60D2
:106B500038BD00BFE6050020D60500209C050020BA
:106B600044010020B805002038B5104D104C2B789A
:106B70001049043323706B780A6940336370AB7833
:106B80000868A370EB780130E3700B4B21461B685B
:106B900063600A4B1A61D2B21860FFF71BFF002333
:106BA000236063602B606B6038BD00BFE60500208A
:106BB000D60500209C05002040010020B8050020DB
:106BC00038B5104D104C2B781049043323706B7876
:106BD0000A6940336370AB780868A370EB780130C2
:106BE000E3700B4B21461B6863600A4B1A61D2B2FB
:106BF0001860FFF7EFFE0023236063602B606B607B
:106C000038BD00BFE6050020D60500209C05002009
:106C1000C0040020B805002038B5104D104C2B786A
:106C20001049043323706B780A6940336370AB7882
:106C30000868A370EB780130E3700B4B21461B68AA
:106C400063600A4B1A61D2B21860FFF7C3FE0023DB
:106C5000236063602B606B6038BD00BFE6050020D9
:106C6000D60500209C0500202C010020B80500203E
:106C700038B5104D104C2B781049043323706B78C5
:106C80000A6940336370AB780868A370EB78013011
:106C9000E3700B4B21461B6863600A4B1A61D2B24A
:106CA0001860FFF797FE0023236063602B606B6022
:106CB00038BD00BFE6050020D60500209C05002059
:106CC00028010020B805002038B5104D104C2B7855
:106CD0001049043323706B780A6940336370AB78D2
:106CE0000868A370EB780130E3700B4B21461B68FA
:106CF00063600A4B1A61D2B21860FFF76BFE002383
:106D0000236063602B606B6038BD00BFE605002028
:106D1000D60500209C050020A8040020B80500200E
:106D200038B5104D104C2B781049043323706B7814
:106D30000A6940336370AB780868A370EB78013060
:106D4000E3700B4B21461B6863600A4B1A61D2B299
:106D50001860FFF73FFE0023236063602B606B60C9
:106D600038BD00BFE6050020D60500209C050020A8
:106D70003C010020B805002038B5104D104C2B7890
:106D80001049043323706B780A6940336370AB7821
:106D90000868A370EB780130E3700B4B21461B6849
:106DA00063600A4B1A61D2B21860FFF713FE00232A
:106DB000236063602B606B6038BD00BFE605002078
:106DC000D60500209C05002038010020B8050020D1
:106DD00038B5104D104C2B781049043323706B7864
:106DE0000A6940336370AB780868A370EB780130B0
:106DF000E3700B4B21461B6863600A4B1A61D2B2E9
:106E00001860FFF7E7FD0023236063602B606B6071
:106E100038BD00BFE6050020D60500209C050020F7
:106E2000B8040020B805002038B5104D104C2B7860
:106E30001049043323706B780A6940336370AB7870
:106E40000868A370EB780130E3700B4B21461B6898
:106E500063600A4B1A61D2B21860FFF7BBFD0023D2
:106E6000236063602B606B6038BD00BFE6050020C7
:106E7000D60500209C05002034010020B805002024
:106E800038B5104D104C2B781049043323706B78B3
:106E90000A6940336370AB780868A370EB780130FF
:106EA000E3700B4B21461B6863600A4B1A61D2B238
:106EB0001860FFF78FFD0023236063602B606B6019
:106EC00038BD00BFE6050020D60500209C05002047
:106ED00030010020B805002038B5104D104C2B783B
:106EE0001049043323706B780A6940336370AB78C0
:106EF0000868A370EB780130E3700B4B21461B68E8
:106F000063600A4B1A61D2B21860FFF763FD002379
:106F1000236063602B606B6038BD00BFE605002016
:106F2000D60500209C050020B0040020B8050020F4
:106F300038B5104D104C2B781049043323706B7802
:106F40000A6940336370AB780868A370EB7801304E
:106F5000E3700B4B21461B6863600A4B1A61D2B287
:106F60001860FFF737FD0023236063602B606B60C0
:106F700038BD00BFE6050020D60500209C05002096
:106F800024010020B805002038B5104D104C2B7896
:106F90001049043323706B780A6940336370AB780F
:106FA0000868A370EB780130E3700B4B21461B6837
:106FB00063600A4B1A61D2B21860FFF70BFD002321
:106FC000236063602B606B6038BD00BFE605002066
:106FD000D60500209C05002020010020B8050020D7
:106FE00038B5104D104C2B781049043323706B7852
:106FF0000A6940336370AB780868A370EB7801309E
:10700000E3700B4B21461B6863600A4B1A61D2B2D6
:107010001860FFF7DFFC0023236063602B606B6068
:1070200038BD00BFE6050020D60500209C050020E5
:10703000A0040020B805002038B5134D134C2B7860
:107040001349013323706B780A6940336370AB785E
:107050000868A370EB780130E3700E4B21461B7873
:1070600023716B796371AB79A371EB79E3710A4B8F
:107070001A61D2B21860FFF7ADFC00232360636091
:107080002B606B6038BD00BFE6050020D6050020F0
:107090009C050020EE050020B805002038B5124DF3
:1070A000124C2B781249013323706B780A694033F4
:1070B0006370AB780868A370EB780130E37001234C
:1070C00023716B7921466371AB79A371EB79E3711D
:1070D000084B1A61D2B21860FFF77CFC00232360D2
:1070E00063602B606B6038BDE6050020D60500208C
:1070F0009C050020B805002038B5134D134C2B78A3
:107100001349013323706B780A6940336370AB789D
:107110000868A370EB780130E3700E4B21461B68C2
:1071200023716B796371AB79A371EB79E3710A4BCE
:107130001A61D2B21860FFF74DFC00232360636030
:107140002B606B6038BD00BFE6050020D60500202F
:107150009C050020C04F0020B8050020F8B5002590
:1071600002F0FEF9194E1A4B96F802C0194A83F83C
:1071700000C0194B194C1D70194B84F802C04340D4
:10718000C3F30740C3F307211F0EDBB250709170A9
:10719000D37017703278617104322270727811499D
:1071A0004032627020710A690868A3710E4B013089
:1071B0001A612146D2B2E770E5711860FFF70AFC48
:1071C0002560656035607560F8BD00BFE60500208C
:1071D000EF050020F0050020EE050020D605002078
:1071E0005A5AA5A59C050020B80500202DE9F341B9
:1071F000224B234D1A78234801A9EC7895F8048096
:107200006F79AE79FFF7D6FB9DF804206B78A24228
:107210001D4C2DD19DF80520424529D19DF8062011
:10722000BA4225D19DF80720B24221D10121174A47
:10723000403311700222227000226370AB78002666
:107240001349A3700868134BE2700A6901301A6190
:107250000D49D2B226716671A671E6711860FFF70A
:10726000B9FB266066602E606E6002B0BDE8F081FA
:10727000032222707F2262703522E0E7EF050020B2
:10728000E6050020F0050020D6050020EE050020D0
:107290009C050020B805002003232DE9F0412C4C6B
:1072A0002C4D23707F2363706B78DFF8AC80A37064
:1072B0007823E3702B79D8F8102023716B79274F4E
:1072C0006371AB79D8F80000A371EB793A610130B2
:1072D000D2B22146E37138601426FFF77BFB5022BF
:1072E0001F4B013E16F0FF0643F8042BF9D14FF473
:1072F000F07231461B4807F0E3FB0120184901F00A
:1073000037F90220174901F033F92B78D8F810200B
:1073100023706B78D8F8000040336370AB783A6123
:10732000A370EB780130E3702B79094923716B79F5
:10733000D2B26371AB793860A371EB79E371FFF777
:1073400049FB266066602E606E60BDE8F08100BF7C
:10735000D6050020E60500209C050020B805002089
:107360007C0100200606002038B5134D134CEA7846
:107370002B78E2702A79237022716A796B786271B6
:10738000AA794033A271EA790D496370E271AB7852
:107390000C4A08681370A3700A690B4B01301A611C
:1073A0002146D2B21860FFF715FB0023236063600B
:1073B0002B606B6038BD00BFE6050020D6050020BD
:1073C0009C050020D5050020B805002038B5134DD8
:1073D000134CEA782B78E2702A79237022716A794B
:1073E0006B786271AA794033A271EA790D496370B2
:1073F000E271AB780C4A08681370A3700A690B4BF2
:1074000001301A612146D2B21860FFF7E3FA002377
:10741000236063602B606B6038BD00BFE605002011
:10742000D60500209C050020D4050020B8050020CA
:1074300038B5144D144C2B78013323706B784033DE
:107440006370AB78A370EB78E370104B1868FCF7AF
:107450008FFF6B790E496371AB790A69A371EB7980
:107460002071E37108680B4B01301A612146D2B2DA
:107470001860FFF7AFFA0023236063602B606B6036
:1074800038BD00BFE6050020D60500206C3C00207A
:107490009C050020B805002038B5134D134C2B78FF
:1074A0001349023323706B780A6940336370AB78F9
:1074B0000868A370EB780130E3700E4B21461B780F
:1074C00023710D4B1B786371AB79A371EB79E37179
:1074D0000A4B1A61D2B21860FFF77CFA00232360CE
:1074E00063602B606B6038BDE6050020D605002088
:1074F0009C050020D54F0020D44F0020B805002067
:1075000038B5134D134C2B781349043323706B7823
:10751000086840336370AB780130A370EB78E37098
:107520000E4B1B681A0A237162711A0C1B0EA27192
:10753000E3710A690A4B21461A61D2B21860FFF75B
:1075400049FA0023236063602B606B6038BD00BF85
:10755000E6050020D60500209C050020C44F002031
:10756000B805002038B5134D134C2B78134904335C
:1075700023706B78086840336370AB780130A37078
:10758000EB78E3700E4B1B681A0A237162711A0CB8
:107590001B0EA271E3710A690A4B21461A61D2B22D
:1075A0001860FFF717FA0023236063602B606B609D
:1075B00038BD00BFE6050020D60500209C05002050
:1075C000D04F0020B805002038B5134D134C2B7850
:1075D0001349043323706B78086840336370AB78C9
:1075E0000130A370EB78E3700E4B1B681A0A23710D
:1075F00062711A0C1B0EA271E3710A690A4B2146D3
:107600001A61D2B21860FFF7E5F9002323606360C6
:107610002B606B6038BD00BFE6050020D60500205A
:107620009C050020CC4F0020B805002038B5124D35
:10763000124C2B78124923706B780A6940336370BF
:10764000AB780868A370EB780130E3702B792146A2
:1076500023716B796371AB79A371EB79E371094B9A
:107660001A61D2B21860FFF7B5F900232360636096
:107670002B606B6038BD00BFE6050020D6050020FA
:107680009C050020B805002038B5134D134CEA784E
:107690002B78E2702A79237022716A796B78627193
:1076A000AA794033A271EA790D496370E271AB782F
:1076B0000C4A08681360A3700A690B4B01301A6109
:1076C0002146D2B21860FFF785F90023236063607A
:1076D0002B606B6038BD00BFE6050020D60500209A
:1076E0009C050020C04F0020B805002038B5174D7C
:1076F000174CE9796A791748E171174962710A7084
:1077000002690068154901300A61086041F2883158
:107710002B78D2B223706B7840336370AB78A37050
:10772000EB78E3702B792371AB79A3714B4305217F
:10773000B3FBF1F30A490B602146FFF74BF9002335
:10774000236063602B606B6038BD00BFE6050020DE
:10775000D60500209C05002060010020B80500200F
:107760009805002038B5134D134C2B78134901337D
:1077700023706B780A6940336370AB780868A37034
:10778000EB780130E3700E4B21461B7823716B7947
:107790006371AB79A371EB79E3710A4B1A61D2B2D1
:1077A0001860FFF717F90023236063602B606B609C
:1077B00038BD00BFE6050020D60500209C0500204E
:1077C000F2040020B80500200022134B30B51A60E7
:1077D0005A60124B04461A605A60114B5D7805F0EE
:1077E000FF00ADB1A068A0B92468DA6894420FD157
:1077F0000A7802F0F002302A0AD11A783AB90A68F7
:10780000C3F802204A68C3F8062001221A7001203A
:1078100030BD1046FCE700BFD6050020E60500207D
:10782000680100202DE9F04F0125584F89B0072A43
:10783000884616469DF848A0029300F101093D7064
:10784000D4B216D80DF119008DF8184007F06AF976
:107850006219029B4846CDF800A0D2B206A9FFF7F4
:1078600023F80023B0FA80F03B70400909B0BDE86E
:10787000F08F4FF0000BC2F3032242F010028DF89C
:1078800018200A688DF81940CDF81A20404C8A88D3
:107890006570E060ADF81E2084F800B0082248460C
:1078A000CDF800A006A9FEF7FFFF28B184F801B0CB
:1078B00087F800B00020D9E7A27A8DF8160003906F
:1078C0000DF117010DF116008DF81720FEF7B8FF26
:1078D0000028039B02DC63703B70EBE74FF0060B64
:1078E0009DF816409DF816307BB174B90DF1170163
:1078F0000DF11600FEF7A4FF002804DC244B5C7099
:10790000224B1C70D6E79DF81640A6EB0B07072FFD
:1079100028BF072745F02003072202990DF119001F
:107920008DF8183007F0CCF83A4608EB0B010DF152
:10793000190007F0F7F87A1C4846029BCDF800A022
:10794000D2B206A9FEF7B0FF28B10023104A537047
:107950000E4A1370AEE79DF816305F4401351FFAEA
:1079600087FB05F00F0513B10CB1013CE4B29DF8A3
:10797000170008B101F0FAFD5E45B3D80023044AB0
:1079800001205370014A137070E700BFF405002016
:1079900068010020712330B500250F4C99B08DF897
:1079A0000C30A37848228DF80D30E3780B498DF820
:1079B0000E30237904A88DF80F3007F0B3F808488B
:1079C00000952B464C2203A90068FFF72BFF25608A
:1079D000656019B030BD00BFE605002040040020FE
:1079E0009C05002040F25923F0B599B0ADF80C3059
:1079F000FF23002403221F4D1F4EEF78DFF87CC0C9
:107A00008DF80E3056F8041BC9B2502920D00F4211
:107A10001ED05CF824E002F160036B444FEA1E4084
:107A200003F8540C531C9BB260336B444FEA1E2086
:107A300003F8540CD31C901C9BB280B260306033AE
:107A4000684404326B4400F854EC92B203F8541CBE
:107A50000134142CD6D1002409480094234603A9EC
:107A60000068FFF7DFFE074B2C601C605C606C60F9
:107A700019B0F0BDE60500207C01002078EE00087A
:107A80009C050020D6050020F8B50323214C224D8B
:107A900023707F2363706B78204FA3707823E3708B
:107AA0002B791F4E23716B793A696371AB79386812
:107AB000A371EB79214632610130D2B2E3713060BB
:107AC000FEF788FF00F008FEEA782B78E2702A794A
:107AD000237022716A796B786271AA794033A2713E
:107AE000EA796370E271AB780E4A386813603A69DC
:107AF000214632610130D2B2A3703060FEF76AFFD6
:107B0000012001F033FDBDE8F8400021084601F0F6
:107B1000B7BC00BFD6050020E60500209C0500206C
:107B2000B8050020C04F0020032370B50D4C002580
:107B300023707F2304220C4E0C4963707378E0702D
:107B40000868A3700A4B0130214625716571A57143
:107B5000E5711A611860FEF73DFF256065603560CC
:107B6000756070BDD6050020E60500209C0500204C
:107B7000B80500202DE9F04F0024794BADF5257DA7
:107B80001A78ADF80E40042A06D813200DF5257D8D
:107B9000BDE8F04FFFF7C8BF1E79DA78360246EA33
:107BA000024693F806905A790223ADF80E3040F25F
:107BB00059432046DFF8AC81DFF8ACA16B4D16438A
:107BC000ADF810305AF8042B58F8041BD2B2502AE2
:107BD00000F0AD806FF07F439E4202D08E4240F0B5
:107BE000A680B9F1FF0F03D0B9F1010F40F09F80DB
:107BF000BDF80E30D81CB0F5207F00F291800F0C3C
:107C00000DF1100C0CF803704FEA112C0DF1110757
:107C100007F803C00DF11207F95440F27D218B42A1
:107C2000ADF80E007CD004A90A541A1D92B2511C62
:107C3000B1F5207FADF80E2072D8012104A881543F
:107C40005A1D92B2B2F5207FADF80E2068D00633EF
:107C5000ADF80E3018230C216343444F8154FB5A76
:107C60004FF473420DF10E01FEF760FE002857D06D
:107C70004FF20132AB7804A8FEF778FE00284FD00F
:107C80004FF20232EB7804A8FEF770FE002847D0CE
:107C90004FF203322B7904A8FEF768FE00283FD08C
:107CA0004FF204326B7904A8FEF760FE002837D04B
:107CB0004FF20532AB7904A8FEF758FE80B34FF2BD
:107CC0000632EB7904A8FEF751FE48B34FF20732B3
:107CD0002B7A04A8FEF74AFE10B3182303FB04779F
:107CE0004FF20832B7F8093004A8FEF71FFEB8B10A
:107CF0004FF20932B7F80B3004A8FEF717FE78B13F
:107D00004FF20A32D7F80D3004A8FEF71CFE38B146
:107D10004FF20B32D7F8113004A8FEF714FE30B939
:107D20003120FFF701FF0DF5257DBDE8F08F01340F
:107D3000142C05F118057FF445AF0028F0D000247D
:107D40000B4800942346BDF80E20006804A9FFF7F5
:107D500069FD084B1C605C60014B1C605C60E2E7E5
:107D6000E605002078EE00087C01002006060020D1
:107D70009C050020D605002003232DE9F041244C6A
:107D8000244D23707F2363706B784FF00008A3703D
:107D90007823E3702B79204F23716B791F4E637129
:107DA000AB793A693868A371EB79214632610130C9
:107DB000D2B2E3713060FEF70DFE194B83F80080FC
:107DC000184B83F8008000F087FC2B783A69237009
:107DD0006B78386840336370AB782146A370EB78DA
:107DE0003261E3702B79013023716B79D2B2637108
:107DF000AB793060A371EB79E371FEF7EBFD012005
:107E000001F0B4FB41464046BDE8F04101F038BB0B
:107E1000D6050020E60500209C050020B8050020BE
:107E2000D44F0020D54F002070B5154D154C2B7840
:107E3000154E043323706B78214640336370AB7862
:107E4000A370EB78E370114B1A7822715A78DB78C3
:107E500062710F4AE37192F822210E4BA2711868E9
:107E60001A6901303261D2B23060FEF7B3FD0023EF
:107E700033613360236063602B606B6070BD00BF53
:107E8000E6050020D6050020B8050020610100208D
:107E9000080800209C050020F8B50026144B154D5D
:107EA0001E70154B154C1E702B78154F23706B7878
:107EB000214640336370AB78A370EB78E3702B7985
:107EC00023716B796371AB79A371EB79E3710D4B1E
:107ED0001A6918683A610130D2B23860FEF77AFD4B
:107EE000266066602E606E603E613E60F8BD00BF39
:107EF000F1040020E6050020F0040020D605002053
:107F0000B80500209C05002070B572B67348744C0B
:107F10000378744A002B66D0734B19682160596846
:107F200061600021196059604FF47A730170136029
:107F30006E490B68002B5BD1FF216D4B197062B647
:107F40006C4E336843B901216B4B196005216B4BB3
:107F5000997242F210711961136813B90122664BCC
:107F60001A606378192B04D1A378042B09D1FFF789
:107F700001FE6378142B01D1FFF78EF96378192B7A
:107F800004D1A378022B13D1FFF72CFD6378282BA3
:107F900005D1594B1B68032B2FD1FFF7E5F9637807
:107FA000852B05D1544B1B68032B2AD1FFF70EFA02
:107FB0006378222B35D1E3781D2B26D85BB3013BA8
:107FC0001C2B28D8DFE803F02B27393C3F424527FC
:107FD0002727484B4E5154575A5D606366696C6F52
:107FE0007275787B7E001368002BA1D0013B9EE761
:107FF000013B0B60002BA2D19EE77F20FFF794FD91
:10800000CDE77F20FFF790FDD2E77F2B63D0802B59
:108010005BD07E2B5CD01220FFF786FD01E0FFF7DE
:108020006FFA6378272B70D1A378012B68D0A378DF
:10803000022B6AD1FFF7DAF867E0FFF793FAF0E76F
:10804000FFF7C2FAEDE7FFF727FAEAE7FFF7F0F9E3
:10805000E7E7FEF7F1FFE4E7FEF7D6FCE1E7FEF71E
:10806000FFFCDEE7FEF728FDDBE7FEF751FDD8E772
:10807000FEF77AFDD5E7FEF7A3FDD2E7FEF7CCFDCC
:10808000CFE7FEF7F5FDCCE7FEF71EFEC9E7FEF7EA
:1080900047FEC6E7FEF770FEC3E7FEF799FEC0E7AE
:1080A000FEF7C2FEBDE7FEF7EBFEBAE7FEF714FFF0
:1080B000B7E7FEF73DFFB4E7FEF766FFB1E7FEF76F
:1080C0008FFFAEE7FFF74EFBABE7FFF7ADFEA8E78C
:1080D000FFF712F8A5E7FEF7E1FFA2E7F50500209C
:1080E000E60500205C010020DE0500209805002048
:1080F00060010020D0050020C04F00206801002052
:10810000FFF72CF86378272B91D03B4D2B78012B70
:1081100043D12F21622000F0D3F8A378022B0CD199
:10812000364B1B68032B49D12B78012B3CD1344BA8
:108130001B78062B38D1FFF7A7FC6378112B04D1ED
:10814000A378012B01D1FFF717FE22796378402A2B
:1081500003D1312B09D1FFF79FFE62782379312AB1
:1081600003D1432B01D1FFF715FC2379422B08D112
:108170006378312B05D1214B1B68032B28D1FFF7E6
:10818000B5FA6378102B2CD1A378012B24D0A378D7
:10819000032B2DD1FFF778FA23E0622000F07CF862
:1081A0002F28BAD12E21B5E72B781BB1144B1B78A1
:1081B000062BC2D02B782BB9332000E07F20FFF7AD
:1081C000B3FCBAE70E4B1B78062BB6D02220F6E79D
:1081D0007F20FFF7A9FCD4E7FFF756FA6378102B4E
:1081E000D5D063783E2B03D1A3780BB9FFF71EFAE5
:1081F00033680133336070BDEE050020C04F0020AE
:108200004E05002013282ED81823584316490A5A21
:108210000B1801320A52154A022012789A70144A39
:108220001278DA70134A12781A71134A12785A7156
:10823000124A12789A71124A1278DA71114A128827
:10824000A3F80920104A1288A3F80B200F4A1268DD
:10825000C3F80D200E4A1268C3F811200D4A127897
:108260001A7200F085B970470606002056050020F6
:10827000550500205405002053050020520500201C
:1082800051050020520100205001002098040020D8
:10829000940400204E0500200023074A52F8041BD6
:1082A000814204D00133142BF8D100207047034AD7
:1082B00012F82300704700BF78EE00087C01002010
:1082C000304B2DE9F0410D460024984688B053F814
:1082D000042B824208D00134142CF8D108B0BDE838
:1082E000F0812F2DFAD115E0274B1B78002BF5D10B
:1082F000264E56F82470AF42F3D02F2D46F8245066
:10830000ECD13146012000F033F9E0B2FFF77AFFFB
:1083100046F82450FFB22F2FE0D01D4B1B78022BC4
:10832000DCD11422002103A806F0CAFB58F824303F
:10833000184C1A0A190E23706270C3F30542C3F376
:10834000816363F04303E37004230025069340F246
:10835000FE7342EA8112104F104E0195A2700293F3
:108360002246384601AB02A901F0E4FD013510B107
:108370003368AB42F4D8002323706370A370E370BA
:10838000ACE700BF78EE0008D40500207C01002097
:1083900058010020F6050020C83B002074EE0008BC
:1083A000F8B5344B1B780F2B3BD8DFE803F00826D9
:1083B0002C323F3A3A3A3A3A3A3A3A3A3A49002370
:1083C0002D4A2E4D13702C782D4A13608CB92D4EEA
:1083D00056F8047B3846FFF75FFF2F2803D12E2184
:1083E0003846FFF76DFF0134E4B2142CF0D10123BD
:1083F0002B700022244B1A7013E00022204B1A60CD
:108400000122214BF7E700221D4B1A6002221E4B6E
:10841000F1E700221A4B1A600323174A13701A4A15
:1084200013701A4A136801331360F8BD0023144A0D
:108430001149136004220A7013490A700F4AEFE7CA
:108440000F4C124B22681B6852B9B3F5FA6F07D96B
:1084500023602F216420FFF733FF0023236003E014
:108460009B1AB3F5FA6FF4D30F22074B1A700C2244
:10847000014BC0E75701002004060020FA05002048
:10848000FC05002078EE000805060020000600200C
:108490000068704702464FF000630649184603F52E
:1084A00080639A4201D2824202D28B42F6D10020EE
:1084B000704700BF0000020813B50C48FFF7EAFF41
:1084C000044602F05BF90023094801A90360012377
:1084D0008460C36002F002FA044618B102F06AF93F
:1084E00002B010BD02F05CF92046F9E70038000840
:1084F000F807002013B50C48FFF7CCFF044602F044
:108500003DF90023094801A9036002238460C36088
:1085100002F0E4F9044618B102F04CF902B010BDC3
:1085200002F03EF92046F9E700F80008E8070020CD
:1085300070B50C460646154602F020F904EB850599
:10854000361BAC4204EB060103D102F029F90024EA
:108550000CE00023022054F8042B02F05BF9002801
:10856000EFD002F027F9044602F01AF9204670BD58
:108570002DE9F04F431E032B0F4685B043D8002949
:1085800041D072B600224FF0FF33CDE902230C2315
:1085900003FB00F4DFF8D8B0364E3BF804803648D1
:1085A0004FEA98084246356801F00EFF3BF8043068
:1085B00005F110021344314A3149934281460BEBD5
:1085C000040A214422D2022228460835FFF7B0FFD0
:1085D000424639462846CAF80450FFF7A9FF3BF83F
:1085E000044002222C44204602A90834CDF8089009
:1085F000FFF79EFF34603368224A93422DD2012256
:10860000214B1A6062B605B0BDE8F08F01231F4D03
:1086100001912B6000F03CF8336801990222184662
:108620000193FFF785FF019B424608333946184600
:10863000CAF804300193FFF77BFF019B3BF804402D
:1086400002221C44204602A9CDF80890FFF770FFD3
:108650000223083434602B60CDE703F17843A3F59F
:108660007C43B3F5806FCDD20222074BC9E700BF30
:1086700030090020B00900202C3C0020FFFF00083A
:108680006C09002000FC0008A8090020AC090020AB
:1086900037B572B6FFF72EFF4FF0B6330B4C0C48D0
:1086A00002226946CDE900332060FFF741FF2368CD
:1086B000084D08332360012455F83410A0B201346A
:1086C000FFF756FF052CF7D103B030BDB0090020ED
:1086D00000F80008F401002070B572B60024094DBE
:1086E000094E15F8013B012B04D156F83410A0B205
:1086F000FFF73EFF0134052CF3D10222034B1A7021
:1087000062B670BD94020020F40100202D09002003
:1087100001EB8202401A914200D17047435841F860
:10872000043BF8E72DE9F84FBE4C49222146BE48EC
:10873000FFF7EEFF94F82331BC49AA2BBC4ABD4B8E
:1087400040F042822046FFF7A3FE1860201DFFF78D
:108750009FFE086004F10800FFF79AFEB64B186010
:1087600004F10C00FFF794FEB44B186004F1100004
:10877000FFF78EFEB24B186004F11400FFF788FE7D
:10878000B04B186004F11800FFF782FEAE4B186082
:1087900004F11C00FFF77CFEAC4B186004F12000D4
:1087A000FFF776FEAA4B186004F12400FFF770FE75
:1087B000A84B186004F12800FFF76AFEA64B18606A
:1087C00004F12C00FFF764FEA44B186004F13000A4
:1087D000FFF75EFEA24B186004F13400FFF758FE6D
:1087E000A04B186004F13800FFF752FE9E4B186052
:1087F00004F13C00FFF74CFE106004F14000FFF76D
:1088000047FE9A4B186004F14400FFF741FE984B75
:10881000186004F14800FFF73BFE964B186004F126
:108820004C00FFF735FE944B186004F15000FFF741
:108830002FFE924B186004F15400FFF729FE904B75
:10884000186004F15800FFF723FE8E4B186004F106
:108850005C00FFF71DFE8C4B186004F16000FFF711
:1088600017FE8A4B186004F16400FFF711FE884B75
:10887000186004F16800FFF70BFE864B186004F1E6
:108880006C00FFF705FE844B186004F17000FFF7E1
:10889000FFFD824B186004F17400FFF7F9FD804B77
:1088A000186004F17800FFF7F3FD7E4B186004F1C7
:1088B0007C00FFF7EDFD7C4B186004F18000FFF7B2
:1088C000E7FD7A4B186004F18400FFF7E1FD784B77
:1088D000186004F18800FFF7DBFD764B186004F1A7
:1088E0008C00FFF7D5FD744B186004F19000FFF782
:1088F000CFFD724B186004F19400FFF7C9FD704B77
:10890000186004F19800FFF7C3FD6E4B186004F186
:108910009C00FFF7BDFD6C4B186004F1A000FFF751
:10892000B7FD6A4B186004F1A400FFF7B1FD684B76
:10893000186004F1A800FFF7ABFD664B186004F166
:10894000AC00FFF7A5FD644B186004F1B000FFF721
:108950009FFD624B186004F1B400FFF799FD604B76
:10896000186004F1B800FFF793FD5E4B186004F146
:10897000BC00FFF78DFD5C4B186004F1C000FFF7F1
:1089800087FD5A4B186004F1C400FFF781FD584B76
:10899000186004F1C800FFF77BFD564B186004F126
:1089A000CC00FFF775FD544B186004F1D000FFF7C1
:1089B0006FFD524B186004F1D400FFF769FD504B76
:1089C000186004F1D800FFF763FD4E4B186004F106
:1089D000DC00FFF75DFD4C4B186004F1E000FFF791
:1089E00057FD4A4B186004F1E400FFF751FD484B76
:1089F000186004F1E800FFF74BFD464B186004F1E6
:108A0000EC00FFF745FD444B186004F1F000FFF760
:108A10003FFD424B186004F1F400FFF739FD404B75
:108A200018607FE0080800200038000818010020C6
:108A3000140100201C010020F4000020D8000020B8
:108A4000D0000020CC000020F8000020F000002022
:108A5000EC000020E8000020E4000020E0000020FE
:108A6000DC000020D4000020B40000201001002011
:108A70000C0100200801002004010020000100205A
:108A8000FC000020B80000205C000020C80000208E
:108A9000C4000020C0000020BC000020B000002066
:108AA000AC000020A8000020A4000020A0000020AE
:108AB0009C000020980000209400002090000020DE
:108AC0008C0000208800002084000020800000200E
:108AD0007C0000207800002074000020700000203E
:108AE0006C0000206800002064000020600000206E
:108AF0005800002054000020500000204C000020AE
:108B00004800002044000020400000203C000020DD
:108B10003800002034000020300000202C0000200D
:108B20002800002004F1F800FFF7B2FC1C4B18608D
:108B300004F1FC00FFF7ACFC1A4B186004F58070E0
:108B4000FFF7A6FC184B186004F58270FFF7A0FC35
:108B5000164B186004F58470FFF79AFC144B1860EC
:108B600004F58670FFF794FC124B186004F58870CA
:108B7000FFF78EFC104B186004F58A70FFF788FC35
:108B80000E4B186004F58C70FFF782FC0C4B1860DC
:108B900004F58E70FFF77CFC0A4B1860BDE8F88F77
:108BA00024000020200000201C00002018000020CD
:108BB00014000020100000200C00002008000020FD
:108BC00004000020000000204FF4FA601860BF4B42
:108BD00014250B60FA210D2616274FF0500C4FF08C
:108BE0000A0E4FF055084FF0BE094FF4966B116016
:108BF00041F6F42144F23030B54ADFF8D8A21560CE
:108C00004FF42F75B44A166040F6E446B34A176035
:108C100040F6FF77B24AC2F800C0B24ADFF8C8C2D5
:108C2000C2F800E040F66E7EB04AC2F80080B04A5A
:108C3000DFF8C082C2F80090AF4ADFF8C092C2F8F5
:108C400000A0AF4ADFF8BCA2C2F800B0AE4ADFF81D
:108C5000BCB21160AE4AAF491060AF4AC82015607F
:108C600043F22C05AD4A166041F27836AC4A1760E3
:108C7000AC4AAD4FC2F800C0AC4ADFF8B4C2C2F88B
:108C800000E0AC4ADFF8B0E21360AC4A1760AC4ACF
:108C90001160AC4AAC491160AC4AAD490A60AD49BB
:108CA0000A60AD4AAD491560AD4A1060AD4A166024
:108CB000AD4A1160AD4AAE491160AE4AAE4911608D
:108CC000AE4AAF491160AF4AAF491160AF4AB049EF
:108CD0001160B04AB0491160B04AB1491160B14A5F
:108CE000B149C2F80080B14AC2F800C0B04A116070
:108CF000B04AB1491160B14AB1491160B14AB249B3
:108D00001160B24AB2491160B24AB34911604FF0E2
:108D10007E52B2490A60B2490A60B249C1F800E025
:108D2000B149C9F80010DFF8C492CAF80090DFF822
:108D3000C0A2CAF800B0DFF8BCA2DFF8BCB2CAF823
:108D400000B0DFF8B8A2DFF8B8B2CAF800B0DFF8B8
:108D5000B4A2CAF80090DFF8B092DFF8B0A2CAF867
:108D60000090DFF8ACA2CAF80010DFF8A8A2CAF899
:108D70000080DFF8A482DFF8A4A2CAF80080DFF840
:108D8000A0A2CAF80020DFF89CA2CAF800E0DFF831
:108D900098E2DFF898A2CEF800A0DFF894E2DFF8BE
:108DA00094A2CEF800A0DFF890E2CEF800C04FF019
:108DB0007A5EDFF888C2CCF80020A14ADFF884C2CE
:108DC000CCF80020DFF880C2CCF80020DFF87CC2AD
:108DD000CCF800E063602361BE23A3614FF4966387
:108DE000E36141F6F423236244F2303363624FF4CB
:108DF0002F73A36240F6E443E36240F6FF732363FC
:108E000040F66E736363FA23E363142323640D2334
:108E100063641623A3645023E3640A23DFF830C29B
:108E20002365CCF800108B49DFF82CC2C1F8008014
:108E30008A495523C1F8009089496365C1F800C08B
:108E40008849DFF824C2334BC1F800C08749236644
:108E50000A604FF4FA623C4B22601E4A6366A260CD
:108E60003A4B214A6761E260A663A565E065A366A7
:108E7000E3663A4B254F23673D4B1E48636703F17A
:108E80007F4303F5C93303F23313A3673C4B2A4EE8
:108E9000E3673D4B5549C4F880303D4BC4F8C4707E
:108EA000C4F884303C4BA7F53327C4F8883003F16D
:108EB0007D4303F5190303F26763C4F88C303A4B22
:108EC000494AC4F898303C4BD2E000BF209B0800D0
:108ED00010010020A00302000C0100200801002066
:108EE000040100200001002078630100FC00002044
:108EF000F80000206666663FF40000206400002051
:108F0000F000002060000020EC000020CDCC3C41AF
:108F1000E80000205C8F0241E4000020E000002017
:108F2000DC000020D8000020E0800300D4000020F6
:108F300017B7D138D00000200000C842CC00002074
:108F4000C8000020C4000020A470AF417B1402417F
:108F5000C0000020BC000020B80000200000E0415C
:108F60005C000020B4000020B0000020AC00002015
:108F700000009344A800002033939443A4000020F1
:108F800000C0B244A00000209A9989409C000020B3
:108F90000000C841980000203393884394000020CB
:108FA0009A992141900000205C8F7E418C00002026
:108FB0008800002084000020CD4C1944800000204F
:108FC000000080BF7C0000200000B4427800002038
:108FD0000000A0427400002000009A4270000020AF
:108FE0006C00002068000020CDCCCC3D0AD7A33C0B
:108FF00058000020540000209A9931415000002070
:109000009A9919414C000020CDCC4C3D48000020DD
:109010004400002040000020CDCC4C3E3C0000200D
:109020003800002034000020300000208FC2753C42
:109030002C0000208FC2753D280000202400002055
:109040009A99993E200000201C0000201800002062
:1090500014000020100000209A99193E0C000020F6
:1090600008000020040000203333B33E000000203D
:109070003A4DC4F89C303A4BC4F89000C4F8A03084
:10908000384BC4F8B860C4F8A430A3F5A013C4F8F2
:10909000A830A3F5C023C4F8AC304FF07E53C4F819
:1090A000C010C4F8D010C4F8DC002F492F48C4F811
:1090B000E860A7F233372E4EC4F8C870A7F5C01782
:1090C000C4F8D410C4F89450C4F8B030C4F8B43024
:1090D000C4F8BC20C4F8D820C4F8E000C4F8E430D8
:1090E000C4F8CC70C4F8EC60C4F8F830A3F566039B
:1090F000A3F5CC43663BC4F8FC30C4F80031C4F897
:109100001C31AA23C4F8F45084F823314FF07A5567
:109110002123C4F8082102F5990202F599424D3243
:10912000C4F8142102F1991202F5194206F1807671
:10913000C4F81011C4F81821C4F8F060C4F8045140
:10914000C4F80C0184F82231FFF7B6F92146BDE8D6
:10915000F84F49220748FFF7EBB900BF17B7D138DE
:10916000000080BF0000B442CDCC4C3DCDCC4C3E85
:109170008FC2753C003800082DE9F04186B072B608
:1091800000232E4DCDE901332C682D4B002C3ED110
:109190002B6002222A4801A9FFF7BAFA019B029A22
:1091A000B3F1B63F39D1B2F1B63F39D1244C254E97
:1091B000254FDFF898800222304603A9FFF7A8FA6E
:1091C0009DF80C20042A24D80C23534317F803C01D
:1091D00006F10801944507EB030E11D1BDF80E000E
:1091E000BEF8022082420BD11948C41800F803C00F
:1091F00018486280C252C418103261609419214626
:1092000001F110034345296003D80E46D3E79C4281
:10921000BFD02C6006B0BDE8F0811340013301D00F
:10922000FFF768F94FF0B6330222054801A9CDE9EE
:109230000133044CFFF77CF9EBE700BFB0090020D5
:1092400000F8000808F80008580200201EFE000878
:109250006C090020300900202DE9F74F72B6002379
:1092600001264FF00C0ACDE90033294DFFF784FFAA
:10927000DFF8A090284A294C174617F80C3F04F154
:109280000C08013BDBB2FD2B34D8D389FF2B31D046
:1092900083B3A289A96820699208FFF739FAB4F864
:1092A0000CB02069022269465844FFF731FAA968D8
:1092B0001B484FEA9B0201F087F8009B834209D0CC
:1092C000D9F80810A289A86805F02CFCA968B0B2EA
:1092D000FFF74EF90136052E3A46444605F10805DA
:1092E00009F10809C8D102220E4B1A7062B603B008
:1092F000BDE8F08F0AFB06F30B4A9A1807CA87E805
:1093000007000A4A134493E8070088E80700D7E7F4
:10931000F4010020CC0100206C090020300900205D
:109320002C3C00202C090020580200201C020020A8
:1093300073B5404C404B227801211A703F4A404897
:109340001368404D053313603F4A404E13680533A0
:10935000136001F01DFC3E4A3E4B117830701970CD
:10936000517859709178D2789970DA702B6833B946
:10937000394B1B78D3B12F215720FEF7A1FF33784B
:10938000364A012B07D0364B1B78022B03D0354BC6
:109390001B78012B11D101232370C8231360324A9B
:1093A00013602B6801332B6002B070BD5720FEF7AD
:1093B00073FF2F28E3D12E21DEE713682BB1013B89
:1093C0001360002BEDD102232370284B264A1B7813
:1093D000042B2AD11368002BE3D0013B1360002B30
:1093E000DFD103222270224A1360224A13701A4AE4
:1093F0001370FFF771F9204B4FF48070DA6942F077
:109400008052DA61DB6903F080530193019B1B4BAF
:109410001A6842F004021A601A6842F008021A60E0
:1094200001F002FC01F00CFCBBE702232370C8230F
:10943000B6E700BFA5020020F4040020D04F0020B2
:1094400000080140B4090020CC4F0020A4020020F5
:1094500061010020D64F0020D54F0020A00200203F
:1094600058010020540100209C020020F304002039
:10947000C84F0020D44F0020001002400070004070
:1094800000220E4B1A600E4B19700E4B187038B13B
:109490000D4A1368013313600C4A136801331360DB
:1094A000BFF34F8F0A490B4BCA6802F4E0621343C3
:1094B000CB60BFF34F8F00BFFDE700BFCC4F002054
:1094C000D44F0020D54F0020C84F0020C44F0020AB
:1094D00000ED00E00400FA0505F018FA0B480C490D
:1094E0000C4A002302E0D458C4500433C4188C4200
:1094F000F9D3094A094C002301E013600432A24267
:10950000FBD305F0EBFA05F055F87047000000209A
:1095100014030020E4EF000818030020E4400020BA
:10952000FEE7000008B5074A0320136843F0100364
:10953000136000F0E9FE0F2005F032F905F006F99E
:10954000002008BD00200240034A044B11681B782C
:109550000B441360704700BFB8090020A60200202A
:10956000014B1868704700BFB809002038B50446A1
:10957000FFF7F6FF0546631C1EBF044B1B78E4187B
:10958000FFF7EEFF431BA342FAD338BDA60200202B
:10959000436A9A6A12F0500F1AD19A6A42F4007222
:1095A0009A621A68926802F46022B2F5602F0CD1B8
:1095B0001A7B52B99A6A22F480729A629A6AD20429
:1095C0005EBF9A6A42F001029A6218461A6B10470F
:1095D0001B6A1B6B1847406A436B1847406A836AD3
:1095E00043F040038362C36A43F00403C362C36B66
:1095F00018477047704770B5036804461D685E6879
:10960000B00626D5A90724D5A26AD2065EBFA26AF3
:1096100042F40072A2629A6802F46022B2F5602FEE
:1096200010D1227B72B95A6822F020025A60A36AD4
:1096300023F48073A362A36AD8045EBFA36A43F0D5
:109640000103A362236B204698476FF01202236840
:109650001A60310630D56A072ED5A36ADB065EBFD5
:10966000A36A43F40053A36223689A6802F4E042B9
:10967000B2F5E04F0AD05A68500516D49A6802F441
:109680006022B2F5602F10D1227B72B95A6822F0A5
:1096900080025A60A36A23F48053A362A36AD905A7
:1096A0005EBFA36A43F00103A362236C2046984780
:1096B0006FF00C0223681A6072060CD5EB070AD50E
:1096C000A36A204643F48033A362A36B98476FF0EC
:1096D000010223681A6070BD002373B5019390F8EE
