:020000040800F2
:103C0000804F00203D830008A9D60008B5D60008E3
:103C1000C1D60008CDD60008D9D6000800000000A3
:103C200000000000000000000000000011C50008B6
:103C3000E5D6000800000000A1C50008E5C50008A1
:103C400085830008E7D6000885830008858300087F
:103C5000F9D60008FDD60008858300088583000892
:103C600085830008858300088583000801D7000844
:103C70008583000885830008858300088583000804
:103C800085830008858300080DD7000819D7000830
:103C900025D7000829D700082DD7000885830008FC
:103CA00031D700083DD7000841D7000845D70008A4
:103CB0008583000849D7000861D70008858300087C
:103CC00085830008858300088583000885830008B4
:103CD00085830008858300088583000885830008A4
:103CE00085830008858300088583000800000000A4
:103CF00000000000000000000000000000000000C4
:0C3D000000000000000000005FF808F167
:103D100010B5054C237833B9044B13B10448AFF305
:103D200000800123237010BD60020020000000000D
:103D300054DC000808B5034B1BB103490348AFF33B
:103D4000008008BD000000006402002054DC000870
:103D500080F0004002E000BF81F0004142001FBF40
:103D60005FEA410392EA030F7FEA226C7FEA236C49
:103D70006AD04FEA1262D2EB1363C1BFD21841403E
:103D800048404140B8BF5B42192B88BF704710F0D4
:103D9000004F40F4000020F07F4018BF404211F077
:103DA000004F41F4000121F07F4118BF494292EADF
:103DB000030F3FD0A2F1010241FA03FC10EB0C000B
:103DC000C3F1200301FA03F100F0004302D5494298
:103DD00060EB4000B0F5000F13D3B0F1807F06D345
:103DE00040084FEA310102F10102FE2A51D2B1F13D
:103DF000004F40EBC25008BF20F0010040EA030032
:103E00007047490040EB0000013A28BFB0F5000FB1
:103E1000EDD2B0FA80FCACF1080CB2EB0C0200FA67
:103E20000CF0AABF00EBC25052421843BCBFD040B6
:103E30001843704792F0000F81F4000106BF80F430
:103E400000000132013BB5E74FEA41037FEA226CF3
:103E500018BF7FEA236C21D092EA030F04D092F0BE
:103E6000000F08BF0846704790EA010F1CBF0020F2
:103E7000704712F07F4F04D1400028BF40F000404F
:103E8000704712F100723CBF00F50000704700F06F
:103E9000004343F0FE4040F4000070477FEA226296
:103EA00016BF08467FEA23630146420206BF5FEA67
:103EB000412390EA010F40F4800070474FF0000367
:103EC00004E000BF10F0004348BF40425FEA000C2E
:103ED00008BF704743F0964301464FF000001CE0D6
:103EE00050EA010208BF70474FF000030AE000BF2C
:103EF00050EA010208BF704711F0004302D540426A
:103F000061EB41015FEA010C02BF844601460020DB
:103F100043F0B64308BFA3F18053A3F50003BCFAF6
:103F20008CF2083AA3EBC25310DB01FA02FC6344A3
:103F300000FA02FCC2F12002BCF1004F20FA02F2AA
:103F400043EB020008BF20F00100704702F120029D
:103F500001FA02FCC2F1200250EA4C0021FA02F2FE
:103F600043EB020008BF20EADC7070474FF0FF0C03
:103F70001CEAD0521EBF1CEAD15392EA0C0F93EAFE
:103F80000C0F6FD01A4480EA010C400218BF5FEAA0
:103F900041211ED04FF0006343EA501043EA511113
:103FA000A0FB01310CF00040B1F5000F3EBF49000D
:103FB00041EAD3715B0040EA010062F17F02FD2A11
:103FC0001DD8B3F1004F40EBC25008BF20F00100F4
:103FD000704790F0000F0CF0004C08BF49024CEA0B
:103FE000502040EA51207F3AC2BFD2F1FF0340EA9D
:103FF000C250704740F400004FF00003013A5DDC0E
:1040000012F1190FDCBF00F000407047C2F100024E
:10401000410021FA02F1C2F1200200FA02FC5FEA3B
:10402000310040F1000053EA4C0308BF20EADC7085
:10403000704792F0000F00F0004C02BF400010F4F7
:10404000000F013AF9D040EA0C0093F0000F01F0A4
:10405000004C02BF490011F4000F013BF9D041EAC6
:104060000C018FE70CEAD15392EA0C0F18BF93EAC8
:104070000C0F0AD030F0004C18BF31F0004CD8D1F2
:1040800080EA010000F00040704790F0000F17BF79
:1040900090F0004F084691F0000F91F0004F14D0BF
:1040A00092EA0C0F01D142020FD193EA0C0F03D117
:1040B0004B0218BF084608D180EA010000F000401A
:1040C00040F0FE4040F40000704740F0FE4040F4F5
:1040D000400070474FF0FF0C1CEAD0521EBF1CEA94
:1040E000D15392EA0C0F93EA0C0F69D0A2EB0302B2
:1040F00080EA010C49024FEA402037D04FF080534C
:1041000043EA111143EA10130CF000408B4238BF10
:104110005B0042F17D024FF4000C8B4224BF5B1A1E
:1041200040EA0C00B3EB510F24BFA3EB510340EA6C
:104130005C00B3EB910F24BFA3EB910340EA9C001A
:10414000B3EBD10F24BFA3EBD10340EADC001B018A
:1041500018BF5FEA1C1CE0D1FD2A3FF650AF8B422E
:1041600040EBC25008BF20F0010070470CF0004C3B
:104170004CEA50207F32C2BFD2F1FF0340EAC25066
:10418000704740F400004FF00003013A37E792F027
:10419000000F00F0004C02BF400010F4000F013A85
:1041A000F9D040EA0C0093F0000F01F0004C02BF80
:1041B000490011F4000F013BF9D041EA0C0195E7E9
:1041C0000CEAD15392EA0C0F08D142027FF47DAF82
:1041D00093EA0C0F7FF470AF084676E793EA0C0F72
:1041E00004D14B023FF44CAF08466EE730F0004C70
:1041F00018BF31F0004CCAD130F000427FF45CAF00
:1042000031F000437FF43CAF5FE700BF4FF0FF3C6D
:1042100006E000BF4FF0010C02E000BF4FF0010CC0
:104220004DF804CD4FEA40024FEA41037FEA226C89
:1042300018BF7FEA236C11D001B052EA530C18BFAB
:1042400090EA010F58BFB2EB030088BFC81738BF10
:104250006FEAE17018BF40F0010070477FEA226CFE
:1042600002D15FEA402C05D17FEA236CE4D15FEAFA
:10427000412CE1D05DF8040B704700BF844608462E
:104280006146FFE70FB5FFF7C9FF002848BF10F1EF
:10429000000F0FBD4DF808EDFFF7F4FF0CBF012034
:1042A00000205DF808FB00BF4DF808EDFFF7EAFFBE
:1042B00034BF012000205DF808FB00BF4DF808ED79
:1042C000FFF7E0FF94BF012000205DF808FB00BF6E
:1042D0004DF808EDFFF7D2FF94BF012000205DF8F4
:1042E00008FB00BF4DF808EDFFF7C8FF34BF012001
:1042F00000205DF808FB00BF4FEA40024FEA41038F
:104300007FEA226C02D15FEA402C08D17FEA236C5D
:1043100002D15FEA412C02D14FF0000070474FF00C
:10432000010070474FEA4002B2F1FE4F0FD34FF049
:104330009E03B3EB12620DD94FEA002343F0004312
:1043400010F0004F23FA02F018BF404270474FF0C0
:104350000000704712F1610F01D1420205D110F047
:10436000004008BF6FF0004070474FF000007047FA
:1043700042000ED2B2F1FE4F0BD34FF09E03B3EBCF
:10438000126209D44FEA002343F0004323FA02F0FB
:1043900070474FF00000704712F1610F01D14202E7
:1043A00002D14FF0FF3070474FF00000704700BF60
:1043B000F8B5204B04461E681F4B014630461D6869
:1043C000FFF786FF40BB1D4B21461F683846FFF7AD
:1043D00075FF18BB31462046FFF7BEFC2946044650
:1043E0001748FFF7B9FC01462046FFF7BFFD3146ED
:1043F00004463846FFF7B0FC01462046FFF76AFE48
:1044000001460F48FFF7A8FC044629462046FFF75F
:104410004BFF20B12C460AE0094CF6E72C46094B2D
:1044200020461D682946FFF75DFF0028F2D120468F
:10443000F8BD00BF1C000020240000201800002050
:104440000000C842200000202DE9F843214905461C
:10445000FFF734FF002838D128461F49FFF738FFFF
:104460000446002833D11D4E56F8047B28463946B1
:10447000A1460134FFF72CFF28B3D6F80080284668
:104480004146FFF711FFF0B1154B53F8296053F87F
:1044900024003146FFF760FC394604462846FFF702
:1044A0005BFC01462046FFF761FD39460446404665
:1044B000FFF752FC01462046FFF70CFE3146FFF79E
:1044C0004DFCBDE8F8830C2CCED10020F9E705485F
:1044D000F7E700BF0000284100004C41A0DC0008C5
:1044E0006CDC00080000C84210B516490446FFF70E
:1044F000E5FED0B920461449FFF7E0FEB8B92046E2
:104500001249FFF7DBFEA0B920461149FFF7D6FE9E
:1045100088B920460F49FFF7D1FE70B920460E49F1
:10452000FFF7CCFE58B10D4810BD0D48FCE70D4813
:10453000FAE70D48F8E70D48F6E70D48F4E70D48AF
:10454000F2E700BF33332B4166662E4133333341EC
:1045500000003841CDCC3C41000040410000B44255
:1045600000000C420000344200005C420000824225
:104570000000A0420000C8422DE9F04FA14BA24A22
:104580001B881268A14E9342A14DA24AA24FDFF8A8
:104590008C82A34C8FB0C0F0E08131688B424FF029
:1045A0000003136000F2E2812B603B7088F800305A
:1045B0000A22944B9B4E1B8803EB8303B3FBF2F35D
:1045C000994A1380994A1168994A8B42157894BF89
:1045D0000020581A002D40F0FD810B4431888B4299
:1045E00001D801231370934BDFF84CB21B78012BD9
:1045F0000ED06BB19BF80030012B09D043B18F4B2B
:104600001B78012B04D08E4B1B785D1E6B426B41D7
:104610008C4A387813708C4A92F800908B4A15783F
:104620008B4A012D92F800A098F8002003D0012AAF
:1046300001D0012804D14FF0010C864981F800C057
:10464000854991F800C0BCF1000F40F0DF81012BDB
:1046500000F0C9810022814D81482A7002780B70D8
:10466000804B012A19780FD14A1E022A0CD87E4AA3
:1046700092F800C0BCF1040F02D01278062A03D1D0
:104680000022027079480270774ADFF8E4911078CE
:1046900088421CBF12781A70764B1A68764B104607
:1046A00019680092FFF71EFE009A002800F0B28100
:1046B000D9F8002023680AB9C9F80030D9F80020D9
:1046C0009B1A6E4A126893420BD3BAF1000F08D1BD
:1046D00001222F215E4B85F800A01A70582002F0AD
:1046E000A1FE674BD3F800A0664B51461868FFF750
:1046F000F9FD8146002800F0C381DFF88C91236822
:10470000D9F80020002A40F0AB81C9F800304E4BA8
:104710001B78012B06D15D4A23681168002940F0FF
:10472000D381136098F80030012B02D03B78012B25
:1047300001D100232B70564BDFF858911B78484F5E
:10474000012B04BF00222A7099F80020012A474A51
:1047500009D13D4938780978014301BF107889F8BB
:104760000010411C11704C480178012906D139789C
:104770000B4301BF117803704B1C1370474B127829
:104780001B689A4205D101232F2154203B7002F06F
:1047900049FE3B780BB100232B702C480378012B8A
:1047A0003F4B40F0B08100221F49378809882A70AA
:1047B0008F42C0F0A8811F682168002F40F08E81D1
:1047C0001960384B9BF800801A78424518BF83F86F
:1047D00000802F4B1F78304B1A78BA4218BF1F70D9
:1047E000194B99F800201B789A4218BF89F80030BD
:1047F000B8F1010F6DD1DFF8B0A02C4B9AF8000092
:104800001B6855E0F0000020C8000020C400002014
:10481000B8020020BC020020AC030020AB03002043
:10482000A0030020F2000020A4030020EC000020E0
:10483000A8030020FC000020F5000020EC0100206F
:10484000B2030020F4000020AD030020AE030020DE
:10485000B3030020B6020020B5020020F6000020BD
:10486000A6030020B402002006040020A7030020B5
:10487000B00200208C03002060000020DC0000203B
:104880008003002064000020AC020020A802002069
:10489000AF030020A5020020A4020020E4000020B5
:1048A000A00200209D0200209C020020E8000020C1
:1048B000DFF8D4929842D9F800B080F02781B34B4A
:1048C00001308AF8000059461868FFF747FAC9F81E
:1048D0000000AF4BDFF8BCA2D3F800B0AE4B584697
:1048E0001968DAF800900091FFF7DEFC002800F06C
:1048F0001C81002F40F01981B8F1010F009940F0A0
:1049000014810846FFF732FB594680465846FFF7A8
:104910002DFB01464046FFF71FFAA049FFF7DAFBDF
:104920004946FFF71BFACAF80000FFF721FD9C4B30
:104930001860984BD3F800909A4B48461968FFF7D7
:10494000D1FC8046002800F04D8101232F21964A9A
:104950001370532002F066FD4FE11168236851B9CE
:104960001360924B1A8833689A4231D92A682368B7
:10497000B2B92B601CE68E4A5B1A1268934206D9C4
:1049800001232F213B70502002F04CFDE9E700236A
:1049900050203B7002F032FD2F28E2D12E21F2E7A9
:1049A0009B1A834A1268934207D901232F2188F862
:1049B0000030512002F036FDFAE50023512088F83E
:1049C000003002F01BFD2F287FF4F2AD2E21F0E71E
:1049D0000023CEE7012D7FF406AE338883423FF6F5
:1049E00002AE0023FEE5DFF8CCE18EF800C049EA14
:1049F00005094AEA090942EA090202437FF42AAE9C
:104A00006C4A1278B2FA82F2520924E6012B7FF442
:104A100021AEECE7684B10461968FFF745FCE0B1A2
:104A2000D9F8002023680AB9C9F80030D9F8002065
:104A30009B1A5F4A12689342FFF453AEBAF1010F1A
:104A40007FF44FAE00225D4B58201A7002F0D6FC66
:104A50002F287FF446AE2E2140E6C9F8000040E63C
:104A60009B1A534A126893427FF651AE0123544A6F
:104A70002F21592013702B7002F0D4FC002344E640
:104A800050465049FFF72EFC00283FF440AEDFF8B7
:104A900038A12368DAF8002012B9CAF8003036E6E7
:104AA0009B1A434A126893427FF631AE444B592019
:104AB00083F8009002F0A2FC2F2803D12E21592068
:104AC00002F0B0FC0023E8E75B1A404909688B421A
:104AD0007FF628AE00233E490B7022E6C91B344FF7
:104AE0003F68B9427FF66DAE3A49027056200A60BF
:104AF0001A6002F083FC2F287FF463AE2E2156202B
:104B000002F090FC5DE600221A605AE6FFF7DAF93F
:104B100001465846FFF7DEFA1F4B186000238AF85B
:104B200000300023C9F80030D3E62B4B22681B6805
:104B3000B2FBF3F103FB1128B8F1000F7FF4F9AEDB
:104B4000264BDFF850B01868FFF7B8F94946FFF771
:104B50000DFA2349FFF7BEFACBF800008246FFF7B3
:104B600007FCDFF83C904FF07E51C9F8000050463A
:104B7000FFF79AFB00283FF4DCAE0023C9F8008061
:104B8000CBF80030D5E600BF980200208803002053
:104B9000900000209002002094020020000020419C
:104BA000940300208C000020AF030020F0000020C0
:104BB000DC000020B60200205C000020B3030020CF
:104BC000B2030020CDCCCCBDAC020020D40000202C
:104BD000AD0300209C030020E8000020D800002046
:104BE0000000C84200214846FFF754FB002861D06E
:104BF000012F5FD1804B83F800802B787F4F012BF2
:104C00005FD03B780BB901233B7097F80080B8F177
:104C1000000F09D07A4A106800285DD1236813601C
:104C2000784A1360784A1360784F3B78012B40F044
:104C30000581DFF8DC91DFF8DC81D9F80020D8F8B5
:104C40000000A2F114012268121A914212D8724A8D
:104C50003188126891424FF00002C0F0C0806F4B63
:104C600055201A7002F0CAFB2F2803D12E2155209F
:104C700002F0D8FBD9F800202368D8F800100E3ACB
:104C80005B1A9A4200F2EB80654B32881B88A3F5D1
:104C90007A73934200F2A8800023604A5520137073
:104CA00002F0ACFB2F2840F0DA802E21552002F0D4
:104CB000B9FBD4E0532002F0A1FB2F289DD12E2177
:104CC00047E600234E4A3B7013604E4A13604E4A3B
:104CD0001360544A137098E7B8F1020F2CD0B8F162
:104CE000030F53D0B8F1010F9ED14D4B3288198874
:104CF00023681B1A4C48006883420BD3914293D817
:104D00002F21522002F08EFB02233B70454B83F88B
:104D1000008089E7914287D9022300223B70414BF2
:104D200052201A7002F06AFB2F287FF47DAF2E21EB
:104D3000522002F077FB77E70A223C4B31481B8870
:104D4000006803EB4303B3FBF2F322683188121AC5
:104D500037480068824208D38B423FF765AF2F2166
:104D60005F2002F05FFB0323CFE78B427FF75CAF4E
:104D7000032300223B702B4B5F201A7002F03EFB96
:104D80002F287FF451AF2E215F20D2E7294B1E48F8
:104D90001A680068236831881B1A27480068834214
:104DA0000CD39142FFF440AF2F21602002F03AFB78
:104DB0001C4B83F8008004233B7035E79142BFF41D
:104DC00033AF042300223B70164B60201A7002F0B0
:104DD00015FB2F287FF428AF2E216020A9E70F496B
:104DE0002A700B702F2142E701230C4A2F211370E8
:104DF00000232B705AE700BFAF030020A903002057
:104E00008C0200208802002084020020B1030020D0
:104E1000E000002098030020C0000020AD03002027
:104E2000A4030020B0030020D0000020F0000020E8
:104E3000AC000020CC000020B0000020022B0ED1DE
:104E4000B24B197801290AD1B14B1A8833889A429A
:104E5000B04A00F2A5810023AF490B70136040F205
:104E60000222AE4B2D781B68012D5A6340F0C081A1
:104E70003A782368002A40F0A581A94A116841B90F
:104E80001360A84A022113602A463D70A64804F028
:104E9000B7FDA64BDFF898B21888FFF70FF8A549C1
:104EA000FFF718F901903088FFF708F8A149FFF7DC
:104EB00011F9A14B9BF800201E68A04B05461B680A
:104EC000DFF87C920493002A40F08580019BD9F89A
:104ED0004040C9F80030C9F80C30049BC9F8040000
:104EE000C9F8100097492046C9F80860C9F814604D
:104EF000C9F84430FFF7D8F920B920469249FFF7A6
:104F0000F1F918B1914A1268C9F84020D9F8204047
:104F100000212046FFF7C8F920B920468C49FFF749
:104F2000E1F920B10198FFF78FFAC9F82000894A0A
:104F3000D9F82040D2F80080874A414620461768B9
:104F4000FFF7B2F938B939462046FFF7CBF9002808
:104F500000F05F81B8460198C9F82080C9F8248024
:104F6000FFF772FAC9F82800D9F84000FFF720FAD5
:104F70007749C9F83000C9F83410C9F82C00FFF798
:104F8000A9F80499FEF7F2FF4FF07E510446FFF7AF
:104F90008BF908B14FF07E540022C9F84840D9F887
:104FA000384000212046C9F88020A9F88420FFF766
:104FB0007BF920B920466949FFF794F928B100230D
:104FC0000022C9F8383089F83C200122019BCBF837
:104FD0000020CBF82030019B614AD9F80C40C9F879
:104FE0000030049B1768C9F844302146C9F80450C2
:104FF0000198C9F80860FEF7AFFE3946FEF7B6FF24
:105000002146FEF7ABFED9F8108004464146C9F8A8
:105010000C002846FEF7A0FE3946FEF7A7FF4146E2
:10502000FEF79CFED9F8145007462946C9F810002F
:105030003046FEF791FE4B4A1168FEF797FF29466E
:10504000FEF78CFE2146C9F8140005463846FEF7E7
:1050500083FE99F88320C9F81800002A40F0E58003
:10506000414A1168FFF734F9002800F0DB803F491E
:10507000DBF80C2009688A42C0F0CD80012289F853
:1050800083200022CBF8102099F883709BF803202E
:10509000BA4212D000220023CBF81420A9F88420B1
:1050A000002F00F0DD80CBF82430CBF81820C9F8B1
:1050B0004C30C9F858308BF803702D4AD2F800A054
:1050C0002C4A50461168FEF749FE9BF801600AF130
:1050D0000043022E8046029306D128460299FFF72C
:1050E000EDF8002840F02381284608F10041FFF741
:1050F000E5F8002840F0BD80012E3DD151462846FC
:10510000FFF7E6F8002840F0128135E0AA030020FE
:10511000A40300209C030020AE030020403D00209B
:105120008002002098030020000C0140F0000020C5
:10513000C002002000007A448803002058000020AC
:10514000F00200206F12833A9A99993E1C000020C9
:105150000000C84254000020500000200000A04180
:1051600038000020340000200C000020DC0000206B
:10517000140000201000002041462846FFF7A8F840
:10518000003818BF0120864200F0D1809BF8022031
:10519000824270D001228BF80200CBF808208AE00E
:1051A0001068236800283FF459AE634A1B1A12683E
:1051B00093427FF654AE614B5620197000232F2185
:1051C0002B7074E5012A7FF464AE5D4801685B1AB8
:1051D0005C4909688B4204D30022022102603970C5
:1051E00054E601398B42FFF454AE4FF480614DE632
:1051F000002D7FF44EAE544B2A461D60504B0221C9
:105200001D60524B52483D701D6004F0F9FB2A4668
:10521000EBE7A0469FE601329142CBF80C203FF627
:1052200033AF2BE7CBF80C002EE74A4A1168FFF7A3
:1052300045F890B14049DBF8102009688A4205D34F
:10524000002289F88320CBF80C201DE7013291421F
:10525000CBF810203FF618AFF2E7CBF8100013E7B9
:10526000CBF82830CBF81C70C9F85030C9F854304E
:1052700021E7022087E73049DBF8082009688A42E5
:1052800014D302284FF0000240D10023CBF818209D
:10529000CBF82430C9F84C30C9F85830A9F884202C
:1052A000CBF814208BF80100002276E701329142FE
:1052B000CBF80820E5D99BF80130991E4A4203F14A
:1052C000FF304A41009389F8803089F88120224BD1
:1052D000424242411E6889F88220002F40F08482B9
:1052E00000212846FEF7E0FF20B305F100413046DB
:1052F000FEF7EEFF002800F07782DBF81490B9F19A
:10530000000F2BD10123CBF8204042E0012809D126
:105310000023CBF81C20CBF82830C9F85030C9F84E
:105320005430BBE7CBF81420CBF82040BAE78BF819
:105330000260B9E72946DAE7DC000020AE0300206E
:1053400080020020E00000209C0300209803002041
:10535000000C01400800002000000020DBF82010B5
:105360002046FEF7F9FC00210646FEF79DFF08B136
:1053700006F10046AC4BAD4A1B68314610680393FA
:10538000FEF7A6FF0028BDD0039B994503D209F183
:105390000103CBF81430A449DBF814300968A44E9B
:1053A0008B4296F83C2080F00B82002386F88430F4
:1053B000DFF87CB2DBF8403018460693FEF7F8FFC2
:1053C0009BF83C30064609939BF884300393099B75
:1053D000002B00F01282DBF83800FFF785F88146D9
:1053E00049463046CBF83060CBF83490FEF75CFF8E
:1053F00000B1B146DFF838B28E494846CBF82C9060
:10540000FEF768FE0499FEF7B1FD4FF07E510646A7
:10541000FEF74AFF08B14FF07E5651462846CBF8BA
:105420004860FEF755FF002800F0EF8151462846FE
:10543000FEF792FC834628460299FEF73FFF0028BC
:1054400000F0E681514605F10040FEF785FC029030
:1054500002995846FEF780FC77490C900298FEF7B7
:1054600085FD75490A905846FEF780FD734B0790FD
:105470001B680A9819460893FEF778FD07990D9066
:10548000FEF76AFCDFF8A8816A490B90FEF76EFD13
:105490003146FEF71FFED8F82410FEF75FFC684A7D
:1054A00006461368674A1946D2F800900593FEF73E
:1054B000FBFE002840F0AF8149463046FEF712FF60
:1054C00000B14E46039BC8F82460002B00F0A58174
:1054D0000122204688F88520C8F81C40FEF7B4FF5A
:1054E0003146C8F82800FEF737FC574A1168FEF726
:1054F0003DFD3146FEF732FCC8F82400DFF830A14C
:105500000598DAF824502946FEF7ECFE002840F012
:10551000B48129464846FEF7C7FE00B14D46009BC0
:10552000CAF82450012BCAF820500DD1DFF81C9185
:1055300099F8043043B1464B58461968FEF7B4FE5B
:105540000646002800F09B810023DFF8E480414AF2
:10555000D8F840A013605046FEF72AFF099B064684
:10556000002B00F0BA81D8F83800FEF7BDFF0746DF
:1055700039463046C8F83060C8F83470FEF794FEFB
:1055800000B137462A4E2B493846F762FEF7A2FD96
:105590000499FEF7EBFC4FF07E518046FEF784FE47
:1055A00008B14FF07E580D99F06DC6F84880FEF7AF
:1055B000D5FB0799F065706EFEF7D0FB0B9970660E
:1055C000F06EFEF7CBFB0A99F0662046FEF7CEFCA4
:1055D0000899FEF7CBFC316EFEF7C0FB07993066E9
:1055E0002046FEF7C3FC0146B06EFEF7B7FB0B99F1
:1055F000B0662046FEF7BAFC0146306FFEF7AEFB00
:10560000002130670298FEF76DFE50B30F4B0298F1
:10561000596AFEF7A3FB0D4B814658629869013029
:105620009861FEF74BFC17E0480000204C0000207A
:10563000F00200200000C842DC69BA352C000020CE
:10564000540000205000002028000020C00200204C
:10565000040000207C02002001464846FEF73AFD87
:10566000F06400215846FEF73DFEB0B1DFF88892A5
:105670005846D9F82810FEF771FB0646C9F82800ED
:10568000D9F81C000130C9F81C00FEF717FC0146D0
:105690003046FEF71FFD994B18650C992046FEF722
:1056A00065FC964E002170670298FEF71BFE0028ED
:1056B00000F01A8120460299FEF758FCB0670021DD
:1056C0005846FEF70FFE002800F01081594620468C
:1056D000FEF74CFC009BF067012B40F03581D6F8BB
:1056E000509087494846FEF7FDFD002800F00081F4
:1056F00084492846FEF7EEFC4146FEF737FC494652
:10570000FEF7E8FC70650020B0657F493846FEF77B
:10571000D5FD002840F03B81039B3BB17B4B2046ED
:105720001968FEF7CBFD002840F031812846784902
:10573000FEF7C4FD071E18BF0127039B86F886707D
:105740003BB1744B20461968FEF7B8FD002840F0C5
:1057500020814FF082412846FEF7B0FD041E18BF9D
:1057600001246D4B0198196886F88740FEF7A6FD65
:1057700030B158466949FEF7B5FD003818BF012021
:10578000039B86F88800002B40F00581644D50464D
:105790006449FEF79DFD48B150466349FEF78EFD12
:1057A00020B128466149FEF7D9FA0546009B022B35
:1057B00040F0F38028465E49FEF7D0FA0546F0E057
:1057C0000123CBF82C4086F884308BF8043032B1BA
:1057D0002046B16BFEF768FD00283FF4E9AD0123D8
:1057E000B46386F83C30E3E50023444ACBF8143038
:1057F000CBF8204082F88430DAE5039B13B10FB96F
:105800002046EAE5DFF8FC90EAE54FF0000B12E6EF
:10581000002302931CE6059E54E6039B88F885301E
:10582000009B002B7FF46AAE00212846FEF73CFD6A
:1058300008B105F100453F495046FEF78FFA294669
:10584000FEF746FD00283FF459AE3B4B4FF07A512E
:105850001868FEF78BFBDFF8A4A005463146DAF89E
:105860002800FEF779FA01462846FEF77FFB31460D
:10587000FEF774FACAF8240040E6059D4FE62F4B68
:105880002F4A1B681268934201D201335DE621461C
:10589000D9F82C00FEF760FA5946FEF71BFC2149A7
:1058A0008046FEF715FD00283FF44EAE40461E49E7
:1058B000FEF704FD00283FF447AE06994046FEF788
:1058C0004BFA204B1968FEF751FB0699FEF746FA92
:1058D00089F80460CAF8400036E6039B13B10FB99B
:1058E000204642E6074F43E60020E7E60020F1E6C7
:1058F0000023736507E700BFC0020020F00200200C
:10590000CDCC4C3D0000C842000082424400002043
:105910000000A041400000203C0000200000A0400A
:1059200000000C426F12833A9A99993E0000704130
:1059300000002041CDCCCC3D280000207C0200207E
:10594000DC0000203000002000237365009B022B48
:105950007FF4D9AED6F84C9024494846FEF7C2FCF5
:1059600000283FF4D0AE29462148FEF7F5F920493A
:10597000FEF7B0FB4146FEF7F9FA49468046089823
:10598000FEF7F4FA01464046FEF7A4FBBCE6012709
:10599000D3E60124E5E6174DF9E6009B012B3FF421
:1059A00009AF27B128461449FEF7D6F9054624B1B8
:1059B00028461249FEF7D0F9054600212846FEF791
:1059C00073FC88B928460A49FEF78CFC00B1084DE3
:1059D0002846FEF7CDFC0A4A86F889001368013391
:1059E00013600FB0BDE8F08F0025F1E7CDCC4C3D42
:1059F0000000C842000070420000A04000002041AA
:105A0000A0030020F8B540F2C17200234FF4966560
:105A1000084C094EC4E90023C4E90233074F206152
:105A200033463A462146064803F0B6F908B1013D2F
:105A3000F6D1F8BD20040020C8030020380400205F
:105A4000103A0020FE22064B1A70002258700820DF
:105A50009A70DA701A715A719A71DA71FFF7D2BFBF
:105A6000380400202DE9F74FDFF8C082B04F98F8D6
:105A700000203B68022AAF4C40F03181AE4A1278D8
:105A8000002A40F02C81AD4AAD492BB1C820B3FBB0
:105A9000F0F500FB15331BB110780B7898423DD020
:105AA0000B78A8481370A84A9B00117803F00403F0
:105AB0000E298CBF00211178A44D9CBF0131C9B2C1
:105AC00011701278617802F01F020A43A17842F047
:105AD000A0020B4343F002036270A37001A943EAE2
:105AE00002230122019303F0A1FB03232B61512325
:105AF0004FF49666DFF85892DFF838A220702B60DA
:105B00004B4652462946934803F046F908B1013EF8
:105B1000F6D10023236063602B612B6028223B6851
:105B2000B3FBF2F102FB1133002B40F0D2808A4B21
:105B30001B785B0640F1CD80884D844EEB6D4FF4B1
:105B4000966923606B6EDFF808A2636008233361F7
:105B500040F2F163DFF8DCB1336053465A46314618
:105B60007C4803F019F910B1B9F10109F5D12B6A9C
:105B70004FF496692360AB6ADFF8D4A16360082311
:105B8000336140F2F263DFF8ACB1704933605346E1
:105B90005A46704803F000F918B1B9F101096B4990
:105BA000F5D16B6A4FF496692360EB6ADFF8A0A128
:105BB00063600823336140F2F363DFF878B163492F
:105BC000336053465A46634803F0E6F818B1B9F11A
:105BD00001095E49F5D1AB6C4FF4966923602B6CDB
:105BE000DFF86CA163600823336140F2F463DFF8EF
:105BF00044B15649336053465A46564803F0CCF8F0
:105C000018B1B9F101095149F5D1EB6C4FF496691E
:105C100023602B6DDFF838A163600823336140F205
:105C2000F563DFF810B14949336053465A46494895
:105C300003F0B2F818B1B9F101094449F5D16B6D1F
:105C40004FF496692360AB6DDFF804A1636008230D
:105C5000336140F2F663DFF8DCB03C493360534611
:105C60005A463C4803F098F818B1B9F10109374990
:105C7000F5D195F88430DFF8BC90237095F8813029
:105C8000DFF8C8A0637095F88230A37095F886306D
:105C9000E37095F88730237195F88830637195F833
:105CA0008530A37195F889304FF49665E371082328
:105CB000336140F2F7633360254E33464A4651461E
:105CC000244803F069F808B1013DF6D100232360B0
:105CD00063603B681BB1204E33785A0655D4204B85
:105CE00020491A68204D0132C72A1A6088BF012254
:105CF0003B6888BF88F8002001333B600B680133A4
:105D00000B602968C82B01F10101296040F2BB80BA
:105D10002F215A2001F086FB2B68C82B40F2BB8054
:105D20002F215D2001F07EFB20E000BFF700002066
:105D3000CC0300200D04002085040020B4030020C3
:105D4000A8030020743A002005040020D00300209E
:105D5000C8030020103A00201D040020F00200209B
:105D6000C4030020C0030020BC030020524B1B686A
:105D7000322B40F298802F215B2001F053FB00234F
:105D80002360636003B0BDE8F08F4C4B4C4D1B8823
:105D90004FF4966923701B0A63704A4BDFF828A101
:105DA0001B88DFF828B1A3701B0AE370484B1B68FF
:105DB000636008232B6140F2EF632B6053465A4621
:105DC0002946444802F0E8FF10B1B9F10109F5D1C4
:105DD0000023236063602B612B603B68002B3FF442
:105DE0007EAF33785B067FF57AAF3B4B4FF4966915
:105DF0001B68DFF8D4A02360384BDFF8D0B01B68F5
:105E00002F49636008232B6140F2EE632B605346F9
:105E10005A46304802F0C0FF18B1B9F101092849CB
:105E2000F5D10023236063602B612B603B68002B5E
:105E30003FF455AF337858067FF551AF284B4FF4F8
:105E400096661B68DFF880901A0A237062701A0C3D
:105E50001B0EE37004232B614FF4DE63DFF86CA0AC
:105E6000DFF85CB0A2702B604B4652465946194889
:105E700002F092FF08B1013EF6D100232360636077
:105E80002B612B602BE75A2001F0B8FA2F287FF402
:105E900043AF2E213DE75D2001F0B0FA2F287FF4BB
:105EA00065AF2E213DE75B2001F0A8FA2F287FF493
:105EB00066AF2E2160E700BFB8030020F00000208D
:105EC000D0030020F2000020C80300200D040020B1
:105ED00088030020103A00208C0300207C0300205F
:105EE0009403002038B51A4C1A4D22462B46012146
:105EF00002F0A4FF40F2027322689A421CD1164BB2
:105F00001A6022691A612A78022A08D16B783E2B1E
:105F100005D1AB781BB911490A70114A13600D49BC
:105F20000D4800F0B5FD38B90E4A2B6813606B6858
:105F3000536001220C4B1A700022C4E90222226134
:105F40006260A261226062612A606A6038BD00BF3F
:105F5000E8030020150400204C040020F700002076
:105F6000C40300208E0400209E0400202DE9F84385
:105F7000994C9A4D22462B46002102F05FFF40F2D9
:105F8000022322689A4217D12B68954903F03F00FB
:105F900008709449C3F3831008709349C3F38420B5
:105FA00008709249C3F3C43008709149C3F3055097
:105FB000087090499B0E0B708F490B78022B40F0B4
:105FC000FB80A368002B40F0F780B2F5F86F40F03B
:105FD000F380217C2A78002900F0A280F43A0B2A71
:105FE00000F2E880DFE812F0A80069004900E6004E
:105FF000E600E600DE00D100E6003C0025000C00D3
:1060000040F201127D4B80211A80FF227C4B082038
:106010001A709970012200215A705971D870187144
:106020009A71DA71FFF7EEFC2F21612001F0FAF985
:1060300076E00022FF21714B08201A80704B197006
:106040005A709A70DA701A715A719A71DA71FFF790
:10605000D9FC612001F0D2F92F2861D12E21E4E78B
:10606000FF22674B1A70654A52785A7000229A7064
:10607000DA701A715A719A7192E0062903D82220B7
:10608000FFF7E0FC4CE05D49AB78D5F803208B705E
:106090004A60002BF3D1B2F1005FF0D359498A4234
:1060A000EDD0FF21564A117053709370D370137165
:1060B00053719371D371082030E001296F78DED0DD
:1060C0007A1E062ADBD8DFF8348198F80220002AED
:1060D000D5D1D8F80460B6F1005FD0D3C6F1005234
:1060E00002F5A0429742CAD8454AFF2110461170D6
:1060F000F15C013302F8011FD9B2B942F8D307F1BC
:1061000001095FFA89F9C7F107020021D2B24844B8
:1061100007F006FC48463E44C8F80460FFF772FCEE
:106120000023C4E9023323616360A36123606361D8
:106130002B606B60BDE8F88307296A789FD9511EF0
:1061400006299CD8E978002999D16E68B6F1005FDC
:1061500095D3C6F1005101F5A0418A428FD8FF20A6
:10616000274908700846F75C013301F8017FDFB268
:10617000BA42F8D8561CF6B2C2F107020021D2B2D8
:10618000304407F0CDFB3046C8E7FF221C4B1A70A5
:1061900000225A709A70DA701A715A719A7110222C
:1061A000DA7188E701293FF46AAFFF22144B1A70B5
:1061B00001225AE7202063E740F2FF339A4227D1B9
:1061C0002B78114A13F0600F1370A9D0022300221C
:1061D0000B700E4B1A60A3E7E803002015040020A3
:1061E0000C0400200B0400200A04002009040020F5
:1061F0000804002007040020F700002040040020CD
:1062000038040020005000201D040020C40300209A
:10621000972A0CD100223A4B1A603A4B2A781A700E
:106220001B78062B55D92F215E2001F0FBF823683F
:10623000502B7FF475AF0022334B6E781A603346D3
:106240000822A97806F01F005FB2002F4FEA43032F
:10625000DBB245DB013A12F0FF02F5D108224B40D8
:106260005FB2002F4FEA4303DBB23CDB013A12F08E
:10627000FF02F5D1254F3A78013202F01F02904219
:1062800034D0013202F01F02A2EB000CDCF100025C
:1062900042EB0C0295F800C09C45DFF874C027D192
:1062A000CB0003F0180343EA5613162B20D1FAB1A2
:1062B000184BC1F38001197000233870CCF80030FE
:1062C0005C2001F09BF82F287FF42AAF2E215C2060
:1062D000ACE65E2001F092F82F28A8D12E21A3E78A
:1062E00083F00703B6E783F00703BFE70122D1E796
:1062F000DCF8003038700133CCF80030E0E700BF44
:10630000BC03002006040020C00300200404002079
:10631000B8030020F50000202DE9F04114461422B6
:1063200007468AB09DF840800D460DEB0200002123
:106330001E4607F0F5FA0497B8F1000F0DD00822B9
:1063400031460DEB020007F0EBFA224629460824FD
:1063500002A807F017FB0DEB04050894054C2A462C
:10636000204601AB04A902F017FD0028F7D10AB0BE
:10637000BDE8F081103A0020F8B507460E4602F05D
:1063800021F80546154C02F01DF82369401B984280
:1063900001D3002016E02378002BF4D000232370D3
:1063A000A37813F00F0310D194F90420E378002AA6
:1063B0003B70237904DA0F33DBB2082B03D80123B7
:1063C00001203370F8BDA37AFAE7012B03D101F065
:1063D000F9FF0546D7E74FF0FF30F3E7040100204F
:1063E0000B8810B59C1CB4F5207F09D8140AC4543E
:1063F0000B881844427001200B8802330B8010BDBB
:106400000020FCE738B504461D46FFF7E9FF18B148
:106410002A462046FFF7E4FF00F0010038BD70B5C2
:1064200005461E46FFF7DCFF58B10B881A1DB2F572
:10643000207F97BF01200020EE500B889CBF0433C3
:106440000B8070BD70B505461E46FFF7C9FF58B1F9
:106450000B885A1CB2F5207F97BF01200020EE5414
:106460000B889CBF01330B8070BD000070B51546D2
:10647000064688B00C461422002103A807F050FA03
:106480000695064D02962246284601AB02A902F067
:1064900083FC0028F7D108B070BD00BF103A00207F
:1064A00038B5124D124C2B781249013323706B789A
:1064B0000A6940336370AB780868A370EB780130E9
:1064C000E370012323716B7921466371AB79A3716A
:1064D000EB79E371084B1A61D2B21860FFF7C6FF7F
:1064E0000023236063602B606B6038BD960400203E
:1064F000860400204C0400206804002038B5134DA9
:10650000134C2B781349013323706B780A6940339D
:106510006370AB780868A370EB780130E3700E4BC2
:1065200021461B6823716B796371AB79A371EB7999
:10653000E3710A4B1A61D2B21860FFF797FF00238C
:10654000236063602B606B6038BD00BF9604002041
:10655000860400204C040020C04F00206804002066
:1065600003232DE9F0412C4C2C4D23707F236370C5
:106570006B78DFF8AC80A3707823E3702B79D8F8C0
:10658000102023716B79274F6371AB79D8F8000025
:10659000A371EB793A610130D2B22146E3713860E0
:1065A0001226FFF763FF50221F4B013E16F0FF0635
:1065B00043F8042BF9D14FF4D87231461B4807F049
:1065C000AFF90120184901F00DF80220174901F038
:1065D00009F82B78D8F8102023706B78D8F80000D1
:1065E00040336370AB783A61A370EB780130E370AD
:1065F0002B79094923716B79D2B26371AB79386019
:10660000A371EB79E371FFF731FF266066602E60BE
:106610006E60BDE8F08100BF860400209604002073
:106620004C0400206804002018010020A30400206E
:1066300038B5134D134CEA782B78E2702A79237021
:1066400022716A796B786271AA794033A271EA7912
:106650000D496370E271AB780C4A08681370A3703F
:106660000A690B4B01301A612146D2B21860FFF75C
:10667000FDFE0023236063602B606B6038BD00BFAC
:1066800096040020860400204C040020850400208D
:106690006804002038B5134D134CEA782B78E2706B
:1066A0002A79237022716A796B786271AA794033F2
:1066B000A271EA790D496370E271AB780C4A0868FF
:1066C0001370A3700A690B4B01301A612146D2B2D4
:1066D0001860FFF7CBFE0023236063602B606B60C4
:1066E00038BD00BF96040020860400204C04002022
:1066F000840400206804002038B5144D144C2B7815
:10670000013323706B7840336370AB78A370EB7800
:10671000E370104B1868FDF72BFE6B790E4963711F
:10672000AB790A69A371EB792071E37108680B4BAF
:1067300001301A612146D2B21860FFF797FE00239C
:10674000236063602B606B6038BD00BF960400203F
:1067500086040020B43A00204C0400206804002085
:1067600038B5134D134C2B781349023323706B78D3
:106770000A6940336370AB780868A370EB78013026
:10678000E3700E4B21461B7823710D4B1B78637110
:10679000AB79A371EB79E3710A4B1A61D2B218603D
:1067A000FFF764FE0023236063602B606B6038BDDD
:1067B00096040020860400204C040020D14F0020C5
:1067C000D04F00206804002038B5134D134C2B78AF
:1067D0001349043323706B78086840336370AB78D7
:1067E0000130A370EB78E3700E4B1B681A0A23711B
:1067F00062711A0C1B0EA271E3710A690A4B2146E1
:106800001A61D2B21860FFF731FE00232360636083
:106810002B606B6038BD00BF96040020860400200A
:106820004C040020C44F00206804002038B5134DEC
:10683000134C2B781349043323706B78086840336A
:106840006370AB780130A370EB78E3700E4B1B687C
:106850001A0A237162711A0C1B0EA271E3710A6984
:106860000A4B21461A61D2B21860FFF7FFFD0023E0
:10687000236063602B606B6038BD00BF960400200E
:10688000860400204C040020CC4F00206804002027
:1068900038B5134D134C2B781349043323706B78A0
:1068A000086840336370AB780130A370EB78E37015
:1068B0000E4B1B681A0A237162711A0C1B0EA2710F
:1068C000E3710A690A4B21461A61D2B21860FFF7D8
:1068D000CDFD0023236063602B606B6038BD00BF7B
:1068E00096040020860400204C040020C84F00209D
:1068F0006804002038B5124D124C2B7812492370D1
:106900006B780A6940336370AB780868A370EB78E2
:106910000130E3702B79214623716B796371AB7978
:10692000A371EB79E371094B1A61D2B21860FFF7DA
:106930009DFD0023236063602B606B6038BD00BF4A
:1069400096040020860400204C04002068040020E7
:1069500038B5134D134CEA782B78E2702A792370FE
:1069600022716A796B786271AA794033A271EA79EF
:106970000D496370E271AB780C4A08681360A3702C
:106980000A690B4B01301A612146D2B21860FFF739
:106990006DFD0023236063602B606B6038BD00BF1A
:1069A00096040020860400204C040020C04F0020E4
:1069B0006804002038B5174D174CE9796A791748F3
:1069C000E171174962710A70026900681549013066
:1069D0000A61086041F288312B78D2B223706B785B
:1069E00040336370AB78A370EB78E3702B7923713D
:1069F000AB79A3714B430521B3FBF1F30A490B605B
:106A00002146FFF733FD0023236063602B606B603A
:106A100038BD00BF96040020860400204C040020EE
:106A2000FC000020680400204804002038B5134D05
:106A3000134C2B781349013323706B780A69403368
:106A40006370AB780868A370EB780130E3700E4B8D
:106A500021461B7823716B796371AB79A371EB7954
:106A6000E3710A4B1A61D2B21860FFF7FFFC0023F2
:106A7000236063602B606B6038BD00BF960400200C
:106A8000860400204C040020A80300206804002095
:106A90000022134B30B51A605A60124B04461A603C
:106AA0005A60114B5D7805F0FF00ADB1A068A0B948
:106AB0002468DA6894420FD10A7802F0F002302A92
:106AC0000AD11A783AB90A68C3F802204A68C3F8AA
:106AD000062001221A70012030BD1046FCE700BFDD
:106AE0008604002096040020040100202DE9F04FC8
:106AF000072A89B0884615469DF848B0039300F1EF
:106B0000010AD4B214D80DF119008DF8184006F01E
:106B100039FF621C5046039BCDF800B0D2B206A9E3
:106B2000FFF7FAFBB0FA80F0400909B0BDE8F08F3A
:106B30004FF001090027C2F3032242F010028DF842
:106B400018200A688DF81940CDF81A20384C8A8828
:106B500084F80190E060ADF81E20277008225046AE
:106B6000CDF800B006A9FFF7D7FB064610B1677055
:106B70000020DAE7A27A8DF816000DF117010DF169
:106B800016008DF81720FFF7F7FB002801DC667070
:106B9000EEE706279DF816409DF816306BB164B9F4
:106BA0000DF117010DF11600FFF7E6FB002802DCDE
:106BB0001F4B5C70DCE79DF81640EE1B072E28BFCC
:106BC000072649F02003072203990DF119008DF8DB
:106BD000183006F0A5FE324608EB07010DF119004A
:106BE00006F0D0FE721C5046039BCDF800B0D2B226
:106BF00006A9FFF791FB18B100220D4B5A70B7E7B9
:106C000009F1010303F00F099DF816303E44B7B2B5
:106C100013B10CB1013CE4B29DF8170008B101F0CA
:106C2000D7FBBD42B8D80022014B01205A707CE747
:106C30000401002040F25923F0B597B0ADF80C30B4
:106C4000FF23002403221F4D1F4EEF78DFF87CC086
:106C50008DF80E3056F8041BC9B2502920D00F42CF
:106C60001ED05CF824E002F158036B444FEA1E404A
:106C700003F84C0C531C9BB258336B444FEA1E2054
:106C800003F84C0CD31C901C9BB280B25830583384
:106C9000684404326B4400F84CEC92B203F84C1C8C
:106CA0000134122CD6D1002409480094234603A9AC
:106CB0000068FFF71BFF074B2C601C605C606C607A
:106CC00017B0F0BD9604002018010020D8DC0008A1
:106CD0004C04002086040020F8B50323214C224DEB
:106CE00023707F2363706B78204FA3707823E37049
:106CF0002B791F4E23716B793A696371AB793868D0
:106D0000A371EB79214632610130D2B2E371306078
:106D1000FFF7ACFB00F0E6FCEA782B78E2702A790A
:106D2000237022716A796B786271AA794033A271FB
:106D3000EA796370E271AB780E4A386813603A6999
:106D4000214632610130D2B2A3703060FFF78EFB72
:106D5000012001F03DFBBDE8F8400021084601F0AC
:106D6000C7BA00BF86040020960400204C0400200F
:106D700068040020C04F0020032370B50D4C00258F
:106D800023707F2304220C4E0C4963707378E070EB
:106D90000868A3700A4B0130214625716571A57101
:106DA000E5711A611860FFF761FB25606560356069
:106DB000756070BD86040020960400204C040020FD
:106DC000680400202DE9F04F0024794BADF5257DB6
:106DD0001A78ADF80E40042A06D813200DF5257D4B
:106DE000BDE8F04FFFF7C8BF1E79DA78360246EAF1
:106DF000024693F806905A790223ADF80E3040F21D
:106E000059432046DFF8AC81DFF8ACA16B4D164347
:106E1000ADF810305AF8042B58F8041BD2B2502A9F
:106E200000F0AD806FF07F439E4202D08E4240F072
:106E3000A680B9F1FF0F03D0B9F1010F40F09F8098
:106E4000BDF80E30D81CB0F5207F00F291800F0CF9
:106E50000DF1100C0CF803704FEA112C0DF1110715
:106E600007F803C00DF11207F95440F27D218B425F
:106E7000ADF80E007CD004A90A541A1D92B2511C20
:106E8000B1F5207FADF80E2072D8012104A88154FD
:106E90005A1D92B2B2F5207FADF80E2068D00633AD
:106EA000ADF80E3018230C216343444F8154FB5A34
:106EB0004FF473420DF10E01FFF7A4FA002857D0EA
:106EC0004FF20132AB7804A8FFF7BCFA00284FD08C
:106ED0004FF20232EB7804A8FFF7B4FA002847D04B
:106EE0004FF203322B7904A8FFF7ACFA00283FD009
:106EF0004FF204326B7904A8FFF7A4FA002837D0C8
:106F00004FF20532AB7904A8FFF79CFA80B34FF239
:106F10000632EB7904A8FFF795FA48B34FF207322F
:106F20002B7A04A8FFF78EFA10B3182303FB04771B
:106F30004FF20832B7F8093004A8FFF763FAB8B186
:106F40004FF20932B7F80B3004A8FFF75BFA78B1BB
:106F50004FF20A32D7F80D3004A8FFF760FA38B1C3
:106F60004FF20B32D7F8113004A8FFF758FA30B9B6
:106F70003120FFF701FF0DF5257DBDE8F08F0134CD
:106F8000122C05F118057FF445AF0028F0D000243D
:106F90000B4800942346BDF80E20006804A9FFF7B3
:106FA000A5FD084B1C605C60014B1C605C60E2E767
:106FB00096040020D8DC000818010020A30400205B
:106FC0004C0400208604002003232DE9F041244CCA
:106FD000244D23707F2363706B784FF00008A370FB
:106FE0007823E3702B79204F23716B791F4E6371E7
:106FF000AB793A693868A371EB7921463261013087
:10700000D2B2E3713060FFF731FA194B83F8008098
:10701000184B83F8008000F065FB2B783A692370E9
:107020006B78386840336370AB782146A370EB7897
:107030003261E3702B79013023716B79D2B26371C5
:10704000AB793060A371EB79E371FFF70FFA0120A0
:1070500001F0BEF941464046BDE8F04101F048B9B3
:1070600086040020960400204C04002068040020C0
:10707000D04F0020D14F002070B5154D154C2B7806
:10708000154E043323706B78214640336370AB7820
:10709000A370EB78E370114B1A7822715A78DB7881
:1070A00062710F4AE37192F822210E4BA2711868A7
:1070B0001A6901303261D2B23060FFF7D7F900238C
:1070C00033613360236063602B606B6070BD00BF11
:1070D000960400208604002068040020FD000020A3
:1070E000740600204C040020F8B50026144B154D02
:1070F0001E70154B154C1E702B78154F23706B7836
:10710000214640336370AB78A370EB78E3702B7942
:1071100023716B796371AB79A371EB79E3710D4BDB
:107120001A6918683A610130D2B23860FFF79EF9E7
:10713000266066602E606E603E613E60F8BD00BFF6
:10714000A703002096040020A60300208604002048
:10715000680400204C04002038B572B67748784C9B
:107160000378784A002B5AD0774B19682160596808
:1071700061600021196059604FF47A7301701360E7
:1071800072490B68002B4FD1FF21714B197062B609
:10719000704D2B6843B901216F4B196005216F4B6E
:1071A000997242F210711961136813B901226A4B86
:1071B0001A606378192B04D1A378042B09D1FFF747
:1071C00001FE6378142B01D1FFF7CAF96378192BFC
:1071D00004D1A378022B13D1FFF72CFD6378282B61
:1071E00005D15D4B1B68032B23D1FFF721FA637890
:1071F000852B05D1584B1B68032B1ED1FFF74AFA8C
:107200006378222B30D1E378062B1AD80BB3013BDD
:10721000052B1ED8DFE803F0261D5D60636613684A
:10722000002BADD0013BAAE7013B0B60002BAED198
:10723000AAE77F20FFF7A0FDD9E77F20FFF79CFD9D
:10724000DEE77F2B57D01A0607D41D2B4DD07E2B9F
:107250004ED01220FFF790FD06E0802BF9D1FFF70A
:107260000BFF01E0FFF7B0FAA378022B09D13A4BEC
:107270001B68032B4AD13A4B1A78062A3ED1FFF7F6
:107280002BFD6378112B04D1A378012B01D1FFF7DB
:107290009BFE22796378402A03D1312B0DD1FFF771
:1072A00023FF22796378422A07D1312B05D12A4B5B
:1072B0001B68032B2ED1FFF77DFB6378102B32D197
:1072C000A378012B2AD0A378032B33D1FFF740FBFF
:1072D00029E0FFF7ABFAC7E7FFF7DAFAC4E7FFF7F1
:1072E0003FFAC1E7FFF708FABEE7FFF79FFBBBE7EE
:1072F000FFF704F9B8E7FFF7D3F8B5E71A78062ADD
:10730000BFD01B78062BBCD0222000E07F20FFF7E7
:1073100033FDB6E77F20FFF72FFDCEE7FFF718FB21
:107320006378102BCFD063783E2B03D1A3780BB9B1
:10733000FFF7E0FA2B6801332B6038BD9E04002074
:1073400096040020F80000208E040020480400204D
:10735000FC00002080040020C04F00200401002019
:10736000060400207047000011282ED81823584327
:1073700016490A5A0B1801320A52154A022012788D
:107380009A70144A1278DA70134A12781A71134AF2
:1073900012785A71124A12789A71124A1278DA7176
:1073A000114A1288A3F80920104A1288A3F80B206A
:1073B0000F4A1268C3F80D200E4A1268C3F8112054
:1073C0000D4A12781A7200F00DB97047A30400201C
:1073D0000C0400200B0400200A04002009040020F3
:1073E0000804002007040020F2000020F000002024
:1073F0008C03002088030020060400200023074A95
:1074000052F8041B814204D00133122BF8D1002022
:107410007047034A12F82300704700BFD8DC000809
:1074200018010020304B2DE9F0410D46002498460C
:1074300088B053F8042B824208D00134122CF8D1C2
:1074400008B0BDE8F0812F2DFAD115E0274B1B784D
:10745000002BF5D1264E56F82470AF42F3D02F2DD5
:1074600046F82450ECD13146012000F0BBF8E0B2E0
:10747000FFF77AFF46F82450FFB22F2FE0D01D4BC4
:107480001B78022BDCD11422002103A806F048FA55
:1074900058F82430184C1A0A190E23706270C3F37E
:1074A0000542C3F3816363F04303E37004230025C3
:1074B000069340F2FE7342EA8112104F104E01957E
:1074C000A27002932246384601AB02A901F064FC87
:1074D000013510B13368AB42F4D8002323706370D8
:1074E000A370E370ACE700BFD8DC00088404002080
:1074F00018010020F70000209F040020103A00200F
:10750000D4DC00080068704702464FF0006306496B
:10751000184603F580639A4201D2824202D28B421E
:10752000F6D10020704700BF0000020813B50C48D8
:10753000FFF7EAFF044602F053F80023094801A9C7
:10754000036001238460C36002F0FAF8044618B1B6
:1075500002F062F802B010BD02F054F82046F9E7DC
:10756000003800086406002013B50C48FFF7CCFF74
:10757000044602F035F80023094801A903600223FC
:107580008460C36002F0DCF8044618B102F044F8ED
:1075900002B010BD02F036F82046F9E700F8000806
:1075A0005406002070B50C460646154602F018F841
:1075B00004EB8505361BAC4204EB060103D102F057
:1075C00021F800240CE00023022054F8042B02F0E0
:1075D00053F80028EFD002F01FF8044602F012F82A
:1075E000204670BD2DE9F04F431E022B884685B022
:1075F0003BD8002939D072B600224FF0FF33CDE9D5
:1076000002230C2303FB00F4DFF874B01D4E3BF89B
:1076100004901D484FEA99094A46356801F006FE74
:107620003BF8043005F110021344184A18499342FC
:1076300007460BEB040A21441AD2022228460835D9
:10764000FFF7B0FF4A4641462846CAF80450FFF704
:10765000A9FF3BF8044002222C44204602A908342A
:107660000297FFF79FFF346062B605B0BDE8F08F68
:10767000019100F00FF8022235680199DEE700BFA2
:1076800098070020F8070020743A0020FFFF000848
:10769000C807002013B572B6FFF766FF4FF0B63388
:1076A0000D4C0E4802226946CDE900332060FFF7F9
:1076B00079FF2368012008332360094C6168FFF7D4
:1076C00091FFA1680220FFF78DFF0320E16802B05F
:1076D000BDE81040FFF786BFF807002000F800085B
:1076E0007001002038B572B60024084D15F8013B32
:1076F000012B05D1064BA0B253F82410FFF772FFFF
:107700000134042CF2D162B638BD00BFE001002084
:107710007001002001EB8202401A914200D17047B3
:10772000435841F8043BF8E72DE9F84FBA4C492299
:107730002146BA48FFF7EEFF94F82331B849AA2B47
:10774000B84AB94B40F0E48104F10800FFF7DAFED3
:10775000B64D286004F10C00FFF7D4FEB44D28604C
:1077600004F11000FFF7CEFEB24D286004F11400C2
:10777000FFF7C8FEB04D286004F11800FFF7C2FE05
:10778000AE4D286004F11C00FFF7BCFEAC4D286034
:1077900004F12000FFF7B6FEAA4D286004F1240092
:1077A000FFF7B0FEA84D286004F12800FFF7AAFEFD
:1077B000A64D286004F12C00FFF7A4FEA44D28601C
:1077C00004F13000FFF79EFEA24D286004F138005E
:1077D000FFF798FEA04D286004F13C00FFF792FEF1
:1077E000086004F14000FFF78DFE106004F14400D2
:1077F000FFF788FE186004F14800FFF783FE974BFF
:10780000186004F14C00FFF77DFE954B186004F101
:107810005400FFF777FE934B186004F15800FFF710
:1078200071FE914B186004F15C00FFF76BFE8F4B0B
:10783000186004F16000FFF765FE8D4B186004F1DD
:107840006400FFF75FFE8B4B186004F16800FFF7E0
:1078500059FE894B186004F16C00FFF753FE874B0B
:10786000186004F17000FFF74DFE854B186004F1BD
:107870007400FFF747FE834B186004F17800FFF7B0
:1078800041FE814B186004F17C00FFF73BFE7F4B0B
:10789000186004F18000FFF735FE7D4B186004F19D
:1078A0008400FFF72FFE7B4B186004F18800FFF780
:1078B00029FE794B186004F19000FFF723FE774B07
:1078C000186004F19400FFF71DFE754B186004F179
:1078D0009800FFF717FE734B186004F19C00FFF748
:1078E00011FE714B186004F1A000FFF70BFE6F4B07
:1078F000186004F1A400FFF705FE6D4B186004F159
:10790000A800FFF7FFFD6B4B186004F1AC00FFF718
:10791000F9FD694B186004F1B400FFF7F3FD674B04
:10792000186004F1B800FFF7EDFD654B186004F135
:10793000C000FFF7E7FD634B186004F1C400FFF7D8
:10794000E1FD614B186004F1C800FFF7DBFD5F4B00
:10795000186004F1CC00FFF7D5FD5D4B186004F111
:10796000D000FFF7CFFD5B4B186004F1D400FFF7A8
:10797000C9FD594B186004F1D800FFF7C3FD574B00
:10798000186004F1DC00FFF7BDFD554B186004F1F1
:10799000E000FFF7B7FD534B186004F1E400FFF778
:1079A000B1FD514B186004F1E800FFF7ABFD4F4B00
:1079B000186004F1EC00FFF7A5FD4D4B186004F1D1
:1079C000F000FFF79FFD4B4B186004F1F800FFF744
:1079D00099FD494B186004F58070FFF793FD474B04
:1079E000186004F58270FFF78DFD454B186004F5B3
:1079F0008470FFF787FD434B186004F58670FFF72E
:107A000081FD414B186004F58E70FFF77BFD3F4B05
:107A10001860BDE8F88F00BF740600200038000829
:107A2000EC000020E8000020E4000020D00000204E
:107A3000B4000020B0000020AC000020D4000020E2
:107A4000CC000020C8000020C4000020C00000209E
:107A5000BC000020B800002094000020E0000020BE
:107A6000DC000020D8000020980000204800002002
:107A7000A8000020A4000020A00000209C000020FE
:107A8000900000208C00002088000020840000204E
:107A9000800000207C00002078000020740000207E
:107AA000700000206C0000206800002064000020AE
:107AB000600000205C0000205800002054000020DE
:107AC000500000204C000020440000204000002016
:107AD0003C0000203800002034000020300000204E
:107AE0002C0000202800002024000020200000207E
:107AF0001C000020180000201400002010000020AE
:107B00000C000020080000200400002000000020DD
:107B1000FA200860142111600D22162550264FF01E
:107B2000550CBE274FF4966841F6F42944F2303ADA
:107B30004FF42F7B1A6040F6E44240F6FF71D34BBE
:107B4000DFF84CE31D60D34BD34D1E60D34BD44EB6
:107B5000C3F800C0D34B41F278301F60D24BD34FF3
:107B6000C3F800E0D24BDFF84CE3C3F80080D24BFF
:107B7000DFF84883C3F80090D14BDFF84893C3F88F
:107B800000A0D14BDFF844A3C3F800B0D04BDFF81E
:107B900044B31A60D04BD14A1960D14B43F22C0147
:107BA0001F60D04B1E60D04B1D60D04B1A60D04B75
:107BB000D04A1A60D04BD14A1360D14A1360C82210
:107BC000D04B1960D04B1A60D04B1860D04BC3F823
:107BD00000E0D04BDFF840E3C3F800E0CF4BDFF824
:107BE00040E3C3F800E0CF4BDFF83CE3C3F800E02C
:107BF000CE4BDFF83CE3C3F800E0CE4BDFF838E3D0
:107C0000C3F800E0CD4BDFF838E3C3F800E0CD4B1C
:107C1000DFF834E3C3F80080CC4BC3F800E0CC4B72
:107C2000DFF830E36561C3F800E0CB4BDFF82CE30D
:107C3000E760C3F800E0CA4BDFF828E32661C3F829
:107C400000E0C94BDFF824E3A24DC3F800E0C84BC5
:107C5000DFF820E3C3F800E0C74BDFF820E3C3F808
:107C600000E04FF07E53DFF818E3CEF80030DFF885
:107C700014E3C9F800E0DFF81093CAF80090DFF8C9
:107C80000CA3CAF800B0DFF808A3DFF808B3CAF8FD
:107C900000B0DFF804A3DFF804B3CAF800B0DFF8DF
:107CA00000A3CAF80090DFF8FC92DFF8FCA2C9F844
:107CB00000A0DFF8F892DFF8F8A2CAF80090DFF829
:107CC000F4A2CAF80080DFF8F082DFF8F0A2CAF868
:107CD0000080DFF8ECA2CAF80030DFF8E8A2CAF8AA
:107CE00000E0DFF8E4E2DFF8E4A2CEF800A0DFF87D
:107CF000E0E2DFF8E0A2CEF800A04FF07A5ADFF819
:107D0000D8E2CEF80030B54BDFF8D4E2CEF8003040
:107D1000DFF8D0E2CEF800A0DFF8CCE2CEF8009099
:107D2000DFF8C8E2CEF80080DFF8C4E2CEF8003019
:107D3000574BA360BE23A3614FF49663E36141F602
:107D4000F423236244F2303363624FF42F73A3624F
:107D500040F6E443E36240F6FF732363FA23E363F0
:107D6000142323640D2363641623A3645023E36464
:107D70005A4BE26523665F4B504A63665E4BA063D5
:107D8000A366E3664B4BC4F854C02367624BA165FE
:107D9000636703F17F4303F5C93303F23313A3672A
:107DA000614BC4F89020E367614B7648C4F880309B
:107DB000614B7549C4F88430614BC4F88830624B1C
:107DC000C4F89430634BC4F89830644BC4F89C30CA
:107DD000644BC4F8A030654BC4F8A430A3F5A013DD
:107DE000C4F8A830A3F5C023C4F8AC304FF07E53DC
:107DF000C4F8B430C4F8E430C4F8F830A3F566032E
:107E0000A3F5CC43663BC4F80031C4F81C31AA2367
:107E1000C4F8B800C4F8E8006C4884F82331C4F80A
:107E2000EC0000F180702123C4F8F0004FF07A508C
:107E3000C4F8C010C4F8C450C4F8D010A5F5332558
:107E40005949C4F8DC20A5F233355B4AC4F8C85060
:107E5000C4F8D410A5F5C01501F50001C4F8D81078
:107E6000C4F8E020C4F80811C4F80C21C4F8CC50C0
:107E7000C4F8040184F82231FFF758FB2146BDE81D
:107E8000F84F49225B48FFF78DBB00BFE0000020A0
:107E9000A0030200DC000020E0800300D8000020E6
:107EA000209B0800D4000020D0000020786301004F
:107EB000CC0000200000E041C80000206666663F5C
:107EC000C400002050000020C00000204C00002012
:107ED000BC000020CDCC3C41B80000205C8F0241AA
:107EE000B4000020B0000020AC000020A80000205A
:107EF000A4000020A470AF417B140241A000002028
:107F00009C000020980000204800002094000020E1
:107F1000900000208C000020000093448800002086
:107F2000339394438400002000C0B24480000020BA
:107F30009A9989407C0000200000C8417800002008
:107F4000339388437400002017B7D13870000020A5
:107F50006C0000205C8F7E4168000020CD4C1944ED
:107F600064000020000080BF600000200000B442D8
:107F70005C0000200000A0425800002000009A424F
:107F8000540000200000C8420AD7A33C440000204F
:107F9000400000209A9931413C0000209A991941F3
:107FA0003800002034000020CDCC4C3DCDCCCC3D61
:107FB000300000202C000020CDCC4C3E28000020BA
:107FC00024000020200000201C0000208FC2753CEF
:107FD000180000208FC2753D140000209A99993E28
:107FE000100000200C0000200800002004000020E9
:107FF00000000020003800082DE9F04186B072B67C
:1080000000232E4DCDE901332C682D4B002C3ED1A1
:108010002B6002222A4801A9FFF77CFB019B029AF0
:10802000B3F1B63F39D1B2F1B63F39D1244C254E28
:10803000254FDFF898800222304603A9FFF76AFB3C
:108040009DF80C20032A24D80C23534317F803C0AF
:1080500006F10801944507EB030E11D1BDF80E009F
:10806000BEF8022082420BD11948C41800F803C0A0
:1080700018486280C252C4181032616094192146B7
:1080800001F110034345296003D80E46D3E79C4213
:10809000BFD02C6006B0BDE8F0811340013301D0A1
:1080A000FFF762FA4FF0B6330222054801A9CDE985
:1080B0000133044CFFF776FAEBE700BFF807002026
:1080C00000F8000808F80008B00100204EFE000883
:1080D000C8070020980700202DE9F74F72B600234B
:1080E00001264FF00C0ACDE90033284DFFF784FF3D
:1080F000DFF89C90274A284C174617F80C3F04F1EC
:108100000C08013BDBB2FD2B31D8D389FF2B2ED0DD
:108110006BB3A289696820699208FFF7FBFAB4F88B
:108120000CB02069022269465844FFF7F3FA6968E7
:108130001A484FEA9B0201F079F8009B834209D06C
:10814000D9F80410A289686805F01CFC6968B0B20F
:10815000FFF748FA0136042E3A46444605F1040575
:1081600009F10409C8D162B603B0BDE8F08F0AFB7B
:1081700006F30B4A9A1807CA87E80700094A13440E
:1081800093E8070088E80700DAE700BF70010020E5
:1081900060010020C807002098070020743A0020E2
:1081A000B00100208001002073B53F4C3F4B227886
:1081B00001211A703E4A3F4813683F4D0533136052
:1081C0003E4A3F4E13680533136001F013FC3D4AED
:1081D0003D4B117830701970517859709178D27880
:1081E0009970DA702B6833B9384B1B78D3B12F21D3
:1081F0005720FFF717F93378354A012B07D0354B55
:108200001B78022B03D0344B1B78012B11D1012397
:108210002370C8231360314A13602B6801332B602D
:1082200002B070BD5720FFF7E9F82F28E3D12E21C7
:10823000DEE713682BB1013B1360002BEDD1022365
:108240002370274B254A1B78042B28D11368002B59
:10825000E3D0013B1360002BDFD103222270214ABF
:1082600013701A4A1370FFF73DFA1F4B4FF48070DA
:10827000DA6942F08052DA61DB6903F080530193DE
:10828000019B1A4B1A6842F004021A601A6842F005
:1082900008021A6001F0FAFB01F004FCBDE70223BA
:1082A0002370C823B8E700BFED010020AA03002017
:1082B000CC4F002000080140FC070020C84F0020E0
:1082C000EC010020FD000020D24F0020D14F002003
:1082D000E8010020F7000020F4000020E401002065
:1082E000A9030020D04F0020001002400070004081
:1082F00000220C4B1A600C4B19700C4B187018B103
:108300000B4A136801331360BFF34F8F09490A4BBF
:10831000CA6802F4E0621343CB60BFF34F8F00BF23
:10832000FDE700BFC84F0020D04F0020D14F0020F4
:10833000C44F002000ED00E00400FA0505F016FA35
:108340000B480C490C4A002302E0D458C4500433B3
:10835000C4188C42F9D3094A094C002301E0136088
:108360000432A242FBD305F0E9FA05F053F8704756
:10837000000000205C0200203CDE000860020020BB
:108380002C3F0020FEE7000008B5074A03201368D1
:1083900043F01003136000F0E9FE0F2005F030F900
:1083A00005F004F9002008BD00200240034A044BF8
:1083B00011681B780B441360704700BF0008002051
:1083C000EE010020014B1868704700BF0008002034
:1083D00038B50446FFF7F6FF0546631C1EBF044B85
:1083E0001B78E418FFF7EEFF431BA342FAD338BD16
:1083F000EE010020436A9A6A12F0500F1AD19A6A6D
:1084000042F400729A621A68926802F46022B2F52D
:10841000602F0CD11A7B52B99A6A22F480729A6248
:108420009A6AD2045EBF9A6A42F001029A621846C2
:108430001A6B10471B6A1B6B1847406A436B18473F
:10844000406A836A43F040038362C36A43F00403D3
:10845000C362C36B18477047704770B50368044622
:108460001D685E68B00626D5A90724D5A26AD20683
:108470005EBFA26A42F40072A2629A6802F46022AD
:10848000B2F5602F10D1227B72B95A6822F0200217
:108490005A60A36A23F48073A362A36AD8045EBF00
:1084A000A36A43F00103A362236B204698476FF051
:1084B000120223681A60310630D56A072ED5A36AE6
:1084C000DB065EBFA36A43F40053A36223689A6885
:1084D00002F4E042B2F5E04F0AD05A68500516D4D3
:1084E0009A6802F46022B2F5602F10D1227B72B933
:1084F0005A6822F080025A60A36A23F48053A36270
:10850000A36AD9055EBFA36A43F00103A362236C8B
:10851000204698476FF00C0223681A6072060CD54B
:10852000EB070AD5A36A204643F48033A362A36B0A
:1085300098476FF0010223681A6070BD002373B57D
:10854000019390F824300246012B71D0012380F86A
:1085500024304C680068062C0D684FEA840325D847
:1085600023441F24466B053B9C4026EA040405FA7D
:1085700003F3234343630C681668092C04EB44009F
:108580008B684FF0070429D9F5681E38844025EA26
:10859000040483402343F3600B68103B012B25D96F
:1085A0000020002382F8243002B070BD0C2C23443C
:1085B0004FF01F0409D8066B233B9C4026EA0404B5
:1085C00005FA03F323430363D5E7C66A413B9C40A6
:1085D00026EA04049D402C43C462CCE735698440FC
:1085E00025EA0404834023433361D5E71368114827
:1085F000834217D198680002D2D4986840F40000F2
:1086000098600B68102BCBD10B4B0C491B68B3FB4C
:10861000F1F30A214B430193019B002BC0D0019B36
:10862000013BF8E7936A012043F020039362B8E727
:108630000220B9E7002401400802002040420F0058
:1086400030B590F824200346012A1FD0012280F87B
:1086500024200268087A012850680CBF40F04000CE
:1086600020F0400050601C68D1E90020656802439A
:108670000748284002436260C8681A6850620020B8
:1086800009691A68916283F8240030BD0220FCE772
:10869000E0FD3FFF806A7047002337B50193036810
:1086A00004469A68D20702D5002003B030BD9A680C
:1086B00042F001029A60144B144A1B68B3FBF2F3B8
:1086C0000193019BE3B9FFF77DFE054623689B6894
:1086D000DB07E9D4FFF776FE401B0228F6D92368B2
:1086E0009B6813F00103F1D1A26A012042F010024D
:1086F000A262E26A84F8243042F00102E262D4E726
:10870000019B013BDCE700BF0802002040420F0054
:108710002DE9F041414B9046026804469A420F46CB
:1087200002D03F498A4203D15B6813F4702F70D1A5
:1087300094F82430012B6ED00123204684F8243095
:10874000FFF7AAFF064600285FD1A56A2168344BCF
:1087500025F4706525F0010545F480759942A56200
:1087600004D12E4A536813F4702F40D1A36A23F426
:108770008013A3624B685A0505D5A36A23F44053BE
:1087800043F48053A362A36A264A13F480531CBFA8
:10879000E36A23F00603E362002384F82430236AAB
:1087A0009A62236A204ADA62236A204A1A636FF0C7
:1087B000020223681A602268936843F4807393600E
:1087C000216843463A46206A4C3100F077FD236821
:1087D0009A6802F46022B2F5602F9A680CBF42F4E6
:1087E000A00242F480129A603046BDE8F081A36A8C
:1087F00043F48013A36253685B0541BFA06A20F471
:10880000405040F48050A062BDE7002384F824303B
:10881000EAE70126E8E70226E6E700BF0024014078
:1088200000280140F58300083B84000841840008CB
:1088300038B5036804469A68D10701D4002038BDD2
:108840009A6822F001029A60FFF7BCFD0546236892
:108850009B68DB07F2D5FFF7B5FD401B0228F6D970
:1088600023689B68DA07F2D5A36A012043F010035E
:10887000A362E36A43F00103E362E0E770B50446F4
:1088800000287CD0836A9BB9C36280F824303F4BB8
:1088900003633F4B43633F4B83633F4BC3633F4B98
:1088A0000364436C0BB93E4B43642046636C9847AA
:1088B0002046FFF7BDFFA36A13F0100361D1002823
:1088C0005FD1A26A616822F4885222F0020242F06B
:1088D0000202A262E269257B1143A26841EA4501D6
:1088E000B2F5807F03D0561E724272411202267D7D
:1088F000012E07D1002D2FD1A569013D42EA453552
:1089000045F400622668756825F469452A4372605B
:108910002568244AAE6832400A43AA60A268B2F5CC
:10892000807F01D0012A02D12369013B1B05256804
:10893000EA6A22F470021343EB6223689A681A4BC6
:108940001340994211D10023E362A36A23F0030389
:1089500043F00103A36270BDA56A45F02005A5623E
:10896000E56A45F00105E562CCE7A36A23F012034E
:1089700043F01003A362E36A43F00103E3620120C2
:10898000E9E7A36A43F01003A362F8E7A1D0000867
:10899000578400085984000835D30008C18A0008AC
:1089A00099CA0008FDF7E1FFFE0E1FFF10B590F811
:1089B00024300446012B11D0012380F82430FFF726
:1089C00037FF38B9A36A23F4885323F0010343F037
:1089D0000103A362002384F8243010BD0220FCE7C9
:1089E000002373B5019390F824300446012B62D024
:1089F000012380F82430FFF71BFF2046FFF74CFED1
:108A0000054600282FD1A36A022023F4885323F0BF
:108A1000020343F00203A362284B1E6801F076FBB9
:108A2000B6FBF0F676000196019B03BB22689368C3
:108A300043F008039360FFF7C5FC064623689A6875
:108A4000110718D49A6842F004029A60FFF7BAFC42
:108A5000064623689B685B0723D4A36A23F00303BD
:108A600043F00103A362002384F8243016E0019B45
:108A7000013B0193D8E7FFF7A5FC801B0A28DDD94D
:108A800023689B681807D9D5A36A012523F0120330
:108A900043F01003A362002384F82430284602B078
:108AA00070BDFFF78FFC801B0A28D2D923689B6812
:108AB0005A07CED5E8E70225F0E700BF08020020FC
:108AC00070477047704770477047704770477047EE
:108AD000704770477047704738B50446002800F06B
:108AE000948090F8203003BB4C4B03644C4B4364A0
:108AF0004C4B83644C4BC3644C4B83624C4BC36202
:108B00004C4B03634C4B43634C4B83634C4BC363F1
:108B10004C4B03654C4B43654C4B8365C36D0BB9A4
:108B20004B4BC3652046E36D98472268136843F0BA
:108B300001031360FFF746FC054623685A68D10716
:108B400057D51A6822F002021A60FFF73BFC05466F
:108B500023685A6892075AD4227E0020012A1A6894
:108B60000CBF42F0800222F080021A602368627E0D
:108B7000012A1A680CBF42F0400222F040021A603B
:108B80002368A27E012A1A680CBF42F0200222F05C
:108B900020021A602368E27E012A1A680CBF22F0C4
:108BA000100242F010021A602368227F012A1A681C
:108BB0000CBF42F0080222F008021A602368627FAC
:108BC000012A1A680CBF42F0040222F004021A6063
:108BD000D4E90232134322692168134362691343C3
:108BE0006268013A1343CB610123606284F820304C
:108BF0000CE0FFF7E7FB401B0A289ED9636A43F4A9
:108C000000336362052384F82030012038BDFFF76C
:108C1000D9FB401B0A289BD9F0E700BF6D5F000815
:108C2000D18A0008E55E0008D38A0008C58A0008DA
:108C3000C78A0008C98A0008CB8A0008CD8A0008C4
:108C4000CF8A0008D58A0008D78A0008C38A00089E
:108C500069CC000870B590F820200368013A012A19
:108C600069D80120D3F8002242F00102C3F80022A3
:108C70004A69D3F81C4202F01F0200FA02F224EA09
:108C80000204C3F81C42CC69D043ACB9D3F80C42FF
:108C90000440C3F80C42CE684C698D88483445EADC
:108CA000064543F834504C698E680D88483445EACF
:108CB000064503EBC4046560CC69012C15D1D3F8DB
:108CC0000C421443C3F80C420E684C698D8848343A
:108CD00045EA064543F834504C698E688D8948341E
:108CE00045EA064503EBC40465608C69DCB9D3F83A
:108CF00004420440C3F804420C69C4B9D3F81442D6
:108D00002040C3F814020020096A012902BFD3F8E9
:108D10001C120A43C3F81C22D3F8002222F00102DD
:108D2000C3F8002270BDD3F804421443E2E7D3F83D
:108D300014021043E5E7436A43F4802343620120B1
:108D4000F0E738B590F820300446012B1FD10223FC
:108D5000026880F82030136823F001031360FFF7E6
:108D600031FB05462368586810F0010001D16062AC
:108D700038BDFFF727FB401B0A28F3D9636A43F489
:108D800000336362052384F820300120F0E7436A52
:108D900043F400234362F8E7F0B590F820500468EC
:108DA000013D012DA46845D814F0E05F3CD00125B9
:108DB000C4F30164A5401D608B680668CD6804F1AA
:108DC000180753BB0B6845EA43553B01F550036850
:108DD0000D6903EB07135D600B7D012B4FEA041354
:108DE00007D101681944D1F8844144F48074C1F872
:108DF0008441016854681944C1F88C4111680268C3
:108E00001A44C2F88811026800201344D3F8802164
:108E100042F00102C3F88021F0BD2B434D6843EAC4
:108E2000C5033D017351D2E7436A43F40013436223
:108E30000120F1E7436A43F48023F8E7F0B590F8A6
:108E40002040013C012C79D8046841B9E568AD07A0
:108E500007D1436A43F4001343620120F0BD256942
:108E6000F5E701F11B052E01A45904F004049460F8
:108E70000768002C59D1BC59640D146006682C0198
:108E8000345904F00204D46006680C0106EB0116A4
:108E9000D6F8B4713F074EBF0826D6F8B46106F085
:108EA0000F061661066806EB05167668C6F30726F8
:108EB0009661066806EB051675682D0C556102680B
:108EC0002244D2F8B8211A7002682244D2F8B8219C
:108ED000120A5A7002682244D2F8B821120C9A7011
:108EE00002682244D2F8B821120EDA7002682244D5
:108EF000D2F8BC211A7102682244D2F8BC21120AAD
:108F00005A7102682244D2F8BC21120C9A7102688C
:108F10002244D2F8BC21120EDA71036849B9DA682A
:108F200042F02002DA60002098E7BC59E40854605F
:108F3000A4E71A6942F020021A61F4E7436A43F495
:108F4000802389E790F82030013B012B05D8026887
:108F500000205369194351617047436A43F48023E9
:108F60004362012070472DE9F14F036804465E69B2
:108F7000D3F8048016F00105D3F808B0D3F80CA09C
:108F8000D3F810909F6947D01BF0010F06D0012243
:108F90001BF0020F9A6010D0836A984700251BF4DB
:108FA000807F1DD04FF4807223681BF4007F9A608D
:108FB00011D0E36A2046984712E01BF0040F04D159
:108FC0001BF0080F04D1436BE7E74FF40065E6E7B9
:108FD0004FF48055E3E71BF4806F0FD045F4005544
:108FE0001BF4803F18D04FF4803223681BF4003FFD
:108FF0009A600BD0236B204698470DE01BF4006F5E
:1090000002D045F48045EBE7A36BD3E71BF4802F38
:1090100000F08B8045F40045320707D51AF0100F99
:109020001FBF1022236845F40075DA60730708D566
:109030001AF0080F05D0082223682046DA60636C16
:109040009847B00706D52368DB68990702D0204609
:10905000236C9847720607D519F0100F1FBF102216
:10906000236845F480651A61B30608D519F0080F26
:1090700005D00822236820461A61E36C9847F00661
:1090800006D523681B69990702D02046A36C984730
:10909000B20308D518F0100F05D01022236820461F
:1090A0005A60236D9847F30308D518F0080F05D0D0
:1090B0000822236820465A60636D984730042AD5F9
:1090C00018F0040F24D0F10503D5FA0748BF45F086
:1090D0000105B30503D5B80748BF45F00205710582
:1090E00003D57A0748BF45F00405330510D517F0BE
:1090F00070030DD0402B30D01FD8202B27D0302B21
:1091000028D0102B20D02268936923F0700393613C
:10911000042223685A6035B32046636A2B43636296
:10912000A36D01B0BDE8F04F18471BF4002F02D02B
:1091300045F4803570E7E36B5DE7502B10D0602B72
:10914000E1D145F48075DEE745F00805DBE745F041
:109150001005D8E745F02005D5E745F04005D2E7F2
:1091600045F08005CFE701B0BDE8F08F0749030265
:10917000CA6803F4E06322F4E0621204120C1343A1
:1091800043F0BF6343F40033CB60704700ED00E071
:1091900030B5154BDC68C4F30224C4F10703251D68
:1091A000042B28BF0423062D4FF0FF3594BF002465
:1091B000033C05FA03F321EA0303A54022EA050272
:1091C000A340002843EA0203ACBF00F16040074A15
:1091D0004FEA0313DBB2ABBF00F5614000F00F00B4
:1091E00080F80033135430BD00ED00E014ED00E0D2
:1091F000002807DB01234109034A00F01F008340D8
:1092000042F82130704700BF00E100E010B504468D
:1092100050B1437903F0FF0213B9027103F06EFD00
:1092200001230020637110BD0120FCE703460220EA
:1092300010B51C685871A06801EB820240F0010073
:10924000A0609142186803D1012200685A7110BDD4
:1092500051F8044B0460F4E7034610B540B3142101
:109260000068144A0244B2FBF1F292001A64124AF6
:10927000DA63022283F82120D3E901242243DC6847
:10928000016822431C6921F47F5122435C6921F06B
:10929000300122439C692243DC6922430A43026075
:1092A00000200122986383F8200083F8212010BD5C
:1092B0000120FCE7F8FFFDBF0000024070B590F808
:1092C0002040012C3DD0012490F8215080F820400E
:1092D000012DECB24FF0000531D1022680F821605B
:1092E00006688563356825F001053560D0E90F56BD
:1092F000B4406C60046863604368102B03680BBF64
:109300009A609960036803680CBFD960DA60C26A2A
:10931000036852B11A6842F00E021A600268002017
:10932000136843F00103136070BD1A6822F0040251
:109330001A600268136843F00A031360EEE780F8CE
:1093400020500220F0E7000030B40424C36B056C09
:109350001968AC4003680C421A6833D0540731D501
:109360001A6895065EBF1A6822F004021A60036844
:109370003F4A934219D01432934218D01432934288
:1093800017D01432934217D01432934217D01432AC
:10939000934214BF4FF080634FF48003354A53600B
:1093A000C36A002B61D030BC18470423F6E7402382
:1093B000F4E74FF48063F1E74FF48043EEE74FF4B6
:1093C0008023EBE70224AC400C4236D0940734D51E
:1093D0001A68910606D41A6822F00A021A6001235C
:1093E00080F821300368224A934219D01432934204
:1093F00018D01432934217D01432934217D014323B
:10940000934217D01432934214BF4FF000734FF4BD
:109410000013184A5360002380F82030836AC0E7A5
:109420000223F6E72023F4E74FF40073F1E74FF44B
:109430000053EEE74FF40033EBE70824AC400C4256
:1094400013D0120711D51A6822F00E021A600123F8
:10945000026CC16B03FA02F24A60836380F8213028
:10946000002380F82030036B9BE730BC704700BFBF
:109470000800024000000240114AD36813F01003B4
:1094800005D01049CB6943F00203CB611023D268A9
:10949000500706D50B4943F00403CA6942F00102A4
:1094A000CA61074AD169C90708D50648C16941F0B0
:1094B0000401C161D16921F00101D161D36070471C
:1094C00000200240080800207047704770B5424BEA
:1094D000424CDA6812F0100F02D1DB685A070AD545
:1094E0004FF0FF33A568A360FFF7C6FF2846FFF7DC
:1094F000ECFF00232370384DEB689B0618D5202322
:10950000EB602378A3B12378012B27D16368013B5B
:1095100063606368DBB1A068FFF7D6FFA06800F561
:109520008060A0602B6923F002032B6100F0F6F845
:10953000237803F0FF014BB9274B1A6922F0070289
:109540001A611A6922F4A0521A61217670BD4FF097
:10955000FF30A0602370FFF7B7FFE9E72378022B05
:1095600009D12B69002023F004032B61FFF7ACFF26
:1095700000232370DCE76368013B63606368D3B159
:10958000A3680233A360A668D4E90401020C42EA8E
:1095900001420B0CC4E904232B6923F001032B6166
:1095A000D4E904230023E3612B6992B243F0010361
:1095B0002B613280BCE72378032B06D1A068FFF72C
:1095C00083FF4FF0FF33A360D2E72378A068042B1A
:1095D0000CBF02380638F2E70020024008080020DD
:1095E000064B186910F0800007D0054A5A6002F156
:1095F00088325A601869C0F3C010704700200240DA
:1096000023016745034A0020136943F08003136177
:10961000704700BF00200240014BD869704700BF6F
:109620000808002070B50546FEF7CCFE0646114C32
:10963000E368D80712D4E368990644BF2023E360A7
:10964000E368DA0606D4E369DB0703D4E06810F0C8
:10965000040007D0FFF710FF012003E06B1CE7D0E8
:109660000DB9032070BDFEF7ADFE801BA842DFD907
:10967000F7E700BF002002402DE9F84FDFF894A083
:109680001F469AF818300546012B884691463FD070
:1096900001234CF250308AF81830FFF7C3FF90BB1B
:1096A000012D03D0022D14BF0425022500263346C8
:1096B000DFF864B03401C4F12001A4F1200207FAFC
:1096C00001F129FA04F4CAF81C300C4327FA02F21B
:1096D0001443DBF81020A4B242F00102CBF81020B2
