:020000040800F2
:10400000C04F0020F95C000835AB000841AB000848
:104010004DAB000859AB000865AB0008000000007C
:10402000000000000000000000000000E19B00080C
:1040300071AB000800000000719C0008B59C0008EE
:10404000415D000873AB0008415D0008415D000858
:1040500085AB000889AB0008415D0008415D0008A0
:10406000415D0008415D0008415D00088DAB00081E
:10407000415D0008415D0008415D0008415D0008A8
:10408000415D0008415D0008415D000899AB0008F2
:10409000A5AB0008A9AB0008ADAB0008415D000866
:1040A000B1AB0008BDAB0008C1AB0008C5AB000850
:1040B000C9AB0008415D0008DDAB0008415D0008A8
:1040C000415D0008415D0008415D0008415D000858
:1040D000415D0008415D0008415D0008415D000848
:1040E000415D0008415D0008415D000800000000DE
:1040F00000000000000000000000000000000000C0
:0C41000000000000000000005FF808F163
:1041100010B5054C237833B9044B13B10448AFF301
:1041200000800123237010BDA805002000000000BE
:1041300068AF000808B5034B1BB103490348AFF350
:10414000008008BD00000000AC05002068AF00083A
:1041500080F0004002E000BF81F0004142001FBF3C
:104160005FEA410392EA030F7FEA226C7FEA236C45
:104170006AD04FEA1262D2EB1363C1BFD21841403A
:1041800048404140B8BF5B42192B88BF704710F0D0
:10419000004F40F4000020F07F4018BF404211F073
:1041A000004F41F4000121F07F4118BF494292EADB
:1041B000030F3FD0A2F1010241FA03FC10EB0C0007
:1041C000C3F1200301FA03F100F0004302D5494294
:1041D00060EB4000B0F5000F13D3B0F1807F06D341
:1041E00040084FEA310102F10102FE2A51D2B1F139
:1041F000004F40EBC25008BF20F0010040EA03002E
:104200007047490040EB0000013A28BFB0F5000FAD
:10421000EDD2B0FA80FCACF1080CB2EB0C0200FA63
:104220000CF0AABF00EBC25052421843BCBFD040B2
:104230001843704792F0000F81F4000106BF80F42C
:1042400000000132013BB5E74FEA41037FEA226CEF
:1042500018BF7FEA236C21D092EA030F04D092F0BA
:10426000000F08BF0846704790EA010F1CBF0020EE
:10427000704712F07F4F04D1400028BF40F000404B
:10428000704712F100723CBF00F50000704700F06B
:10429000004343F0FE4040F4000070477FEA226292
:1042A00016BF08467FEA23630146420206BF5FEA63
:1042B000412390EA010F40F4800070474FF0000363
:1042C00004E000BF10F0004348BF40425FEA000C2A
:1042D00008BF704743F0964301464FF000001CE0D2
:1042E00050EA010208BF70474FF000030AE000BF28
:1042F00050EA010208BF704711F0004302D5404266
:1043000061EB41015FEA010C02BF844601460020D7
:1043100043F0B64308BFA3F18053A3F50003BCFAF2
:104320008CF2083AA3EBC25310DB01FA02FC63449F
:1043300000FA02FCC2F12002BCF1004F20FA02F2A6
:1043400043EB020008BF20F00100704702F1200299
:1043500001FA02FCC2F1200250EA4C0021FA02F2FA
:1043600043EB020008BF20EADC7070474FF0FF0CFF
:104370001CEAD0521EBF1CEAD15392EA0C0F93EAFA
:104380000C0F6FD01A4480EA010C400218BF5FEA9C
:1043900041211ED04FF0006343EA501043EA51110F
:1043A000A0FB01310CF00040B1F5000F3EBF490009
:1043B00041EAD3715B0040EA010062F17F02FD2A0D
:1043C0001DD8B3F1004F40EBC25008BF20F00100F0
:1043D000704790F0000F0CF0004C08BF49024CEA07
:1043E000502040EA51207F3AC2BFD2F1FF0340EA99
:1043F000C250704740F400004FF00003013A5DDC0A
:1044000012F1190FDCBF00F000407047C2F100024A
:10441000410021FA02F1C2F1200200FA02FC5FEA37
:10442000310040F1000053EA4C0308BF20EADC7081
:10443000704792F0000F00F0004C02BF400010F4F3
:10444000000F013AF9D040EA0C0093F0000F01F0A0
:10445000004C02BF490011F4000F013BF9D041EAC2
:104460000C018FE70CEAD15392EA0C0F18BF93EAC4
:104470000C0F0AD030F0004C18BF31F0004CD8D1EE
:1044800080EA010000F00040704790F0000F17BF75
:1044900090F0004F084691F0000F91F0004F14D0BB
:1044A00092EA0C0F01D142020FD193EA0C0F03D113
:1044B0004B0218BF084608D180EA010000F0004016
:1044C00040F0FE4040F40000704740F0FE4040F4F1
:1044D000400070474FF0FF0C1CEAD0521EBF1CEA90
:1044E000D15392EA0C0F93EA0C0F69D0A2EB0302AE
:1044F00080EA010C49024FEA402037D04FF0805348
:1045000043EA111143EA10130CF000408B4238BF0C
:104510005B0042F17D024FF4000C8B4224BF5B1A1A
:1045200040EA0C00B3EB510F24BFA3EB510340EA68
:104530005C00B3EB910F24BFA3EB910340EA9C0016
:10454000B3EBD10F24BFA3EBD10340EADC001B0186
:1045500018BF5FEA1C1CE0D1FD2A3FF650AF8B422A
:1045600040EBC25008BF20F0010070470CF0004C37
:104570004CEA50207F32C2BFD2F1FF0340EAC25062
:10458000704740F400004FF00003013A37E792F023
:10459000000F00F0004C02BF400010F4000F013A81
:1045A000F9D040EA0C0093F0000F01F0004C02BF7C
:1045B000490011F4000F013BF9D041EA0C0195E7E5
:1045C0000CEAD15392EA0C0F08D142027FF47DAF7E
:1045D00093EA0C0F7FF470AF084676E793EA0C0F6E
:1045E00004D14B023FF44CAF08466EE730F0004C6C
:1045F00018BF31F0004CCAD130F000427FF45CAFFC
:1046000031F000437FF43CAF5FE700BF4FF0FF3C69
:1046100006E000BF4FF0010C02E000BF4FF0010CBC
:104620004DF804CD4FEA40024FEA41037FEA226C85
:1046300018BF7FEA236C11D001B052EA530C18BFA7
:1046400090EA010F58BFB2EB030088BFC81738BF0C
:104650006FEAE17018BF40F0010070477FEA226CFA
:1046600002D15FEA402C05D17FEA236CE4D15FEAF6
:10467000412CE1D05DF8040B704700BF844608462A
:104680006146FFE70FB5FFF7C9FF002848BF10F1EB
:10469000000F0FBD4DF808EDFFF7F4FF0CBF012030
:1046A00000205DF808FB00BF4DF808EDFFF7EAFFBA
:1046B00034BF012000205DF808FB00BF4DF808ED75
:1046C000FFF7E0FF94BF012000205DF808FB00BF6A
:1046D0004DF808EDFFF7D2FF94BF012000205DF8F0
:1046E00008FB00BF4DF808EDFFF7C8FF34BF0120FD
:1046F00000205DF808FB00BF4FEA40024FEA41038B
:104700007FEA226C02D15FEA402C08D17FEA236C59
:1047100002D15FEA412C02D14FF0000070474FF008
:104720000100704742000ED2B2F1FE4F0BD34FF0A2
:104730009E03B3EB126209D44FEA002343F0004317
:1047400023FA02F070474FF00000704712F1610F3A
:1047500001D1420202D14FF0FF3070474FF000000C
:10476000704700BF53B94AB9002908BF00281CBFD1
:104770004FF0FF314FF0FF3000F068B9ADF1080C99
:104780006DE904CE00F006F8DDF804E0DDE902236F
:1047900004B070472DE9F047089D0C46002B4ED120
:1047A00094468C458646B2FA82F262D94AB1C2F189
:1047B0002003914020FA03F30CFA02FC194300FA9B
:1047C00002FE4FEA1C47B1FBF7F407FB14111FFA76
:1047D0008CF64FEA1E4343EA014304FB06F199427B
:1047E0000AD91CEB030304F1FF3080F010819942D9
:1047F00040F20D81023C6344591AB1FBF7F007FB0C
:10480000101100FB06F61FFA8EF343EA01439E42A5
:104810000AD91CEB030300F1FF3180F0FA809E42BD
:1048200040F2F7806344023800219B1B40EA0440B9
:104830001DB1D3400022C5E90032BDE8F0878B42AC
:1048400005D90DB1C5E9000100210846F5E7B3FA25
:1048500083F1002946D1A34202D39042C0F0EE80FA
:10486000861A64EB03030120002DE6D0C5E900633E
:10487000E3E7002A40F08F80A1EB0C0401214FEA0E
:104880001C481FFA8CF7B4FBF8F608FB164407FB2C
:1048900006F04FEA1E4343EA0443984208D91CEB52
:1048A000030306F1FF3402D2984200F2CB80264681
:1048B0001C1AB4FBF8F008FB104400FB07F71FFAC2
:1048C0008EF343EA04439F4208D91CEB030300F133
:1048D000FF3402D29F4200F2AE802046DB1B40EA4A
:1048E0000640A5E7C1F120078B4022FA07FC4CEAFD
:1048F000030C24FA07F64FEA1C49B6FBF9F81FFA35
:104900008CFE09FB186620FA07F38C4000FA01FAC6
:1049100008FB0EF01C43230C43EA0643984202FABC
:1049200001F20AD91CEB030308F1FF3680F0818005
:1049300098427ED9A8F1020863441E1AB6FBF9F327
:1049400009FB136603FB0EFEA4B244EA0644A64527
:1049500008D91CEB040403F1FF3066D2A64564D9E4
:10496000023B644443EA0840A0FB0283A4EB0E042C
:104970009C42C6461E4650D34DD055B1BAEB0E03ED
:1049800064EB060404FA07F7CB401F43CC40C5E9AB
:104990000074002151E70CFA02FCC2F12003D94057
:1049A0004FEA1C4820FA03F300FA02FEB1FBF8F0CC
:1049B00008FB101194401C431FFA8CF7230C43EAA8
:1049C000014300FB07F1994208D91CEB030300F1F6
:1049D000FF362CD299422AD9023863445B1AB3FBC2
:1049E000F8F108FB1133A4B244EA034401FB07F3D6
:1049F000A34208D91CEB040401F1FF3613D2A342F1
:104A000011D902396444E41A41EA00413BE7044603
:104A1000F2E6084608E7C245AFD2B8EB020E63EBF8
:104A20000C060138A9E73146EDE703469AE7304620
:104A3000D4E7B04681E7634402384FE70646234691
:104A4000084611E7023E634432E700BF704700BFEB
:104A5000034670B5B0F87A00B3F88850B3F8782000
:104A6000A842D3E9204625D153F822004043241A16
:104A700066F10006C3E9204601FB01F043F822106D
:104A80000132D3E920410019B2FBF5F405FB1422F1
:104A900041F10001A3F87820C3E92001B3F87A209E
:104AA0000023FFF75FFEFFF71BFC06F0CDF9FFF7D1
:104AB00039FE70BD0130A3F87A00DDE7F8B51E4677
:104AC000174604460D46FFF7C3FF2946386004F138
:104AD0009000FFF7BDFF2946306004F59070FFF7A6
:104AE000B7FF069B1860F8BD2DE9F04F9A4B87B0D1
:104AF000B3F800900A2309EB8904B4FBF3F4974F51
:104B0000A3B20393039AB7F80080954B42451A80ED
:104B10008CBF00220122934B93491A70934B1C784F
:104B2000012C04D0924A1278012A40F0F980914871
:104B30000A78007802430CBF012200228E480270DE
:104B40000A78012A07D18D4D8D4A2E681268002EF1
:104B500040F0E8802A608B4A1278012A03D08A4A02
:104B60001278012A01D100220270884B1A780AB10A
:104B700000250570864DDFF81CC22E780978012EBD
:104B800004BF002505709CF80000834D012807D163
:104B900052EA010A01BF28788CF800A00130287081
:104BA0007E4890F800C0BCF1010F0AD1324308D111
:104BB000DFF8E4A102709AF800C00CF1010C8AF849
:104BC00000C02A780A2A04BF01221A70694B744A6D
:104BD00093F800E01578BEF1010F40F0AB80002C97
:104BE00040F0A880012D40F0A5801470624A1C702E
:104BF00014706C4A14600278B242664A18BF06709C
:104C00001078884218BF1170012C12D1DFF898A1DA
:104C1000664D9AF80000D5F800B0132800F28E8097
:104C2000634A01308AF8000059461068FFF796FA87
:104C3000286060490A78012A5F4A04D10020087080
:104C40005E490968116012685D4910460492FFF7D9
:104C500049FDDFF870A14A4DDAF800B0002800F0F5
:104C6000C580002E40F0C280012C049A40F0BE8026
:104C700011461046FFF77AFB5349FFF76DFA534987
:104C8000FFF728FC5946FFF769FACAF80000FFF75A
:104C900049FD4F4B18604B4B4E49D3F800B0584676
:104CA000FFF720FD8246002800F0CA800122384B21
:104CB0001A7042F21072A9F5DA53183B9BB2934274
:104CC0004548464A00F2C980002313602E4A03601B
:104CD00013702C4A1370424E274932784148012AFA
:104CE00040F04581404B2C681B68E31A012B40F2D1
:104CF000F480B8F5CC6F4FF0000CDFF86CE040F2B8
:104D0000CD80072B8EF800C040F2E780039B43451F
:104D100040F2E08001238EF8003000230B70C4E0E5
:104D200000220BE7921BB2F5967F7FF614AF0022AC
:104D30000A700FE7AC4218BF14705CE7FFF7C2FAC5
:104D400001465846FFF7C6FB1B4A106000228AF84E
:104D5000002000222A606CE70000002002000020F2
:104D6000380600203C0600204206002004000020F7
:104D70009C0600204306002005000020F4050020CA
:104D80003406002040060020410600203A0600209C
:104D900044060020F30500203B060020F205002019
:104DA000F105002030060020F0050020EC05002071
:104DB000FC05002047060020E8050020F80500203B
:104DC00000002841E40500200080DC420000204172
:104DD000280600200000CD44E0050020DC0500206E
:104DE00046060020D80500202C06002014222B683F
:104DF000B3FBF2F102FB11330593002B7FF44BAFB1
:104E000058469B49FFF7B2FA9A49FFF763FBCAF885
:104E100000000490FFF786FCDFF85CB2049ACBF840
:104E200000004FF07E511046FFF73EFC00283FF493
:104E300032AF0022059BCAF80020CBF800302AE7E9
:104E400000215846FFF726FC00283FF432AF012E20
:104E500004BF8A4B83F800A02BE741F65731894500
:104E60002B680CD8016811B9036000230BE0591AB4
:104E70003C298CBF01210021814B1970F5E70021ED
:104E80000160106808B9136025E71B1A3C2B88BF26
:104E900001227C4B8CBF1A7019701CE7072B8EF80F
:104EA000002081F800C03FF631AF0024764B224647
:104EB0001C60764B04701C60754B02211C60754BA6
:104EC00075481C60754B34701B685C6302F028FAEF
:104ED00022468FE000238EF800300C78012CE4D1BC
:104EE00001782B6800295DD1694A0470136040F293
:104EF00001126A4B1B685A63694B1B78012B694B83
:104F00007BD01A780AB901221A701A782C6842B13B
:104F100065480168002979D1644B04601C60644BCA
:104F20001C60FCB1C822B4FBF2F302FB1343CBB903
:104F3000604B61490093614A614B09686148FFF722
:104F4000BDFD614B61490093614A624B098862482B
:104F5000FFF7B4FD614B624A00933988614B6248A8
:104F6000FFF7ACFD01342C6007B0BDE8F08F022ADA
:104F7000B3D1039B444C434506D80023DFF86CC1F2
:104F80008CF800302360A8E7D4F800C02B68BCF18F
:104F9000000FF7D0A3EB0C033C2B9ED90122534BFF
:104FA0001A70BAE6012909D139490A689A1A092AF8
:104FB000A2D90223037000230B609DE702299BD135
:104FC00062B9324A1068002896D11360314A3470B1
:104FD00013602246304802F0A3F98DE7012A8BD1F5
:104FE0002A4C20681B1A152B03D90022317022602D
:104FF000F0E781D14FF48061ECE700222A491A7072
:105000000A602A490A602A490A607EE7022A1BD000
:10501000032A78D0012A84D14CF2A75C3448611A63
:1050200061450688388807D986423FF67AAF022163
:105030001970304B1A7074E786427FF672AF022205
:105040001A7000222B4BF5E70A202049DFF8A8C090
:1050500009883E8801EB4101B1FBF0F1134800687B
:10506000201A60454AD98E42FFF65BAF0321DFE785
:105070000000AA420000C842280600204406002082
:10508000410600204006002030060020D005002008
:10509000D40500202C060020000C014050410020C7
:1050A000040000203D060020CC050020C80500209B
:1050B000C405002018060020240600202006002039
:1050C0001C060020680300200C06002000000020C1
:1050D0001406002010060020B80100200006002061
:1050E00008060020040600200800002043060020D7
:1050F00038060020450600209F6806008E42BFF655
:1051000010AF03229CE70A490A4E09683888611AE1
:10511000B14207D9B0F5487FFFF403AF06490A70E2
:10512000042287E7B0F5487FBFF4FBAE042287E78F
:10513000C40500201FEE0F00450600202DE9F041B8
:10514000914E924C3768002F6FD1914B914D1B7847
:105150002246237001232B61512329462B608E4860
:105160008E4B01F0D1FA8E4B4FF008081B68294690
:105170001A0A237062701A0C1B0EE370894BA2701E
:105180001B88224623711B0A6371874B82481B8848
:10519000C5F81080A3711B0AE37140F2EF632B6026
:1051A0007E4B01F0B1FA814B29461B787A48237077
:1051B0007F4BC5F810801B7863707E4B1B6823FA09
:1051C00008F2A370E2701A0C1B0E63717A4B227105
:1051D0001B782246A371794B1B78E3714FF4DE6391
:1051E0002B606E4B01F090FA754B22461B782946D6
:1051F0002370744B68481B78A4F805706370724B79
:10520000E7711B78A370714B1B78E370704B1B78B0
:10521000237105232B6140F2F1632B605F4B01F09A
:1052200073FA276067602F612F605B4801F065FCAF
:10523000042800F09280674B35681B78022B40F001
:105240008C80C823B5FBF3F203FB125585B9504B94
:10525000504F1B783946237001233B6151234B4A41
:105260003B604D484D4B01F04FFA65603D613D603C
:10527000356815F0010521D1494B464F1B68394669
:105280001A0A237062701A0C1B0EE370454BA27051
:105290001B883E4A23711B0A6371434B3E481B889F
:1052A000A3711B0AE37108233B6140F2EF633B608B
:1052B0003A4B01F029FA65603D613D601423356881
:1052C000B5FBF3F203FB12551DBB384B314F1B7876
:1052D00039462370364B30481B786370354B1B685A
:1052E0001A0AA370E2701A0C1B0E6371324B227102
:1052F0001B78264AA371314B1B78E37108233B616D
:105300004FF4DE633B60254B01F0FEF965603D61C3
:105310003D600A233768B7FBF3F103FB1177E7B968
:10532000274B1C4D1B7829462370264B174A1B78A8
:1053300019486370244B1B78A370244B1B78E370CF
:10534000234B1B78237105232B6140F2F1632B6003
:10535000124B01F0D9F92F612F601F4A1368392BC6
:1053600003F101031360336888BF012003F10103D7
:1053700033604FF0000388BF1649236088BF087070
:105380006360BDE8F08100BF98060020540600204D
:105390003C0600205C060020803F002050060020D4
:1053A000240600200000002002000020410600200A
:1053B0004006002028060020420600204306002068
:1053C000440600203A0600203B0600203F0600204D
:1053D00045060020180500204C06002070B5294B1A
:1053E00006461B78284D012B284C12D12B4622460D
:1053F000002101F0DBF940F2FF3322689A4206D126
:105400002B78122B03D10021084600F071FC01F02B
:105410009DFF1D4B1D4A0021304601F0C7F940F2A7
:10542000FF322368934215D12B78122B07D100232A
:105430000221174A1370174A1170174A136000238C
:10544000C4E9023323616360A361236063612B605D
:105450006B6070BD502B03D12A78104B1A70EEE7A9
:1054600040F202729342EAD10D4807490360236972
:10547000036100F0B3F80B4A2B6813606B6853604C
:10548000DDE700BFF0060020740600207C06002047
:1054900048060020180500204C06002004000020CB
:1054A000B0060020A50600200B0A017043700B0C0B
:1054B000090E8370C17070472DE9F0411546142222
:1054C00007468AB09DF840800C460DEB0200002193
:1054D0001E4605F07FFC0497B8F1000F15D0082296
:1054E00031460DEB020005F075FC2A46214602A864
:1054F00005F09CFC082302AA089301AB04A9054807
:1055000001F002F90AB0BDE8F0812246089501AB2E
:10551000F4E700BF803F0020F8B507460E4600F0D4
:105520002FFC0546154C00F02BFC6369401B98428C
:1055300001D3002016E0237A002BF4D0002323723D
:10554000637A13F00F0310D194F90B20A37A002A89
:105550003B70E37A04DA0F33DBB2082B03D8012364
:1055600001203370F8BD637CFAE7012B03D100F012
:1055700007FC0546D7E74FF0FF30F3E72005002092
:105580000F4B104A19789879117059789071403101
:10559000517099789170D978D170197911715979C0
:1055A000DB795171D371084B1970084B08491869A0
:1055B0001B68086101330B600648074B01F0A4B873
:1055C000A50600209D0600209C060020B0060020B5
:1055D000CC060020803F0020E406002010B50F4BD1
:1055E00002461C7804F0FF00ACB19068A0B91468C2
:1055F0005A6894420FD10A7802F0F002302A0AD198
:105600001A7A3AB90A68C3F809204A68C3F80D2023
:1056100001221A72012010BD0020FCE720050020A5
:105620002DE9F04F072A89B0884615469DF848B005
:10563000039300F1010AD4B214D80DF119008DF8CA
:10564000184005F0F3FB621C5046039BCDF800B0F8
:10565000D2B206A9FFF730FFB0FA80F0400909B0D6
:10566000BDE8F08F4FF001090027C2F3032242F09A
:1056700010028DF818200A688DF81940CDF81A200C
:10568000384C8A8884F800906060ADF81E2027723C
:1056900008225046CDF800B006A9FFF70DFF0646D8
:1056A00010B127700020DAE7627C8DF816000DF14A
:1056B00017010DF116008DF81720FFF72DFF0028B8
:1056C00001DC2670EEE706279DF816409DF816309F
:1056D0006BB164B90DF117010DF11600FFF71CFF56
:1056E000002802DC1F4B1C70DCE79DF81640EE1B07
:1056F000072E28BF072649F02003072203990DF142
:1057000019008DF8183005F065FB324608EB0701EB
:105710000DF1190005F08AFB721C5046039BCDF871
:1057200000B0D2B206A9FFF7C7FE18B100220D4B98
:105730001A70B7E709F1010303F00F099DF816305D
:105740003E44B7B213B10CB1013CE4B29DF817006E
:1057500008B100F01BFBBD42B8D80022014B01206C
:105760001A707CE720050020712300B58DB08DF8FC
:105770000830214B03A89A788DF80920DA781B7934
:105780008DF80A208DF80B301C4B28221968FFF782
:105790008BFE1B4B04A81968FFF786FE194B05A862
:1057A0001968FFF781FE184B06A81968FFF77CFE01
:1057B000164B07A81968FFF777FE154B08A819685C
:1057C000FFF772FE134B09A81968FFF76DFE124B25
:1057D0000AA81968FFF768FE104B0BA81968FFF7B5
:1057E00063FE01230E48009302A955230068FFF7CA
:1057F00017FF0DB05DF804FBA50600202006002071
:105800001C060020180600201406002010060020A8
:105810000C060020080600200406002000060020D8
:10582000B006002008B5144B144AD8781978D07007
:105830001879117059781071587940315170507140
:1058400099789879DB799071D3710D4B91701960CB
:105850000C4B0D4918691B68086101330B600B483C
:105860000B4B00F051FF012000F090FABDE808401A
:105870000021084600F03CBAA50600209D06002045
:10588000C04F0020B0060020CC060020803F002042
:10589000E406002003230E4A13707F23537019235C
:1058A00093702223D3700B4B19791171597951716F
:1058B0009979DB799171D371074B084918691B6895
:1058C000086101330B600648064B00F01DBF00BFA6
:1058D0009D060020A5060020B0060020CC06002072
:1058E000803F0020E406002008B5134B134A1978C6
:1058F000117059784031517099789170D978D17080
:1059000019791171597951719979DB799171D37143
:105910000B4B0C4918691B68086101330B600A487E
:105920000A4B00F0F1FE012000F030FABDE808401B
:105930000021084600F0DCB9A50600209D060020E5
:10594000B0060020CC060020803F0020E4060020A6
:1059500070B5154B154C1A78154D043222705A78D3
:10596000144E403262709A78DB78A270E370124B6A
:105970001A7822715A7862719A78DB78A271E37191
:105980000E4B1A691B682A6101332B60334622468D
:1059900029460B4800F0B8FE0028F7D0002323600A
:1059A00063602B612B6070BDA50600209D06002062
:1059B000CC060020E406002019050020B0060020D7
:1059C000803F002070B50025144B154C1D70154B01
:1059D000154E1D70154B31461A78154822705A78AD
:1059E000403262709A78A270DA78E2701A79227185
:1059F0005A7962719A79DB79A271E3710D4B1A6958
:105A00001B6832610133336022460B4B00F07CFE91
:105A1000256065603561356070BD00BF3B060020C4
:105A20009D0600203A060020CC060020A506002096
:105A3000803F0020B0060020E406002038B52F4D3E
:105A40002B6833B92E4A136032222E4B5A746422CB
:105A50005A612D4CA378022B08D12C4B1A782C4B71
:105A60001B7852EA03013AD1FFF7DCFE6278A37893
:105A7000112A0AD1012B08D1244B1A78244B1B7808
:105A800052EA030132D1FFF72FFFA378F12B04D1A3
:105A9000E378802B01D1FFF75BFF2379402B04D102
:105AA0006378312B11D1FFF78DFF2379422B04D17D
:105AB0006378312B09D1FFF763FD2379412B04D1A2
:105AC0006378312B01D1FFF74FFE0023114A236089
:105AD0006360136053602B6801332B6038BD012A6B
:105AE00001D0012BC2D1FFF7D5FEBFE7012A01D0BB
:105AF000012BD2D1FFF7CEFEC7E700BFE80600209A
:105B0000C04F002020050020A50600200400002032
:105B10009C0600209D060020BFF34F8F0549064BD1
:105B2000CA6802F4E0621343CB60BFF34F8F00BF3B
:105B3000FDE700BF00ED00E00400FA051FB572B6F6
:105B400003224FF4C243002469462E48CDE90032B7
:105B5000CDE9024401F06AFA40F22A4369462A4834
:105B6000009301F063FA4FF400536946274800930D
:105B700001F05CFA62B6264800F0F2FB244800F01F
:105B80005FFB72B6234B21469A69234822F0080234
:105B90009A619A6922F010029A615A6922F0010210
:105BA0005A619A6922F400729A619A6922F001029C
:105BB0009A619A6922F400629A6102F019FB164810
:105BC00001F0F6FF04F0ACFF60B2013400F0FAFF20
:105BD000522CF9D14FF0E022012413690F4823F031
:105BE0000503136101F0BAFF0D4B0E481C7000F065
:105BF00079FD62B600F0DCF82146204601F096FB04
:105C0000FFF78AFF00080140000C0140001001402E
:105C1000343F002000100240504100209C400020F2
:105C2000F0060020803F002008B501211F4801F048
:105C300071FB1F4B1F4A18701F4B1B78012B05D09F
:105C4000012803D01D4B1B78022B17D101211C4BBF
:105C500019703A231B4913600B6013681A4A1278B3
:105C6000042A16D02BB90222154B1A703A22154B72
:105C70001A60164A13680133136008BD1368002BBD
:105C8000EBD0013B1360002BE7D102210C4B1970C4
:105C9000E3E7002BEDD10B4A1368002BE9D0013B61
:105CA0001360002BE5D1FFF749FF00BF000801405A
:105CB000F10600203C05002004000020180500200B
:105CC00040050020380500203D060020EC0600209D
:105CD000012108B5054801F01DFB012801D1FFF79E
:105CE0001BFFBDE8084001F031BB00BF00080140C8
:105CF00008B5FFF711FF000004F076FF0B480C49D0
:105D00000C4A002302E0D458C4500433C4188C4217
:105D1000F9D3094A094C002301E013600432A2427E
:105D2000FBD305F05FF804F0B7FD704700000020DA
:105D3000A80500207CB00008A80500203C430020F6
:105D4000FEE7000008B5074A0320136843F010037C
:105D5000136000F0D5FE0F2004F094FE04F06AFEFC
:105D6000002008BD00200240034A044B11681B7844
:105D70000B441360704700BFF4060020410500206B
:105D8000014B1868704700BFF406002038B5044680
:105D9000FFF7F6FF0546631C1EBF044B1B78E41893
:105DA000FFF7EEFF431BA342FAD338BD41050020A5
:105DB000024A536823F0010353607047002004E057
:105DC000436A9A6A12F0500F1AD19A6A42F400722A
:105DD0009A621A68926802F46022B2F5602F0CD1C0
:105DE0001A7B52B99A6A22F480729A629A6AD20431
:105DF0005EBF9A6A42F001029A6218461A6B104717
:105E00001B6A1B6B1847406A436B1847406A836ADA
:105E100043F040038362C36A43F00403C362C36B6D
:105E20001847704770470000002373B5019390F83E
:105E300024300246012B71D0012380F824304C68B5
:105E40000068062C0D684FEA840325D823441F24DC
:105E5000466B053B9C4026EA040405FA03F3234302
:105E600043630C681668092C04EB44008B684FF000
:105E7000070429D9F5681E38844025EA04048340C4
:105E80002343F3600B68103B012B25D9002000232E
:105E900082F8243002B070BD0C2C23444FF01F0454
:105EA00009D8066B233B9C4026EA040405FA03F359
:105EB00023430363D5E7C66A413B9C4026EA0404BA
:105EC0009D402C43C462CCE73569844025EA040434
:105ED000834023433361D5E713681148834217D1C8
:105EE00098680002D2D4986840F4000098600B686B
:105EF000102BCBD10B4B0C491B68B3FBF1F30A21E0
:105F00004B430193019B002BC0D0019B013BF8E761
:105F1000936A012043F020039362B8E70220B9E7B7
:105F2000002401404C05002040420F00002337B5FB
:105F30000193036804469A68D20702D5002003B093
:105F400030BD9A6842F001029A60144B144A1B68F3
:105F5000B3FBF2F30193019BE3B9FFF711FF054691
:105F600023689B68DB07E9D4FFF70AFF401B022880
:105F7000F6D923689B6813F00103F1D1A26A0120CE
:105F800042F01002A262E26A84F8243042F0010278
:105F9000E262D4E7019B013BDCE700BF4C05002037
:105FA00040420F002DE9F041414B90460268044603
:105FB0009A420F4602D03F498A4203D15B6813F4EC
:105FC000702F70D194F82430012B6ED0012320461D
:105FD00084F82430FFF7AAFF064600285FD1A56A9F
:105FE0002168344B25F4706525F0010545F4807572
:105FF0009942A56204D12E4A536813F4702F40D100
:10600000A36A23F48013A3624B685A0505D5A36ADB
:1060100023F4405343F48053A362A36A264A13F443
:1060200080531CBFE36A23F00603E362002384F875
:106030002430236A9A62236A204ADA62236A204A59
:106040001A636FF0020223681A602268936843F4AF
:1060500080739360216843463A46206A4C3100F0D1
:1060600021FE23689A6802F46022B2F5602F9A68D4
:106070000CBF42F4A00242F480129A603046BDE8A0
:10608000F081A36A43F48013A36253685B0541BFA8
:10609000A06A20F4405040F48050A062BDE7002385
:1060A00084F82430EAE70126E8E70226E6E700BFA5
:1060B0000024014000280140C15D0008075E00087F
:1060C0000D5E000838B5036804469A68D10701D40C
:1060D000002038BD9A6822F001029A60FFF750FE56
:1060E000054623689B68DB07F2D5FFF749FE401B96
:1060F0000228F6D923689B68DA07F2D5A36A012043
:1061000043F01003A362E36A43F00103E362E0E7B4
:1061100070B5044600287CD0836A9BB9C36280F8BE
:1061200024303F4B03633F4B43633F4B83633F4B01
:10613000C3633F4B0364436C0BB93E4B436420463F
:10614000636C98472046FFF7BDFFA36A13F0100366
:1061500061D100285FD1A26A616822F4885222F0DE
:10616000020242F00202A262E269257B1143A268A8
:1061700041EA4501B2F5807F03D0561E724272415A
:106180001202267D012E07D1002D2FD1A569013DD8
:1061900042EA453545F400622668756825F469458C
:1061A0002A4372602568244AAE6832400A43AA60D6
:1061B000A268B2F5807F01D0012A02D12369013B98
:1061C0001B052568EA6A22F470021343EB62236818
:1061D0009A681A4B1340994211D10023E362A36AD3
:1061E00023F0030343F00103A36270BDA56A45F0E9
:1061F0002005A562E56A45F00105E562CCE7A36AE2
:1062000023F0120343F01003A362E36A43F0010397
:10621000E3620120E9E7A36A43F01003A362F8E711
:1062200035A50008235E0008255E0008EDA70008DC
:106230009D64000885A00008FDF7E1FFFE0E1FFF2A
:1062400038B50446002865D0836A43F002038362B0
:10625000FFF738FF0546002857D16FF01F0223686B
:106260001A6022682C4B51680B40536022682B4BFC
:1062700091680B4093602268D36803F07F43D3603A
:106280002268136903F0404313612168244B4A6973
:106290001A404A6121688A691A408A612168CA697C
:1062A0001A40CA6121680A6A1A400A6221684A6A69
:1062B0001A404A6221688A6A13408B62226819492F
:1062C000D36A03F07F43D3622268D36A03F07F432B
:1062D000D3622268136B03F0404313632268536B4D
:1062E00003F0404353632268936B0B40936322682F
:1062F000936B0B409363A36C0BB90B4BA364A36C20
:10630000204698470023E362A362002384F82430E8
:10631000284638BD0125FBE700003FFFF00601FFDE
:1063200000F0FFFF0000C0FF19A1000810B590F8B1
:1063300024300446012B11D0012380F82430FFF7CC
:10634000C1FE38B9A36A23F4885323F0010343F054
:106350000103A362002384F8243010BD0220FCE76F
:1063600038B590F824300446012B25D0012380F85D
:106370002430FFF7A7FE0546A0B92268936823F4EE
:1063800080739360206A90F82130022B0AD100F0CC
:10639000CEFCA36A58B923F4885323F0010343F0D9
:1063A0000103A362002384F82430284638BD43F05B
:1063B00040030546A362F5E70225F6E7002373B51F
:1063C000019390F824300446012B62D0012380F819
:1063D0002430FFF777FE2046FFF7A8FD054600288A
:1063E0002FD1A36A022023F4885323F0020343F041
:1063F0000203A362284B1E6801F0D4FAB6FBF0F644
:1064000076000196019B03BB2268936843F0080362
:106410009360FFF7B5FC064623689A68110718D405
:106420009A6842F004029A60FFF7AAFC06462368C5
:106430009B685B0723D4A36A23F0030343F00103A3
:10644000A362002384F8243016E0019B013B0193F2
:10645000D8E7FFF795FC801B0A28DDD923689B68E5
:106460001807D9D5A36A012523F0120343F01003BE
:10647000A362002384F82430284602B070BDFFF7E1
:106480007FFC801B0A28D2D923689B685A07CED587
:10649000E8E70225F0E700BF4C050020704738B55B
:1064A0000446002874D090F820300BB903F0AAFEFF
:1064B0002268136843F001031360FFF761FC05468F
:1064C00023685A68D10757D51A6822F002021A6069
:1064D000FFF756FC054623685A6892075AD4227E75
:1064E0000020012A1A680CBF42F0800222F08002CC
:1064F0001A602368627E012A1A680CBF42F04002CB
:1065000022F040021A602368A27E012A1A680CBF9A
:1065100042F0200222F020021A602368E27E012A63
:106520001A680CBF22F0100242F010021A602368B1
:10653000227F012A1A680CBF42F0080222F00802EA
:106540001A602368627F012A1A680CBF42F00402B5
:1065500022F004021A60D4E902321343226921684E
:106560001343626913436268013A1343CB61012309
:10657000606284F820300CE0FFF702FC401B0A2820
:106580009ED9636A43F400336362052384F82030A4
:10659000012038BDFFF7F4FB401B0A289BD9F0E728
:1065A00070B590F820200368013A012A69D80120CB
:1065B000D3F8002242F00102C3F800224A69D3F85E
:1065C0001C4202F01F0200FA02F224EA0204C3F89D
:1065D0001C42CC69D043ACB9D3F80C420440C3F898
:1065E0000C42CE684C698D88483445EA064543F82C
:1065F00034504C698E680D88483445EA064503EBF3
:10660000C4046560CC69012C15D1D3F80C42144345
:10661000C3F80C420E684C698D88483445EA06453B
:1066200043F834504C698E688D89483445EA0645F4
:1066300003EBC40465608C69DCB9D3F80442044000
:10664000C3F804420C69C4B9D3F814422040C3F81B
:1066500014020020096A012902BFD3F81C120A4360
:10666000C3F81C22D3F8002222F00102C3F8002252
:1066700070BDD3F804421443E2E7D3F81402104388
:10668000E5E7436A43F4802343620120F0E738B52D
:1066900090F820300446012B1FD10223026880F8B5
:1066A0002030136823F001031360FFF769FB0546F0
:1066B0002368586810F0010001D1606238BDFFF70F
:1066C0005FFB401B0A28F3D9636A43F4003363621B
:1066D000052384F820300120F0E7436A43F40023C7
:1066E0004362F8E790F82030013B012B06D802689E
:1066F0000020136843F0020313607047436A43F4B9
:106700008023436201207047F0B590F82050046860
:10671000013D012DA46845D814F0E05F3CD001256F
:10672000C4F30164A5401D608B680668CD6804F160
:10673000180753BB0B6845EA43553B01F550036806
:106740000D6903EB07135D600B7D012B4FEA04130A
:1067500007D101681944D1F8844144F48074C1F828
:106760008441016854681944C1F88C411168026879
:106770001A44C2F88811026800201344D3F880211B
:1067800042F00102C3F88021F0BD2B434D6843EA7B
:10679000C5033D017351D2E7436A43F400134362DA
:1067A0000120F1E7436A43F48023F8E7F0B590F85D
:1067B0002040013C012C79D8046841B9E568AD0757
:1067C00007D1436A43F4001343620120F0BD2569F9
:1067D000F5E701F11B052E01A45904F004049460AF
:1067E0000768002C59D1BC59640D146006682C014F
:1067F000345904F00204D46006680C0106EB01165B
:10680000D6F8B4713F074EBF0826D6F8B46106F03B
:106810000F061661066806EB05167668C6F30726AE
:106820009661066806EB051675682D0C55610268C1
:106830002244D2F8B8211A7002682244D2F8B82152
:10684000120A5A7002682244D2F8B821120C9A70C7
:1068500002682244D2F8B821120EDA70026822448B
:10686000D2F8BC211A7102682244D2F8BC21120A63
:106870005A7102682244D2F8BC21120C9A71026843
:106880002244D2F8BC21120EDA71036849B9DA68E1
:1068900042F02002DA60002098E7BC59E408546016
:1068A000A4E71A6942F020021A61F4E7436A43F44C
:1068B000802389E790F82030013B012B05D802683E
:1068C00000205369194351617047436A43F48023A0
:1068D00043620120704770477047704770477047A8
:1068E00070477047704770477047704770472DE991
:1068F000F84F036805465E69D3F8049016F001046A
:10690000D3F80880D3F80CB0D3F810A09F6927D033
:1069100018F0010F07D0012218F0020F9A6000F062
:10692000A780FFF7D8FF002418F4807F0AD04FF427
:1069300080722B6818F4007F9A6000F0A8802846C7
:10694000FFF7CAFF18F4803F0AD04FF480322B685B
:1069500018F4003F9A6000F0AA802846FFF7BDFFB8
:10696000320707D51BF0100F1FBF10222B6844F40D
:106970000074DA60730708D51BF0080F05D00822F1
:106980002B682846DA60FFF7ACFFB00706D52B6806
:10699000DB68990702D02846FEF720FD720607D56E
:1069A0001AF0100F1FBF10222B6844F480641A6184
:1069B000B30608D51AF0080F05D008222B68284620
:1069C0001A61FFF790FFF00606D52B681B6999073F
:1069D00002D02846FFF786FFB20308D519F0100F42
:1069E00005D010222B6828465A60FFF77DFFF3037D
:1069F00008D519F0080F05D008222B6828465A60E0
:106A0000FFF773FF30042AD519F0040F24D0F105E5
:106A100003D5FA0748BF44F00104B30503D5B8070E
:106A200048BF44F00204710503D57A0748BF44F01B
:106A30000404330510D517F070030DD0402B56D049
:106A400045D8202B4DD0302B4ED0102B46D02A6865
:106A5000936923F07003936104222B685A602CB170
:106A60006B6A284623436B62FFF740FFBDE8F88F4F
:106A700018F0040F05D118F0080F05D1FFF72EFF0D
:106A800051E74FF400644FE74FF480544CE718F49B
:106A9000806F02D044F4005454E718F4006F02D021
:106AA00044F480444EE72846FFF719FF4AE718F4FC
:106AB000802F02D044F4004452E718F4002F02D093
:106AC00044F480344CE72846FFF70AFF48E7502B90
:106AD00010D0602BBBD144F48074B8E744F00804B4
:106AE000B5E744F01004B2E744F02004AFE744F007
:106AF0004004ACE744F08004A9E7406A7047000016
:106B000007490302CA6803F4E06322F4E062120456
:106B1000120C134343F0BF6343F40033CB60704760
:106B200000ED00E030B5154BDC68C4F30224C4F17D
:106B30000703251D042B28BF0423062D4FF0FF3526
:106B400094BF0024033C05FA03F321EA0303A540A4
:106B500022EA0502A340002843EA0203ACBF00F189
:106B60006040074A4FEA0313DBB2ABBF00F5614058
:106B700000F00F0080F80033135430BD00ED00E04A
:106B800014ED00E0002807DB01234109034A00F06F
:106B90001F00834042F82130704700BF00E100E051
:106BA00000280CDB01220649430900F01F00824047
:106BB000203341F82320BFF34F8FBFF36F8F70470F
:106BC00000E100E0002808DB01224309034900F04E
:106BD0001F008240603341F82320704700E100E04D
:106BE000034610B540B314210068144A0244B2FBB6
:106BF000F1F292001A64124ADA63022283F8212029
:106C0000D3E901242243DC68016822431C6921F492
:106C10007F5122435C6921F0300122439C69224369
:106C2000DC6922430A43026000200122986383F852
:106C3000200083F8212010BD0120FCE7F8FFFDBFF4
:106C400000000240034610B528B30168134C0A68DF
:106C500022F001020A600268002010601A68506089
:106C60001A6890601A68D06019680D4ADC630A449B
:106C70001421B2FBF1F2012192001A6401FA02F22E
:106C80006260C3E90A00C3E90C00986383F820003E
:106C900083F8210010BD0120FCE700BF0000024086
:106CA000F8FFFDBF70B590F82040012C3DD00124C5
:106CB00090F8215080F82040012DECB24FF00005F3
:106CC00031D1022680F8216006688563356825F099
:106CD00001053560D0E90F56B4406C60046863600C
:106CE0004368102B03680BBF9A60996003680368C0
:106CF0000CBFD960DA60C26A036852B11A6842F008
:106D00000E021A6002680020136843F0010313604A
:106D100070BD1A6822F004021A600268136843F01A
:106D20000A031360EEE780F820500220F0E790F8A5
:106D300021200346022A06D0042282630120002279
:106D400083F82020704701680A6822F00E020A606A
:106D500001680A6822F001020A6001211A6CC06B06
:106D600001FA02F24260002083F82110E7E70000F8
:106D700030B40424C36B056C1968AC4003680C4242
:106D80001A6833D0540731D51A6895065EBF1A6861
:106D900022F004021A6003683F4A934219D0143269
:106DA000934218D01432934217D01432934217D022
:106DB0001432934217D01432934214BF4FF08063C1
:106DC0004FF48003354A5360C36A002B61D030BC56
:106DD00018470423F6E74023F4E74FF48063F1E714
:106DE0004FF48043EEE74FF48023EBE70224AC40FE
:106DF0000C4236D0940734D51A68910606D41A6826
:106E000022F00A021A60012380F821300368224A26
:106E1000934219D01432934218D01432934217D0AF
:106E20001432934217D01432934217D01432934243
:106E300014BF4FF000734FF40013184A536000233F
:106E400080F82030836AC0E70223F6E72023F4E7C6
:106E50004FF40073F1E74FF40053EEE74FF40033C3
:106E6000EBE70824AC400C4213D0120711D51A6886
:106E700022F00E021A600123026CC16B03FA02F2C7
:106E80004A60836380F82130002380F82030036B50
:106E90009BE730BC704700BF080002400000024082
:106EA000114AD36813F0100305D01049CB6943F0A1
:106EB0000203CB611023D268500706D50B4943F07B
:106EC0000403CA6942F00102CA61074AD169C907CD
:106ED00008D50648C16941F00401C161D16921F0BA
:106EE0000101D161D360704700200240F806002004
:106EF0007047704770B5424B424CDA6812F0100F81
:106F000002D1DB685A070AD54FF0FF33A568A360AA
:106F1000FFF7C6FF2846FFF7ECFF00232370384D2C
:106F2000EB689B0618D52023EB602378A3B1237868
:106F3000012B27D16368013B63606368DBB1A06804
:106F4000FFF7D6FFA06800F58060A0602B6923F0F2
:106F500002032B6100F058F8237803F0FF014BB9CE
:106F6000274B1A6922F007021A611A6922F4A0520B
:106F70001A61217670BD4FF0FF30A0602370FFF7DB
:106F8000B7FFE9E72378022B09D12B69002023F012
:106F900004032B61FFF7ACFF00232370DCE7636879
:106FA000013B63606368D3B1A3680233A360A66842
:106FB000D4E90401020C42EA01420B0CC4E90423A7
:106FC0002B6923F001032B61D4E904230023E3613F
:106FD0002B6992B243F001032B613280BCE7237826
:106FE000032B06D1A068FFF783FF4FF0FF33A360A8
:106FF000D2E72378A068042B0CBF02380638F2E7EA
:1070000000200240F80600200022064BDA61064B01
:107010001A6942F002021A6158611A6942F040028C
:107020001A617047F8060020002002402DE9F74F52
:1070300000221546794E7A4BDFF8E8C17A4FD1F835
:1070400000E03EFA05F402D103B0BDE8F08F4FF046
:10705000010808FA05F80EEA080438EA0E0E40F0B6
:10706000A180D1F804E0BEF1030F09D80EF1FF3E74
:10707000BEF1020F00F2A680DFE80EF0B8BDC3003B
:10708000BEF1120F00F0BA8000F28E80BEF1110F37
:1070900000F0AE80FF2C98BF82464FF00F094FEAF8
:1070A000850E84BF00F1040AAEF1200EDAF80080EC
:1070B00009FA0EFB28EA0B0802FA0EFE48EA0E084F
:1070C000CAF80080D1F804E01EF0805F6AD0D6F8DC
:1070D00018E025F003084EF0010EC6F818E0D6F8C7
:1070E00018E008F180480EF0010ECDF804E008F534
:1070F000803805F0030ADDF804E04FEA8A0AD8F880
:1071000008E009FA0AF92EEA0909DFF820E17045DA
:107110007BD00EF5806E70457AD00EF5806E70458E
:1071200079D00EF5806E704514BF4FF0040E4FF00D
:10713000030E0EFA0AFE4EEA090EC8F808E0D1F86E
:1071400004E01EF4801FD3F808E014BF4EEA040EDA
:107150002EEA040EC3F808E0D1F804E01EF4001F84
:10716000D3F80CE014BF4EEA040E2EEA040EC3F866
:107170000CE0D1F804E01EF4003FD3F804E014BFA3
:107180004EEA040E2EEA040EC3F804E0D1F804E03F
:107190001EF4803FD3F800E014BF4EEA04042EEA48
:1071A00004041C6001354AE7DFF88490CE4509D01D
:1071B00014D8A9F58019CE4504D0E64502D0BE45C5
:1071C0007FF468AF8A68F2B1012A08BFC0F8108066
:1071D0004FF0080218BFC0F814805BE7DFF8549046
:1071E000CE45EFD009F58039CE45E9E7CA6851E7C9
:1071F000CA6804324EE7CA6808324BE7CA680C32E4
:1072000048E7002246E7042244E74FF0000E90E7EB
:107210004FF0010E8DE74FF0020E8AE7001002409A
:10722000000401400000211000001110000801407E
:1072300000002210000031102DE9F74F4FF0040B31
:1072400000224FF0010A4FF00F0800EB0B030193EF
:107250002E4B31FA02F402D103B0BDE8F08F0AFAE6
:1072600002F70F4049D022F0030404F1804404F5F2
:10727000803402F0030CA5684FEA8C0C08FA0CF974
:1072800009EA050E224DA84239D005F58065A842CD
:1072900037D005F58065A84235D005F58065A84250
:1072A0000CBF0325042505FA0CF575456FEA0706A2
:1072B0000FD11D6835401D605D6835405D60DD683B
:1072C0003540DD609D6835409D60A56825EA09056B
:1072D000A560FF2F94BF0746019F4FEA82043D68D7
:1072E00088BF203C08FA04FC25EA0C050BFA04F4DC
:1072F00025433D60C4683440C4600132A9E70025DD
:10730000D1E70125CFE70225CDE700BF000401400A
:10731000000801408368194214BF01200020704713
:107320000AB1016170470904FBE70000064A012920
:10733000136923F00403136101D130BF704740BFCC
:1073400020BF20BF704700BF00ED00E0024A136974
:1073500043F002031361704700ED00E07047000046
:1073600010B5054C6369DB0304D5FFF7F7FF4FF455
:107370008033636110BD00BF000401402DE9F3417B
:10738000044638B30368DB0710D423689F0759D439
:107390002368190700F1908023685A0700F1BC8028
:1073A000E369002B40F0248100202BE08C4D6B68BA
:1073B00003F00C03042B07D06B6803F00C03082BBD
:1073C0000AD16B68DE0307D52B689D03DDD56368A2
:1073D000002BDAD1012015E06368B3F5803F14D1AA
:1073E0002B6843F480332B606368FBB1FEF7C8FC65
:1073F00006462B689803C8D4FEF7C2FC801B64289D
:10740000F7D9032002B0BDE8F0813BB92B6823F423
:1074100080332B602B6823F48023E4E7B3F5A02F9F
:107420002B68F4D143F480232B60D9E7FEF7A8FC46
:1074300006462B689903A8D5FEF7A2FC801B64289A
:10744000F7D9DEE7664D6B6813F00C0F07D06B6859
:1074500003F00C03082B10D16B68DA030DD42B68F2
:107460009B0702D52369012BB4D12B68626923F0F5
:10747000F80343EAC2032B608AE72269594B6AB1D9
:1074800001221A60FEF77CFC06462B689F07ECD4AD
:10749000FEF776FC801B0228F7D9B2E71A60FEF7E8
:1074A0006FFC06462B6898077FF572AFFEF768FC05
:1074B000801B0228F6D9A4E7A269494E494BE2B1E4
:1074C0000122C3F88024FEF75BFC0546736A9B0724
:1074D0000DD54FF4FA52444B1B68B3FBF2F3019302
:1074E00000BF019B5A1E0192002BF9D154E7FEF711
:1074F00047FC401B0228E9D983E7C3F88024FEF744
:107500003FFC0546736A9F077FF546AFFEF738FCE0
:10751000401B0228F6D974E7314DEB69D80027D417
:107520000127EB6943F08053EB61EB6903F0805373
:107530000093009B2D4E3368D9051BD5E368012BC2
:1075400029D12B6A43F001032B62E368002B38D06A
:10755000FEF716FC41F2883806462B6A9B072AD5AF
:10756000002F3FF41DAFEB6923F08053EB6117E769
:107570000027DFE7336843F480733360FEF700FCD5
:1075800080463368DA05D9D4FEF7FAFBA0EB080091
:107590006428F6D935E73BB92B6A23F001032B6247
:1075A0002B6A23F00403CFE7052B2B6AF5D143F0B8
:1075B00004032B62C5E7FEF7E3FB801B4045CCD9F3
:1075C0001FE7FEF7DDFB41F2883806462B6A980775
:1075D000C6D5FEF7D5FB801B4045F7D911E700BFA4
:1075E00000100240000042424C05002000700040A4
:1075F0002B4D6A6802F00C02082A3FD00022022BB1
:10760000284B1A662DD1FEF7BBFB06462B68990165
:1076100021D4236AB3F5803F05D16B68A26823F4B7
:10762000003313436B606A68D4E9083122F47412A2
:107630000B43134301226B601A4B1A66FEF7A0FB43
:1076400004462B689A013FF5AFAEFEF799FB001B8D
:107650000228F6D9D5E6FEF793FB801B0228D5D980
:10766000CFE6FEF78DFB04462B689B017FF59CAEB1
:10767000FEF786FB001B0228F6D9C2E6012B3FF479
:10768000A9AE6868236A00F480329A427FF4A2AE01
:10769000636A00F47010C01A18BF0120B2E600BF80
:1076A00000100240000042420D4A536803F00C01F2
:1076B000082912D10B48C3F38341DB03405C09D591
:1076C0005368094AC3F340435043084AD35CB0FBB4
:1076D000F3F07047064B584370470348704700BFAC
:1076E0000010024086AF000800127A0084AF000844
:1076F00000093D002DE9F0410D46044610B9012076
:10770000BDE8F081464A136803F007038B422AD391
:107710002368980732D42368DA0745D4404A1368AF
:1077200003F00703AB4267D823683E4D13F0040F04
:107730006ED123681B0706D56B68226923F460535A
:1077400043EAC2036B60FFF7AFFF6B68364AC3F3CF
:107750000313D35CD840354B1860354B186803F0E1
:1077600091F90020CCE7136823F007030B43136063
:10777000136803F007038B42C1D1C9E713F0040F6C
:10778000284B1EBF5A6842F4E0625A602268110713
:1077900042BF5A6842F460525A605A68A16822F0A7
:1077A000F0020A435A60B6E762681E4E012A336847
:1077B0001AD113F4003FA2D0736841F2883823F045
:1077C000030313437360FEF7DBFA074673686268CE
:1077D00003F00C03B3EB820FA0D0FEF7D1FAC01B6D
:1077E0004045F3D903208BE7022A02D113F0007F32
:1077F000E1E713F0020FDEE7136823F007032B43E2
:107800001360136803F00703AB427FF478AF8BE794
:107810006B68E26823F4E06313436B6089E700BFA1
:1078200000200240001002405CB000084C0500201F
:1078300044050020044B054A5B68C3F30223D35C74
:10784000034A1068D84070470010024054B0000846
:107850004C050020044B054A5B68C3F3C223D35C8C
:10786000034A1068D84070470010024054B0000826
:107870004C0500200F2303600B4B5A6802F00302F3
:1078800042605A6802F0F00282605A6802F4E062D4
:10789000C2605B68DB0803F4E0630361034B1B68B1
:1078A00003F007030B607047001002400020024005
:1078B0002DE9F34103680546D80721D5364CE36925
:1078C000D9002CD40126E36943F08053E361E369D6
:1078D00003F080530193019B304F3B68DA0520D5BC
:1078E000236A6A6813F440732FD1236A6A6823F409
:1078F0004073134323621EB1E36923F08053E361B5
:107900002B689A0706D5244AA968536823F4404394
:107910000B4353602B68DB0636D4002012E00026B0
:10792000DAE73B6843F480733B60FEF729FA804650
:107930003B68DB05D4D4FEF723FAA0EB08006428EB
:10794000F6D9032002B0BDE8F08102F440729A42F9
:10795000CBD00120124A236AC2F84004002023F44D
:107960004071C2F84004D8072162BED5FEF708FA7C
:1079700041F288380746236A9907B6D4FEF700FA21
:10798000C01B4045F7D9DCE7034AE968536823F494
:1079900080030B435360C0E70010024000700040BA
:1079A00000004242022808B544D0102803D0012824
:1079B00022D0002034E0254B5A68186810F08070FF
:1079C0002ED0C2F383412248D20348BF5A68405C9C
:1079D00041BF2049C2F34042895C1F4A5B684CBFEB
:1079E000B2FBF1F21D4A5B0202FB00F018D4032344
:1079F0004000B0FBF3F013E040F20231134A136A87
:107A00001940B1F5817F1ED003F44073B3F5007FB8
:107A100007D149F64043506A10F0020018BF1846DB
:107A200008BDB3F5407FC4D110684FF2244310F471
:107A30000030F3E7FFF70EFF044B5B68C3F38133BD
:107A400001335B00D5E74FF40040E9E70010024046
:107A500098AF000896AF000800127A0000093D00B8
:107A6000036A026A70B522F0010202624468826908
:107A70000D6822F073022A438D6823F002032B4322
:107A80000A4DA8420BD1CD6823F008032B4324F400
:107A90004074D1E90556354323F004032C43446078
:107AA00082614A684263036270BD00BF002C0140DE
:107AB000036A026A70B522F4807202624468C26985
:107AC0000D6822F073022A438D6823F4007343EAA1
:107AD00005230B4DA8420DD1CD6823F4006343EA82
:107AE000052324F44054D1E90556354323F480633B
:107AF00044EA05144460C2614A68C263036270BD0F
:107B0000002C0140036A026A30B522F480520262FE
:107B10004468C2690D6822F4E64242EA05228D6893
:107B200023F4005343EA0533064DA84202BF4D69D2
:107B300024F4804444EA85144460C2614A680264C3
:107B4000036230BD002C014070477047704770479A
:107B500070477047704770477047000090F83D309D
:107B6000012B21D10223026880F83D30D36843F015
:107B70000103D36003680D4A93420AD0B3F1804FEA
:107B800007D0A2F59432934203D002F5806293426B
:107B900004D19A6802F00702062A03D01A6842F05C
:107BA00001021A600020704701207047002C01403C
:107BB000022341F2111210B580F83D3003680446EB
:107BC000196A114208D140F24442196A114202BFB7
:107BD0001A6822F001021A60636E0BB90E4B6366DD
:107BE0002046636E9847002084F8460084F83C00E5
:107BF00084F83E0084F83F0084F8400084F8410097
:107C000084F8420084F8430084F8440084F8450076
:107C100084F83D0010BD00BF99AD000810B50368A1
:107C200004461A69910711D5DA6892070ED56FF0EC
:107C300002021A610123037703689B699B0700F026
:107C40008380D0F8903098470023237723681A69FF
:107C5000500712D5DA6851070FD56FF004021A6188
:107C60000223237723689B6913F4407F73D0D4F8F1
:107C70009030204698470023237723681A6912071B
:107C800011D5DA6810070ED56FF008021A610423C7
:107C900023772368DB69990764D0D4F890302046B5
:107CA00098470023237723681A69D20612D5DA6829
:107CB000D0060FD56FF010021A61082323772368CE
:107CC000DB6913F4407F54D0D4F8903020469847B5
:107CD0000023237723681A69D10709D5DA68D20708
:107CE00006D56FF001021A612046D4F8803098471B
:107CF00023681A69100609D5DA68110606D56FF0EF
:107D000080021A612046D4F8B030984723681A6977
:107D1000520609D5DA68500606D56FF040021A619E
:107D20002046D4F88830984723681A69910627D5E9
:107D3000DA68920624D56FF020021A612046D4F842
:107D4000A830BDE810401847D0F898309847204632
:107D5000D4F89C3077E7D4F8983020469847D4F888
:107D60009C3086E7D4F8983020469847D4F89C3069
:107D700095E7D4F8983020469847D4F89C30A5E78A
:107D800010BD00001A4A036890420AD0B0F1804F3B
:107D900007D0A2F59432904203D002F5806290425F
:107DA00015D14A6823F070031343114A90420AD058
:107DB000B0F1804F07D0A2F59432904203D002F583
:107DC0008062904203D1CA6823F4407313434A6926
:107DD00023F08003134303608B68C3620B688362E4
:107DE000034B984204BF0B6903630123436170474F
:107DF000002C0140036A026A70B522F01002026290
:107E0000446882690D6822F4E64242EA05228D68E0
:107E100023F0200343EA05130B4DA8420DD1CD6892
:107E200023F0800343EA051324F44064D1E90556A6
:107E3000354323F0400344EA8504446082614A6884
:107E40008263036270BD00BF002C014038B590F81A
:107E50003C300446012B5BD00120082A84F83C000A
:107E600043D006D8D2B1042A2CD0002384F83C3069
:107E700038BD0C2AF9D12068FFF744FE2268D36987
:107E800043F40063D3612268D36923F48063D36130
:107E900022680969D36943EA012337E02068FFF7C4
:107EA000DFFD2268936943F00803936122689369B8
:107EB00023F0040393612268096993690B4393617A
:107EC0000020D2E72068FFF795FF2268936943F40A
:107ED000006393612268936923F48063936122684D
:107EE0000969936943EA0123E9E72068FFF7E0FDA8
:107EF0002268D36943F00803D3612268D36923F071
:107F00000403D36122680969D3690B43D361D7E7BE
:107F10000220ADE710B584680A4324F47F4442EAA6
:107F200003222243826010BD38B590F83C300446ED
:107F3000012B4FF0020000F09A80012284F83D00EE
:107F4000206884F83C20836823F47F4323F0770380
:107F500083600B68602B57D036D8402B6ED018D872
:107F6000202B0DD00AD833F0100109D0012384F85A
:107F70003D30002384F83C30104638BD302BF5D11D
:107F800021688A6822F07002134343F007038B6074
:107F90002DE0502BEAD123684868CD68196A1A6A27
:107FA00021F00A0122F001021A629A69014322F0CB
:107FB000F00242EA05129A6119622268936823F07E
:107FC000700343F0570311E0B3F5805F0FD0B3F5B2
:107FD000005F0ED0702BC9D1CB682068D1E9012198
:107FE000FFF798FF2268936843F0770393600022BD
:107FF000BCE7CB682068D1E90121FFF78BFF22683D
:10800000936843F48043F1E7236848681A6ACD68AF
:10801000196A22F0A00221F010011962996942EA5E
:10802000001221F4704141EA053199611A62226817
:10803000936823F0700343F06703D7E72368486829
:10804000CD68196A1A6A21F00A0122F001021A6247
:108050009A69014322F0F00242EA05129A6119621C
:108060002268936823F0700343F04703BEE702469B
:1080700082E710B50124036A01F01F018C4023EA56
:1080800004030362036A8A401A43026210BD0000BF
:1080900010B5044629B990F83E30012B1ED00120BE
:1080A00042E0042907D190F83F30012BF7D1022399
:1080B00080F83F3015E008290CBF90F8403090F868
:1080C0004130013B18BF0123002BE8D102230829CE
:1080D0000CBF84F8403084F8413002E0022380F87D
:1080E0003E3001222068FFF7C4FF23680F4A934205
:1080F00002BF536C43F4004353642368934209D096
:10810000B3F1804F06D00A4A934203D002F5806251
:10811000934204D19A6802F00702062A03D01A6833
:1081200042F001021A60002010BD00BF002C014087
:1081300000040040FFF7ACBF082938B504460D46DF
:1081400042D004D851B1042939D0012038BD0C29BE
:10815000FBD10268D36823F0100303E00268D36800
:1081600023F00203D360294600222068FFF781FF35
:1081700023681E4A93420DD141F21112196A11422D
:1081800008D140F24442196A114202BF5A6C22F4EB
:1081900000425A6441F211122368196A114208D14F
:1081A00040F24442196A114202BF1A6822F00102E9
:1081B0001A6001236DB984F83E300020C6E70268DA
:1081C000D36823F00403CDE70268D36823F00803E3
:1081D000C8E7042D02D184F83F30EEE7082D0CBF2C
:1081E00084F8403084F84130E7E700BF002C0140BC
:1081F000FFF7A2BF134BC0F88030134BC0F8843098
:10820000124BC0F88830124BC0F88C30114BC0F8BC
:108210009030114BC0F89430104BC0F89830104B90
:10822000C0F89C300F4BC0F8A0300F4BC0F8A43002
:108230000E4BC0F8A8300E4BC0F8AC300D4BC0F858
:10824000B03070471DAA0008497B0008557B000824
:10825000577B00084D7B00084F7B00084B7B0008D4
:10826000517B0008537B0008597B000807840008F5
:10827000098400080B84000810B5044668B390F820
:108280003D3003F0FF0253B980F83C20FFF7B2FF06
:10829000836C0BB9124B83642046A36C984702236E
:1082A000206884F83D30211DFFF76CFD012300207C
:1082B00084F8463084F83E3084F83F3084F840300B
:1082C00084F8413084F8423084F8433084F84430F4
:1082D00084F8453084F83D3010BD0120FCE700BF34
:1082E0007DAC000810B5044668B390F83D3003F04B
:1082F000FF0253B980F83C20FFF77CFF036E0BB9F7
:10830000124B03662046236E98470223206884F8A8
:108310003D30211DFFF736FD0123002084F8463053
:1083200084F83E3084F83F3084F8403084F841309F
:1083300084F8423084F8433084F8443084F845307F
:1083400084F83D3010BD0120FCE700BF55AC0008AB
:1083500030B590F83C200346012A4FF0020026D0A9
:1083600001221C6883F83C2083F83D0062680D6898
:1083700022F070022A43A06862601A680C4CA24284
:108380000AD0B2F1804F07D0A4F59434A24203D0B2
:1083900004F58064A24204D1496820F080000143C2
:1083A00091600122002083F83D2083F83C0030BD1D
:1083B000002C014090F83C300246012B21D00123D3
:1083C00080F83C30CB68886823F4407303434868E6
:1083D00023F480630343086823F4006303430869BC
:1083E00023F480530343486923F4005303430020DC
:1083F000C96923F480430B4311684B6482F83C0045
:1084000070470220704770477047704710B501F001
:108410008BFB20B1D0E90030BDE81040184710BDFB
:10842000EFF3058313B16FF005007047EFF310838E
:10843000002BF8D1074B1868022806D1EFF31183FF
:10844000002BF0D14FF0FF3070470028FAD1012205
:108450001A607047500E002010B5EFF3058313B17A
:108460006FF0050010BDEFF31084002CF8D1094B1C
:108470001A68022A06D1EFF31183002BF0D14FF0D6
:10848000FF30EFE7012AFAD102221A6000F0DEFD88
:108490002046E7E7500E0020F0B51446002287B0D2
:1084A0000B460592EFF3058252BBEFF310823ABB05
:1084B000264A1268022A02D1EFF3118202BBF8B1F8
:1084C00000228DF81320002C30D0216809B90DF15D
:1084D0001301A569002D08BF18256A1E372AAC466E
:1084E0002AD86268D20727D4666966B1B208D4E98F
:1084F000027E57B1BEF5CE7F02D3246904B1EEB936
:10850000059807B0F0BD8022F1E7BEF1000FF7D16A
:108510002469002CF4D105ACCDE900C492B200F07E
:108520001CFD01281CBF00230593E9E74FF0180C40
:1085300080220DF11301EEE70020E2E7CDE90147CB
:10854000009500F0D1FC0590DAE700BF500E002046
:10855000F7B506460D4617461C46EFF3058313B1E3
:10856000002003B0F0BDEFF31083002BF8D1164BC1
:108570001B68022B03D1EFF31183002BF0D1002EE7
:10858000EED0082001F06AFC03460028E8D02A1E3D
:1085900018BF0122C0E900677CB12068D4E9021449
:1085A00041B12F2CDCD9019108490091012101F042
:1085B00032F9D6E7002CD3D1044604492046009175
:1085C000012101F001F9CCE7500E00200D840008D4
:1085D00007B50A46EFF3058323B16FF0050003B03A
:1085E0005DF804FBEFF31083002BF6D10B4B1B68F7
:1085F000022B03D1EFF31183002BEED150B10023F6
:108600000421009301F044F9012814BF6FF0020027
:108610000020E4E76FF00300E1E700BF500E002008
:10862000034B0360034B0B6080231360704700BF54
:10863000B40C0020B40A0020034B0360034B0B6012
:1086400080231360704700BF18090020180700201E
:108650004FF0FF3200F10803C0E9022343600361D9
:1086600000230360704700230361704743684B6039
:108670009A688A60516099600861036801330360F9
:10868000704730B50C68631C0AD103695A684A60A8
:1086900091608B605960086103680133036030BDED
:1086A00000F10802134652681568A542FAD9EDE7B1
:1086B0000369D0E901128A60416851605A688242B8
:1086C00004BF82685A60002202611A68013A1A6087
:1086D0001868704710B5044601F094FAA46B01F0D5
:1086E000B1FAB4FA84F0400910BD70B51646026CB8
:1086F0000446856B42B906689EB9406800F0A0FF49
:1087000066600135A56370BD6EB9806802F08EFBAE
:10871000A368226C13446268A360934224BF236859
:10872000A3600020EDE7C06802F080FB226CE368E4
:1087300051429B1A2268E36093423EBF63685B1814
:10874000E360022EEDD10DB1013DEAE72846D8E7FE
:1087500003461A6C084610B462B1DC6859681444C8
:108760008C4228BF1968DC6028BFD960D96810BC6A
:1087700002F05CBB10BC704770B5044601F042FAD1
:1087800094F8455004F124066DB2002D14DCFF234B
:1087900084F8453001F056FA01F034FA94F8445068
:1087A00004F110066DB2002D12DCFF2384F8443072
:1087B000BDE8704001F046BA636A002BE7D030464E
:1087C00000F0A0FE08B100F025FF013D6DB2DCE72E
:1087D0002369002BE9D0304600F094FE08B100F088
:1087E00019FF013D6DB2DEE738B50D46044640B9CC
:1087F0004FF0500383F31188BFF36F8FBFF34F8F98
:10880000FEE701F0FFF9D4E90F314B432268D0189D
:108810005B1A6060A26000201A44FF23A063E2603C
:1088200084F8443084F84530A5B9236973B104F164
:10883000100000F067FE48B14FF0E0234FF0805287
:10884000C3F8042DBFF34F8FBFF36F8F01F0FAF918
:10885000012038BD04F11000FFF7FAFE04F12400F6
:10886000FFF7F6FEF2E737B50D461C4640B94FF06C
:10887000500383F31188BFF36F8FBFF34F8FFEE771
:1088800043B94FF0500383F31188BFF36F8FBFF3E9
:108890004F8FFEE74AB191B94FF0500383F311882F
:1088A000BFF36F8FBFF34F8FFEE741B14FF050031F
:1088B00083F31188BFF36F8FBFF34F8FFEE7502311
:1088C0000193019B502B08D04FF0500383F3118884
:1088D000BFF36F8FBFF34F8FFEE70121002D08BF5D
:1088E0002246C4E90F0584F8461020462260FFF7AF
:1088F0007BFF20469DF8183084F84C3003B030BD23
:108900002DE9FF410F461E460446019240B94FF043
:10891000500383F31188BFF36F8FBFF34F8FFEE7D0
:1089200051B9036C43B14FF0500383F31188BFF387
:108930006F8FBFF34F8FFEE7022E0BD1E36B012B3E
:1089400008D04FF0500383F31188BFF36F8FBFF34C
:108950004F8FFEE700F064FE054630B300254FF070
:10896000000801F04FF9A26BE36B9A4201D3022E8B
:1089700027D1324639462046FFF7B7FE636A1BB15E
:1089800004F1240000F0BEFD48B14FF0E0234FF0A9
:108990008052C3F8042DBFF34F8FBFF36F8F01F0E8
:1089A00051F9012004B0BDE8F081019B002BD6D025
:1089B0004FF0500383F31188BFF36F8FBFF34F8FD6
:1089C000FEE7019B1BB901F03DF90020EAE715B96C
:1089D00002A800F0D7FD01F035F900F087FB01F0A7
:1089E00011F994F84430FF2B08BF84F8448094F8C0
:1089F0004530FF2B08BF84F8458001F023F901A919
:108A000002A800F0CBFD38BB01F0FCF8A26BE36BD1
:108A10009A420ED101F016F9019904F1100000F00C
:108A200037FD2046FFF7A8FE00F00CFC48B10125F9
:108A300097E701F007F92046FFF79EFE00F002FCE1
:108A4000F5E74FF0E0234FF08052C3F8042DBFF359
:108A50004F8FBFF36F8FEAE72046FFF78DFE00F0E0
:108A6000F1FBB2E72DE9F843894617461E46044656
:108A700040B94FF0500383F31188BFF36F8FBFF3FA
:108A80004F8FFEE751B9036C43B14FF0500383F3AE
:108A90001188BFF36F8FBFF34F8FFEE7022E0BD10C
:108AA000E36B012B08D04FF0500383F31188BFF321
:108AB0006F8FBFF34F8FFEE701F07CF9EFF3118862
:108AC0004FF0500383F31188BFF36F8FBFF34F8FC5
:108AD000A26BE36B9A4201D3022E1DD194F845504C
:108AE0003246494620466DB2FFF7FFFD6B1C0ED1A2
:108AF000636A3BB104F1240000F004FD10B10FB132
:108B000001233B60012088F31188BDE8F88301351B
:108B10006DB284F84550F5E70020F4E72DE9FF41F8
:108B20000E460446019240B94FF0500383F311887A
:108B3000BFF36F8FBFF34F8FFEE751B9036C43B1A3
:108B40004FF0500383F31188BFF36F8FBFF34F8F44
:108B5000FEE700F065FD054618B300254FF000085C
:108B600001F050F8A76B47B331462046013FFFF7AD
:108B7000EFFDA763236973B104F1100000F0C2FC9C
:108B800048B14FF0E0234FF08052C3F8042DBFF3FB
:108B90004F8FBFF36F8F01F055F8012004B0BDE88F
:108BA000F081019B002BD9D04FF0500383F3118843
:108BB000BFF36F8FBFF34F8FFEE7019B1BB901F02F
:108BC00041F80020EAE715B902A800F0DBFC01F04B
:108BD00039F800F08BFA01F015F894F84430FF2BC7
:108BE00008BF84F8448094F84530FF2B08BF84F810
:108BF000458001F027F801A902A800F0CFFC00BBD6
:108C00002046FFF767FDB0B1019904F1240000F0A0
:108C10003FFC2046FFF7B0FD00F014FB48B94FF0D1
:108C2000E0234FF08052C3F8042DBFF34F8FBFF302
:108C30006F8F012594E72046FFF79EFD00F002FBB1
:108C4000F7E72046FFF798FD00F0FCFA2046FFF713
:108C500041FD0028EDD0B4E770B504460D46164638
:108C600000F0D0FF94F84430FF2B04BF002384F8B9
:108C7000443094F84530FF2B04BF002384F845307E
:108C800000F0E0FFA36B2BB93246294604F1240023
:108C900000F018FC2046BDE87040FFF76DBD0000F5
:108CA0002DE9F041044600F0ADFF2F4B2F4E1A681E
:108CB0002F4F01321A603568002D49D134601B688E
:108CC000012B1CD1B84640460135FFF7C1FC382DB9
:108CD00008F11408F7D1DFF89C80274D4046FFF7D4
:108CE000B7FC2846FFF7B4FC2448FFF7B1FC244842
:108CF000FFF7AEFC234BC3F80080234B1D6014200C
:108D0000224A136801331360214AC4F838311168CC
:108D1000E36A8B4200FB037004F1040188BF136017
:108D2000FFF7A4FC00F08EFF1A4B1B6873B1336889
:108D3000DA6AE36A9A4209D24FF0E0234FF0805298
:108D4000C3F8042DBFF34F8FBFF36F8FBDE8F081E1
:108D5000104B1A68E36A002AD1D13268D26A9A426B
:108D600098BF3460CBE700BF780E0020341300209A
:108D7000D40E0020C00E0020AC0E0020900E00206B
:108D80007C0E0020A80E0020A40E00205C0E002007
:108D9000700E00206C0E0020F8B50646144B154DE1
:108DA0001C6828680F460430FFF782FC731C07D14B
:108DB00037B1296810480431BDE8F840FFF756BCC8
:108DC0002B68A4195C6007D30C4B18682968BDE8B0
:108DD000F8400431FFF755BC094B18682968043185
:108DE000FFF74FFC074B1A68A24288BF1C60F8BD12
:108DF000740E0020341300207C0E0020A40E0020EE
:108E0000A80E0020580E002008B501F0A3FAFCE7D8
:108E1000064A13681968064B19B94FF0FF321A60F9
:108E200070471268D268D2685268F8E7A80E00202E
:108E3000580E00202DE9F0470D46DDE90994960013
:108E400032460746A521206B984601F0C3FF236BED
:108E5000043E1E4426F007066B1EC4F8346104F17C
:108E60003302FE3513F8011F02F8011F09B1AB42AE
:108E7000F8D1089D4FF0000A372D28BF3725201D57
:108E8000C4E9505AE56284F832A1FFF7ECFBC5F162
:108E9000380504F11800FFF7E6FB4C225146C4F8F0
:108EA00094A12461A561646284F898A104F5A4707A
:108EB00001F090FF0B4B394603F16802C4F84C31C6
:108EC000D033C4F8502130464246C4F8543100F043
:108ED0006FFE2060B9F1000F01D0C9F80040BDE875
:108EE000F08700BF0442002070B586B0DDE90B5466
:108EF00045B94FF0500383F31188BFF36F8FBFF371
:108F00004F8FFEE744B94FF0500383F31188BFF34E
:108F10006F8FBFF34F8FFEE74FF4CE760596059E19
:108F2000B6F5CE7F08D04FF0500383F31188BFF31E
:108F30006F8FBFF34F8FFEE72563022584F89951A9
:108F400004AD01950A9D02940095FFF773FF20463A
:108F5000FFF7A6FE049806B070BD2DE9F043074662
:108F600085B0900088461646994600F077FF054682
:108F700020B94FF0FF3005B0BDE8F0834FF4CE705C
:108F800000F06CFF044698B1002380F899310D9BE6
:108F9000056301930C9B324641460290009338468C
:108FA0004B46FFF747FF2046FFF77AFE0120E2E736
:108FB000284600F0E5FFDCE770B5044640B94FF005
:108FC000500383F31188BFF36F8FBFF34F8FFEE71A
:108FD000194D2B6883422ED000F014FE6269174BA6
:108FE0009A4224D1A36A164A934220D0FBB9261D87
:108FF0003046FFF75DFB1420124AE36A11688B428A
:1090000088BF1360104A314600FB0320FFF72EFB98
:109010002B68E26ADB6A9A4209D34FF0E0234FF0F3
:109020008052C3F8042DBFF34F8FBFF36F8FBDE89D
:10903000704000F007BE70BD341300207C0E00208D
:10904000900E0020700E0020D40E002010B50024D9
:1090500088B007AA06A905A8CDE90544FFF7E0FAFC
:10906000059B079A0293069B1949CDE900431948CD
:109070002346FFF739FF48B300F074FB01281AD1EB
:109080004FF0500383F31188BFF36F8FBFF34F8FFF
:10909000114B124A1B6803F5A47313604FF0FF32A3
:1090A0000F4B1A600F4B18600F4B1C6008B0BDE8E7
:1090B000104000F027BE013008D14FF0500383F379
:1090C0001188BFF36F8FBFF34F8FFEE708B010BD5D
:1090D000A8AF0008098E00083413002050050020B6
:1090E000580E00206C0E0020740E0020024A1368F7
:1090F00001331360704700BF540E0020014B186805
:10910000704700BF740E00202DE9F74F424B1B68DB
:10911000002B77D1414B1C6801341C60BCB9404B1B
:109120001A68126842B14FF0500383F31188BFF3FD
:109130006F8FBFF34F8FFEE73A4A196810681860C7
:109140001160394A136801331360FFF761FE374D30
:109150004FF0000B2B68364EA342364F16D9142120
:109160003A68D26A4A43B258022A334A28BF4FF0BB
:10917000010B12680AB901F0FFF8304A1268002AA0
:109180000CBF5846012003B0BDE8F08FDFF8909087
:10919000DFF8ACA0D9F8002012681AB94FF0FF32FE
:1091A0002A60DCE7D9F80020D268D2F80C80D8F821
:1091B00004108C4201D22960D1E708F1040318465B
:1091C0000193FFF775FAD8F8281019B108F11800C3
:1091D000FFF76EFA1423D8F82C00DAF80010884252
:1091E00088BFCAF8000008F1040103FB0060FFF724
:1091F0003DFA3868D8F82C10C26A914228BF4FF067
:10920000010BC7E70C4A4FF0000B136801331360E2
:1092100001F0B2F8B1E700BF540E0020740E002038
:10922000A80E0020A40E0020600E0020580E002082
:10923000D40E002034130020680E0020640E00209D
:10924000700E00202DE9F041304C236843B94FF0F7
:10925000500383F31188BFF36F8FBFF34F8FFEE787
:1092600000F0D0FC2368013B236024682CB100246B
:1092700000F0E8FC2046BDE8F081254B1B68002B80
:10928000F5D0244D244EDFF894801DE0EB68DC68B7
:10929000271D04F11800FFF70BFA3846FFF708FA0C
:1092A0001420E36A326800FB03809342394688BF8A
:1092B0003360FFF7DBF91A4BE26A1B68DB6A9A42FC
:1092C00002D30122174B1A602B68002BDED10CB1A0
:1092D000FFF79EFD144D2C6844B10127114EFFF796
:1092E00013FF00B13760013CF9D12C600D4B1B68B6
:1092F000002BBCD04FF0E0234FF08052C3F8042D78
:10930000BFF34F8FBFF36F8F0124B1E7540E0020DE
:10931000780E0020900E0020700E0020D40E002049
:1093200034130020640E0020680E0020F8B5254B91
:109330001A68254B12B101221A60F8BD234C1A603D
:1093400023681B6B1A68B2F1A53F0BD15A68B2F1C2
:10935000A53F07D19A68B2F1A53F03D1DB68B3F10D
:10936000A53F04D020682168343101F015F8142796
:10937000174E1849326807FB02F3CD58C818ADB133
:10938000456808336D680B4445609D4204BF6B68B7
:109390004360142303FB02114B68DB6823603260D7
:1093A00023680D4A03F5A4731360C6E742B94FF072
:1093B000500383F31188BFF36F8FBFF34F8FFEE726
:1093C000013AD8E7540E0020640E00203413002028
:1093D000700E0020D40E00205005002070B5044609
:1093E000264D00F00FFC04B92C68261D3046FFF70F
:1093F0005FF9A36A1BB104F11800FFF759F9314670
:109400001F48FFF733F994F898311E4E012B04BF23
:10941000002384F8983100F015FC33682BB100F07C
:10942000F1FBFFF7F5FC00F00DFC2B68A34217D110
:109430003368B3B1144B1B6843B14FF0500383F34F
:109440001188BFF36F8FBFF34F8FFEE74FF0E0231C
:109450004FF08052C3F8042DBFF34F8FBFF36F8FCF
:1094600070BD074A1168094A1268914201D12B6008
:10947000F6E7BDE87040FFF759BF00BF3413002086
:109480007C0E00206C0E0020540E0020780E002070
:1094900010B50C4640B94FF0500383F31188BFF369
:1094A0006F8FBFF34F8FFEE7054B19681831FFF739
:1094B000E8F82046BDE810400121FFF76DBC00BF71
:1094C0003413002038B50D46144640B94FF0500310
:1094D00083F31188BFF36F8FBFF34F8FFEE7084B05
:1094E00019681831FFF7C2F8002C214608BF28463A
:1094F000BDE8384018BF4FF0FF30FFF74DBC00BF4C
:109500003413002038B5C368DC6844B94FF0500309
:1095100083F31188BFF36F8FBFF34F8FFEE704F122
:1095200018052846FFF7C4F8104B1B68DBB9251D4A
:109530002846FFF7BDF80E4A14201168E36A8B42F3
:10954000294688BF13600B4A00FB0320FFF78EF803
:10955000094BE26A1B68DB6A9A4285BF0120074B10
:109560000020186038BD29460548EFE7540E00205A
:10957000700E0020D40E002034130020640E002052
:10958000900E0020034B1B680360034B1B68436075
:10959000704700BF600E0020740E002070B50C46AE
:1095A000054640B94FF0500383F31188BFF36F8F26
:1095B000BFF34F8FFEE741B94FF0500383F311889B
:1095C000BFF36F8FBFF34F8FFEE700F01BFB0F4B16
:1095D000196823685A1C10D00D482E6800686A6804
:1095E000864201D08A420FD9881A83420AD95B1A6F
:1095F000134428462360FFF7C5FF002400F022FB38
:10960000204670BD002323600124F7E7740E00207C
:10961000600E00200122014B1A607047640E00208A
:10962000054B1B6833B1054B1868B0FA80F0400950
:1096300040007047012070476C0E0020540E00203F
:1096400038B508B9002038BD1D4B1C68844208D0CD
:109650004FF0500383F31188BFF36F8FBFF34F8F29
:10966000FEE7D4F8443143B94FF0500383F3118837
:10967000BFF36F8FBFF34F8FFEE7E16AD4F840214D
:10968000013B9142C4F84431DCD0002BDAD1251DD6
:109690002846FFF70DF81420D4F84031C3F1380202
:1096A000A261084AE36211688B4288BF1360064AD0
:1096B000294600FB0320FEF7D9FF0120C3E700BFC6
:1096C00034130020700E0020D40E0020914208B503
:1096D000416000610AD8D21A83699A420DD2084BC0
:1096E000011D1868FEF7CDFF002008BD9A4201D287
:1096F000994202D2034B011DF3E70120F5E700BFB9
:109700000C14002010140020F7B50F4C00F07AFA6A
:1097100025689DB90D4F0E4E3846FEF799FF30462D
:10972000FEF796FF0B4B0C211F600B4B0A201E60AF
:109730000A4A0B4B0095FFF796F8206003B0BDE88E
:10974000F04000F07FBA00BF081400202814002069
:1097500014140020101400200C1400208813002082
:109760003813002010B588B0FFF7CEFF124B1B68EE
:10977000B3B1002407AA06A905A8CDE90544FEF760
:109780005BFF059B079A0293069B0C4901933523C7
:109790000B4800932346FFF7A7FB0A4B186040B91C
:1097A0004FF0500383F31188BFF36F8FBFF34F8FD8
:1097B000FEE7012008B010BD08140020ADAF00087E
:1097C00085990008041400202DE9F04180463020DE
:1097D0000D4617461E4600F041FB0446C0B145B990
:1097E0004FF0500383F31188BFF36F8FBFF34F8F98
:1097F000FEE7FFF789FF069BC4E906576362C4F8DA
:1098000000802662201DFEF72EFF002384F82C30F6
:109810002046BDE8F0812DE9F3411E463023019337
:10982000019B8046302B0D461746099C08D04FF00F
:10983000500383F31188BFF36F8FBFF34F8FFEE7A1
:1098400044B94FF0500383F31188BFF36F8FBFF318
:109850004F8FFEE741B94FF0500383F31188BFF3F8
:109860006F8FBFF34F8FFEE7FFF74EFF089B201D62
:109870006362C4E90657C4F800802662FEF7F3FE6F
:109880000123204684F82C3002B0BDE8F0810000AE
:109890007FB5164604461A4640B94FF0500383F38D
:1098A0001188BFF36F8FBFF34F8FFEE70C4D286811
:1098B00078B10529CDE9011603940CDCFFF7B0FE61
:1098C0000023022814BF1A46089A286801A9FFF746
:1098D00017F804B070BD002301A9FFF7C3F8F8E73B
:1098E000081400202DE9F3470646FFF707FCDFF8D0
:1098F00088800546D8F80030834209D91F4F3B685D
:109900001A686AB91E4A116813603960012300E0C1
:10991000002328463360C8F8005002B0BDE8F08745
:10992000DB68DC68D3F8009004F1040A5046FEF7C7
:10993000BFFE636A20469847E369012BDFD1A36924
:109940004B44994506D25146386863602461FEF75E
:1099500098FED4E700234A46194620460093FFF7B5
:1099600097FF0028CBD14FF0500383F31188BFF34A
:109970006F8FBFF34F8FFEE70014002010140020FC
:109980000C1400202DE9F043644E654F87B0336816
:109990001D68002D33D0DB68D3F80080FFF7A6FBED
:1099A00003A8FFF79FFF039C8146002C75D1002D73
:1099B00058D040455CD3FFF745FC3368DB68DD6871
:1099C000281DFEF775FEEB69012B1AD1A9694346E4
:1099D0004A4628464144FFF779FE90B12346424665
:1099E000214628460094FFF753FF50B94FF050032B
:1099F00083F31188BFF36F8FBFF34F8FFEE7A84645
:109A0000CCE728466B6A98470022386803A9FFF71D
:109A100085F80028BBD0039B002BF5DB059C636910
:109A200013B1201DFEF744FE02A8FFF75BFF039B66
:109A30000246092BE8D801A151F823F0A19A0008A9
:109A4000A19A0008A19A0008099A0008E59A00085E
:109A5000099B0008A19A0008A19A0008099A000829
:109A6000E59A00082F4B1B681C68B4FA84F464095B
:109A700022463868A8EB0901FFF7EEF8FFF7E2FB92
:109A80000028C1D14FF0E0234FF08052C3F8042DDD
:109A9000BFF34F8FBFF36F8FB6E7FFF7D3FBB3E78B
:109AA000A169049B20461944FFF710FE0028ABD0A3
:109AB000636A20469847E369012BA5D10023A26978
:109AC000049920460A4400931946FFF7E1FE002856
:109AD0009AD14FF0500383F31188BFF36F8FBFF318
